:020000040800F2
:10000000C0110020F9930008A58F0008A78F0008F1
:10001000A98F0008AB8F0008AD8F0008000000001A
:10002000000000000000000000000000AF8F00088A
:10003000B18F000800000000B38F0008B58F0008E2
:10004000F1940008F5940008F9940008FD94000864
:1000500001950008C18F0008059500080995000862
:100060000D950008119500081595000819950008D0
:100070001D95000821950008259500082995000880
:100080002D95000831950008359500083995000830
:100090003D950008419500084595000849950008E0
:1000A0004D95000851950008559500085995000890
:1000B0005D95000861950008659500086995000840
:1000C0006D950008719500087595000879950008F0
:1000D0007D950008C38F000881950008CD8F00082A
:1000E00085950008899500088D9500089195000870
:1000F00095950008999500089D950008A195000820
:10010000A5950008A9950008AD950008B1950008CF
:10011000B5950008D78F0008E18F0008B995000851
:10012000BD950008C1950008C5950008C99500084F
:10013000CD950008D1950008D5950008D9950008FF
:10014000DD950008E1950008E5950008E9950008AF
:10015000ED950008F1950008F5950008F99500085F
:10016000FD9500080196000805960008099600080C
:100170000D96000811960008159600080000000072
:10018000199600081D96000810B5DFF8C00C01F0A4
:10019000C7FA00240020DFF8B80C007800280AD045
:1001A000B4A1DFF8B00C01F0CDFA04000020DFF8B4
:1001B000A01C087005E0AFA1DFF89C0C01F0C2FAAA
:1001C0000400ACA1002001F0BDFA90F90010302924
:1001D00004D194F9000000F0C5FC0CE090F9000097
:1001E000312804D194F9000000F0F0FB03E0DFF8BF
:1001F000B40D01F095FA10BD30B5CBB0DFF85C0C52
:1002000001F08EFA68464FF4967101F0C1FA0020B1
:100210000024DFF83C0C0078002809D096A1DFF814
:10022000340C01F08FFA0021DFF8242C117012E059
:1002300091A1DFF8240C01F085FA0CE0010068467A
:10024000E4B2322202FB040001F0AAFA641C8AA183
:10025000002001F077FA0028F0D1002508E0DFF84F
:10026000A80C01F05DFA0120DFF8A01C08706D1CDD
:10027000EDB2E4B2A5425FD26846EDB2322101FB95
:10028000050090F9000040B2302809D0E7D33228A9
:100290001ED011D3342833D026D335283CD0DEE706
:1002A000002000F04BF86846EDB2322101FB050159
:1002B000002000F0E9F9D6E7012000F03FF8684699
:1002C000EDB2322101FB0501012000F0DDF9CAE7A2
:1002D000022000F033F86846EDB2322101FB05013F
:1002E000022000F0D1F9BEE7032000F027F86846AD
:1002F000EDB2322101FB0501032000F0C5F9B2E7A0
:10030000042000F01BF86846EDB2322101FB050124
:10031000042000F0B9F9A6E7052000F00FF86846C0
:10032000EDB2322101FB0501052000F0ADF90120FD
:10033000DFF8781C087096E74BB030BD70B504004C
:10034000052C5AD1002051E00021DFF8642C6823ED
:1003500003FB002211700021DFF8542C682303FBFB
:10036000002291770021DFF8482C682303FB00224C
:1003700011625FF0FF31DFF8382C682303FB0022A5
:1003800091620021DFF8282C682303FB00225162D0
:100390000021DFF81C2C682303FB0022D16300211D
:1003A000DFF80C2C682303FB002211660021DFF824
:1003B000002C682303FB002282F854100021DFF890
:1003C000F02B682303FB002251660021DFF8E02BAD
:1003D000682303FB002282F840100021DFF8D02BB5
:1003E000682303FB002282F84A10401C0528ABDB7F
:1003F000DFF8C00B01F094F93AE0DFF8BC0B2821DC
:1004000001FB0400006A0500012605E0D0F88050D9
:1004100002F0D3F92800761CDFF89C1B282202FB8F
:10042000041109688E42F1DBDFF88C0B282101FBF7
:10043000040000220023C0E90623DFF87C0B2821FA
:1004400001FB040000220023C0E904230020DFF8A0
:10045000681B282202FB041108600020DFF8581BEB
:10046000282202FB04110862DFF8C00C01F058F9E1
:1004700070BD00002C0000003B000000F8B52DED21
:10048000028BA0B0DFF8340B01F04AF900270024FA
:100490003DE097ED148A390002A801F081F901903E
:1004A000009518EE100A02F015FC02000B00DFF8B0
:1004B000101B07A802F036FC02A80190009518EE68
:1004C000100A02F007FC02000B00DFF8640C01F0D8
:1004D00027F907A802F040FC4FF47A73020092B2A9
:1004E00007A9DFF8500C02F08EFC00207865002090
:1004F000B86500203865D7F88070761CDFF8B80A38
:10050000282101FB040000688642C2DB641C052C24
:100510003FDADFF8A40A282101FB04000068012863
:10052000F4DBDFF8940A282101FB0400076ADFF8F6
:10053000080C282101FB04000568DFF8FC0B2821CA
:1005400001FB040090ED098A009518EE100A02F0F4
:10055000C1FB02000B00DFF8E41B07A802F0E2FB7E
:10056000009518EE100A02F0B5FB02000B00DFF850
:10057000D00B01F0D5F807A802F0EEFB02004FF413
:100580007A7392B207A9DFF8AC0B02F03CFC0026AC
:10059000B4E7DFF8B00B01F0C3F820B0BDEC028B7C
:1005A000F1BD0000F8B52DED028BDFF89C0B01F0DA
:1005B000B7F8002000249FED338A0025002600278D
:1005C00019E0DFF8F409282101FB070090ED000A8B
:1005D000B8EEC00A88EE008ADFF8DC09282101FBAA
:1005E000070080ED028ADFF8500B282101FB07008D
:1005F00080ED098A7F1C052F41DADFF8BC0928212C
:1006000001FB0700006A002817D1F3E790ED160AF6
:10061000B8EEC00AD0ED140A80EE800A80ED140A0C
:1006200090ED140A38EE008A416D8D4201DA456D75
:100630000400416D8E19D0F88000002805D0816D2E
:100640000029E3D100210165EAE7DFF8EC0A28215F
:1006500001FB070007601F2EB3DBDFF8DC0A28214F
:1006600001FB0700DFF8E41A41622100DFF8C80A45
:10067000282202FB0700001D01F092F8BAE7BDEC4A
:10068000028BF1BD0000000070B52DED028BADF5C1
:100690007A7D05000800002600260024CAA101F08A
:1006A00051F806000CE0C8A1002001F04BF806004C
:1006B00031006846322202FB040001F071F8641C2C
:1006C000002EF0D1052D40F0BC80684602F044FFBA
:1006D000050000241AE0DFF8D828682303FB012274
:1006E00012EB81026B46C82606FB0433CB1893F944
:1006F000C830303B9362491C8142ECDB0020DFF8BC
:10070000B018682202FB04110862641CAC4280F23B
:1007100097806846A100322202FB010010F13201ED
:10072000DFF88C08682202FB040001F039F8684603
:10073000A100322202FB010090F86400DFF870187B
:10074000682202FB041188776846A100322202FB6E
:100750000100963002F000FFDFF85418682202FB17
:100760000411C863DFF84808682101FB0400C06B6E
:10077000042826D100206946A200322303FB02117F
:1007800081F8CD006846A100322202FB010010F181
:10079000C801DFF81C08682202FB0400403000F0AA
:1007A000FFFF6846A100322202FB010010F1CE01DA
:1007B000DFF8FC07682202FB04004A3000F0F0FF7B
:1007C0009CE7DFF8EC07682101FB0400C06B0328FD
:1007D00026D100206946A200322303FB021181F8D2
:1007E000CD006846A100322202FB010010F1C801D1
:1007F000DFF8BC07682202FB0400543000F0D0FF91
:100800006846A100322202FB010010F1CE01DFF8A0
:10081000A007682202FB04004A3000F0C1FF6DE728
:100820006846A100322202FB0100C83002F094FAAF
:10083000DFF87C17682202FB0411486200215BE7A5
:10084000BDE0DFF87407282101FB0500456068461C
:1008500002F082FEDFF86017282202FB0511086013
:1008600000210DF1320002F07BFEB0EE408AF0EE86
:10087000608A002119A802F073FEDFF83C072821E6
:1008800001FB050080ED048BDFF82C07282101FB1C
:10089000050080ED060B0020DFF81C17282202FB64
:1008A0000511086200240EE0DFF80C07282101FB87
:1008B0000500006AC6F88000DFF8FC06282101FB6D
:1008C00005000662641CDFF8F006282101FB050024
:1008D0000068844273DA842001F014FE0600684642
:1008E000072101FB04F1322202FB010010F1960105
:1008F000300000F055FF6846072101FB04F1322269
:1009000002FB010010F1C80116F11E0000F048FFC3
:100910006846072101FB04F1322202FB010010F1BD
:10092000FA0116F15C0000F03BFF6846072101FB6D
:1009300004F1322202FB010010F5967002F00CFE69
:10094000B0666846072101FB04F1322202FB010078
:1009500010F5AF7002F000FEF0666846072101FB5B
:1009600004F1322202FB010010F5C87002F0F4FD20
:1009700030676846072101FB04F1322202FB0100C7
:1009800010F5E17116F1740000F00AFF00207065A7
:10099000002030650020B0650020C6F88000DFF838
:1009A0001806282101FB0500006A00287FF47CAFAF
:1009B000DFF80406282101FB0500066282E70DF539
:1009C0007A7DBDEC028B70BD2C00000010B50400D8
:1009D00064B22100DFF8A00A00F0A2FE00F00AF9DC
:1009E00064B2312C06D038D3332C1CD00ED3342C27
:1009F00026D032E001224FF48051DFF8800A02F065
:100A0000A4FE0120DFF8A815086226E001224FF4B9
:100A10008051DFF8680A02F098FE0120DFF8901597
:100A2000C1F8880019E001224FF48051DFF84C0A28
:100A300002F08BFE0120DFF87815C1F8F0000CE021
:100A400001224FF48051DFF8340A02F07EFE0120CB
:100A5000DFF85C15C1F85801FFE710BDF0B59FB095
:100A6000040000200026002205A9DFF8140A02F085
:100A700077FF9DF815309DF81420DFF8081A6846B6
:100A800002F050F96946DFF82805682202FB0400ED
:100A9000403000F085FEDFF81805682101FB0400F6
:100AA00010F15401684600F07BFEB6A100F04AFE4A
:100AB0000BE001000AA8142202FB060000F070FE01
:100AC000B0A1002000F03EFE761C0028F1D10026E7
:100AD000DFF8DC04682101FB040010F140016846E6
:100AE00000F05EFEA7A100F02DFE0BE0010014A8AF
:100AF000142202FB060000F053FEA2A1002000F029
:100B000021FE761C0028F1D119A802F025FD06006F
:100B10000FA802F021FD86193C2E07DB3C2096FB36
:100B2000F0F53C2096FBF0F100FB116614A802F0F2
:100B300013FD07000AA802F00FFDC019451918207F
:100B400095FBF0F100FB115533002A00DFF8341952
:100B5000DFF85C04682505FB0400403002F0E2F891
:100B60001FB0F0BD10B5040064B22100DFF8CC0A5C
:100B700000F0D6FD00F03EF864B2312C06D038D338
:100B8000332C1CD00ED3342C26D032E000224FF46C
:100B90008051DFF8E80802F0D8FD0020DFF81014DB
:100BA000086226E000224FF48051DFF8D00802F0FE
:100BB000CCFD0020DFF8F813C1F8880019E000220E
:100BC0004FF48051DFF8B40802F0BFFD0020DFF8D9
:100BD000E013C1F8F0000CE000224FF48051DFF880
:100BE0009C0802F0B2FD0020DFF8C413C1F8C00178
:100BF000FFE710BD00B589B0002203A9DFF8800827
:100C000002F0AEFE002202A9DFF8740802F053FFE2
:100C10009DF80B0000F2CD700C21DFF8282A9DF81A
:100C2000083052F8232001929DF80A2000929DF886
:100C3000093090FBF1F201FB1200DFF80C1A51F8B9
:100C400020209DF80B0010F5FA61DFF8000A00F093
:100C500067FD9DF80E309DF80D209DF80C10DFF813
:100C6000A00A00F05DFD09B000BDF8B50400D04851
:100C7000682101FB0400456A002639E0CC48682160
:100C800001FB040010EB8600876ACB48282101FB9A
:100C90000700806802F01EF8C74A282303FB0722DA
:100CA0005369126902F080FF07D2C148682101FB35
:100CB000040090F91E00FFF789FEBF48282101FBC0
:100CC0000700806802F006F802000B00BA482821ED
:100CD00001FB0700C169806902F066FF07D2B448D2
:100CE000682101FB040090F91E00FFF73BFF761C12
:100CF000AE42C3DBF1BDF8B50400AD48682101FB8D
:100D00000400456A002639E0A948682101FB040077
:100D100010EB8600876AA848282101FB070080683D
:100D200001F0D8FFA44A282303FB07225369126964
:100D300002F03AFF07D29E48682101FB040090F9B7
:100D40001E00FFF70FFF9C48282101FB0700806869
:100D500001F0C0FF02000B009748282101FB0700AB
:100D6000C169806902F020FF07D29148682101FB28
:100D7000040090F91E00FFF729FE761CAE42C3DB8B
:100D8000F1BD00003A00000070B5ACB004000025D1
:100D9000002000226946DFF8E80602F0E1FD9DF838
:100DA00001309DF80020DFF8DC161FA801F0BAFF23
:100DB0001FA97F48682202FB0400403000F0F0FCCD
:100DC0007B48682101FB040010F14A0112A800F0E1
:100DD000E7FC75A100F0B6FC0BE0010005A80A22B3
:100DE00002FB050000F0DCFC6FA1002000F0AAFC73
:100DF0006D1C0028F1D1002D04D1DFF8540800F05B
:100E00008FFC20E005A802F0A7FB05003C260DF1B1
:100E10001E0002F0A1FB06FB05004EF660214843D0
:100E20006349682202FB041108666148682101FBDE
:100E30000400006E5E49682202FB0411486601202E
:100E4000DFF8C01808702CB070BD0000589300087F
:100E50004E2E0020B4230020A82500202492000854
:100E600070B5A8B00400002500205148682101FB9E
:100E7000040010F140011AA800F092FC4C486821CF
:100E800001FB040010F14A010DA800F089FC46A105
:100E900000F058FC0BE0010068460A2202FB050046
:100EA00000F07EFC40A1002000F04CFC6D1C0028EE
:100EB000F1D1002D04D1DFF8980700F031FC20E0DB
:100EC000684602F049FB05003C260DF10A0002F0DD
:100ED00043FB06FB05004EF6602148433449682277
:100EE00002FB041108663248682101FB0400006E11
:100EF0002F49682202FB041148660120DFF8081818
:100F0000087028B070BD000038920008462E0020FE
:100F100010B5002400E0641C052C33DA2448682155
:100F200001FB040090F900003028F4D0204868212B
:100F300001FB0400C06B012806D0ECD303280BD0C2
:100F400006D3042813D0E6E72000FFF78EFEE2E781
:100F50002000FFF7D0FEDEE71548682101FB040002
:100F6000006E002802D12000FFF70EFFD3E71048E3
:100F7000682101FB0400006E002802D12000FFF769
:100F80006FFFC8E710BD002004E00021DFF8C42691
:100F90008154401CDFF80C1709788842F5DB704754
:100FA00000000000689300083A000000472E00206F
:100FB000742900204C920008182C00207893000817
:100FC0002094000810B52DED028B00EE100A0C00E5
:100FD000B8EEC08A18EE100A01F07CFE02000B0089
:100FE000DFF8740600F09CFB002C0ED0022C1CD005
:100FF0000CD3042C37D027D3062C52D042D3082C44
:101000006DD05DD3092C79D087E08AE018EE100A04
:1010100001F060FEDFF84426DFF8443602F0DCFD24
:1010200002F0ACFE08EE100A7BE018EE100A01F0A8
:1010300051FEDFF83026DFF8303602F0CDFD02F049
:101040009DFE08EE100A6CE018EE100A01F042FE58
:10105000DFF81826DFF8183602F0BEFD02F08EFE2B
:1010600008EE100A5DE018EE100A01F033FEDFF81A
:101070000426DFF8043602F0AFFD02F07FFE08EE32
:10108000100A4EE018EE100A01F024FEDFF8EC25FD
:10109000DFF8EC3502F0A0FD02F070FE08EE100A59
:1010A0003FE018EE100A01F015FEDFF8D825DFF852
:1010B000D83502F091FD02F061FE08EE100A30E032
:1010C00018EE100A01F006FEDFF8C025DFF8C03583
:1010D00002F082FD02F052FE08EE100A21E018EE46
:1010E000100A01F0F7FDDFF8AC25DFF8AC3502F0AF
:1010F00073FD02F043FE08EE100A12E018EE100A2B
:1011000001F0E8FDDFF89425DFF8943502F064FD86
:1011100002F034FE08EE100A03E0DFF8F00500F0FC
:10112000FFFAB0EE480ABDEC028B10BD60920008D9
:1011300090910008302D0020142B002014940008FA
:1011400074920008889300088892000800401CC62A
:1011500070B52DED028B86B006000C0015006846B8
:10116000142100F015FBDFF83C050178DFF8E404FA
:1011700002F074FE00282BD1DFF82C0500F0D0FA25
:10118000DFF8281514F15C0002F0A8FE002840F0FA
:101190009D80B8A114F1740002F0A0FE002832D1A5
:1011A000E06E04281ED1A06E801910F8010C8DF895
:1011B0000200A06E805D8DF80300A06E801940785B
:1011C0008DF80000A06E801980788DF8010042E053
:1011D000DFF8DC0400F0A4FA606D401C6065FFF7E6
:1011E000D2FE42E1A06E805D8DF80200A06E8019F3
:1011F00010F8010C8DF8030000208DF8000000208D
:101200008DF8010027E0E06E042814D1A06E80194B
:1012100010F8010C8DF80000A06E805D8DF80100C3
:10122000A06E801940788DF80200A06E8019807839
:101230008DF803000FE0A06E801910F8010C8DF8F6
:101240000200A06E805D8DF8030000208DF8000084
:1012500000208DF80100684600F024F9D4ED140A4E
:1012600070EE800AC4ED140A10EE100A01F032FD8F
:1012700002000B00DFF83C0400F052FA002D09D008
:10128000022D00F0968074D3042D00F0CE80C0F0C3
:10129000AE80E8E0DFF8200490ED000AB4EE408A6A
:1012A000F1EE10FA61DBDFF8140490ED000AB4EE01
:1012B000480AF1EE10FA58DB94ED140A30EE080AF1
:1012C00084ED140AA06D401CA06551E0DFF8F01316
:1012D00014F15C0002F002FE002841D1E06E022809
:1012E00010D100208DF8000000208DF80100A06EC4
:1012F000801910F8010C8DF80200A06E805D8DF849
:10130000030013E0A06E801910F8010C8DF80000A6
:10131000A06E805D8DF80100A06E801940788DF878
:101320000200A06E801980788DF80300684600F0F6
:10133000ABF80600216F3000FFF744FEF0EE408A64
:101340003100DFF8800300F0EBF918EE900A01F0AD
:10135000C1FC02000B00DFF8700300F0E1F98DE73B
:10136000DFF8680300F0DCF97FE0606D401C606529
:1013700079E0DFF85C0390ED000AB4EE408AF1EE0C
:1013800010FA12DBDFF84C0390ED000AB4EE480AC5
:10139000F1EE10FA09DB94ED140A30EE080A84ED40
:1013A000140AA06D401CA06502E0606D401C6065E1
:1013B00059E0C94890ED000AB4EE408AF1EE10FA07
:1013C00011DBC64890ED000AB4EE480AF1EE10FABF
:1013D00009DB94ED140A30EE080A84ED140AA06DBE
:1013E000401CA06502E0606D401C60653BE0BC48AD
:1013F00090ED000AB4EE408AF1EE10FA11DBB94824
:1014000090ED000AB4EE480AF1EE10FA09DB94ED13
:10141000140A30EE080A84ED140AA06D401CA06581
:1014200002E0606D401C60651DE0AF4890ED000A71
:10143000B4EE408AF1EE10FA11DBB54890ED000AE7
:10144000B4EE480AF1EE10FA09DB94ED140A30EE1E
:10145000080A84ED140AA06D401CA06502E0606DCE
:10146000401C6065FFE7FFF78EFD06B0BDEC028B08
:1014700070BD000062696700989300080014024084
:10148000F02D00202C9400080178090642781204FF
:1014900083781B029A18C07810184118080070470A
:1014A000000000002DE9F0412DED048B017890F84B
:1014B00001808478C578B7EE008AC9B2802901D34B
:1014C000BFEE008ADFED5C8AC9B280290CD3C9B2B5
:1014D000080002F02FFD0022844B02F039FD02F0DB
:1014E0004DFC08EE900A04E0C9B200EE101AF8EEC6
:1014F000408A18EE900A01F0EDFB00225FF0804375
:1015000002F06AFB02F03AFC08EE900A5FFA88F8F3
:10151000B8F1800F0BD318EE900A01F0DBFB00222C
:10152000734B02F015FD02F029FC08EE900A18EE4C
:10153000900A01F0CFFB00226E4B02F009FD02F091
:101540001DFC08EE900A9FED3C9A5FFA88F8B8F10E
:10155000800F0BD35FFA88F8404602F0EBFC0022C4
:10156000624B02F0F5FC02F067FD8046EDB2280008
:1015700002F0E0FC06000F00E4B2200002F0DAFC0A
:1015800004000D005FFA88F8404602F0D3FC002208
:10159000594B02F021FB22002B0002F0D9FC002263
:1015A000554B02F019FB32003B0002F0D1FC02F077
:1015B000E5FB09EE100A9FED220A89EE009A18EE6B
:1015C000100A01F087FB04000D0018EE900A01F0EC
:1015D00081FB41EC110B9FED4F0B02F09AFF51EC98
:1015E000100B22002B0002F0F7FA04000D00B7EEFA
:1015F000000A39EE000A10EE100A01F06BFB22001F
:101600002B0002F0E9FA02F0B9FB00EE100ABDEC83
:10161000048BBDE8F08170B504000D00002604E0E5
:10162000315D364800F07CF8761CAE42F8DB3BA01A
:1016300000F076F870BD000000000000A8930008DC
:101640000000004B000000201C00002074900008E7
:1016500038940008C0210020449400089A99999970
:101660009999B93F7B14AE47E17A843FFCA9F1D246
:101670004D62503F2D431CEBE2361A3FF168E38880
:10168000B5F8E43E8DEDB5A0F7C6B03E48AFBC9AC4
:10169000F2D77A3E3A8C30E28E79453E95D626E8EE
:1016A0000B2E113EBC0100209C920008749400088F
:1016B000B0920008C4920008640000206800002076
:1016C0007C940008C8930008D8920008EC920008A7
:1016D000342E00206C0000207000002074000020D8
:1016E000302E0020600000202C2E0020000060C062
:1016F0000000F03F00C05FC000007040849400080C
:10170000B89300084F2E0020502E0020509400085F
:101710005C00002000000000000000400A00000003
:101720000EB400B582B003A9009102466B460121B8
:10173000034878440A3003F00BF906BC5DF810FB4F
:10174000997A000070B504460D46104804F0B3F9CC
:10175000064644B12946204604F0AEF90419207823
:1017600030B9306070BD3468002CF3D1002070BDFA
:101770002946204604F0B1F90019017811B1002181
:1017800000F8011B3060204670BD00BFB80000208B
:10179000002204F0B3B90268531C03601170704753
:1017A0005FEA000C830706D011F8013B00F8013B0B
:1017B000B3B18307F8D10A68B2F1013323EA020317
:1017C00013F0803F02BF40F8042B51F8042FF3E7D9
:1017D00011F8013B00F8013B13B111F8013BF9E7A7
:1017E0006046704700F5E0700268914203D3436899
:1017F0009A18914202D380680028F5D17047DFF82B
:101800005807016891B94FF4803181604FF48051DD
:1018100041604FF0FF31C16001610421DFF83C27D6
:101820004161C2F8BC11DFF8381701600120704730
:1018300001F1080313F0070305D001F10803C3F118
:10184000080303F007035918D21A8161C26042F0FD
:1018500001034B60511828234B60DFF8FC1609691F
:10186000C16170472DE9F84F064601F1080010F0FC
:10187000070008BF884607D001F10800C0F1080042
:1018800000F0070000EB010802F1080010F007006B
:1018900006D002F10800C0F1080000F0070082182D
:1018A0001546A5EB0800A0EB030903EB080B43F07A
:1018B0000300C8F80400AB4528BF04F038F92879C4
:1018C000C00758BF04F033F9B9F1100F38BF04F066
:1018D0002EF9B069854209D1F0684844F060C6F835
:1018E00018B040F00100CBF804006DE1706985424A
:1018F0000BD1B0684844B060C6F814B040F00101A4
:10190000CBF8041040F80B005EE1686800F00301BA
:10191000012940F0AD80C008C0000190C008202817
:101920003AD2D5F808A0EF680090BD4208BF04F095
:10193000FEF8554508BF04F0FAF868680099C00839
:10194000C000B0EBC10F18BF04F0F1F8009806EB2F
:10195000C00000F128018A4507D031698A45C0F0EE
:101960008280DAF80C10A9427DD1574506D1009A41
:101970003068012191408843306076E0283087420A
:1019800005D0306987426ED3B868A8426BD1CAF8D7
:101990000C70C7F808A068E0EF68D5F818A0AF424F
:1019A0000CD0A8683169884223D3C168A94204BF1A
:1019B000B968A9421DD1C760B8601CE005F11400E8
:1019C000076837B905F110000768A7B101E00846BC
:1019D000076807F114010A68002A02BF07F1100125
:1019E0000A68002AF3D13169884202D300210160DC
:1019F00001E004F09CF8BAF1000F36D0E86906EB7C
:101A0000800000F5987001688D4208D10760A7B981
:101A1000EA697068012191408843706025E030696F
:101A2000824508D3DAF81000A84214BFCAF814702F
:101A3000CAF8107001E004F07AF8B7B13069874253
:101A400011D3C7F818A0296929B1814226BF39618D
:101A50008F6104F06CF8686938B13169884202D34B
:101A60007861876101E004F062F8019845198144CA
:101A700068684008400068604FEAD90549F00100F5
:101A8000CBF8040049F80B90202D23D206EBC500BB
:101A900000F12807BA46B9F1100F38BF04F047F833
:101AA000306820FA05F1C90704D40121A940084390
:101AB000306006E0B868316988422CBF824604F085
:101AC00036F8C7F808B0CAF80CB0CBF808A0CBF8C5
:101AD0000C7079E05FEA192108BF002023D0B1F52E
:101AE000803F28BF1F201ED2A1F58070000C00F09F
:101AF00008008140A1F58052120C02F004029140CE
:101B0000A1F580431B0CC0F10E0003F00203801A04
:101B1000C01A994000EBD130C11D29FA01F202F040
:101B2000010101EB4000CBF81C000022CBF814208F
:101B3000CBF8102006EB8001726822FA00F3DB0775
:101B400001F5987107D4012303FA00F01043706087
:101B5000C1F800B01DE009681F280EBF0020400832
:101B6000C0F1190009FA00F000E011464A68D208F5
:101B7000D2004A4514D0C20F01EB820202F11003D9
:101B800040001A68002AF0D1306983421AD3C3F8A2
:101B900000B0CBF81810CBF80CB0CBF808B013E0BD
:101BA00032698868914228BF90420BD3C0F80CB0CC
:101BB000C1F808B0CBF80800CBF80C100020CBF827
:101BC000180001E003F0B3FF08F10800BDE8E68F5C
:101BD0002DE9FA4D0546DFF8800384B0006808B9A6
:101BE000FFF70DFEDFF870030499806841182F316C
:101BF000401E21EA00000499814280F0A88105F589
:101C0000D876B16839B132688018824280F09F81FD
:101C10008142C0F09C8103F08DFF00281EBF044666
:101C2000D0F8008014F1010F00F0918130687168E4
:101C300040443060814238BF01467160A86980BB72
:101C4000286908B1844200D22C610020F06134611F
:101C5000C6F8148005F12801BF48006868624FF09B
:101C6000FF302862002001F10802C9601160801C69
:101C700010312028D2609260F5D3B848854203D154
:101C8000A8F12802214629E055F8040CC00805EB0C
:101C9000C000A0F1080108EB0400401AA0F12802DE
:101CA0001CE005F5E071084600E08068D0B10268EC
:101CB00043689A189442F8D1027B120712D4AA6999
:101CC00003689A420ED347683B449A420AD208EB13
:101CD00007014160E868A96908EB00022846FFF7A0
:101CE000A7FD1EE128698442084638BF2C6108EB35
:101CF000040100E0806880B102688A42FAD1017B69
:101D000009070AD404604168414441602146049BAC
:101D1000284606B0BDE8F04DA4E5AF69394628462F
:101D2000FFF760FD01684068401802902F3800F10D
:101D3000080111F0070105D000F10801C1F1080107
:101D400001F00701081807F11001884234BF00971D
:101D5000009000980830019004F10801009800F10B
:101D6000180A11F007014FF0000BA8F1280005D068
:101D700004F10801C1F1080101F007010A19401A34
:101D8000AA61E86040F0010151608018282141609B
:101D900071480069E861019810F0070018BF03F06E
:101DA000C6FE00991B20486005F5E071B1E80C50B3
:101DB0000198A0E80C503461C6F81480C6F81CB035
:101DC0000198B061029800E08A460722CAF8042010
:101DD0000AF104010A1D82420BF1010BF4D3BBF19D
:101DE000020FB8BF03F0A3FE0098B84200F099803C
:101DF000C01BC119C4084A68520852004A6040F02A
:101E000001017960C051202C20D205EBC40101F101
:101E10002806B046102838BF03F089FE286820FA4B
:101E200004F1C90704D40121A1400843286006E059
:101E3000B068296988422CBF804603F078FEB760FD
:101E4000C8F80C70C7F80880FE606AE0010A08BF95
:101E5000002223D0B1F5803F28BF1F221ED2A1F55A
:101E60008072120C02F008029140A1F580531B0C05
:101E700003F004039940A1F58044240CC2F10E0242
:101E800004F00204D21A121BA14002EBD131CA1D88
:101E900020FA02F303F0010202EB4102FA6100238F
:101EA0007B613B6105EB82016B6823FA02F4E40776
:101EB00001F5987105D401209040184368600F60C7
:101EC0001CE009681F2A0EBF00225208C2F1190245
:101ED00000FA02F200E019464B68DB08DB0083429F
:101EE00010D0D30F01EB830303F1100452002368D9
:101EF000002BF0D12869844211D32760B961FF60BB
:101F0000BF600EE02A698868914228BF904206D3DC
:101F1000C7608F60B860F9600020B86101E003F02D
:101F200006FEE8680499814211D2401AE860A96966
:101F3000049A5218AA6140F001005060049840F0E1
:101F40000300486006B001F10800BDE8F08D0020F4
:101F500006B0BDE8F08D0000102E00209C27002068
:101F60006859883C2DE9F04D0446002688465FEA12
:101F70001820C8F1000B08BF002123D0B0F5803F26
:101F800028BF1F211ED2A0F58071090C01F00801A5
:101F90008840A0F58052120C02F004029040A0F597
:101FA00080431B0CC1F10E0103F00203891AC91A08
:101FB000984001EBD030C11D28FA01F202F0010176
:101FC00001EB400104EB8100D0F8300118B31F2968
:101FD0000EBF00224A08C2F1190208FA02F20023D9
:101FE00000E052004568ED08ED00A5EB08055D45F1
:101FF00003D25FEA050B06460BD04569D70F00EB0D
:102000008700002D00691CBF85422B460028E8D1BF
:102010001846B8BBC6BB0120884040004142084377
:102020006168084000F0638141420840401E010B96
:1020300001F01001C840420902F00802D0408308B4
:1020400003F00403D840450805F002055118E840A4
:102050005918C0F3400729443944F840401804EBAC
:102060008000D0F830010DE008464168C908C90079
:10207000A1EB080159453CBF8B4606460169002982
:10208000F2D140690028F0D1002E00F03081A06824
:10209000A0EB0800834580F02A8120698642C0F0C9
:1020A00024817068C008C00008EB0B0108EB06052E
:1020B000884218BF03F03BFDAE4280F01681F768FE
:1020C000D6F818A0B7420CD0B0682169884223D353
:1020D000C168B14204BFB968B1421DD1C760B860E0
:1020E0001CE006F11400076837B906F11000076814
:1020F000A7B101E00846076807F114010A68002A41
:1021000002BF07F110010A68002AF3D12169884251
:1021100002D30021016001E003F009FDBAF1000FD4
:1021200038D0F06904EB800000F5987001688E42A9
:1021300009D10760380014D1F2696068012191402B
:102140008843606026E02069824508D3DAF81000F1
:10215000B04214BFCAF81470CAF8107001E003F05E
:10216000E6FCBFB12069874212D3C7F818A03069D6
:1021700030B12169884226BF3861876103F0D7FCFE
:10218000706938B12169884202D37861876101E0C2
:1021900003F0CDFCBBF1100F0CD208EB0B0040F0AC
:1021A0000300706008EB0B008019416841F00101E9
:1021B000416096E048F0030070604BF001006860F9
:1021C0004FEADB004BF805B020281DD204EBC0011C
:1021D00001F12807216821FA00F2D207BB4605D495
:1021E000012202FA00F00843206006E0B868216985
:1021F00088422CBF834603F09AFCBD60CBF80C509C
:10220000C5F808B0EF606CE05FEA1B2108BF002052
:1022100023D0B1F5803F28BF1F201ED2A1F58070CA
:10222000000C00F008008140A1F58052120C02F071
:1022300004029140A1F580431B0CC0F10E0003F095
:102240000203801AC01A994000EBD130C11D2BFA4D
:1022500001F202F0010101EB4000E86100226A6135
:102260002A6104EB8001626822FA00F3DB0701F5C2
:10227000987106D4012303FA00F0104360600D60EA
:102280001CE009681F280EBF00204008C0F119009B
:102290000BFA00F000E011464A68D208D2005A4515
:1022A00010D0C20F01EB820202F1100340001A6845
:1022B000002AF0D12069834211D31D60A961ED602D
:1022C000AD600EE022698868914228BF904206D333
:1022D000C5608D60A860E9600020A86101E003F09E
:1022E00026FC06F10800BDE8F08D03F020FC00207C
:1022F000BDE8F08D2DE9F84F0446884660684142FC
:102300000840401E010B01F01001C840420902F0D4
:102310000802D040830803F00403D840450805F0C4
:1023200002055118E8405918C0F3400629447118B5
:10233000F040401804EB8000D0F830014168C90833
:10234000C9000646A1EB080A09E008464168C90829
:10235000C900A1EB080151453CBF8A460646016908
:102360000029F2D140690028F0D120698642C0F0EE
:10237000C4807068C00808EB0A09C00008EB060BAF
:10238000484518BF03F0D3FB5E4580F0B680F76880
:10239000B569B7420CD0B0682169884223D3C168BF
:1023A000B14204BFB968B1421DD1C760B8601CE03A
:1023B00006F11400076837B906F110000768A7B1E5
:1023C00001E00846076807F114010A68002A02BF05
:1023D00007F110010A68002AF3D12169884202D36B
:1023E0000021016001E003F0A2FB002D34D0F06970
:1023F00004EB800000F5987001688E4209D10760F7
:10240000380011D1F2696068012191408843606011
:1024100022E02069854205D32869B04214BF6F616C
:102420002F6101E003F083FBB7B12069874211D32C
:10243000BD61306930B12169884226BF386187614A
:1024400003F075FB706938B12169884202D3786165
:10245000876101E003F06BFBBAF1100F09D249F07C
:102460000300706009EB0600416841F00101416022
:102470003FE048F0030070604AF00100CBF8040030
:102480004AF80BA0D4F808804FEAD805202D28BFC1
:1024900003F04DFBB8F1000F27D0D4F8149000954D
:1024A00004EBC50000F128052F46B8F1100F38BF26
:1024B00003F03DFB2068009920FA01F2D10705D412
:1024C000009A012191400843206006E0A868216934
:1024D00088422CBF074603F02AFBC5F80890C7F8CE
:1024E0000C90C9F80870C9F80C50C4F808A0C4F8DA
:1024F00014B006F10800BDE8F28F03F018FB0020CD
:10250000BDE8F28F2DE9F04F83B00546C046C046C6
:10251000F52DDFF8B84780F002810B2D31BF102771
:1025200005F10B00C708FF002068FE08F04010F01E
:10253000030F42D0C04300F00100861904EBC6002F
:1025400000F12808F700D8F808506868C008C000F3
:10255000B84218BF03F0EBFAD5F80890454508BF1C
:1025600003F0E5FA4D4508BF03F0E1FA6868C008DA
:10257000C000B84218BF03F0DAFAC84505D1206898
:102580000121B140884320600DE02069814508D3D6
:10259000D9F80C00A84204D1C8F80890C9F80C80FA
:1025A00001E003F0C4FA47F00300686078190835C9
:1025B000416841F001014160F9E0A168B94280F051
:1025C000C080002800F0A280012505FA06F149002C
:1025D0004A42B0401143084041420840401E010BAE
:1025E00001F01001C840420902F00802D0408308FF
:1025F00003F00403D840460806F002065118F040E4
:102600005918C0F340087118414420FA08F000EB53
:10261000010804EBC80000F128094FEAC80AD9F8FC
:1026200008607068C008C000504518BF03F07FFA0A
:10263000D6F808B04E4508BF03F079FA5E4508BFEA
:1026400003F075FA7068C008C000504518BF03F069
:102650006EFAD94505D1206805FA08F18843206053
:102660000DE02069834508D3DBF80C00B04204D1AB
:10267000C9F808B0CBF80C9001E003F058FA47F025
:1026800003007060AAEB0708B819019048F0010038
:1026900001994860019848F80080A7684FEAD70A76
:1026A000BAF1200F28BF03F042FA47B3CDF800A0DB
:1026B00004EBCA00D4F8149000F1280AD346102F76
:1026C00038BF03F034FA2068009920FA01F2D107EC
:1026D00005D4009905FA01F10843206007E0DAF813
:1026E0000800216988422CBF834603F020FACAF80B
:1026F0000890CBF80C90C9F808B0C9F80CA0C4F841
:10270000088006F108050198606150E06068C0B378
:1027100039462046FFF7EEFD050012D047E015F1DF
:10272000400F28BF4FF0FF370BD205F10B00C70851
:102730006068FF0028B139462046FFF713FC05000A
:1027400035D1A068B8421CD3C11B626910290AD3D5
:10275000B8186061A16041F001034360095047F07F
:10276000030050600AE00021A160616140F00301B4
:1027700051608018416841F00101416002F1080593
:1027800015E0E06887420DD2C01BA169E0607A18AD
:10279000A26140F00100506001F1080547F003001C
:1027A000486004E039462046FFF712FA0546C04665
:1027B000C046284603B0BDE8F08F00B970472DE948
:1027C000F047A0F10804C046C046DFF8005528696C
:1027D0008442C0F07482616801F00302012A00F0B3
:1027E0006E82CA084FEAC208CA0708EB040936D449
:1027F000226811F0030F00F06482A41A844290440E
:10280000C0F05D8269698C4200F0D880D608202E25
:1028100070D2D4F80CA0A768544508BF03F087F91C
:10282000BC4208BF03F083F96068C008C000B0EB89
:10283000C60F18BF03F07BF905EBC60000F12801B5
:102840008F4205D029698F4251D3F968A1424ED1F8
:10285000BA453DD128680121B140884328604C45E4
:1028600080F02D82D9F80400C10740F12882810749
:1028700000F17A81A969894540F0B580E868AC61CA
:102880004044E86040F00101616069698C4202D116
:1028900000216961A960E969814280F01282DFF854
:1028A0003004006808B9FEF7AAFFA969002900F002
:1028B0000882E868292824BF2846FEF793FFE869C4
:1028C000E968884280F0FD814FF0FF30E861F8E16F
:1028D0002830824506D02869824508D3DAF80800F6
:1028E000A04204D1C7F80CA0CAF80870B7E703F0FB
:1028F0001EF9B4E7E768A669A7420BD0A168814238
:1029000022D3C868A04204BFB868A0421CD1CF60DF
:10291000B9601BE004F114010F6837B904F110012C
:102920000F689FB101E011460F6807F114021368A8
:10293000002B02BF07F110021368002BF3D1814274
:1029400002D30020086001E003F0F1F8002E86D0E9
:10295000E06905EB800000F5987001688C4209D1B0
:102960000760380011D1E26968680121914088430D
:10297000686074E72869864205D33069A04214BFB5
:102980007761376101E003F0D2F8002F3FF467AFC1
:1029900028698742ABD3BE61216929B1814226BF34
:1029A00039618F6103F0C3F8606900283FF457AFC5
:1029B000296988429BD37861876150E799F80400C0
:1029C00000F0030003287FF44AAFC5F80880D9F867
:1029D000040040084000C9F8040048F001006060AD
:1029E00048F804806DE16969894508D1A8686C617F
:1029F0004044A86040F001016160005161E1C008FD
:102A0000C0004FEAD00ABAF1200F804436D2D9F87C
:102A10000C70D9F80860B94508BF03F088F8B145D3
:102A200008BF03F084F8D9F80400C008C000B0EB78
:102A3000CA0F18BF03F07BF805EBCA0000F12801AC
:102A40008E4206D029698E42C0F08180F1684945E6
:102A50007DD1B74206D12868012101FA0AF18843E5
:102A6000286076E02830874205D0286987426ED3F7
:102A7000B86848456BD1F760BE606AE0D9F80C7061
:102A8000D9F818604F450DD0D9F808002969884257
:102A900023D3C168494504BFB96849451DD1C76002
:102AA000B8601CE009F11400076837B909F110009B
:102AB0000768A7B101E00846076807F114010A6832
:102AC000002A02BF07F110010A68002AF3D1296920
:102AD000884202D30021016001E003F028F8002EB3
:102AE00037D0D9F81C0005EB800000F5987001681C
:102AF00089450AD10760380012D1D9F81C206868CE
:102B0000012191408843686023E02869864205D30B
:102B10003069484514BF7761376101E003F007F879
:102B2000BFB12869874212D3BE61D9F8101029B10C
:102B3000814226BF39618F6102F0F9FFD9F8140094
:102B400038B12969884202D37861876101E002F0D7
:102B5000EEFF48F00100606048F804806869844234
:102B60000BD1C5F80880ACE040084000C9F804006B
:102B700048F00100606048F804804FEAD807202F31
:102B800022D205EBC70000F128094E46B8F1100F1C
:102B900038BF02F0CCFF286820FA07F1C90704D437
:102BA0000121B9400843286007E0D9F808002969E5
:102BB00088422CBF064602F0BAFFC9F80840F4600C
:102BC000A660C4F80C907CE05FEA182008BF0021E2
:102BD00023D0B0F5803F28BF1F211ED2A0F5807101
:102BE000090C01F008018840A0F58052120C02F097
:102BF00004029040A0F580431B0CC1F10E0103F0CC
:102C00000203891AC91A984001EBD030C11D28FA75
:102C100001F202F0010101EB400100226261226138
:102C2000E16105EB81006A6822FA01F3DB0700F538
:102C3000987006D4012303FA01F11143696004601E
:102C40001CE000681F290EBF00214908C1F11901CD
:102C500008FA01F100E010464268D208D20042456D
:102C600010D0CA0F00EB820202F1100349001A686B
:102C7000002AF0D129698B4211D31C60A061E46065
:102C8000A4600EE02A698168904228BF914206D371
:102C9000CC608460E060A1600020A06101E002F0EF
:102CA00046FF286A401E28620BD1D5F8C80100E013
:102CB00080680028FCD14FF0FF30286201E002F06C
:102CC00036FFC046C046BDE8F08700009C270020C4
:102CD000102E00205FF0FF0C1CEAD05114BF61459C
:102CE00006E0C110400721F0E04101F1605170475A
:102CF00079B900F0004100020AD0B0FA80FC00FA75
:102D00000CF001F16051A1EB0C5101EBD021400519
:102D1000704741020CBF40F4E0016FF00001002059
:102D2000704700000CB41CB5044604A801900A4684
:102D3000009401AB694607487844183001F008FE5A
:102D4000009A0021117000285CBF0098001B16BC7F
:102D50005DF80CFB43EAFFFF00F10103810704D09B
:102D600010F8011B89B18107FAD10268B2F1013173
:102D7000914311F0803F04BF50F8042FF6E710F89C
:102D8000011B11B110F8011BFBE7C01A70470000CE
:102D900010B50400002C01D1012033E0A069002807
:102DA000FFD194F83900002805D1002084F83800BC
:102DB000200002F0E9FE242084F839002068C06871
:102DC00030F400502168C860200000F039FA206813
:102DD000006930F49040216808612068406930F053
:102DE0002A00216848612068C06850F400502168BA
:102DF000C8600020E063202084F83900202084F897
:102E00003A00002010BD2DE9F04182B004000D0011
:102E100016001F005FF0000894F8390020285DD1EB
:102E2000002D02D0B6B2002E01D1012057E094F956
:102E30003800012801D1022051E0012084F8380037
:102E40000020E063212084F8390002F0F4FF80467E
:102E5000A684E68403E02878216848606D1CE08C35
:102E6000002828D0E08C401EE084A068B0F5805F88
:102E700016D10097434600228021200000F0FCF884
:102E8000002801D003202AE02888C005C00D216851
:102E900048602069002801D1AD1CE0E76D1CDEE729
:102EA0000097434600228021200000F0E5F800282A
:102EB000D1D0032013E00097434600224021200098
:102EC00000F0DAF8002801D0032008E0202084F880
:102ED0003900002084F83800002000E00220BDE81E
:102EE000F68190F83A30202B28D1002902D092B2F6
:102EF000002A01D1012022E090F93830012B01D1C4
:102F000002201CE0012380F8383081628285C2856E
:102F10000021C163222180F83A10002180F8381086
:102F20000168496951F00101026851610168C9688D
:102F300051F490710068C160002000E002207047E9
:102F400038B50400206800682168C96822685269A1
:102F50000023002310F00F03002B07D1850605D5B1
:102F60008D0603D5200000F01EF982E0002B70D002
:102F7000D30702D411F4907F6BD010F00103DBB2C1
:102F8000002B05D0CB0503D5E36B53F00103E363BE
:102F9000430708D512F00103DBB2002B03D0E36B2B
:102FA00053F00203E363830708D512F00103DBB299
:102FB000002B03D0E36B53F00403E363030708D54E
:102FC00012F00102D2B2002A03D0E26B52F00802E2
:102FD000E263E26B002A3BD0800604D5880602D566
:102FE000200000F0E0F820684069800910F001033B
:102FF000E06B000701D4002B25D0200000F074F80E
:103000002068406940061AD52068406930F04000C9
:1030100021684861606B00280DD00FF2F100616BF0
:103020000865606B02F020FF002811D0606B616BB7
:10303000096D88470CE0200000F01DF808E0200032
:1030400000F019F804E0200000F015F80020E0631B
:103050000FE0020605D50A0603D5200000F060F84F
:1030600007E0400605D5480603D5200000F08DF89E
:10307000FFE731BD704770472DE9F04104000D00B6
:1030800016001F00DDF81880206800682840A8425C
:1030900001D1012000E0002076B2B04221D118F128
:1030A000010FF1D0B8F1000F04D002F0C4FEC01B34
:1030B0008045E9D22068C06830F4D0702168C860CB
:1030C000206840694008400021684861202084F859
:1030D0003900202084F83A00002084F838000320CA
:1030E00000E00020BDE8F0810168C96831F490710A
:1030F0000268D16001684969490849000268516164
:10310000202180F83A1070470000000080B5806BE5
:103110000021C1850021C184FFF7ADFF01BD000082
:1031200090F8391021292ED18168B1F5805F10D136
:10313000016A0988C905C90D026851600169002941
:1031400003D1016A891C016209E0016A491C01621C
:1031500005E0016A4A1C0262097802685160C18C6C
:10316000491EC18489B200290BD10168C96831F0B8
:1031700080010268D1600168C96851F040010068AF
:10318000C160002000E00220704780B50168C96876
:1031900031F040010268D160202180F83910FFF73A
:1031A00069FF002002BD80B590F83A10222945D170
:1031B0008168B1F5805F14D1816A0269002A08D163
:1031C00002685268D205D20D0A80816A891C816228
:1031D00019E002685268D2B20A80816A491C816291
:1031E00011E00169002906D1816A4A1C82620268E5
:1031F00052680A7007E0816A4A1C8262026852685B
:1032000012F07F020A70C18D491EC18589B2002962
:1032100012D10168C96831F490710268D160016807
:1032200049694908490002685161202180F83A1033
:1032300002F082FF002002E0002000E0022002BD38
:103240002DE9F041040000202068006930F440506E
:10325000E1680843216808612068C068BB490840EC
:10326000A1682269114362691143E269114308436D
:103270002168C8602068406930F44070A169084343
:1032800021684861E069B0F5004F40F0B0802068E7
:10329000AF49884203D02068AE49884253D103F039
:1032A000EBFB804603F0E8FB060003F0E5FB0700BC
:1032B00003F0E2FB050003F0DFFB192101FB08F13D
:1032C00062685200B1FBF2F16422B1FBF2F1192203
:1032D00002FB06F263685B00B2FBF3F2192303FB07
:1032E00007F366687600B3FBF6F36426B3FBF6F3E8
:1032F000642606FB1322D20032326423B2FBF3F2BF
:1033000012F0F802520012EB0111192202FB05F231
:1033100063685B00B2FBF3F21923584363685B00F8
:10332000B0FBF3F06423B0FBF3F0642303FB102045
:10333000C00032306422B0FBF2F010F007004018F9
:103340002168886000E103F087FB804603F084FB7E
:10335000060003F081FB070003F07EFB050003F08D
:103360007BFB192101FB08F162685200B1FBF2F10D
:103370006422B1FBF2F1192202FB06F263685B00E2
:10338000B2FBF3F2192303FB07F366687600B3FB85
:10339000F6F36426B3FBF6F3642606FB1322D20091
:1033A00032326423B2FBF3F212F0F802520012EB55
:1033B0000111192202FB05F263685B00B2FBF3F214
:1033C0001923584363685B00B0FBF3F06423B0FB40
:1033D000F3F0642303FB1020C00032306422B0FB02
:1033E000F2F010F00700401821688860ACE0206817
:1033F0005749884203D020685649884252D103F089
:103400003BFB804603F038FB060003F035FB07006A
:1034100003F032FB050003F02FFB192101FB08F13B
:1034200062689200B1FBF2F16422B1FBF2F1192261
:1034300002FB06F263689B00B2FBF3F2192303FB65
:1034400007F36668B600B3FBF6F36426B3FBF6F346
:10345000642606FB1322120132326423B2FBF3F21C
:1034600012F0F00212EB0111192202FB05F263685F
:103470009B00B2FBF3F21923584363689B00B0FB37
:10348000F3F06423B0FBF3F0642303FB102000018E
:1034900032306422B0FBF2F010F00F0040182168C7
:1034A000886051E003F0D8FA804603F0D5FA0600B0
:1034B00003F0D2FA070003F0CFFA050003F0CCFACC
:1034C000192101FB08F162689200B1FBF2F164225C
:1034D000B1FBF2F1192202FB06F263689B00B2FB1A
:1034E000F3F2192303FB07F36668B600B3FBF6F3A8
:1034F0006426B3FBF6F3642606FB13221201323274
:103500006423B2FBF3F212F0F00212EB0111192264
:1035100002FB05F263689B00B2FBF3F219235843E8
:1035200063689B00B0FBF3F06423B0FBF3F064230B
:1035300003FB1020000132306422B0FBF2F010F0E7
:103540000F00401821688860BDE8F081F369FFFF33
:1035500000100140001401400A22002103F062BB68
:1035600080B5002203F03AFC41EC100B01BD0000D5
:1035700078B4002400230024002237E00825EDB2AF
:1035800012F00306F6B2B600B5402C43DFF8D8516E
:10359000960845F82640DFF8D44124689C434D68DE
:1035A000ED0300D51C43DFF8C4512C60DFF8C041A7
:1035B00024689C434D68AD0300D51C43DFF8B0512F
:1035C0002C60DFF8B04124689C434D68ED0200D5C3
:1035D0001C43DFF8A0512C60674C24689C434D6865
:1035E000AD0200D51C43644B1C60521C102A80F0B5
:1035F000AA80012313FA02F40B682340A342F4D1FA
:103600004C68022C02D04C68122C15D1D40810EB57
:103610008404246A0F2512F00706F6B2B600B540FE
:10362000AC430D6912F00706F6B2B600B5402C4364
:10363000D50810EB85052C62046803251600F6B248
:103640007600B540AC430D7915F003051600F6B2CF
:103650007600B5402C4304604C68012C08D04C68BF
:10366000022C05D04C68112C02D04C68122C17D1BA
:10367000846803251600F6B27600B540AC43CD68E9
:103680001600F6B27600B5402C43846044680125EC
:103690009540AC434D68C5F3001595402C434460FC
:1036A000C46803251600F6B27600B540AC438D68B9
:1036B0001600F6B27600B5402C43C4604C68E400B6
:1036C00093D5002400942D4C246854F480442B4D51
:1036D0002C602A4C246814F480440094009C224CF2
:1036E000950854F825400F2512F00306F6B2B600EF
:1036F000B540AC43224DA84201D100253FE7214D02
:10370000A84201D101253AE71F4DA84201D1022567
:1037100035E71E4DA84201D1032530E71C4DA842D4
:1037200001D104252BE71B4DA84201D1052526E731
:10373000194DA84201D1062521E7184DA8427FF472
:103740001DAF07251BE771BC704752B2002A02D09B
:1037500089B2816102E089B20904816170474269DE
:1037600089B251404161704708380140003C014036
:10377000043C0140083C01400C3C014044380240FC
:10378000000002400004024000080240000C024019
:10379000001002400014024000180240001C0240C9
:1037A00010B50400002C01D101204FE094F91D0058
:1037B000002804D100202077200003F073FB0220B2
:1037C0006077CA202168486253202168486220003F
:1037D00000F0B6F9002806D0FF20216848620420D6
:1037E0006077012032E020688068DFF81413084019
:1037F0002168886020688068616822691143626975
:103800001143084321688860E068216808612068E6
:103810000069A16850EA0140216808612068C06819
:1038200030F080002168C8602068006C30F480208F
:10383000216808642068006CA16908432168086455
:10384000FF202168486201206077002010BDF8B594
:1038500004000D00002694F91C00012801D102206B
:103860007DE00120207702206077002A1BD12068AC
:103870008068400601D40020E870287800F07CF9C8
:103880000600687800F078F90700A87800F074F96D
:10389000F6B2FFB2390251EA0641C0B20843E978F4
:1038A00050EA014614E020688068400604D5287874
:1038B00000F06DF9060001E00020E87028786978D2
:1038C000090251EA0040A9780843E97850EA014624
:1038D000CA2021684862532021684862200000F015
:1038E0002FF9002808D0FF20216848620420607763
:1038F00000202077012032E0DFF808023040216804
:1039000008602068806830F4802021688860206822
:103910008068E9682A691143084321688860206843
:10392000C06830F080002168C86020688068800628
:103930000DD4200000F0EAF8002808D0FF2021680C
:1039400048620420607700202077012007E0FF20F4
:103950002168486201206077002020770020F2BDB6
:1039600010B50C0000210168896A6160016809696D
:103970004904490CA16000680068DFF88811014023
:10398000080C10F03F002070080A10F07F006070F3
:1039900011F07F00A070080C10F04000E070002AC9
:1039A0000BD1207800F0F3F82070607800F0EFF889
:1039B0006070A07800F0EBF8A070002010BDF8B5A2
:1039C00004000D00002694F91C00012801D10220FA
:1039D00070E00120207702206077002A07D1687804
:1039E000C00604D5687810F0EF000A306870002A2D
:1039F00015D1E87800F0C0F80600687800F0BCF84F
:103A00000700A87800F0B8F8F6B2FFB2390251EA20
:103A10000641C0B20843297850EA413611E068787F
:103A200000F0B5F80600A87800F0B1F80600E878D4
:103A30006978090251EA0040A9780843297850EAD8
:103A40004136CA202168486253202168486220001C
:103A500000F076F8002808D0FF2021684862042092
:103A6000607700202077012024E0DFF89C003040C0
:103A7000216848602068C06830F080002168C86014
:103A80002068806880060DD4200000F03FF80028F0
:103A900008D0FF202168486204206077002020774A
:103AA000012007E0FF2021684862012060770020A4
:103AB00020770020F2BD10B50C000021006840689E
:103AC000DFF844100140080CE070080A10F01F00F5
:103AD000607011F03F00A070480B10F007002070DC
:103AE000002A0BD1E07800F052F8E070607800F026
:103AF0004EF86070A07800F04AF8A070002010BD69
:103B0000BFFF8FFF7F7F7F003FFFFF0038B50400BE
:103B100000252068C06830F0A0002168C86002F06D
:103B20008AF905002068C068800607D402F083F98E
:103B3000401BB0F57A7FF5D9032000E0002032BDAC
:103B400038B5040000252068C068400612D45FF034
:103B5000FF302168C86002F06EF905002068C06877
:103B6000400607D402F067F9401BB0F57A7FF5D91B
:103B7000032000E0002032BD002101E0491C0A388A
:103B8000C0B20A28FAD250EA0110C0B27047002130
:103B90000100C9B20909C9B20A225143C0B210F0EA
:103BA0000F004018C0B270474FF4001C1CEB410FCF
:103BB00094BF1CEB430F09E041EA030C50EA4C0CA4
:103BC00052EA0C0C03D2994208BF9042704714BFCE
:103BD0008B42824270470000B0B581EA030C0CF0C2
:103BE000004C40F2FF7515EA11541DBF15EA13573A
:103BF000AC42AF4239E0E41923EA455343F4801361
:103C0000C90241F0004141EA505EC7021100A7FB22
:103C1000020200284FF00000EEFB01204FF00001EF
:103C2000E3FB072118BF42F001024018002149417F
:103C3000E3FB0E01A4F580640F0302D25200404161
:103C4000494154F101046CDD470872F1004250F122
:103C5000000051EB0451A1F580115CBF41EA0C0159
:103C6000B0BD4CEA05510020B0BD05EA1357AC4287
:103C700014BFAF4241E050EA410E1CBF52EA430E6E
:103C800002E061460020B0BD24423C441BD15FEA03
:103C9000070EF6D0090302BF01460020AEF1140E54
:103CA000B1FA81F7AEEB070401FA07FE0C37C7F152
:103CB000200100FA07F7C8404EEA000E23EA4553F8
:103CC00043F48013A2E733F00043B3FA83F704BF51
:103CD000B2FA82FE77440B3FE41BB7F1200E2FBFF0
:103CE00002FA0EF3BB40C7F1200E22FA0EFE38BFD7
:103CF00043EA0E03BA40641C82E750EA410E14BF47
:103D000052EA430E6FF000014FF4001717EB430F18
:103D10008ABF194617EB410FB5E74CEA0551002061
:103D2000B0BDD4F10104B4F120070FDAC4F12007CB
:103D3000520828BF42F0010210FA07F501FA07F70E
:103D4000E1BF2A43E0403843E1400FE0352C98DCE6
:103D5000C7F1200452EA400220FA07F218BF42F0ED
:103D6000010231FA07F0A1400A43002172F100423A
:103D700050F1000051EB0C01B0BD00004FEAF17CA6
:103D8000BCF1E04C2CBFBCF5001F11E05FEA4C0C0D
:103D900034BFBCF17F5F2EE05FEA9C0C4FEA0C1C45
:103DA0004FEA3C0CC10071F100414CEB5070704780
:103DB000C90241EA5051C00218BF41F0010141F06F
:103DC00000414FEA6C50C0F10900212810D240EAAE
:103DD000CC7CCCF1200C11FA0CF070F10040CCF14D
:103DE000200C21FA0CF00CF0004C40EB0C0070475A
:103DF0004FEACC707047490011F5001F04D84FEA14
:103E0000CC10FF30C0057047C817704730B400238E
:103E100000220AE00C78012595402C4204D00124B0
:103E2000D2F10705AC402343521C082AF2DB037091
:103E300030BC704730B4002300220AE00C88012512
:103E400095402C4204D00124D2F10F05AC4023430D
:103E5000521C102AF2DB038030BC704770B582B070
:103E600004000D004FF6FF70ADF8000048F20506A3
:103E700000208DF802002800451E002826D020785A
:103E80008DF80200641C0DF102010DF10200FFF734
:103E9000BDFFBDF800009DF8021090EA0120ADF8CA
:103EA0000000002005E0BDF800104900ADF800104A
:103EB000401C0828DFDABDF800100904F3D5BDF86E
:103EC000001096EA4101ADF80010F1E76946684636
:103ED000FFF7B0FFBDF8000076BD0000820707D0F5
:103EE00010F8012B11F8013BBAB19A42F6D014E058
:103EF00002680B689A42A2F1013301BF934313F0A9
:103F0000803F50F8042F51F8043FF3D010F8012BF4
:103F100011F8013B0AB19A42F8D0D01A704700005C
:103F2000010040F10980F446404200F005F851F0EC
:103F300000416047010000BF09D0B0FA80F188401D
:103F4000C91CC1F58461090501EBD021400570470A
:103F5000F0B44FF0004591EA030C44BF6B4002F00F
:103F6000D5BF00BF841A71EB030603D2001BB14119
:103F7000121973414FF4001C1CEB410F34BF7CEB52
:103F8000430443E00C0DA4EB1356352E50DC45EAF8
:103F9000C323DB0A45EAC121C912B6F120050DDDB4
:103FA00063FA05F6EB4086EA0305124218BF45F0B6
:103FB0000105C01851F100010CD213E062FA06F5B8
:103FC000F2405540F3415A40B340F3405A40801804
:103FD000594107D349085FEA30005FEA350528BF39
:103FE00045F0010501F58011420875F1004250F1DC
:103FF000000041EB0451F0BC4FF4001C1CEB410FDE
:1040000038BF70470020090D090570471CEB410FB0
:1040100010D252EA43060BD0BCEB410F05D80C0D71
:10402000AB43661E342EB5DD02E0AB438018594128
:10403000F0BC7047F0BC7047F446400D40EAC12028
:10404000490006D200F014F8004248BF6FF000406B
:10405000604700F00DF84FF0004188428CBF0846E1
:1040600040426047400D40EAC120490080F00D8089
:1040700040F00040490DA1F58061491C05D4D1F103
:104080001F0154BFC840C01770474FF00000704771
:104090002DE9F8452DED088B0FB486B040F2FF7185
:1040A00007989DED080B8DED040BC0F30A50884274
:1040B00008D107980024000305BF069800280225B0
:1040C000012512E0012807DA06A802F0D5FF012831
:1040D00002DB0024002508E0079A40F2FE3161F37C
:1040E0001E520792441A4FF0FF35002104A802F037
:1040F000E4FF1A9F06460FB10020388036B9DDE98B
:1041000008230020002103F015F812D0002D13D54C
:1041100024B2012C15D1DDE906230020DFF88C1331
:1041200003F008F805D0012E0BD1DF4903F002F8A7
:104130003ED10AB0CD49E8E1022D04D1DDE9060106
:10414000E2E1012E6FDB022E08BFDDE9080100F07D
:10415000DB81012D2AD107980028099806D4002870
:1041600054BF9FEDD50B9FEDD60BCBE100280ED4AD
:1041700056B94FF0FF3104A802F09FFF002848BF56
:104180009FEDD10B00F1BE819FEDCB0BBAE156B98B
:104190004FF0FF3104A802F090FF002848BF9FEDC8
:1041A000B40B00F1AF819FEDC60BABE1012E11D135
:1041B0000998002824B206D4012CACBF9FEDBE0B99
:1041C0009FEDBF0B9EE1012CACBF9FEDBD0B9FEDA2
:1041D000BA0B97E10998002810D466B94FF0FF3167
:1041E00004A802F06AFF002842BF079800289FED4C
:1041F000A00B00F187819FEDB20B83E102F0AAFFD3
:104200002221016066B94FF0FF3104A802F055FF8A
:10421000002842BF079800289FEDAB0B00F1728188
:104220009FEDA50B6EE10798002848BF002E0CD526
:1042300002F090FF212101600AB04FF0FF30BDEC89
:10424000088B6FF00041BDE8F485DDE9060100222E
:10425000002302F085FF38BF002509D381F000411B
:10426000CDE906014FF0FF3104A802F026FF054614
:10427000012C13D1DDE906017F4A804BFFF794FC46
:104280000CD2DDE9062300204FF08041FFF7A4FCAB
:10429000CDE9060100269FED7A8B1CE0DDE90623BF
:1042A00000207949FFF798FC9FED788B53EC182B91
:1042B000FFF74EFEFFF7C0FEA0F120063046FFF7E5
:1042C0002FFE0022734BFFF787FC53EC182BFFF7F0
:1042D0003FFE41EC180B0FF2582000EB461ADDE9C7
:1042E000060153EC182B02F007FEDDE9062341EC32
:1042F000190B51EC180BFFF72BFE02460B4651EC45
:10430000190B02F045FF41EC1A0B53EC1A2BFFF787
:1043100063FC41EC1B0B8DED069B03F065F853EC41
:104320001B2BFFF759FCDDE9062302F0E5FD0646ED
:10433000884600204D4953EC182B02F0DDFD002289
:104340004FF08043FFF748FC32464346FFF700FE3C
:1043500053EC1A2BFFF740FCDDE90623FFF7F8FDCD
:1043600041EC180B4C4A4D4B02F012FFCDE9040111
:104370002046FFF7D5FD41EC190BDAE9000153ECBB
:10438000192BFFF7E5FDDDE90423FFF7E1FDCDE99A
:104390000401DDE90823FFF71FFCCDE9020100223B
:1043A0003F4BFFF701FCC0F0938001223D4B02F030
:1043B000D7FE40F2918000220023FFF7F5FBDDE9F4
:1043C000022339BF0020384900203849FFF7C0FDDB
:1043D000FFF732FE0446DDE9080153EC182BFFF726
:1043E000FBFBCDE90201DAE90223DAE90401FFF778
:1043F000AFFDDDE90823FFF7EFFB9FED2D8B53ECBD
:10440000182BFFF7E9FBDDE90223FFF7A1FDCDE95A
:104410000201DAE9002351EC190BFFF799FDDDE900
:104420000823FFF7D9FB064688462046FFF778FDAC
:1044300002460B463046414602F05EFD53EC182B17
:10444000FFF7CAFBDDE90223FFF782FDCDE9020198
:104450000FB13C80002400940022044B02A803F01A
:104460001BF8A8B3012837D042E000BF0000F03F9E
:104470000000000000000080CD3B7F669EA0E63F6C
:10448000000000000000F03F00005040000000006D
:104490000000E03F0000903FEF39FAFE422EE63F79
:1044A0000000E0C00000E0400000E0BF0000E03F8E
:1044B000EF39FAFE422EE63F000000000000F07FD8
:1044C0000000000000000000000000000000F0FFFD
:1044D0000020CDE9020007E00020014902E000BF12
:1044E0000000F07FCDE9020102F034FE22210160DC
:1044F000002D1DBFDDE9020181F0004141EC100BF0
:104500009DED020B51EC100B0AB0BDEC088BBDE821
:10451000F48580B50020009053EC112B51EC100B6A
:10452000FFF7B6FD41EC100B01BD000000000000DC
:10453000000000000000F0BF00000000000000804C
:1045400000000000000000800000000000000000EB
:10455000000000C05294EEBF00000048204E51BE43
:10456000000000F86467BCBC000000000000000010
:10457000000000208133EDBF00000080B3DB14BEDB
:10458000000000506706A3BC00000000000000000F
:10459000000000D0E9DCEBBF00000008C39259BE68
:1045A00000000080B0D3B8BC000000000000000094
:1045B00000000070F98FEABF000000C0A51028BEFF
:1045C000000000E8BFC0B0BC000000000000000018
:1045D00000000070284CE9BF00000060134B42BE91
:1045E000000000C03D20B8BC00000000000000003A
:1045F00000000050FA10E8BF000000C05FF62BBEBC
:10460000000000905C71A7BC0000000000000000EA
:1046100000000020FCDDE6BF000000C0F8F154BE41
:1046200000000018E9F6B9BC00000000000000001E
:10463000000000D0C3B2E5BF00000070E43254BEF9
:1046400000000050DB06B4BC0000000000000000C9
:1046500000000010EF8EE4BF00000020F36252BEA5
:10466000000000C02A879ABC000000000000000083
:10467000000000B02272E3BF000000F0E8E056BE88
:1046800000000028352DBDBC000000000000000027
:10469000000000000A5CE2BF000000B0FA8E41BEDC
:1046A00000000040AE6FBDBC000000000000000034
:1046B00000000000564CE1BF000000F015CD5FBEC9
:1046C00000000000141C90BC00000000000000006E
:1046D00000000040BD42E0BF00000030F93457BE8A
:1046E000000000E06C1E93BC000000000000000011
:1046F000000000E0F57DDEBF000000B08A535EBE22
:1047000000000080DA77AABC000000000000000072
:10471000000000C09D81DCBF00000000FFA226BE9B
:104720000000006057E2B0BC000000000000000084
:1047300000000060F98FDABF000000580A8151BE06
:10474000000000F05F60B8BC000000000000000046
:104750000000000098A8D8BF000000607A7F45BE26
:10476000000000D05433A3BC000000000000000093
:10477000000000600FCBD6BF000000D091CB40BE40
:10478000000000406D1BA0BC000000000000000005
:10479000000000A0FBF6D4BF00000098C5CE52BEBA
:1047A000000000003A397EBC00000000000000005C
:1047B000000000E0FE2BD3BF0000004073872BBE3B
:1047C00000000000926879BC0000000000000000BA
:1047D00000000040C069D1BF00000058F16353BE23
:1047E00000000080438D7CBC000000000000000041
:1047F00000000080D85FCFBF000000181F8354BEA8
:10480000000000B03F42A2BC000000000000000019
:104810000000008067FCCBBF00000060FAFF53BEC1
:1048200000000050E00DB8BC0000000000000000D7
:104830000000000098A8C8BF000000607A7F35BE65
:10484000000000C0543393BC0000000000000000D2
:1048500000000000DC63C5BF00000058D6FF54BE56
:1048600000000000396490BC00000000000000005F
:10487000000000C0AD2DC2BF00000080A45915BECD
:10488000000000E0484BABBC00000000000000004E
:10489000000000801A0BBEBF00000050BF3C5ABE93
:1048A000000000A0B364B6BC0000000000000000DF
:1048B0000000008004D6B7BF00000040BBCF36BE6A
:1048C0000000008076CEA8BC0000000000000000C0
:1048D0000000008032BBB1BF000000402A0043BE90
:1048E00000000028C60CBDBC000000000000000055
:1048F000000000009473A7BF000000182B3B59BEB6
:10490000000000C0E55DA5BC000000000000000044
:1049100000000000EE4397BF000000A0E6C340BEC9
:1049200000000020958DB5BC0000000000000000D4
:104930000000000000000080000000000000008077
:1049400000000000000000800000000000000000E7
:104950002DE9F04F80460FF23060A5B015461E4697
:10496000D0E90023CDE91223002004910D900DF130
:10497000500A6FF0004900E065190020ADF8020010
:1049800012AB4FF0FF3229460DF1020002F0E7FEB4
:104990000446012C04DA2878441EA441E443E40FC1
:1049A000BDF8020025280CBFA4F1010BA346BBF102
:1049B000010F0EDB2F4617F8011B0498C047002893
:1049C000049000F0F3800D98401CBBF1010B0D909A
:1049D000F1D1BDF80200252807D1002007900890EA
:1049E00009900A900B900C9005E00028C4D10D9816
:1049F000D2E240F0010015F8011F2029F9D0232947
:104A00000DD02B2904D02D2906D030290AD00CE056
:104A100040F0020080B2EEE740F00400FAE740F018
:104A20000800F7E740F01000F4E72A290ED13168BA
:104A3000316051F8042B3160002A0F9204D55142A5
:104A400040F004000F9180B26D1C11E000210F9125
:104A500009E00F99494505D001EB810302EB4301C1
:104A600030390F916D1C2A78A2F130010A29F0D358
:104A700029782E2903D04FF0FF310E911DE015F853
:104A8000011F2A2907D1316831606D1C51F8042BB0
:104A900031600E9211E000210E9109E00E99494516
:104AA00005D001EB810302EB430130390E916D1CFF
:104AB0002A78A2F130010A29F0D3ADF840000FF2B4
:104AC000D040297802F05CFE08B115F8010B8DF892
:104AD00042009DF84200682802BF297868296220B8
:104AE00005D06C2804BF28786C2803D171208DF87C
:104AF00042006D1C14A8069015F8014BB4F1250076
:104B00002AD01C3800F0D480001F022840F2D08048
:104B1000133800F0F580093800F0CA80801E00F0DC
:104B20005C81401E00F03581401E022840F2C080AA
:104B3000001F00F02E81401F00F08B80401E00F00F
:104B4000DF80401E35D0C01E0BD0801E00F0D88004
:104B5000C01E00F0D58063E125208DF850000120B3
:104B600067E19DF842006C283068306014D050F83E
:104B7000047B306005970E9C002C04D53846FEF768
:104B8000EBF8044606E022460021384602F004FE17
:104B900000B1C41B08944DE150F8042B306002A909
:104BA000404600F033FA002840F144814FF0FF30D6
:104BB000F2E1316831603C2451F8040B316000218E
:104BC000CDE9020114A80590DDE90201069F11B9A3
:104BD00008B90E9AB2B10206120FA0EB02123032DF
:104BE000D2B2631E3A2AA8BF27320009DA5540EA3A
:104BF0000170090908BF00281C4603D0059AE31973
:104C00009A42E8D3E0190590C4F13C010E9808914E
:104C1000814209DA401A0A904FF6EF71BDF8400060
:104C20000840ADF8400005E1002840F103819DF8FF
:104C3000400000F01400102840F0FC800F98079A04
:104C4000801A0A9A801A441A012CC0F2F3800A943E
:104C5000F0E09DF8420062281AD0682806D06A2841
:104C60000CD06C281CD0712808D019E03068306056
:104C700050F8041B30600D980880DBE0306830602D
:104C800050F8042B30600D98C117C2E90001D1E043
:104C90003068306050F8041B30600D980870C9E02F
:104CA0003068306050F8041B30600D980860C1E037
:104CB0003068C01D20F007023260D2E900010832DE
:104CC0003260CDE90201002902D507982D210AE0C2
:104CD000BDF84000810702D507982B2103E0C007EB
:104CE00005D50798202100F80A10401C079014A849
:104CF000079908180590214602A800F091FB99E059
:104D00009DF842006C280DD0712818BF6A2809D17F
:104D10003068C01D20F007023260D2E9000108327D
:104D2000326005E03168316051F8040B31600021D8
:104D3000CDE902019DF84200682803D1DDE90201B6
:104D400080B20BE0622803D1DDE90201C0B205E0C8
:104D5000742818BF7A2804D1DDE902010021CDE9C9
:104D600002019DF8400000072ED5DDE9020100296F
:104D700008BF002828D044F02000782824D10798C4
:104D8000302100F80A10401C411C079100F80A402D
:104D90001AE09DF84200314600F001F9CDE9020128
:104DA000002902DA07982D210AE0BDF840008107AA
:104DB00002D507982B2103E0C00705D507982021CD
:104DC00000F80A10401C079014A8079908180590CD
:104DD000214602A800F0A0FA2CE09DF842006C28C1
:104DE00009D0012007903068306050F8041B306013
:104DF0008DF850101EE03068306001AA50F8041B96
:104E00003060ADF804100020ADF8060002A94FF0A4
:104E1000FF300E90404600F0F9F800280AD5C5E6AC
:104E200025208DF85000012007901CB18AF8014020
:104E3000022007900F980799401A0A99401A08997A
:104E4000401A0B99401A0999401A0C99441A9DF876
:104E50004000400710D42020012C8DF800000BDB0F
:104E6000274601236A4602A9404600F000FE0028BA
:104E70007FF49CAE7F1EF4D1DDF81CB0BBF1000FB7
:104E800014AF0DD017F8011B0498C04700280490F8
:104E90003FF48CAE0D98401CBBF1010B0D90F1D18D
:104EA00030208DF800000A9F012F0ADB01236A469B
:104EB00002A9404600F0DBFD00287FF477AE7F1E9C
:104EC000F4D1DDF820B0059FBBF1000F0DD017F82D
:104ED000011B0498C047002804903FF467AE0D986A
:104EE000401CBBF1010B0D90F1D130208DF800007A
:104EF0000B9F012F0ADB01236A4602A9404600F0FE
:104F0000B6FD00287FF452AE7F1EF4D105980899B3
:104F1000DDF824B00F18BBF1000F0DD017F8011BFE
:104F20000498C047002804903FF440AE0D98401C00
:104F3000BBF1010B0D90F1D130208DF800000C9FDA
:104F4000012F0ADB01236A4602A9404600F08FFDCB
:104F500000287FF42BAE7F1EF4D19DF8400040075F
:104F60007FF50BAD2020012C8DF80000FFF605AD7C
:104F700001236A4602A9404600F079FD00287FF42B
:104F800015AE641EF4D1F8E400000000000000003B
:104F9000686A6C747A4C000025B0BDE8F08F622816
:104FA00026D068281DD06A2808D06C2827D0712800
:104FB00004D0742823D07A280CD020E00868C01DC3
:104FC00020F007000860D0E9002308300860194687
:104FD000104670470A680A6052F8040B0A60002104
:104FE00070470A680A6052F8040B0A6000B20BE0CE
:104FF0000A680A6052F8040B0A6040B204E00A68CA
:105000000A6052F8040B0A60C11770472DE9F44F8B
:105010000D4694B0D5F830A0BAF1000F804648BFD5
:105020006FF0004A02F0E4FB696B401801900FF644
:105030006C20D0E90023CDE9022395F83800400721
:1050400002D40198412805D240200DF110090190A9
:10505000002609E0FDF756FA5FEA0009F8D14FF0A3
:10506000FF3056E1AAEB040ABAF1010FC0F2CE807C
:105070001498018802AA0DF1010002F0BEFB00287D
:10508000044600F1DE801498008810B9641E00F117
:10509000D880A245C0F2BA8068690199221891426D
:1050A00080F0A2806E634042296A401AA969401AC2
:1050B000696A401AE969401AA96A461A95F83800DF
:1050C000400710D42020012E8DF800000BDB37465E
:1050D00001236A462946404600F0C9FC002840F0FA
:1050E000B0807F1EF4D1D5F814B0BBF1000F4F464D
:1050F0000DD017F8011BA868C0470028A86000F071
:10510000A080E86A401CBBF1010BE862F1D13020BD
:105110008DF800002F6A012F0ADB01236A46294619
:10512000404600F0A4FC002840F08B807F1EF4D1A4
:10513000D5F818B0EF68BBF1000F0CD017F8011BC1
:10514000A868C0470028A8607BD0E86A401CBBF173
:10515000010BE862F2D130208DF800006F6A012F58
:1051600009DB01236A462946404600F080FC0028FE
:1051700067D17F1EF5D1E868A969D5F81CB00F1872
:10518000BBF1000F0CD017F8011BA868C04700281E
:10519000A86056D0E86A401CBBF1010BE862F2D16E
:1051A00030208DF80000AF6A012F09DB01236A4629
:1051B0002946404600F05BFC002842D17F1EF5D115
:1051C00095F8380040070DD52020012E8DF80000FD
:1051D00008DB01236A462946404600F048FC80BBB4
:1051E000761EF6D100266E61224668690DF1010136
:1051F000484402F00FFB6869201868611498801C0D
:105200001490801E008800287FF42CAF686B6969B9
:10521000401A296A401AA969401A696A401AE9695C
:10522000401AA96AA0EB010A95F83800400710D48B
:10523000BAF1010F0DDB5446A8682021C047A860D1
:1052400010B94FF0FF365DE0E86A401C641EE8626A
:10525000F2D16B694A462946404600F008FC002816
:10526000EFD12C6A012C0ADBA8683021C047002846
:10527000A860E6D0E86A401C641EE862F4D1AB691D
:10528000EA682946404600F0F2FB0028D9D16C6A52
:10529000012C0ADBA8683021C0470028A860D0D0C4
:1052A000E86A401C641EE862F4D1E868A969EB6909
:1052B0000A182946404600F0DAFB0028C1D1AC6A42
:1052C000012C0ADBA8683021C0470028A860B8D0AC
:1052D000E86A401C641EE862F4D195F83800400783
:1052E0000ED5BAF1010F0BDBA8682021C0470028BA
:1052F000A860A6D0E86A401CBAF1010AE862F3D1BE
:105300006E616E6304A881451CBF4846FDF755FADF
:10531000304615B0BDE8F08F2DE9FA4E05460A4635
:105320002F696F2A08BF082405D041F02000782893
:1053300014BF0A2410243C26D5E90001642A18BFB2
:10534000692A81468A4605D1002903DAD9F1000984
:105350006AEB4A0ABAF1000F08BFB9F1000F0CD18D
:10536000286B50B9082C36D195F83800000732D593
:1053700030203B2687F83B002DE0E3174846514696
:10538000224602F083FAA4FB0023A9EB020230328A
:10539000D2B2A6F1010B3A2A5E4603DB9DF800303B
:1053A000513B9A180BF8072081465FEA010A08BFB3
:1053B000B9F1000F03D0E868F1198842DDD3082C59
:1053C00009D195F83800000705D5F05D302802D0E6
:1053D000761E3020F055C6F13C00A861F119E96055
:1053E000296B884208DA081A28624FF6EF71288F75
:1053F00008402887BDE8F38E00290ED595F83810AF
:1054000001F01401102908D1696B6A69891A2A6AA6
:10541000891A0E1A012EA8BF2E62BDE8F38E000075
:105420002DE9F24F04468EB0D4E90001CDE9020126
:1054300004AF9DF8380040F0200BBBF1610F0AD09B
:10544000206B002848BF062004D408BFBBF1670FBB
:1054500001D1012020636168C1F30A5040F2FF725C
:1054600090421CD1080304BF2068002809D1032002
:10547000A0619DF8380061381A2836D30FF23061E8
:1054800008E00320A0619DF8380061381A2829D36C
:105490000FF21461E068032202F0BCF9BEE10128BA
:1054A00016DA204601F0E8FD012811DB0025002076
:1054B000BBF1610F20D1E168302201F8012B4A1CB9
:1054C000E2609DF83820612A0CBF782258220FE054
:1054D000626840F2FE3161F31E52451A62604FF07D
:1054E000FF30E5E70FF2BC51D4E70FF2C051D1E72E
:1054F0000A706169891C616110B90026002584E188
:10550000BBF1610F40F09880206B00284CBF212632
:10551000461CD4E900ABDDE9020100220023FEF7BE
:1055200043FB36B23ABF8BF00040CDE902A0CDE993
:1055300002AB06F101082D1FB8F1010F8DF8102004
:105540000DF1110736DBDDE902010022002301F035
:1055500007FE2FD21C2102A802F010FADDE9020199
:10556000FEF76AFDA8F10708B8F1010F814609DBD3
:10557000FEF7D6FC02460B46DDE9020101F0BCFC59
:10558000CDE90201F81D072105E009F00F0200F83E
:10559000012D4FEA2919B9F1010F01DB491EF4D59C
:1055A000491E5CBF002200F8012DF9D5C71DB8F1D6
:1055B000010FC8DA0DF11100391AB142B8BF0E4619
:1055C00036B230000DF111072FD4884206DA04A953
:1055D000411849780829A8BF0F2100DA002104AA40
:1055E000821800E0761E12F80139401E8B42F9D075
:1055F0000F2904D104A941184A78521C4A70002886
:1056000002D504AF761C2D1D36B2701E0DD4C11903
:105610000A783032D2B23A2A03DB9DF838303A3B6E
:105620009A18401E01F80129F2D5206B002840F19C
:10563000EC80701E2063E8E0DDE902010022002317
:10564000FEF7B2FA3CBF81F00041CDE902012DB274
:1056500047F2975068434B49DFF82C9190FBF1F5E6
:105660002DB2C5F1070ABAF1010F90461CDBDDE946
:1056700002675FEACA7007D542464B463046394654
:10568000FEF7AAFA06460F464046494642464B46B2
:105690004FEA6A0AFEF7A0FABAF1000F804689467F
:1056A000E7D1CDE9026724E0CAF1000A0026374FAE
:1056B00014E05FEACA7007D542464B463046394689
:1056C000FEF78AFA06460F464046494642464B4692
:1056D000FEF782FA4FEA6A0A80468946BAF1000F5D
:1056E000E7D1DDE9020132463B4601F051FDCDE94B
:1056F0000201BBF1660F0CBF05F10A000620216B09
:10570000DFF88C904618142EA8BF132630208DF891
:1057100010000DF11107012E3CDBDDE90201FEF75F
:10572000A1FC07F1080104220A23B0FBF3F303EB09
:105730008307A0EB4700303001F8010C0A20B3FBCF
:10574000F0F000EB8007A3EB47033033521E01F863
:10575000023DE9D1083E012E01F10807DBDBDDE95E
:105760000201FEF77FFCFEF7E5FB02460B46DDE992
:10577000020101F0C1FB00224B46FEF72DFACDE9F4
:105780000201CAE7A0860100000024400000F03FAB
:1057900084D797410DF11100381A0DF1110702E07D
:1057A000401E6D1E7F1C39783029F9D0BBF1660F81
:1057B00002D12DB2691C04E0BBF1650F0CBF0121C1
:1057C0000021226B8E1836B2B042B8BF064636B200
:1057D00031001AD4814204DAC85D3528A8BF3920C7
:1057E00000DA3020CA19521E00E0761E12F8013984
:1057F000491E8342F9D0392802D1C85D401CC855E2
:10580000002902D57F1E761C6D1C2DB29DF8381024
:10581000009533B23A46204600F003F80FB0BDE8D9
:10582000F08F2DE9F04786B006468A4690461D4621
:1058300002F04BF9012D406A376B90F8009002DAC4
:1058400001250FF270284AF02000BDF93840662883
:1058500008BF641C12D0672876D114F1040F79DBDD
:10586000BC4277DA96F83800641C000702D4BD42C7
:10587000B8BF2F4624B23F1B48BF002724B2F068B0
:10588000B169012C21DA4A1C30230B54012F03DAB1
:1058900096F83810090702D502F80090521CB26140
:1058A000E742B8BF7C4224B26142E7197162AF425D
:1058B000B8BF3D46B3692DB2F5612A464146181876
:1058C00001F0A8FF781BB062BAE00818A54216DA0A
:1058D0002A46414601F09EFFB1696918601B012FFD
:1058E000B161706203DA96F83800000705D5F068F8
:1058F00001F80090F069401CF061B762A0E0224618
:10590000414601F087FFB06920182D1B012F03DAF3
:1059100096F83810090703D5F16800F80190401C8B
:105920002DB2B061AF42B8BF3D46F068B3692DB249
:105930002A4604EB0801181801F06CFFB06928181A
:10594000B061781B70627BE0BAF1610F14D14FF047
:10595000700A16E0BD4204DA96F83810090758BFFD
:105960002F467F1E48BF0027BAF1670F14BF4FF0C4
:10597000450A4FF0650A04E0BAF1410F08BF4FF045
:10598000500AB169F0684A1CB261012F18F8013B56
:105990000B5403DA96F83810090715D5531CB36178
:1059A00002F80090012F0FDB6D1E2DB2AF42B8BF81
:1059B0003D462DB22A464146181801F02BFFB0692A
:1059C0002818B061781B7062F068B169091820006E
:1059D00081F800A004D42B20487001F1020804E0F3
:1059E0002D224A7001F102086442002502AF08E04E
:1059F0000A22684602F082F8019807F8010B6D1C34
:105A0000009C21B20129F3DA022D06DA4AF02000C7
:105A1000652804BF302008F8010B4DB9302008F884
:105A2000010B07E06D1E02A8285C303008F8010B5E
:105A3000012DF7DAF068B1690818A8EB0000F061F1
:105A400096F8380000F0140010280DD17069B16983
:105A50000818716A0818F1690818B16A0818716B9A
:105A60008842BCBF081A306206B0BDE8F087F8B5BE
:105A700004460D4616461F46002077B116F8011B56
:105A8000A868A047A86030B1E86A401CE86200201E
:105A90007F1EF3D1F2BD4FF0FF30F2BD00000000D9
:105AA000000000006E616E004E414E00696E66009F
:105AB000494E46003000704730B4024604E014F806
:105AC000015BAB4203D1521C13781BB10C46257805
:105AD000002DF4D130BC101A704730B4024600E0FB
