:020000040800F2
:10000000C011002019A00008999A00089B9A0008C6
:100010009D9A00089F9A0008A19A0008000000001D
:10002000000000000000000000000000A39A00088B
:10003000A59A000800000000A79A0008A99A0008E5
:1000400019A100081DA1000821A1000825A1000890
:1000500029A10008B59A00082DA1000831A10008C7
:1000600035A1000839A100083DA1000841A1000800
:1000700045A1000849A100084DA1000851A10008B0
:1000800055A1000859A100085DA1000861A1000860
:1000900065A1000869A100086DA1000871A1000810
:1000A00075A1000879A100087DA1000881A10008C0
:1000B00085A1000889A100088DA1000891A1000870
:1000C00095A1000899A100089DA10008A1A1000820
:1000D000A5A10008B79A0008A9A10008C19A0008C4
:1000E000ADA10008B1A10008B5A10008B9A10008A0
:1000F000BDA10008C1A10008C5A10008C9A1000850
:10010000CDA10008D1A10008D5A10008D9A10008FF
:10011000DDA10008CB9A0008D59A0008E1A10008EB
:10012000E5A10008E9A10008EDA10008F1A100087F
:10013000F5A10008F9A10008FDA1000801A200082E
:1001400005A2000809A200080DA2000811A20008DB
:1001500015A2000819A200081DA2000821A200088B
:1001600025A2000829A200082DA2000831A200083B
:1001700035A2000839A200083DA2000800000000D6
:1001800041A2000845A2000810B5DFF8D40A01F02A
:1001900059FC00240020DFF8CC0A007800280AD09F
:1001A000BAA1DFF8C40A01F05FFC04000020DFF808
:1001B000B41A087005E0B5A1DFF8B00A01F054FCEC
:1001C0000400B2A1002001F04FFC90F9001030298A
:1001D00004D194F9000000F04BFD0CE090F9000010
:1001E000312804D194F9000000F014FC03E0DFF89A
:1001F000CC0C01F027FC10BD70B5ADF5966DDFF8A5
:10020000A40B01F01FFC68464FF4966101F052FC0C
:1002100000200024DFF84C0A0078002809D09CA1B7
:10022000DFF8440A01F020FC0021DFF8382A1170C1
:1002300012E097A1DFF8340A01F016FC0CE001008F
:100240006846E4B2C82202FB040001F03BFC641CD7
:100250008FA1002001F008FC0028F0D1E4B22500B5
:10026000002000F076F8012000F073F8022000F082
:1002700070F8032000F06DF8042000F06AF8052003
:1002800000F067F8002605E049B2DFF8980B01F0AE
:10029000D9FB761CF6B2AE424DDA6846F6B2C821FA
:1002A00001FB060090F9001049B2302909D0EBD3C8
:1002B000322918D00ED3342927D01DD335292DD07B
:1002C000E2E76846F6B2C82101FB0601002000F013
:1002D000F5F9DEE76846F6B2C82101FB0601012008
:1002E00000F0ECF9D5E76846F6B2C82101FB06013B
:1002F000022000F0E3F9CCE76846F6B2C82101FB22
:100300000601032000F0DAF9C3E76846F6B2C82117
:1003100001FB0601042000F0D1F9BAE76846F6B205
:10032000C82101FB0601052000F0C8F90120DFF813
:10033000901B0870ADE7DFF88C0B01F083FBE4B293
:10034000002C03D00120DFF8EC1C08700DF5966D31
:1003500070BD70B50400052C5AD1002051E0002179
:10036000DFF8642B682303FB002211700021DFF803
:10037000582B682303FB002291770021DFF8482BDC
:10038000682303FB002211625FF0FF31DFF8382B96
:10039000682303FB002291620021DFF82C2B6823E5
:1003A00003FB002251620021DFF81C2B682303FBB2
:1003B0000022D1630021DFF8102B682303FB002209
:1003C00011660021DFF8002B682303FB002282F86E
:1003D00054100021DFF8F02A682303FB0022516645
:1003E0000021DFF8E42A682303FB002282F8401092
:1003F0000021DFF8D42A682303FB002282F84A1088
:10040000401C0528ABDBDFF8580B01F01BFB3BE081
:10041000DFF8500B282101FB0400006A05000126CB
:1004200005E0D0F8805002F05AFB2800761CDFF877
:10043000341B282202FB041109688E42F1DBDFF82D
:10044000240B282101FB040000220023C0E906231D
:10045000DFF8100B282101FB040000220023C0E973
:1004600004230020DFF8FC1A282202FB0411086094
:100470000020DFF8F01A282202FB04110862210094
:10048000DFF8200D01F0DEFA70BD00002C00000046
:100490003B000000F8B52DED028BA0B0DFF8980B03
:1004A00001F0D0FA002700243DE097ED148A3900CE
:1004B00002A801F007FB0190009518EE100A02F067
:1004C0009BFD02000B00DFF8741B07A802F0BCFDC7
:1004D00002A80190009518EE100A02F08DFD0200AE
:1004E0000B00DFF85C0B01F0ADFA07A802F0C6FDC7
:1004F0004FF47A73020092B207A9DFF8480B02F0BA
:1005000014FE002078650020B86500203865D7F813
:100510008070761CDFF84C0A282101FB040000687B
:100520008642C2DB641C052C3FDADFF8380A28213A
:1005300001FB040000680128F4DBDFF8280A282109
:1005400001FB0400076ADFF8B00B282101FB04005F
:100550000568DFF8A40B282101FB040090ED098A4F
:10056000009518EE100A02F047FD02000B00DFF8BC
:100570008C1B07A802F068FD009518EE100A02F027
:100580003BFD02000B00DFF8780B01F05BFA07A8D7
:1005900002F074FD02004FF47A7392B207A9DFF8FB
:1005A000A40A02F0C2FD0026B4E74FF47A730122D8
:1005B00040A1DFF8900A02F0B8FDDFF8EC0B01F083
:1005C00041FA20B0BDEC028BF1BD0000F8B52DED75
:1005D000028BDFF8B00B01F035FA002000249FED0C
:1005E000368A00250026002719E0DFF8780928213F
:1005F00001FB070090ED000AB8EEC00A88EE008A01
:10060000DFF86009282101FB070080ED028ADFF88E
:10061000E80A282101FB070080ED098A7F1C052FCD
:1006200044DADFF84009282101FB0700006A0028AE
:1006300017D1F3E790ED160AB8EEC00AD0ED140A10
:1006400080EE800A80ED140A90ED140A38EE008ADC
:10065000416D8D4201DA456D0400416D8E19D0F86F
:100660008000002808D0816D002902D0416D1F292B
:10067000E0DB00210165E7E7DFF87C0A282101FBC8
:10068000070007601F2EB0DBDFF86C0A282101FB92
:100690000700DFF81C1B41622100DFF85C0A2822FA
:1006A00002FB0700001D01F00DFAB7E7BDEC028B5D
:1006B000F1BD0000230000000000000070B52DED2A
:1006C000028BADF57A7D0500080000240026002687
:1006D000CFA101F0C9F904000CE0CDA1002001F088
:1006E000C3F9040021006846322202FB060001F033
:1006F000E9F9761C002CF0D10A2E07DA052D05D079
:100700002900DFF8B00A01F09DF97CE1052D40F0E9
:10071000BC80684603F0B2F8050000241AE0DFF858
:10072000A827682303FB012212EB81026B46C8262F
:1007300006FB0433CB1893F9C830303B9362491C55
:100740008142ECDB0020DFF88017682202FB0411F5
:100750000862641CAC4280F297806846A100322295
:1007600002FB010010F13201DFF85C07682202FB96
:10077000040001F0A7F96846A100322202FB010043
:1007800090F86400DFF84017682202FB04118877B4
:100790006846A100322202FB0100963003F06EF899
:1007A000DFF82417682202FB0411C863DFF818077A
:1007B000682101FB0400C06B042826D10020694693
:1007C000A200322303FB021181F8CD006846A1008C
:1007D000322202FB010010F1C801DFF8EC066822AA
:1007E00002FB0400403001F06DF96846A10032229E
:1007F00002FB010010F1CE01DFF8CC06682202FBFB
:1008000004004A3001F05EF99CE7DFF8BC0668217D
:1008100001FB0400C06B032826D100206946A2001A
:10082000322303FB021181F8CD006846A100322279
:1008300002FB010010F1C801DFF88C06682202FB00
:100840000400543001F03EF96846A100322202FB58
:10085000010010F1CE01DFF87006682202FB0400EF
:100860004A3001F02FF96DE76846A100322202FB01
:100870000100C83002F002FCDFF84C16682202FBCF
:100880000411486200215BE7BDE0DFF8D8062821AB
:1008900001FB05004560684602F0F0FFDFF8C41672
:1008A000282202FB0511086000210DF1320002F040
:1008B000E9FFB0EE408AF0EE608A002119A802F04C
:1008C000E1FFDFF8A006282101FB050080ED048B85
:1008D000DFF89006282101FB050080ED060B0020C3
:1008E000DFF88016282202FB0511086200240EE0C2
:1008F000DFF87006282101FB0500006AC6F88000B9
:10090000DFF86006282101FB05000662641CDFF8A1
:100910005406282101FB05000068844273DA842014
:1009200001F082FF06006846072101FB04F1322234
:1009300002FB010010F19601300001F0C3F8684697
:10094000072101FB04F1322202FB010010F1C80172
:1009500016F11E0001F0B6F86846072101FB04F10C
:10096000322202FB010010F1FA0116F15C0001F0E5
:10097000A9F86846072101FB04F1322202FB0100BD
:1009800010F5967002F07AFFB0666846072101FB09
:1009900004F1322202FB010010F5AF7002F06EFF8D
:1009A000F0666846072101FB04F1322202FB0100D8
:1009B00010F5C87002F062FF30676846072101FB3E
:1009C00004F1322202FB010010F5E17116F174000E
:1009D00001F078F800207065002030650020B065D7
:1009E0000020C6F88000DFF87C05282101FB050007
:1009F000006A00287FF47CAFDFF86805282101FB3E
:100A00000500066282E70DF57A7DBDEC028B70BDB4
:100A10002C00000010B58EB0040064B22100DFF895
:100A2000140901F00FF800F0BFF964B2312C07D0BF
:100A3000C0F09480332C49D024D3342C6AD08DE07C
:100A400001224FF48051DFF8F00803F010F8012084
:100A5000DFF874140862DFF87004036ADFF86824B2
:100A6000DFF8D818684602F0EFFA684602F006FB95
:100A70004FF47A73020092B26946DFF8C80502F0BB
:100A800054FB6BE001224FF48051DFF8AC0802F018
:100A9000EEFF0120DFF83014C1F88800DFF82804E9
:100AA000D0F88830DFF89828DFF89818684602F008
:100AB000CBFA684602F0E2FA4FF47A73020092B27F
:100AC0006946DFF8800502F030FB47E001224FF471
:100AD0008051DFF8640802F0CAFF0120DFF8E81354
:100AE000C1F8F000DFF8E003D0F8F030DFF8982B21
:100AF000DFF8981B684602F0A7FA684602F0BEFAD3
:100B00004FF47A73020092B26946DFF8380502F0BA
:100B10000CFB23E001224FF48051DFF81C0802F0A7
:100B2000A6FF0120DFF8A013C1F85801DFF89803F1
:100B3000D0F85831DFF8582BDFF8581B684602F020
:100B400083FA684602F09AFA4FF47A73020092B27E
:100B50006946DFF8F00402F0E8FAFFE70EB010BDD6
:100B6000F0B59FB0040000200026002205A9DFF8A0
:100B7000280B03F087F89DF815309DF81420DFF856
:100B80001C1B684602F060FA6946CF48682202FBE7
:100B90000400403000F096FFCB48682101FB0400C0
:100BA00010F15401684600F08DFF9DA100F05CFF3C
:100BB0000BE001000AA8142202FB060000F082FFED
:100BC00097A1002000F050FF761C0028F1D10026EC
:100BD000BD48682101FB040010F14001684600F0A7
:100BE00071FF8FA100F040FF0BE0010014A8142258
:100BF00002FB060000F066FF89A1002000F034FF30
:100C0000761C0028F1D119A802F038FE06000FA8C2
:100C100002F034FE86193C2E07DB3C2096FBF0F5F3
:100C20003C2096FBF0F100FB116614A802F026FEB2
:100C300007000AA802F022FEC0194519182095FBEA
:100C4000F0F100FB115533002A00DFF8501A9E48DE
:100C5000682505FB0400403002F0F6F91FB0F0BD36
:100C6000109D00089D3000209C270020C0210020FE
:100C700010B58EB0040064B22100DFF8240A00F041
:100C8000E1FE00F091F864B2312C07D0C0F087800B
:100C9000332C42D020D3342C60D080E000224FF49B
:100CA0008051DFF8940602F0E2FE002086490862D7
:100CB0008548036A844ADFF88416684602F0C4F95E
:100CC000684602F0DBF94FF47A73020092B269468B
:100CD000DC4802F02AFA62E000224FF48051DFF88B
:100CE000580602F0C4FE00207749C1F88800764813
:100CF000D0F88830DFF84826DFF84816684602F05A
:100D0000A3F9684602F0BAF94FF47A73020092B27E
:100D10006946CC4802F009FA41E000224FF48051C4
:100D2000DFF8140602F0A3FE00206749C1F8F000C6
:100D30006548D0F8F030DFF85029DFF850196846E0
:100D400002F082F9684602F099F94FF47A730200D2
:100D500092B26946BB4802F0E8F920E000224FF465
:100D60008051DFF8D40502F082FE00205649C1F818
:100D700058015548D0F85831DFF81429DFF8141914
:100D8000684602F061F9684602F078F94FF47A7328
:100D9000020092B26946AB4802F0C7F9FFE70EB015
:100DA00010BD0000709C000800B589B0002203A9A6
:100DB000DFF8E40802F066FF002202A9DFF8D80895
:100DC00003F00BF89DF80B0000F2CD700C21DFF85A
:100DD000842B9DF8083052F8232001929DF80A20B8
:100DE00000929DF8093090FBF1F201FB1200DFF850
:100DF0006C1B51F820209DF80B0010F5FA61DFF80C
:100E0000600B00F01FFE9DF80E309DF80D209DF840
:100E10000C10DFF8080C00F015FE09B000BD000052
:100E20003A000000909C0008F8B50400DFF8340B8D
:100E3000682101FB0400456A00263CE0DFF8240B32
:100E4000682101FB040010EB8600876A45482821D1
:100E500001FB0700806802F0CFF8424A282303FB19
:100E600007225369126903F031F808D2DFF8F40A57
:100E7000682101FB040090F91E00FFF7CBFD394803
:100E8000282101FB0700806802F0B6F802000B0081
:100E90003448282101FB0700C169806903F016F876
:100EA00008D2DFF8C00A682101FB040090F91E0097
:100EB000FFF7DEFE761CAE42C0DBF1BD2C9D0008C4
:100EC00099300020489D0008682B0020F8B50400E8
:100ED000DFF8900A682101FB0400456A00263CE027
:100EE000DFF8800A682101FB040010EB8600876AA6
:100EF0001C48282101FB0700806802F07DF8194A90
:100F0000282303FB07225369126902F0DFFF08D28E
:100F1000DFF8500A682101FB040090F91E00FFF77A
:100F2000A7FE1048282101FB0700806802F064F842
:100F300002000B000B48282101FB0700C1698069F2
:100F400002F0C4FF08D2DFF81C0A682101FB04008C
:100F500090F91E00FFF75EFD761CAE42C0DBF1BDCE
:100F6000149F0008D02D002070B5ACB004000025FF
:100F7000002000226946DFF8200702F083FE9DF87A
:100F800001309DF80020DFF814171FA802F05CF86C
:100F90001FA9DFF8D009682202FB0400403000F0EE
:100FA00091FDDFF8C009682101FB040010F14A013E
:100FB00012A800F087FD7DA100F056FD0BE00100B6
:100FC00005A80A2202FB050000F07CFD77A10020A5
:100FD00000F04AFD6D1C0028F1D1002D04D1DFF88E
:100FE000880900F02FFD23E005A802F047FC05006A
:100FF0003C260DF11E0002F041FC06FB05004EF6FA
:1010000060214843DFF85C19682202FB041108667E
:10101000DFF85009682101FB0400006EDFF8441975
:10102000682202FB041148660120DFF8F4190870F9
:101030002CB070BD98300020509E000840A00008E1
:10104000B09C0008402F002070B5A8B00400002517
:101050000020DFF81009682101FB040010F14001B5
:101060001AA800F02FFDDFF8FC08682101FB04003E
:1010700010F14A010DA800F025FD4CA100F0F4FC90
:101080000BE0010068460A2202FB050000F01AFD91
:1010900046A1002000F0E8FC6D1C0028F1D1002DD5
:1010A00004D1DFF8C80800F0CDFC23E0684602F068
:1010B000E5FB05003C260DF10A0002F0DFFB06FB14
:1010C00005004EF660214843DFF89818682202FBBD
:1010D00004110866DFF88C08682101FB0400006E2B
:1010E000DFF88018682202FB041148660120DFF84F
:1010F0003419087028B070BD082D002034A00008F5
:10110000649D000810B5002400E0641C052C37DA4B
:10111000DFF85008682101FB040090F90000302836
:10112000F3D0DFF84008682101FB0400C06B012800
:1011300006D0EAD303280BD006D3042814D0E4E762
:101140002000FFF771FEE0E72000FFF7BFFEDCE7BD
:10115000DFF81008682101FB0400006E002802D1AE
:101160002000FFF701FFD0E7DFF8F807682101FB57
:101170000400006E002802D12000FFF765FFC4E7DD
:1011800010BD0000D09C0008002004E00021DFF822
:10119000E0278154401CDFF8281809888842F5DBD5
:1011A00070470000389E0008689E00083A00000062
:1011B00000401CC6809D000810B52DED028B00EE8E
:1011C000100A0C00B8EEC08A18EE100A01F014FFE5
:1011D00002000B00DFF8500800F034FC002C0ED0A9
:1011E000022C1CD00CD3042C37D027D3062C52D081
:1011F00042D3082C6DD05DD3092C79D087E08AE0EA
:1012000018EE100A01F0F8FEDFF86827DFF86837FB
:1012100002F074FE02F044FF08EE100A7BE018EEC4
:10122000100A01F0E9FEDFF85427DFF8543702F026
:1012300065FE02F035FF08EE100A6CE018EE100AA9
:1012400001F0DAFEDFF83C27DFF83C3702F056FE0B
:1012500002F026FF08EE100A5DE018EE100A01F019
:10126000CBFEDFF82827DFF8283702F047FE02F030
:1012700017FF08EE100A4EE018EE100A01F0BCFE4F
:10128000DFF81027DFF8103702F038FE02F008FF11
:1012900008EE100A3FE018EE100A01F0ADFEDFF88C
:1012A000FC26DFF8FC3602F029FE02F0F9FE08EE1B
:1012B000100A30E018EE100A01F09EFEDFF8E42676
:1012C000DFF8E43602F01AFE02F0EAFE08EE100A39
:1012D00021E018EE100A01F08FFEDFF8D026DFF8CB
:1012E000D03602F00BFE02F0DBFE08EE100A12E030
:1012F00018EE100A01F080FEDFF8B826DFF8B836E5
:1013000002F0FCFD02F0CCFE08EE100A03E0DFF86C
:10131000AC0600F097FB18EE100A01F06DFE02001B
:101320000B00DFF8040700F08DFBB0EE480ABDECBF
:10133000028B10BDA89F0008001402407CA000088A
:10134000D02B002084A00008F8B52DED028B86B0CC
:1013500006000C0015006846142100F0ABFB9FED61
:10136000C88A9FEDC70A0027DFF854060188DFF816
:10137000000602F005FF00282BD1DFF8480600F038
:1013800061FBDFF8441614F15C0002F039FF00281D
:1013900040F09D80BBA114F1740002F031FF0028E1
:1013A00032D1E06E04281ED1A06E801910F8010C15
:1013B0008DF80200A06E805D8DF80300A06E80198C
:1013C00040788DF80000A06E801980788DF80100BB
:1013D00042E0DFF8F80500F035FB606D401C606509
:1013E000FFF7D2FE48E1A06E805D8DF80200A06E8E
:1013F000801910F8010C8DF8030000208DF8000012
:1014000000208DF8010027E0E06E042814D1A06EC2
:10141000801910F8010C8DF80000A06E805D8DF829
:101420000100A06E801940788DF80200A06E80192E
:1014300080788DF803000FE0A06E801910F8010C81
:101440008DF80200A06E805D8DF8030000208DF8FD
:10145000000000208DF80100684600F031F9D4ED5D
:10146000140A70EE800AC4ED140A10EE100A01F09E
:10147000C3FD02000B00DFF8580500F0E3FA002D71
:1014800009D0022D00F0968074D3042D00F0D28094
:10149000C0F0B080EEE0DFF83C0590ED000AB4EE5D
:1014A000408AF1EE10FA61DBDFF82C0590ED000ABE
:1014B000B4EE480AF1EE10FA58DB94ED140A30EE5F
:1014C000080A84ED140AA06D401CA06551E0DFF805
:1014D0000C1514F15C0002F093FE002841D1E06E7F
:1014E000022810D100208DF8000000208DF80100A6
:1014F000A06E801910F8010C8DF80200A06E805DBE
:101500008DF8030013E0A06E801910F8010C8DF81F
:101510000000A06E805D8DF80100A06E80194078FB
:101520008DF80200A06E801980788DF8030068465F
:1015300000F0B8F80700216F3800FFF73DFEB0EE6D
:10154000408A3900DFF8980400F07CFA18EE100A9F
:1015500001F052FD02000B00DFF8740400F072FA93
:101560008DE7DFF8800400F06DFA85E0606D401CC7
:1015700060657FE0DFF8700490ED000AB4EE408A09
:10158000F1EE10FA12DBDFF8640490ED000AB4EE1D
:10159000480AF1EE10FA09DB94ED140A30EE080A5D
:1015A00084ED140AA06D401CA06502E0606D401C33
:1015B00060655FE0DFF8380490ED000AB4EE408A21
:1015C000F1EE10FA12DBDFF82C0490ED000AB4EE15
:1015D000480AF1EE10FA09DB94ED140A30EE080A1D
:1015E00084ED140AA06D401CA06502E0606D401CF3
:1015F00060653FE0DFF8000490ED000AB4EE408A39
:10160000F1EE10FA12DBDFF8F40390ED000AB4EE0D
:10161000480AF1EE10FA09DB94ED140A30EE080ADC
:1016200084ED140AA06D401CA06502E0606D401CB2
:1016300060651FE0DFF8C80390ED000AB4EE408A51
:10164000F1EE10FA12DBDFF8E40390ED000AB4EEDD
:10165000480AF1EE10FA09DB94ED140A30EE080A9C
:1016600084ED140AA06D401CA06502E0606D401C72
:101670006065FFE7FFF788FD06B0BDEC028BF1BDAA
:101680000000000062696700382C00208CA0000870
:10169000A02C002094A000083C3000204CA00008A2
:1016A000B89F0008017809064278120483781B026B
:1016B0009A18C07810184118080070470000000000
:1016C0002DE9F0412DED048B017890F801808478AC
:1016D000C578B7EE008AC9B2802901D3BFEE008A6F
:1016E000DFED9B8AC9B280290CD3C9B2080002F091
:1016F000B3FD0022C34B02F0BDFD02F0D1FC08EEA9
:10170000900A04E0C9B200EE101AF8EE408A18EE12
:10171000900A01F071FC00225FF0804302F0EEFBC2
:1017200002F0BEFC08EE900A5FFA88F8B8F1800F6C
:101730000BD318EE900A01F05FFC0022B24B02F0CE
:1017400099FD02F0ADFC08EE900A18EE900A01F047
:1017500053FC0022AD4B02F08DFD02F0A1FC08EE1F
:10176000900A9FED7B9A5FFA88F8B8F1800F0BD34F
:101770005FFA88F8404602F06FFD0022A14B02F0AC
:1017800079FD02F0EBFD8046EDB2280002F064FD29
:1017900006000F00E4B2200002F05EFD04000D0020
:1017A0005FFA88F8404602F057FD0022984B02F09D
:1017B000A5FB22002B0002F05DFD0022944B02F0FD
:1017C0009DFB32003B0002F055FD02F069FC09EE82
:1017D000100A9FED610A89EE009A18EE100A01F0D6
:1017E0000BFC04000D0018EE900A01F005FC41EC22
:1017F000110B9FED8F0B03F054F851EC100B2200EE
:101800002B0002F07BFB04000D00B7EE000A39EE5E
:10181000000A10EE100A01F0EFFB22002B0002F08C
:101820006DFB02F03DFC00EE100ABDEC048BBDE840
:10183000F08170B504000D00002604E0315D7548AC
:1018400000F000F9761CAE42F8DB7BA000F0FAF85D
:1018500070BD30B585B00400200001F00FFC05001C
:101860006D1C6946280000F022F82320291901F890
:10187000010C00202855002003F0CFFA684601F043
:10188000FDFB020092B20021684603F01AFB200023
:1018900001F0F4FB020092B20A21200003F011FBD8
:1018A0002A002100654800F0CDF805B030BD3EB4F7
:1018B0000300002B00D5404200220A2490FBF4F5DF
:1018C00004FB150430346D465455521C0A2490FB19
:1018D000F4F00128F1DA002B03D52D206B46D0540B
:1018E000521C00206B46D054100006E06B46C31813
:1018F00013F8013C141A6354401E0028F6D537BC77
:1019000070473EB504000A220021684603F075FBCB
:10191000684601F0B3FF05002800020092B20A21D8
:10192000200003F06AFB281910F9010C23280AD1C2
:101930000020291901F8010C2100374800F082F835
:10194000FEF75AFC02E03E4800F07CF837BD00008C
:1019500000000000000000200000004B1C000020E0
:10196000689B0008682B00209C9D0008F09C0008E4
:10197000A82500209A9999999999B93F7B14AE4767
:10198000E17A843FFCA9F1D24D62503F2D431CEB1C
:10199000E2361A3FF168E388B5F8E43E8DEDB5A074
:1019A000F7C6B03E48AFBC9AF2D77A3E3A8C30E2E6
:1019B0008E79453E95D626E80B2E113E809E000876
:1019C000BC010020C09B00089CA00008E49B00080C
:1019D000289F00086400002068000020A4A00008E0
:1019E000D89F00083C9F0008803000206C00002039
:1019F00070000020740000207C3000206000002077
:101A000078300020000060C00000F03F00C05FC0E0
:101A100000007040ACA00008E89F0008C89F0008C4
:101A20009E3000209F30002058A000085C0000205D
:101A300000000000000000400A000000F4920008CE
:101A4000089C00080EB400B582B003A900910246BC
:101A50006B460121034878440A3003F03FFB06BC83
:101A60005DF810FB6584000070B504460D46104813
:101A700004F0E7FB064644B12946204604F0E2FBA9
:101A80000419207830B9306070BD3468002CF3D16F
:101A9000002070BD2946204604F0E5FB00190178BE
:101AA00011B1002100F8011B3060204670BD00BF5D
:101AB000B8000020002204F0E7BB0268531C03605A
:101AC000117070475FEA000C830706D011F8013BE4
:101AD00000F8013BB3B18307F8D10A68B2F10133D2
:101AE00023EA020313F0803F02BF40F8042B51F8B1
:101AF000042FF3E711F8013B00F8013B13B111F893
:101B0000013BF9E76046704700F5E07002689142DA
:101B100003D343689A18914202D380680028F5D114
:101B20007047DFF85807016891B94FF48031816040
:101B30004FF4805141604FF0FF31C16001610421D9
:101B4000DFF83C274161C2F8BC11DFF838170160AB
:101B50000120704701F1080313F0070305D001F1DC
:101B60000803C3F1080303F007035918D21A81616F
:101B7000C26042F001034B60511828234B60DFF82C
:101B8000FC160969C16170472DE9F84F064601F15D
:101B9000080010F0070008BF884607D001F10800D0
:101BA000C0F1080000F0070000EB010802F1080096
:101BB00010F0070006D002F10800C0F1080000F0A4
:101BC000070082181546A5EB0800A0EB030903EBFC
:101BD000080B43F00300C8F80400AB4528BF04F02D
:101BE0006CFB2879C00758BF04F067FBB9F1100FF0
:101BF00038BF04F062FBB069854209D1F0684844FF
:101C0000F060C6F818B040F00100CBF804006DE1B8
:101C1000706985420BD1B0684844B060C6F814B012
:101C200040F00101CBF8041040F80B005EE1686859
:101C300000F00301012940F0AD80C008C000019010
:101C4000C00820283AD2D5F808A0EF680090BD421D
:101C500008BF04F032FB554508BF04F02EFB68684E
:101C60000099C008C000B0EBC10F18BF04F025FBFD
:101C7000009806EBC00000F128018A4507D03169C1
:101C80008A45C0F08280DAF80C10A9427DD1574510
:101C900006D1009A3068012191408843306076E097
:101CA0002830874205D0306987426ED3B868A84291
:101CB0006BD1CAF80C70C7F808A068E0EF68D5F8D7
:101CC00018A0AF420CD0A8683169884223D3C168FC
:101CD000A94204BFB968A9421DD1C760B8601CE021
:101CE00005F11400076837B905F110000768A7B1BE
:101CF00001E00846076807F114010A68002A02BFDC
:101D000007F110010A68002AF3D13169884202D331
:101D10000021016001E004F0D0FABAF1000F36D0E2
:101D2000E86906EB800000F5987001688D4208D1E3
:101D30000760A7B9EA697068012191408843706023
:101D400025E03069824508D3DAF81000A84214BFB4
:101D5000CAF81470CAF8107001E004F0AEFAB7B116
:101D60003069874211D3C7F818A0296929B1814287
:101D700026BF39618F6104F0A0FA686938B1316912
:101D8000884202D37861876101E004F096FA0198F5
:101D90004519814468684008400068604FEAD905E9
:101DA00049F00100CBF8040049F80B90202D23D214
:101DB00006EBC50000F12807BA46B9F1100F38BF8D
:101DC00004F07BFA306820FA05F1C90704D4012138
:101DD000A9400843306006E0B868316988422CBFEA
:101DE000824604F06AFAC7F808B0CAF80CB0CBF81B
:101DF00008A0CBF80C7079E05FEA192108BF002039
:101E000023D0B1F5803F28BF1F201ED2A1F58070DE
:101E1000000C00F008008140A1F58052120C02F085
:101E200004029140A1F580431B0CC0F10E0003F0A9
:101E30000203801AC01A994000EBD130C11D29FA63
:101E400001F202F0010101EB4000CBF81C0000227E
:101E5000CBF81420CBF8102006EB8001726822FA30
:101E600000F3DB0701F5987107D4012303FA00F0B2
:101E700010437060C1F800B01DE009681F280EBF54
:101E800000204008C0F1190009FA00F000E01146F6
:101E90004A68D208D2004A4514D0C20F01EB820230
:101EA00002F1100340001A68002AF0D13069834221
:101EB0001AD3C3F800B0CBF81810CBF80CB0CBF89D
:101EC00008B013E032698868914228BF90420BD372
:101ED000C0F80CB0C1F808B0CBF80800CBF80C1073
:101EE0000020CBF8180001E004F0E7F908F1080041
:101EF000BDE8E68F2DE9FA4D0546DFF8800384B092
:101F0000006808B9FFF70DFEDFF8700304998068D8
:101F100041182F31401E21EA00000499814280F0CF
:101F2000A88105F5D876B16839B132688018824247
:101F300080F09F818142C0F09C8104F0C1F90028AB
:101F40001EBF0446D0F8008014F1010F00F091810B
:101F50003068716840443060814238BF014671602A
:101F6000A86980BB286908B1844200D22C61002096
:101F7000F0613461C6F8148005F12801BF4800689B
:101F800068624FF0FF302862002001F10802C9604A
:101F90001160801C10312028D2609260F5D3B848BF
:101FA000854203D1A8F12802214629E055F8040C06
:101FB000C00805EBC000A0F1080108EB0400401ABE
:101FC000A0F128021CE005F5E071084600E08068F9
:101FD000D0B1026843689A189442F8D1027B120784
:101FE00012D4AA6903689A420ED347683B449A42C6
:101FF0000AD208EB07014160E868A96908EB000212
:102000002846FFF7A7FD1EE128698442084638BF2D
:102010002C6108EB040100E0806880B102688A420C
:10202000FAD1017B09070AD4046041684144416048
:102030002146049B284606B0BDE8F04DA4E5AF69F3
:1020400039462846FFF760FD016840684018029055
:102050002F3800F1080111F0070105D000F1080147
:10206000C1F1080101F00701081807F110018842C9
:1020700034BF0097009000980830019004F10801E7
:10208000009800F1180A11F007014FF0000BA8F1B9
:10209000280005D004F10801C1F1080101F0070191
:1020A0000A19401AAA61E86040F0010151608018E5
:1020B0002821416071480069E861019810F007002B
:1020C00018BF04F0FAF800991B20486005F5E0718C
:1020D000B1E80C500198A0E80C503461C6F81480A7
:1020E000C6F81CB00198B061029800E08A46072249
:1020F000CAF804200AF104010A1D82420BF1010B07
:10210000F4D3BBF1020FB8BF04F0D7F80098B8427F
:1021100000F09980C01BC119C4084A6852085200D7
:102120004A6040F001017960C051202C20D205EBBB
:10213000C40101F12806B046102838BF04F0BDF8EC
:10214000286820FA04F1C90704D40121A1400843FA
:10215000286006E0B068296988422CBF804604F0F8
:10216000ACF8B760C8F80C70C7F80880FE606AE089
:10217000010A08BF002223D0B1F5803F28BF1F22EB
:102180001ED2A1F58072120C02F008029140A1F556
:1021900080531B0C03F004039940A1F58044240CE8
:1021A000C2F10E0204F00204D21A121BA14002EB8B
:1021B000D131CA1D20FA02F303F0010202EB410201
:1021C000FA6100237B613B6105EB82016B6823FAB6
:1021D00002F4E40701F5987105D4012090401843FA
:1021E00068600F601CE009681F2A0EBF00225208B9
:1021F000C2F1190200FA02F200E019464B68DB084E
:10220000DB00834210D0D30F01EB830303F11004F2
:1022100052002368002BF0D12869844211D3276033
:10222000B961FF60BF600EE02A698868914228BFEB
:10223000904206D3C7608F60B860F9600020B86133
:1022400001E004F03AF8E8680499814211D2401A9A
:10225000E860A969049A5218AA6140F00100506030
:10226000049840F00300486006B001F10800BDE8A2
:10227000F08D002006B0BDE8F08D00005C3000203D
:10228000902900206859883C2DE9F04D044600262D
:1022900088465FEA1820C8F1000B08BF002123D050
:1022A000B0F5803F28BF1F211ED2A0F58071090C18
:1022B00001F008018840A0F58052120C02F00402DF
:1022C0009040A0F580431B0CC1F10E0103F0020306
:1022D000891AC91A984001EBD030C11D28FA01F2C1
:1022E00002F0010101EB400104EB8100D0F8300164
:1022F00018B31F290EBF00224A08C2F1190208FABA
:1023000002F2002300E052004568ED08ED00A5EB65
:1023100008055D4503D25FEA050B06460BD045690B
:10232000D70F00EB8700002D00691CBF85422B46AC
:102330000028E8D11846B8BBC6BB01208840400041
:10234000414208436168084000F06381414208400F
:10235000401E010B01F01001C840420902F00802C2
:10236000D040830803F00403D840450805F0020577
:102370005118E8405918C0F3400729443944F8403F
:10238000401804EB8000D0F830010DE008464168A9
:10239000C908C900A1EB080159453CBF8B46064658
:1023A00001690029F2D140690028F0D1002E00F027
:1023B0003081A068A0EB0800834580F02A81206965
:1023C0008642C0F024817068C008C00008EB0B0191
:1023D00008EB0605884218BF03F06FFFAE4280F09D
:1023E0001681F768D6F818A0B7420CD0B0682169FA
:1023F000884223D3C168B14204BFB968B1421DD13C
:10240000C760B8601CE006F11400076837B906F130
:1024100010000768A7B101E00846076807F114013A
:102420000A68002A02BF07F110010A68002AF3D1E6
:102430002169884202D30021016001E003F03DFFE1
:10244000BAF1000F38D0F06904EB800000F5987005
:1024500001688E4209D10760380014D1F2696068C2
:10246000012191408843606026E02069824508D3BD
:10247000DAF81000B04214BFCAF81470CAF810702D
:1024800001E003F01AFFBFB12069874212D3C7F8F9
:1024900018A0306930B12169884226BF3861876150
:1024A00003F00BFF706938B12169884202D378616B
:1024B000876101E003F001FFBBF1100F0CD208EBC4
:1024C0000B0040F00300706008EB0B0080194168BE
:1024D00041F00101416096E048F0030070604BF06C
:1024E000010068604FEADB004BF805B020281DD2E0
:1024F00004EBC00101F12807216821FA00F2D2079C
:10250000BB4605D4012202FA00F00843206006E031
:10251000B868216988422CBF834603F0CEFEBD60B7
:10252000CBF80C50C5F808B0EF606CE05FEA1B21F7
:1025300008BF002023D0B1F5803F28BF1F201ED246
:10254000A1F58070000C00F008008140A1F58052D8
:10255000120C02F004029140A1F580431B0CC0F163
:102560000E0003F00203801AC01A994000EBD1302C
:10257000C11D2BFA01F202F0010101EB4000E861FC
:1025800000226A612A6104EB8001626822FA00F38A
:10259000DB0701F5987106D4012303FA00F010431C
:1025A00060600D601CE009681F280EBF0020400815
:1025B000C0F119000BFA00F000E011464A68D20899
:1025C000D2005A4510D0C20F01EB820202F1100373
:1025D00040001A68002AF0D12069834211D31D609F
:1025E000A961ED60AD600EE022698868914228BF64
:1025F000904206D3C5608D60A860E9600020A861A4
:1026000001E003F05AFE06F10800BDE8F08D03F08A
:1026100054FE0020BDE8F08D2DE9F84F04468846B1
:10262000606841420840401E010B01F01001C840A3
:10263000420902F00802D040830803F00403D840A6
:10264000450805F002055118E8405918C0F3400646
:1026500029447118F040401804EB8000D0F8300194
:102660004168C908C9000646A1EB080A09E0084606
:102670004168C908C900A1EB080151453CBF8A4621
:10268000064601690029F2D140690028F0D120698D
:102690008642C0F0C4807068C00808EB0A09C00018
:1026A00008EB060B484518BF03F007FE5E4580F0B7
:1026B000B680F768B569B7420CD0B0682169884226
:1026C00023D3C168B14204BFB968B1421DD1C7600C
:1026D000B8601CE006F11400076837B906F1100075
:1026E0000768A7B101E00846076807F114010A6806
:1026F000002A02BF07F110010A68002AF3D12169FC
:10270000884202D30021016001E003F0D6FD002DD4
:1027100034D0F06904EB800000F5987001688E42B7
:1027200009D10760380011D1F26960680121914038
:102730008843606022E02069854205D32869B04261
:1027400014BF6F612F6101E003F0B7FDB7B12069DD
:10275000874211D3BD61306930B12169884226BFFB
:102760003861876103F0A9FD706938B12169884239
:1027700002D37861876101E003F09FFDBAF1100F89
:1027800009D249F00300706009EB0600416841F08E
:10279000010141603FE048F0030070604AF0010031
:1027A000CBF804004AF80BA0D4F808804FEAD8050B
:1027B000202D28BF03F081FDB8F1000F27D0D4F8F9
:1027C0001490009504EBC50000F128052F46B8F1E0
:1027D000100F38BF03F071FD2068009920FA01F254
:1027E000D10705D4009A012191400843206006E0FA
:1027F000A868216988422CBF074603F05EFDC5F832
:102800000890C7F80C90C9F80870C9F80C50C4F8C3
:1028100008A0C4F814B006F10800BDE8F28F03F078
:102820004CFD0020BDE8F28F2DE9F04F83B0054646
:10283000C046C046F52DDFF8B84780F002810B2D69
:1028400031BF102705F10B00C708FF002068FE0804
:10285000F04010F0030F42D0C04300F00100861991
:1028600004EBC60000F12808F700D8F808506868A3
:10287000C008C000B84218BF03F01FFDD5F808908B
:10288000454508BF03F019FD4D4508BF03F015FD90
:102890006868C008C000B84218BF03F00EFDC84504
:1028A00005D120680121B140884320600DE02069F6
:1028B000814508D3D9F80C00A84204D1C8F8089083
:1028C000C9F80C8001E003F0F8FC47F003006860F1
:1028D00078190835416841F001014160F9E0A168CB
:1028E000B94280F0C080002800F0A280012505FADE
:1028F00006F149004A42B0401143084041420840B5
:10290000401E010B01F01001C840420902F008020C
:10291000D040830803F00403D840460806F00206BE
:102920005118F0405918C0F340087118414420FA7A
:1029300008F000EB010804EBC80000F128094FEA99
:10294000C80AD9F808607068C008C000504518BFB0
:1029500003F0B3FCD6F808B04E4508BF03F0ADFC59
:102960005E4508BF03F0A9FC7068C008C000504570
:1029700018BF03F0A2FCD94505D1206805FA08F17B
:10298000884320600DE02069834508D3DBF80C0004
:10299000B04204D1C9F808B0CBF80C9001E003F0C4
:1029A0008CFC47F003007060AAEB0708B81901908F
:1029B00048F0010001994860019848F80080A76834
:1029C0004FEAD70ABAF1200F28BF03F076FC47B3CD
:1029D000CDF800A004EBCA00D4F8149000F1280A46
:1029E000D346102F38BF03F068FC2068009920FA06
:1029F00001F2D10705D4009905FA01F108432060DE
:102A000007E0DAF80800216988422CBF834603F00A
:102A100054FCCAF80890CBF80C90C9F808B0C9F873
:102A20000CA0C4F8088006F108050198606150E028
:102A30006068C0B339462046FFF7EEFD050012D0AE
:102A400047E015F1400F28BF4FF0FF370BD205F1DB
:102A50000B00C7086068FF0028B139462046FFF721
:102A600013FC050035D1A068B8421CD3C11B6269B4
:102A700010290AD3B8186061A16041F001034360D6
:102A8000095047F0030050600AE00021A160616135
:102A900040F0030151608018416841F0010141603C
:102AA00002F1080515E0E06887420DD2C01BA1695C
:102AB000E0607A18A26140F00100506001F1080561
:102AC00047F00300486004E039462046FFF712FA59
:102AD0000546C046C046284603B0BDE8F08F00B9A1
:102AE00070472DE9F047A0F10804C046C046DFF862
:102AF000005528698442C0F07482616801F00302C5
:102B0000012A00F06E82CA084FEAC208CA0708EB21
:102B1000040936D4226811F0030F00F06482A41A6D
:102B200084429044C0F05D8269698C4200F0D88094
:102B3000D608202E70D2D4F80CA0A768544508BF40
:102B400003F0BBFBBC4208BF03F0B7FB6068C008E2
:102B5000C000B0EBC60F18BF03F0AFFB05EBC6001B
:102B600000F128018F4205D029698F4251D3F968BD
:102B7000A1424ED1BA453DD128680121B1408843D8
:102B800028604C4580F02D82D9F80400C10740F13F
:102B90002882810700F17A81A969894540F0B580D2
:102BA000E868AC614044E86040F001016160696937
:102BB0008C4202D100216961A960E969814280F0FB
:102BC0001282DFF83004006808B9FEF7AAFFA9698D
:102BD000002900F00882E868292824BF2846FEF76B
:102BE00093FFE869E968884280F0FD814FF0FF308B
:102BF000E861F8E12830824506D02869824508D38B
:102C0000DAF80800A04204D1C7F80CA0CAF808708E
:102C1000B7E703F052FBB4E7E768A669A7420BD019
:102C2000A168814222D3C868A04204BFB868A0420C
:102C30001CD1CF60B9601BE004F114010F6837B9F3
:102C400004F110010F689FB101E011460F6807F110
:102C500014021368002B02BF07F110021368002B47
:102C6000F3D1814202D30020086001E003F025FB8C
:102C7000002E86D0E06905EB800000F598700168B1
:102C80008C4209D10760380011D1E26968680121DE
:102C900091408843686074E72869864205D33069AB
:102CA000A04214BF7761376101E003F006FB002FFB
:102CB0003FF467AF28698742ABD3BE61216929B170
:102CC000814226BF39618F6103F0F7FA60690028FD
:102CD0003FF457AF296988429BD37861876150E7F9
:102CE00099F8040000F0030003287FF44AAFC5F808
:102CF0000880D9F8040040084000C9F8040048F0F2
:102D00000100606048F804806DE16969894508D177
:102D1000A8686C614044A86040F001016160005106
:102D200061E1C008C0004FEAD00ABAF1200F804428
:102D300036D2D9F80C70D9F80860B94508BF03F04D
:102D4000BCFAB14508BF03F0B8FAD9F80400C008CE
:102D5000C000B0EBCA0F18BF03F0AFFA05EBCA0012
:102D600000F128018E4206D029698E42C0F0818090
:102D7000F16849457DD1B74206D12868012101FAA1
:102D80000AF18843286076E02830874205D0286918
:102D900087426ED3B86848456BD1F760BE606AE081
:102DA000D9F80C70D9F818604F450DD0D9F8080043
:102DB0002969884223D3C168494504BFB968494598
:102DC0001DD1C760B8601CE009F11400076837B96D
:102DD00009F110000768A7B101E00846076807F18C
:102DE00014010A68002A02BF07F110010A68002ACC
:102DF000F3D12969884202D30021016001E003F088
:102E00005CFA002E37D0D9F81C0005EB800000F5E5
:102E10009870016889450AD10760380012D1D9F845
:102E20001C206868012191408843686023E028697C
:102E3000864205D33069484514BF7761376101E0A8
:102E400003F03BFABFB12869874212D3BE61D9F8BB
:102E5000101029B1814226BF39618F6103F02DFA2C
:102E6000D9F8140038B12969884202D378618761A2
:102E700001E003F022FA48F00100606048F80480A5
:102E8000686984420BD1C5F80880ACE04008400076
:102E9000C9F8040048F00100606048F804804FEA77
:102EA000D807202F22D205EBC70000F128094E4693
:102EB000B8F1100F38BF03F000FA286820FA07F1C4
:102EC000C90704D40121B9400843286007E0D9F8B4
:102ED0000800296988422CBF064603F0EEF9C9F8BC
:102EE0000840F460A660C4F80C907CE05FEA18200B
:102EF00008BF002123D0B0F5803F28BF1F211ED27C
:102F0000A0F58071090C01F008018840A0F58052FD
:102F1000120C02F004029040A0F580431B0CC1F19A
:102F20000E0103F00203891AC91A984001EBD03050
:102F3000C11D28FA01F202F0010101EB400100225B
:102F400062612261E16105EB81006A6822FA01F3A6
:102F5000DB0700F5987006D4012303FA01F1114351
:102F6000696004601CE000681F290EBF0021490849
:102F7000C1F1190108FA01F100E010464268D208D7
:102F8000D200424510D0CA0F00EB820202F11003BA
:102F900049001A68002AF0D129698B4211D31C60BC
:102FA000A061E460A4600EE02A698168904228BFB5
:102FB000914206D3CC608460E060A1600020A061F3
:102FC00001E003F07AF9286A401E28620BD1D5F897
:102FD000C80100E080680028FCD14FF0FF30286273
:102FE00001E003F06AF9C046C046BDE8F087000082
:102FF000902900205C3000205FF0FF0C1CEAD051CB
:1030000014BF614506E0C110400721F0E04101F125
:103010006051704779B900F0004100020AD0B0FA5F
:1030200080FC00FA0CF001F16051A1EB0C5101EBB6
:10303000D0214005704741020CBF40F4E0016FF021
:1030400000010020704700000CB41CB5044604A821
:1030500001900A46009401AB69460748784418304D
:1030600002F03CF8009A0021117000285CBF009823
:10307000001B16BC5DF80CFB43EAFFFF00F10103E7
:10308000810704D010F8011B89B18107FAD10268C9
:10309000B2F10131914311F0803F04BF50F8042F89
:1030A000F6E710F8011B11B110F8011BFBE7C01A7D
:1030B0007047000010B50400002C01D1012033E05E
:1030C000A0690028FFD194F83900002805D100201C
:1030D00084F83800200003F01DF9242084F839001A
:1030E0002068C06830F400502168C860200000F0FB
:1030F00039FA2068006930F490402168086120683E
:10310000406930F02A00216848612068C06850F4A6
:1031100000502168C8600020E063202084F8390056
:10312000202084F83A00002010BD2DE9F04182B043
:1031300004000D0016001F005FF0000894F839002D
:1031400020285DD1002D02D0B6B2002E01D1012081
:1031500057E094F93800012801D1022051E0012004
:1031600084F838000020E063212084F8390003F05F
:1031700028FA8046A684E68403E02878216848601F
:103180006D1CE08C002828D0E08C401EE084A068F4
:10319000B0F5805F16D100974346002280212000C1
:1031A00000F0FCF8002801D003202AE02888C005A0
:1031B000C00D216848602069002801D1AD1CE0E7FE
:1031C0006D1CDEE70097434600228021200000F0BE
:1031D000E5F80028D1D0032013E0009743460022F1
:1031E0004021200000F0DAF8002801D0032008E098
:1031F000202084F83900002084F83800002000E006
:103200000220BDE8F68190F83A30202B28D1002921
:1032100002D092B2002A01D1012022E090F9383088
:10322000012B01D102201CE0012380F8383081629B
:103230008285C2850021C163222180F83A100021D5
:1032400080F838100168496951F001010268516144
:103250000168C96851F490710068C160002000E005
:103260000220704738B50400206800682168C968EA
:10327000226852690023002310F00F03002B07D1AE
:10328000850605D58D0603D5200000F01EF982E0E5
:10329000002B70D0D30702D411F4907F6BD010F0C4
:1032A0000103DBB2002B05D0CB0503D5E36B53F054
:1032B0000103E363430708D512F00103DBB2002BDF
:1032C00003D0E36B53F00203E363830708D512F0E6
:1032D0000103DBB2002B03D0E36B53F00403E36381
:1032E000030708D512F00102D2B2002A03D0E26B24
:1032F00052F00802E263E26B002A3BD0800604D55C
:10330000880602D5200000F0E0F8206840698009B6
:1033100010F00103E06B000701D4002B25D0200042
:1033200000F074F82068406940061AD520684069AA
:1033300030F0400021684861606B00280DD00FF22A
:10334000F100616B0865606B03F054F9002811D03F
:10335000606B616B096D88470CE0200000F01DF880
:1033600008E0200000F019F804E0200000F015F853
:103370000020E0630FE0020605D50A0603D5200011
:1033800000F060F807E0400605D5480603D52000A8
:1033900000F08DF8FFE731BD704770472DE9F0412F
:1033A00004000D0016001F00DDF81880206800687A
:1033B0002840A84201D1012000E0002076B2B042AE
:1033C00021D118F1010FF1D0B8F1000F04D003F0B2
:1033D000F8F8C01B8045E9D22068C06830F4D0708E
:1033E0002168C86020684069400840002168486141
:1033F000202084F83900202084F83A00002084F846
:103400003800032000E00020BDE8F0810168C968B1
:1034100031F490710268D160016849694908490036
:1034200002685161202180F83A10704700000000C6
:1034300080B5806B0021C1850021C184FFF7ADFFFD
:1034400001BD000090F8391021292ED18168B1F515
:10345000805F10D1016A0988C905C90D02685160F1
:103460000169002903D1016A891C016209E0016A2E
:10347000491C016205E0016A4A1C0262097802687F
:103480005160C18C491EC18489B200290BD10168E9
:10349000C96831F080010268D1600168C96851F0E3
:1034A00040010068C160002000E00220704780B544
:1034B0000168C96831F040010268D160202180F8BC
:1034C0003910FFF769FF002002BD80B590F83A106F
:1034D000222945D18168B1F5805F14D1816A0269E2
:1034E000002A08D102685268D205D20D0A80816A8A
:1034F000891C816219E002685268D2B20A80816A2E
:10350000491C816211E00169002906D1816A4A1CC7
:103510008262026852680A7007E0816A4A1C82620D
:103520000268526812F07F020A70C18D491EC1857F
:1035300089B2002912D10168C96831F4907102681A
:10354000D160016849694908490002685161202138
:1035500080F83A1003F0CCF9002002E0002000E0EF
:10356000022002BD2DE9F04104000020206800691E
:1035700030F44050E1680843216808612068C06861
:10358000BB490840A1682269114362691143E2699D
:10359000114308432168C8602068406930F44070D6
:1035A000A169084321684861E069B0F5004F40F027
:1035B000B0802068AF49884203D02068AE49884275
:1035C00053D103F03DFE804603F03AFE060003F0BF
:1035D00037FE070003F034FE050003F031FE192129
:1035E00001FB08F162685200B1FBF2F16422B1FB09
:1035F000F2F1192202FB06F263685B00B2FBF3F200
:10360000192303FB07F366687600B3FBF6F3642621
:10361000B3FBF6F3642606FB1322D2003232642396
:10362000B2FBF3F212F0F802520012EB0111192270
:1036300002FB05F263685B00B2FBF3F21923584307
:1036400063685B00B0FBF3F06423B0FBF3F064232A
:1036500003FB1020C00032306422B0FBF2F010F007
:10366000070040182168886000E103F0D9FD80461A
:1036700003F0D6FD060003F0D3FD070003F0D0FDF4
:10368000050003F0CDFD192101FB08F1626852002D
:10369000B1FBF2F16422B1FBF2F1192202FB06F256
:1036A00063685B00B2FBF3F2192303FB07F3666860
:1036B0007600B3FBF6F36426B3FBF6F3642606FB51
:1036C0001322D20032326423B2FBF3F212F0F8027A
:1036D000520012EB0111192202FB05F263685B0034
:1036E000B2FBF3F21923584363685B00B0FBF3F0BD
:1036F0006423B0FBF3F0642303FB1020C0003230DE
:103700006422B0FBF2F010F00700401821688860D6
:10371000ACE020685749884203D020685649884267
:1037200052D103F08DFD804603F08AFD060003F0C0
:1037300087FD070003F084FD050003F081FD1921DA
:1037400001FB08F162689200B1FBF2F16422B1FB67
:10375000F2F1192202FB06F263689B00B2FBF3F25E
:10376000192303FB07F36668B600B3FBF6F3642680
:10377000B3FBF6F3642606FB1322120132326423F4
:10378000B2FBF3F212F0F00212EB0111192202FB6C
:1037900005F263689B00B2FBF3F219235843636898
:1037A0009B00B0FBF3F06423B0FBF3F0642303FB56
:1037B0001020000132306422B0FBF2F010F00F0054
:1037C00040182168886051E003F02AFD804603F02C
:1037D00027FD060003F024FD070003F021FD05008E
:1037E00003F01EFD192101FB08F162689200B1FB94
:1037F000F2F16422B1FBF2F1192202FB06F26368D6
:103800009B00B2FBF3F2192303FB07F36668B600D3
:10381000B3FBF6F36426B3FBF6F3642606FB132230
:10382000120132326423B2FBF3F212F0F00212EB17
:103830000111192202FB05F263689B00B2FBF3F24F
:103840001923584363689B00B0FBF3F06423B0FB7B
:10385000F3F0642303FB1020000132306422B0FB3C
:10386000F2F010F00F00401821688860BDE8F08188
:10387000F369FFFF00100140001401400A220021FB
:1038800003F0B4BD80B5002203F08CFE41EC100BB8
:1038900001BD000078B4002400230024002237E09A
:1038A0000825EDB212F00306F6B2B600B5402C437F
:1038B000DFF8D851960845F82640DFF8D44124684F
:1038C0009C434D68ED0300D51C43DFF8C4512C60C8
:1038D000DFF8C04124689C434D68AD0300D51C430C
:1038E000DFF8B0512C60DFF8B04124689C434D688C
:1038F000ED0200D51C43DFF8A0512C60674C246812
:103900009C434D68AD0200D51C43644B1C60521CA7
:10391000102A80F0AA80012313FA02F40B682340D6
:10392000A342F4D14C68022C02D04C68122C15D161
:10393000D40810EB8404246A0F2512F00706F6B2AF
:10394000B600B540AC430D6912F00706F6B2B600FA
:10395000B5402C43D50810EB85052C62046803257F
:103960001600F6B27600B540AC430D7915F00305AC
:103970001600F6B27600B5402C4304604C68012C6A
:1039800008D04C68022C05D04C68112C02D04C6831
:10399000122C17D1846803251600F6B27600B540C4
:1039A000AC43CD681600F6B27600B5402C43846077
:1039B000446801259540AC434D68C5F3001595401A
:1039C0002C434460C46803251600F6B27600B54067
:1039D000AC438D681600F6B27600B5402C43C46047
:1039E0004C68E40093D5002400942D4C246854F4D2
:1039F00080442B4D2C602A4C246814F4804400949D
:103A0000009C224C950854F825400F2512F003061F
:103A1000F6B2B600B540AC43224DA84201D1002514
:103A20003FE7214DA84201D101253AE71F4DA842A9
:103A300001D1022535E71E4DA84201D1032530E70B
:103A40001C4DA84201D104252BE71B4DA84201D1F2
:103A5000052526E7194DA84201D1062521E7184D75
:103A6000A8427FF41DAF07251BE771BC704752B217
:103A7000002A02D089B2816102E089B20904816121
:103A80007047426989B2514041617047083801402E
:103A9000003C0140043C0140083C01400C3C01401A
:103AA0004438024000000240000402400008024086
:103AB000000C0240001002400014024000180240B6
:103AC000001C024010B50400002C01D101204FE081
:103AD00094F91D00002804D100202077200003F075
:103AE000C5FD02206077CA20216848625320216802
:103AF0004862200000F0B6F9002806D0FF202168B7
:103B0000486204206077012032E020688068DFF896
:103B10001413084021688860206880686168226901
:103B2000114362691143084321688860E068216895
:103B3000086120680069A16850EA014021680861B5
:103B40002068C06830F080002168C8602068006C80
:103B500030F48020216808642068006CA169084363
:103B600021680864FF2021684862012060770020F6
:103B700010BDF8B504000D00002694F91C000128C2
:103B800001D102207DE00120207702206077002A09
:103B90001BD120688068400601D40020E870287896
:103BA00000F07CF90600687800F078F90700A87842
:103BB00000F074F9F6B2FFB2390251EA0641C0B220
:103BC0000843E97850EA014614E02068806840061E
:103BD00004D5287800F06DF9060001E00020E870B7
:103BE00028786978090251EA0040A9780843E97801
:103BF00050EA0146CA202168486253202168486281
:103C0000200000F02FF9002808D0FF20216848622A
:103C10000420607700202077012032E0DFF80802DE
:103C20003040216808602068806830F48020216876
:103C3000886020688068E9682A6911430843216820
:103C400088602068C06830F080002168C860206803
:103C5000806880060DD4200000F0EAF8002808D023
:103C6000FF2021684862042060770020207701202F
:103C700007E0FF202168486201206077002020775C
:103C80000020F2BD10B50C0000210168896A616056
:103C9000016809694904490CA16000680068DFF8FF
:103CA00088110140080C10F03F002070080A10F045
:103CB0007F00607011F07F00A070080C10F04000D1
:103CC000E070002A0BD1207800F0F3F820706078C3
:103CD00000F0EFF86070A07800F0EBF8A070002022
:103CE00010BDF8B504000D00002694F91C00012851
:103CF00001D1022070E00120207702206077002AA5
:103D000007D16878C00604D5687810F0EF000A3053
:103D10006870002A15D1E87800F0C0F806006878CD
:103D200000F0BCF80700A87800F0B8F8F6B2FFB2CF
:103D3000390251EA0641C0B20843297850EA4136B7
:103D400011E0687800F0B5F80600A87800F0B1F846
:103D50000600E8786978090251EA0040A97808432A
:103D6000297850EA4136CA202168486253202168E8
:103D70004862200000F076F8002808D0FF20216873
:103D800048620420607700202077012024E0DFF8DB
:103D90009C003040216848602068C06830F0800096
:103DA0002168C8602068806880060DD4200000F07B
:103DB0003FF8002808D0FF2021684862042060777F
:103DC00000202077012007E0FF20216848620120C1
:103DD0006077002020770020F2BD10B50C00002194
:103DE00000684068DFF844100140080CE070080AE1
:103DF00010F01F00607011F03F00A070480B10F031
:103E000007002070002A0BD1E07800F052F8E07033
:103E1000607800F04EF86070A07800F04AF8A0706A
:103E2000002010BDBFFF8FFF7F7F7F003FFFFF009F
:103E300038B5040000252068C06830F0A000216873
:103E4000C86002F0BEFB05002068C068800607D489
:103E500002F0B7FB401BB0F57A7FF5D9032000E0F4
:103E6000002032BD38B5040000252068C068400637
:103E700012D45FF0FF302168C86002F0A2FB050099
:103E80002068C068400607D402F09BFB401BB0F5D9
:103E90007A7FF5D9032000E0002032BD002101E047
:103EA000491C0A38C0B20A28FAD250EA0110C0B23E
:103EB000704700210100C9B20909C9B20A22514361
:103EC000C0B210F00F004018C0B270474FF4001C91
:103ED0001CEB410F94BF1CEB430F09E041EA030CBC
:103EE00050EA4C0C52EA0C0C03D2994208BF9042A3
:103EF000704714BF8B42824270470000B0B581EA20
:103F0000030C0CF0004C40F2FF7515EA11541DBF74
:103F100015EA1357AC42AF4239E0E41923EA45539E
:103F200043F48013C90241F0004141EA505EC702E8
:103F30001100A7FB020200284FF00000EEFB012059
:103F40004FF00001E3FB072118BF42F001024018C7
:103F500000214941E3FB0E01A4F580640F0302D266
:103F600052004041494154F101046CDD470872F1AF
:103F7000004250F1000051EB0451A1F580115CBFEB
:103F800041EA0C01B0BD4CEA05510020B0BD05EA84
:103F90001357AC4214BFAF4241E050EA410E1CBF80
:103FA00052EA430E02E061460020B0BD24423C4488
:103FB0001BD15FEA070EF6D0090302BF01460020BD
:103FC000AEF1140EB1FA81F7AEEB070401FA07FE69
:103FD0000C37C7F1200100FA07F7C8404EEA000E7F
:103FE00023EA455343F48013A2E733F00043B3FAC6
:103FF00083F704BFB2FA82FE77440B3FE41BB7F1AC
:10400000200E2FBF02FA0EF3BB40C7F1200E22FA9A
:104010000EFE38BF43EA0E03BA40641C82E750EA42
:10402000410E14BF52EA430E6FF000014FF4001727
:1040300017EB430F8ABF194617EB410FB5E74CEA60
:1040400005510020B0BDD4F10104B4F120070FDA0E
:10405000C4F12007520828BF42F0010210FA07F508
:1040600001FA07F7E1BF2A43E0403843E1400FE09F
:10407000352C98DCC7F1200452EA400220FA07F2FE
:1040800018BF42F0010231FA07F0A1400A430021B3
:1040900072F1004250F1000051EB0C01B0BD000084
:1040A0004FEAF17CBCF1E04C2CBFBCF5001F11E0E5
:1040B0005FEA4C0C34BFBCF17F5F2EE05FEA9C0CE2
:1040C0004FEA0C1C4FEA3C0CC10071F100414CEB73
:1040D00050707047C90241EA5051C00218BF41F008
:1040E000010141F000414FEA6C50C0F10900212864
:1040F00010D240EACC7CCCF1200C11FA0CF070F11B
:104100000040CCF1200C21FA0CF00CF0004C40EBFC
:104110000C0070474FEACC707047490011F5001F42
:1041200004D84FEACC10FF30C0057047C81770475D
:1041300030B4002300220AE00C78012595402C427F
:1041400004D00124D2F10705AC402343521C082AB5
:10415000F2DB037030BC704730B4002300220AE069
:104160000C88012595402C4204D00124D2F10F0582
:10417000AC402343521C102AF2DB038030BC704752
:1041800070B582B004000D004FF6FF70ADF800006E
:1041900048F2050600208DF802002800451E002880
:1041A00026D020788DF80200641C0DF102010DF17B
:1041B0000200FFF7BDFFBDF800009DF8021090EA75
:1041C0000120ADF80000002005E0BDF80010490016
:1041D000ADF80010401C0828DFDABDF80010090413
:1041E000F3D5BDF8001096EA4101ADF80010F1E7F3
:1041F00069466846FFF7B0FFBDF8000076BD0000D5
:10420000820707D010F8012B11F8013BBAB19A428E
:10421000F6D014E002680B689A42A2F1013301BFA4
:10422000934313F0803F50F8042F51F8043FF3D02C
:1042300010F8012B11F8013B0AB19A42F8D0D01ABC
:1042400070470000010040F10980F446404200F050
:1042500005F851F000416047010000BF09D0B0FAF5
:1042600080F18840C91CC1F58461090501EBD021AA
:1042700040057047F0B44FF0004591EA030C44BF8D
:104280006B4003F027BA00BF841A71EB030603D218
:10429000001BB141121973414FF4001C1CEB410F7C
:1042A00034BF7CEB430443E00C0DA4EB1356352ED6
:1042B00050DC45EAC323DB0A45EAC121C912B6F145
:1042C00020050DDD63FA05F6EB4086EA0305124290
:1042D00018BF45F00105C01851F100010CD213E0E0
:1042E00062FA06F5F2405540F3415A40B340F340BC
:1042F0005A408018594107D349085FEA30005FEA05
:10430000350528BF45F0010501F58011420875F11A
:10431000004250F1000041EB0451F0BC4FF4001C8E
:104320001CEB410F38BF70470020090D090570478D
:104330001CEB410F10D252EA43060BD0BCEB410FED
:1043400005D80C0DAB43661E342EB5DD02E0AB4341
:1043500080185941F0BC7047F0BC7047F446400DDE
:1043600040EAC120490006D200F014F8004248BFDC
:104370006FF00040604700F00DF84FF000418842B8
:104380008CBF084640426047400D40EAC1204900CA
:1043900080F00D8040F00040490DA1F58061491C7E
:1043A00005D4D1F11F0154BFC840C01770474FF06A
:1043B000000070471248006850F47000104908600F
:1043C0001048006850F001000E49086000200E49B6
:1043D00008600C4800680D4908400A4908600C480C
:1043E0000C4908600748006830F4802005490860DF
:1043F0000020094908605FF00060084908607047C4
:1044000088ED00E00038024008380240FFFFF6FE69
:1044100010300024043802400C38024008ED00E05F
:104420002DE9F8452DED088B0FB486B040F2FF71F1
:1044300007989DED080B8DED040BC0F30A508842E0
:1044400008D107980024000305BF0698002802251C
:10445000012512E0012807DA06A803F0F1F9012886
:1044600002DB0024002508E0079A40F2FE3161F3E8
:104470001E520792441A4FF0FF35002104A803F0A2
:1044800000FA1A9F06460FB10020388036B9DDE9E0
:1044900008230020002103F031FA12D0002D13D59B
:1044A00024B2012C15D1DDE906230020DFF88C139E
:1044B00003F024FA05D0012E0BD1DF4903F01EFAD8
:1044C0003ED10AB0CD49E8E1022D04D1DDE9060173
:1044D000E2E1012E6FDB022E08BFDDE9080100F0EA
:1044E000DB81012D2AD107980028099806D40028DD
:1044F00054BF9FEDD50B9FEDD60BCBE100280ED41A
:1045000056B94FF0FF3104A803F0BBF9002848BFAB
:104510009FEDD10B00F1BE819FEDCB0BBAE156B9F7
:104520004FF0FF3104A803F0ACF9002848BF9FED1D
:10453000B40B00F1AF819FEDC60BABE1012E11D1A1
:104540000998002824B206D4012CACBF9FEDBE0B05
:104550009FEDBF0B9EE1012CACBF9FEDBD0B9FED0E
:10456000BA0B97E10998002810D466B94FF0FF31D3
:1045700004A803F086F9002842BF079800289FEDA1
:10458000A00B00F187819FEDB20B83E103F0C6F928
:104590002221016066B94FF0FF3104A803F071F9E0
:1045A000002842BF079800289FEDAB0B00F17281F5
:1045B0009FEDA50B6EE10798002848BF002E0CD593
:1045C00003F0ACF9212101600AB04FF0FF30BDECDF
:1045D000088B6FF00041BDE8F485DDE9060100229B
:1045E000002303F0A1F938BF002509D381F0004171
:1045F000CDE906014FF0FF3104A803F042F905466A
:10460000012C13D1DDE906017F4A804BFFF75EFCE8
:104610000CD2DDE9062300204FF08041FFF76EFC4D
:10462000CDE9060100269FED7A8B1CE0DDE906232B
:1046300000207949FFF762FC9FED788B53EC182B33
:10464000FFF718FEFFF78AFEA0F120063046FFF7BD
:10465000F9FD0022734BFFF751FC53EC182BFFF7C9
:1046600009FE41EC180B0FF2582000EB461ADDE969
:10467000060153EC182B03F023F8DDE9062341EC87
:10468000190B51EC180BFFF7F5FD02460B4651ECE8
:10469000190B03F061F941EC1A0B53EC1A2BFFF7DD
:1046A0002DFC41EC1B0B8DED069B03F081FA53ECC6
:1046B0001B2BFFF723FCDDE9062303F001F8064678
:1046C000884600204D4953EC182B02F0F9FF0022D8
:1046D0004FF08043FFF712FC32464346FFF7CAFD16
:1046E00053EC1A2BFFF70AFCDDE90623FFF7C2FDA6
:1046F00041EC180B4C4A4D4B03F02EF9CDE9040167
:104700002046FFF79FFD41EC190BDAE9000153EC5D
:10471000192BFFF7AFFDDDE90423FFF7ABFDCDE972
:104720000401DDE90823FFF7E9FBCDE902010022DE
:104730003F4BFFF7CBFBC0F0938001223D4B03F0D2
:10474000F3F840F2918000220023FFF7BFFBDDE980
:10475000022339BF0020384900203849FFF78AFD7D
:10476000FFF7FCFD0446DDE9080153EC182BFFF7C9
:10477000C5FBCDE90201DAE90223DAE90401FFF71A
:1047800079FDDDE90823FFF7B9FB9FED2D8B53EC95
:10479000182BFFF7B3FBDDE90223FFF76BFDCDE933
:1047A0000201DAE9002351EC190BFFF763FDDDE9A3
:1047B0000823FFF7A3FB064688462046FFF742FD85
:1047C00002460B463046414602F07AFF53EC182B66
:1047D000FFF794FBDDE90223FFF74CFDCDE9020171
:1047E0000FB13C80002400940022044B02A803F087
:1047F00037FAA8B3012837D042E000BF0000F03FED
:104800000000000000000080CD3B7F669EA0E63FD8
:10481000000000000000F03F0000504000000000D9
:104820000000E03F0000903FEF39FAFE422EE63FE5
:104830000000E0C00000E0400000E0BF0000E03FFA
:10484000EF39FAFE422EE63F000000000000F07F44
:104850000000000000000000000000000000F0FF69
:104860000020CDE9020007E00020014902E000BF7E
:104870000000F07FCDE9020103F050F82221016031
:10488000002D1DBFDDE9020181F0004141EC100B5C
:104890009DED020B51EC100B0AB0BDEC088BBDE88E
:1048A000F48580B50020009053EC112B51EC100BD7
:1048B000FFF7B6FD41EC100B01BD00000000000049
:1048C000000000000000F0BF0000000000000080B9
:1048D0000000000000000080000000000000000058
:1048E000000000C05294EEBF00000048204E51BEB0
:1048F000000000F86467BCBC00000000000000007D
:10490000000000208133EDBF00000080B3DB14BE47
:10491000000000506706A3BC00000000000000007B
:10492000000000D0E9DCEBBF00000008C39259BED4
:1049300000000080B0D3B8BC000000000000000000
:1049400000000070F98FEABF000000C0A51028BE6B
:10495000000000E8BFC0B0BC000000000000000084
:1049600000000070284CE9BF00000060134B42BEFD
:10497000000000C03D20B8BC0000000000000000A6
:1049800000000050FA10E8BF000000C05FF62BBE28
:10499000000000905C71A7BC000000000000000057
:1049A00000000020FCDDE6BF000000C0F8F154BEAE
:1049B00000000018E9F6B9BC00000000000000008B
:1049C000000000D0C3B2E5BF00000070E43254BE66
:1049D00000000050DB06B4BC000000000000000036
:1049E00000000010EF8EE4BF00000020F36252BE12
:1049F000000000C02A879ABC0000000000000000F0
:104A0000000000B02272E3BF000000F0E8E056BEF4
:104A100000000028352DBDBC000000000000000093
:104A2000000000000A5CE2BF000000B0FA8E41BE48
:104A300000000040AE6FBDBC0000000000000000A0
:104A400000000000564CE1BF000000F015CD5FBE35
:104A500000000000141C90BC0000000000000000DA
:104A600000000040BD42E0BF00000030F93457BEF6
:104A7000000000E06C1E93BC00000000000000007D
:104A8000000000E0F57DDEBF000000B08A535EBE8E
:104A900000000080DA77AABC0000000000000000DF
:104AA000000000C09D81DCBF00000000FFA226BE08
:104AB0000000006057E2B0BC0000000000000000F1
:104AC00000000060F98FDABF000000580A8151BE73
:104AD000000000F05F60B8BC0000000000000000B3
:104AE0000000000098A8D8BF000000607A7F45BE93
:104AF000000000D05433A3BC000000000000000000
:104B0000000000600FCBD6BF000000D091CB40BEAC
:104B1000000000406D1BA0BC000000000000000071
:104B2000000000A0FBF6D4BF00000098C5CE52BE26
:104B3000000000003A397EBC0000000000000000C8
:104B4000000000E0FE2BD3BF0000004073872BBEA7
:104B500000000000926879BC000000000000000026
:104B600000000040C069D1BF00000058F16353BE8F
:104B700000000080438D7CBC0000000000000000AD
:104B800000000080D85FCFBF000000181F8354BE14
:104B9000000000B03F42A2BC000000000000000086
:104BA0000000008067FCCBBF00000060FAFF53BE2E
:104BB00000000050E00DB8BC000000000000000044
:104BC0000000000098A8C8BF000000607A7F35BED2
:104BD000000000C0543393BC00000000000000003F
:104BE00000000000DC63C5BF00000058D6FF54BEC3
:104BF00000000000396490BC0000000000000000CC
:104C0000000000C0AD2DC2BF00000080A45915BE39
:104C1000000000E0484BABBC0000000000000000BA
:104C2000000000801A0BBEBF00000050BF3C5ABEFF
:104C3000000000A0B364B6BC00000000000000004B
:104C40000000008004D6B7BF00000040BBCF36BED6
:104C50000000008076CEA8BC00000000000000002C
:104C60000000008032BBB1BF000000402A0043BEFC
:104C700000000028C60CBDBC0000000000000000C1
:104C8000000000009473A7BF000000182B3B59BE22
:104C9000000000C0E55DA5BC0000000000000000B1
:104CA00000000000EE4397BF000000A0E6C340BE36
:104CB00000000020958DB5BC000000000000000041
:104CC00000000000000000800000000000000080E4
:104CD0000000000000000080000000000000000054
:104CE00080B5DFF8E003DFF8E01308604FF482706E
:104CF000DFF8D41348600020DFF8CC138860002070
:104D0000DFF8C413C8600220DFF8BC13086101207B
:104D1000DFF8B41348614FF40070DFF8AC1388611A
:104D20000820DFF8A413C8610020DFF89C13086294
:104D30000020DFF8941348620020DFF88C138862AB
:104D40000A20DFF88413C862DFF87C0303F0ECF874
:104D500001BD00B587B00068DFF8681388425AD1FA
:104D600000200090DFF86403006850F48040DFF812
:104D70005C130860DFF85403006810F48040009072
:104D8000009800200090DFF84803006850F480701D
:104D9000DFF83C130860DFF83803006810F4807017
:104DA0000090009800200090DFF82403006850F085
:104DB0000400DFF81C130860DFF81403006810F02B
:104DC0000400009000980A20019002200290022026
:104DD00004900520059001A9DFF8F802FEF75AFDBE
:104DE00004200190022002900020039005200590ED
:104DF00001A9B948FEF74EFD01220121B548FEF791
:104E000036FE01200190012002900520059001A9A5
:104E1000B048FEF73FFD07B000BD10B5040000F03C
:104E20002BF900F038F900220121AA48FEF71FFEF5
:104E3000202000F00BF9200CC0B200F007F9200A86
:104E4000C0B200F003F92000C0B200F0FFF8012268
:104E50000121A048FEF70BFE00F01DF910BD70B552
:104E600004000D00160000F007F900220121994806
:104E7000FEF7FDFD022000F0E9F8280CC0B200F0BA
:104E8000E5F8280AC0B200F0E1F82800C0B200F04E
:104E9000DDF8B6B2B6F5807F06DD4FF4807603E02C
:104EA000207800F0D3F8641C3000461E80B2002841
:104EB000F6D1012201218748FEF7D9FD00F0EBF879
:104EC00070BD2DE9F04105000C0000275FF00008DF
:104ED0000020002600274FF48071B4FBF1F000FBA6
:104EE0001140464292B24FF4807192FBF1F792B2B8
:104EF0004FF4807192FBF1F808FB1128C0B2002832
:104F000020D1FFB2002F0FD192B221002800FFF76D
:104F1000A6FF70E04FF4807221002800FFF79FFF8A
:104F200014F5807415F580753800471EC0B200284E
:104F3000F0D15FFA88F8424692B221002800FFF7CC
:104F40008EFF58E0FFB2002F1FD1F6B25FFA88F84B
:104F5000464514D2B8EB0607F6B2320092B22100F1
:104F60002800FFF77CFF54FA86F4F6B27519FFB2F9
:104F70003A0092B221002800FFF771FF3BE092B2A5
:104F800021002800FFF76BFF35E0F6B2921B92B2CA
:104F90004FF4807092FBF0F792B24FF4807092FB66
:104FA000F0F808FB1028F6B2320092B22100280077
:104FB000FFF755FF54FA86F4F6B2751909E04FF47D
:104FC000807221002800FFF74AFF14F5807415F560
:104FD00080753800471EC0B20028F0D15FFA88F80B
:104FE000B8F1000F07D05FFA88F8424692B221006C
:104FF0002800FFF734FFBDE8F08170B504000D0014
:105000001600002201213348FEF731FD032000F095
:105010001DF8280CC0B200F019F8280AC0B200F040
:1050200015F82800C0B200F011F804E0FF2000F0ED
:105030000DF82070641C3000461E80B20028F5D1A7
:10504000012201212348FEF712FD70BD00B583B097
:105050008DF805007FF07F400090012301AA0DF13B
:105060000501194802F0A7FF002802D0FF208DF8A3
:1050700004009DF804000EBD80B5002201211548F2
:10508000FEF7F5FC0620FFF7E1FF012201211148A0
:10509000FEF7EDFC01BD80B50020002201210D4886
:1050A000FEF7E5FC0520FFF7D1FFFF20FFF7CEFF5D
:1050B000C0B2C007F9D4012201210648FEF7D7FC8F
:1050C00001BD000000380040982E0020403802400A
:1050D0003038024000200240000802402DE9F04F25
:1050E00080460FF23060A5B015461E46D0E9002379
:1050F000CDE91223002004910D900DF1500A6FF0BC
:10510000004900E065190020ADF8020012AB4FF035
:10511000FF3229460DF1020003F0BCF80446012CD1
:1051200004DA2878441EA441E443E40FBDF80200E9
:1051300025280CBFA4F1010BA346BBF1010F0EDB28
:105140002F4617F8011B0498C0470028049000F070
:10515000F3800D98401CBBF1010B0D90F1D1BDF80F
:105160000200252807D100200790089009900A9096
:105170000B900C9005E00028C4D10D98D2E240F0CD
:10518000010015F8011F2029F9D023290DD02B2962
:1051900004D02D2906D030290AD00CE040F00200BE
:1051A00080B2EEE740F00400FAE740F00800F7E7CD
:1051B00040F01000F4E72A290ED13168316051F82F
:1051C000042B3160002A0F9204D5514240F00400B4
:1051D0000F9180B26D1C11E000210F9109E00F9931
:1051E000494505D001EB810302EB430130390F91B2
:1051F0006D1C2A78A2F130010A29F0D329782E29D2
:1052000003D04FF0FF310E911DE015F8011F2A2940
:1052100007D1316831606D1C51F8042B31600E925A
:1052200011E000210E9109E00E99494505D001EBEE
:10523000810302EB430130390E916D1C2A78A2F1F3
:1052400030010A29F0D3ADF840000FF2D0402978A0
:1052500003F030F808B115F8010B8DF842009DF805
:105260004200682802BF29786829622005D06C288E
:1052700004BF28786C2803D171208DF842006D1C82
:1052800014A8069015F8014BB4F125002AD01C385B
:1052900000F0D480001F022840F2D080133800F0C4
:1052A000F580093800F0CA80801E00F05C81401E45
:1052B00000F03581401E022840F2C080001F00F03F
:1052C0002E81401F00F08B80401E00F0DF80401ECA
:1052D00035D0C01E0BD0801E00F0D880C01E00F05C
:1052E000D58063E125208DF85000012067E19DF80D
:1052F00042006C283068306014D050F8047B306075
:1053000005970E9C002C04D53846FDF7B7FE0446E1
:1053100006E022460021384602F0D8FF00B1C41B47
:1053200008944DE150F8042B306002A9404600F08B
:1053300033FA002840F144814FF0FF30F2E1316848
:1053400031603C2451F8040B31600021CDE90201A9
:1053500014A80590DDE90201069F11B908B90E9A5B
:10536000B2B10206120FA0EB02123032D2B2631EAB
:105370003A2AA8BF27320009DA5540EA0170090924
:1053800008BF00281C4603D0059AE3199A42E8D3C7
:10539000E0190590C4F13C010E980891814209DAA8
:1053A000401A0A904FF6EF71BDF840000840ADF882
:1053B000400005E1002840F103819DF8400000F025
:1053C0001400102840F0FC800F98079A801A0A9A5F
:1053D000801A441A012CC0F2F3800A94F0E09DF880
:1053E000420062281AD0682806D06A280CD06C289F
:1053F0001CD0712808D019E03068306050F8041BC8
:1054000030600D980880DBE03068306050F8042B85
:1054100030600D98C117C2E90001D1E030683060FA
:1054200050F8041B30600D980870C9E03068306097
:1054300050F8041B30600D980860C1E03068C01D52
:1054400020F007023260D2E9000108323260CDE973
:105450000201002902D507982D210AE0BDF840007D
:10546000810702D507982B2103E0C00705D50798CF
:10547000202100F80A10401C079014A8079908186A
:105480000590214602A800F091FB99E09DF84200AA
:105490006C280DD0712818BF6A2809D13068C01D4A
:1054A00020F007023260D2E900010832326005E0E4
:1054B0003168316051F8040B31600021CDE90201FF
:1054C0009DF84200682803D1DDE9020180B20BE0BB
:1054D000622803D1DDE90201C0B205E0742818BFDB
:1054E0007A2804D1DDE902010021CDE902019DF80D
:1054F000400000072ED5DDE90201002908BF002881
:1055000028D044F02000782824D10798302100F8D2
:105510000A10401C411C079100F80A401AE09DF84F
:105520004200314600F001F9CDE90201002902DA1A
:1055300007982D210AE0BDF84000810702D50798A1
:105540002B2103E0C00705D50798202100F80A1099
:10555000401C079014A8079908180590214602A836
:1055600000F0A0FA2CE09DF842006C2809D0012040
:1055700007903068306050F8041B30608DF8501090
:105580001EE03068306001AA50F8041B3060ADF8AE
:1055900004100020ADF8060002A94FF0FF300E9075
:1055A000404600F0F9F800280AD5C5E625208DF818
:1055B0005000012007901CB18AF80140022007909A
:1055C0000F980799401A0A99401A0899401A0B999E
:1055D000401A0999401A0C99441A9DF84000400756
:1055E00010D42020012C8DF800000BDB274601236E
:1055F0006A4602A9404600F000FE00287FF49CAEF7
:105600007F1EF4D1DDF81CB0BBF1000F14AF0DD03C
:1056100017F8011B0498C047002804903FF48CAE93
:105620000D98401CBBF1010B0D90F1D130208DF88D
:1056300000000A9F012F0ADB01236A4602A94046A7
:1056400000F0DBFD00287FF477AE7F1EF4D1DDF89B
:1056500020B0059FBBF1000F0DD017F8011B049877
:10566000C047002804903FF467AE0D98401CBBF182
:10567000010B0D90F1D130208DF800000B9F012F10
:105680000ADB01236A4602A9404600F0B6FD002865
:105690007FF452AE7F1EF4D105980899DDF824B04E
:1056A0000F18BBF1000F0DD017F8011B0498C0476D
:1056B000002804903FF440AE0D98401CBBF1010B54
:1056C0000D90F1D130208DF800000C9F012F0ADBE6
:1056D00001236A4602A9404600F08FFD00287FF4AE
:1056E0002BAE7F1EF4D19DF8400040077FF50BAD37
:1056F0002020012C8DF80000FFF605AD01236A463D
:1057000002A9404600F079FD00287FF415AE641E22
:10571000F4D1F8E40000000000000000686A6C7436
:105720007A4C000025B0BDE8F08F622826D06828AA
:105730001DD06A2808D06C2827D0712804D074287E
:1057400023D07A280CD020E00868C01D20F0070084
:105750000860D0E9002308300860194610467047F9
:105760000A680A6052F8040B0A60002170470A6850
:105770000A6052F8040B0A6000B20BE00A680A6083
:1057800052F8040B0A6040B204E00A680A6052F85A
:10579000040B0A60C11770472DE9F44F0D4694B011
:1057A000D5F830A0BAF1000F804648BF6FF0004A2C
:1057B00002F0B8FD696B401801900FF66C20D0E93B
:1057C0000023CDE9022395F83800400702D4019860
:1057D000412805D240200DF110090190002609E072
:1057E000FDF722F85FEA0009F8D14FF0FF3056E1EB
:1057F000AAEB040ABAF1010FC0F2CE801498018816
:1058000002AA0DF1010002F092FD0028044600F109
:10581000DE801498008810B9641E00F1D880A2457B
:10582000C0F2BA80686901992218914280F0A28082
:105830006E634042296A401AA969401A696A401A8F
:10584000E969401AA96A461A95F83800400710D449
:105850002020012E8DF800000BDB374601236A461D
:105860002946404600F0C9FC002840F0B0807F1E69
:10587000F4D1D5F814B0BBF1000F4F460DD017F896
:10588000011BA868C0470028A86000F0A080E86A53
:10589000401CBBF1010BE862F1D130208DF8000013
:1058A0002F6A012F0ADB01236A462946404600F091
:1058B000A4FC002840F08B807F1EF4D1D5F818B0EE
:1058C000EF68BBF1000F0CD017F8011BA868C047A8
:1058D0000028A8607BD0E86A401CBBF1010BE8629D
:1058E000F2D130208DF800006F6A012F09DB01230F
:1058F0006A462946404600F080FC002867D17F1E9A
:10590000F5D1E868A969D5F81CB00F18BBF1000FF4
:105910000CD017F8011BA868C0470028A86056D013
:10592000E86A401CBBF1010BE862F2D130208DF82F
:105930000000AF6A012F09DB01236A462946404671
:1059400000F05BFC002842D17F1EF5D195F83800AD
:1059500040070DD52020012E8DF8000008DB012323
:105960006A462946404600F048FC80BB761EF6D1C8
:1059700000266E61224668690DF10101484402F07B
:10598000E3FC6869201868611498801C1490801EDC
:10599000008800287FF42CAF686B6969401A296A77
:1059A000401AA969401A696A401AE969401AA96A45
:1059B000A0EB010A95F83800400710D4BAF1010FA6
:1059C0000DDB5446A8682021C047A86010B94FF0ED
:1059D000FF365DE0E86A401C641EE862F2D16B6944
:1059E0004A462946404600F008FC0028EFD12C6AC0
:1059F000012C0ADBA8683021C0470028A860E6D047
:105A0000E86A401C641EE862F4D1AB69EA68294682
:105A1000404600F0F2FB0028D9D16C6A012C0ADB69
:105A2000A8683021C0470028A860D0D0E86A401C90
:105A3000641EE862F4D1E868A969EB690A1829468E
:105A4000404600F0DAFB0028C1D1AC6A012C0ADB29
:105A5000A8683021C0470028A860B8D0E86A401C78
:105A6000641EE862F4D195F8380040070ED5BAF10B
:105A7000010F0BDBA8682021C0470028A860A6D032
:105A8000E86A401CBAF1010AE862F3D16E616E6304
:105A900004A881451CBF4846FDF721F8304615B0E3
:105AA000BDE8F08F2DE9FA4E05460A462F696F2AA8
:105AB00008BF082405D041F02000782814BF0A242C
:105AC00010243C26D5E90001642A18BF692A8146C2
:105AD0008A4605D1002903DAD9F100096AEB4A0A9E
