:020000040800F2
:10000000F0110020BDD30008D5BF0008D7BF0008FD
:10001000E5BF0008F3BF000801C0000800000000B1
:100020000000000000000000000000000FC00008F9
:1000300011C000080000000013C0000821C0000823
:1000400061D4000865D4000869D400086DD40008A4
:1000500071D400082DC0000875D4000879D40008B8
:100060007DD4000881D4000885D4000889D4000814
:100070008DD4000891D4000895D4000899D40008C4
:100080009DD40008A1D40008A5D40008A9D4000874
:10009000ADD40008B1D40008B5D4000881C0000870
:1000A000B9D40008BDD40008C1D40008C5D40008E4
:1000B000C9D40008CDD40008D1D40008D5D4000894
:1000C000D9D40008DDD40008E1D40008E5D4000844
:1000D000E9D400082FC00008EDD4000839C000089A
:1000E0006DC00008F1D40008F5D40008F9D4000868
:1000F000FDD4000801D5000805D5000809D5000881
:100100000DD5000811D5000815D5000819D500082F
:100110001DD5000821D5000843C0000825D50008DA
:1001200029D500082DD5000831D5000835D500089F
:1001300039D500083DD5000841D5000845D500084F
:1001400049D500084DD5000851D5000855D50008FF
:1001500059D500085DD5000861D5000865D50008AF
:1001600069D500086DD5000871D5000875D500085F
:1001700079D500087DD5000881D500080000000071
:1001800085D5000889D50008BFF34F8FDFF8E00957
:10019000006810F4E060DFF8DC190843DFF8D019DC
:1001A0000860BFF34F8F00BFFDE780B5DFF8C809D7
:1001B00003F022F8002000F073F9012000F070F93C
:1001C000022000F06DF9032000F06AF9042000F02D
:1001D00067F9052000F064F9062000F061F90720B6
:1001E00000F05EF90020DFF8941908700020DFF8B5
:1001F000901908700020DFF88C1908700020DFF8D3
:10020000881908704FF47A730122A0A1DFF87C09E5
:1002100003F03FF801BD38B5DFF8740902F0ECFFD8
:10022000002400259AA1DFF86C0903F0DBFB040031
:1002300097A1002003F0D6FB05002A002100DFF87B
:10024000580902F0D9FF94F900003138052805D388
:1002500094F90010DFF8440902F0CEFF8DA12800C8
:1002600003F0E6FB002804D194F9000001F08CFBB8
:100270000FE089A1280003F0DBFB002804D194F9EA
:10028000000001F059FA04E02900DFF8140902F037
:10029000B3FF31BD2DE9F047ADF5BC6DDFF80409C2
:1002A00002F0AAFFFAA84FF4FA7103F0E7FB5FF03F
:1002B000000A002400255FF0000868464FF47A71B8
:1002C00003F0DCFB00265FF030090127DFF8C418DB
:1002D000684603F0D7FB684603F0F6FB8046B8F1AA
:1002E0000B0FC0F2CE80002000F0DAF8012000F001
:1002F000D7F8022000F0D4F8032000F0D1F8042051
:1003000000F0CEF8052000F0CBF8062000F0C8F889
:10031000072000F0C5F80020DFF860180870002002
:10032000DFF85C1808700020DFF85818087000200B
:10033000DFF8541808700020DFF86C18087057A117
:10034000684603F04FFB8246BAF1000F78D0761C66
:100350005146FAA803F096FB9DF9E893504603F046
:10036000B3FB45196D1C4DA16846281803F03AFBF4
:100370008246454501DB5FF0000A4FFA89F9B9F181
:10038000300F10D043D3B9F1320F18D011D3B9F1D7
:10039000340F20D019D3B9F1360F2CD021D3B9F1B5
:1003A000370F2ED033E0FAA9002000F011FC040032
:1003B00035E0FAA9012000F00BFC04002FE0FAA9B7
:1003C000022000F005FC040029E0FAA9032000F057
:1003D000FFFB040023E0FAA9042000F0F9FB04006D
:1003E0001DE0FAA9052000F0F3FB04000120DFF86E
:1003F000B817087013E0FAA9062000F0E9FB040022
:100400000DE0FAA9072000F0E3FB040007E0002755
:100410004FFA89F94946DFF8940702F0EDFE14F12E
:10042000010F91D14FFA89F94946DFF8840702F0AC
:10043000E3FEFFF7BAFE0120DFF87817087020E02E
:10044000012E0FDB002F0DD0DFF86C0702F0D4FE79
:100450000120DFF8341708700020DFF85817087003
:1004600002F09CFC312001F08FFA322001F08CFA6E
:10047000332001F089FA342001F086FA352001F0AA
:1004800083FA0DF5BC6DBDE8F08700005B0000004D
:100490002C00000030000000310000003B00000094
:1004A00038B5040000250020052C40F0B980002458
:1004B000AEE01E210022DFF804074FF4BC7303FBFB
:1004C0000405280003F01CFB0020DFF8F0164FF4B1
:1004D000BC7202FB041188770020DFF8E0164FF4AD
:1004E000BC7202FB041108625FF0FF30DFF8CC162B
:1004F0004FF4BC7202FB041188620020DFF8BC16C6
:100500004FF4BC7202FB041148620020DFF8AC1605
:100510004FF4BC7202FB041108644FF47A70DFF8E8
:100520009C164FF4BC7202FB0411C1F858010A2159
:100530000022DFF888064FF4BC7303FB040010F5BB
:10054000A475280003F0DCFA0020DFF870164FF4E1
:10055000BC7202FB0411C1F85C0178210022DFF8B3
:100560005C064FF4BC7303FB040010F1BC052800CB
:1005700003F0C6FA0A210022DFF840064FF4BC73EC
:1005800003FB040010F59F75280003F0B9FA7821E9
:100590000022DFF828064FF4BC7303FB040010F1BF
:1005A0004405280003F0ACFA0A210022DFF80C060B
:1005B0004FF4BC7303FB040010F14405280003F062
:1005C0009FFA0020DFF8F4154FF4BC7202FB04110F
:1005D000C1F86001DFF8E4054FF4BC7101FB0400D1
:1005E00000220023C0E95A23DFF8D0054FF4BC7184
:1005F00001FB040000220023C0E95C230020DFF897
:10060000BC154FF4BC7202FB0411C1F85401641C08
:10061000052CFFF64EAFDFF8A80502F0EDFD76E001
:10062000062C00DB641EDFF89C05482101FB04005A
:1006300000220023C0E90623DFF88805482101FBDA
:10064000040000220023C0E904230020DFF8741511
:10065000482202FB041108600020DFF868154822D8
:1006600002FB04110863DFF85C05482101FB04006C
:1006700000220023C0E90823DFF84805482101FBD8
:10068000040000220023C0E90A230020DFF834150B
:10069000482202FB04114864DFF82805482101FBC9
:1006A0000400002141630020DFF81815482202FBF6
:1006B000041188630620DFF80C15482202FB0411A0
:1006C000C8630020DFF8FC14482202FB041181F803
:1006D0004000DFF8F004482101FB0400456C002DC8
:1006E00010D0D5F890500020DFF8D814482202FB33
:1006F0000411486404E02800D5F8905004F01FFA73
:10070000002DF8D12100DFF8C80D02F075FD31BDD4
:10071000F8B52DED028B94B0DFF8AC0402F06CFD5F
:100720000FA8142103F0AAF99FED508A0025002498
:10073000002602A8342103F0A1F900274FF47A73B0
:1007400001224BA1DFF8440402F0A3FD002439E0AC
:1007500097ED148A39000FA803F094F901900095E1
:1007600018EE100A04F078FC02000B00DFF85C14AD
:1007700002A804F099FC0FA80190009518EE100A49
:1007800004F06AFC02000B00DFF84C0D02F034FDAF
:1007900002A803F099F94FF47A73020092B202A909
:1007A000DFF8E80302F075FD00203865D7F8907097
:1007B000761CDFF81004482101FB04000068864223
:1007C000C6DB641C072C41DADFF8F803482101FB83
:1007D000040000680128F4DBDFF8E803482101FB8E
:1007E0000400476CDFF8F40C282101FB04000568C5
:1007F000052D00DB6D1CDFF8E40C282101FB040053
:1008000090ED098A009518EE100A04F025FC02000C
:100810000B00DFF8CC1C02A804F046FC009518EE93
:10082000100A04F019FC02000B00DFF8B80C02F00B
:10083000E3FC02A803F048F902004FF47A7392B285
:1008400002A9D24802F025FD0026B2E74FF47A73E0
:10085000012208A1CD4802F01CFDDFF8080E02F0CD
:10086000CBFC14B0BDEC028BF1BD00000000000019
:1008700023000000250000002DE9F8432DED028B38
:100880008AB000265FF000099FEDB78A5FF000088C
:10089000002505A8142103F0F1F802A80021002288
:1008A00000230EC00C380027DFF83C0C02F0A4FC3B
:1008B00000244EE0C348482101FB040090ED000AEB
:1008C000B8EEC00A88EE008A18EE100A04F0C4FBE5
:1008D00002000B00DFF8601D02A804F0E5FB02A88F
:1008E00004F0FCFB51EC100B04F000FCB54948226D
:1008F00002FB0411886002A804F0F0FB51EC100B1D
:1009000004F0F4FBDFF8D41B282202FB0411486238
:10091000AC48482101FB0400806B002805D1A948A0
:10092000482101FB040080ED0D8AA648482101FB07
:100930000400806B401C032190FBF1F201FB1200CC
:10094000A049482202FB0411886300259FED868A96
:10095000641C072C80F203819FED838A994848210B
:1009600001FB0400466C002E1BD1F1E7002030652E
:1009700096ED140AB5EE400AF1EE10FA03DD96ED9D
:10098000140A38EE008A706D804502DAD6F8548079
:10099000B146706D4519002070650020B065D6F82D
:1009A0009060002E77D0B06D0190706D0090306D2A
:1009B00004F052FB02000B00611CDFF8200D02F076
:1009C0001BFCB06D716D0818012820DBB06D00288C
:1009D00002D0706D15281ADBDFF8480D3065320043
:1009E00062A105A804F060FB05A803F06DF84FF4C0
:1009F0007A73020092B205A9644802F04AFC320000
:100A00002100DFF8240D02F0F7FB7F1CB0E7B06D8A
:100A10000128ABDB96ED160AB8EEC00AD6ED140A33
:100A200080EE800A86ED140A306D04F015FB02009A
:100A30000B006448482101FB0400416A006A04F08D
:100A40009DFB0BD3306D04F007FB5E4A482303FB8C
:100A50000422D36A926A04F091FB89D25948482152
:100A600001FB040090F8400000280BD155484821B4
:100A700001FB0400006B401C5249482202FB041198
:100A8000086375E732002100DFF8A00C02F0B4FB28
:100A900000F0D4FD6CE74B48482101FB0400006BDB
:100AA0004849482202FB04110968884206D045489B
:100AB000482101FB0400006B03280CDB414848215E
:100AC00001FB0400026B2100DFF8640C02F094FBD0
:100AD00000F0B4FD21E03B48482101FB0400006820
:100AE000874215D12100DFF84C0C02F085FB00F0A5
:100AF000A5FD32483349482202FB0411C96B4FF46B
:100B0000BC7202FB010090F91E0000F0ADFD04E094
:100B10002100DFF8340D02F06FFB00270020294987
:100B2000482202FB04110863DFF8B009282101FB09
:100B3000040004600B2DFFF6BDAEDFF8A0092821EC
:100B400001FB0400DFF8041D41624946DFF88C090F
:100B5000282202FB0400001D02F094FFD8E60AB030
:100B6000BDEC028BBDE8F18300000000212573007D
:100B70000CED00E00400FA05FCCF0008673400200B
:100B8000683400207234002062340020C03200201B
:100B900018D00008482900205CCA000880CA000854
:100BA00044C90008DCCD000863340020FCCD0008F7
:100BB0001CCE00087334002034D00008F02100203F
:100BC0003CCE0008302D0020B0D10008D8D300085A
:100BD0002DE9F8432DED048BADF50C7D040088461E
:100BE0005FF00009002568464FF40C7102F046FFE3
:100BF00000260026002500209FEDA28B9FEDA19BE3
:100C00009FEDA08B9FED9F9B0027A0A1404602F087
:100C1000E9FE814609E09DA1002002F0E3FE814645
:100C20006846F6B240F82690761CB9F1000FF2D172
:100C3000F6B20A2E0CDA052C0AD0F6B232002100E8
:100C4000DFF8380D02F0D8FA5FF0FF3000F03ABC60
:100C5000052C40F07182009804F0A7FA05000026E8
:100C60004EE0DFF81C2D4FF4BC7303FB072212EBA0
:100C700081026B46F6B25FF0050C0CFB06FC13EB31
:100C80008C031B69CB56303B9362DFF8F42C4FF496
:100C9000BC7303FB072212EB8102926A062A12DB65
:100CA000DFF8DC2C4FF4BC7303FB072212EB81024C
:100CB000DFF8CC3C4FF4BC7C0CFB073313EB810317
:100CC0009B6A5B1E9362DFF8242EDFF8B43C4FF47E
:100CD000BC7C0CFB073313EB81039B6A5FF0480C71
:100CE0000CFB0322D763491CC0B28142B9DB002050
:100CF000DFF88C1C4FF4BC7202FB07110862761CF3
:100D0000F6B2EDB2AE4280F015826846F6B2052129
:100D100001FB06F110EB8100806890F90000B0F152
:100D200031076846F6B2052101FB06F110EB8100A0
:100D30004168DFF84C0C4FF4BC7202FB070002F074
:100D4000A1FE6846F6B2052101FB06F110EB810019
:100D500080680078DFF8281C4FF4BC7202FB071192
:100D60008877DFF81C0C4FF4BC7101FB070090F989
:100D70001E00313804280FD3DFF8040C4FF4BC7187
:100D800001FB070090F91E202100DFF8F80B02F0AC
:100D900033FA5FF0FF3095E36846F6B2052101FBB8
:100DA00006F110EB8100406904F098F9DFF8D00BF0
:100DB0004FF4BC7101FB070080ED5C0BDFF8C00B4A
:100DC0004FF4BC7101FB0700D0F87411D0F870012A
:100DD0000022002304F0D2F90FD3DFF8A40B4FF464
:100DE000BC7101FB0700D0F87411D0F8700101222A
:100DF000DFF8A83C04F0DEF90FD8DFF8840B4FF4DD
:100E0000BC7101FB0700D0E95C232100DFF8E40C92
:100E100002F0F2F95FF0FF3054E36846F6B20521C4
:100E200001FB06F110EB8100C06804F0BEF9DFF8A9
:100E3000501B4FF4BC7202FB07110864DFF8400B33
:100E40004FF4BC7101FB0700006C05283FF457AF5D
:100E5000DFF82C0B4FF4BC7101FB0700006C401E47
:100E6000072815D3DFF8180B4FF4BC7101FB0700FE
:100E7000026C2100DFF8800C02F0BEF95FF0FF3059
:100E800020E300BF00000000000000002C00000074
:100E9000DFF8EC0A4FF4BC7101FB0700006C04287A
:100EA00070D16846F6B2052101FB06F110EB810016
:100EB000006902F009FEDFA16846F6B2052202FBD6
:100EC00006F210EB8200006902F08CFD80465FF0B4
:100ED0000109002088F805004146DFF8A40A4FF414
:100EE000BC7202FB070010F59A7002F0CBFD18F1FE
:100EF0000601DFF88C0A4FF4BC7202FB070010F504
:100F00009F7002F0BFFD4146DFF8740A4FF4BC72D7
:100F100002FB0700443002F0B5FD18F10601DFF8CE
:100F2000600A4FF4BC7202FB0700BC3002F0AAFD5D
:100F3000B8F1000F3FF4DBAEBEA1002002F052FD7D
:100F40008046002088F805004146DFF8340A4FF457
:100F5000BC7202FB07000A2202FB0900443002F0C7
:100F600091FD18F10601DFF8180A4FF4BC7202FB7C
:100F700007000A2202FB0900BC3002F083FD19F1D0
:100F80000109D5E7DFF8F8094FF4BC7101FB070050
:100F9000006C03282FD16846F6B2052101FB06F14B
:100FA00010EB81000069002141716846F6B205210D
:100FB00001FB06F110EB81000169DFF8C4094FF471
:100FC000BC7202FB070010F5A47002F05BFD6846DE
:100FD000F6B2052101FB06F110EB81000069811DCD
:100FE000DFF89C094FF4BC7202FB070010F59F70FC
:100FF00002F048FD7BE6DFF888094FF4BC7101FB85
:101000000700006C062874D1E5A16846F6B20522F7
:1010100002FB06F210EB8200006902F0E3FC81465D
:10102000484602F051FDC0B2082809DBC0B20200F8
:101030002100DFF8780C02F0DFF85FF0FF3041E2CA
:10104000C0B2DFF83C194FF4BC7202FB07114862D2
:1010500000213AE0DFF828294FF4BC7303FB072294
:1010600012EB810211F90930303B9362DFF810294D
:101070004FF4BC7303FB072212EB8102926A062A2B
:1010800012DBDFF8FC284FF4BC7303FB072212EBE2
:101090008102DFF8EC384FF4BC7C0CFB073313EB18
:1010A00081039B6A5B1E9362DFF8402ADFF8D03829
:1010B0004FF4BC7C0CFB073313EB81039B6A5FF09E
:1010C000480C0CFB0322D763491CC0B28142C1DB30
:1010D000B3A1002002F086FC8146484603F0FEFFE3
:1010E000DFF89C084FF4BC7101FB070080ED5A0B40
:1010F000FDE56846F6B2052101FB06F110EB810023
:10110000006902F0E1FCC0B2082809DBC0B20200AD
:101110002100DFF8980B02F06FF85FF0FF30D1E1AB
:10112000C0B2DFF85C184FF4BC7202FB07114862D2
:101130000021D9E50020C5E1062C00DB641EDFF8A4
:10114000AC09482101FB04004460009804F02DF82C
:10115000DFF89819482202FB04110860DFF88C09B7
:10116000482101FB04000068001E0B280DD3DFF8A6
:101170007C09482101FB040002682100DFF8640CAF
:1011800002F03AF85FF0FF309CE10021019804F092
:1011900028F8B0EE408AF0EE608A0021029804F050
:1011A00020F8B0EE409AF0EE609A51EC190B53EC37
:1011B000182B03F0E3FF0BD28DED008B53EC192BB2
:1011C0002100DFF8240C02F017F85FF0FF3079E11E
:1011D000DFF81809482101FB040080ED048BDFF8DB
:1011E0000C09482101FB040080ED069B00210498B6
:1011F00003F0F7FFB0EE408AF0EE608A002103981A
:1012000003F0EFFFB0EE409AF0EE609A51EC180B4D
:1012100053EC192B03F0B2FF0ED28DED009B53EC73
:10122000182B2100DFF8C40B01F0E6FF5FF0FF3060
:1012300048E100BF2E000000A6A1059802F0F8FBCF
:10124000002807D10120DFF8A418482202FB04116E
:1012500081F84000DFF89408482101FB040080ED8C
:10126000088BDFF88808482101FB040080ED0A9B09
:101270000020DFF87818482202FB041108630020E0
:10128000DFF86818482202FB04114864DFF85C08A4
:10129000482101FB0400002141630020DFF84C18C5
:1012A000482202FB0411886300260EE0DFF83C08A8
:1012B000482101FB0400406CC5F89000DFF82C08C1
:1012C000482101FB04004564761CF6B2DFF81C08D7
:1012D000482101FB04000068864280F2F2809820D9
:1012E00003F0D2FA05006846F6B2092101FB06F1C7
:1012F00010EB81008169280002F0C4FB6846F6B259
:10130000092101FB06F110EB8100C16915F11E00F6
:1013100002F0B8FB002809D115F11E022100DFF808
:10132000D40A01F069FF5FF0FF30CBE06846F6B207
:10133000092101FB06F110EB8100016A15F15C0047
:1013400002F0A0FB6846F6B2092101FB06F110EBA2
:101350008100406A03F029FF0200101E332807D3E2
:101360002100DFF8940A01F047FF5FF0FF30A9E0A9
:10137000AA666846F6B2092101FB06F110EB81006E
:10138000806A03F012FF011E1F290BD3EA6E2100B1
:10139000DFF8680A01F030FF5FF0FF3092E000BF35
:1013A0007C000000E8666846F6B2092101FB06F100
:1013B00010EB8100C06A03F0F8FE011E0A2908D371
:1013C0002A6F2100DFF8380A01F016FF5FF0FF30C6
:1013D00078E028676846F6B2092101FB06F110EBB8
:1013E0008100016B15F1740002F04CFB6846F6B207
:1013F000092101FB06F110EB8100406B03F06EFE4A
:10140000B0EE408AF0EE608A51EC180B0022002307
:1014100003F0B4FE07D351EC180B0122DFF8E439D6
:1014200003F0C8FE09D8D5E920232100DFF8D80948
:1014300001F0E2FE5FF0FF3044E085ED208B68466E
:10144000F6B2092101FB06F110EB8100806B03F07D
:1014500045FEB0EE408AF0EE608A51EC180B002297
:10146000002303F08BFE07D351EC180B0122DFF8A9
:101470009C3903F09FFE09D8D5E922232100DFF82B
:10148000900901F0B9FE5FF0FF301BE085ED228B83
:1014900000206865002028650020A8650020C5F8A8
:1014A0009000DFF84806482101FB0400406C00284A
:1014B0007FF4FCAEDFF83406482101FB04004564EC
:1014C00002E700200DF50C7DBDEC048BBDE8F28336
:1014D000A4CA0008310000005CCE000800310020E2
:1014E000CCD3000850D000087CCE000838B50024CA
:1014F0000025DFF8200901F07FFE002410E0DFF86E
:10150000180901F079FE00F099F8DFF874044FF43F
:10151000BC7101FB050090F91E0000F0A5F8641CE9
:10152000072C80F28780DFF8C405482101FB040006
:10153000C56BDFF84C044FF4BC7101FB0500006A79
:101540000128ECD1DFF8A405482101FB0400806BE1
:101550000228E4DBDFF828044FF4BC7101FB05002E
:10156000006C0328DBDADFF88405482101FB040066
:1015700090ED020ADFF87405482101FB0400D0ED6C
:101580000D0A30EE600A10EE100A03F065FD31F02E
:101590000041DFF8242CDFF8243C03F0EFFDAED34C
:1015A000DFF8DC034FF4BC7101FB0500006C01287F
:1015B00019D1DFF83805482101FB040090ED020A3B
:1015C000DFF82805482101FB0400D0ED0D0A30EEBC
:1015D000600AB5EE400AF1EE10FA04D5DFF8E00B30
:1015E00001F00AFE8FE7E6484FF4BC7101FB0500ED
:1015F000006C022819D1DFF8F404482101FB040033
:1016000090ED020ADFF8E404482101FB0400D0ED6C
:101610000D0A30EE600AB5EE400AF1EE10FA04DD74
:10162000DFF8A40B01F0E8FD6DE7DFF8A00B01F097
:10163000E3FD74E731BD000020D4000880B5DFF879
:10164000900B01F0D9FDDFF88C0B0088642808DAD4
:1016500001F0F2FC01F0C2FC4FF49670DFF8781B49
:10166000088001BDC8D100083EB5040064B2B4F1E1
:10167000310564B2B4F1310005282DD2C0484FF4D1
:10168000BC7101FB0500D0F86001002824D164B2D0
:101690002100DFF8480B01F0AFFD200040B200F060
:1016A00073F90120B6494FF4BC7202FB0511C1F871
:1016B000600164B22200DFF8281B684603F0F4FCE6
:1016C000684602F001FA4FF47A73020092B269465A
:1016D000DFF8100B01F0DDFD37BD000094C00008FD
:1016E00010B540B2B0F1310440B2B0F1310105297A
:1016F00016D2A3494FF4BC7202FB0411D1F8601159
:1017000001290DD140B20100DFF8DC0A01F074FDBF
:1017100000209B494FF4BC7202FB0411C1F8600128
:1017200010BD00000AD723BC9CCE0008C8CA000820
:101730006CC90008ECCA00082DE9F0418EB0040025
:1017400001A8342102F09AF9012664B2B4F13005FF
:1017500000275FF0000864B2312C07D024D3332C6B
:1017600010D009D3352C19D012D31DE00821DFF891
:101770007C0A03F075FD1EE00821DFF8740A03F00F
:101780006FFD18E00821DFF86C0A03F069FD12E034
:101790000821DFF8640A03F063FD0CE00821DFF89C
:1017A0005C0A03F05DFD06E0002664B22100DFF86C
:1017B000500A01F021FD002E37D0052001F06CFC0D
:1017C00003F077FD070000F00DFFFFB2002F2FD0D0
:1017D000002E2AD00120009064B2230068484FF404
:1017E000BC7101FB0500B0F5BC72DFF8181A01A846
:1017F00003F05AFC01A802F067F94FF47A73020073
:1018000092B201A9DFF8DC0901F043FD01205C4937
:101810004FF4BC7202FB0511B1F5AC71086064B203
:101820002100DFF8DC0C01F0E7FC0EB0BDE8F08130
:1018300018F10108B8F1030F8DDB64B22100DFF865
:10184000C80D01F0D9FCF0E76CD0000800401CC6C0
:10185000F0B59FB00400002000260025002701A855
:10186000142102F00BF9002206A9DFF8980C03F00E
:1018700079FE9DF819309DF81820DFF88C1C01A81E
:1018800003F012FC01A9DFF8840D4FF4BC7202FBD7
:10189000040010F59A7002F0F5F800226946DFF8AE
:1018A000640C03F00AFFDFF8640D4FF4BC7101FB18
:1018B000040010F5A47101A802F0E4F88CA102F074
:1018C00091F80BE001000BA8142202FB060002F0C5
:1018D000D9F887A1002002F085F8761C0028F1D104
:1018E0000026DFF8280D4FF4BC7101FB040010F551
:1018F0009A7101A802F0C6F87DA102F073F80BE01E
:10190000010015A8142202FB060002F0BBF878A122
:10191000002002F067F8761C0028F1D11AA803F025
:1019200044FC060010A803F040FC87193C2F07DB9D
:101930003C2097FBF0F53C2097FBF0F100FB117782
:1019400015A803F032FC06000BA803F02EFC80194A
:101950004519182095FBF0F100FB11553B002A00BA
:10196000DFF8A41BDFF8A40C4FF4BC7505FB0400E2
:1019700010F59A7003F098FB1FB0F0BD10CB000873
:10198000F021002094C900082DE9F0418EB0040038
:1019900001A8342102F072F8012664B2B4F13005D6
:1019A00000275FF0000864B2312C07D024D3332C19
:1019B00010D009D3352C19D012D31DE00821DFF83F
:1019C000500C03F04DFC1EE00821DFF8480C03F03A
:1019D00047FC18E00821DFF8400C03F041FC12E05E
:1019E0000821DFF8380C03F03BFC0CE00821DFF89D
:1019F000300C03F035FC06E0002664B22100DFF86D
:101A0000240C01F0F9FB002E39D0052001F044FB35
:101A100003F04FFC070000F0E5FDFFB2002F31D0CE
:101A2000002E2CD00020009064B22300DFF8DC0BE5
:101A30004FF4BC7101FB0500B0F5BC72DFF8C417B0
:101A400001A803F031FB01A802F03EF84FF47A73CD
:101A5000020092B201A9DFF88C0701F01AFC002005
:101A6000DFF8A81B4FF4BC7202FB0511B1F5AC7195
:101A7000086064B22100DFF8B00B01F0BDFB0EB0CE
:101A8000BDE8F08118F10108B8F1030F8BDB64B2F7
:101A90002100DFF8F00C01F0AFFBF0E70088C34055
:101AA00000B587B0002201A9DFF8580A03F05AFDFB
:101AB00000226946DFF84C0A03F0FFFD9DF8023072
:101AC0009DF801209DF8030010F5FA61DFF85C0B2A
:101AD00001F092FB9DF806309DF805209DF804105A
:101AE000DFF8A40C01F088FB07B000BD302D00200A
:101AF0003A0000003CC8000868C80008F8B50400B7
:101B0000002600250027611CDFF8800C01F074FB23
:101B1000DFF8F80A4FF4BC7101FB0400456A0026A7
:101B200055E0DFF8E80A4FF4BC7101FB040010EB4C
:101B30008600876ADFF8D006482101FB070080682D
:101B400003F08AFADFF8C026482303FB0722536913
:101B5000126903F013FB12D2DFF8B00A4FF4BC7124
:101B600001FB0400006A002809D1DFF8A00A4FF445
:101B7000BC7101FB040090F91E00FFF7DDFDDFF8EA
:101B80008806482101FB0700806803F065FA02001F
:101B90000B00DFF87406482101FB0700C16980696A
:101BA00003F0ECFA12D2DFF8640A4FF4BC7101FBC7
:101BB0000400006A012809D1DFF8500A4FF4BC7113
:101BC00001FB040090F91E00FFF7DEFE761CAE421A
:101BD000A7DBF1BDF8B50400002600250027611C35
:101BE000DFF8AC0B01F008FBDFF8200A4FF4BC7102
:101BF00001FB0400456A002655E0DFF8100A4FF4A7
:101C0000BC7101FB040010EB8600876ADFF8F80561
:101C1000482101FB0700806803F01EFADFF8E82581
:101C2000482303FB07225369126903F0A7FA12D273
:101C3000DFF8D8094FF4BC7101FB0400006A0128E9
:101C400009D1DFF8C8094FF4BC7101FB040090F919
:101C50001E00FFF799FEDFF8B005482101FB0700E1
:101C6000806803F0F9F902000B00DFF89C054821B9
:101C700001FB0700C169806903F080FA12D2DFF826
:101C80008C094FF4BC7101FB0400006A002809D1E3
:101C9000DFF878094FF4BC7101FB040090F91E00D5
:101CA000FFF74AFD761CAE42A7DBF1BD5CC600081B
:101CB00030B5ADB0040020A8342101F0DFFE13A838
:101CC000342101F0DBFE06A8342101F0D7FE002507
:101CD0000020611CDFF8BC0A01F08EFADFF82C0945
:101CE0004FF4BC7101FB040010F59F72DFF81C0972
:101CF0004FF4BC7101FB040010F5A471DFF8980AE1
:101D000001F07AFADFF804094FF4BC7101FB04001A
:101D100010F59F7113A801F0B5FE35A101F062FE28
:101D20000BE0010006A80A2202FB050001F0AAFE52
:101D30002FA1002001F056FE6D1C0028F1D1002DCE
:101D400004D1DFF8580A01F057FA49E006A803F079
:101D50002CFA3C2101FB00F50DF1220003F025FADD
:101D6000401941F270714843DFF8A0184FF4BC727B
:101D700002FB0411C1F85801DFF890084FF4BC7160
:101D800001FB0400D0F85801DFF880184FF4BC7252
:101D900002FB0411C1F85C010120DFF8041A08708D
:101DA000002201A9DFF85C0703F0DCFB9DF8053099
:101DB0009DF80420DFF8501720A803F075F920A93A
:101DC000DFF848084FF4BC7202FB040010F59A706B
:101DD00001F058FE00226946DFF8280703F06DFC89
:101DE0002DB030BD8CC60008D4C0000814C1000856
:101DF0003A00000088D0000890C3000854C10008D1
:101E000094C10008006AF840BCC60008D0126341C3
:101E1000ECC60008BCCE0008CCC300082DE9F04792
:101E2000AEB0040002A8342101F028FE21A834211C
:101E300001F024FE14A8342101F020FE00275FF0F9
:101E400000085FF000095FF0000A0025002000266E
:101E500000220FA9DFF8AC0603F084FB002201A9E1
:101E6000DFF8A00603F029FC9DF83C709DF83D804A
:101E7000CDF800803B00DFF894074FF4BC7101FB04
:101E80000400D0F85421611CDFF8180901F0B4F9FE
:101E900015E0DFF878074FF4BC7101FB0400D0F8BF
:101EA0005401401C0C2190FBF1F201FB1200DFF801
:101EB0005C174FF4BC7202FB0411C1F85401DFF847
:101EC0004C074FF4BC7101FB0400DFF840174FF4DE
:101ED000BC7202FB0411D1F854110A2202FB01006A
:101EE00090F946003A2809D00020DFF820174FF477
:101EF000BC7202FB0411C1F854014FE0DFF80C077B
:101F00004FF4BC7101FB0400DFF800174FF4BC7202
:101F100002FB0411D1F854110A2202FB010010F156
:101F2000440102A801F0AEFD00208DF80A0002A8CD
:101F300003F03BF981460DF10B0003F036F98246C0
:101F400053464A46DFF8C4064FF4BC7101FB040057
:101F5000D0F85411DFF8500801F04EF94F451DDB61
:101F6000B94596DBD04519DBC24516DADFF89C0689
:101F70004FF4BC7101FB0400D0F85401401C0C214B
:101F800090FBF1F201FB1200DFF880164FF4BC72F7
:101F900002FB0411C1F8540191E70126002E1DD166
:101FA000DFF868064FF4BC7101FB0400DFF85C1633
:101FB0004FF4BC7202FB0411D1F854110A2202FB47
:101FC000010010F14401DFF844064FF4BC7202FB3B
:101FD000040010F59A7001F055FD32E0DFF82C0690
:101FE0004FF4BC7101FB0400DFF820164FF4BC7203
:101FF00002FB0411D1F854110A2202FB010010F176
:10200000440102A801F03EFD9DF90C00392808D1D9
:102010009DF80B00401C8DF80B0030208DF80C0053
:1020200004E09DF80C00401C8DF80C0002A9DFF8BC
:10203000DC054FF4BC7202FB040010F59A7001F04D
:1020400021FDDFF8C8054FF4BC7101FB0400DFF887
:10205000BC154FF4BC7202FB0411D1F854110A22D2
:1020600002FB010010F1BC01DFF8A0054FF4BC72C7
:1020700002FB040010F59F7001F004FD611CDFF805
:10208000140701F0B9F8DFF884054FF4BC7101FBC7
:10209000040010F59F72DFF874054FF4BC7101FB6A
:1020A000040010F59A71DFF82C0B01F0A5F8DFF8A9
:1020B0005C054FF4BC7101FB040010F59A7102A895
:1020C00001F0E0FCDFF844054FF4BC7101FB0400B3
:1020D00010F59F7121A801F0D5FC3AA101F082FC16
:1020E0000BE0010014A80A2202FB050001F0CAFC63
:1020F00034A1002001F076FC6D1C0028F1D1002DE8
:1021000004D1DFF8D40A01F077F852E014A803F004
:102110004CF83C2101FB00F50DF15A0003F045F8A5
:10212000401941F270714843DFF8E0144FF4BC727B
:1021300002FB0411C1F85801DFF8D0044FF4BC7160
:1021400001FB0400D0F85801B0F57A7F09D140F2C4
:10215000ED30DFF8B8144FF4BC7202FB0411C1F883
:102160005801DFF8A8044FF4BC7101FB0400D0F85B
:102170005801062809DA40F6B830DFF890144FF419
:10218000BC7202FB0411C1F85801DFF880044FF45F
:10219000BC7101FB0400D0F85801DFF870144FF453
:1021A000BC7202FB0411C1F85C010120DFF8B01C15
:1021B00008702EB0BDE8F0879A9999999999B93F1E
:1021C000D4C100083A00000014C20008A4D00008DE
:1021D000C0D00008503400205434002034CB000814
:1021E00028D40008C0320020DCCE000854000020B3
:1021F000640000207400002084000020940000206F
:102200001CC70008E4D30008302D0020F8B52DEDE0
:10221000028B98B004000026002500270AA834216C
:1022200001F02CFC9FEDB98BDFF8680B00780028DB
:1022300040F020812100DFF8600B00F0DDFFDFF8C7
:10224000CC034FF4BC7101FB0400456A002689E011
:1022500051EC180B03F0AAFA41F270714843DFF811
:10226000AC134FF4BC7202FB0411C1F85801DFF843
:102270009C034FF4BC7101FB0400D0F85801DFF857
:102280008C134FF4BC7202FB0411C1F85C010120F5
:10229000DFF80C1508708DED028BDFF8C80B4821B4
:1022A00001FB070090ED040B8DED000BDFF8B40B84
:1022B000482101FB0700806802F0CEFE02000B00FF
:1022C000DFF8A40B00F098FF002205A98D4803F069
:1022D00049F99DF815309DF814208B490AA802F0A1
:1022E000E3FE0AA9C9484FF4BC7202FB040010F5D2
:1022F0009A7001F0C7FB002204A9824803F0DDF9BF
:102300000020DFF8681B08600120DFF8881A0870D9
:10231000DFF8500B482101FB0700806802F09CFEAB
:1023200002000B00DFF83C0B482101FB0700C169EC
:10233000806902F023FF14D2B4484FF4BC7101FB52
:102340000400006A01280CD1B0484FF4BC7101FBB5
:10235000040090F91E00FFF717FB0120DFF8341A84
:102360000870761CAE4280F28580A8484FF4BC719C
:1023700001FB040010EB8600876ADFF8E80A4821B9
:1023800001FB0700806802F067FEDFF8D82A4823C7
:1023900003FB07225369126902F0F0FEB8D29B4892
:1023A0004FF4BC7101FB0400006A0028B0D1DFF8D3
:1023B000B40A482101FB0700806802F04DFE0200CC
:1023C0000B00DFF8A00A482101FB07004169006902
:1023D00003F018FA41EC180B8C484FF4BC7101FB68
:1023E0000400D0F86C11D0F8680153EC182B03F0FE
:1023F000C9FA41EC180B85484FF4BC7101FB04008D
:10240000D0F87411D0F870010022002302F0B6FE5B
:1024100004D2DFF8C00B00F0EFFE6DE07B484FF414
:10242000BC7101FB0400D0F87411D0F870010022D7
:10243000DFF8A43B03F0A6FA02000B0051EC180BE6
:1024400003F072FB41EC180B51EC180B0022DFF883
:10245000A83B03F097FA41EC180B51EC180B002243
:10246000002302F08BFE3FF6F3AEDFF8A80B00F07E
:10247000C3FE41E0DFF8A00B007800283CD121002A
:10248000DFF8B00B00F0B8FE60484FF4BC7101FB00
:102490000400456A00262DE05C484FF4BC7101FB46
:1024A000040010EB8600876ADFF8B809482101FBB9
:1024B0000700806802F0D0FD02000B00DFF8A409DD
:1024C000482101FB0700C169806902F057FE10D264
:1024D0004E484FF4BC7101FB0400006A012808D18A
:1024E0004A484FF4BC7101FB040090F91E00FFF74D
:1024F0004BFA761CAE42CFDB18B0BDEC028BF1BDBF
:102500001CCF0008F0330020F0D3000800000000CA
:102510000000000038B500240025002400E0641C01
:10252000052C5EDA39484FF4BC7101FB0400006CE5
:102530000028F4D035484FF4BC7101FB0400D0F8FA
:1025400060010028EBD131484FF4BC7101FB04005D
:10255000056C2E484FF4BC7101FB0400D0F85811F3
:10256000DFF8640B00F048FE012D08D0022D0AD0E0
:10257000032D0CD0042D18D0062D24D0CFE7200039
:10258000FFF7BCFACBE72000FFF724FBC7E71F48A3
:102590004FF4BC7101FB0400D0F85801B0F57A7F0C
:1025A00002D12000FFF784FBB9E718484FF4BC7153
:1025B00001FB0400D0F85801B0F57A7F02D1200069
:1025C000FFF72CFCABE7DFF8CC070078002804D03D
:1025D000DFF8440A0078002802D12000FFF716FE39
:1025E0009DE731BD002004E00021DFF8E42A81549A
:1025F000401CDFF8E01A09888842F5DB0020DFF88C
:10260000D81A088070470000FCCE0008F021002096
:102610005C0000206C0000207C0000208C0000206A
:102620009C00002094C800083CCF00085CCF000844
:1026300080B52DED028B00EE100AB8EEC08A00299D
:102640000ED002291CD00CD3042937D027D3062959
:1026500052D042D308296DD05DD3092979D087E0C3
:102660008AE018EE100A02F0F7FCDFF8702ADFF8B3
:10267000703A03F087F902F039FD08EE100A7BE0AA
:1026800018EE100A02F0E8FCDFF8582ADFF8583A92
:1026900003F078F902F02AFD08EE100A6CE018EE5B
:1026A000100A02F0D9FCDFF8442ADFF8443A03F0BC
:1026B00069F902F01BFD08EE100A5DE018EE100A41
:1026C00002F0CAFCDFF82C2ADFF82C3A03F05AF9A2
:1026D00002F00CFD08EE100A4EE018EE100A02F0AF
:1026E000BBFCDFF8182ADFF8183A03F04BF902F0C8
:1026F000FDFC08EE100A3FE018EE100A02F0ACFCF8
:10270000DFF8002ADFF8003A03F03CF902F0EEFCB3
:1027100008EE100A30E018EE100A02F09DFCDFF817
:10272000EC29DFF8EC3903F02DF902F0DFFC08EEBC
:10273000100A21E018EE100A02F08EFCDFF8D4290E
:10274000DFF8D43903F01EF902F0D0FC08EE100ACD
:1027500012E018EE100A02F07FFCDFF8C029DFF863
:10276000C03903F00FF902F0C1FC08EE100A03E0D3
:10277000DFF8B00900F040FDB0EE480ABDEC028B76
:1027800001BD000058CB00085CD300084CC700080E
:102790007CC70008C0C800083CC40008DCD00008A2
:1027A0006734002054C2000894C20008F8B52DED2B
:1027B000028B94B004000D0002A8142101F05EF910
:1027C0009FEDD28A9FEDD18A002007A8342101F025
:1027D00055F9002005E0DFF8F818415C07AA81549C
:1027E000401CDFF8F01809888842F4DBDFF8E408C1
:1027F000018807A803F0EBFA00282BD1DFF828099D
:1028000000F0FAFC0A2107A800F0B3FADFF81C195F
:1028100014F1740001F00CF900283BD1E06E04289B
:1028200025D107A8A16E081810F8010C8DF80A0030
:1028300007A8A16E085C8DF80B0007A8A16E081808
:1028400040788DF8080007A8A16E081880788DF8E8
:1028500009004DE02100DFF8D80800F0CDFC606DE4
:10286000401C6065FFF7BEFE5FF0FF30AEE107A8D9
:10287000A16E085C8DF80A0007A8A16E081810F870
:10288000010C8DF80B0000208DF8080000208DF859
:1028900009002DE0E06E042818D107A8A16E0818E1
:1028A00010F8010C8DF8080007A8A16E085C8DF8DF
:1028B000090007A8A16E081840788DF80A0007A83B
:1028C000A16E081880788DF80B0011E007A8A16EA2
:1028D000081810F8010C8DF80A0007A8A16E085C12
:1028E0008DF80B0000208DF8080000208DF80900FD
:1028F000DFF8401814F15C0001F09AF8002840F06D
:102900008D8002A800F076F9B0EE408A18EE100A29
:1029100002F0A2FB02000B00DFF81C0800F06CFCC8
:10292000D4E920010022002302F044FC06D3D4E9BC
:1029300022010022002302F03DFC44D29FED730AE5
:1029400094ED200B8DED000BD4E92223DFF8EC078A
:1029500000F052FC18EE100A02F07EFB06000F0099
:10296000D4E92201D4E9202302F04CFF02000B003D
:102970003000390003F006F802F0B8FB00EE100A50
:1029800010EE100A02F068FB0022DFF8B43703F003
:10299000CBF802F0ABFB08EE100A18EE100A02F0BA
:1029A0005BFBD4E9202303F051FA02F09FFB08EE11
:1029B000100A18EE100A02F04FFB02000B00DFF8BD
:1029C000840700F019FC002D0CD0022D62D041D3F9
:1029D000042D00F0A1807DD3062D00F0DD80C0F035
:1029E000BB80ECE0DFF8600790ED000AB4EE408AAF
:1029F000F1EE10FA2ADBDFF8540790ED000AB4EE8E
:102A0000480AF1EE10FA21DB94ED140A30EE080AC0
:102A100084ED140AA06D401CA0651AE0DFF83017A1
:102A200014F15C0001F004F8002808D102A800F0BD
:102A3000D5F8216FFFF7FCFDB0EE408A66E7DFF8BE
:102A4000140700F0D9FB5FF0FF30BFE0606D401C61
:102A50006065B8E0DFF8000790ED000AB4EE408A48
:102A6000F1EE10FA12DBDFF8F40690ED000AB4EE96
:102A7000480AF1EE10FA09DB94ED140A30EE080A68
:102A800084ED140AA06D401CA06502E0606D401C3E
:102A9000606598E0DFF8C80690ED000AB4EE408A61
:102AA000F1EE10FA12DBDFF8BC0690ED000AB4EE8E
:102AB000480AF1EE10FA09DB94ED140A30EE080A28
:102AC00084ED140AA06D401CA06502E0606D401CFE
:102AD000606578E0DFF8900690ED000AB4EE408A79
:102AE000F1EE10FA14DBDFF8840690ED000AB4EE84
:102AF000480AF1EE10FA0BDB94ED140A30EE080AE6
:102B000084ED140AA06D401CA06504E000000000E4
:102B1000606D401C606556E0DFF8540690ED000AD9
:102B2000B4EE408AF1EE10FA12DBDFF8480690EDC1
:102B3000000AB4EE480AF1EE10FA09DB94ED140A2B
:102B400030EE080A84ED140AA06D401CA06502E076
:102B5000606D401C606536E0DFF81C0690ED000AF1
:102B6000B4EE408AF1EE10FA12DBDFF8100690EDB9
:102B7000000AB4EE480AF1EE10FA09DB94ED140AEB
:102B800030EE080A84ED140AA06D401CA06502E036
:102B9000606D401C606516E0B5EE408AF1EE10FAFB
:102BA00009DB94ED140A30EE080A84ED140AA06DD6
:102BB000401CA06502E0606D401C606503E0DFF82A
:102BC000C00500F019FBFFF70DFD002014B0BDECAF
:102BD000028BF2BDACC700087CCF00080178090663
:102BE0004278120483781B029A18C0781018411892
:102BF000080070472DE9F0412DED048B017890F825
:102C000001808478C578B7EE008AC9B2802901D3E3
:102C1000BFEE008ADFED918AC9B280290DD3C9B217
:102C2000080003F091F90022DFF8583503F00EF99F
:102C300002F05CFA08EE900A04E0C9B200EE101A45
:102C4000F8EE408A18EE900A02F006FA00225FF0D1
:102C5000804302F097FE02F049FA08EE900A5FFA0C
:102C600088F8B8F1800F0CD318EE900A02F0F4F94E
:102C70000022DFF8143503F0E9F802F037FA08EE25
:102C8000900A18EE900A02F0E7F90022DFF8FC340F
:102C900003F0DCF802F02AFA08EE900A9FED6F9A32
:102CA0005FFA88F8B8F1800F0CD35FFA88F84046D5
:102CB00003F04AF90022DFF8CC3403F0C7F802F041
:102CC00075FD8046EDB2280003F03EF906000F00C6
:102CD000E4B2200003F038F904000D005FFA88F830
:102CE000404603F031F90022DFF8A43402F04AFE36
:102CF00022002B0003F0AAF80022DFF8943402F03F
:102D000041FE32003B0003F0A1F802F0EFF909EEBA
:102D1000100A9FEDB80A89EE009A18EE100A02F028
:102D20009BF904000D0018EE900A02F095F941ECB1
:102D3000110B9FEDC70B03F08CFB51EC100B220025
:102D40002B0002F01FFE04000D00B7EE000A39EE62
:102D5000000A10EE100A02F07FF922002B0002F0A8
:102D600011FE02F0C3F900EE100ABDEC048BBDE8C1
:102D7000F08170B504000D00002605E0315DDFF83C
:102D8000140400F039FA761CAE42F7DBC1A000F063
:102D900033FA70BD72340020DCC7000810B5ADF501
:102DA000806DDFF8F4030078002851D1DFF8EC03E0
:102DB00000F08AFE0400641C6846142100F05EFEE8
:102DC0006946200000F054F81E2C07DA2200DFF8D4
:102DD000CC13DFF8CC0300F00FFA3CE0DFF8BC13B3
:102DE00005A800F04FFE232005A9611801F8010C89
:102DF000DFF8B0030068012803D1312005A9605431
:102E000002E0302005A96054002005A9611848702F
:102E1000002005A961188870641C002003F0D5FD0E
:102E2000684600F051FE020092B20A21684603F0A3
:102E300020FE05A800F048FE020092B2142105A869
:102E400003F017FE220005A9D74800F0D5F902E0EB
:102E50000020D14908700DF5806D10BD0000000004
:102E600068340020302D0020DCB7000844340020F6
:102E70007EB40022002300236B4600240025002698
:102E800070C30C3B0300002B00D540420A2490FB8A
:102E9000F4F504FB150430346D465455521C0A24D5
:102EA00090FBF4F00128F1DA002B03D52D206B46BE
:102EB000D054521C00206B46D054130006E06846E4
:102EC000181810F8010CD41A60545B1E002BF6D5AC
:102ED00077BC704730B5ADF57D7D040000256846B0
:102EE0000021002200230EC00C3803A84FF47A7191
:102EF00000F0C4FD0A220021684603F056FE0A22B3
:102F00000A21684603F051FE6A460021A74800F0F6
:102F100073F9684602F049F90500B5F57A7F02DDDC
:102F20000A2095FBF0F56D1C2800020092B21421D6
:102F300003A803F03AFE2A0003A99D4800F05CF9BB
:102F400003A8281810F8010C302806D10020954954
:102F50000860984800F050F912E003A8281810F80B
:102F6000010C312806D101208E490860924800F0FA
:102F700043F905E000208B490860904800F03CF9D7
:102F800003A8281810F8020C23280FD1002003A949
:102F9000691801F8020C03A9200000F073FD03A9D1
:102FA000874800F029F9FDF775F902E0854800F03F
:102FB00023F90DF57D7D30BD80B54FF47A73012284
:102FC00042A1814800F065F9012080F31388FDF7E4
:102FD000DBF801BDECC800080000594080B50821AD
:102FE0007A4802F03DF9052000F056F800203A49F1
:102FF000088001BD0000004B00004E4080B5082154
:10300000734802F02DF9052000F046F800203249FF
:10301000088001BDD4C200086F34002080B50821AB
:103020006C4802F01DF9052000F036F800202A490E
:10303000088001BD70C4000880B50821664802F010
:103040000FF9052000F028F800202349088001BD71
:10305000000000000000004080B508215F4802F039
:10306000FFF800201C49088001BD80B508215C489C
:1030700002F0F6F800201849088001BD80B55948D3
:1030800000F0BAF8002003F0A0FC574800F0B4F8B4
:1030900001BD00000A0000004FF4FA5148435349B3
:1030A00008600020524908600120524908605148D8
:1030B000006810F001100128F9D000204D49086087
:1030C00000204B49086070476CD300087D00000069
:1030D000BC330020E8010020523400209A999999CD
:1030E0009999B93F7B14AE47E17A843FFCA9F1D2AC
:1030F0004D62503F2D431CEBE2361A3FF168E388E6
:10310000B5F8E43E8DEDB5A0F7C6B03E48AFBC9A29
:10311000F2D77A3E3A8C30E28E79453E95D626E853
:103120000B2E113EE0D100087CCB000830D4000803
:10313000BCC9000838D40008C4CB0008A4C40008E7
:103140000088D340F8D00008383400200C0000205C
:1031500040D40008A0CB00083C3400201000002020
:103160001400002018000020343400200800002043
:103170003034002004000020403400201C000020D7
:103180009CCF0008000060C00000F03F00C05FC09E
:103190000000704048D40008733400204829002003
:1031A0000CC800082000002018C90008E8CB00085F
:1031B00014D100080CCC000830CC0008D8C400089A
:1031C000BCCF000854CC0008C032002034000020DE
:1031D0003C000020240000202C000020440000209F
:1031E0004C00002078CC00089CCC000814E000E0E3
:1031F00018E000E010E000E00EB400B582B003A9D2
:10320000009102466B460121034878440A3003F0DE
:103210003DFD06BC5DF810FBA1A0000010B5040048
:10322000002C01D1012033E0A0690028FFD194F8DF
:103230003900002805D1002084F83800200004F06F
:10324000EDFD242084F839002068C06830F4005077
:103250002168C860200000F039FA2068006930F465
:103260009040216808612068406930F02A00216898
:1032700048612068C06850F400502168C860002090
:10328000E063202084F83900202084F83A000020F0
:1032900010BD2DE9F04182B004000D0016001F00A2
:1032A0005FF0000894F8390020285DD1002D02D08D
:1032B000B6B2002E01D1012057E094F93800012860
:1032C00001D1022051E0012084F838000020E063A1
:1032D000212084F8390004F0F8FE8046A684E684B4
:1032E00003E02878216848606D1CE08C002828D015
:1032F000E08C401EE084A068B0F5805F16D1009796
:10330000434600228021200000F0FCF8002801D074
:1033100003202AE02888C005C00D21684860206984
:10332000002801D1AD1CE0E76D1CDEE700974346A5
:1033300000228021200000F0E5F80028D1D00320F1
:1033400013E00097434600224021200000F0DAF805
:10335000002801D0032008E0202084F83900002054
:1033600084F83800002000E00220BDE8F68190F8E3
:103370003A30202B28D1002902D092B2002A01D164
:10338000012022E090F93830012B01D102201CE00D
:10339000012380F8383081628285C2850021C163B3
:1033A000222180F83A10002180F83810016849691C
:1033B00051F00101026851610168C96851F49071CE
:1033C0000068C160002000E00220704738B50400AA
:1033D000206800682168C9682268526900230023B8
:1033E00010F00F03002B07D1850605D58D0603D5F8
:1033F000200000F01EF982E0002B70D0D30702D429
:1034000011F4907F6BD010F00103DBB2002B05D0DC
:10341000CB0503D5E36B53F00103E363430708D502
:1034200012F00103DBB2002B03D0E36B53F0020375
:10343000E363830708D512F00103DBB2002B03D04E
:10344000E36B53F00403E363030708D512F00102B2
:10345000D2B2002A03D0E26B52F00802E263E26BC0
:10346000002A3BD0800604D5880602D5200000F053
:10347000E0F820684069800910F00103E06B000764
:1034800001D4002B25D0200000F074F8206840699A
:1034900040061AD52068406930F040002168486134
:1034A000606B00280DD00FF2F100616B0865606B56
:1034B00004F014FE002811D0606B616B096D884721
:1034C0000CE0200000F01DF808E0200000F019F8E2
:1034D00004E0200000F015F80020E0630FE0020691
:1034E00005D50A0603D5200000F060F807E0400685
:1034F00005D5480603D5200000F08DF8FFE731BD63
:10350000704770472DE9F04104000D0016001F00C0
:10351000DDF81880206800682840A84201D1012009
:1035200000E0002076B2B04221D118F1010FF1D0B5
:10353000B8F1000F04D004F0C8FDC01B8045E9D2EB
:103540002068C06830F4D0702168C8602068406985
:103550004008400021684861202084F8390020207C
:1035600084F83A00002084F83800032000E00020AE
:10357000BDE8F0810168C96831F490710268D160DA
:10358000016849694908490002685161202180F8B1
:103590003A1070470000000080B5806B0021C185A3
:1035A0000021C184FFF7ADFF01BD000090F8391084
:1035B00021292ED18168B1F5805F10D1016A098877
:1035C000C905C90D026851600169002903D1016A6A
:1035D000891C016209E0016A491C016205E0016A77
:1035E0004A1C0262097802685160C18C491EC1847C
:1035F00089B200290BD10168C96831F080010268E5
:10360000D1600168C96851F040010068C1600020C4
:1036100000E00220704780B50168C96831F04001C0
:103620000268D160202180F83910FFF769FF00207F
:1036300002BD80B590F83A10222945D18168B1F5D4
:10364000805F14D1816A0269002A08D10268526839
:10365000D205D20D0A80816A891C816219E0026854
:103660005268D2B20A80816A491C816211E0016904
:10367000002906D1816A4A1C8262026852680A7077
:1036800007E0816A4A1C82620268526812F07F0277
:103690000A70C18D491EC18589B2002912D1016805
:1036A000C96831F490710268D160016849694908BC
:1036B000490002685161202180F83A1005F0A8F80D
:1036C000002002E0002000E0022002BD2DE9F041D0
:1036D000040000202068006930F44050E16808438D
:1036E000216808612068C068BB490840A168226958
:1036F000114362691143E269114308432168C860BC
:103700002068406930F44070A1690843216848612D
:10371000E069B0F5004F40F0B0802068AF498842C2
:1037200003D02068AE49884253D105F0E1FE8046BF
:1037300005F0DEFE060005F0DBFE070005F0D8FE12
:10374000050005F0D5FE192101FB08F16268520061
:10375000B1FBF2F16422B1FBF2F1192202FB06F295
:1037600063685B00B2FBF3F2192303FB07F366689F
:103770007600B3FBF6F36426B3FBF6F3642606FB90
:103780001322D20032326423B2FBF3F212F0F802B9
:10379000520012EB0111192202FB05F263685B0073
:1037A000B2FBF3F21923584363685B00B0FBF3F0FC
:1037B0006423B0FBF3F0642303FB1020C00032301D
:1037C0006422B0FBF2F010F0070040182168886016
:1037D00000E105F07DFE804605F07AFE060005F06A
:1037E00077FE070005F074FE050005F071FE192153
:1037F00001FB08F162685200B1FBF2F16422B1FBF7
:10380000F2F1192202FB06F263685B00B2FBF3F2ED
:10381000192303FB07F366687600B3FBF6F364260F
:10382000B3FBF6F3642606FB1322D2003232642384
:10383000B2FBF3F212F0F802520012EB011119225E
:1038400002FB05F263685B00B2FBF3F219235843F5
:1038500063685B00B0FBF3F06423B0FBF3F0642318
:1038600003FB1020C00032306422B0FBF2F010F0F5
:103870000700401821688860ACE0206857498842FA
:1038800003D020685649884252D105F031FE804667
:1038900005F02EFE060005F02BFE070005F028FEC1
:1038A000050005F025FE192101FB08F16268920070
:1038B000B1FBF2F16422B1FBF2F1192202FB06F234
:1038C00063689B00B2FBF3F2192303FB07F36668FE
:1038D000B600B3FBF6F36426B3FBF6F3642606FBEF
:1038E0001322120132326423B2FBF3F212F0F0021F
:1038F00012EB0111192202FB05F263689B00B2FB77
:10390000F3F21923584363689B00B0FBF3F0642380
:10391000B0FBF3F0642303FB10200001323064227B
:10392000B0FBF2F010F00F0040182168886051E001
:1039300005F0CEFD804605F0CBFD060005F0C8FD84
:10394000070005F0C5FD050005F0C2FD192101FBCA
:1039500008F162689200B1FBF2F16422B1FBF2F16E
:10396000192202FB06F263689B00B2FBF3F21923F3
:1039700003FB07F36668B600B3FBF6F36426B3FBFC
:10398000F6F3642606FB1322120132326423B2FBE3
:10399000F3F212F0F00212EB0111192202FB05F210
:1039A00063689B00B2FBF3F21923584363689B00E2
:1039B000B0FBF3F06423B0FBF3F0642303FB1020AF
:1039C000000132306422B0FBF2F010F00F0040181A
:1039D00021688860BDE8F081F369FFFF00100140B5
:1039E0000014014070B504460D46104805F0B4FDC2
:1039F000064644B12946204605F0AFFD041920785B
:103A000030B9306070BD3468002CF3D1002070BD37
:103A10002946204605F0B2FD0019017811B10021B8
:103A200000F8011B3060204670BD00BFE40000209C
:103A3000820707D010F8012B11F8013BBAB19A4266
:103A4000F6D014E002680B689A42A2F1013301BF7C
:103A5000934313F0803F50F8042F51F8043FF3D004
:103A600010F8012B11F8013B0AB19A42F8D0D01A94
:103A700070470268531C036011707047002205F004
:103A80008FBD00005FEA000C830706D011F8013BF0
:103A900000F8013BB3B18307F8D10A68B2F10133F2
:103AA00023EA020313F0803F02BF40F8042B51F8D1
:103AB000042FF3E711F8013B00F8013B13B111F8B3
:103AC000013BF9E76046704700F10103810704D02C
:103AD00010F8011B89B18107FAD10268B2F10131F6
:103AE000914311F0803F04BF50F8042FF6E710F81F
:103AF000011B11B110F8011BFBE7C01A7047000051
:103B000062F30F2262F31F42401810F0030308D043
:103B1000C91A1FD3DB0748BF00F8012D28BF20F8C2
:103B2000022D130030B414461546103928BF20E981
:103B30003C00FAD8490728BF20E90C0048BF40F8EC
:103B4000042D890028BF20F8022D48BF00F8012D60
:103B500030BC7047C91818BF00F8012DCB0728BF2B
:103B600000F8012D7047000000F5E07002689142F6
:103B700003D343689A18914202D380680028F5D194
:103B80007047DFF85807016891B94FF480318160C0
:103B90004FF4805141604FF0FF31C1600161042159
:103BA000DFF83C274161C2F8BC11DFF8381701602B
:103BB0000120704701F1080313F0070305D001F15C
:103BC0000803C3F1080303F007035918D21A8161EF
:103BD000C26042F001034B60511828234B60DFF8AC
:103BE000FC160969C16170472DE9F84F064601F1DD
:103BF000080010F0070008BF884607D001F1080050
:103C0000C0F1080000F0070000EB010802F1080015
:103C100010F0070006D002F10800C0F1080000F023
:103C2000070082181546A5EB0800A0EB030903EB7B
:103C3000080B43F00300C8F80400AB4528BF05F0AB
:103C4000C8FC2879C00758BF05F0C3FCB9F1100FB4
:103C500038BF05F0BEFCB069854209D1F068484420
:103C6000F060C6F818B040F00100CBF804006DE138
:103C7000706985420BD1B0684844B060C6F814B092
:103C800040F00101CBF8041040F80B005EE16868D9
:103C900000F00301012940F0AD80C008C000019090
:103CA000C00820283AD2D5F808A0EF680090BD429D
:103CB00008BF05F08EFC554508BF05F08AFC686812
:103CC0000099C008C000B0EBC10F18BF05F081FC1F
:103CD000009806EBC00000F128018A4507D0316941
:103CE0008A45C0F08280DAF80C10A9427DD1574590
:103CF00006D1009A3068012191408843306076E017
:103D00002830874205D0306987426ED3B868A84210
:103D10006BD1CAF80C70C7F808A068E0EF68D5F856
:103D200018A0AF420CD0A8683169884223D3C1687B
:103D3000A94204BFB968A9421DD1C760B8601CE0A0
:103D400005F11400076837B905F110000768A7B13D
:103D500001E00846076807F114010A68002A02BF5B
:103D600007F110010A68002AF3D13169884202D3B1
:103D70000021016001E005F02CFCBAF1000F36D003
:103D8000E86906EB800000F5987001688D4208D163
:103D90000760A7B9EA6970680121914088437060A3
:103DA00025E03069824508D3DAF81000A84214BF34
:103DB000CAF81470CAF8107001E005F00AFCB7B137
:103DC0003069874211D3C7F818A0296929B1814207
:103DD00026BF39618F6105F0FCFB686938B1316934
:103DE000884202D37861876101E005F0F2FB019817
:103DF0004519814468684008400068604FEAD90569
:103E000049F00100CBF8040049F80B90202D23D293
:103E100006EBC50000F12807BA46B9F1100F38BF0C
:103E200005F0D7FB306820FA05F1C90704D4012159
:103E3000A9400843306006E0B868316988422CBF69
:103E4000824605F0C6FBC7F808B0CAF80CB0CBF83C
:103E500008A0CBF80C7079E05FEA192108BF0020B8
:103E600023D0B1F5803F28BF1F201ED2A1F580705E
:103E7000000C00F008008140A1F58052120C02F005
:103E800004029140A1F580431B0CC0F10E0003F029
:103E90000203801AC01A994000EBD130C11D29FAE3
:103EA00001F202F0010101EB4000CBF81C000022FE
:103EB000CBF81420CBF8102006EB8001726822FAB0
:103EC00000F3DB0701F5987107D4012303FA00F032
:103ED00010437060C1F800B01DE009681F280EBFD4
:103EE00000204008C0F1190009FA00F000E0114676
:103EF0004A68D208D2004A4514D0C20F01EB8202B0
:103F000002F1100340001A68002AF0D130698342A0
:103F10001AD3C3F800B0CBF81810CBF80CB0CBF81C
:103F200008B013E032698868914228BF90420BD3F1
:103F3000C0F80CB0C1F808B0CBF80800CBF80C10F2
:103F40000020CBF8180001E005F043FB08F1080061
:103F5000BDE8E68F2DE9FA4D0546DFF8800384B011
:103F6000006808B9FFF70DFEDFF870030499806858
:103F700041182F31401E21EA00000499814280F04F
:103F8000A88105F5D876B16839B1326880188242C7
:103F900080F09F818142C0F09C8105F01DFB0028CC
:103FA0001EBF0446D0F8008014F1010F00F091818B
:103FB0003068716840443060814238BF01467160AA
:103FC000A86980BB286908B1844200D22C61002016
:103FD000F0613461C6F8148005F12801BF4800681B
:103FE00068624FF0FF302862002001F10802C960CA
:103FF0001160801C10312028D2609260F5D3B8483F
:10400000854203D1A8F12802214629E055F8040C85
:10401000C00805EBC000A0F1080108EB0400401A3D
:10402000A0F128021CE005F5E071084600E0806878
:10403000D0B1026843689A189442F8D1027B120703
:1040400012D4AA6903689A420ED347683B449A4245
:104050000AD208EB07014160E868A96908EB000291
:104060002846FFF7A7FD1EE128698442084638BFAD
:104070002C6108EB040100E0806880B102688A428C
:10408000FAD1017B09070AD40460416841444160C8
:104090002146049B284606B0BDE8F04DA4E5AF6973
:1040A00039462846FFF760FD0168406840180290D5
:1040B0002F3800F1080111F0070105D000F10801C7
:1040C000C1F1080101F00701081807F11001884249
:1040D00034BF0097009000980830019004F1080167
:1040E000009800F1180A11F007014FF0000BA8F139
:1040F000280005D004F10801C1F1080101F0070111
:104100000A19401AAA61E86040F001015160801864
:104110002821416071480069E861019810F00700AA
:1041200018BF05F056FA00991B20486005F5E071AC
:10413000B1E80C500198A0E80C503461C6F8148026
:10414000C6F81CB00198B061029800E08A460722C8
:10415000CAF804200AF104010A1D82420BF1010B86
:10416000F4D3BBF1020FB8BF05F033FA0098B842A0
:1041700000F09980C01BC119C4084A685208520057
:104180004A6040F001017960C051202C20D205EB3B
:10419000C40101F12806B046102838BF05F019FA0D
:1041A000286820FA04F1C90704D40121A14008437A
:1041B000286006E0B068296988422CBF804605F077
:1041C00008FAB760C8F80C70C7F80880FE606AE0AB
:1041D000010A08BF002223D0B1F5803F28BF1F226B
:1041E0001ED2A1F58072120C02F008029140A1F5D6
:1041F00080531B0C03F004039940A1F58044240C68
:10420000C2F10E0204F00204D21A121BA14002EB0A
:10421000D131CA1D20FA02F303F0010202EB410280
:10422000FA6100237B613B6105EB82016B6823FA35
:1042300002F4E40701F5987105D401209040184379
:1042400068600F601CE009681F2A0EBF0022520838
:10425000C2F1190200FA02F200E019464B68DB08CD
:10426000DB00834210D0D30F01EB830303F1100472
:1042700052002368002BF0D12869844211D32760B3
:10428000B961FF60BF600EE02A698868914228BF6B
:10429000904206D3C7608F60B860F9600020B861B3
:1042A00001E005F096F9E8680499814211D2401ABC
:1042B000E860A969049A5218AA6140F001005060B0
:1042C000049840F00300486006B001F10800BDE822
:1042D000F08D002006B0BDE8F08D00001034002005
:1042E000282F00206859883C2DE9F04D044600260F
:1042F00088465FEA1820C8F1000B08BF002123D0D0
:10430000B0F5803F28BF1F211ED2A0F58071090C97
:1043100001F008018840A0F58052120C02F004025E
:104320009040A0F580431B0CC1F10E0103F0020385
:10433000891AC91A984001EBD030C11D28FA01F240
:1043400002F0010101EB400104EB8100D0F83001E3
:1043500018B31F290EBF00224A08C2F1190208FA39
:1043600002F2002300E052004568ED08ED00A5EBE5
:1043700008055D4503D25FEA050B06460BD045698B
:10438000D70F00EB8700002D00691CBF85422B462C
:104390000028E8D11846B8BBC6BB012088404000C1
:1043A000414208436168084000F06381414208408F
:1043B000401E010B01F01001C840420902F0080242
:1043C000D040830803F00403D840450805F00205F7
:1043D0005118E8405918C0F3400729443944F840BF
:1043E000401804EB8000D0F830010DE00846416829
:1043F000C908C900A1EB080159453CBF8B460646D8
:1044000001690029F2D140690028F0D1002E00F0A6
:104410003081A068A0EB0800834580F02A812069E4
:104420008642C0F024817068C008C00008EB0B0110
:1044300008EB0605884218BF05F0CBF8AE4280F0C5
:104440001681F768D6F818A0B7420CD0B068216979
:10445000884223D3C168B14204BFB968B1421DD1BB
:10446000C760B8601CE006F11400076837B906F1B0
:1044700010000768A7B101E00846076807F11401BA
:104480000A68002A02BF07F110010A68002AF3D166
:104490002169884202D30021016001E005F099F80A
:1044A000BAF1000F38D0F06904EB800000F5987085
:1044B00001688E4209D10760380014D1F269606842
:1044C000012191408843606026E02069824508D33D
:1044D000DAF81000B04214BFCAF81470CAF81070AD
:1044E00001E005F076F8BFB12069874212D3C7F822
:1044F00018A0306930B12169884226BF38618761D0
:1045000005F067F8706938B12169884202D3786193
:10451000876101E005F05DF8BBF1100F0CD208EBEC
:104520000B0040F00300706008EB0B00801941683D
:1045300041F00101416096E048F0030070604BF0EB
:10454000010068604FEADB004BF805B020281DD25F
:1045500004EBC00101F12807216821FA00F2D2071B
:10456000BB4605D4012202FA00F00843206006E0B1
:10457000B868216988422CBF834605F02AF8BD60DF
:10458000CBF80C50C5F808B0EF606CE05FEA1B2177
:1045900008BF002023D0B1F5803F28BF1F201ED2C6
:1045A000A1F58070000C00F008008140A1F5805258
:1045B000120C02F004029140A1F580431B0CC0F1E3
:1045C0000E0003F00203801AC01A994000EBD130AC
:1045D000C11D2BFA01F202F0010101EB4000E8617C
:1045E00000226A612A6104EB8001626822FA00F30A
:1045F000DB0701F5987106D4012303FA00F010439C
:1046000060600D601CE009681F280EBF0020400894
:10461000C0F119000BFA00F000E011464A68D20818
:10462000D2005A4510D0C20F01EB820202F11003F2
:1046300040001A68002AF0D12069834211D31D601E
:10464000A961ED60AD600EE022698868914228BFE3
:10465000904206D3C5608D60A860E9600020A86123
:1046600001E004F0B6FF06F10800BDE8F08D04F0AB
:10467000B0FF0020BDE8F08D2DE9F84F04468846D4
:10468000606841420840401E010B01F01001C84023
:10469000420902F00802D040830803F00403D84026
:1046A000450805F002055118E8405918C0F34006C6
:1046B00029447118F040401804EB8000D0F8300114
:1046C0004168C908C9000646A1EB080A09E0084686
:1046D0004168C908C900A1EB080151453CBF8A46A1
:1046E000064601690029F2D140690028F0D120690D
:1046F0008642C0F0C4807068C00808EB0A09C00098
:1047000008EB060B484518BF04F063FF5E4580F0D8
:10471000B680F768B569B7420CD0B06821698842A5
:1047200023D3C168B14204BFB968B1421DD1C7608B
:10473000B8601CE006F11400076837B906F11000F4
:104740000768A7B101E00846076807F114010A6885
:10475000002A02BF07F110010A68002AF3D121697B
:10476000884202D30021016001E004F032FF002DF5
:1047700034D0F06904EB800000F5987001688E4237
:1047800009D10760380011D1F269606801219140B8
:104790008843606022E02069854205D32869B042E1
:1047A00014BF6F612F6101E004F013FFB7B12069FE
:1047B000874211D3BD61306930B12169884226BF7B
:1047C0003861876104F005FF706938B1216988425A
:1047D00002D37861876101E004F0FBFEBAF1100FAB
:1047E00009D249F00300706009EB0600416841F00E
:1047F000010141603FE048F0030070604AF00100B1
:10480000CBF804004AF80BA0D4F808804FEAD8058A
:10481000202D28BF04F0DDFEB8F1000F27D0D4F81A
:104820001490009504EBC50000F128052F46B8F15F
:10483000100F38BF04F0CDFE2068009920FA01F275
:10484000D10705D4009A012191400843206006E079
:10485000A868216988422CBF074604F0BAFEC5F853
:104860000890C7F80C90C9F80870C9F80C50C4F843
:1048700008A0C4F814B006F10800BDE8F28F04F0F7
:10488000A8FE0020BDE8F28F2DE9F04F83B0054669
:10489000C046C046F52DDFF8B84780F002810B2DE9
:1048A00031BF102705F10B00C708FF002068FE0884
:1048B000F04010F0030F42D0C04300F00100861911
:1048C00004EBC60000F12808F700D8F80850686823
:1048D000C008C000B84218BF04F07BFED5F80890AD
:1048E000454508BF04F075FE4D4508BF04F071FE54
:1048F0006868C008C000B84218BF04F06AFEC84526
:1049000005D120680121B140884320600DE0206975
:10491000814508D3D9F80C00A84204D1C8F8089002
:10492000C9F80C8001E004F054FE47F00300686011
:1049300078190835416841F001014160F9E0A1684A
:10494000B94280F0C080002800F0A280012505FA5D
:1049500006F149004A42B040114308404142084034
:10496000401E010B01F01001C840420902F008028C
:10497000D040830803F00403D840460806F002063E
:104980005118F0405918C0F340087118414420FAFA
:1049900008F000EB010804EBC80000F128094FEA19
:1049A000C80AD9F808607068C008C000504518BF30
:1049B00004F00FFED6F808B04E4508BF04F009FE1B
:1049C0005E4508BF04F005FE7068C008C000504591
:1049D00018BF04F0FEFDD94505D1206805FA08F19D
:1049E000884320600DE02069834508D3DBF80C0084
:1049F000B04204D1C9F808B0CBF80C9001E004F043
:104A0000E8FD47F003007060AAEB0708B8190190B1
:104A100048F0010001994860019848F80080A768B3
:104A20004FEAD70ABAF1200F28BF04F0D2FD47B3EE
:104A3000CDF800A004EBCA00D4F8149000F1280AC5
:104A4000D346102F38BF04F0C4FD2068009920FA27
:104A500001F2D10705D4009905FA01F1084320605D
:104A600007E0DAF80800216988422CBF834604F089
:104A7000B0FDCAF80890CBF80C90C9F808B0C9F896
:104A80000CA0C4F8088006F108050198606150E0A8
:104A90006068C0B339462046FFF7EEFD050012D02E
:104AA00047E015F1400F28BF4FF0FF370BD205F15B
:104AB0000B00C7086068FF0028B139462046FFF7A1
:104AC00013FC050035D1A068B8421CD3C11B626934
:104AD00010290AD3B8186061A16041F00103436056
:104AE000095047F0030050600AE00021A1606161B5
:104AF00040F0030151608018416841F001014160BC
:104B000002F1080515E0E06887420DD2C01BA169DB
:104B1000E0607A18A26140F00100506001F10805E0
:104B200047F00300486004E039462046FFF712FAD8
:104B30000546C046C046284603B0BDE8F08F00B920
:104B400070472DE9F047A0F10804C046C046DFF8E1
:104B5000005528698442C0F07482616801F0030244
:104B6000012A00F06E82CA084FEAC208CA0708EBA1
:104B7000040936D4226811F0030F00F06482A41AED
:104B800084429044C0F05D8269698C4200F0D88014
:104B9000D608202E70D2D4F80CA0A768544508BFC0
:104BA00004F017FDBC4208BF04F013FD6068C008A4
:104BB000C000B0EBC60F18BF04F00BFD05EBC6003C
:104BC00000F128018F4205D029698F4251D3F9683D
:104BD000A1424ED1BA453DD128680121B140884358
:104BE00028604C4580F02D82D9F80400C10740F1BF
:104BF0002882810700F17A81A969894540F0B58052
:104C0000E868AC614044E86040F0010161606969B6
:104C10008C4202D100216961A960E969814280F07A
:104C20001282DFF83004006808B9FEF7AAFFA9690C
:104C3000002900F00882E868292824BF2846FEF7EA
:104C400093FFE869E968884280F0FD814FF0FF300A
:104C5000E861F8E12830824506D02869824508D30A
:104C6000DAF80800A04204D1C7F80CA0CAF808700E
:104C7000B7E704F0AEFCB4E7E768A669A7420BD03B
:104C8000A168814222D3C868A04204BFB868A0428C
:104C90001CD1CF60B9601BE004F114010F6837B973
:104CA00004F110010F689FB101E011460F6807F190
:104CB00014021368002B02BF07F110021368002BC7
:104CC000F3D1814202D30020086001E004F081FCAE
:104CD000002E86D0E06905EB800000F59870016831
:104CE0008C4209D10760380011D1E269686801215E
:104CF00091408843686074E72869864205D330692B
:104D0000A04214BF7761376101E004F062FC002F1C
:104D10003FF467AF28698742ABD3BE61216929B1EF
:104D2000814226BF39618F6104F053FC606900281D
:104D30003FF457AF296988429BD37861876150E778
:104D400099F8040000F0030003287FF44AAFC5F887
:104D50000880D9F8040040084000C9F8040048F071
:104D60000100606048F804806DE16969894508D1F7
:104D7000A8686C614044A86040F001016160005186
:104D800061E1C008C0004FEAD00ABAF1200F8044A8
:104D900036D2D9F80C70D9F80860B94508BF04F0CC
:104DA00018FCB14508BF04F014FCD9F80400C00891
:104DB000C000B0EBCA0F18BF04F00BFC05EBCA0033
:104DC00000F128018E4206D029698E42C0F0818010
:104DD000F16849457DD1B74206D12868012101FA21
:104DE0000AF18843286076E02830874205D0286998
:104DF00087426ED3B86848456BD1F760BE606AE001
:104E0000D9F80C70D9F818604F450DD0D9F80800C2
:104E10002969884223D3C168494504BFB968494517
:104E20001DD1C760B8601CE009F11400076837B9EC
:104E300009F110000768A7B101E00846076807F10B
:104E400014010A68002A02BF07F110010A68002A4B
:104E5000F3D12969884202D30021016001E004F006
:104E6000B8FB002E37D0D9F81C0005EB800000F508
:104E70009870016889450AD10760380012D1D9F8C5
:104E80001C206868012191408843686023E02869FC
:104E9000864205D33069484514BF7761376101E028
:104EA00004F097FBBFB12869874212D3BE61D9F8DD
:104EB000101029B1814226BF39618F6104F089FB4E
:104EC000D9F8140038B12969884202D37861876122
:104ED00001E004F07EFB48F00100606048F80480C7
:104EE000686984420BD1C5F80880ACE040084000F6
:104EF000C9F8040048F00100606048F804804FEAF7
:104F0000D807202F22D205EBC70000F128094E4612
:104F1000B8F1100F38BF04F05CFB286820FA07F1E5
:104F2000C90704D40121B9400843286007E0D9F833
:104F30000800296988422CBF064604F04AFBC9F8DC
:104F40000840F460A660C4F80C907CE05FEA18208A
:104F500008BF002123D0B0F5803F28BF1F211ED2FB
:104F6000A0F58071090C01F008018840A0F580527D
:104F7000120C02F004029040A0F580431B0CC1F11A
:104F80000E0103F00203891AC91A984001EBD030D0
:104F9000C11D28FA01F202F0010101EB40010022DB
:104FA00062612261E16105EB81006A6822FA01F326
:104FB000DB0700F5987006D4012303FA01F11143D1
:104FC000696004601CE000681F290EBF00214908C9
:104FD000C1F1190108FA01F100E010464268D20857
:104FE000D200424510D0CA0F00EB820202F110033A
:104FF00049001A68002AF0D129698B4211D31C603C
:10500000A061E460A4600EE02A698168904228BF34
:10501000914206D3CC608460E060A1600020A06172
:1050200001E004F0D6FA286A401E28620BD1D5F8B8
:10503000C80100E080680028FCD14FF0FF302862F2
:1050400001E004F0C6FAC046C046BDE8F0870000A3
:10505000282F0020103400205FF0FF0C1CEAD051F4
:1050600014BF614506E0C110400721F0E04101F1A5
:105070006051704779B900F0004100020AD0B0FADF
:1050800080FC00FA0CF001F16051A1EB0C5101EB36
:10509000D0214005704741020CBF40F4E0016FF0A1
:1050A00000010020704700000CB41CB5044604A8A1
:1050B00001900A46009401AB6946074878441830CD
:1050C00001F0E4FD009A0021117000285CBF0098F7
:1050D000001B16BC5DF80CFB9BE9FFFF80B50022AE
:1050E000002104F041FB41EC100B01BD4FEAF17CC3
:1050F000BCF1E04C2CBFBCF5001F11E05FEA4C0C8A
:1051000034BFBCF17F5F2EE05FEA9C0C4FEA0C1CC1
:105110004FEA3C0CC10071F100414CEB50707047FC
:10512000C90241EA5051C00218BF41F0010141F0EB
:1051300000414FEA6C50C0F10900212810D240EA2A
:10514000CC7CCCF1200C11FA0CF070F10040CCF1C9
:10515000200C21FA0CF00CF0004C40EB0C007047D6
:105160004FEACC707047490011F5001F04D84FEA90
:10517000CC10FF30C0057047C81770474FF4001CB3
:105180001CEB410F94BF1CEB430F09E041EA030CF9
:1051900050EA4C0C52EA0C0C03D2994208BF9042E0
:1051A000704714BF8B42824270470A22002104F0EC
:1051B0007FBB00004FF4001C1CEB410F94BF1CEBA5
:1051C000430F09E041EA030C50EA4C0C52EA0C0C84
:1051D00003D28B4208BF8242704714BF994290426B
:1051E000704780B5002204F0BFFA41EC100B01BDFE
:1051F00080B500220221272004F0ECFB272004F0D8
:10520000FAFB01BD80B5002000905B48006850F0BB
:105210000200594908605848006810F002000090E8
:1052200000985648564908604FF416505449486053
:1052300000205349886000205149C860002050492F
:1052400008610C204E49486100204D4988610020CA
:105250004B49C8614A48FDF7E1FFFFF7C9FF01BDAF
:1052600038B504000D006420FDF716FF01224FF44D
:105270008071444804F0DDFC4FF6FF73EDB22A0064
:1052800092B221003E48FEF704F800280DD13C48B8
:10529000006800684006FAD500203B4908800022DB
:1052A0004FF48071374804F0C4FC0520FDF7F4FE8C
:1052B00031BD10B500246420FDF7EEFE33480068D0
:1052C000022190FBF1F202FB1102002A15D102200B
:1052D0002F49087003202E49487002202C498870FD
:1052E00000202B49C870002029490871FC2028495A
:1052F000487144202649887114E00220244908702E
:105300000320234948700220214988700320204946
:10531000C87000201E490871FC201D494871B42046
:105320001B49887119480068401C1849086007200B
:10533000154908801748FDF75FFF0A211448FDF75B
:1053400018FD11480488A4B2002C02D11248FDF7C0
:1053500053FF0D4800881149088000200A49088041
:105360000520FDF799FEA4B221000D48FDF744FF8A
:10537000200080B210BD00003038024000480040DC
:1053800040330020001C024052340020283400200A
:10539000BC3300202CD300083CD30008E8010020D7
:1053A0004CD3000810B50400002C01D101204FE0BF
:1053B00094F91D00002804D100202077200004F07B
:1053C000B7FD02206077CA20216848625320216817
:1053D0004862200000F0B6F9002806D0FF202168BE
:1053E000486204206077012032E020688068DFF89E
:1053F0001413084021688860206880686168226909
:10540000114362691143084321688860E06821689C
:10541000086120680069A16850EA014021680861BC
:105420002068C06830F080002168C8602068006C87
:1054300030F48020216808642068006CA16908436A
:1054400021680864FF2021684862012060770020FD
:1054500010BDF8B504000D00002694F91C000128C9
:1054600001D102207DE00120207702206077002A10
:105470001BD120688068400601D40020E87028789D
:1054800000F07CF90600687800F078F90700A87849
:1054900000F074F9F6B2FFB2390251EA0641C0B227
:1054A0000843E97850EA014614E020688068400625
:1054B00004D5287800F06DF9060001E00020E870BE
:1054C00028786978090251EA0040A9780843E97808
:1054D00050EA0146CA202168486253202168486288
:1054E000200000F02FF9002808D0FF202168486232
:1054F0000420607700202077012032E0DFF80802E6
:105500003040216808602068806830F4802021687D
:10551000886020688068E9682A6911430843216827
:1055200088602068C06830F080002168C86020680A
:10553000806880060DD4200000F0EAF8002808D02A
:10554000FF20216848620420607700202077012036
:1055500007E0FF2021684862012060770020207763
:105560000020F2BD10B50C0000210168896A61605D
:10557000016809694904490CA16000680068DFF806
:1055800088110140080C10F03F002070080A10F04C
:105590007F00607011F07F00A070080C10F04000D8
:1055A000E070002A0BD1207800F0F3F820706078CA
:1055B00000F0EFF86070A07800F0EBF8A070002029
:1055C00010BDF8B504000D00002694F91C00012858
:1055D00001D1022070E00120207702206077002AAC
:1055E00007D16878C00604D5687810F0EF000A305B
:1055F0006870002A15D1E87800F0C0F806006878D5
:1056000000F0BCF80700A87800F0B8F8F6B2FFB2D6
:10561000390251EA0641C0B20843297850EA4136BE
:1056200011E0687800F0B5F80600A87800F0B1F84D
:105630000600E8786978090251EA0040A978084331
:10564000297850EA4136CA202168486253202168EF
:105650004862200000F076F8002808D0FF2021687A
:1056600048620420607700202077012024E0DFF8E2
:105670009C003040216848602068C06830F080009D
:105680002168C8602068806880060DD4200000F082
:105690003FF8002808D0FF20216848620420607786
:1056A00000202077012007E0FF20216848620120C8
:1056B0006077002020770020F2BD10B50C0000219B
:1056C00000684068DFF844100140080CE070080AE8
:1056D00010F01F00607011F03F00A070480B10F038
:1056E00007002070002A0BD1E07800F052F8E0703B
:1056F000607800F04EF86070A07800F04AF8A07072
:10570000002010BDBFFF8FFF7F7F7F003FFFFF00A6
:1057100038B5040000252068C06830F0A00021687A
:10572000C86002F0D2FC05002068C068800607D47B
:1057300002F0CBFC401BB0F57A7FF5D9032000E0E6
:10574000002032BD38B5040000252068C06840063E
:1057500012D45FF0FF302168C86002F0B6FC05008B
:105760002068C068400607D402F0AFFC401BB0F5CB
:105770007A7FF5D9032000E0002032BD002101E04E
:10578000491C0A38C0B20A28FAD250EA0110C0B245
:10579000704700210100C9B20909C9B20A22514368
:1057A000C0B210F00F004018C0B27047F446400D70
:1057B00040EAC120490006D200F014F8004248BF78
:1057C0006FF00040604700F00DF84FF00041884254
:1057D0008CBF084640426047400D40EAC120490066
:1057E00080F00D8040F00040490DA1F58061491C1A
:1057F00005D4D1F11F0154BFC840C01770474FF006
:1058000000007047F0B44FF0004591EA030F44BF29
:105810006B4000F025BB00BF841A71EB030604D275
:105820006E40001BB141121973414FF4001C1CEB78
:10583000410F34BF7CEB430684E00C0DA4EB135600
:10584000362E7DDC012E43DC45EAC32343EA525366
:1058500012BFD20292025B08240545EAC12141EA47
:105860005051D2EBC020994125D407D1B0FA80F62F
:1058700010FA06F164D00020203608E0B1FA81F673
:10588000B140C6F1200220FA02F21143B0404FEAC3
:10589000F474B4EB465434F001064FEA74040AD8A9
:1058A000D6F50016760D04F00044F04061FA06F2D9
:1058B0005040F1404840C00A40EA415021F00041C8
:1058C00028BF5FEA500550F1000044EBD12137E0DA
:1058D00045EAC323DB0A45EAC121C90AB6F120051E
:1058E0000EDD42EA0242120CC5F1200603FA06F66A
:1058F000EB4042EA06056D42984161F100010DE07E
:1059000062FA06F5F240554063FA06FC82EA0C02A0
:10591000F3405A406D42904161EB030111F4801F46
:1059200005D1641E620502D06D004041494121F459
:105930008011430875F1004350F1000041EB045120
:10594000F0BC70471CEB410F15D223F0004352EA24
:1059500043060BD04FEA4C0CBCEB410F04D80C0DA6
:10596000661E342EB7DDEBE7801A994150EA4106F6
:1059700008BF0021E4E708BF1CEB430F28BF6FF00E
:105980000001DDE7B0B581EA030C0CF0004C40F2F9
:10599000FF7515EA11541DBF15EA1357AC42AF420B
:1059A00039E0E41923EA455343F48013C90241F076
:1059B000004141EA505EC7021100A7FB0202002825
:1059C0004FF00000EEFB01204FF00001E3FB072148
:1059D00018BF42F00102401800214941E3FB0E01CB
:1059E000A4F580640F0302D252004041494154F1B2
:1059F00001046CDD470872F1004250F1000051EBE8
:105A00000451A1F580115CBF41EA0C01B0BD4CEA24
:105A100005510020B0BD05EA1357AC4214BFAF4298
:105A200041E050EA410E1CBF52EA430E02E06146DB
:105A30000020B0BD24423C441BD15FEA070EF6D0E3
:105A4000090302BF01460020AEF1140EB1FA81F73E
:105A5000AEEB070401FA07FE0C37C7F1200100FA8C
:105A600007F7C8404EEA000E23EA455343F480137B
:105A7000A2E733F00043B3FA83F704BFB2FA82FE21
:105A800077440B3FE41BB7F1200E2FBF02FA0EF351
:105A9000BB40C7F1200E22FA0EFE38BF43EA0E03C8
:105AA000BA40641C82E750EA410E14BF52EA430E2A
:105AB0006FF000014FF4001717EB430F8ABF194630
:105AC00017EB410FB5E74CEA05510020B0BDD4F10A
:105AD0000104B4F120070FDAC4F12007520828BFEF
