:020000040800F2
:10000000F011002059D40008FDBF0008FFBF000810
:100010000DC000081BC0000829C000080000000037
:1000200000000000000000000000000037C00008D1
:1000300039C00008000000003BC0000849C00008AB
:10004000FDD4000801D5000805D5000809D5000831
:100050000DD5000855C0000811D5000815D50008B9
:1000600019D500081DD5000821D5000825D50008A0
:1000700029D500082DD5000831D5000835D5000850
:1000800039D500083DD5000841D5000845D5000800
:1000900049D500084DD5000851D50008A9C0000871
:1000A00055D5000859D500085DD5000861D5000870
:1000B00065D5000869D500086DD5000871D5000820
:1000C00075D5000879D500087DD5000881D50008D0
:1000D00085D5000857C0000889D5000861C0000810
:1000E00095C000088DD5000891D5000895D5000869
:1000F00099D500089DD50008A1D50008A5D5000810
:10010000A9D50008ADD50008B1D50008B5D50008BF
:10011000B9D50008BDD500086BC00008C1D50008DE
:10012000C5D50008C9D50008CDD50008D1D500082F
:10013000D5D50008D9D50008DDD50008E1D50008DF
:10014000E5D50008E9D50008EDD50008F1D500088F
:10015000F5D50008F9D50008FDD5000801D600083E
:1001600005D6000809D600080DD6000811D60008EB
:1001700015D6000819D600081DD60008000000009A
:1001800021D6000825D60008BFF34F8FDFF8100AEC
:10019000006810F4E060DFF80C1A0843DFF8001A7A
:1001A0000860BFF34F8F00BFFDE780B5DFF8F809A7
:1001B00003F078F8002000F073F9012000F070F9E6
:1001C000022000F06DF9032000F06AF9042000F02D
:1001D00067F9052000F064F9062000F061F90720B6
:1001E00000F05EF90020DFF8C41908700020DFF885
:1001F000C01908700020DFF8BC1908700020DFF873
:10020000B81908704FF47A730122A0A1DFF8AC0985
:1002100003F095F801BD38B5DFF8A40903F042F802
:10022000002400259AA1DFF89C0903F031FC0400AA
:1002300097A1002003F02CFC05002A002100DFF824
:10024000880903F02FF894F900003138052805D308
:1002500094F90010DFF8740903F024F88DA1280048
:1002600003F03CFC002804D194F9000001F0ACFB41
:100270000FE089A1280003F031FC002804D194F993
:10028000000001F079FA04E02900DFF8440903F0E6
:1002900009F831BD2DE9F047ADF5BC6DDFF8340943
:1002A00003F000F8FAA84FF4FA7103F03DFC5FF098
:1002B000000A002400255FF0000868464FF47A71B8
:1002C00003F032FC00265FF030090127DFF8F41854
:1002D000684603F02DFC684603F04CFC8046B8F1FC
:1002E0000B0FC0F2CE80002000F0DAF8012000F001
:1002F000D7F8022000F0D4F8032000F0D1F8042051
:1003000000F0CEF8052000F0CBF8062000F0C8F889
:10031000072000F0C5F80020DFF8901808700020D2
:10032000DFF88C1808700020DFF8881808700020AB
:10033000DFF8841808700020DFF89C18087057A1B7
:10034000684603F0A5FB8246BAF1000F78D0761C10
:100350005146FAA803F0ECFB9DF9E893504603F0F0
:1003600009FC45196D1C4DA16846281803F090FB47
:100370008246454501DB5FF0000A4FFA89F9B9F181
:10038000300F10D043D3B9F1320F18D011D3B9F1D7
:10039000340F20D019D3B9F1360F2CD021D3B9F1B5
:1003A000370F2ED033E0FAA9002000F02BFC040018
:1003B00035E0FAA9012000F025FC04002FE0FAA99D
:1003C000022000F01FFC040029E0FAA9032000F03D
:1003D00019FC040023E0FAA9042000F013FC040037
:1003E0001DE0FAA9052000F00DFC04000120DFF853
:1003F000E817087013E0FAA9062000F003FC0400D7
:100400000DE0FAA9072000F0FDFB040007E000273B
:100410004FFA89F94946DFF8C40702F043FF14F1A7
:10042000010F91D14FFA89F94946DFF8B40702F07C
:1004300039FFFFF7BAFE0120DFF8A817087020E0A7
:10044000012E0FDB002F0DD0DFF89C0702F02AFFF2
:100450000120DFF8641708700020DFF888170870A3
:1004600002F0FCFC312001F0AFFA322001F0ACFACE
:10047000332001F0A9FA342001F0A6FA352001F06A
:10048000A3FA0DF5BC6DBDE8F08700005B0000002D
:100490002C00000030000000310000003B00000094
:1004A00038B5040000250020052C40F0B980002458
:1004B000AEE01E210022DFF834074FF4BC7303FBCB
:1004C0000405280003F072FB0020DFF820174FF42A
:1004D000BC7202FB041188770020DFF810174FF47C
:1004E000BC7202FB041108625FF0FF30DFF8FC16FB
:1004F0004FF4BC7202FB041188620020DFF8EC1696
:100500004FF4BC7202FB041148620020DFF8DC16D5
:100510004FF4BC7202FB041108644FF47A70DFF8E8
:10052000CC164FF4BC7202FB0411C1F858010A2129
:100530000022DFF8B8064FF4BC7303FB040010F58B
:10054000A475280003F032FB0020DFF8A0164FF45A
:10055000BC7202FB0411C1F85C0178210022DFF8B3
:100560008C064FF4BC7303FB040010F1BC0528009B
:1005700003F01CFB0A210022DFF870064FF4BC7365
:1005800003FB040010F59F75280003F00FFB782192
:100590000022DFF858064FF4BC7303FB040010F18F
:1005A0004405280003F002FB0A210022DFF83C0684
:1005B0004FF4BC7303FB040010F14405280003F062
:1005C000F5FA0020DFF824164FF4BC7202FB041188
:1005D000C1F86001DFF814064FF4BC7101FB0400A0
:1005E00000220023C0E95A23DFF800064FF4BC7153
:1005F00001FB040000220023C0E95C230020DFF897
:10060000EC154FF4BC7202FB0411C1F85401641CD8
:10061000052CFFF64EAFDFF8D80502F043FE76E07A
:10062000062C00DB641EDFF8CC05482101FB04002A
:1006300000220023C0E90623DFF8B805482101FBAA
:10064000040000220023C0E904230020DFF8A415E1
:10065000482202FB041108600020DFF898154822A8
:1006600002FB04110863DFF88C05482101FB04003C
:1006700000220023C0E90823DFF87805482101FBA8
:10068000040000220023C0E90A230020DFF86415DB
:10069000482202FB04114864DFF85805482101FB99
:1006A0000400002141630020DFF84815482202FBC6
:1006B000041188630620DFF83C15482202FB041170
:1006C000C8630020DFF82C15482202FB041181F8D2
:1006D0004000DFF82005482101FB0400456C002D97
:1006E00010D0D5F890500020DFF80815482202FB02
:1006F0000411486404E02800D5F8905004F075FA1D
:10070000002DF8D12100DFF8080E02F0CBFD31BD3D
:10071000F8B52DED028B94B0DFF8DC0402F0C2FDD9
:100720000FA8142103F000FA9FED5C8A0025002435
:10073000002602A8342103F0F7F900274FF47A735A
:10074000012257A1DFF8740402F0F9FD002439E01A
:1007500097ED148A39000FA803F0EAF9019000958B
:1007600018EE100A04F0CEFC02000B00DFF88C1427
:1007700002A804F0EFFC0FA80190009518EE100AF3
:1007800004F0C0FC02000B00DFF8740402F08AFDE4
:1007900002A803F0EFF94FF47A73020092B202A9B3
:1007A000DFF8180402F0CBFD00203865D7F8907010
:1007B000761CDFF84004482101FB040000688642F3
:1007C000C6DB641C072C59DADFF82804482101FB3A
:1007D000040000680128F4DBDFF81804482101FB5D
:1007E0000400476CDFF8300D282101FB0400056888
:1007F000052D00DB6D1CDFF8200D282101FB040016
:1008000090ED098A009518EE100A04F07BFC0200B6
:100810000B00DFF8081D02A804F09CFC009518EE00
:10082000100A04F06FFC02000B00DFF8F40C02F079
:1008300039FD02A803F09EF902004FF47A7392B2D8
:1008400002A9DE4802F07BFD052C15D118EE100A36
:1008500004F058FC02000B00DFF89803482101FB6C
:1008600004004169006904F08FFC05D8DFF8B40C7E
:1008700002F018FD00F001FF00269AE74FF47A73AA
:10088000012208A1CD4802F05AFDDFF8180E02F04F
:1008900009FD14B0BDEC028BF1BD000000000000AA
:1008A00023000000250000002DE9F8432DED028B08
:1008B0008AB000265FF000099FEDB78A5FF000085C
:1008C000002505A8142103F02FF902A80021002219
:1008D00000230EC00C380027DFF84C0C02F0E2FCBD
:1008E00000244EE0C348482101FB040090ED000ABB
:1008F000B8EEC00A88EE008A18EE100A04F002FC76
:1009000002000B00DFF8241C02A804F023FC02A85C
:1009100004F051FC51EC100B04F056FCB549482290
:1009200002FB0411886002A804F045FC51EC100B96
:1009300004F04AFCDFF8E01B282202FB04114862A5
:10094000AC48482101FB0400806B002805D1A94870
:10095000482101FB040080ED0D8AA648482101FBD7
:100960000400806B401C032190FBF1F201FB12009C
:10097000A049482202FB0411886300259FED868A66
:10098000641C072C80F203819FED838A99484821DB
:1009900001FB0400466C002E1BD1F1E700203065FE
:1009A00096ED140AB5EE400AF1EE10FA03DD96ED6D
:1009B000140A38EE008A706D804502DAD6F8548049
:1009C000B146706D4519002070650020B065D6F8FD
:1009D0009060002E77D0B06D0190706D0090306DFA
:1009E00004F090FB02000B00611CDFF8300D02F0F8
:1009F00059FCB06D716D0818012820DBB06D00281E
:100A000002D0706D15281ADBDFF8140D3065320046
:100A100062A105A804F09EFB05A803F0ABF84FF413
:100A20007A73020092B205A9644802F088FC320091
:100A30002100DFF8340D02F035FC7F1CB0E7B06D0B
:100A40000128ABDB96ED160AB8EEC00AD6ED140A03
:100A500080EE800A86ED140A306D04F053FB02002C
:100A60000B006448482101FB0400416A006A04F05D
:100A7000F3FB0BD3306D04F045FB5E4A482303FBC8
:100A80000422D36A926A04F0E7FB89D259484821CC
:100A900001FB040090F8400000280BD15548482184
:100AA00001FB0400006B401C5249482202FB041168
:100AB000086375E732002100DFF8B00C02F0F2FBAA
:100AC00000F0DBFD6CE74B48482101FB0400006BA4
:100AD0004849482202FB04110968884206D045486B
:100AE000482101FB0400006B03280CDB414848212E
:100AF00001FB0400026B2100DFF8740C02F0D2FB52
:100B000000F0BBFD21E03B48482101FB04000068E8
:100B1000874215D12100DFF85C0C02F0C3FB00F026
:100B2000ACFD32483349482202FB0411C96B4FF433
:100B3000BC7202FB010090F91E0000F0B5FD04E05C
:100B40002100DFF8440D02F0ADFB00270020294909
:100B5000482202FB04110863DFF8BC09282101FBCD
:100B6000040004600B2DFFF6BDAEDFF8AC092821B0
:100B700001FB0400DFF8141D41624946DFF89809C3
:100B8000282202FB0400001D02F0D2FFD8E60AB0C2
:100B9000BDEC028BBDE8F18300000000212573004D
:100BA0000CED00E00400FA0588D000086B3400204A
:100BB0006C3400207734002066340020C0320020DE
:100BC000A4D0000848290020C8CA0008ECCA0008C0
:100BD000B0C9000848CE00086734002068CE00087D
:100BE00088CE000878340020C0D00008F021002012
:100BF000A8CE0008302D00203CD2000874D4000894
:100C0000C8CE00082DE9F8432DED068BADF50C7D1F
:100C1000040088465FF00009002568464FF40C7117
:100C200002F082FF00260026002500209FEDA28B07
:100C30009FEDA19B9FEDA08B9FED9FAB0027A0A1F7
:100C4000404602F025FF814609E09DA1002002F008
:100C50001FFF81466846F6B240F82690761CB9F12F
:100C6000000FF2D1F6B20A2E0CDA052C0AD0F6B239
:100C700032002100DFF8440D02F014FB5FF0FF307A
:100C800000F03FBC052C40F07182009804F0FBFAA4
:100C9000050000264EE0DFF8282D4FF4BC7303FB5F
:100CA000072212EB81026B46F6B25FF0050C0CFBDB
:100CB00006FC13EB8C031B69CB56303B9362DFF8C9
:100CC000002D4FF4BC7303FB072212EB8102926AE2
:100CD000062A12DBDFF8E82C4FF4BC7303FB072273
:100CE00012EB8102DFF8D83C4FF4BC7C0CFB0733DD
:100CF00013EB81039B6A5B1E9362DFF8342EDFF8EF
:100D0000C03C4FF4BC7C0CFB073313EB81039B6AA4
:100D10005FF0480C0CFB0322D763491CC0B2814230
:100D2000B9DB0020DFF8981C4FF4BC7202FB0711FE
:100D30000862761CF6B2EDB2AE4280F015826846CB
:100D4000F6B2052101FB06F110EB8100806890F9F5
:100D50000000B0F131076846F6B2052101FB06F14B
:100D600010EB81004168DFF8580C4FF4BC7202FBB5
:100D7000070002F0DDFE6846F6B2052101FB06F130
:100D800010EB810080680078DFF8341C4FF4BC72EF
:100D900002FB07118877DFF8280C4FF4BC7101FBC8
:100DA000070090F91E00313804280FD3DFF8100C2B
:100DB0004FF4BC7101FB070090F91E202100DFF801
:100DC000040C02F06FFA5FF0FF309AE36846F6B267
:100DD000052101FB06F110EB8100406904F0EBF9FD
:100DE000DFF8DC0B4FF4BC7101FB070080ED5C0BFE
:100DF000DFF8CC0B4FF4BC7101FB0700D0F8741185
:100E0000D0F870010022002304F026FA0FD3DFF897
:100E1000B00B4FF4BC7101FB0700D0F87411D0F88F
:100E200070010122DFF8B43C04F0AEF90FD8DFF80E
:100E3000900B4FF4BC7101FB0700D0E95C2321004B
:100E4000DFF89C0C02F02EFA5FF0FF3059E36846A1
:100E5000F6B2052101FB06F110EB8100C06804F039
:100E600012FADFF85C1B4FF4BC7202FB0711086436
:100E7000DFF84C0B4FF4BC7101FB0700006C052838
:100E80003FF457AFDFF8380B4FF4BC7101FB07009C
:100E9000006C401E072815D3DFF8240B4FF4BC71FB
:100EA00001FB0700026C2100DFF88C0C02F0FAF95C
:100EB0005FF0FF3025E300BF0000000000000000ED
:100EC0002C000000DFF8F80A4FF4BC7101FB0700AA
:100ED000006C042870D16846F6B2052101FB06F1CA
:100EE00010EB8100006902F045FEE2A16846F6B20F
:100EF000052202FB06F210EB8200006902F0C8FD39
:100F000080465FF00109002088F805004146DFF8BF
:100F1000B00A4FF4BC7202FB070010F59A7002F0A1
:100F200007FE18F10601DFF8980A4FF4BC7202FBC5
:100F3000070010F59F7002F0FBFD4146DFF8800AC4
:100F40004FF4BC7202FB0700443002F0F1FD18F1CF
:100F50000601DFF86C0A4FF4BC7202FB0700BC30DC
:100F600002F0E6FDB8F1000F3FF4DBAEC1A10020B6
:100F700002F08EFD8046002088F805004146DFF82B
:100F8000400A4FF4BC7202FB07000A2202FB090070
:100F9000443002F0CDFD18F10601DFF8240A4FF4C9
:100FA000BC7202FB07000A2202FB0900BC3002F0FF
:100FB000BFFD19F10109D5E7DFF8040A4FF4BC7150
:100FC00001FB0700006C03282FD16846F6B205210B
:100FD00001FB06F110EB81000069002141716846B8
:100FE000F6B2052101FB06F110EB81000169DFF883
:100FF000D0094FF4BC7202FB070010F5A47002F098
:1010000097FD6846F6B2052101FB06F110EB810061
:101010000069811DDFF8A8094FF4BC7202FB0700CC
:1010200010F59F7002F084FD7BE6DFF894094FF421
:10103000BC7101FB0700006C062874D1DCA1684676
:10104000F6B2052202FB06F210EB8200006902F004
:101050001FFD8146484602F08DFDC0B2082809DB1D
:10106000C0B202002100DFF8840C02F01BF95FF02F
:10107000FF3046E2C0B2DFF848194FF4BC7202FB01
:101080000711486200213AE0DFF834294FF4BC73BD
:1010900003FB072212EB810211F90930303B936206
:1010A000DFF81C294FF4BC7303FB072212EB81020B
:1010B000926A062A12DBDFF808294FF4BC7303FB9F
:1010C000072212EB8102DFF8F8384FF4BC7C0CFBEE
:1010D000073313EB81039B6A5B1E9362DFF8502A90
:1010E000DFF8DC384FF4BC7C0CFB073313EB8103D7
:1010F0009B6A5FF0480C0CFB0322D763491CC0B20B
:101100008142C1DBAAA1002002F0C2FC8146484610
:1011100004F051F8DFF8A8084FF4BC7101FB070098
:1011200080ED5A0BFDE56846F6B2052101FB06F19C
:1011300010EB8100006902F01DFDC0B2082809DB38
:10114000C0B202002100DFF8A40B02F0ABF85FF0A0
:10115000FF30D6E1C0B2DFF868184FF4BC7202FB72
:10116000071148620021D9E50020CAE1062C00DB06
:10117000641EDFF8BC09482101FB040044600098AC
:1011800004F081F8DFF8A819482202FB0411086076
:10119000DFF89C09482101FB04000068001E0B28B1
:1011A0000DD3DFF88C09482101FB040002682100FF
:1011B000DFF8700C02F076F85FF0FF30A1E100215B
:1011C000019804F064F8B0EE408AF0EE608A0021E5
:1011D000029804F05CF8B0EE409AF0EE609A51ECA0
:1011E000190B53EC182B04F037F80BD28DED008B54
:1011F00053EC192B2100DFF8300C02F053F85FF0AC
:10120000FF307EE1DFF82809482101FB040080ED72
:10121000048BDFF81C09482101FB040080ED069BCC
:101220000021049804F033F8B0EE408AF0EE608AB2
:101230000021039804F02BF8B0EE40AAF0EE60AA6B
:1012400051EC190B03F0C0FFDFF8E01B086051EC14
:10125000180B53EC1A2B03F0FFFF0DD28DED00ABF2
:1012600053EC182B2100DFF8C80B02F01BF85FF0DD
:10127000FF3046E12E000000A6A1059802F02EFCEA
:10128000002807D10120DFF8A818482202FB04112A
:1012900081F84000DFF89808482101FB040080ED48
:1012A000088BDFF88C08482101FB040080ED0AABB5
:1012B0000020DFF87C18482202FB0411086300209C
:1012C000DFF86C18482202FB04114864DFF860085C
:1012D000482101FB0400002141630020DFF8501881
:1012E000482202FB0411886300260EE0DFF8400864
:1012F000482101FB0400406CC5F89000DFF830087D
:10130000482101FB04004564761CF6B2DFF8200892
:10131000482101FB04000068864280F2F180982099
:1013200003F008FB05006846F6B2092101FB06F14F
:1013300010EB81008169280002F0FAFB6846F6B2E2
:10134000092101FB06F110EB8100C16915F11E00B6
:1013500002F0EEFB002809D115F11E022100DFF892
:10136000D80A01F09FFF5FF0FF30CAE06846F6B28E
:10137000092101FB06F110EB8100016A15F15C0007
:1013800002F0D6FB6846F6B2092101FB06F110EB2C
:101390008100406A03F077FF0200101E332809D352
:1013A0002100DFF8980A01F07DFF5FF0FF30A8E030
:1013B0007C000000AA666846F6B2092101FB06F12E
:1013C00010EB8100806A03F05EFF011E1F2908D325
:1013D000EA6E2100DFF8680A01F064FF5FF0FF3079
:1013E0008FE0E8666846F6B2092101FB06F110EBD2
:1013F0008100C06A03F047FF011E0A2908D32A6F43
:101400002100DFF8400A01F04DFF5FF0FF3078E087
:1014100028676846F6B2092101FB06F110EB81004E
:10142000016B15F1740002F083FB6846F6B20921E6
:1014300001FB06F110EB8100406B03F0BCFEB0EE47
:10144000408AF0EE608A51EC180B0022002303F072
:1014500003FF07D351EC180B0122DFF8EC3903F03E
:1014600093FE09D8D5E920232100DFF8E00901F037
:1014700019FF5FF0FF3044E085ED208B6846F6B23F
:10148000092101FB06F110EB8100806B03F093FE54
:10149000B0EE408AF0EE608A51EC180B0022002377
:1014A00003F0DAFE07D351EC180B0122DFF8A03964
:1014B00003F06AFE09D8D5E922232100DFF8940958
:1014C00001F0F0FE5FF0FF301BE085ED228B002085
:1014D0006865002028650020A8650020C5F89000F8
:1014E000DFF84C06482101FB0400406C00287FF423
:1014F000FDAEDFF83C06482101FB0400456403E72C
:1015000000200DF50C7DBDEC068BBDE8F2830000DC
:1015100010CB0008310000000031002068D4000822
:10152000DCD00008E8D30008E8CE0008BCD40008EE
:1015300038B500240025DFF8200901F0B3FE0024AF
:1015400010E0DFF8180901F0ADFE00F096F8DFF8C2
:1015500070044FF4BC7101FB050090F91E0000F00F
:10156000A3F8641C072C80F28780DFF8C4054821AB
:1015700001FB0400C56BDFF848044FF4BC7101FBAC
:101580000500006A0128ECD1DFF8A405482101FB21
:101590000400806B0228E4DBDFF824044FF4BC7104
:1015A00001FB0500006C0328DBDADFF88405482125
:1015B00001FB040090ED020ADFF87405482101FBED
:1015C0000400D0ED0D0A30EE600A10EE100A03F0B0
:1015D00099FD31F00041DFF8242CDFF8243C03F0C2
:1015E0003BFEAED3DFF8D8034FF4BC7101FB05001E
:1015F000006C012819D1DFF83805482101FB0400EF
:1016000090ED020ADFF82805482101FB0400D0ED27
:101610000D0A30EE600AB5EE400AF1EE10FA04D57C
:10162000DFF8E00B01F03EFE8FE7E5484FF4BC71B8
:1016300001FB0500006C022819D1DFF8F4044821F1
:1016400001FB040090ED020ADFF8E404482101FBED
:101650000400D0ED0D0A30EE600AB5EE400AF1EE5E
:1016600010FA04DDDFF8A40B01F01CFE6DE7DFF8D3
:10167000A00B01F017FE74E731BD80B5DFF8940BC5
:1016800001F010FEDFF8900B0088642808DA01F002
:1016900027FD01F007FD4FF49670DFF8801B0880EE
:1016A00001BD000054D200083EB5040064B2B4F19C
:1016B000310564B2B4F1310005282DD2C0484FF491
:1016C000BC7101FB0500D0F86001002824D164B290
:1016D0002100DFF84C0B01F0E5FD200040B200F0E6
:1016E00073F90120B6494FF4BC7202FB0511C1F831
:1016F000600164B22200DFF82C1B684603F02AFD6B
:10170000684602F037FA4FF47A73020092B26946E3
:10171000DFF8140B01F013FE37BD000000C1000814
:101720000AD723BC10B540B2B0F1310440B2B0F1D9
:101730003101052916D2A2494FF4BC7202FB0411F3
:10174000D1F8601101290DD140B20100DFF8DC0AA7
:1017500001F0A8FD00209A494FF4BC7202FB04116D
:10176000C1F8600110BD000008CF000834CB0008AC
:10177000D8C9000858CB00082DE9F0418EB004000C
:1017800001A8342102F0D0F9012664B2B4F1300589
:1017900000275FF0000864B2312C07D024D3332C2B
:1017A00010D009D3352C19D012D31DE00821DFF851
:1017B000800A03F0ABFD1EE00821DFF8780A03F091
:1017C000A5FD18E00821DFF8700A03F09FFD12E084
:1017D0000821DFF8680A03F099FD0CE00821DFF822
:1017E000600A03F093FD06E0002664B22100DFF8F2
:1017F000540A01F057FD002E37D0052001F09EFC61
:1018000003F0B0FD070000F00FFFFFB2002F2FD054
:10181000002E2AD00120009064B2230068484FF4C3
:10182000BC7101FB0500B0F5BC72DFF81C1A01A801
:1018300003F090FC01A802F09DF94FF47A730200C6
:1018400092B201A9DFF8E00901F079FD01205C49BD
:101850004FF4BC7202FB0511B1F5AC71086064B2C3
:101860002100DFF8E00C01F01DFD0EB0BDE8F081B5
:1018700018F10108B8F1030F8DDB64B22100DFF825
:10188000CC0D01F00FFDF0E7F8D0000800401CC6B9
:10189000F0B59FB00400002000260025002701A815
:1018A000142102F041F9002206A9DFF89C0C03F094
:1018B0008DFE9DF819309DF81820DFF8901C01A8C6
:1018C00003F048FC01A9DFF8880D4FF4BC7202FB5D
:1018D000040010F59A7002F02BF900226946DFF837
:1018E000680C03F01EFFDFF8680D4FF4BC7101FBBC
:1018F000040010F5A47101A802F01AF98DA102F0FC
:10190000C7F80BE001000BA8142202FB060002F04E
:101910000FF988A1002002F0BBF8761C0028F1D155
:101920000026DFF82C0D4FF4BC7101FB040010F50C
:101930009A7101A802F0FCF87EA102F0A9F80BE070
:10194000010015A8142202FB060002F0F1F879A1AB
:10195000002002F09DF8761C0028F1D11AA803F0AF
:1019600092FC060010A803F08EFC87193C2F07DBC1
:101970003C2097FBF0F53C2097FBF0F100FB117742
:1019800015A803F080FC06000BA803F07CFC80196E
:101990004519182095FBF0F100FB11553B002A007A
:1019A000DFF8A81BDFF8A80C4FF4BC7505FB04009A
:1019B00010F59A7003F0CEFB1FB0F0BD7CCB000891
:1019C000F021002000CA00082DE9F0418EB004008B
:1019D00001A8342102F0A8F8012664B2B4F1300560
:1019E00000275FF0000864B2312C07D024D3332CD9
:1019F00010D009D3352C19D012D31DE00821DFF8FF
:101A0000540C03F083FC1EE00821DFF84C0C03F0BB
:101A10007DFC18E00821DFF8440C03F077FC12E0AD
:101A20000821DFF83C0C03F071FC0CE00821DFF822
:101A3000340C03F06BFC06E0002664B22100DFF8F2
:101A4000280C01F02FFC002E39D0052001F076FB88
:101A500003F088FC070000F0E7FDFFB2002F31D053
:101A6000002E2CD00020009064B22300DFF8E00BA1
:101A70004FF4BC7101FB0500B0F5BC72DFF8C8176C
:101A800001A803F067FB01A802F074F84FF47A7321
:101A9000020092B201A9DFF8900701F050FC00208B
:101AA000DFF8AC1B4FF4BC7202FB0511B1F5AC7151
:101AB000086064B22100DFF8B40B01F0F3FB0EB054
:101AC000BDE8F08118F10108B8F1030F8BDB64B2B7
:101AD0002100DFF8F40C01F0E5FBF0E70088C340DB
:101AE000A8C8000800B587B0002201A9DFF8580A8D
:101AF00003F06CFD00226946DFF84C0A03F011FE8A
:101B00009DF802309DF801209DF8030010F5FA6160
:101B1000DFF85C0B01F0C6FB9DF806309DF8052050
:101B20009DF80410DFF8A40C01F0BCFB07B000BD69
:101B3000302D00203A000000D4C80008F8B5040099
:101B4000002600250027611CDFF8840C01F0AAFBA9
:101B5000DFF8FC0A4FF4BC7101FB0400456A002663
:101B600055E0DFF8EC0A4FF4BC7101FB040010EB08
:101B70008600876ADFF8D406482101FB07008068E9
:101B800003F0C0FADFF8C426482303FB0722536999
:101B9000126903F061FB12D2DFF8B40A4FF4BC7192
:101BA00001FB0400006A002809D1DFF8A40A4FF401
:101BB000BC7101FB040090F91E00FFF7DDFDDFF8AA
:101BC0008C06482101FB0700806803F09BFA0200A5
:101BD0000B00DFF87806482101FB0700C169806926
:101BE00003F03AFB12D2DFF8680A4FF4BC7101FB34
:101BF0000400006A012809D1DFF8540A4FF4BC71CF
:101C000001FB040090F91E00FFF7DEFE761CAE42D9
:101C1000A7DBF1BDF8B50400002600250027611CF4
:101C2000DFF8B00B01F03EFBDFF8240A4FF4BC7183
:101C300001FB0400456A002655E0DFF8140A4FF462
:101C4000BC7101FB040010EB8600876ADFF8FC051D
:101C5000482101FB0700806803F054FADFF8EC2507
:101C6000482303FB07225369126903F0F5FA12D2E5
:101C7000DFF8DC094FF4BC7101FB0400006A0128A5
:101C800009D1DFF8CC094FF4BC7101FB040090F9D5
:101C90001E00FFF799FEDFF8B405482101FB07009D
:101CA000806803F02FFA02000B00DFF8A00548213E
:101CB00001FB0700C169806903F0CEFA12D2DFF898
:101CC00090094FF4BC7101FB0400006A002809D19F
:101CD000DFF87C094FF4BC7101FB040090F91E0091
:101CE000FFF74AFD761CAE42A7DBF1BDC8C600086F
:101CF00030B5ADB0040020A8342101F015FF13A8C1
:101D0000342101F011FF06A8342101F00DFF002558
:101D10000020611CDFF8C00A01F0C4FADFF83009C6
:101D20004FF4BC7101FB040010F59F72DFF820092D
:101D30004FF4BC7101FB040010F5A471DFF89C0A9C
:101D400001F0B0FADFF808094FF4BC7101FB0400A0
:101D500010F59F7113A801F0EBFE36A101F098FE7B
:101D60000BE0010006A80A2202FB050001F0E0FEDC
:101D700030A1002001F08CFE6D1C0028F1D1002D57
:101D800004D1DFF85C0A01F08DFA49E006A803F0FF
:101D90007AFA3C2101FB00F50DF1220003F073FA01
:101DA000401941F270714843DFF8A4184FF4BC7237
:101DB00002FB0411C1F85801DFF894084FF4BC711C
:101DC00001FB0400D0F85801DFF884184FF4BC720E
:101DD00002FB0411C1F85C010120DFF8081A087049
:101DE000002201A9DFF8600703F0F0FB9DF8053041
:101DF0009DF80420DFF8541720A803F0ABF920A9C0
:101E0000DFF84C084FF4BC7202FB040010F59A7026
:101E100001F08EFE00226946DFF82C0703F081FCFA
:101E20002DB030BDF8C6000840C10008483400207D
:101E300080C100083A00000014D10008FCC300086B
:101E4000C0C1000800C20008006AF84028C70008A6
:101E5000D012634158C7000828CF000838C40008D2
:101E60002DE9F047AEB0040002A8342101F05CFE79
:101E700021A8342101F058FE14A8342101F054FEA9
:101E800000275FF000085FF000095FF0000A0025FE
:101E90000020002600220FA9DFF8AC0603F096FB15
:101EA000002201A9DFF8A00603F03BFC9DF83C707E
:101EB0009DF83D80CDF800803B00DFF894074FF49B
:101EC000BC7101FB0400D0F85421611CDFF8180933
:101ED00001F0E8F915E0DFF878074FF4BC7101FB79
:101EE0000400D0F85401401C0C2190FBF1F201FBDE
:101EF0001200DFF85C174FF4BC7202FB0411C1F84A
:101F00005401DFF84C074FF4BC7101FB0400DFF80B
:101F100040174FF4BC7202FB0411D1F854110A228D
:101F200002FB010090F946003A2809D00020DFF8B2
:101F300020174FF4BC7202FB0411C1F854014FE0AA
:101F4000DFF80C074FF4BC7101FB0400DFF8001749
:101F50004FF4BC7202FB0411D1F854110A2202FBA7
:101F6000010010F1440102A801F0E2FD00208DF80B
:101F70000A0002A803F087F981460DF10B0003F077
:101F800082F9824653464A46DFF8C4064FF4BC71D4
:101F900001FB0400D0F85411DFF8500801F082F979
:101FA0004F451DDBB94596DBD04519DBC24516DA36
:101FB000DFF89C064FF4BC7101FB0400D0F854011B
:101FC000401C0C2190FBF1F201FB1200DFF880169F
:101FD0004FF4BC7202FB0411C1F8540191E70126D1
:101FE000002E1DD1DFF868064FF4BC7101FB040020
:101FF000DFF85C164FF4BC7202FB0411D1F85411E7
:102000000A2202FB010010F14401DFF844064FF4FC
:10201000BC7202FB040010F59A7001F089FD32E0F9
:10202000DFF82C064FF4BC7101FB0400DFF820162A
:102030004FF4BC7202FB0411D1F854110A2202FBC6
:10204000010010F1440102A801F072FD9DF90C009D
:10205000392808D19DF80B00401C8DF80B0030206A
:102060008DF80C0004E09DF80C00401C8DF80C006D
:1020700002A9DFF8DC054FF4BC7202FB040010F586
:102080009A7001F055FDDFF8C8054FF4BC7101FBF3
:102090000400DFF8BC154FF4BC7202FB0411D1F848
:1020A00054110A2202FB010010F1BC01DFF8A00567
:1020B0004FF4BC7202FB040010F59F7001F038FD74
:1020C000611CDFF8140701F0EDF8DFF884054FF428
:1020D000BC7101FB040010F59F72DFF874054FF42A
:1020E000BC7101FB040010F59A71DFF8A00B01F040
:1020F000D9F8DFF85C054FF4BC7101FB040010F562
:102100009A7102A801F014FDDFF844054FF4BC7188
:1021100001FB040010F59F7121A801F009FD3AA10F
:1021200001F0B6FC0BE0010014A80A2202FB050036
:1021300001F0FEFC34A1002001F0AAFC6D1C002877
:10214000F1D1002D04D1DFF8480B01F0ABF852E0DB
:1021500014A803F098F83C2101FB00F50DF15A009A
:1021600003F091F8401941F270714843DFF8E01430
:102170004FF4BC7202FB0411C1F85801DFF8D0041F
:102180004FF4BC7101FB0400D0F85801B0F57A7F20
:1021900009D140F2ED30DFF8B8144FF4BC7202FB05
:1021A0000411C1F85801DFF8A8044FF4BC7101FB19
:1021B0000400D0F85801062809DA40F6B830DFF8F4
:1021C00090144FF4BC7202FB0411C1F85801DFF8FF
:1021D00080044FF4BC7101FB0400D0F85801DFF813
:1021E00070144FF4BC7202FB0411C1F85C010120B1
:1021F000DFF8281D08702EB0BDE8F0879A999999EC
:102200009999B93F40C200083A00000080C2000816
:1022100030D100084CD1000854340020583400203C
:10222000A0CB0008C4D40008C032002048CF00086A
:10223000540000206400002074000020840000206E
:102240009400002088C7000880D40008302D0020AA
:10225000F8B52DED028B98B004000026002500276C
:102260000AA8342101F060FC9FEDB98BDFF8DC0B8C
:102270000078002840F020812100DFF8D40B01F025
:1022800011F8DFF8CC034FF4BC7101FB0400456A80
:10229000002689E051EC180B03F0BCFA41F2707192
:1022A0004843DFF8AC134FF4BC7202FB0411C1F8D1
:1022B0005801DFF89C034FF4BC7101FB0400D0F817
:1022C0005801DFF88C134FF4BC7202FB0411C1F803
:1022D0005C010120DFF80C1508708DED028BDFF832
:1022E000740B482101FB070090ED040B8DED000BF2
:1022F000DFF8600B482101FB0700806802F002FF55
:1023000002000B00DFF8500B00F0CCFF002205A903
:102310008D4803F05BF99DF815309DF814208B492A
:102320000AA802F017FF0AA9C9484FF4BC7202FBC1
:10233000040010F59A7001F0FBFB002204A982480A
:1023400003F0EFF90020DFF8DC1B08600120DFF864
:10235000FC1A0870DFF8FC0A482101FB07008068BE
:1023600002F0D0FE02000B00DFF8E80A482101FB72
:102370000700C169806902F06FFF14D2B4484FF4BE
:10238000BC7101FB0400006A01280CD1B0484FF475
:10239000BC7101FB040090F91E00FFF715FB012042
:1023A000DFF8A81A0870761CAE4280F28580A84833
:1023B0004FF4BC7101FB040010EB8600876ADFF864
:1023C000940A482101FB0700806802F09BFEDFF8B9
:1023D000842A482303FB07225369126902F03CFF59
:1023E000B8D29B484FF4BC7101FB0400006A00287E
:1023F000B0D1DFF8600A482101FB0700806802F0D5
:1024000081FE02000B00DFF84C0A482101FB0700A7
:102410004169006903F02AFA41EC180B8C484FF42B
:10242000BC7101FB0400D0F86C11D0F8680153ECCA
:10243000182B03F0DBFA41EC180B85484FF4BC7104
:1024400001FB0400D0F87411D0F8700100220023C1
:1024500002F002FF04D2DFF8D00A00F023FF6DE0A3
:102460007B484FF4BC7101FB0400D0F87411D0F824
:1024700070010022DFF8B43A03F0B8FA02000B0052
:1024800051EC180B03F084FB41EC180B51EC180BCA
:102490000022DFF89C3A03F0A9FA41EC180B51EC4A
:1024A000180B0022002302F0D7FE3FF6F3AEDFF850
:1024B000840A00F0F7FE41E0DFF8C40B0078002842
:1024C0003CD12100DFF8BC0B00F0ECFE60484FF47B
:1024D000BC7101FB0400456A00262DE05C484FF406
:1024E000BC7101FB040010EB8600876ADFF8640909
:1024F000482101FB0700806802F004FE02000B0087
:10250000DFF85009482101FB0700C169806902F02A
:10251000A3FE10D24E484FF4BC7101FB0400006AC8
:10252000012808D14A484FF4BC7101FB040090F91E
:102530001E00FFF749FA761CAE42CFDB18B0BDECA7
:10254000028BF1BD88CF0008F03300208CD4000846
:10255000000000000000000038B500240025002421
:1025600000E0641C052C5EDA39484FF4BC7101FBB5
:102570000400006C0028F4D035484FF4BC7101FB16
:102580000400D0F860010028EBD131484FF4BC7151
:1025900001FB0400056C2E484FF4BC7101FB0400E4
:1025A000D0F85811DFF8900B00F07CFE012D08D018
:1025B000022D0AD0032D0CD0042D18D0062D24D0C6
:1025C000CFE72000FFF7BAFACBE72000FFF722FBA6
:1025D000C7E71F484FF4BC7101FB0400D0F8580155
:1025E000B0F57A7F02D12000FFF782FBB9E71848E7
:1025F0004FF4BC7101FB0400D0F85801B0F57A7FAC
:1026000002D12000FFF72CFCABE7DFF84008007890
:10261000002804D0DFF8680A0078002802D12000E2
:10262000FFF716FE9DE731BD002004E00021DFF832
:10263000402B8154401CDFF83C1B09888842F5DBA5
:102640000020DFF8341B08807047000068CF0008C6
:10265000F02100205C0000206C0000207C000020A5
:102660008C0000209C00002000C90008A8CF0008B2
:10267000C8CF000880B52DED028B00EE100AB8EE31
:10268000C08A00290ED002291CD00CD3042937D0CF
:1026900027D3062952D042D308296DD05DD309290A
:1026A00079D087E08AE018EE100A02F02BFDDFF8FF
:1026B000CC2ADFF8CC3A03F099F902F085FD08EE58
:1026C000100A7BE018EE100A02F01CFDDFF8B42AB5
:1026D000DFF8B43A03F08AF902F076FD08EE100A4A
:1026E0006CE018EE100A02F00DFDDFF8A02ADFF80A
:1026F000A03A03F07BF902F067FD08EE100A5DE0F6
:1027000018EE100A02F0FEFCDFF8882ADFF8883A9B
:1027100003F06CF902F058FD08EE100A4EE018EED6
:10272000100A02F0EFFCDFF8742ADFF8743A03F0C5
:102730005DF902F049FD08EE100A3FE018EE100ABC
:1027400002F0E0FCDFF85C2ADFF85C3A03F04EF9B7
:1027500002F03AFD08EE100A30E018EE100A02F01E
:10276000D1FCDFF8482ADFF8483A03F03FF902F0DD
:102770002BFD08EE100A21E018EE100A02F0C2FC50
:10278000DFF8302ADFF8303A03F030F902F01CFDB0
:1027900008EE100A12E018EE100A02F0B3FCDFF89F
:1027A0001C2ADFF81C3A03F021F902F00DFD08EEB7
:1027B000100A03E0DFF80C0A00F074FDB0EE480ADE
:1027C000BDEC028B01BD0000C4CB0008F8D30008AB
:1027D000B8C70008E8C700082CC90008A8C400084A
:1027E00068D100086B340020C0C2000800C3000894
:1027F000F8B52DED028B94B004000D0002A8142151
:1028000001F092F99FEDD28A9FEDD18A002007A8AE
:10281000342101F089F9002005E0DFF85419415C0A
:1028200007AA8154401CDFF84C1909888842F4DB60
:10283000DFF84009018807A803F0FDFA00282BD132
:10284000DFF8840900F02EFD0A2107A800F0EDFA58
:10285000DFF8781914F1740001F040F900283BD139
:10286000E06E042825D107A8A16E081810F8010C05
:102870008DF80A0007A8A16E085C8DF80B0007A868
:10288000A16E081840788DF8080007A8A16E0818F6
:1028900080788DF809004DE02100DFF8340900F060
:1028A00001FD606D401C6065FFF7BEFE5FF0FF300C
:1028B000E8E107A8A16E085C8DF80A0007A8A16EE0
:1028C000081810F8010C8DF80B0000208DF8080096
:1028D00000208DF809002DE0E06E042818D107A82B
:1028E000A16E081810F8010C8DF8080007A8A16E59
:1028F000085C8DF8090007A8A16E081840788DF8CB
:102900000A0007A8A16E081880788DF80B0011E066
:1029100007A8A16E081810F8010C8DF80A0007A886
:10292000A16E085C8DF80B0000208DF808000020D7
:102930008DF80900DFF89C1814F15C0001F0CEF866
:10294000002840F08D8002A800F0B0F9B0EE408A77
:1029500018EE100A02F0D6FB02000B00DFF8780830
:1029600000F0A0FCD4E920010022002302F00CFCBE
:1029700006D3D4E922010022002302F005FC44D250
:102980009FED730A94ED200B8DED000BD4E922230B
:10299000DFF8480800F086FC18EE100A02F0B2FBDF
:1029A00006000F00D4E92201D4E9202302F05EFFE3
:1029B00002000B003000390003F018F802F004FCAC
:1029C00000EE100A10EE100A02F09CFB0022DFF865
:1029D000103803F0DDF802F0F7FB08EE100A18EEED
:1029E000100A02F08FFBD4E9202303F063FA02F00F
:1029F000EBFB08EE100A18EE100A02F083FB02004F
:102A00000B00DFF8E00700F04DFC002D0CD0022D8C
:102A100062D041D3042D00F0A1807DD3062D00F0BB
:102A20001781C0F0BB8026E1DFF8BC0790ED000AFB
:102A3000B4EE408AF1EE10FA2ADBDFF8B00790ED31
:102A4000000AB4EE480AF1EE10FA21DB94ED140A04
:102A500030EE080A84ED140AA06D401CA0651AE04F
:102A6000DFF88C1714F15C0001F038F8002808D169
:102A700002A800F00FF9216FFFF7FCFDB0EE408ACD
:102A800066E7DFF8700700F00DFC5FF0FF30F9E05B
:102A9000606D401C6065F2E0DFF85C0790ED000AB5
:102AA000B4EE408AF1EE10FA12DBDFF8500790ED39
:102AB000000AB4EE480AF1EE10FA09DB94ED140AAC
:102AC00030EE080A84ED140AA06D401CA06502E0F7
:102AD000606D401C6065D2E0DFF8240790ED000ACD
:102AE000B4EE408AF1EE10FA12DBDFF8180790ED31
:102AF000000AB4EE480AF1EE10FA09DB94ED140A6C
:102B000030EE080A84ED140AA06D401CA06502E0B6
:102B1000606D401C6065B2E0DFF8EC0690ED000AE5
:102B2000B4EE408AF1EE10FA14DBDFF8E00690ED27
:102B3000000AB4EE480AF1EE10FA0BDB94ED140A29
:102B400030EE080A84ED140AA06D401CA06504E074
:102B500000000000606D401C606590E0DFF8B0068A
:102B600090ED000AB4EE408AF1EE10FA12DBDFF8C5
:102B7000A40690ED000AB4EE480AF1EE10FA09DB63
:102B800094ED140A30EE080A84ED140AA06D401C7E
:102B9000A06502E0606D401C606570E018EE100AF0
:102BA00002F0B0FAAB4A482303FB0522D3699269CD
:102BB00002F0EAFA24D8DFF86006006802F0A2FA10
:102BC000A44A482303FB0522D369926902F0DCFA88
:102BD00016D8DFF848060068401CDFF84016086089
:102BE000DFF83806006803280EDB00F08FFADFF804
:102BF000300600F057FB0020DFF82016086003E0E5
:102C00000020DFF818160860DFF8180690ED000ABB
:102C1000B4EE408AF1EE10FA12DBDFF80C0690ED0C
:102C2000000AB4EE480AF1EE10FA09DB94ED140A3A
:102C300030EE080A84ED140AA06D401CA06502E085
:102C4000606D401C6065DFF8D00580ED008A16E0FD
:102C5000B5EE408AF1EE10FA09DB94ED140A30EE7D
:102C6000080A84ED140AA06D401CA06502E0606DA6
:102C7000401C606503E0DFF8B40500F013FBFFF7CC
:102C8000D3FC002014B0BDEC028BF2BD18C80008C4
:102C9000E8CF0008017809064278120483781B0205
:102CA0009A18C07810184118080070472DE9F041B3
:102CB0002DED048B017890F801808478C578B7EE0B
:102CC000008AC9B2802901D3BFEE008ADFED948A61
:102CD000C9B280290DD3C9B2080003F069F90022F6
:102CE000DFF84C3503F0E6F802F06EFA08EE900AD1
:102CF00004E0C9B200EE101AF8EE408A18EE900A0D
:102D000002F000FA00225FF0804302F06FFE02F052
:102D10005BFA08EE900A5FFA88F8B8F1800F0CD3DE
:102D200018EE900A02F0EEF90022DFF8083503F001
:102D3000C1F802F049FA08EE900A18EE900A02F083
:102D4000E1F90022DFF8F03403F0B4F802F03CFAC5
:102D500008EE900A9FED729A5FFA88F8B8F1800F3A
:102D60000CD35FFA88F8404603F022F90022DFF81E
:102D7000C03403F09FF802F04DFD8046EDB228000C
:102D800003F016F906000F00E4B2200003F010F97A
:102D900004000D005FFA88F8404603F009F90022AC
:102DA000DFF8983402F022FE22002B0003F082F8B4
:102DB0000022DFF8883402F019FE32003B0003F0F5
:102DC00079F802F001FA09EE100A9FEDBB0A89EECC
:102DD000009A18EE100A02F095F904000D0018EEA2
:102DE000900A02F08FF941EC110B9FEDC60B03F036
:102DF00064FB51EC100B22002B0002F0F7FD0400E5
:102E00000D00B7EE000A39EE000A10EE100A02F0CB
:102E100079F922002B0002F0E9FD02F0D5F900EE6D
:102E2000100ABDEC048BBDE8F08170B504000D0004
:102E3000002605E0315DDFF8080400F033FA761C67
:102E4000AE42F7DBBBA000F02DFA70BD7734002056
:102E500048C80008302D0020BCC0000810B5ADF5F2
:102E6000806DDFF8E0030078002851D1DFF8D80347
:102E700000F080FE0400641C6846142100F054FE3B
:102E80006946200000F058F81E2C07DA2200DFF80F
:102E9000B813DFF8B80300F005FA3CE0DFF8A81338
:102EA00005A800F045FE232005A9611801F8010CD2
:102EB000DFF89C030068012803D1312005A9605484
:102EC00002E0302005A96054002005A9611848706F
:102ED000002005A961188870641C002003F0A9FD7A
:102EE000684600F047FE020092B20A21684603F0ED
:102EF000F4FD05A800F03EFE020092B2142105A8E0
:102F000003F0EBFD220005A9D24800F0CBF902E066
:102F10000020CC4908700DF5806D10BD6C34002088
:102F2000000000004034002058C90008000059404B
:102F300000004E4040C300087EB40022002300235E
:102F40006B4600240025002670C30C3B0300002BB9
:102F500000D540420A2490FBF4F504FB15043034FC
:102F60006D465455521C0A2490FBF4F00128F1DA06
:102F7000002B03D52D206B46D054521C00206B46ED
:102F8000D054130006E06846181810F8010CD41A43
:102F900060545B1E002BF6D577BC704730B5ADF59D
:102FA0007D7D0400002568460021002200230EC01C
:102FB0000C3803A84FF47A7100F0B6FD0A22002104
:102FC000684603F026FE0A220A21684603F021FE25
:102FD0006A460021A04800F065F9684602F053F9FE
:102FE0000500B5F57A7F02DD0A2095FBF0F56D1C32
:102FF0002800020092B2142103A803F00AFE2A005E
:1030000003A9964800F04EF903A8281810F8010CFF
:10301000302806D100208E490860914800F042F91E
:1030200012E003A8281810F8010C312806D101205D
:10303000874908608B4800F035F905E00020844995
:103040000860894800F02EF903A8281810F8020C2F
:1030500023280FD1002003A9691801F8020C03A945
:10306000200000F065FD03A9804800F01BF9FDF782
:1030700011F902E07E4800F015F90DF57D7D30BDB7
:1030800073340020DCC4000880B54FF47A73012249
:1030900036A1784800F053F9012080F31388FDF73A
:1030A00073F801BD80B500200821734802F02EF9A5
:1030B000FFF7BAFA01BD00000000004B80B5002008
:1030C00008216E4802F022F9FFF7AEFA01BD80B583
:1030D000002008216A4802F019F9FFF7A5FA01BD9E
:1030E00080B500200821674802F010F9FFF79CFA2C
:1030F00001BD80B500200821634802F007F9FFF701
:1031000093FA01BD000000000000004080B50020DF
:1031100008215E4802F0FAF8FFF786FA01BD80B593
:103120005B4800F0BFF8002003F083FC594800F032
:10313000B9F801BD0A00000008D400084FF4FA51A4
:10314000484355490860002054490860012054490B
:1031500008605348006810F001100128F9D00020E1
:103160004F49086000204D49086070477D0000000D
:10317000BC330020E8010020563400209A99999928
:103180009999B93F7B14AE47E17A843FFCA9F1D20B
:103190004D62503F2D431CEBE2361A3FF168E38845
:1031A000B5F8E43E8DEDB5A0F7C6B03E48AFBC9A89
:1031B000F2D77A3E3A8C30E28E79453E95D626E8B3
:1031C0000B2E113E6CD20008E8CB0008CCD40008CE
:1031D00028CA0008D4D4000830CC000810C5000864
:1031E0000088D34084D10008343400200C00002033
:1031F000DCD400080CCC000838340020100000207B
:1032000014000020180000203034002008000020A6
:103210002C340020040000204834002044340020D6
:1032200008D000083C3400201C00002028D00008F2
:10323000000060C00000F03F00C05FC000007040B0
:10324000E4D40008783400204829002078C8000819
:103250002000002084C9000854CC0008A0D1000838
:1032600078CC00089CCC000844C5000848D0000871
:10327000C0CC0008C0320020340000203C000020F8
:10328000240000202C000020440000204C000020DE
:10329000E4CC000808CD000814E000E018E000E0ED
:1032A00010E000E00EB400B582B003A90091024620
:1032B0006B460121034878440A3003F01BFD06BC2D
:1032C0005DF810FB81A0000010B50400002C01D1B6
:1032D000012033E0A0690028FFD194F839000028CC
:1032E00005D1002084F83800200004F0CBFD242014
:1032F00084F839002068C06830F400502168C86044
:10330000200000F039FA2068006930F4904021680C
:1033100008612068406930F02A002168486120680F
:10332000C06850F400502168C8600020E06320208D
:1033300084F83900202084F83A00002010BD2DE9DF
:10334000F04182B004000D0016001F005FF000087D
:1033500094F8390020285DD1002D02D0B6B2002E9D
:1033600001D1012057E094F93800012801D1022051
:1033700051E0012084F838000020E063212084F827
:10338000390004F0D6FE8046A684E68403E028785F
:10339000216848606D1CE08C002828D0E08C401E1D
:1033A000E084A068B0F5805F16D100974346002204
:1033B0008021200000F0FCF8002801D003202AE042
:1033C0002888C005C00D216848602069002801D107
:1033D000AD1CE0E76D1CDEE700974346002280212C
:1033E000200000F0E5F80028D1D0032013E000977A
:1033F000434600224021200000F0DAF8002801D0E6
:10340000032008E0202084F83900002084F83800E8
:10341000002000E00220BDE8F68190F83A30202B31
:1034200028D1002902D092B2002A01D1012022E045
:1034300090F93830012B01D102201CE0012380F8E3
:10344000383081628285C2850021C163222180F8E3
:103450003A10002180F838100168496951F00101E3
:10346000026851610168C96851F490710068C160D7
:10347000002000E00220704738B504002068006892
:103480002168C968226852690023002310F00F03E5
:10349000002B07D1850605D58D0603D5200000F049
:1034A0001EF982E0002B70D0D30702D411F4907F74
:1034B0006BD010F00103DBB2002B05D0CB0503D598
:1034C000E36B53F00103E363430708D512F00103F4
:1034D000DBB2002B03D0E36B53F00203E3638307FB
:1034E00008D512F00103DBB2002B03D0E36B53F0DD
:1034F0000403E363030708D512F00102D2B2002AE5
:1035000003D0E26B52F00802E263E26B002A3BD088
:10351000800604D5880602D5200000F0E0F8206877
:103520004069800910F00103E06B000701D4002B13
:1035300025D0200000F074F82068406940061AD5B4
:103540002068406930F0400021684861606B0028C5
:103550000DD00FF2F100616B0865606B04F0F2FDB5
:10356000002811D0606B616B096D88470CE020006A
:1035700000F01DF808E0200000F019F804E0200039
:1035800000F015F80020E0630FE0020605D50A06FA
:1035900003D5200000F060F807E0400605D5480696
:1035A00003D5200000F08DF8FFE731BD704770476C
:1035B0002DE9F04104000D0016001F00DDF8188011
:1035C000206800682840A84201D1012000E00020C6
:1035D00076B2B04221D118F1010FF1D0B8F1000F4D
:1035E00004D004F0A6FDC01B8045E9D22068C06865
:1035F00030F4D0702168C8602068406940084000FD
:1036000021684861202084F83900202084F83A009D
:10361000002084F83800032000E00020BDE8F0819D
:103620000168C96831F490710268D1600168496924
:103630004908490002685161202180F83A1070471A
:103640000000000080B5806B0021C1850021C1848D
:10365000FFF7ADFF01BD000090F8391021292ED1F0
:103660008168B1F5805F10D1016A0988C905C90D6B
:10367000026851600169002903D1016A891C016255
:1036800009E0016A491C016205E0016A4A1C026204
:10369000097802685160C18C491EC18489B2002931
:1036A0000BD10168C96831F080010268D1600168FE
:1036B000C96851F040010068C160002000E00220AC
:1036C000704780B50168C96831F040010268D16077
:1036D000202180F83910FFF769FF002002BD80B576
:1036E00090F83A10222945D18168B1F5805F14D154
:1036F000816A0269002A08D102685268D205D20D97
:103700000A80816A891C816219E002685268D2B21B
:103710000A80816A491C816211E00169002906D191
:10372000816A4A1C8262026852680A7007E0816AF4
:103730004A1C82620268526812F07F020A70C18DD0
:10374000491EC18589B2002912D10168C96831F4C6
:1037500090710268D16001684969490849000268AE
:103760005161202180F83A1005F086F8002002E02F
:10377000002000E0022002BD2DE9F04104000020FD
:103780002068006930F44050E1680843216808610E
:103790002068C068BB490840A1682269114362697A
:1037A0001143E269114308432168C86020684069F9
:1037B00030F44070A169084321684861E069B0F5C0
:1037C000004F40F0B0802068AF49884203D02068A5
:1037D000AE49884253D105F0C1FE804605F0BEFED9
:1037E000060005F0BBFE070005F0B8FE050005F079
:1037F000B5FE192101FB08F162685200B1FBF2F13C
:103800006422B1FBF2F1192202FB06F263685B004D
:10381000B2FBF3F2192303FB07F366687600B3FBF0
:10382000F6F36426B3FBF6F3642606FB1322D200FC
:1038300032326423B2FBF3F212F0F802520012EBC0
:103840000111192202FB05F263685B00B2FBF3F27F
:103850001923584363685B00B0FBF3F06423B0FBAB
:10386000F3F0642303FB1020C00032306422B0FB6D
:10387000F2F010F0070040182168886000E105F0C0
:103880005DFE804605F05AFE060005F057FE070073
:1038900005F054FE050005F051FE192101FB08F169
:1038A00062685200B1FBF2F16422B1FBF2F119221D
:1038B00002FB06F263685B00B2FBF3F2192303FB21
:1038C00007F366687600B3FBF6F36426B3FBF6F302
:1038D000642606FB1322D20032326423B2FBF3F2D9
:1038E00012F0F802520012EB0111192202FB05F24C
:1038F00063685B00B2FBF3F21923584363685B0013
:10390000B0FBF3F06423B0FBF3F0642303FB10205F
:10391000C00032306422B0FBF2F010F00700401813
:1039200021688860ACE020685749884203D020684D
:103930005649884252D105F011FE804605F00EFE30
:10394000060005F00BFE070005F008FE050005F077
:1039500005FE192101FB08F162689200B1FBF2F14A
:103960006422B1FBF2F1192202FB06F263689B00AC
:10397000B2FBF3F2192303FB07F36668B600B3FB4F
:10398000F6F36426B3FBF6F3642606FB132212015A
:1039900032326423B2FBF3F212F0F00212EB0111A7
:1039A000192202FB05F263689B00B2FBF3F21923B4
:1039B000584363689B00B0FBF3F06423B0FBF3F063
:1039C000642303FB1020000132306422B0FBF2F0CC
:1039D00010F00F0040182168886051E005F0AEFD3E
:1039E000804605F0ABFD060005F0A8FD070005F0D8
:1039F000A5FD050005F0A2FD192101FB08F1626893
:103A00009200B1FBF2F16422B1FBF2F1192202FB48
:103A100006F263689B00B2FBF3F2192303FB07F382
:103A20006668B600B3FBF6F36426B3FBF6F36426D0
:103A300006FB1322120132326423B2FBF3F212F0BE
:103A4000F00212EB0111192202FB05F263689B00E0
:103A5000B2FBF3F21923584363689B00B0FBF3F009
:103A60006423B0FBF3F0642303FB10200001323029
:103A70006422B0FBF2F010F00F004018216888605B
:103A8000BDE8F081F369FFFF001001400014014020
:103A900070B504460D46104805F094FD064644B145
:103AA0002946204605F08FFD0419207830B9306092
:103AB00070BD3468002CF3D1002070BD294620462B
:103AC00005F092FD0019017811B1002100F8011BE9
:103AD0003060204670BD00BFE4000020820707D0A0
:103AE00010F8012B11F8013BBAB19A42F6D014E05C
:103AF00002680B689A42A2F1013301BF934313F0AD
:103B0000803F50F8042F51F8043FF3D010F8012BF8
:103B100011F8013B0AB19A42F8D0D01A70470268F6
:103B2000531C036011707047002205F06FBD000048
:103B30005FEA000C830706D011F8013B00F8013B57
:103B4000B3B18307F8D10A68B2F1013323EA020363
:103B500013F0803F02BF40F8042B51F8042FF3E725
:103B600011F8013B00F8013B13B111F8013BF9E7F3
:103B70006046704700F10103810704D010F8011B73
:103B800089B18107FAD10268B2F10131914311F094
:103B9000803F04BF50F8042FF6E710F8011B11B165
:103BA00010F8011BFBE7C01A7047000062F30F22F8
:103BB00062F31F42401810F0030308D0C91A1FD344
:103BC000DB0748BF00F8012D28BF20F8022D1300A5
:103BD00030B414461546103928BF20E93C00FAD805
:103BE000490728BF20E90C0048BF40F8042D890090
:103BF00028BF20F8022D48BF00F8012D30BC7047C7
:103C0000C91818BF00F8012DCB0728BF00F8012DF7
:103C10007047000000F5E0700268914203D34368EA
:103C20009A18914202D380680028F5D17047DFF8D6
:103C30005807016891B94FF4803181604FF4805189
:103C400041604FF0FF31C16001610421DFF83C2782
:103C50004161C2F8BC11DFF83817016001207047DC
:103C600001F1080313F0070305D001F10803C3F1C4
:103C7000080303F007035918D21A8161C26042F0A9
:103C800001034B60511828234B60DFF8FC160969CB
:103C9000C16170472DE9F84F064601F1080010F0A8
:103CA000070008BF884607D001F10800C0F10800EE
:103CB00000F0070000EB010802F1080010F0070017
:103CC00006D002F10800C0F1080000F007008218D9
:103CD0001546A5EB0800A0EB030903EB080B43F026
:103CE0000300C8F80400AB4528BF05F0A8FC2879FC
:103CF000C00758BF05F0A3FCB9F1100F38BF05F09D
:103D00009EFCB069854209D1F0684844F060C6F86D
:103D100018B040F00100CBF804006DE170698542F5
:103D20000BD1B0684844B060C6F814B040F001014F
:103D3000CBF8041040F80B005EE1686800F0030166
:103D4000012940F0AD80C008C0000190C0082028C3
:103D50003AD2D5F808A0EF680090BD4208BF05F040
:103D60006EFC554508BF05F06AFC68680099C008FC
:103D7000C000B0EBC10F18BF05F061FC009806EB66
:103D8000C00000F128018A4507D031698A45C0F09A
:103D90008280DAF80C10A9427DD1574506D1009AED
:103DA0003068012191408843306076E028308742B6
:103DB00005D0306987426ED3B868A8426BD1CAF883
:103DC0000C70C7F808A068E0EF68D5F818A0AF42FB
:103DD0000CD0A8683169884223D3C168A94204BFC6
:103DE000B968A9421DD1C760B8601CE005F1140094
:103DF000076837B905F110000768A7B101E0084668
:103E0000076807F114010A68002A02BF07F11001D0
:103E10000A68002AF3D13169884202D30021016087
:103E200001E005F00CFCBAF1000F36D0E86906EBB2
:103E3000800000F5987001688D4208D10760A7B92D
:103E4000EA697068012191408843706025E030691B
:103E5000824508D3DAF81000A84214BFCAF81470DB
:103E6000CAF8107001E005F0EAFBB7B1306987428B
:103E700011D3C7F818A0296929B1814226BF396139
:103E80008F6105F0DCFB686938B13169884202D383
:103E90007861876101E005F0D2FB01984519814402
:103EA00068684008400068604FEAD90549F00100A1
:103EB000CBF8040049F80B90202D23D206EBC50067
:103EC00000F12807BA46B9F1100F38BF05F0B7FB6B
:103ED000306820FA05F1C90704D40121A94008433C
:103EE000306006E0B868316988422CBF824605F030
:103EF000A6FBC7F808B0CAF80CB0CBF808A0CBF8FE
:103F00000C7079E05FEA192108BF002023D0B1F5D9
:103F1000803F28BF1F201ED2A1F58070000C00F04A
:103F200008008140A1F58052120C02F00402914079
:103F3000A1F580431B0CC0F10E0003F00203801AB0
:103F4000C01A994000EBD130C11D29FA01F202F0EC
:103F5000010101EB4000CBF81C000022CBF814203B
:103F6000CBF8102006EB8001726822FA00F3DB0721
:103F700001F5987107D4012303FA00F01043706033
:103F8000C1F800B01DE009681F280EBF00204008DE
:103F9000C0F1190009FA00F000E011464A68D208A1
:103FA000D2004A4514D0C20F01EB820202F1100385
:103FB00040001A68002AF0D1306983421AD3C3F84E
:103FC00000B0CBF81810CBF80CB0CBF808B013E069
:103FD00032698868914228BF90420BD3C0F80CB078
:103FE000C1F808B0CBF80800CBF80C100020CBF8D3
:103FF000180001E005F023FB08F10800BDE8E68F9A
:104000002DE9FA4D0546DFF8800384B0006808B951
:10401000FFF70DFEDFF870030499806841182F3117
:10402000401E21EA00000499814280F0A88105F534
:10403000D876B16839B132688018824280F09F81A9
:104040008142C0F09C8105F0FDFA00281EBF0446A5
:10405000D0F8008014F1010F00F091813068716890
:1040600040443060814238BF01467160A86980BB1E
:10407000286908B1844200D22C610020F0613461CB
:10408000C6F8148005F12801BF48006868624FF047
:10409000FF302862002001F10802C9601160801C15
:1040A00010312028D2609260F5D3B848854203D100
:1040B000A8F12802214629E055F8040CC00805EBB8
:1040C000C000A0F1080108EB0400401AA0F128028A
:1040D0001CE005F5E071084600E08068D0B1026898
:1040E00043689A189442F8D1027B120712D4AA6945
:1040F00003689A420ED347683B449A420AD208EBBF
:1041000007014160E868A96908EB00022846FFF74B
:10411000A7FD1EE128698442084638BF2C6108EBE0
:10412000040100E0806880B102688A42FAD1017B14
:1041300009070AD404604168414441602146049B58
:10414000284606B0BDE8F04DA4E5AF6939462846DB
:10415000FFF760FD01684068401802902F3800F1B9
:10416000080111F0070105D000F10801C1F10801B3
:1041700001F00701081807F11001884234BF0097C9
:10418000009000980830019004F10801009800F1B7
:10419000180A11F007014FF0000BA8F1280005D014
:1041A00004F10801C1F1080101F007010A19401AE0
:1041B000AA61E86040F00101516080182821416047
:1041C00071480069E861019810F0070018BF05F018
:1041D00036FA00991B20486005F5E071B1E80C50F3
:1041E0000198A0E80C503461C6F81480C6F81CB0E1
:1041F0000198B061029800E08A460722CAF80420BC
:104200000AF104010A1D82420BF1010BF4D3BBF148
:10421000020FB8BF05F013FA0098B84200F0998079
:10422000C01BC119C4084A68520852004A6040F0D5
:1042300001017960C051202C20D205EBC40101F1AD
:104240002806B046102838BF05F0F9F9286820FA8A
:1042500004F1C90704D40121A1400843286006E005
:10426000B068296988422CBF804605F0E8F9B7603C
:10427000C8F80C70C7F80880FE606AE0010A08BF41
:10428000002223D0B1F5803F28BF1F221ED2A1F506
:104290008072120C02F008029140A1F580531B0CB1
:1042A00003F004039940A1F58044240CC2F10E02EE
:1042B00004F00204D21A121BA14002EBD131CA1D34
:1042C00020FA02F303F0010202EB4102FA6100233B
:1042D0007B613B6105EB82016B6823FA02F4E40722
:1042E00001F5987105D401209040184368600F6073
:1042F0001CE009681F2A0EBF00225208C2F11902F1
:1043000000FA02F200E019464B68DB08DB0083424A
:1043100010D0D30F01EB830303F110045200236884
:10432000002BF0D12869844211D32760B961FF6066
:10433000BF600EE02A698868914228BF904206D388
:10434000C7608F60B860F9600020B86101E005F0D7
:1043500076F9E8680499814211D2401AE860A969A7
:10436000049A5218AA6140F001005060049840F08D
:104370000300486006B001F10800BDE8F08D0020A0
:1043800006B0BDE8F08D000010340020282F00207A
:104390006859883C2DE9F04D0446002688465FEABE
:1043A0001820C8F1000B08BF002123D0B0F5803FD2
:1043B00028BF1F211ED2A0F58071090C01F0080151
:1043C0008840A0F58052120C02F004029040A0F543
:1043D00080431B0CC1F10E0103F00203891AC91AB4
:1043E000984001EBD030C11D28FA01F202F0010122
:1043F00001EB400104EB8100D0F8300118B31F2914
:104400000EBF00224A08C2F1190208FA02F2002384
:1044100000E052004568ED08ED00A5EB08055D459C
:1044200003D25FEA050B06460BD04569D70F00EBB8
:104430008700002D00691CBF85422B460028E8D16B
:104440001846B8BBC6BB0120884040004142084323
:104450006168084000F0638141420840401E010B42
:1044600001F01001C840420902F00802D040830860
:1044700003F00403D840450805F002055118E84050
:104480005918C0F3400729443944F840401804EB58
:104490008000D0F830010DE008464168C908C90025
:1044A000A1EB080159453CBF8B460646016900292E
:1044B000F2D140690028F0D1002E00F03081A068D0
:1044C000A0EB0800834580F02A8120698642C0F075
:1044D00024817068C008C00008EB0B0108EB0605DA
:1044E000884218BF05F0ABF8AE4280F01681F7683D
:1044F000D6F818A0B7420CD0B0682169884223D3FF
:10450000C168B14204BFB968B1421DD1C760B8608B
:104510001CE006F11400076837B906F110000768BF
:10452000A7B101E00846076807F114010A68002AEC
:1045300002BF07F110010A68002AF3D121698842FD
:1045400002D30021016001E005F079F8BAF1000F13
:1045500038D0F06904EB800000F5987001688E4255
:1045600009D10760380014D1F269606801219140D7
:104570008843606026E02069824508D3DAF810009D
:10458000B04214BFCAF81470CAF8107001E005F008
:1045900056F8BFB12069874212D3C7F818A0306916
:1045A00030B12169884226BF3861876105F047F83C
:1045B000706938B12169884202D37861876101E06E
:1045C00005F03DF8BBF1100F0CD208EB0B0040F0EA
:1045D0000300706008EB0B008019416841F0010195
:1045E000416096E048F0030070604BF001006860A5
:1045F0004FEADB004BF805B020281DD204EBC001C8
:1046000001F12807216821FA00F2D207BB4605D440
:10461000012202FA00F00843206006E0B868216930
:1046200088422CBF834605F00AF8BD60CBF80C50D9
:10463000C5F808B0EF606CE05FEA1B2108BF0020FE
:1046400023D0B1F5803F28BF1F201ED2A1F5807076
:10465000000C00F008008140A1F58052120C02F01D
:1046600004029140A1F580431B0CC0F10E0003F041
:104670000203801AC01A994000EBD130C11D2BFAF9
:1046800001F202F0010101EB4000E86100226A61E1
:104690002A6104EB8001626822FA00F3DB0701F56E
:1046A000987106D4012303FA00F0104360600D6096
:1046B0001CE009681F280EBF00204008C0F1190047
:1046C0000BFA00F000E011464A68D208D2005A45C1
:1046D00010D0C20F01EB820202F1100340001A68F1
:1046E000002AF0D12069834211D31D60A961ED60D9
:1046F000AD600EE022698868914228BF904206D3DF
:10470000C5608D60A860E9600020A86101E004F048
:1047100096FF06F10800BDE8F08D04F090FF002040
:10472000BDE8F08D2DE9F84F0446884660684142A7
:104730000840401E010B01F01001C840420902F080
:104740000802D040830803F00403D840450805F070
:1047500002055118E8405918C0F340062944711861
:10476000F040401804EB8000D0F830014168C908DF
:10477000C9000646A1EB080A09E008464168C908D5
:10478000C900A1EB080151453CBF8A4606460169B4
:104790000029F2D140690028F0D120698642C0F09A
:1047A000C4807068C00808EB0A09C00008EB060B5B
:1047B000484518BF04F043FF5E4580F0B680F768B7
:1047C000B569B7420CD0B0682169884223D3C1686B
:1047D000B14204BFB968B1421DD1C760B8601CE0E6
:1047E00006F11400076837B906F110000768A7B191
:1047F00001E00846076807F114010A68002A02BFB1
:1048000007F110010A68002AF3D12169884202D316
:104810000021016001E004F012FF002D34D0F069A6
:1048200004EB800000F5987001688E4209D10760A2
:10483000380011D1F26960680121914088436060BD
:1048400022E02069854205D32869B04214BF6F6118
:104850002F6101E004F0F3FEB7B12069874211D364
:10486000BD61306930B12169884226BF38618761F6
:1048700004F0E5FE706938B12169884202D378619D
:10488000876101E004F0DBFEBAF1100F09D249F0B4
:104890000300706009EB0600416841F001014160CE
:1048A0003FE048F0030070604AF00100CBF80400DC
:1048B0004AF80BA0D4F808804FEAD805202D28BF6D
:1048C00004F0BDFEB8F1000F27D0D4F81490009585
:1048D00004EBC50000F128052F46B8F1100F38BFD2
:1048E00004F0ADFE2068009920FA01F2D10705D44A
:1048F000009A012191400843206006E0A8682169E0
:1049000088422CBF074604F09AFEC5F80890C7F805
:104910000C90C9F80870C9F80C50C4F808A0C4F885
:1049200014B006F10800BDE8F28F04F088FE002004
:10493000BDE8F28F2DE9F04F83B00546C046C04672
:10494000F52DDFF8B84780F002810B2D31BF10271D
:1049500005F10B00C708FF002068FE08F04010F0CA
:10496000030F42D0C04300F00100861904EBC600DB
:1049700000F12808F700D8F808506868C008C0009F
:10498000B84218BF04F05BFED5F80890454508BF53
:1049900004F055FE4D4508BF04F051FE6868C0089C
:1049A000C000B84218BF04F04AFEC84505D12068CF
:1049B0000121B140884320600DE02069814508D382
:1049C000D9F80C00A84204D1C8F80890C9F80C80A6
:1049D00001E004F034FE47F0030068607819083500
:1049E000416841F001014160F9E0A168B94280F0FD
:1049F000C080002800F0A280012505FA06F14900D8
:104A00004A42B0401143084041420840401E010B59
:104A100001F01001C840420902F00802D0408308AA
:104A200003F00403D840460806F002065118F0408F
:104A30005918C0F340087118414420FA08F000EBFF
:104A4000010804EBC80000F128094FEAC80AD9F8A8
:104A500008607068C008C000504518BF04F0EFFD42
:104A6000D6F808B04E4508BF04F0E9FD5E4508BF22
:104A700004F0E5FD7068C008C000504518BF04F0A0
:104A8000DEFDD94505D1206805FA08F1884320608C
:104A90000DE02069834508D3DBF80C00B04204D157
:104AA000C9F808B0CBF80C9001E004F0C8FD47F05D
:104AB00003007060AAEB0708B819019048F00100E4
:104AC00001994860019848F80080A7684FEAD70A22
:104AD000BAF1200F28BF04F0B2FD47B3CDF800A013
:104AE00004EBCA00D4F8149000F1280AD346102F22
:104AF00038BF04F0A4FD2068009920FA01F2D10724
:104B000005D4009905FA01F10843206007E0DAF8BE
:104B10000800216988422CBF834604F090FDCAF842
:104B20000890CBF80C90C9F808B0C9F80CA0C4F8EC
:104B3000088006F108050198606150E06068C0B324
:104B400039462046FFF7EEFD050012D047E015F18B
:104B5000400F28BF4FF0FF370BD205F10B00C708FD
:104B60006068FF0028B139462046FFF713FC0500B6
:104B700035D1A068B8421CD3C11B626910290AD381
:104B8000B8186061A16041F001034360095047F02B
:104B9000030050600AE00021A160616140F0030160
:104BA00051608018416841F00101416002F108053F
:104BB00015E0E06887420DD2C01BA169E0607A1859
:104BC000A26140F00100506001F1080547F00300C8
:104BD000486004E039462046FFF712FA0546C04611
:104BE000C046284603B0BDE8F08F00B970472DE9F4
:104BF000F047A0F10804C046C046DFF80055286918
:104C00008442C0F07482616801F00302012A00F05E
:104C10006E82CA084FEAC208CA0708EB040936D4F4
:104C2000226811F0030F00F06482A41A84429044B9
:104C3000C0F05D8269698C4200F0D880D608202ED1
:104C400070D2D4F80CA0A768544508BF04F0F7FC54
:104C5000BC4208BF04F0F3FC6068C008C000B0EBC1
:104C6000C60F18BF04F0EBFC05EBC60000F12801ED
:104C70008F4205D029698F4251D3F968A1424ED1A4
:104C8000BA453DD128680121B140884328604C4590
:104C900080F02D82D9F80400C10740F128828107F5
:104CA00000F17A81A969894540F0B580E868AC6176
:104CB0004044E86040F00101616069698C4202D1C2
:104CC00000216961A960E969814280F01282DFF800
:104CD0003004006808B9FEF7AAFFA969002900F0AE
:104CE0000882E868292824BF2846FEF793FFE86970
:104CF000E968884280F0FD814FF0FF30E861F8E11B
:104D00002830824506D02869824508D3DAF80800A1
:104D1000A04204D1C7F80CA0CAF80870B7E704F0A5
:104D20008EFCB4E7E768A669A7420BD0A168814270
:104D300022D3C868A04204BFB868A0421CD1CF608B
:104D4000B9601BE004F114010F6837B904F11001D8
:104D50000F689FB101E011460F6807F11402136854
:104D6000002B02BF07F110021368002BF3D1814220
:104D700002D30020086001E004F061FC002E86D020
:104D8000E06905EB800000F5987001688C4209D15C
:104D90000760380011D1E2696868012191408843B9
:104DA000686074E72869864205D33069A04214BF61
:104DB0007761376101E004F042FC002F3FF467AFF8
:104DC00028698742ABD3BE61216929B1814226BFE0
:104DD00039618F6104F033FC606900283FF457AFFC
:104DE000296988429BD37861876150E799F804006C
:104DF00000F0030003287FF44AAFC5F80880D9F813
:104E0000040040084000C9F8040048F00100606058
:104E100048F804806DE16969894508D1A8686C612A
:104E20004044A86040F001016160005161E1C008A8
:104E3000C0004FEAD00ABAF1200F804436D2D9F828
:104E40000C70D9F80860B94508BF04F0F8FBB1450B
:104E500008BF04F0F4FBD9F80400C008C000B0EBB0
:104E6000CA0F18BF04F0EBFB05EBCA0000F12801E4
:104E70008E4206D029698E42C0F08180F168494592
:104E80007DD1B74206D12868012101FA0AF1884391
:104E9000286076E02830874205D0286987426ED3A3
:104EA000B86848456BD1F760BE606AE0D9F80C700D
:104EB000D9F818604F450DD0D9F808002969884203
:104EC00023D3C168494504BFB96849451DD1C760AE
:104ED000B8601CE009F11400076837B909F1100047
:104EE0000768A7B101E00846076807F114010A68DE
:104EF000002A02BF07F110010A68002AF3D12969CC
:104F0000884202D30021016001E004F098FB002EEA
:104F100037D0D9F81C0005EB800000F598700168C7
:104F200089450AD10760380012D1D9F81C20686879
:104F3000012191408843686023E02869864205D3B7
:104F40003069484514BF7761376101E004F077FBB1
:104F5000BFB12869874212D3BE61D9F8101029B1B8
:104F6000814226BF39618F6104F069FBD9F81400D2
:104F700038B12969884202D37861876101E004F081
:104F80005EFB48F00100606048F804806869844274
:104F90000BD1C5F80880ACE040084000C9F8040017
:104FA00048F00100606048F804804FEAD807202FDD
:104FB00022D205EBC70000F128094E46B8F1100FC8
:104FC00038BF04F03CFB286820FA07F1C90704D475
:104FD0000121B9400843286007E0D9F80800296991
:104FE00088422CBF064604F02AFBC9F80840F4604A
:104FF000A660C4F80C907CE05FEA182008BF00218E
:1050000023D0B0F5803F28BF1F211ED2A0F58071AC
:10501000090C01F008018840A0F58052120C02F042
:1050200004029040A0F580431B0CC1F10E0103F077
:105030000203891AC91A984001EBD030C11D28FA21
:1050400001F202F0010101EB4001002262612261E4
:10505000E16105EB81006A6822FA01F3DB0700F5E4
:10506000987006D4012303FA01F1114369600460CA
:105070001CE000681F290EBF00214908C1F1190179
:1050800008FA01F100E010464268D208D200424519
:1050900010D0CA0F00EB820202F1100349001A6817
:1050A000002AF0D129698B4211D31C60A061E46011
:1050B000A4600EE02A698168904228BF914206D31D
:1050C000CC608460E060A1600020A06101E004F099
:1050D000B6FA286A401E28620BD1D5F8C80100E054
:1050E00080680028FCD14FF0FF30286201E004F016
:1050F000A6FAC046C046BDE8F0870000282F002071
:10510000103400205FF0FF0C1CEAD05114BF614541
:1051100006E0C110400721F0E04101F16051704705
:1051200079B900F0004100020AD0B0FA80FC00FA20
:105130000CF001F16051A1EB0C5101EBD0214005C5
:10514000704741020CBF40F4E0016FF00001002005
:10515000704700000CB41CB5044604A801900A4630
:10516000009401AB694607487844183001F0C2FD4D
:10517000009A0021117000285CBF0098001B16BC2B
:105180005DF80CFB9BE9FFFF4FF4001C1CEB410F8B
:1051900094BF1CEB430F09E041EA030C50EA4C0CAE
:1051A00052EA0C0C03D28B4208BF8242704714BFF4
:1051B00099429042704780B50022002104F00AFB1A
:1051C00041EC100B01BD00004FEAF17CBCF1E04C5A
:1051D0002CBFBCF5001F11E05FEA4C0C34BFBCF1E2
:1051E0007F5F2EE05FEA9C0C4FEA0C1C4FEA3C0C00
:1051F000C10071F100414CEB50707047C90241EAA7
:105200005051C00218BF41F0010141F000414FEA86
:105210006C50C0F10900212810D240EACC7CCCF1BE
:10522000200C11FA0CF070F10040CCF1200C21FAA6
:105230000CF00CF0004C40EB0C0070474FEACC70C7
:105240007047490011F5001F04D84FEACC10FF3019
:10525000C0057047C81770474FF4001C1CEB410F86
:1052600094BF1CEB430F09E041EA030C50EA4C0CDD
:1052700052EA0C0C03D2994208BF9042704714BF07
:105280008B42824270470A22002104F047BB80B55E
:10529000002204F09FFA41EC100B01BD80B5002202
:1052A0000221272004F0CCFB272004F0DAFB01BD0B
:1052B00080B5002000904A48006850F0020048493C
:1052C00008604748006810F00200009000984548C8
:1052D000454908604FF41650434948600020424950
:1052E000886000204049C86000203F4908610C20C8
:1052F0003D49486100203C49886100203A49C86125
:105300003948FDF7E1FFFFF7C9FF01BD38B50400DB
:105310000D006420FDF712FF207834490870012247
:105320004FF48071324804F0BAFC4FF6FF73EDB2CF
:105330002A0092B221002C48FEF701F800280DD176
:105340002948006800684006FAD5002029490880ED
:1053500000224FF48071264804F0A1FC0520FDF7DF
:10536000EDFE31BD10B500246420FDF7E7FE0220FC
:105370002149087003202049487002201E49887086
:1053800000201D49C87000201B490871FC201A49E3
:105390004871442018498871072016490880174829
:1053A000FDF780FF0A211448FDF73FFD11480488EE
:1053B000A4B2002C02D11248FDF774FF0D480088FA
:1053C0001049088000200B4908800520FDF7B6FE33
:1053D000A4B221000C48FDF765FF200080B210BD8B
:1053E0003038024000480040403300207434002030
:1053F000001C024056340020BC330020B8D3000803
:10540000C8D30008E8010020D8D3000810B5040074
:10541000002C01D101204FE094F91D00002804D197
:1054200000202077200004F0B9FD02206077CA2018
:1054300021684862532021684862200000F0B6F9D4
:10544000002806D0FF2021684862042060770120F0
:1054500032E020688068DFF8141308402168886013
:1054600020688068616822691143626911430843BA
:1054700021688860E0682168086120680069A16887
:1054800050EA0140216808612068C06830F080005F
:105490002168C8602068006C30F4802021680864AE
:1054A0002068006CA169084321680864FF20216816
:1054B000486201206077002010BDF8B504000D009F
:1054C000002694F91C00012801D102207DE0012072
:1054D000207702206077002A1BD120688068400670
:1054E00001D40020E870287800F07CF90600687884
:1054F00000F078F90700A87800F074F9F6B2FFB26E
:10550000390251EA0641C0B20843E97850EA01463F
:1055100014E020688068400604D5287800F06DF912
:10552000060001E00020E87028786978090251EA55
:105530000040A9780843E97850EA0146CA2021686A
:105540004862532021684862200000F02FF90028AB
:1055500008D0FF202168486204206077002020776F
:10556000012032E0DFF8080230402168086020683E
:10557000806830F480202168886020688068E9684D
:105580002A6911430843216888602068C06830F0A8
:1055900080002168C8602068806880060DD42000E3
:1055A00000F0EAF8002808D0FF20216848620420B3
:1055B000607700202077012007E0FF202168486203
:1055C00001206077002020770020F2BD10B50C008C
:1055D00000210168896A6160016809694904490C10
:1055E000A16000680068DFF888110140080C10F025
:1055F0003F002070080A10F07F00607011F07F00FB
:10560000A070080C10F04000E070002A0BD1207848
:1056100000F0F3F82070607800F0EFF86070A07888
:1056200000F0EBF8A070002010BDF8B504000D00EC
:10563000002694F91C00012801D1022070E001200D
:10564000207702206077002A07D16878C00604D549
:10565000687810F0EF000A306870002A15D1E878F9
:1056600000F0C0F80600687800F0BCF80700A878E1
:1056700000F0B8F8F6B2FFB2390251EA0641C0B202
:105680000843297850EA413611E0687800F0B5F80F
:105690000600A87800F0B1F80600E87869780902F9
:1056A00051EA0040A9780843297850EA4136CA20D7
:1056B00021684862532021684862200000F076F893
:1056C000002808D0FF20216848620420607700206D
:1056D0002077012024E0DFF89C00304021684860FA
:1056E0002068C06830F080002168C8602068806849
:1056F00080060DD4200000F03FF8002808D0FF20DD
:10570000216848620420607700202077012007E0AC
:10571000FF20216848620120607700202077002068
:10572000F2BD10B50C00002100684068DFF844109D
:105730000140080CE070080A10F01F00607011F0C2
:105740003F00A070480B10F007002070002A0BD11A
:10575000E07800F052F8E070607800F04EF8607089
:10576000A07800F04AF8A070002010BDBFFF8FFFA6
:105770007F7F7F003FFFFF0038B5040000252068D1
:10578000C06830F0A0002168C86002F0D2FC0500BB
:105790002068C068800607D402F0CBFC401BB0F53F
:1057A0007A7FF5D9032000E0002032BD38B504002F
:1057B00000252068C068400612D45FF0FF302168E1
:1057C000C86002F0B6FC05002068C068400607D437
:1057D00002F0AFFC401BB0F57A7FF5D9032000E062
:1057E000002032BD002101E0491C0A38C0B20A285D
:1057F000FAD250EA0110C0B2704700210100C9B2CC
:105800000909C9B20A225143C0B210F00F00401872
:10581000C0B27047F446400D40EAC120490006D2AC
:1058200000F014F8004248BF6FF00040604700F0FD
:105830000DF84FF0004188428CBF08464042604757
:10584000400D40EAC120490080F00D8040F000404A
:10585000490DA1F58061491C05D4D1F11F0154BF48
:10586000C840C01770474FF000007047F0B44FF0C9
:10587000004591EA030F44BF6B4000F025BB00BF19
:10588000841A71EB030604D26E40001BB141121959
:1058900073414FF4001C1CEB410F34BF7CEB4306FB
:1058A00084E00C0DA4EB1356362E7DDC012E43DC78
:1058B00045EAC32343EA525312BFD20292025B0865
:1058C000240545EAC12141EA5051D2EBC02099415B
:1058D00025D407D1B0FA80F610FA06F164D0002082
:1058E000203608E0B1FA81F6B140C6F1200220FA74
:1058F00002F21143B0404FEAF474B4EB465434F072
:1059000001064FEA74040AD8D6F50016760D04F0A5
:105910000044F04061FA06F25040F1404840C00AAD
:1059200040EA415021F0004128BF5FEA500550F1A4
:10593000000044EBD12137E045EAC323DB0A45EA06
:10594000C121C90AB6F120050EDD42EA0242120C5D
:10595000C5F1200603FA06F6EB4042EA06056D4261
:10596000984161F100010DE062FA06F5F240554000
:1059700063FA06FC82EA0C02F3405A406D42904101
:1059800061EB030111F4801F05D1641E620502D092
:105990006D004041494121F48011430875F10043F5
:1059A00050F1000041EB0451F0BC70471CEB410F7B
:1059B00015D223F0004352EA43060BD04FEA4C0CB9
:1059C000BCEB410F04D80C0D661E342EB7DDEBE79F
:1059D000801A994150EA410608BF0021E4E708BF58
:1059E0001CEB430F28BF6FF00001DDE7B0B581EA83
:1059F000030C0CF0004C40F2FF7515EA11541DBF6A
:105A000015EA1357AC42AF4239E0E41923EA455393
:105A100043F48013C90241F0004141EA505EC702DD
:105A20001100A7FB020200284FF00000EEFB01204E
:105A30004FF00001E3FB072118BF42F001024018BC
:105A400000214941E3FB0E01A4F580640F0302D25B
:105A500052004041494154F101046CDD470872F1A4
:105A6000004250F1000051EB0451A1F580115CBFE0
:105A700041EA0C01B0BD4CEA05510020B0BD05EA79
:105A80001357AC4214BFAF4241E050EA410E1CBF75
:105A900052EA430E02E061460020B0BD24423C447D
:105AA0001BD15FEA070EF6D0090302BF01460020B2
:105AB000AEF1140EB1FA81F7AEEB070401FA07FE5E
:105AC0000C37C7F1200100FA07F7C8404EEA000E74
:105AD00023EA455343F48013A2E733F00043B3FABB
