:020000040800F2
:10000000F811002095EE000869CF00086BCF0008BA
:1000100087CF0008A3CF0008BFCF00080000000072
:10002000000000000000000000000000DBCF00081E
:10003000DDCF000800000000DFCF0008E1CF00089E
:1000400069EF00086DEF000871EF000875EF000818
:1000500079EF0008EDCF00087DEF000881EF000880
:1000600085EF000889EF00088DEF000891EF000888
:1000700095EF000899EF00089DEF0008A1EF000838
:10008000A5EF0008A9EF0008ADEF0008B1EF0008E8
:10009000B5EF0008B9EF0008BDEF000855D0000823
:1000A000C1EF0008C5EF0008C9EF0008CDEF000858
:1000B000D1EF0008D5EF0008D9EF0008DDEF000808
:1000C000E1EF0008E5EF0008E9EF0008EDEF0008B8
:1000D000F1EF0008EFCF0008F5EF0008F9CF0008B6
:1000E00041D00008F9EF0008FDEF000801F000081A
:1000F00005F0000809F000080DF0000811F00008F4
:1001000015F0000819F000081DF0000821F00008A3
:1001100025F0000829F0000803D000082DF00008A1
:1001200031F0000835F0000839F000083DF0000813
:1001300041F0000845F0000849F000084DF00008C3
:1001400051F0000855F0000859F000085DF0000873
:1001500061F0000865F0000869F000086DF0000823
:1001600071F0000875F0000879F000087DF00008D3
:1001700081F0000885F0000889F000080000000008
:100180008DF0000891F00008BFF34F8FDFF82807CB
:10019000006810F4E060DFF824170843DFF8181750
:1001A0000860BFF34F8F00BFFDE77EB4002200233D
:1001B00000236B4600240025002670C30C3B03007F
:1001C000002B00D540420A2490FBF4F504FB1504F3
:1001D00030346D465455521C0A2490FBF4F001282B
:1001E000F1DA002B03D52D206B46D054521C002091
:1001F0006B46D054130006E06846181810F8010C3E
:10020000D41A60545B1E002BF6D577BC704710B52E
:10021000ADF5836D03A8202103F09CFD00240BA8FD
:100220004FF47A7103F096FDDFF8940603F09AFD1F
:100230000400641C03A92000FFF7B7FF1E2C0FDA8F
:100240002200DFF87C16DFF87C0603F0A7FDDFF85C
:100250007816DFF8780603F0B3FD03F0F9FB75E0DC
:10026000DFF85C160BA803F0C5FD23200BA961186D
:1002700001F8010CDFF858060068012803D131208D
:100280000BA9605402E030200BA9605400200BA998
:100290006118487000200BA961188870641C002048
:1002A00003F067FE03A803F05DFD020092B20A218D
:1002B00003A803F0B2FE0BA803F054FD020092B2B3
:1002C00014210BA803F0A9FE684600210022002398
:1002D0000EC00C380A220021684603F03AFF0A22B9
:1002E0000A21684603F035FF684603F0A3FFB0F526
:1002F0007A7F02DD0A2190FBF1F0401CA04204D17C
:10030000DFF8D00503F04AFD0BE0DFF8CC0503F081
:1003100045FDDFF8C815DFF8B40503F051FD03F023
:1003200097FB312001F0BCFE322001F0B9FE3320F2
:1003300001F0B6FE342001F0B3FE352001F0B0FE2E
:1003400003F0AAFB03F062FB03F058FB0DF5836D8D
:1003500010BD00002DE9F0412DED048B017890F8DF
:1003600001808478C578B7EE008AC9B2802901D3AC
:10037000BFEE008ADFED658AC9B280290DD3C9B20C
:10038000080003F065FF0022DFF8543503F06EFF2C
:1003900003F0E0FF08EE900A04E0C9B200EE101A84
:1003A000F8EE408A18EE900A04F01CF800225FF084
:1003B000804304F03FF803F0CDFF08EE900A5FFAA7
:1003C00088F8B8F1800F0CD318EE900A04F00AF800
:1003D0000022DFF8103503F049FF03F0BBFF08EE01
:1003E000900A18EE900A03F0FDFF0022DFF8F834BF
:1003F00003F03CFF03F0AEFF08EE900A9FED439A36
:100400005FFA88F8B8F1800F0CD35FFA88F840469D
:1004100003F01EFF0022DFF8C83403F027FF04F0CA
:10042000DBF88046EDB2280003F012FF06000F0053
:10043000E4B2200003F00CFF04000D005FFA88F81E
:10044000404603F005FF0022DFF8A03403F0F2FF7E
:1004500022002B0003F00AFF0022DFF8903403F0A3
:10046000E9FF32003B0003F001FF03F073FF09EEE8
:10047000100A9FEDC00A89EE009A18EE100A03F0E8
:10048000B1FF04000D0018EE900A03F0ABFF41EC41
:10049000110B9FEDD40B04F00CFB51EC100B220060
:1004A0002B0003F0C7FF04000D00B7EE000A39EE81
:1004B000000A10EE100A03F095FF22002B0003F053
:1004C000B9FF03F047FF00EE100ABDEC048BBDE856
:1004D000F08180B5DFF8180403F060FCDFF8140445
:1004E0000088642810DADFF8100400880B280BDA83
:1004F00003F094FA052003F0EDFA03F074FA4FF4D8
:10050000C870DFF8F413088001BD0000000000008F
:10051000087080B2000A4870704738B504000025A2
:100520000020052C40F0B3800024A9E02021002207
:10053000DFF8C8034FF4C47303FB0405280004F07C
:10054000D7FC0020DFF8B4134FF4C47202FB04118F
:1005500081F820000020DFF8A4134FF4C47202FBDE
:10056000041148625FF0FF30E4494FF4C47202FBAB
:100570000411C8620020E1494FF4C47202FB041167
:1005800088620020DD494FF4C47202FB0411486404
:100590004FF47A70D9494FF4C47202FB0411C1F8C8
:1005A00060010C210022D5484FF4C47303FB040002
:1005B00010F5A875280004F09BFC0020CF494FF4EB
:1005C000C47202FB0411C1F8640178210022CB48F7
:1005D0004FF4C47303FB040010F1C005280004F0BD
:1005E00087FC0C210022C5484FF4C47303FB0400B0
:1005F00010F5A275280004F07BFC78210022BF488A
:100600004FF4C47303FB040010F14805280004F004
:100610006FFC0C210022B9484FF4C47303FB0400A3
:1006200010F14805280004F063FC0020B3494FF4A2
:10063000C47202FB0411C1F86801B0484FF4C471E0
:1006400001FB040000220023C0E95C23AB484FF407
:10065000C47101FB040000220023C0E95E230020D6
:10066000A6494FF4C47202FB0411C1F85C010020DA
:10067000A2494FF4C47202FB041181F88001641C8A
:10068000052CFFF653AF9E4803F088FB70E0062C64
:1006900000DB641E9B48402101FB04000022002374
:1006A000C0E904239748402101FB040000220023F5
:1006B000C0E9022300209349402202FB0411087084
:1006C00000209049402202FB041181F828008D4847
:1006D000402101FB040000220023C0E906238948D1
:1006E000402101FB040000220023C0E90823002070
:1006F0008449402202FB041188638248402101FBA7
:1007000004000021C16200207E49402202FB041146
:10071000086306207B49402202FB041181F8340063
:1007200000207849402202FB041181F835000020A6
:100730007449402202FB041181F8360071484021BF
:1007400001FB0400856B002D0DD02D6F00206D493D
:10075000402202FB0411886303E028002D6F05F09E
:10076000E6FB002DF9D12100DFF8140D03F016FB94
:1007700031BD00000000004B80B5DFF8080D03F02C
:100780000DFB0020FFF7C9FE0120FFF7C6FE022087
:10079000FFF7C3FE0320FFF7C0FE0420FFF7BDFEF6
:1007A0000520FFF7BAFE0620FFF7B7FE0720FFF788
:1007B000B4FE0020DFF8D01C08700020DFF8CC1C4D
:1007C00008700020DFF8C81C08700020DFF8C41C87
:1007D00008704FF47A73012233A1DFF8BC0C05F0E6
:1007E0006EFE01BD000000000000004070B5DFF8A3
:1007F000AC0C03F0D3FA002400252CA1304806F0FD
:1008000007FA040029A1002006F002FA050094F975
:100810000000B0F131062A002100DFF8840C03F05B
:10082000BDFA94F90000313805280FD394F900106F
:10083000DFF8700C03F0B2FA94F90020DFF8681CBE
:10084000DFF8780E03F0BCFA03F002F918A12800D3
:1008500006F004FA00280DD194F9000001F020FC04
:100860004FF47A7025494FF4C47202FB0611C1F8A7
:10087000600118E00FA1280006F0F0F9002804D16B
:1008800094F9000001F0A8FA0DE02900DFF81C0C33
:1008900003F084FA2A00DFF8181CDFF8200E03F0BA
:1008A0008FFA03F0D5F870BD5B0000002C0000004B
:1008B00030000000310000000CED00E00400FA05FB
:1008C000A0290020E8DE000898EB00085032002044
:1008D00020000020CCE80008E8E800088CE60008CA
:1008E000000060C00000F03F00C05FC0000070402A
:1008F00004E900080A3500200E350020F821002008
:10090000ACE60008782F002070B504000026002512
:1009100094F90000302809D194F90100782803D017
:1009200094F90100582801D1022609E0002607E0C9
:10093000305706F0B4F910EB0510B0F13005761C15
:10094000305730380A2807D3305761381A2803D374
:10095000305741381A280CD2305706F0A0F93A28FF
:10096000E6DB305706F09BF910EB0510B0F15705A8
:10097000E5E7280070BD00002DE9F8432DED048B5C
:10098000ADF5107D040089460020002603A84FF431
:100990000C7103F0DFF90025002500275FF0000847
:1009A00002A1484606F034F90BE000BF2C0000001D
:1009B000EAA1002006F02CF903A9EDB241F82500C8
:1009C0006D1C0028F4D1EDB20A2D17DA052C15D0D4
:1009D000EDB22A002100DFF8E80C03F0DFF9EDB2F8
:1009E0002B002200DFF8DC1CDFF8D00C03F0E8F964
:1009F00003F02EF85FF0FF3000F03CBD052C40F016
:100A0000B382039803F016FC0700002554E0DFF8DA
:100A1000BC1CF6B24FF4C47202FB061111EB80014C
:100A200003AAEDB2052303FB05F312EB830212695F
:100A30008256303ACA62DFF8941CF6B24FF4C472A0
:100A400002FB061111EB8001C96A062914DBDFF8ED
:100A50007C1CF6B24FF4C47202FB061111EB80014C
:100A6000DFF8682CF6B24FF4C47303FB062212EBD6
:100A70008002D26A521ECA62DFF8F81DDFF84C2CE1
:100A8000F6B24FF4C47303FB062212EB8002D26A63
:100A9000402303FB021181F83460401C5FFA88F8A0
:100AA0004045B4DB0020DFF8241CF6B24FF4C472DA
:100AB00002FB061148626D1CEDB2FFB2BD4280F030
:100AC000518203A8EDB2052101FB05F110EB810075
:100AD000806890F90000B0F1310603A8EDB205215D
:100AE00001FB05F110EB81004168DFF8E00BF6B285
:100AF0004FF4C47202FB060003F07CF903A8EDB2C8
:100B0000052101FB05F110EB810080680078DFF81A
:100B1000BC1BF6B24FF4C47202FB061181F8200030
:100B2000DFF8A80BF6B24FF4C47101FB060090F990
:100B300020003138052823D3DFF8900BF6B24FF4AC
:100B4000C47101FB060090F920202100DFF8800B22
:100B500003F024F9DFF8740BF6B24FF4C47101FB13
:100B6000060090F920302200DFF8681BDFF84C0BFC
:100B700003F026F902F06CFF5FF0FF3000F07ABC62
:100B800003A8EDB2052101FB05F110EB81004069DE
:100B900006F08FF8DFF8340BF6B24FF4C47101FBA6
:100BA000060080ED5E0BDFF8240BF6B24FF4C47143
:100BB00001FB0600D0F87C11D0F878010022002358
:100BC00006F080F825D2DFF8040BF6B24FF4C471BA
:100BD00001FB0600D0E95E232100DFF8A00C03F042
:100BE000DDF8DFF8E80AF6B24FF4C47101FB060045
:100BF00090ED5E0B8DED000B2200DFF8841CDFF81A
:100C0000BC0A03F0DDF802F023FF5FF0FF3000F0D4
:100C100031BC03A8EDB2052101FB05F110EB810009
:100C2000C06803F007FBDFF8A41AF6B24FF4C472F1
:100C300002FB06114864DFF8940AF6B24FF4C4715F
:100C400001FB0600406C05283FF435AFDFF87C0A55
:100C5000F6B24FF4C47101FB0600406C401E072839
:100C600020D3DFF8680AF6B24FF4C47101FB060026
:100C7000426C2100DFF80C0C03F090F8DFF84C0A0E
:100C8000F6B24FF4C47101FB0600436C2200DFF89A
:100C9000F81BDFF8280A03F093F802F0D9FE5FF0A2
:100CA000FF30E7E3DFF8240AF6B24FF4C47101FB2A
:100CB0000600406C042840F07E8003A8EDB20521B8
:100CC00001FB05F110EB8100006903F04BF8A4A1D2
:100CD00003A8EDB2052202FB05F210EB82000069C9
:100CE00005F096FF8046002088F805004146DFF8B1
:100CF000DC09F6B24FF4C47202FB060010F59C70DA
:100D000003F078F818F10601DFF8C009F6B24FF4E5
:100D1000C47202FB060010F5A27003F06BF84146A6
:100D2000DFF8A809F6B24FF4C47202FB060048309F
:100D300003F060F818F10601DFF89009F6B24FF4FD
:100D4000C47202FB0600C03003F054F85FF00109E2
:100D5000B8F1000F3FF4A6AE81A101E02C00000025
:100D6000002005F055FF8046002088F80500414628
:100D7000DFF85809F6B24FF4C47202FB06005FFABE
:100D800089F90A2202FB0900483003F033F818F110
:100D90000601DFF83809F6B24FF4C47202FB060010
:100DA0005FFA89F90A2202FB0900C03003F022F839
:100DB00019F10109CCE7DFF81409F6B24FF4C47158
:100DC00001FB0600406C032831D103A8EDB20521D8
:100DD00001FB05F110EB810000690021417103A8BE
:100DE000EDB2052101FB05F110EB81000169DFF88F
:100DF000DC08F6B24FF4C47202FB060010F5A870CE
:100E000002F0F8FF03A8EDB2052101FB05F110EB9C
:100E100081000069811DDFF8B408F6B24FF4C47296
:100E200002FB060010F5A27002F0E4FF3AE6DFF8DC
:100E30009C08F6B24FF4C47101FB0600406C062812
:100E40005AD10120DFF88418F6B24FF4C47202FBC5
:100E50000611886203A8EDB2052101FB05F110EB34
:100E60008100006990F900003038DFF86018F6B2B0
:100E70004FF4C47202FB0611C862DFF85008F6B2E4
:100E80004FF4C47101FB0600C06A062810DBDFF8CE
:100E90003C08F6B24FF4C47101FB0600C06A401E64
:100EA000DFF82818F6B24FF4C47202FB0611C862CC
:100EB000DFF8C009DFF81418F6B24FF4C47202FB71
:100EC0000611C96A402202FB010080F8346003A8C1
:100ED000EDB2052101FB05F110EB81000069801CDA
:100EE00005F0E7FEDFF8E407F6B24FF4C47101FB4A
:100EF000060080ED5C0BD5E503A8EDB2052101FBF2
:100F000005F110EB8100006902F02CFF80465FFACA
:100F100088F8B8F1080F16DB5FFA88F8424621001E
:100F2000DFF86C0902F03AFF5FFA88F843462200C6
:100F3000DFF86019DFF8840702F042FF02F088FD55
:100F40005FF0FF3096E25FFA88F8DFF88007F6B2CC
:100F50004FF4C47101FB0600C0F8288000209DE515
:100F60002E000000002085E2062C00DB641EDFF866
:100F70000409402101FB04004470039803F05AF96E
:100F8000DFF8F018402202FB04110870DFF8E408D3
:100F9000402101FB040000780B281CDBDFF8D4089B
:100FA000402101FB040002782100DFF8EC0802F088
:100FB000F5FEDFF8C008402101FB040003782200A1
:100FC000DFF8D818DFF8F40602F0FAFE02F040FD70
:100FD0005FF0FF304EE20021049805F08AFEB0EE8B
:100FE000408AF0EE608A0021059805F082FEB0EE9E
:100FF000409AF0EE609A51EC190B53EC182B05F067
:1010000061FE18D28DED008B53EC192B2100DFF817
:10101000900802F0C3FE8DED028B8DED009B220047
:10102000DFF88018DFF8940602F0CAFE02F010FD27
:101030005FF0FF301EE2DFF83C08402101FB0400B6
:1010400080ED028BDFF82C08402101FB040080EDCD
:10105000049B0021079805F04CFEB0EE408AF0EEAC
:10106000608A0021069805F044FEB0EE409AF0EE4A
:10107000609A052C06D151EC180B03F06BF9DFF8E0
:101080004C1C086051EC180B53EC192B05F01AFEA0
:1010900018D28DED009B53EC182B2100DFF8300C9B
:1010A00002F07CFE8DED029B8DED008B2200DFF8BF
:1010B000241CDFF8080602F083FE02F0C9FC5FF092
:1010C000FF30D7E1DAA1089805F0C8FD002808D163
:1010D0000120DFF8A017402202FB041181F835003F
:1010E00007E00020DFF88C17402202FB041181F892
:1010F0003500DFF88007402101FB040080ED068BFE
:10110000DFF87007402101FB040080ED089B002000
:10111000DFF86017402202FB041181F8280000204C
:10112000DFF85017402202FB04118863DFF8440700
:10113000402101FB04000021C1620020DFF83417C8
:10114000402202FB041108630020DFF82817402228
:1011500002FB041181F8360000250DE0DFF81407CA
:10116000402101FB0400806B3067DFF80807402155
:1011700001FB040086636D1CDFF8F806402101FBCB
:1011800004000078EDB2854280F07381782004F08D
:1011900073FD060003A8EDB2092101FB05F110EB78
:1011A00081008169300002F025FE03A8EDB209211B
:1011B00001FB05F110EB8100C16916F1200002F07E
:1011C00019FE002814D116F120022100DFF8080BC7
:1011D00002F0E4FD16F120032200DFF8001BDFF827
:1011E000DC0402F0EDFD02F033FC5FF0FF3041E182
:1011F000062C32D10020ADF8080003A8EDB2092179
:1012000001FB05F110EB8100C06900788DF8080042
:1012100003A8EDB2092101FB05F110EB8100C069C3
:1012200040788DF8090002A8FFF76EFB0700DFF891
:10123000B00A07700621DFF8A80A05F089FD02A9A7
:1012400080B2FFF765F99DF80800DFF8941A8871FD
:101250009DF80900DFF8881AC87103A8EDB20921CA
:1012600001FB05F110EB8100016A16F1440002F068
:10127000C1FD03A8EDB2092101FB05F110EB8100CE
:10128000406A02F0D7FF0700381E332812D33A0015
:101290002100DFF8CC0A02F081FD3B002200DFF8DC
:1012A000C41ADFF8180402F08BFD02F0D1FB5FF0E6
:1012B000FF30DFE086F84C7003A8EDB2092101FB96
:1012C00005F110EB8100806A02F0B4FF011E1F29B6
:1012D00014D396F84D202100DFF8D40A02F05EFD09
:1012E00096F84D302200DFF8CC1ADFF8D00302F078
:1012F00067FD02F0ADFB5FF0FF30BBE086F84D000C
:1013000003A8EDB2092101FB05F110EB8100C06AD1
:1013100002F090FF011E0A2913D396F84E202100F7
:10132000DFF8940A02F03AFD96F84E302200DFF81A
:101330008C1AE24802F044FD02F08AFB5FF0FF30B5
:1013400098E086F84E0003A8EDB2092101FB05F1F3
:1013500010EB8100016B16F1520002F04BFD03A867
:10136000EDB2092101FB05F110EB8100406B05F0A6
:10137000A0FCB0EE408AF0EE608A51EC180B00221F
:10138000002305F09FFC07D351EC180B0122DFF876
:10139000303A05F01DFD15D8D6E918232100DFF8F5
:1013A000240A02F0FBFC96ED180B8DED000B2200D9
:1013B000DFF8141AC14802F003FD02F049FB5FF0A8
:1013C000FF3057E086ED188B03A8EDB2092101FB31
:1013D00005F110EB8100806B05F06BFCB0EE408AEC
:1013E000F0EE608A51EC180B0022002305F06AFC35
:1013F00007D351EC180B0122DFF8D03905F0E8FCD7
:1014000018D8D6E91A232100DFF8C40902F0C6FC77
:1014100096ED1A0B8DED000B2200DFF8B819A748E6
:1014200002F0CEFC02F014FB5FF0FF3022E000BFC0
:101430003100000086ED1A8B002086F84F00002056
:101440003064002086F85000002086F8510000200B
:101450003067DFF82004402101FB0400806B002886
:101460007FF47CAEDFF80C04402101FB04008663AE
:1014700081E600200DF5107DBDEC048BBDE8F28304
:1014800010E3000820E90008203500202135002065
:101490002E3500201B3500205C3300203CE900087D
:1014A000CCE60008ECE6000834E30008A0E0000801
:1014B0000CE700082DE9F047ADF5C06DDFF8600AD4
:1014C00002F06CFC0DF580604FF4007102F042FCFC
:1014D0005FF0000A002400255FF0000868464FF422
:1014E000806102F037FC00265FF030090127DFF849
:1014F000341A684602F07EFC684602F033FC8046EF
:10150000B8F10B0FC0F2D6800020FFF706F80120DB
:10151000FFF703F80220FFF700F80320FEF7FDFFB6
:101520000420FEF7FAFF0520FEF7F7FF0620FEF77E
:10153000F4FF0720FEF7F1FF0020DFF8EC19087038
:101540000020DFF8E81908700020DFF8E4190870BF
:101550000020DFF8B81C08700020DFF8D8190870E8
:1015600059A1684605F054FB8246BAF1000F00F01D
:101570009580761C51460DF5806002F03BFC9DF98C
:101580000094504602F0EEFB45196D1C4EA16846D2
:10159000281805F03DFB8246454501DB5FF0000A57
:1015A0004FFA89F9B9F1300F10D04BD3B9F1320F9E
:1015B0001AD012D3B9F1340F24D01CD3B9F1360F9D
:1015C00032D026D3B9F1370F35D03BE00DF580612D
:1015D0000020FFF7D1F9040046E00DF580610120FD
:1015E000FFF7CAF904003FE00DF580610220FFF724
:1015F000C3F9040038E00DF580610320FFF7BCF962
:10160000040031E00DF580610420FFF7B5F9040016
:101610002AE00DF580610520FFF7AEF904000120F6
:10162000DFF8101908701FE00DF580610620FFF744
:10163000A3F9040018E00DF580610720FFF79CF97D
:10164000040011E000274FFA89F94946DFF8300A13
:1016500002F0A4FB4FFA89F94A46DFF8281A174826
:1016600002F0AEFB02F0F4F914F1010F02D0002FEA
:101670007FF47BAF4FFA89F94946DFF80C0A02F094
:101680008DFB4FFA89F94A46DFF8001A0B4802F041
:1016900097FB02F0DDF9FFF76FF80BE0012E09DB95
:1016A000DFF8EC0902F07AFB0120DFF8601B08701C
:1016B000FEF7ADFD0DF5C06DBDE8F087503200209E
:1016C00058E3000878DC00083B000000F821002007
:1016D000C8E00008A8DC0008F8B52DED028BADF5D8
:1016E0001A7DDFF8B00902F059FB02A8202102F0B0
:1016F00031FB9FED618A0026002400278AA8402143
:1017000002F028FB0AA8DFF890194FF4007205F0E8
:1017100077FB002500240AE05648402101FB040025
:1017200090F83610DFF8740902F038FB641C072CBF
:1017300080F287804F48402101FB04000078002898
:10174000F4D04C48402101FB0400856BDFF8C00A4F
:10175000282101FB04000668052E00DB761C4548A5
:10176000402101FB040090F836000028D4D1DFF8B6
:10177000A00A282101FB040090ED098A009618EECA
:10178000100A02F02FFE02000B00DFF8881A8AA868
:1017900002F016FB009618EE100A02F023FE02007B
:1017A0000B00DFF8C80A02F0F9FA8AA90AA805F0C6
:1017B00062FB002712E095F851202900DFF8B00AFB
:1017C00002F0ECFA95F851302A00DFF8A81ADFF899
:1017D000A80A02F0F5FA02F03BF97F1C25484021E7
:1017E00001FB040000788742A0DA95F85100002838
:1017F000E1D195ED108A290002A802F0FBFA0190D0
:10180000009618EE100A02F0EDFD02000B00DFF862
:101810006C1A8AA802F0D4FA02A80190009618EE79
:10182000100A02F0DFFD02000B00DFF8540A02F09C
:10183000B5FA8AA90AA805F01EFB002028642D6FBE
:10184000CBE712A10AA805F016FB0AA802F08AFA53
:1018500002004FF47A7392B20AA9DFF8280A04F062
:101860002EFEDFF8740B02F099FA0DF51A7DBDEC2F
:10187000028BF1BD782F00200000000014DF00086B
:10188000B8D8000840DF0008C0D6000825000000D6
:10189000D8DC000894D5000808DD000808D200084C
:1018A00018D3000874D100082DE9F0412DED028B0A
:1018B0008EB0002600269FED808A5FF0000800258C
:1018C00006A8202102F046FA02A8102102F042FAEE
:1018D00000270024DFF8B00902F060FA002468E075
:1018E0002100DFF8FC0A02F059FA00270020DFF897
:1018F0002819402202FB041181F82800DFF81009A2
:10190000282101FB04000460DFF80C09402101FBE1
:101910000400007800EE100AB8EE400A88EE008A53
:1019200018EE100A02F05EFD02000B00DFF8B41A98
:1019300002A802F045FA02A805F0BBF951EC100B21
:1019400002F008FDDFF8D018402202FB04114860C5
:10195000DFF8BC08282101FB0400DFF8BC18402296
:1019600002FB041149684162DFF8AC08402101FB29
:101970000400006B002806D1DFF89C08402101FB21
:10198000040080ED0B8ADFF89008402101FB040081
:10199000006B401C032190FBF1F201FB1200DFF809
:1019A0007818402202FB0411086300259FED428A4B
:1019B000641C072C80F28381DFF85C08402101FB66
:1019C000040000780028F3D09FED3B8ADFF8480838
:1019D000402101FB0400866B2CE032002100DFF87F
:1019E000080A02F0DBF923003200DFF8001ADFF802
:1019F000880802F0E5F902F02BF8FEF76AFD96ED93
:101A0000100AB5EE400AF1EE10FA03DD96ED100A69
:101A100038EE008A96F84F00804501DA96F84F803C
:101A200096F84F002D18002086F84F00002086F809
:101A30005000366F002E00F0A18096F85000019003
:101A400096F84F000090306C02F0CCFC02000B00C6
:101A50002100DFF89C0902F0A1F996F8500096F8F1
:101A60004F100818002843D496F84F0096F85010ED
:101A700088423DD3DFF87C09306496F85100032892
:101A80001CDB320090A106A802F09AF906A802F029
:101A900069F94FF47A73020092B206A9DFF8E407FD
:101AA00004F00DFD32002100DFF84C0902F076F958
:101AB000002086F8510019E00000000096F851005F
:101AC000401C86F8510096F8513032002100DFF8B2
:101AD0002C0902F063F996F851303200DFF8201932
:101AE000DFF8940702F06CF901F0B2FF7F1C86E783
:101AF00096F8500000EE100AB8EE400AD6ED100A33
:101B000080EE800A86ED100A306C02F06BFC020059
:101B10000B00DFF80407402101FB0400C169806964
:101B200005F0D0F80DD3306C02F05CFCDFF8E8264D
:101B3000402303FB0422536A126A05F0C3F8BFF482
:101B40005EAF052C3FF45BAFDFF8CC06402101FB14
:101B5000040090F8350000287FF43FAFDFF8B806A6
:101B6000402101FB040090F82800401CDFF8A81673
:101B7000402202FB041181F8280040E7DFF89806B4
:101B8000402101FB040090F82800DFF88C16402269
:101B900002FB04110978884208D0DFF87C06402156
:101BA00001FB040090F82800032827DBDFF8680613
:101BB000402101FB040090F8350000281ED1DFF819
:101BC0005806402101FB040090F828202100DFF88E
:101BD000100A02F0E3F8DFF84006402101FB0400A0
:101BE00090F828302200DFF8FC19DFF88C0602F0AC
:101BF000E7F801F02DFFFEF76CFC76E6DFF818063B
:101C0000402101FB0400007887427FF469AEDFF8D1
:101C10000806402101FB040090F83600032829DB68
:101C20002100DFF8C40902F0B9F82200DFF8BC197E
:101C3000DFF8440602F0C4F801F00AFFFEF749FCA1
:101C4000DFF8180BDFF8D015402202FB041191F8E1
:101C500034104FF4C47202FB010090F9200000F030
:101C600041F80020DFF8B015402202FB041181F892
:101C700036003AE6DFF8A005402101FB040090F8A9
:101C80003600401CDFF89015402202FB041181F859
:101C90003600DFF88405402101FB040090F836206F
:101CA0002100DFF8BC0A02F079F82200DFF8B41A4C
:101CB000DFF8C40502F084F801F0CAFE15E60EB0A4
:101CC000BDEC028BBDE8F08121257300FC340020BF
:101CD00058D30008D4D0000858E90008ECD8000810
:101CE0002400002030B585B0040064B2B4F13105A1
:101CF00064B2B4F1310005282BD2DFF8600A4FF44A
:101D0000C47101FB0500D0F86801002821D164B23C
:101D10002100DFF8580A02F041F80120DFF83C1AF0
:101D20004FF4C47202FB0511C1F8680164B22200CD
:101D3000DFF83C1A684602F043F8684602F012F8F1
:101D40004FF47A73020092B26946DFF8380504F066
:101D5000B6FB200040B200F0A3F905B030BD000092
:101D6000D0D50008F8D6000810B540B2B0F1310463
:101D700040B2B0F13101052918D2DFF8E0194FF473
:101D8000C47202FB0411D1F8681101290ED140B2CE
:101D90000100DFF8E00902F001F80020DFF8BC19CB
:101DA0004FF4C47202FB0411C1F8680110BD0000B9
:101DB00098D3000830D70008D8D3000820D90008ED
:101DC000006AF84038DD000854D90008D012634199
:101DD00068DD000888D900082DE9F04192B00400C0
:101DE00001A8402101F0B6FF012664B2B4F131052B
:101DF00000275FF0000864B2312C07D024D3332CC5
:101E000010D009D3352C19D012D31DE00821DFF8EA
:101E1000680905F077F828E00821DFF8600905F087
:101E200071F822E00821DFF8580905F06BF81CE092
:101E30000821DFF8500905F065F816E00821DFF801
:101E4000480905F05FF810E0002664B22100DFF8D1
:101E50003C0901F0A3FF64B22200DFF83419DFF877
:101E6000180401F0ADFF01F0F3FD002E54D0052061
:101E700001F030FE05F080F8070001F093F9FFB2A1
:101E8000002F29D00120009064B22300DFF8CC0895
:101E90004FF4C47101FB0502DFF8F81801A801F046
:101EA0008FFF01A801F05EFF4FF47A73020092B237
:101EB00001A9DFF8D00304F002FB0120DFF89C1831
:101EC0004FF4C47202FB0511486264B22100DFF8CE
:101ED000C80801F063FF1FE018F10108B8F1030F13
:101EE00089DB64B22100DFF8B40801F057FFDFF8A6
:101EF0006C084FF4C47101FB050260A101A801F058
:101F00005FFF01A801F02EFF02004FF47A7392B236
:101F100001A9DC4804F0D3FA12B0BDE8F08100005A
:101F200074E90008A0290020203500202135002078
:101F30002E3500201C350020F0B5AFB00400002085
:101F400000260025002706A8202101F003FF00221B
:101F500001A9DFF84C0805F035F99DF805309DF82A
:101F60000420DFF8A01C06A801F02AFF06A9DFF86C
:101F7000EC074FF4C47202FB040010F59C7001F0F2
:101F800039FF00226946DFF8180805F0C6F9DFF8C6
:101F9000CC074FF4C47101FB040010F5A87106A82A
:101FA00001F028FFB0A104F033FE0AE001000EA802
:101FB00010EB461001F01EFFABA1002004F028FE3C
:101FC000761C0028F2D10026DFF890074FF4C47188
:101FD00001FB040010F59C7106A801F00BFFA2A103
:101FE00004F016FE0AE001001EA810EB461001F0F6
:101FF00001FF9DA1002004F00BFE761C0028F2D109
:1020000026A802F017F9060016A802F013F987199E
:102010003C2F07DB3C2097FBF0F53C2097FBF0F1D1
:1020200000FB11771EA802F005F906000EA802F0C9
:1020300001F980194519182095FBF0F100FB1155A5
:102040003B002A00DFF8BC1BDFF810074FF4C47513
:1020500005FB040010F59C7001F0B2FEDFF8FC06F1
:102060004FF4C47101FB040010F59C72611CDFF891
:102070009C0B01F093FE2FB0F0BD000021257300F2
:102080002CE7000898DD00084CE700084CD2000857
:1020900090E90008B0EB000866CD00086CDF00088E
:1020A0002DE9F04192B0040001A8402101F052FE58
:1020B000012664B2B4F1310500275FF0000864B274
:1020C000312C07D024D3332C10D009D3352C19D080
:1020D00012D31DE00821DFF8380B04F013FF27E0CE
:1020E0000821DFF8300B04F00DFF21E00821DFF8B4
:1020F000280B04F007FF1BE00821DFF8200B04F099
:1021000001FF15E00821DFF8180B04F0FBFE0FE0DB
:10211000002664B22100DFF80C0B01F03FFE64B230
:102120002200DFF8041B544801F04AFE01F090FC45
:10213000002E67D0052001F0CDFC04F01DFF070044
:1021400001F030F8FFB2002F3BD00020009064B2C5
:102150002300DFF808064FF4C47101FB0502DFF825
:10216000341601A801F02CFE01A801F0FBFD4FF48C
:102170007A73020092B201A9424804F0A0F900204B
:10218000DFF8D8154FF4C47202FB0511486264B23F
:102190002100DFF8980A01F001FE4FF47A70DFF8B1
:1021A000BC154FF4C47202FB0511C1F86001002098
:1021B000DFF8A8154FF4C47202FB051181F8800105
:1021C00020E018F10108B8F1030FFFF678AF64B210
:1021D0002100DFF85C0A01F0E1FDDFF880054FF433
:1021E000C47101FB05027DA101A801F0E9FD01A870
:1021F00001F0B8FD02004FF47A7392B201A92148B0
:1022000004F05DF912B0BDE8F08100001B3500203C
:1022100038310020A4EE0008782F002000B587B0E8
:10222000002201A9DFF8780504F0CCFF00226946FE
:10223000DFF86C0505F071F89DF802309DF801207B
:102240009DF8030010F5FA61DFF8E80901F0A6FD3A
:102250009DF806309DF805209DF80410DFF8680E03
:1022600001F09CFD07B000BD3A000000ACE9000899
:1022700098DF00087CE3000850320020B0EE000830
:10228000C8E900085C3300206CE70008F0B585B0B1
:102290000400002600250027611CDFF89C0901F0DE
:1022A0007DFDDFF8B8044FF4C47101FB0400856ABA
:1022B00000268CE0DFF8A4044FF4C47101FB040095
:1022C00010EB8600C76ADFF87409402101FB0700A4
:1022D000406802F087F8DFF86429402303FB0722F7
:1022E000D368926804F0EEFC2ED2DFF870044FF44D
:1022F000C47101FB0400406A002825D1DFF83C09C5
:10230000402101FB070090ED020B8DED020BDFF881
:102310002C09402101FB0700406802F063F8CDE979
:102320000001721CDFF81819DFF8180901F048FDE8
:1023300001F08EFBDFF824044FF4C47101FB0400AC
:1023400090F92000FFF748FDDFF8F008402101FB7D
:102350000700406802F046F802000B00DFF8DC08D6
:10236000402101FB07004169006904F0ABFC2DD25C
:10237000DFF8E8034FF4C47101FB0400406A012850
:1023800024D1DFF8B808402101FB070090ED040BD1
:102390008DED020BDFF8A408402101FB0700406827
:1023A00002F020F8CDE90001721CDFF8A01CDFF874
:1023B000940801F005FD01F04BFBE8484FF4C471AF
:1023C00001FB040090F92000FFF76AFE761CAE4284
:1023D000FFF670AF05B0F0BDC8EB00082125730013
:1023E000E4E9000828EF0008A0E30008C4E30008BF
:1023F0000CD600080AD723BCBCD90008C4DF0008EB
:10240000F0E00008F0B595B0040000260025002794
:1024100004A8402101F09EFC611CDFF8340C01F09F
:10242000BDFCCE484FF4C47101FB0400856A002650
:1024300009E0CA484FF4C47101FB040090F9200080
:10244000FFF7CAFC761CAE4280F2C880C3484FF446
:10245000C47101FB040010EB8600C76ADFF8DC07DB
:10246000402101FB0700406801F0BCFFDFF8CC27EA
:10247000402303FB0722D368926804F023FC2CD28C
:10248000B6484FF4C47101FB0400406A012824D10E
:10249000B2484FF4C47101FB040090F92000FFF72B
:1024A000FFFDDFF89807402101FB070090ED020BCC
:1024B0008DED020BDFF88407402101FB0700406827
:1024C00001F090FFCDE90001721CDFF8001CDFF87D
:1024D000740701F075FC01F0BBFADFF860074021DA
:1024E00001FB0700406801F07DFF02000B00DFF8F0
:1024F0004C07402101FB07004169006904F0E2FB41
:10250000A0D296484FF4C47101FB0400406A002831
:1025100098D1DFF82807402101FB070090ED040B5C
:102520008DED020BDFF81407402101FB0700406826
:1025300001F058FFCDE90001721CDFF8601CDFF8E4
:10254000040701F03DFC01F083FA042F7FF471AF22
:10255000DFF84C0C01F022FCFDF7BBFF7F484FF485
:10256000C47101FB040090F88001002835D1DFF828
:102570005C1CDFF8D00601F023FC01F069FA75A1BC
:1025800004A804F078FC75484FF4C47101FB040002
:1025900010F1200104A804F06EFC6FA104A804F05F
:1025A0006AFC6E484FF4C47101FB040104A804F0F6
:1025B00062FC04A801F0D6FB4FF47A73020092B2D9
:1025C00004A9DFF80C0C03F07AFF012063494FF4F3
:1025D000C47202FB041181F8800133E715B0F0BD2D
:1025E00018E10008E8E3000848D6000884D600088F
:1025F00030B5B5B0040025A8402101F0ABFB15A80B
:10260000402101F0A7FB06A83C2101F0A3FB002517
:102610000020611CDFF8BC0B01F0C0FB4F484FF4F9
:10262000C47101FB040010F5A2724C484FF4C47150
:1026300001FB040010F5A871DFF89C0B01F0AEFB64
:1026400046484FF4C47101FB040010F5A2700090DD
:1026500042484FF4C47101FB040010F5A873621CDA
:10266000DFF8781BDFF8DC0501F0AAFB01F0F0F9D8
:102670003A484FF4C47101FB040010F5A27115A88B
:1026800001F0B8FB38A104F0C3FA0BE0010006A882
:102690000C2202FB050001F0ADFB33A1002004F089
:1026A000B7FA6D1C0028F1D1002D0CD1DFF8300BEA
:1026B00001F074FBDFF82C1BDFF8880501F080FBCC
:1026C00001F0C6F944E006A801F0B4FD3C2101FB8D
:1026D00000F509A801F0AEFD401941F270714843C0
:1026E0001E494FF4C47202FB0411C1F860011B487B
:1026F0004FF4C47101FB0400D0F8600117494FF496
:10270000C47202FB0411C1F864010120DFF83C1C13
:102710000870002201A9DFF8380C04F053FD9DF881
:1027200005309DF80420DFF8DC1425A801F048FBF3
:1027300025A90A484FF4C47202FB040010F59C70EE
:1027400001F058FB00226946DFF8040C04F0E5FDB7
:1027500035B030BD5D0000002C000000F8210020E5
:10276000C8DD000840E100083A0000000CE4000861
:1027700030EF00088CE700085C0000206C000020AF
:102780007C0000208C0000209C000020F8DD000868
:1027900000EA0008BCEE0008ACE70008CCE700083F
:1027A000983400202DE9F047B6B0040007A8402176
:1027B00001F0D0FA26A8402101F0CCFA17A83C215C
:1027C00001F0C8FA00275FF000085FF000095FF031
:1027D000000A002500200026002202A9DFF8700B65
:1027E00004F0F0FC002201A9DFF8640B04F095FD71
:1027F0009DF808709DF80980CDF800803B00DFF857
:10280000540B4FF4C47101FB0400D0F85C21611C2F
:10281000DFF8440B01F0C2FA15E0DFF8380B4FF493
:10282000C47101FB0400D0F85C01401C0C2190FB3A
:10283000F1F201FB1200DFF81C1B4FF4C47202FB23
:102840000411C1F85C01DFF80C0B4FF4C47101FBFB
:102850000400DFF8001B4FF4C47202FB0411D1F82E
:102860005C110A2202FB010090F94A003A2809D0C3
:102870000020DFF8E01A4FF4C47202FB0411C1F823
:102880005C014FE0DFF8CC0A4FF4C47101FB040097
:10289000DFF8C01A4FF4C47202FB0411D1F85C11C6
:1028A0000A2202FB010010F1480107A801F0A2FA78
:1028B00000208DF81E0007A801F0BCFC81460DF138
:1028C0001F0001F0B7FC824653464A46DFF8840AEF
:1028D0004FF4C47101FB0400D0F85C11DFF87C0AEE
:1028E00001F05CFA4F451DDBB94596DBD04519DB9D
:1028F000C24516DADFF85C0A4FF4C47101FB04002C
:10290000D0F85C01401C0C2190FBF1F201FB12009D
:10291000DFF8401A4FF4C47202FB0411C1F85C01E5
:1029200091E70126002E1DD1DFF8280A4FF4C4716B
:1029300001FB0400DFF81C1A4FF4C47202FB0411FF
:10294000D1F85C110A2202FB010010F14801DFF806
:10295000040A4FF4C47202FB040010F59C7001F0ED
:1029600049FA32E0DFF8EC094FF4C47101FB0400CE
:10297000DFF8E0194FF4C47202FB0411D1F85C11C6
:102980000A2202FB010010F1480107A801F032FA07
:102990009DF92000392808D19DF81F00401C8DF8B2
:1029A0001F0030208DF8200004E09DF82000401C1E
:1029B0008DF8200007A9DFF89C094FF4C47202FBD0
:1029C000040010F59C7001F015FADFF888094FF447
:1029D000C47101FB0400DFF87C194FF4C47202FBE0
:1029E0000411D1F85C110A2202FB010010F1C001B0
:1029F000DFF860094FF4C47202FB040010F5A27006
:102A000001F0F8F9DFF84C094FF4C47101FB040040
:102A1000DFF840194FF4C47202FB0411D1F85C11C5
:102A20000A2202FB010010F1C001DFF828094FF46F
:102A3000C47202FB040010F5A27004F00FF9002824
:102A400023D0DFF810094FF4C47101FB0400DFF854
:102A500004194FF4C47202FB0411D1F85C110A226C
:102A600002FB0100C0300090DFF8E8084FF4C471A9
:102A700001FB040010F5A273621CDFF8E418714832
:102A800001F09EF900F0E4FFB9E0611CDFF8D40822
:102A900001F084F9DFF8BC084FF4C47101FB0400B5
:102AA00010F5A272DFF8AC084FF4C47101FB04000A
:102AB00010F59C71DFF8B00801F070F9DFF89408A8
:102AC0004FF4C47101FB040010F5A2700090DFF810
:102AD00084084FF4C47101FB040010F59C73621C60
:102AE000DFF88818574801F06BF900F0B1FFDFF804
:102AF00064084FF4C47101FB040010F59C7107A831
:102B000001F078F9DFF84C084FF4C47101FB0400C0
:102B100010F5A27126A801F06DF93BA104F078F838
:102B20000BE0010017A80C2202FB050001F062F97E
:102B300035A1002004F06CF86D1C0028F1D1002DA7
:102B40000BD1DFF82C0801F029F9DFF898163D4881
:102B500001F036F900F07CFF51E017A801F06AFBA4
:102B60003C2101FB00F51AA801F064FB401941F279
:102B700070714843DFF8DC174FF4C47202FB041194
:102B8000C1F86001DFF8CC074FF4C47101FB040009
:102B9000D0F86001B0F57A7F09D140F2ED30DFF86E
:102BA000B4174FF4C47202FB0411C1F86001DFF8DE
:102BB000A4074FF4C47101FB0400D0F8600106289B
:102BC00009DA41F65830DFF88C174FF4C47202FB73
:102BD0000411C1F86001DFF87C074FF4C47101FBF8
:102BE0000400D0F86001DFF86C174FF4C47202FBE8
:102BF0000411C1F864010120DFF8FC1D087036B033
:102C0000BDE8F087C8EE00083A000000F0D90008DF
:102C10006400002074000020840000209400002044
:102C2000A400002068E100081CEA0008ECE70008A6
:102C300030E400080CE8000828DE0008782F0020A7
:102C400068D7000850320020F8B52DED028B9CB0FB
:102C500004000026002500270CA8402101F07AF886
:102C60009FEDD48BDFF80C070078002840F0A68198
:102C70002100DFF8040701F091F8DFF8D8064FF4DF
:102C8000C47101FB0400856A0026B3E053EC182BE5
:102C9000DFF8E80601F082F851EC180B01F09CFC1B
:102CA00041F270714843DFF8AC164FF4C47202FB76
:102CB0000411C1F86001DFF89C064FF4C47101FBF8
:102CC0000400D0F86001DFF88C164FF4C47202FBE8
:102CD0000411C1F864010120DFF8701608708DED51
:102CE000028BDFF8240C402101FB070090ED020B62
:102CF0008DED000BDFF8100C402101FB0700406850
:102D000001F070FB02000B00DFF8740601F046F8DA
:102D10008DED048BDFF8F00B402101FB070090EDF7
:102D2000020B8DED020BDFF8E00B402101FB0700E9
:102D3000406801F057FBCDE900017A1CDFF8A01BC9
:102D4000DFF8C80B01F03CF800F082FE002207A972
:102D5000DFF8FC0504F036FA9DF81D309DF81C20C4
:102D6000DFF8AC1B0CA801F02BF80CA9DFF8E40588
:102D70004FF4C47202FB040010F59C7001F03AF8A5
:102D8000002206A9DFF8C80504F0C7FA0020DFF822
:102D9000841B08600120DFF8DC150870DFF8680B81
:102DA000402101FB0700406801F01CFB02000B0002
:102DB000DFF8540B402101FB07004169006903F073
:102DC00081FF16D2DFF88C054FF4C47101FB0400BB
:102DD000406A01280DD1DFF87C054FF4C47101FB76
:102DE000040090F92000FFF75BF90120DFF884155B
:102DF0000870761CAE4280F2E180DFF858054FF48F
:102E0000C47101FB040010EB8600C76ADFF8F80A02
:102E1000402101FB0700406801F0E4FADFF8E82AEE
:102E2000402303FB0722D368926803F04BFFB5D21F
:102E3000DFF820054FF4C47101FB0400406A00284C
:102E4000ACD1DFF8C40A402101FB0700406801F063
:102E5000C9FA02000B00DFF8B00A402101FB0700AD
:102E6000C168806804F0D2FA41EC180BDFF8E40482
:102E70004FF4C47101FB0400D0F87411D0F8700154
:102E800053EC182B01F0D6FA41EC180BDFF8C40410
:102E90004FF4C47101FB0400D0F87C11D0F8780124
:102EA0000022002303F00EFF35D2DFF8800B00F084
:102EB00075FF4FF47A70DFF89C144FF4C47202FB74
:102EC0000411C1F86001DFF88C044FF4C47101FBF8
:102ED0000400D0F86001DFF87C144FF4C47202FBE8
:102EE0000411C1F864010020DFF860140870DFF8F5
:102EF00064044FF4C47101FB040090ED5E0B8DED92
:102F0000000B621CDFF8401BDFF8000A00F058FFDE
:102F100000F09EFD96E0DFF83C044FF4C47101FB25
:102F20000400D0F87C11D0F878010022DFF81C3BB7
:102F300001F080FA02000B0051EC180B04F026FBA4
:102F400041EC180B51EC180B0022DFF8483B01F064
:102F500071FA41EC180B51EC180B0022002303F01E
:102F6000B1FE0FD2DFF8480B00F018FF8DED008B9B
:102F7000621CDFF8D41ADFF8940900F021FF00F09A
:102F800067FD5FE051EC180B0022DFF8403B03F0D7
:102F900099FE02D29FED948B7EE651EC180B012234
:102FA000DFF82C3B03F014FF3FF670AE9FED908BE3
:102FB00072E600BF0000000000000000DFF8440BD4
:102FC000007800283ED12100DFF83C0B00F0E6FE3F
:102FD000DFF880034FF4C47101FB0400856A00260A
:102FE0002EE0DFF870034FF4C47101FB040010EB16
:102FF0008600C76ADFF81009402101FB070040681E
:1030000001F0F0F902000B00DFF8FC08402101FBA1
:1030100007004169006903F055FE10D2CD484FF416
:10302000C47101FB0400406A012808D1C9484FF46B
:10303000C47101FB040090F92000FFF731F8761C01
:10304000AE42CEDB1CB0BDEC028BF1BDA0D70008B8
:1030500058DE000870B505000020002615F1310487
:1030600002E0761C00F09EF8F6B2032E25DA082165
:10307000DFF8340B03F046FF03F07EFF0128F0DB9E
:10308000DFF8280BC078062803D000F08BF800206A
:1030900018E0DFF81C0B00F081FEAE484FF4C4715D
:1030A00001FB0500406A012803D1200040B2FEF771
:1030B000F7FF00F077F8012004E0DFF85C0B00F088
:1030C0006DFE012070BD000024EE0008D8D7000876
:1030D00010B500240020002400E0641C052C5CDAFC
:1030E0009C484FF4C47101FB0400406C0028F4D0EC
:1030F00098484FF4C47101FB0400D0F8680100281F
:10310000EBD194484FF4C47101FB0400406C0128DA
:1031100008D002280AD003280CD0042818D006288A
:1031200024D0DAE72000FFF7B1F8D6E72000FFF758
:1031300069F9D2E787484FF4C47101FB0400D0F865
:103140006001B0F57A7F02D12000FFF751FAC4E7A1
:1031500080484FF4C47101FB0400D0F86001B0F561
:103160007A7F02D12000FFF71DFBB6E72000FFF7B2
:1031700071FF002810D17F480078002804D0DFF8C4
:1031800084090078002807D1DFF8900A0078002829
:1031900002D02000FFF758FD9FE710BD10D80008AF
:1031A000F0DF00080020002004E00021DFF8FC2907
:1031B0008154401CDFF8681A09888842F5DB00203A
:1031C000DFF8601A088070470000000054E400082F
:1031D0005C3300201CE0000824DA000818D4000842
:1031E00038EA0008E0EB000800000000000014408E
:1031F000000000000000344080B52DED028B00EE91
:10320000100AB8EEC08A00290ED002291CD00CD3B7
:10321000042937D027D3062952D042D308296DD0AC
:103220005DD3092979D087E08AE018EE100A01F011
:10323000D9F8DFF8F429DFF8F43901F0FBF801F0F0
:1032400089F808EE100A7BE018EE100A01F0CAF8BF
:10325000DFF8DC29DFF8DC3901F0ECF801F07AF86E
:1032600008EE100A6CE018EE100A01F0BBF8DFF867
:10327000C829DFF8C83901F0DDF801F06BF808EE75
:10328000100A5DE018EE100A01F0ACF8DFF8B02982
:10329000DFF8B03901F0CEF801F05CF808EE100A62
:1032A0004EE018EE100A01F09DF8DFF89C29DFF8D7
:1032B0009C3901F0BFF801F04DF808EE100A3FE02C
:1032C00018EE100A01F08EF8DFF88429DFF884394F
:1032D00001F0B0F801F03EF808EE100A30E018EE08
:1032E000100A01F07FF8DFF87029DFF8703901F07B
:1032F000A1F801F02FF808EE100A21E018EE100AEC
:1033000001F070F8DFF85829DFF8583901F092F829
:1033100001F020F808EE100A12E018EE100A01F091
:1033200061F8DFF84429DFF8443901F083F801F04F
:1033300011F808EE100A03E0DFF8340900F02EFD62
:10334000B0EE480ABDEC028B01BD00002035002024
:1033500098340020F821002024D1000858D4000817
:10336000C0D1000888DE000858DA000898D40008A8
:103370002CE800082E350020B8DE00084CE80008D4
:1033800090D20008017809064278120483781B0263
:103390009A18C0781018411808007047F8B52DED3C
:1033A000028B9AB006000F0002A8202100F0D2FC88
:1033B0009FEDD48A9FEDD38A00200AA8402100F017
:1033C000C9FC9FEDD00A002005E0DFF8E017415C62
:1033D0000AAA8154401CDFF8481809888842F4DBA7
:1033E000DFF83C0801880AA803F0B2FC00282CD1C1
:1033F000DFF8800800F0D2FCDFF87C1816F15200EC
:1034000003F02CFC00284AD196F84D00042831D155
:103410000AA896F84C10081810F8010C8DF80A004C
:103420000AA896F84C10085C8DF80B000AA896F8CC
:103430004C10081840788DF808000AA896F84C102F
:10344000081880788DF809005EE03100DFF82C085C
:1034500000F0A4FCDFF82818DFF8280800F0B0FC22
:1034600000F0F6FA96F84F00401C86F84F00FFF780
:1034700099FE30E20AA896F84C10085C8DF80A0014
:103480000AA896F84C10081810F8010C8DF80B00DB
:1034900000208DF8080000208DF8090034E096F82F
:1034A0004D0004281CD10AA896F84C10081810F8F2
:1034B000010C8DF808000AA896F84C10085C8DF8ED
:1034C00009000AA896F84C10081840788DF80A00F0
:1034D0000AA896F84C10081880788DF80B0013E0B5
:1034E0000AA896F84C10081810F8010C8DF80A007C
:1034F0000AA896F84C10085C8DF80B0000208DF897
:10350000080000208DF80900DFF87C1716F1440050
:1035100003F0A4FB002840F08E8002A8FCF71AFFFD
:10352000B0EE408A18EE100A00F05CFF02000B00BB
:10353000DFF8580700F032FCD6E91801002200231A
:1035400003F046FC06D3D6E91A010022002303F05B
:103550003FFC42D296ED180B8DED000BD6E91A23F5
:10356000DFF82C0700F01AFC18EE100A00F03AFF02
:1035700004000D00D6E91A01D6E9182303F046FF2E
:1035800002000B002000290000F054FF00F0E2FED2
:1035900000EE100A10EE100A00F024FF0022DFF8FF
:1035A000F43603F0F3FF00F0D5FE08EE100A18EE33
:1035B000100A00F017FFD6E9182300F057FE00F0BC
:1035C000C9FE08EE100A18EE100A00F00BFF020008
:1035D0000B00DFF8C40600F0E1FB002F0DD0022F36
:1035E00072D04DD3042F00F0B980C0F09380062F25
:1035F00000F04C81C0F0D6805FE1DFF8A00690EDCE
:10360000000AB4EE408AF1EE10FA33DBDFF89006E0
:1036100090ED000AB4EE480AF1EE10FA2ADB96EDBE
:10362000100A30EE080A86ED100A96F85000401C89
:1036300086F8500023E0DFF86C1616F1440003F022
:103640000DFB002809D102A8FFF79CFE96F84E104A
:10365000FFF7D2FDB0EE408A64E7DFF84C0600F0D9
:103660009DFBDFF84816DFF81C0600F0A9FB00F010
:10367000EFF930E196F84F00401C86F84F0028E142
:10368000DFF82C0690ED000AB4EE408AF1EE10FA55
:1036900014DBDFF8200690ED000AB4EE480AF1EEE4
:1036A00010FA0BDB96ED100A30EE080A86ED100AD0
:1036B00096F85000401C86F8500004E096F84F0041
:1036C000401C86F84F0004E1DFF8EC0590ED000A9D
:1036D000B4EE408AF1EE10FA16DBDFF8E00590ED6B
:1036E000000AB4EE480AF1EE10FA0DDB96ED100A6E
:1036F00030EE080A86ED100A96F85000401C86F855
:10370000500006E00000000096F84F00401C86F8CC
:103710004F00DEE0DFF8A80590ED000AB4EE408A25
:10372000F1EE10FA14DBDFF89C0590ED000AB4EE20
:10373000480AF1EE10FA0BDB96ED100A30EE080A9B
:1037400086ED100A96F85000401C86F8500004E000
:1037500096F84F00401C86F84F00BAE0DFF8680585
:1037600090ED000AB4EE408AF1EE10FA14DBDFF8B7
:103770005C0590ED000AB4EE480AF1EE10FA0BDB9E
:1037800096ED100A30EE080A86ED100A96F8500001
:10379000401C86F8500004E096F84F00401C86F864
:1037A0004F0096E05848402101FB0700C16980693D
:1037B0000022DFF81C3500F059FD02000B00140058
:1037C0001D0018EE100A00F00DFE22002B0003F081
:1037D000FFFA2FD84C48402101FB0700C1698069DE
:1037E0000022DFF8EC3400F041FD02000B00140071
:1037F0001D00DFF8E004006800F0F4FD22002B005B
:1038000003F0E6FA16D8DFF8D0040068401CDFF8B1
:10381000C8140860DFF8C004006803280EDB00F05D
:103820003BF9DFF8B80400F0B9FA0020DFF8A8147B
:10383000086003E00020DFF8A0140860DFF8A004AF
:1038400090ED000AB4EE408AF1EE10FA14DBDFF8D6
:10385000940490ED000AB4EE480AF1EE10FA0BDB86
:1038600096ED100A30EE080A86ED100A96F8500020
:10387000401C86F8500004E096F84F00401C86F883
:103880004F00DFF8500480ED008A22E0B5EE408A58
:10389000F1EE10FA0BDB96ED100A30EE080A86ED19
:1038A000100A96F85000401C86F8500004E096F884
:1038B0004F00401C86F84F000BE0DFF82C0400F0AE
:1038C0006DFADFF82814DFF8BC0300F079FA00F095
:1038D000BFF8FFF767FC1AB0BDEC028BF1BD00002A
:1038E000D4D2000870B504000D00002605E0315D5B
:1038F000DFF8FC0300F052FA761CAE42F7DBA7A01B
:1039000000F04CFA70BD0000782F002050320020EB
:10391000C8EE0008F434002030B5ADF2144D0400B8
:1039200000256846102100F015FA04A84FF48061C4
:1039300000F010FA0A220021684600F00AFC0A2270
:103940000A21684600F005FC684600F073FC05009B
:10395000B5F57A7F02DD0A2095FBF0F56D1C280095
:10396000020092B2142104A800F0F3FB2A0004A97B
:10397000DFF8800300F012FA04A8281810F8020CEF
:1039800023280FD1002004A9691801F8020C04A90A
:10399000200000F02FFA04A9D74800F0FFF9FDF746
:1039A00089FD0FE0D54800F0F9F9D549B54800F098
:1039B00007FA00F04DF84FF47A73012278A1D1484C
:1039C00002F07DFD0DF2144D30BD80B54FF47A73D9
:1039D000012274A1CB4802F072FD012080F313880C
:1039E000FCF7D2FB01BD80B50821C74803F08AFA75
:1039F000FFF7D8FB01BD00002135002080B508216C
:103A0000C24803F07FFAFFF7CDFB01BD80B5082166
:103A1000BF4803F077FAFFF7C5FB01BD80B5082169
:103A2000BC4803F06FFAFFF7BDFB01BD48E000089A
:103A300080B5B94800F0B2F90821B84803F062FA3D
:103A4000FFF7B0FB01BD000074E000080000594022
:103A500000B5A1B08B49B24800F0A0F968468021BA
:103A600000F078F96AA1684603F005FA854903F089
:103A700002FA68A1684603F0FEF9684600F072F9A0
:103A80004FF47A73020092B269469E4802F017FD25
:103A900021B000BD00004E4080B5A24800F07EF984
:103AA0000821A14803F02EFAFFF77CFB01BD0000BE
:103AB000D8D4000880B59D4800F070F9002000F0CF
:103AC00058FA9B4800F06AF901BD0000000014405C
:103AD000000034404FF4FA514843964908600020F2
:103AE000954908600120954908609448006810F0E5
:103AF00001100128F9D000209049086000208E496B
:103B0000086070472A3500208CDA000880B5002054
:103B10008B49C1F8680100208949C1F8F0020020F2
:103B20008749C1F8780400208549C1F800060020C3
:103B30008349C1F888074FF47A708149C1F8600160
:103B40004FF47A707E49C1F8E8024FF47A707C49EC
:103B5000C1F870044FF47A707949C1F8F8054FF450
:103B60007A707749C1F88007764800F017F97649EE
:103B7000444800F025F9FFF76BFF3120FEF790FA7B
:103B80003220FEF78DFA3320FEF78AFA3420FEF752
:103B900087FA3520FEF784FA01BD00000A00000014
:103BA0005B0000007D000000240000201C34002089
:103BB00090E1000880B501206149C1F86801012049
:103BC0005F49C1F8F00201205D49C1F87804012085
:103BD0005B49C1F8000601205949C1F888075B48D4
:103BE00000F0DCF85A49274800F0EAF8FFF730FF08
:103BF0003120FEF755FA3220FEF752FA3320FEF755
:103C00004FFA3420FEF74CFA3520FEF749FA01BD91
:103C10003C0000003E00000054EA00082835002067
:103C2000F00100200C3500209A9999999999B93F93
:103C30007B14AE47E17A843FFCA9F1D24D62503F3C
:103C40002D431CEBE2361A3FF168E388B5F8E43EF9
:103C50008DEDB5A0F7C6B03E48AFBC9AF2D77A3E1C
:103C60003A8C30E28E79453E95D626E80B2E113EF1
:103C7000F8EB000878E4000838EF0008B8E1000825
:103C800070EA00085032002040EF0008E4E4000829
:103C9000C0DA00080088D3408CEA0008E83400202D
:103CA0000C00002048EF00089CE40008C0E4000875
:103CB000EC34002010000020140000201800002028
:103CC000E434002008000020E0340020040000203C
:103CD000000008C0FC340020F83400206CE8000824
:103CE000F03400201C0000208CE8000810EC0008D4
:103CF00050EF0008A8EA0008C4EA000808E5000838
:103D0000E0E100085C3300203C000020440000207B
:103D10002C00002034000020D4EE00084C000020CD
:103D2000E0EE0008ECEE0008540000202CE500084E
:103D300050E5000814E000E018E000E010E000E0CA
:103D4000F821002048D8000820ED0008F4DA000827
:103D500034ED0008002203F045BD0268531C0360E7
:103D60001170704700F10103810704D010F8011BA6
:103D700089B18107FAD10268B2F10131914311F0A2
:103D8000803F04BF50F8042FF6E710F8011B11B173
:103D900010F8011BFBE7C01A704700000EB400B515
:103DA00082B003A9009102466B4601210348784482
:103DB0000A3003F031FD06BC5DF810FB2DAF0000AA
:103DC0000CB41CB5044604A801900A46009401AB4B
:103DD000694607487844183003F01EFD009A002118
:103DE000117000285CBF0098001B16BC5DF80CFB2E
:103DF0006BFFFFFF5FEA000C830706D011F8013B61
:103E000000F8013BB3B18307F8D10A68B2F101337E
:103E100023EA020313F0803F02BF40F8042B51F85D
:103E2000042FF3E711F8013B00F8013B13B111F83F
:103E3000013BF9E76046704780B5DFF8E003DFF843
:103E4000E01308604FF48270DFF8D413486000205C
:103E5000DFF8CC1388600020DFF8C413C8600220AC
:103E6000DFF8BC1308610120DFF8B41348614FF498
:103E70000070DFF8AC1388610820DFF8A413C86174
:103E80000020DFF89C1308620020DFF894134862DA
:103E90000020DFF88C1388620A20DFF88413C862E0
:103EA000DFF87C0304F06CFD01BD00B587B000684D
:103EB000DFF8681388425AD100200090DFF86403CD
:103EC000006850F48040DFF85C130860DFF85403AA
:103ED000006810F480400090009800200090DFF807
:103EE0004803006850F48070DFF83C130860DFF886
:103EF0003803006810F48070009000980020009053
:103F0000DFF82403006850F00400DFF81C13086099
:103F1000DFF81403006810F00400009000980A20F5
:103F2000019002200290022004900520059001A932
:103F3000DFF8F80204F0DAFE04200190022002907B
:103F4000002003900520059001A9B94804F0CEFE99
:103F500001220121B54804F0B6FF012001900120A3
:103F600002900520059001A9B04804F0BFFE07B0FB
:103F700000BD10B5040000F02BF900F038F9002264
:103F80000121AA4804F09FFF202000F00BF9200C2B
:103F9000C0B200F007F9200AC0B200F003F9200017
:103FA000C0B200F0FFF801220121A04804F08BFF0D
:103FB00000F01DF910BD70B504000D00160000F0F2
:103FC00007F900220121994804F07DFF022000F04A
:103FD000E9F8280CC0B200F0E5F8280AC0B200F0F9
:103FE000E1F82800C0B200F0DDF8B6B2B6F5807F87
:103FF00006DD4FF4807603E0207800F0D3F8641CEF
:104000003000461E80B20028F6D1012201218748E7
:1040100004F059FF00F0EBF870BD2DE9F041050008
:104020000C0000275FF000080020002600274FF456
:104030008071B4FBF1F000FB1140464292B24FF4A4
:10404000807192FBF1F792B24FF4807192FBF1F81C
:1040500008FB1128C0B2002820D1FFB2002F0FD1D9
:1040600092B221002800FFF7A6FF70E04FF48072A3
:1040700021002800FFF79FFF14F5807415F5807567
:104080003800471EC0B20028F0D15FFA88F84246D7
:1040900092B221002800FFF78EFF58E0FFB2002FF8
:1040A0001FD1F6B25FFA88F8464514D2B8EB06077E
:1040B000F6B2320092B221002800FFF77CFF54FADA
:1040C00086F4F6B27519FFB23A0092B221002800C8
:1040D000FFF771FF3BE092B221002800FFF76BFF72
:1040E00035E0F6B2921B92B24FF4807092FBF0F77B
:1040F00092B24FF4807092FBF0F808FB1028F6B2F1
:10410000320092B221002800FFF755FF54FA86F4DE
:10411000F6B2751909E04FF4807221002800FFF70C
:104120004AFF14F5807415F580753800471EC0B23B
:104130000028F0D15FFA88F8B8F1000F07D05FFAD5
:1041400088F8424692B221002800FFF734FFBDE80C
:10415000F08170B504000D001600002201213348E3
:1041600004F0B1FE032000F01DF8280CC0B200F0EE
:1041700019F8280AC0B200F015F82800C0B200F003
:1041800011F804E0FF2000F00DF82070641C3000EE
:10419000461E80B20028F5D101220121234804F0F7
:1041A00092FE70BD00B583B08DF805007FF07F40B2
:1041B0000090012301AA0DF10501194804F027FC24
:1041C000002802D0FF208DF804009DF804000EBDE9
:1041D00080B500220121154804F075FE0620FFF786
:1041E000E1FF01220121114804F06DFE01BD80B5FF
:1041F0000020002201210D4804F065FE0520FFF794
:10420000D1FFFF20FFF7CEFFC0B2C007F9D40122D3
:104210000121064804F057FE01BD000000380040AF
:10422000B4320020403802403038024000200240C2
:10423000000802400A22002104F022BF010040F1E0
:104240000980F446404200F005F851F00041604713
:10425000010000BF09D0B0FA80F18840C91CC1F547
:104260008461090501EBD02140057047F0B44FF09F
:10427000004591EA030C44BF6B4003F0D1B800BF86
:10428000841A71EB030603D2001BB141121973416A
:104290004FF4001C1CEB410F34BF7CEB430443E0A4
:1042A0000C0DA4EB1356352E50DC45EAC323DB0A74
:1042B00045EAC121C912B6F120050DDD63FA05F604
:1042C000EB4086EA0305124218BF45F00105C0180D
:1042D00051F100010CD213E062FA06F5F2405540AC
:1042E000F3415A40B340F3405A408018594107D334
:1042F00049085FEA30005FEA350528BF45F001054F
:1043000001F58011420875F1004250F1000041EBC7
:104310000451F0BC4FF4001C1CEB410F38BF704738
:104320000020090D090570471CEB410F10D252EA1D
:1043300043060BD0BCEB410F05D80C0DAB43661EFA
:10434000342EB5DD02E0AB4380185941F0BC704714
:10435000F0BC70474FEAF17CBCF1E04C2CBFBCF5DF
:10436000001F11E05FEA4C0C34BFBCF17F5F2EE010
:104370005FEA9C0C4FEA0C1C4FEA3C0CC10071F147
:1043800000414CEB50707047C90241EA5051C002E5
:1043900018BF41F0010141F000414FEA6C50C0F1FB
:1043A0000900212810D240EACC7CCCF1200C11FA73
:1043B0000CF070F10040CCF1200C21FA0CF00CF064
:1043C000004C40EB0C0070474FEACC70704749003E
:1043D00011F5001F04D84FEACC10FF30C00570471C
:1043E000C81770475FF0FF0C1CEAD05114BF61453D
:1043F00006E0C110400721F0E04101F16051704733
:1044000079B900F0004100020AD0B0FA80FC00FA4D
:104410000CF001F16051A1EB0C5101EBD0214005F2
:10442000704741020CBF40F4E0016FF00001002032
:1044300070470000B0B581EA030C0CF0004C40F26C
:10444000FF7515EA11541DBF15EA1357AC42AF4270
:1044500039E0E41923EA455343F48013C90241F0DB
:10446000004141EA505EC7021100A7FB020200288A
:104470004FF00000EEFB01204FF00001E3FB0721AD
:1044800018BF42F00102401800214941E3FB0E0130
:10449000A4F580640F0302D252004041494154F117
:1044A00001046CDD470872F1004250F1000051EB4D
:1044B0000451A1F580115CBF41EA0C01B0BD4CEA8A
:1044C00005510020B0BD05EA1357AC4214BFAF42FE
:1044D00041E050EA410E1CBF52EA430E02E0614641
:1044E0000020B0BD24423C441BD15FEA070EF6D049
:1044F000090302BF01460020AEF1140EB1FA81F7A4
:10450000AEEB070401FA07FE0C37C7F1200100FAF1
:1045100007F7C8404EEA000E23EA455343F48013E0
:10452000A2E733F00043B3FA83F704BFB2FA82FE86
:1045300077440B3FE41BB7F1200E2FBF02FA0EF3B6
:10454000BB40C7F1200E22FA0EFE38BF43EA0E032D
:10455000BA40641C82E750EA410E14BF52EA430E8F
:104560006FF000014FF4001717EB430F8ABF194695
:1045700017EB410FB5E74CEA05510020B0BDD4F16F
:104580000104B4F120070FDAC4F12007520828BF54
:1045900042F0010210FA07F501FA07F7E1BF2A43DA
:1045A000E0403843E1400FE0352C98DCC7F12004AF
:1045B00052EA400220FA07F218BF42F0010231FA33
:1045C00007F0A1400A43002172F1004250F10000BF
:1045D00051EB0C01B0BD0000F446400D40EAC12093
:1045E000490006D200F014F8004248BF6FF00040C6
:1045F000604700F00DF84FF0004188428CBF08463C
:1046000040426047400D40EAC120490080F00D80E3
:1046100040F00040490DA1F58061491C05D4D1F15D
:104620001F0154BFC840C01770474FF000007047CB
:104630002DE9F8452DED088B0FB486B040F2FF71DF
:1046400007989DED080B8DED040BC0F30A508842CE
:1046500008D107980024000305BF0698002802250A
:10466000012512E0012807DA06A804F033FD01282D
:1046700002DB0024002508E0079A40F2FE3161F3D6
:104680001E520792441A4FF0FF35002104A804F08F
:1046900042FD1A9F06460FB10020388036B9DDE989
:1046A00008230020002104F073FD12D0002D13D543
:1046B00024B2012C15D1DDE906230020DFF88C138C
:1046C00004F066FD05D0012E0BD1DF4904F060FD3A
:1046D0003ED10AB0CD49E8E1022D04D1DDE9060161
:1046E000E2E1012E6FDB022E08BFDDE9080100F0D8
:1046F000DB81012D2AD107980028099806D40028CB
:1047000054BF9FEDD50B9FEDD60BCBE100280ED407
:1047100056B94FF0FF3104A804F0FDFC002848BF53
:104720009FEDD10B00F1BE819FEDCB0BBAE156B9E5
:104730004FF0FF3104A804F0EEFC002848BF9FEDC5
:10474000B40B00F1AF819FEDC60BABE1012E11D18F
:104750000998002824B206D4012CACBF9FEDBE0BF3
:104760009FEDBF0B9EE1012CACBF9FEDBD0B9FEDFC
:10477000BA0B97E10998002810D466B94FF0FF31C1
:1047800004A804F0C8FC002842BF079800289FED49
:10479000A00B00F187819FEDB20B83E104F008FDCF
:1047A0002221016066B94FF0FF3104A804F0B3FC88
:1047B000002842BF079800289FEDAB0B00F17281E3
:1047C0009FEDA50B6EE10798002848BF002E0CD581
:1047D00004F0EEFC212101600AB04FF0FF30BDEC87
:1047E000088B6FF00041BDE8F485DDE90601002289
:1047F000002302F0EDFA38BF002509D381F0004113
:10480000CDE906014FF0FF3104A804F084FC054611
:10481000012C13D1DDE906017F4A804B02F052FAE8
:104820000CD2DDE9062300204FF08041FFF702FEA5
:10483000CDE9060100269FED7A8B1CE0DDE9062319
:1048400000207949FFF7F6FD9FED788B53EC182B8C
:10485000FFF70CFDFFF7C0FEA0F120063046FFF782
:10486000EDFC0022734BFFF7E5FD53EC182BFFF72F
:10487000FDFC41EC180B0FF2582000EB461ADDE965
:10488000060153EC182B02F0C1FDDDE9062341ECD3
:10489000190B51EC180BFFF7E9FC02460B4651ECE3
:1048A000190B02F073FE41EC1A0B53EC1A2BFFF7B5
:1048B000C1FD41EC1B0B8DED069B04F07FFC53EC1E
:1048C0001B2BFFF7B7FDDDE9062302F09FFD06462F
:1048D000884600204D4953EC182B02F097FD00222A
:1048E0004FF08043FFF7A6FD32464346FFF7BEFC7C
:1048F00053EC1A2BFFF79EFDDDE90623FFF7B6FC0C
:1049000041EC180B4C4A4D4B02F040FECDE904013E
:104910002046FFF793FC41EC190BDAE9000153EC58
:10492000192BFFF7A3FCDDE90423FFF79FFCCDE97A
:104930000401DDE90823FFF77DFDCDE90201002236
:104940003F4B02F0BFF9C0F0938001223D4B02F0D3
:104950003FFA40F291800022002302F0B3F9DDE932
:10496000022339BF0020384900203849FFF77EFC78
:10497000FFF732FE0446DDE9080153EC182BFFF780
:1049800059FDCDE90201DAE90223DAE90401FFF772
:104990006DFCDDE90823FFF74DFD9FED2D8B53ECFA
:1049A000182BFFF747FDDDE90223FFF75FFCCDE998
:1049B0000201DAE9002351EC190BFFF757FCDDE99E
:1049C0000823FFF737FD064688462046FFF736FCEA
:1049D00002460B463046414602F018FD53EC182BB8
:1049E000FFF728FDDDE90223FFF740FCCDE90201D6
:1049F0000FB13C80002400940022044B02A804F074
:104A000035FCA8B3012837D042E000BF0000F03FDA
:104A10000000000000000080CD3B7F669EA0E63FC6
:104A2000000000000000F03F0000504000000000C7
:104A30000000E03F0000903FEF39FAFE422EE63FD3
:104A40000000E0C00000E0400000E0BF0000E03FE8
:104A5000EF39FAFE422EE63F000000000000F07F32
:104A60000000000000000000000000000000F0FF57
:104A70000020CDE9020007E00020014902E000BF6C
:104A80000000F07FCDE9020104F092FB22210160D9
:104A9000002D1DBFDDE9020181F0004141EC100B4A
:104AA0009DED020B51EC100B0AB0BDEC088BBDE87C
:104AB000F48580B50020009053EC112B51EC100BC5
:104AC000FFF7B6FD41EC100B01BD00000000000037
:104AD000000000000000F0BF0000000000000080A7
:104AE0000000000000000080000000000000000046
:104AF000000000C05294EEBF00000048204E51BE9E
:104B0000000000F86467BCBC00000000000000006A
:104B1000000000208133EDBF00000080B3DB14BE35
:104B2000000000506706A3BC000000000000000069
:104B3000000000D0E9DCEBBF00000008C39259BEC2
:104B400000000080B0D3B8BC0000000000000000EE
:104B500000000070F98FEABF000000C0A51028BE59
:104B6000000000E8BFC0B0BC000000000000000072
:104B700000000070284CE9BF00000060134B42BEEB
:104B8000000000C03D20B8BC000000000000000094
:104B900000000050FA10E8BF000000C05FF62BBE16
:104BA000000000905C71A7BC000000000000000045
:104BB00000000020FCDDE6BF000000C0F8F154BE9C
:104BC00000000018E9F6B9BC000000000000000079
:104BD000000000D0C3B2E5BF00000070E43254BE54
:104BE00000000050DB06B4BC000000000000000024
:104BF00000000010EF8EE4BF00000020F36252BE00
:104C0000000000C02A879ABC0000000000000000DD
:104C1000000000B02272E3BF000000F0E8E056BEE2
:104C200000000028352DBDBC000000000000000081
:104C3000000000000A5CE2BF000000B0FA8E41BE36
:104C400000000040AE6FBDBC00000000000000008E
:104C500000000000564CE1BF000000F015CD5FBE23
:104C600000000000141C90BC0000000000000000C8
:104C700000000040BD42E0BF00000030F93457BEE4
:104C8000000000E06C1E93BC00000000000000006B
:104C9000000000E0F57DDEBF000000B08A535EBE7C
:104CA00000000080DA77AABC0000000000000000CD
:104CB000000000C09D81DCBF00000000FFA226BEF6
:104CC0000000006057E2B0BC0000000000000000DF
:104CD00000000060F98FDABF000000580A8151BE61
:104CE000000000F05F60B8BC0000000000000000A1
:104CF0000000000098A8D8BF000000607A7F45BE81
:104D0000000000D05433A3BC0000000000000000ED
:104D1000000000600FCBD6BF000000D091CB40BE9A
:104D2000000000406D1BA0BC00000000000000005F
:104D3000000000A0FBF6D4BF00000098C5CE52BE14
:104D4000000000003A397EBC0000000000000000B6
:104D5000000000E0FE2BD3BF0000004073872BBE95
:104D600000000000926879BC000000000000000014
:104D700000000040C069D1BF00000058F16353BE7D
:104D800000000080438D7CBC00000000000000009B
:104D900000000080D85FCFBF000000181F8354BE02
:104DA000000000B03F42A2BC000000000000000074
:104DB0000000008067FCCBBF00000060FAFF53BE1C
:104DC00000000050E00DB8BC000000000000000032
:104DD0000000000098A8C8BF000000607A7F35BEC0
:104DE000000000C0543393BC00000000000000002D
:104DF00000000000DC63C5BF00000058D6FF54BEB1
:104E000000000000396490BC0000000000000000B9
:104E1000000000C0AD2DC2BF00000080A45915BE27
:104E2000000000E0484BABBC0000000000000000A8
:104E3000000000801A0BBEBF00000050BF3C5ABEED
:104E4000000000A0B364B6BC000000000000000039
:104E50000000008004D6B7BF00000040BBCF36BEC4
:104E60000000008076CEA8BC00000000000000001A
:104E70000000008032BBB1BF000000402A0043BEEA
:104E800000000028C60CBDBC0000000000000000AF
:104E9000000000009473A7BF000000182B3B59BE10
:104EA000000000C0E55DA5BC00000000000000009F
:104EB00000000000EE4397BF000000A0E6C340BE24
:104EC00000000020958DB5BC00000000000000002F
:104ED00000000000000000800000000000000080D2
:104EE0000000000000000080000000000000000042
:104EF00062F30F2262F31F42401810F0030308D040
:104F0000C91A1FD3DB0748BF00F8012D28BF20F8BE
:104F1000022D130030B414461546103928BF20E97D
:104F20003C00FAD8490728BF20E90C0048BF40F8E8
:104F3000042D890028BF20F8022D48BF00F8012D5C
:104F400030BC7047C91818BF00F8012DCB0728BF27
:104F500000F8012D7047000000F5E07002689142F2
:104F600003D343689A18914202D380680028F5D190
:104F70007047DFF85807016891B94FF480318160BC
:104F80004FF4805141604FF0FF31C1600161042155
:104F9000DFF83C274161C2F8BC11DFF83817016027
:104FA0000120704701F1080313F0070305D001F158
:104FB0000803C3F1080303F007035918D21A8161EB
:104FC000C26042F001034B60511828234B60DFF8A8
:104FD000FC160969C16170472DE9F84F064601F1D9
:104FE000080010F0070008BF884607D001F108004C
:104FF000C0F1080000F0070000EB010802F1080012
:1050000010F0070006D002F10800C0F1080000F01F
:10501000070082181546A5EB0800A0EB030903EB77
:10502000080B43F00300C8F80400AB4528BF04F0A8
:1050300080FA2879C00758BF04F07BFAB9F1100F45
:1050400038BF04F076FAB069854209D1F068484467
:10505000F060C6F818B040F00100CBF804006DE134
:10506000706985420BD1B0684844B060C6F814B08E
:1050700040F00101CBF8041040F80B005EE16868D5
:1050800000F00301012940F0AD80C008C00001908C
:10509000C00820283AD2D5F808A0EF680090BD4299
:1050A00008BF04F046FA554508BF04F042FA6868A4
:1050B0000099C008C000B0EBC10F18BF04F039FA66
:1050C000009806EBC00000F128018A4507D031693D
:1050D0008A45C0F08280DAF80C10A9427DD157458C
:1050E00006D1009A3068012191408843306076E013
:1050F0002830874205D0306987426ED3B868A8420D
:105100006BD1CAF80C70C7F808A068E0EF68D5F852
:1051100018A0AF420CD0A8683169884223D3C16877
:10512000A94204BFB968A9421DD1C760B8601CE09C
:1051300005F11400076837B905F110000768A7B139
:1051400001E00846076807F114010A68002A02BF57
:1051500007F110010A68002AF3D13169884202D3AD
:105160000021016001E004F0E4F9BAF1000F36D04B
:10517000E86906EB800000F5987001688D4208D15F
:105180000760A7B9EA69706801219140884370609F
:1051900025E03069824508D3DAF81000A84214BF30
:1051A000CAF81470CAF8107001E004F0C2F9B7B17F
:1051B0003069874211D3C7F818A0296929B1814203
:1051C00026BF39618F6104F0B4F9686938B131697B
:1051D000884202D37861876101E004F0AAF901985E
:1051E0004519814468684008400068604FEAD90565
:1051F00049F00100CBF8040049F80B90202D23D290
:1052000006EBC50000F12807BA46B9F1100F38BF08
:1052100004F08FF9306820FA05F1C90704D40121A0
:10522000A9400843306006E0B868316988422CBF65
:10523000824604F07EF9C7F808B0CAF80CB0CBF883
:1052400008A0CBF80C7079E05FEA192108BF0020B4
:1052500023D0B1F5803F28BF1F201ED2A1F580705A
:10526000000C00F008008140A1F58052120C02F001
:1052700004029140A1F580431B0CC0F10E0003F025
:105280000203801AC01A994000EBD130C11D29FADF
:1052900001F202F0010101EB4000CBF81C000022FA
:1052A000CBF81420CBF8102006EB8001726822FAAC
:1052B00000F3DB0701F5987107D4012303FA00F02E
:1052C00010437060C1F800B01DE009681F280EBFD0
:1052D00000204008C0F1190009FA00F000E0114672
:1052E0004A68D208D2004A4514D0C20F01EB8202AC
:1052F00002F1100340001A68002AF0D1306983429D
:105300001AD3C3F800B0CBF81810CBF80CB0CBF818
:1053100008B013E032698868914228BF90420BD3ED
:10532000C0F80CB0C1F808B0CBF80800CBF80C10EE
:105330000020CBF8180001E004F0FBF808F10800A9
:10534000BDE8E68F2DE9FA4D0546DFF8800384B00D
:10535000006808B9FFF70DFEDFF870030499806854
:1053600041182F31401E21EA00000499814280F04B
:10537000A88105F5D876B16839B1326880188242C3
:1053800080F09F818142C0F09C8104F0D5F8002814
:105390001EBF0446D0F8008014F1010F00F0918187
:1053A0003068716840443060814238BF01467160A6
:1053B000A86980BB286908B1844200D22C61002012
:1053C000F0613461C6F8148005F12801BF48006817
:1053D00068624FF0FF302862002001F10802C960C6
:1053E0001160801C10312028D2609260F5D3B8483B
:1053F000854203D1A8F12802214629E055F8040C82
:10540000C00805EBC000A0F1080108EB0400401A39
:10541000A0F128021CE005F5E071084600E0806874
:10542000D0B1026843689A189442F8D1027B1207FF
:1054300012D4AA6903689A420ED347683B449A4241
:105440000AD208EB07014160E868A96908EB00028D
:105450002846FFF7A7FD1EE128698442084638BFA9
:105460002C6108EB040100E0806880B102688A4288
:10547000FAD1017B09070AD40460416841444160C4
:105480002146049B284606B0BDE8F04DA4E5AF696F
:1054900039462846FFF760FD0168406840180290D1
:1054A0002F3800F1080111F0070105D000F10801C3
:1054B000C1F1080101F00701081807F11001884245
:1054C00034BF0097009000980830019004F1080163
:1054D000009800F1180A11F007014FF0000BA8F135
:1054E000280005D004F10801C1F1080101F007010D
:1054F0000A19401AAA61E86040F001015160801861
:105500002821416071480069E861019810F00700A6
:1055100018BF04F00EF800991B20486005F5E071F3
:10552000B1E80C500198A0E80C503461C6F8148022
:10553000C6F81CB00198B061029800E08A460722C4
:10554000CAF804200AF104010A1D82420BF1010B82
:10555000F4D3BBF1020FB8BF03F0EBFF0098B842E1
:1055600000F09980C01BC119C4084A685208520053
:105570004A6040F001017960C051202C20D205EB37
:10558000C40101F12806B046102838BF03F0D1FF4E
:10559000286820FA04F1C90704D40121A140084376
:1055A000286006E0B068296988422CBF804603F075
:1055B000C0FFB760C8F80C70C7F80880FE606AE0EA
:1055C000010A08BF002223D0B1F5803F28BF1F2267
:1055D0001ED2A1F58072120C02F008029140A1F5D2
:1055E00080531B0C03F004039940A1F58044240C64
:1055F000C2F10E0204F00204D21A121BA14002EB07
:10560000D131CA1D20FA02F303F0010202EB41027C
:10561000FA6100237B613B6105EB82016B6823FA31
:1056200002F4E40701F5987105D401209040184375
:1056300068600F601CE009681F2A0EBF0022520834
:10564000C2F1190200FA02F200E019464B68DB08C9
:10565000DB00834210D0D30F01EB830303F110046E
:1056600052002368002BF0D12869844211D32760AF
:10567000B961FF60BF600EE02A698868914228BF67
:10568000904206D3C7608F60B860F9600020B861AF
:1056900001E003F04EFFE8680499814211D2401AFC
:1056A000E860A969049A5218AA6140F001005060AC
:1056B000049840F00300486006B001F10800BDE81E
:1056C000F08D002006B0BDE8F08D0000B834002059
:1056D000A02D00206859883C2DE9F04D0446002695
:1056E00088465FEA1820C8F1000B08BF002123D0CC
:1056F000B0F5803F28BF1F211ED2A0F58071090C94
:1057000001F008018840A0F58052120C02F004025A
:105710009040A0F580431B0CC1F10E0103F0020381
:10572000891AC91A984001EBD030C11D28FA01F23C
:1057300002F0010101EB400104EB8100D0F83001DF
:1057400018B31F290EBF00224A08C2F1190208FA35
:1057500002F2002300E052004568ED08ED00A5EBE1
:1057600008055D4503D25FEA050B06460BD0456987
:10577000D70F00EB8700002D00691CBF85422B4628
:105780000028E8D11846B8BBC6BB012088404000BD
:10579000414208436168084000F06381414208408B
:1057A000401E010B01F01001C840420902F008023E
:1057B000D040830803F00403D840450805F00205F3
:1057C0005118E8405918C0F3400729443944F840BB
:1057D000401804EB8000D0F830010DE00846416825
:1057E000C908C900A1EB080159453CBF8B460646D4
:1057F00001690029F2D140690028F0D1002E00F0A3
:105800003081A068A0EB0800834580F02A812069E0
:105810008642C0F024817068C008C00008EB0B010C
:1058200008EB0605884218BF03F083FEAE4280F005
:105830001681F768D6F818A0B7420CD0B068216975
:10584000884223D3C168B14204BFB968B1421DD1B7
:10585000C760B8601CE006F11400076837B906F1AC
:1058600010000768A7B101E00846076807F11401B6
:105870000A68002A02BF07F110010A68002AF3D162
:105880002169884202D30021016001E003F051FE4A
:10589000BAF1000F38D0F06904EB800000F5987081
:1058A00001688E4209D10760380014D1F26960683E
:1058B000012191408843606026E02069824508D339
:1058C000DAF81000B04214BFCAF81470CAF81070A9
:1058D00001E003F02EFEBFB12069874212D3C7F862
:1058E00018A0306930B12169884226BF38618761CC
:1058F00003F01FFE706938B12169884202D37861D4
:10590000876101E003F015FEBBF1100F0CD208EB2C
:105910000B0040F00300706008EB0B008019416839
:1059200041F00101416096E048F0030070604BF0E7
:10593000010068604FEADB004BF805B020281DD25B
:1059400004EBC00101F12807216821FA00F2D20717
:10595000BB4605D4012202FA00F00843206006E0AD
:10596000B868216988422CBF834603F0E2FDBD6020
:10597000CBF80C50C5F808B0EF606CE05FEA1B2173
:1059800008BF002023D0B1F5803F28BF1F201ED2C2
:10599000A1F58070000C00F008008140A1F5805254
:1059A000120C02F004029140A1F580431B0CC0F1DF
:1059B0000E0003F00203801AC01A994000EBD130A8
:1059C000C11D2BFA01F202F0010101EB4000E86178
:1059D00000226A612A6104EB8001626822FA00F306
:1059E000DB0701F5987106D4012303FA00F0104398
:1059F00060600D601CE009681F280EBF0020400891
:105A0000C0F119000BFA00F000E011464A68D20814
:105A1000D2005A4510D0C20F01EB820202F11003EE
:105A200040001A68002AF0D12069834211D31D601A
:105A3000A961ED60AD600EE022698868914228BFDF
:105A4000904206D3C5608D60A860E9600020A8611F
:105A500001E003F06EFD06F10800BDE8F08D03F0F3
:105A600068FD0020BDE8F08D2DE9F84F044688461A
:105A7000606841420840401E010B01F01001C8401F
:105A8000420902F00802D040830803F00403D84022
:105A9000450805F002055118E8405918C0F34006C2
:105AA00029447118F040401804EB8000D0F8300110
:105AB0004168C908C9000646A1EB080A09E0084682
:105AC0004168C908C900A1EB080151453CBF8A469D
:105AD000064601690029F2D140690028F0D1206909
