:020000040800F2
:1000000080110020B5B0000819A6000821A600083C
:1000100029A6000831A6000839A600080000000043
:1000200000000000000000000000000041A60008E1
:1000300049A600080000000051A6000859A60008C3
:1000400075B1000879B100087DB1000881B10008E0
:1000500085B1000865A6000889B100088DB10008C7
:1000600091B1000895B1000899B100089DB1000850
:10007000A1B10008A5B10008A9B10008ADB1000800
:10008000B1B10008B5B10008B9B10008BDB10008B0
:10009000C1B10008C5B10008C9B10008B5A6000883
:1000A000CDB10008D1B10008D5B10008D9B1000820
:1000B000DDB10008E1B10008E5B10008E9B10008D0
:1000C000EDB10008F1B10008F5B10008F9B1000880
:1000D000FDB1000867A6000801B2000871A600087B
:1000E000A1A6000805B2000809B200080DB2000878
:1000F00011B2000815B2000819B200081DB20008BC
:1001000021B2000825B2000829B200082DB200086B
:1001100031B200087BA6000885A6000835B20008A9
:1001200039B200083DB2000841B2000845B20008EB
:1001300049B200084DB2000851B2000855B200089B
:1001400059B200085DB2000861B2000865B200084B
:1001500069B200086DB2000871B2000875B20008FB
:1001600079B200087DB2000881B2000885B20008AB
:1001700089B200088DB2000891B2000800000000AA
:1001800095B2000899B20008BFF34F8FDFF8AC0DAD
:10019000006810F4E060DFF8281C0843DFF89C1DBD
:1001A0000860BFF34F8F00BFFDE780B5DFF8140C88
:1001B00001F092FFDFF8101CDFF8100C01F09EFF39
:1001C000DFF8041CDFF8080C01F098FF00F039F8A4
:1001D00001BD10B5DFF8FC0B01F07EFF002400200C
:1001E000DFF8F40B007800280AD075A1DFF8DC0BEB
:1001F00001F0A6FF04000020DFF8DC1B087005E01A
:100200006FA1DFF8CC0B01F09BFF04006CA1002074
:1002100001F096FF90F90010302904D194F9000004
:1002200000F026FF0CE090F90000312804D194F989
:10023000000000F0D5FD03E0DFF8040D01F04CFFF5
:1002400010BD2DE9F047ADF5BC6DDFF8900B01F066
:1002500043FFFAA84FF4FA7101F098FF5FF000092C
:10026000002400255FF0000868464FF47A7101F021
:100270008DFF00260127DFF8600B0078002809D0E9
:10028000DFF8481B684601F039FF0020DFF8481B03
:10029000087004E0DFF8381B684601F02FFF68465D
:1002A00001F07CFF8046002000F08CF8012000F077
:1002B00089F8022000F086F8032000F083F804207B
:1002C00000F080F8052000F07DF899A1684601F063
:1002D00037FF8146B9F1000F5FD0761C4946FAA876
:1002E00001F00CFF9DF9E8A3484601F057FF4519BE
:1002F0006D1C684615EB00098DA1484601F020FFF2
:100300008146454501DB5FF000094FFA8AFABAF1F0
:10031000300F0CD033D3BAF1320F14D00DD3BAF161
:10032000340F1CD015D3BAF1350F1ED027E0FAA92F
:10033000002000F043FA040029E0FAA9012000F0AF
:100340003DFA040023E0FAA9022000F037FA040085
:100350001DE0FAA9032000F031FA040017E0FAA921
:10036000042000F02BFA040011E0FAA9052000F0A7
:1003700025FA04000120DFF8CC1B087007E00027F5
:100380004FFA8AFA5146DFF8C00B01F0A5FE14F1CE
:10039000010F9FD1FFF709FF0EE0002F03D0DFF818
:1003A000C00C01F099FEF6B2002E05D0002F03D04C
:1003B0000120DFF81C1E08700DF5BC6DBDE8F0874C
:1003C0002C00000070B50400052C5AD1002051E02B
:1003D0000021DFF8902C682303FB0022117000211C
:1003E000DFF8802C682303FB002291770021DFF8DF
:1003F000742C682303FB002211625FF0FF31DFF8E9
:10040000642C682303FB002291620021DFF8542C46
:10041000682303FB002251620021DFF8482C682387
:1004200003FB0022D1630021DFF8382C682303FB93
:10043000002211660021DFF82C2C682303FB002228
:1004400082F854100021DFF81C2C682303FB0022E3
:1004500051660021DFF80C2C682303FB002282F890
:1004600040100021DFF8FC2B682303FB002282F8F8
:100470004A10401C0528ABDBDFF8EC0B01F02CFE2A
:1004800054E0DFF8E80B382101FB0400406B050065
:10049000012605E0D0F8885002F087FE2800761C7F
:1004A000DFF8C81B382202FB041109688E42F1DB19
:1004B000DFF8B80B382101FB040000220023C0E95B
:1004C0000623DFF8A80B382101FB040000220023DB
:1004D000C0E904230020DFF8941B382202FB04113A
:1004E00008600020DFF8841B382202FB0411086337
:1004F000DFF8780B382101FB040000220023C0E95B
:100500000823DFF8680B382101FB040000220023D8
:10051000C0E90A230020DFF8541B382202FB041133
:1005200048632100DFF8C40D01F0D6FD70BD000066
:100530003B000000F8B52DED028B94B0DFF8940C71
:1005400001F0CAFD0FA8142101F020FE9FED988A4A
:1005500000250024002602A8342101F017FE002700
:10056000002437E097ED148A39000FA801F0C6FD8A
:100570000190009518EE100A03F0A4F802000B0099
:10058000DFF8541C02A803F0C5F80FA801900095ED
:1005900018EE100A03F096F802000B00DFF88C0C3E
:1005A00001F09AFD02A801F0F9FD4FF47A73020000
:1005B00092B202A9DFF8780C03F001F9D7F888703D
:1005C000761CDFF8A80A382101FB04000068864287
:1005D000C8DB641C052C3FDADFF8900A382101FBE8
:1005E000040000680128F4DBDFF8800A382101FBF1
:1005F0000400476BDFF83C0C282101FB0400056870
:10060000DFF8300C282101FB040090ED098A0095E9
:1006100018EE100A03F056F802000B00DFF8181C61
:1006200002A803F077F8009518EE100A03F04AF8D4
:1006300002000B00DFF8040C01F04EFD02A801F0EF
:10064000ADFD02004FF47A7392B202A9DFF8E00B1D
:1006500003F0B5F80026B4E74FF47A73012255A1F0
:10066000DFF8CC0B03F0ABF8DFF8340D01F034FD0C
:1006700014B0BDEC028BF1BD2DE9F0412DED028BE4
:1006800086B05FF0000800249FED498A002500260F
:100690006846142101F07AFDDFF8540C01F01CFDCE
:1006A000002719E0DFF8C409382101FB070090EDAD
:1006B000000AB8EEC00A88EE008ADFF8B0093821D7
:1006C00001FB070080ED028ADFF8680B282101FB9F
:1006D000070080ED098A7F1C052F64DADFF88C099A
:1006E000382101FB0700D0F83480B8F1000F1AD18F
:1006F000F1E798ED160AB8EEC00AD8ED140A80EEBC
:10070000800A88ED140A98ED140A38EE008AD8F8A9
:100710005400854202DAD8F854504446D8F85400C0
:100720008619D8F88880B8F1000F22D0D8F8580080
:10073000002803D0D8F854001F28DADB0020C8F8BE
:10074000500042461CA1684602F0E4FF684601F0F2
:1007500025FD4FF47A73020092B26946DFF8D00AA1
:1007600003F02DF842463900DFF8380C01F0B4FCF4
:10077000C9E7DFF8C00A282101FB070007601F2E28
:1007800090DBDFF8B00A282101FB0700DFF8181C16
:1007900041622100DFF89C0A282202FB0700001DAD
:1007A00001F0ACFC97E706B0BDEC028BBDE8F08130
:1007B000000000002300000021257300F8B52DED96
:1007C000028BB2B004000F00002000256846C8214B
:1007D00001F0DCFC00260026002500209FEDA68B02
:1007E0009FEDA50B9FEDA48B9FEDA30BA4A138005B
:1007F00001F0A6FC07E0A2A1002001F0A1FC6946DF
:1008000041F82600761C0028F5D10A2E0ADA052CBC
:1008100008D032002100DFF8A80C01F05DFC5FF089
:10082000FF3051E2052C40F00181009803F070FB8D
:10083000050000261BE0DFF82C28682303FB0122BB
:1008400012EB81026B46052707FB06F713EB8703C4
:100850001B69CB56303B9362491C8142EBDB002085
:10086000DFF80018682202FB06110862761CAE420F
:1008700080F2DA806846052101FB06F110EB810069
:100880004168DFF8E007682202FB060001F036FC51
:100890006846052101FB06F110EB810080680078B5
:1008A000DFF8C017682202FB06118877DFF8B4076B
:1008B000682101FB060090F91E00313804280ED390
:1008C000DFF8A007682101FB060090F91E20210037
:1008D000DFF8F00B01F000FC5FF0FF30F4E1684658
:1008E000052101FB06F110EB8100C06803F010FB4D
:1008F000DFF87017682202FB0611C863DFF864078F
:10090000682101FB0600C06B001E05280DD3DFF82F
:100910005407682101FB0600C26B2100DFF8A00C20
:1009200001F0DAFB5FF0FF30CEE1DFF83807682135
:1009300001FB0600C06B042828D16846052101FB95
:1009400006F110EB81000069002141716846052124
:1009500001FB06F110EB81000169DFF8080768224E
:1009600002FB0600403001F0C9FB6846052101FB8F
:1009700006F110EB81000069811DDFF8E8066822AE
:1009800002FB06004A3001F0B9FB68E7DFF8D40645
:10099000682101FB0600C06B032828D168460521A9
:1009A00001FB06F110EB81000069002141716846EE
:1009B000052101FB06F110EB81000169DFF8A406B7
:1009C000682202FB0600543001F098FB68460521BE
:1009D00001FB06F110EB81000069811DDFF8840640
:1009E000682202FB06004A3001F088FB37E76846C0
:1009F000052101FB06F110EB8100006901F0CEFB3F
:100A0000011E062908D302002100DFF85C0C01F06A
:100A100063FB5FF0FF3057E1DFF84816682202FB06
:100A200006114862002118E700204DE1DFF83C067E
:100A3000382101FB04004460009803F069FADFF8F4
:100A40002C16382202FB04110860DFF8200638213A
:100A500001FB04000068001E152813D3DFF80C0604
:100A6000382101FB040002682100DFF8000C01F0CE
:100A700033FB5FF0FF3027E10000000000000000C2
:100A80002C0000000021019803F046FAB0EE408AE5
:100A9000F0EE608A0021029803F03EFADFF8CC0500
:100AA000382101FB040080ED048BDFF8C0053821FC
:100AB00001FB040080ED060B0021049803F02CFAE2
:100AC000B0EE408AF0EE608A0021039803F024FA29
:100AD000DFF89805382101FB040080ED088BDFF872
:100AE0008C05382101FB040080ED0A0B0020DFF8A3
:100AF0007C15382202FB041108630020DFF86C1516
:100B0000382202FB0411486300260EE0DFF85C0582
:100B1000382101FB0400406BC5F88800DFF84C0564
:100B2000382101FB04004563761CDFF840053821BD
:100B300001FB04000068864280F2C5808C2002F030
:100B4000D9F905006846092101FB06F110EB810087
:100B50004169280001F0D2FA6846092101FB06F13B
:100B600010EB8100816915F11E0001F0C7FA68469B
:100B7000092101FB06F110EB8100C16915F15C0050
:100B800001F0BCFA6846092101FB06F110EB810077
:100B9000006A03F0BDF9A866A86E001E652808D398
:100BA000AA6E2100DFF8C80A01F096FA5FF0FF3064
:100BB0008AE06846092101FB06F110EB8100406ADA
:100BC00003F0A6F9E866E86E001E652808D3EA6E11
:100BD0002100DFF8A00A01F07FFA5FF0FF3073E038
:100BE0006846092101FB06F110EB8100806A03F0E1
:100BF0008FF92867286F001E652808D32A6F210007
:100C0000DFF8C80B01F068FA5FF0FF305CE068467F
:100C1000092101FB06F110EB8100C16A15F1740096
:100C200001F06CFA6846092101FB06F110EB810026
:100C3000006B03F06DF9C5F88000D5F88000001E48
:100C4000DFF88C1B884209D3D5F880202100DFF81B
:100C5000840B01F041FA5FF0FF3035E0684609216E
:100C600001FB06F110EB8100406B03F051F9C5F870
:100C70008400D5F88400001EDFF8541B884209D395
:100C8000D5F884202100DFF8500B01F025FA5FF041
:100C9000FF3019E000206865002028650020A86565
:100CA0000020C5F88800DFF8C403382101FB0400E8
:100CB000406B00287FF42AAFDFF8B003382101FB36
:100CC0000400456330E7002032B0BDEC028BF2BD7A
:100CD00030B585B0002500246846142101F056FA8D
:100CE000DFF8F80A01F0F8F900245FE0286D02F05F
:100CF000E9FC02000B00DD48382101FB0400416AD9
:100D0000006A03F011F90BD3286D02F0DBFCD74A1F
:100D1000382303FB0422D36A926A03F005F90AD24E
:100D2000D248382101FB0400006B401CCF49382217
:100D300002FB04110863002068650020A8650020FC
:100D400028650020C5F880000020C5F88400D5F88B
:100D50008850002DCAD1C548382101FB0400006B22
:100D6000C249382202FB0411096888421DD1BF48DC
:100D7000382101FB04000068002816D02100DFF8AC
:100D8000600A01F0A9F90020B849382202FB0411D9
:100D9000086301F017F901F0F8F841F2883003F028
:100DA00013F901F0F8F801F0FCF8641C052C05DAE1
:100DB000AE48382101FB0400456BCAE705B030BDE1
:100DC0000400FA05B4AD000868250020803000203A
:100DD00080210020D0AD00081531002034AC00087F
:100DE00030B58DB0040064B22100DFF8F80901F0DD
:100DF00073F900F0F3F96846342101F0C7F90125D1
:100E000064B2312C07D0C0F08880332C43D021D37A
:100E1000342C61D081E001224FF48051DFF8C80901
:100E200003F0DEF901208F4908628E48036A8D4A7B
:100E3000DFF8B819684602F06DFC684601F0AEF9BB
:100E40004FF47A73020092B26946DFF8E40302F0CD
:100E5000B6FC69E001224FF48051DFF88C0903F001
:100E6000BFF901207F49C1F888007E48D0F888305A
:100E7000DFF87C29DFF87C19684602F04BFC6846F5
:100E800001F08CF902004FF47A7392B26946E84897
:100E900002F095FC48E001224FF48051DFF8480948
:100EA00003F09EF901206F49C1F8F0006D48D0F8B9
:100EB000F030DFF84429DFF84419684602F02AFCD4
:100EC000684601F06BF94FF47A73020092B26946FA
:100ED000D74802F074FC27E001224FF48051DFF87C
:100EE000080903F07DF901205E49C1F858015D4809
:100EF000D0F85831DFF80829DFF80819684602F001
:100F000009FC684601F04AF94FF47A73020092B284
:100F10006946C74802F053FC06E0002564B2210090
:100F2000DFF8E40801F0D8F8002D05D064B2210004
:100F3000DFF8880C01F0D0F80DB030BD0CED00E00A
:100F4000ECAD00081131002054AC0008F0B59FB0A2
:100F5000040000200026002500276846142101F027
:100F600015F9002205A9DFF8A40803F04FFA9DF84F
:100F700015309DF81420DFF89818684602F0CAFB77
:100F80006946DFF83C0C682202FB0400403001F0A7
:100F9000B5F8DFF82C0C682101FB040010F15401B6
:100FA000684601F0ABF8A0A101F0CAF80BE001001F
:100FB0000AA8142202FB060001F0A0F89AA1002062
:100FC00001F0BEF8761C0028F1D10026DFF8F00B06
:100FD000682101FB040010F14001684601F08EF821
:100FE00091A101F0ADF80BE0010014A8142202FB5E
:100FF000060001F083F88CA1002001F0A1F8761C16
:101000000028F1D119A802F083FF06000FA802F012
:101010007FFF87193C2F07DB3C2097FBF0F53C2036
:1010200097FBF0F100FB117714A802F071FF0600A6
:101030000AA802F06DFF80194519182095FBF0F100
:1010400000FB11553B002A00DFF8C417DFF8700BD6
:10105000682505FB0400403002F05CFB1FB0F0BDCA
:1010600008AE0008282B002074AC0008C82C002013
:1010700030B58DB004006846342101F087F80125B1
:1010800000F0ACF864B2312C07D0C0F09080332C63
:1010900047D023D3342C67D089E000224FF480510D
:1010A000DFF8440703F09CF80020DFF8141B086207
:1010B000DFF80C0B036ADFF8082BDFF830176846FF
:1010C00002F028FB684601F069F84FF47A730200D9
:1010D00092B26946564802F072FB6FE000224FF46C
:1010E0008051DFF8040703F07BF80020DFF8D01A06
:1010F000C1F88800DFF8C80AD0F88830DFF8F02699
:10110000DFF8F016684602F005FB684601F046F885
:1011100002004FF47A7392B26946454802F04FFBE1
:101120004CE000224FF48051DFF8BC0603F058F881
:101130000020DFF88C1AC1F8F000DFF8840AD0F83C
:10114000F030DFF8B426DFF8B416684602F0E2FAB1
:10115000684601F023F84FF47A73020092B26946B0
:10116000334802F02CFB29E000224FF48051DFF8D5
:10117000780603F035F80020DFF8441AC1F858016A
:10118000DFF83C0AD0F85831DFF87426DFF874161F
:10119000684602F0BFFA684601F000F84FF47A732F
:1011A000020092B26946224802F009FB06E00025DF
:1011B00064B22100DFF8C80B00F08EFF002D05D0CF
:1011C00064B22100DFF8AC0D00F086FF0DB030BD39
:1011D00010310020F8AE0008DCB0000800B587B080
:1011E000002201A9DFF8240603F010F90022694665
:1011F000DFF8180603F0B5F99DF802309DF80120DC
:101200009DF8030010F5FA61DFF8780B00F064FF39
:101210009DF806309DF805209DF80410DFF8980D24
:1012200000F05AFF07B000BD3A00000094AC00087F
:10123000502F0020E02D0020D0B0000824AE000880
:10124000F8B504000026002500272100DFF8D40BA4
:1012500000F042FFDFF86809682101FB0400456ADD
:10126000002640E0DFF85809682101FB040010EB7C
:101270008600876ADFF8B00B382101FB0700806821
:1012800002F020FADFF8A02B382303FB0722536972
:10129000126902F049FE08D2DFF82409682101FB37
:1012A000040090F91E00FFF79BFDDFF87C0B38214E
:1012B00001FB0700806802F005FA02000B00DFF86E
:1012C000680B382101FB0700C169806902F02CFE20
:1012D00008D2DFF8EC08682101FB040090F91E0039
:1012E000FFF7C6FE761CAE42BCDBF1BDACAA00081F
:1012F000B4AC0008F8B50400002600250027210042
:10130000DFF8280B00F0E8FEDFF8B408682101FBE5
:101310000400456A002640E0DFF8A408682101FBCC
:10132000040010EB8600876ADFF8FC0A382101FB15
:101330000700806802F0C6F9DFF8EC2A382303FBC7
:1013400007225369126902F0EFFD08D2DFF8700836
:10135000682101FB040090F91E00FFF789FEDFF809
:10136000C80A382101FB0700806802F0ABF90200CF
:101370000B00DFF8B40A382101FB0700C16980695E
:1013800002F0D2FD08D2DFF83808682101FB040022
:1013900090F91E00FFF724FD761CAE42BCDBF1BDC8
:1013A00010AF0008D4AC000800401CC670B5ACB04B
:1013B00004001FA8342100F0E9FE12A8342100F037
:1013C000E5FE05A8342100F0E1FE00250020210003
:1013D000DFF8A40B00F080FEDFF8E407682101FBD2
:1013E000040010F14A02DFF8D807682101FB04006D
:1013F00010F15401DFF8BC0B00F06EFE00226946CC
:10140000DFF8080403F002F89DF801309DF8002091
:10141000DFF8FC131FA802F07DF91FA9DFF8A00771
:10142000682202FB0400403000F068FEDFF89007FD
:10143000682101FB040010F14A0112A800F05EFED1
:1014400088A100F07DFE0BE0010005A80A2202FB46
:10145000050000F053FE83A1002000F071FE6D1C1A
:101460000028F1D1002D04D1DFF8680B00F034FE24
:1014700023E005A802F04CFD05003C260DF11E00FE
:1014800002F046FD06FB05004EF660214843DFF8FA
:101490003017682202FB04110866DFF82407682170
:1014A00001FB0400006EDFF81817682202FB04112C
:1014B00048660120DFF8201B08702CB070BD0000CA
:1014C000D0AA00085CAA000870B5A8B004001AA849
:1014D000342100F05BFE0DA8342100F057FE684671
:1014E000342100F053FE002500202100DFF8880A97
:1014F00000F0F2FDDFF8C806682101FB040010F1DE
:101500004A02DFF8BC06682101FB040010F140012B
:10151000DFF8C80A00F0E0FDDFF8A406682101FB4F
:10152000040010F140011AA800F0E8FDDFF8900671
:10153000682101FB040010F14A010DA800F0DEFD56
:1015400048A100F0FDFD0BE0010068460A2202FB05
:10155000050000F0D3FD43A1002000F0F1FD6D1C5B
:101560000028F1D1002D04D1DFF8740A00F0B4FD99
:1015700023E0684602F0CCFC05003C260DF10A0091
:1015800002F0C6FC06FB05004EF660214843DFF87A
:101590003016682202FB04110866DFF82406682171
:1015A00001FB0400006EDFF81816682202FB04112C
:1015B00048660120DFF82C1A087028B070BD0000C2
:1015C000D0A8000810B500240020002400E0641C0E
:1015D000042C37DADFF8E805682101FB040090F9F4
:1015E00000003028F3D0DFF8D805682101FB0400A3
:1015F000C06B012806D0EAD303280BD006D30428F9
:1016000014D0E4E72000FFF71BFEE0E72000FFF71F
:1016100071FEDCE7DFF8A805682101FB0400006E1D
:10162000002802D12000FFF7C1FED0E7DFF89005C7
:10163000682101FB0400006E002802D12000FFF7A2
:1016400043FFC4E710BD002004E00021DFF8982923
:101650008154401CDFF8941909888842F5DB7047F3
:10166000000000003A000000B0A70008E0A7000852
:10167000FCA8000828A9000880B52DED028B00EE1B
:10168000100AB8EEC08A00290ED002291CD00CD353
:10169000042937D027D3062952D042D308296DD048
:1016A0005DD3092979D087E08AE018EE100A02F0AC
:1016B00009F8DFF83C29DFF83C3902F0CBFF03F0F2
:1016C0009BF808EE100A7BE018EE100A01F0FAFF12
:1016D000DFF82429DFF8243902F0BCFF03F08CF88E
:1016E00008EE100A6CE018EE100A01F0EBFFDFF8CC
:1016F0001029DFF8103902F0ADFF03F07DF808EE95
:10170000100A5DE018EE100A01F0DCFFDFF8F8289F
:10171000DFF8F83802F09EFF03F06EF808EE100ACA
:101720004EE018EE100A01F0CDFFDFF8E428DFF8F4
:10173000E43802F08FFF03F05FF808EE100A3FE094
:1017400018EE100A01F0BEFFDFF8CC28DFF8CC3825
:1017500002F080FF03F050F808EE100A30E018EEB7
:10176000100A01F0AFFFDFF8B828DFF8B83802F050
:1017700071FF03F041F808EE100A21E018EE100A9C
:1017800001F0A0FFDFF8A028DFF8A03802F062FF28
:1017900003F032F808EE100A12E018EE100A01F019
:1017A00091FFDFF88C28DFF88C3802F053FF03F04C
:1017B00023F808EE100A03E0DFF87C0800F08CFC48
:1017C000B0EE480ABDEC028B01BD000054A9000830
:1017D00041420F0080A90008ACA90008F4AC000841
:1017E00014AD000854B0000800140240E8B000082E
:1017F000902B0020F4B00008F82B002000B1000866
:10180000602C00200CB1000810A80008B4300020A3
:1018100018B1000870B52DED028B92B006000C00D7
:1018200015006846142100F0B1FC9FEDCA8A9FEDB7
:10183000C98A002005A8342100F0A8FC002003E09C
:10184000815D05AA8154401CDFF8A01709888842F1
:10185000F6DBDFF89807018805A803F03DF80028BB
:101860002FD1DFF8D80700F037FCDFF8D41714F1D8
:101870005C0003F071F8002840F0C880CDA114F19D
:10188000740003F069F8002838D1E06E042822D1F2
:1018900005A8A16E081810F8010C8DF8020005A823
:1018A000A16E085C8DF8030005A8A16E08184078A9
:1018B0008DF8000005A8A16E081880788DF8010049
:1018C0004AE0DFF8800700F007FC606D401C6065AF
:1018D000FFF7B9FE6AE105A8A16E085C8DF8020069
:1018E00005A8A16E081810F8010C8DF8030000205F
:1018F0008DF8000000208DF801002DE0E06E042836
:1019000018D105A8A16E081810F8010C8DF8000078
:1019100005A8A16E085C8DF8010005A8A16E081845
:1019200040788DF8020005A8A16E081880788DF81F
:10193000030011E005A8A16E081810F8010C8DF83D
:10194000020005A8A16E085C8DF8030000208DF848
:10195000000000208DF80100684600F041F9B0EE6B
:10196000408A18EE100A01F0ADFE02000B00DFF80D
:10197000D80600F0B1FBD4F8800000281ED0D4F8BF
:10198000840000281AD09FED8C0A88EE008AD4F8D3
:101990008400D4F88010401A02F0FFFF00EE100A15
:1019A000B8EEC00A28EE008A18EE100A01F08AFE8E
:1019B00002000B00DFF8940600F08EFB002D09D02A
:1019C000022D00F08B8069D3042D00F0C980C0F097
:1019D000A580E5E0DFF8780690ED000AB4EE408AD5
:1019E000F1EE10FA56DBDFF86C0690ED000AB4EE6B
:1019F000480AF1EE10FA4DDB94ED140A30EE080AB5
:101A000084ED140AA06D401CA06546E0DFF848167E
:101A100014F15C0002F0A0FF002836D1E06E02282D
:101A200012D100208DF8000000208DF8010005A8DB
:101A3000A16E081810F8010C8DF8020005A8A16E1F
:101A4000085C8DF8030017E005A8A16E081810F8CF
:101A5000010C8DF8000005A8A16E085C8DF801004E
:101A600005A8A16E081840788DF8020005A8A16E9F
:101A7000081880788DF80300684600F0A3F8216FFD
:101A8000FFF7FAFDB0EE408A6BE7DFF8D00500F013
:101A900023FB8BE0606D401C606585E0DFF8C005CE
:101AA00090ED000AB4EE408AF1EE10FA12DBDFF896
:101AB000B40590ED000AB4EE480AF1EE10FA09DB25
:101AC00094ED140A30EE080A84ED140AA06D401C4F
:101AD000A06502E0606D401C606565E0DFF8880588
:101AE00090ED000AB4EE408AF1EE10FA12DBDFF856
:101AF0007C0590ED000AB4EE480AF1EE10FA09DB1D
:101B000094ED140A30EE080A84ED140AA06D401C0E
:101B1000A06502E0606D401C606545E0DFF850059F
:101B200090ED000AB4EE408AF1EE10FA14DBDFF813
:101B3000440590ED000AB4EE480AF1EE10FA0BDB12
:101B400094ED140A30EE080A84ED140AA06D401CCE
:101B5000A06504E000000000606D401C606523E0AB
:101B6000DFF8140590ED000AB4EE408AF1EE10FAA9
:101B700012DBDFF8080590ED000AB4EE480AF1EE3A
:101B800010FA09DB94ED140A30EE080A84ED140A09
:101B9000A06D401CA06502E0606D401C606503E024
:101BA000DFF8DC0400F098FAFFF74DFD12B0BDEC51
:101BB000028B70BD6269670000409C4640AE000821
:101BC000282B0020017809064278120483781B0232
:101BD0009A18C078101841180800704700000000DB
:101BE0002DE9F0412DED048B017890F80180847887
:101BF000C578B7EE008AC9B2802901D3BFEE008A4A
:101C0000DFED878AC9B280290DD3C9B2080002F07E
:101C1000D3FE0022DFF86C3402F0DCFE02F0ECFDB3
:101C200008EE900A04E0C9B200EE101AF8EE408AFD
:101C300018EE900A01F046FD00225FF0804302F0AA
:101C400009FD02F0D9FD08EE900A5FFA88F8B8F1B4
:101C5000800F0CD318EE900A01F034FD0022DFF85B
:101C6000283402F0B7FE02F0C7FD08EE900A18EE25
:101C7000900A01F027FD0022DFF8103402F0AAFEDE
:101C800002F0BAFD08EE900A9FED659A5FFA88F8B7
:101C9000B8F1800F0CD35FFA88F8404602F08CFE52
:101CA0000022DFF8E03302F095FE02F007FF8046E5
:101CB000EDB2280002F080FE06000F00E4B2200022
:101CC00002F07AFE04000D005FFA88F8404602F048
:101CD00073FE0022DFF8B83302F0BCFC22002B00B8
:101CE00002F078FE0022DFF8A83302F0B3FC3200E5
:101CF0003B0002F06FFE02F07FFD09EE100A9FED3F
:101D0000AC0A89EE009A18EE100A01F0DBFC040020
:101D10000D0018EE900A01F0D5FC41EC110B9FED7F
:101D2000A70B03F052F951EC100B22002B0002F02C
:101D300091FC04000D00B7EE000A39EE000A10EE27
:101D4000100A01F0BFFC22002B0002F083FC02F01D
:101D500053FD00EE100ABDEC048BBDE8F08170B5B8
:101D600004000D00002604E0315DCA4800F0B4F91B
:101D7000761CAE42F8DB96A000F0AEF970BD000014
:101D8000D8A9000854AD000830B5ADF57F7D050039
:101D9000280000F003FA0400641C6846142100F0D7
:101DA000F5F96946200000F043F82900BA4800F030
:101DB000A5F9290005A800F0A1F9232005A96118BB
:101DC00001F8010CB5480068012803D1312005A9AC
:101DD000605402E0302005A96054002005A9611874
:101DE0004870641CAE4803F0ACFB684600F0D6F9BE
:101DF000020092B2AA49684603F0F7FB05A800F07A
:101E0000CDF9020092B2A74905A803F0EEFB22002B
:101E100005A9A54800F060F90DF57F7D30BD0000F3
:101E20000000000040A80008C82C002070A800088E
:101E30007EB40022002300236B46002400250026E8
:101E400070C30C3B0300002B00D540420A2490FBDA
:101E5000F4F504FB150430346D465455521C0A2425
:101E600090FBF4F00128F1DA002B03D52D206B460E
:101E7000D054521C00206B46D054130006E0684634
:101E8000181810F8010CD41A60545B1E002BF6D5FC
:101E900077BC704730B5ADF5017D0400002568467C
:101EA0000021002200230EC00C3803A84FF4FA7161
:101EB00000F06CF90A227A49684603F032FC684661
:101EC00002F026F805006D1C2800020092B2754948
:101ED00003A803F026FC03A9744800F0FDF803A84A
:101EE000281810F8010C302806D100206B49086032
:101EF0006F4800F0F1F812E003A8281810F8010C60
:101F0000312806D10120654908606A4800F0E4F8EC
:101F100005E0002061490860674800F0DDF803A88B
:101F2000281810F8020C23280FD1002003A96918E3
:101F300001F8020C03A9200000F0E0F803A95F48B3
:101F400000F0CAF8FEF77DF902E05D4800F0C4F841
:101F50000DF5017D30BD80B503F09CFD002804D156
:101F6000584800F0B9F8002003E0574800F0B4F8F2
:101F7000012002BD34AD000804AA000880B501208C
:101F800080F31388FEF700F901BD80B508214F48A2
:101F900003F07CFE01BD80B508214D4803F076FEBC
:101FA00001BD80B508214B4803F070FE01BD000063
:101FB0000000004B144B000864B000080000000053
:101FC0000000004080B50821424803F05FFE01BDDB
:101FD0000A0000005CAE000816310020A0A800082E
:101FE00074AD0008173100204C3000207C01002027
:101FF0009A9999999999B93F7B14AE47E17A843FB0
:10200000FCA9F1D24D62503F2D431CEBE2361A3F42
:10201000F168E388B5F8E43E8DEDB5A0F7C6B03EB3
:1020200048AFBC9AF2D77A3E3A8C30E28E79453E80
:1020300095D626E80B2E113E28AF0008F4AA00081A
:102040003CB1000818AB000860AB000874B0000891
:10205000F83000200C00002044B100083CAB000820
:10206000FC30002010000020140000201800002088
:10207000F430002008000020F03000200400002090
:10208000D4AF0008000060C00000F03F00C05FC097
:10209000000070404CB10008682500201C000020A2
:1020A00000FF0F080AFF0F0830AA000854B100080B
:1020B000E8AF0008FCAF000884AB000884B000085B
:1020C000A8AB000894AD0008CCAB000828000020A5
:1020D00030000020200000200EB400B582B003A91B
:1020E000009102466B460121034878440A3003F010
:1020F00039FE06BC5DF810FB918E00005FEA000C13
:10210000830706D011F8013B00F8013BB3B1830708
:10211000F8D10A68B2F1013323EA020313F0803FD9
:1021200002BF40F8042B51F8042FF3E711F8013BEC
:1021300000F8013B13B111F8013BF9E76046704725
:1021400070B504460D46104804F0BFFE064644B183
:102150002946204604F0BAFE0419207830B93060D0
:1021600070BD3468002CF3D1002070BD2946204694
:1021700004F0BDFE0019017811B1002100F8011B27
:102180003060204670BD00BF78000020002204F0BF
:10219000BFBE0268531C03601170704700F1010359
:1021A000810704D010F8011B89B18107FAD10268B8
:1021B000B2F10131914311F0803F04BF50F8042F78
:1021C000F6E710F8011B11B110F8011BFBE7C01A6C
:1021D0007047000000F5E0700268914203D3436845
:1021E0009A18914202D380680028F5D17047DFF831
:1021F0005807016891B94FF4803181604FF48051E4
:1022000041604FF0FF31C16001610421DFF83C27DC
:102210004161C2F8BC11DFF8381701600120704736
:1022200001F1080313F0070305D001F10803C3F11E
:10223000080303F007035918D21A8161C26042F003
:1022400001034B60511828234B60DFF8FC16096925
:10225000C16170472DE9F84F064601F1080010F002
:10226000070008BF884607D001F10800C0F1080048
:1022700000F0070000EB010802F1080010F0070071
:1022800006D002F10800C0F1080000F00700821833
:102290001546A5EB0800A0EB030903EB080B43F080
:1022A0000300C8F80400AB4528BF04F04AFE2879B3
:1022B000C00758BF04F045FEB9F1100F38BF04F055
:1022C00040FEB069854209D1F0684844F060C6F824
:1022D00018B040F00100CBF804006DE17069854250
:1022E0000BD1B0684844B060C6F814B040F00101AA
:1022F000CBF8041040F80B005EE1686800F00301C1
:10230000012940F0AD80C008C0000190C00820281D
:102310003AD2D5F808A0EF680090BD4208BF04F09B
:1023200010FE554508BF04F00CFE68680099C0080F
:10233000C000B0EBC10F18BF04F003FE009806EB1D
:10234000C00000F128018A4507D031698A45C0F0F4
:102350008280DAF80C10A9427DD1574506D1009A47
:102360003068012191408843306076E02830874210
:1023700005D0306987426ED3B868A8426BD1CAF8DD
:102380000C70C7F808A068E0EF68D5F818A0AF4255
:102390000CD0A8683169884223D3C168A94204BF20
:1023A000B968A9421DD1C760B8601CE005F11400EE
:1023B000076837B905F110000768A7B101E00846C2
:1023C000076807F114010A68002A02BF07F110012B
:1023D0000A68002AF3D13169884202D300210160E2
:1023E00001E004F0AEFDBAF1000F36D0E86906EB6B
:1023F000800000F5987001688D4208D10760A7B988
:10240000EA697068012191408843706025E0306975
:10241000824508D3DAF81000A84214BFCAF8147035
:10242000CAF8107001E004F08CFDB7B13069874242
:1024300011D3C7F818A0296929B1814226BF396193
:102440008F6104F07EFD686938B13169884202D33A
:102450007861876101E004F074FD019845198144B9
:1024600068684008400068604FEAD90549F00100FB
:10247000CBF8040049F80B90202D23D206EBC500C1
:1024800000F12807BA46B9F1100F38BF04F059FD22
:10249000306820FA05F1C90704D40121A940084396
:1024A000306006E0B868316988422CBF824604F08B
:1024B00048FDC7F808B0CAF80CB0CBF808A0CBF8B4
:1024C0000C7079E05FEA192108BF002023D0B1F534
:1024D000803F28BF1F201ED2A1F58070000C00F0A5
:1024E00008008140A1F58052120C02F004029140D4
:1024F000A1F580431B0CC0F10E0003F00203801A0B
:10250000C01A994000EBD130C11D29FA01F202F046
:10251000010101EB4000CBF81C000022CBF8142095
:10252000CBF8102006EB8001726822FA00F3DB077B
:1025300001F5987107D4012303FA00F0104370608D
:10254000C1F800B01DE009681F280EBF0020400838
:10255000C0F1190009FA00F000E011464A68D208FB
:10256000D2004A4514D0C20F01EB820202F11003DF
:1025700040001A68002AF0D1306983421AD3C3F8A8
:1025800000B0CBF81810CBF80CB0CBF808B013E0C3
:1025900032698868914228BF90420BD3C0F80CB0D2
:1025A000C1F808B0CBF80800CBF80C100020CBF82D
:1025B000180001E004F0C5FC08F10800BDE8E68F52
:1025C0002DE9FA4D0546DFF8800384B0006808B9AC
:1025D000FFF70DFEDFF870030499806841182F3172
:1025E000401E21EA00000499814280F0A88105F58F
:1025F000D876B16839B132688018824280F09F8104
:102600008142C0F09C8104F09FFC00281EBF04465C
:10261000D0F8008014F1010F00F0918130687168EA
:1026200040443060814238BF01467160A86980BB78
:10263000286908B1844200D22C610020F061346125
:10264000C6F8148005F12801BF48006868624FF0A1
:10265000FF302862002001F10802C9601160801C6F
:1026600010312028D2609260F5D3B848854203D15A
:10267000A8F12802214629E055F8040CC00805EB12
:10268000C000A0F1080108EB0400401AA0F12802E4
:102690001CE005F5E071084600E08068D0B10268F2
:1026A00043689A189442F8D1027B120712D4AA699F
:1026B00003689A420ED347683B449A420AD208EB19
:1026C00007014160E868A96908EB00022846FFF7A6
:1026D000A7FD1EE128698442084638BF2C6108EB3B
:1026E000040100E0806880B102688A42FAD1017B6F
:1026F00009070AD404604168414441602146049BB3
:10270000284606B0BDE8F04DA4E5AF693946284635
:10271000FFF760FD01684068401802902F3800F113
:10272000080111F0070105D000F10801C1F108010D
:1027300001F00701081807F11001884234BF009723
:10274000009000980830019004F10801009800F111
:10275000180A11F007014FF0000BA8F1280005D06E
:1027600004F10801C1F1080101F007010A19401A3A
:10277000AA61E86040F001015160801828214160A1
:1027800071480069E861019810F0070018BF04F073
:10279000D8FB00991B20486005F5E071B1E80C50AA
:1027A0000198A0E80C503461C6F81480C6F81CB03B
:1027B0000198B061029800E08A460722CAF8042016
:1027C0000AF104010A1D82420BF1010BF4D3BBF1A3
:1027D000020FB8BF04F0B5FB0098B84200F0998032
:1027E000C01BC119C4084A68520852004A6040F030
:1027F00001017960C051202C20D205EBC40101F108
:102800002806B046102838BF04F09BFB286820FA41
:1028100004F1C90704D40121A1400843286006E05F
:10282000B068296988422CBF804604F08AFBB760F3
:10283000C8F80C70C7F80880FE606AE0010A08BF9B
:10284000002223D0B1F5803F28BF1F221ED2A1F560
:102850008072120C02F008029140A1F580531B0C0B
:1028600003F004039940A1F58044240CC2F10E0248
:1028700004F00204D21A121BA14002EBD131CA1D8E
:1028800020FA02F303F0010202EB4102FA61002395
:102890007B613B6105EB82016B6823FA02F4E4077C
:1028A00001F5987105D401209040184368600F60CD
:1028B0001CE009681F2A0EBF00225208C2F119024B
:1028C00000FA02F200E019464B68DB08DB008342A5
:1028D00010D0D30F01EB830303F1100452002368DF
:1028E000002BF0D12869844211D32760B961FF60C1
:1028F000BF600EE02A698868914228BF904206D3E3
:10290000C7608F60B860F9600020B86101E004F032
:1029100018FBE8680499814211D2401AE860A9695D
:10292000049A5218AA6140F001005060049840F0E7
:102930000300486006B001F10800BDE8F08D0020FA
:1029400006B0BDE8F08D0000D430002050290020F2
:102950006859883C2DE9F04D0446002688465FEA18
:102960001820C8F1000B08BF002123D0B0F5803F2C
:1029700028BF1F211ED2A0F58071090C01F00801AB
:102980008840A0F58052120C02F004029040A0F59D
:1029900080431B0CC1F10E0103F00203891AC91A0E
:1029A000984001EBD030C11D28FA01F202F001017C
:1029B00001EB400104EB8100D0F8300118B31F296E
:1029C0000EBF00224A08C2F1190208FA02F20023DF
:1029D00000E052004568ED08ED00A5EB08055D45F7
:1029E00003D25FEA050B06460BD04569D70F00EB13
:1029F0008700002D00691CBF85422B460028E8D1C6
:102A00001846B8BBC6BB012088404000414208437D
:102A10006168084000F0638141420840401E010B9C
:102A200001F01001C840420902F00802D0408308BA
:102A300003F00403D840450805F002055118E840AA
:102A40005918C0F3400729443944F840401804EBB2
:102A50008000D0F830010DE008464168C908C9007F
:102A6000A1EB080159453CBF8B4606460169002988
:102A7000F2D140690028F0D1002E00F03081A0682A
:102A8000A0EB0800834580F02A8120698642C0F0CF
:102A900024817068C008C00008EB0B0108EB060534
:102AA000884218BF04F04DFAAE4280F01681F768F4
:102AB000D6F818A0B7420CD0B0682169884223D359
:102AC000C168B14204BFB968B1421DD1C760B860E6
:102AD0001CE006F11400076837B906F1100007681A
:102AE000A7B101E00846076807F114010A68002A47
:102AF00002BF07F110010A68002AF3D12169884258
:102B000002D30021016001E004F01BFABAF1000FCA
:102B100038D0F06904EB800000F5987001688E42AF
:102B200009D10760380014D1F26960680121914031
:102B30008843606026E02069824508D3DAF81000F7
:102B4000B04214BFCAF81470CAF8107001E004F063
:102B5000F8F9BFB12069874212D3C7F818A03069CD
:102B600030B12169884226BF3861876104F0E9F9F4
:102B7000706938B12169884202D37861876101E0C8
:102B800004F0DFF9BBF1100F0CD208EB0B0040F0A2
:102B90000300706008EB0B008019416841F00101EF
:102BA000416096E048F0030070604BF001006860FF
:102BB0004FEADB004BF805B020281DD204EBC00122
:102BC00001F12807216821FA00F2D207BB4605D49B
:102BD000012202FA00F00843206006E0B86821698B
:102BE00088422CBF834604F0ACF9BD60CBF80C5092
:102BF000C5F808B0EF606CE05FEA1B2108BF002059
:102C000023D0B1F5803F28BF1F201ED2A1F58070D0
:102C1000000C00F008008140A1F58052120C02F077
:102C200004029140A1F580431B0CC0F10E0003F09B
:102C30000203801AC01A994000EBD130C11D2BFA53
:102C400001F202F0010101EB4000E86100226A613B
:102C50002A6104EB8001626822FA00F3DB0701F5C8
:102C6000987106D4012303FA00F0104360600D60F0
:102C70001CE009681F280EBF00204008C0F11900A1
:102C80000BFA00F000E011464A68D208D2005A451B
:102C900010D0C20F01EB820202F1100340001A684B
:102CA000002AF0D12069834211D31D60A961ED6033
:102CB000AD600EE022698868914228BF904206D339
:102CC000C5608D60A860E9600020A86101E004F0A3
:102CD00038F906F10800BDE8F08D04F032F9002063
:102CE000BDE8F08D2DE9F84F044688466068414202
:102CF0000840401E010B01F01001C840420902F0DB
:102D00000802D040830803F00403D840450805F0CA
:102D100002055118E8405918C0F3400629447118BB
:102D2000F040401804EB8000D0F830014168C90839
:102D3000C9000646A1EB080A09E008464168C9082F
:102D4000C900A1EB080151453CBF8A46064601690E
:102D50000029F2D140690028F0D120698642C0F0F4
:102D6000C4807068C00808EB0A09C00008EB060BB5
:102D7000484518BF04F0E5F85E4580F0B680F76876
:102D8000B569B7420CD0B0682169884223D3C168C5
:102D9000B14204BFB968B1421DD1C760B8601CE040
:102DA00006F11400076837B906F110000768A7B1EB
:102DB00001E00846076807F114010A68002A02BF0B
:102DC00007F110010A68002AF3D12169884202D371
:102DD0000021016001E004F0B4F8002D34D0F06966
:102DE00004EB800000F5987001688E4209D10760FD
:102DF000380011D1F2696068012191408843606018
:102E000022E02069854205D32869B04214BF6F6172
:102E10002F6101E004F095F8B7B12069874211D322
:102E2000BD61306930B12169884226BF3861876150
:102E300004F087F8706938B12169884202D378615B
:102E4000876101E004F07DF8BAF1100F09D249F072
:102E50000300706009EB0600416841F00101416028
:102E60003FE048F0030070604AF00100CBF8040036
:102E70004AF80BA0D4F808804FEAD805202D28BFC7
:102E800004F05FF8B8F1000F27D0D4F81490009543
:102E900004EBC50000F128052F46B8F1100F38BF2C
:102EA00004F04FF82068009920FA01F2D10705D408
:102EB000009A012191400843206006E0A86821693A
:102EC00088422CBF074604F03CF8C5F80890C7F8C4
:102ED0000C90C9F80870C9F80C50C4F808A0C4F8E0
:102EE00014B006F10800BDE8F28F04F02AF80020C3
:102EF000BDE8F28F2DE9F04F83B00546C046C046CD
:102F0000F52DDFF8B84780F002810B2D31BF102777
:102F100005F10B00C708FF002068FE08F04010F024
:102F2000030F42D0C04300F00100861904EBC60035
:102F300000F12808F700D8F808506868C008C000F9
:102F4000B84218BF03F0FDFFD5F80890454508BF0B
:102F500003F0F7FF4D4508BF03F0F3FF6868C008B2
:102F6000C000B84218BF03F0ECFFC84505D1206887
:102F70000121B140884320600DE02069814508D3DC
:102F8000D9F80C00A84204D1C8F80890C9F80C8000
:102F900001E003F0D6FF47F00300686078190835B8
:102FA000416841F001014160F9E0A168B94280F057
:102FB000C080002800F0A280012505FA06F1490032
:102FC0004A42B0401143084041420840401E010BB4
:102FD00001F01001C840420902F00802D040830805
:102FE00003F00403D840460806F002065118F040EA
:102FF0005918C0F340087118414420FA08F000EB5A
:10300000010804EBC80000F128094FEAC80AD9F802
:1030100008607068C008C000504518BF03F091FFF9
:10302000D6F808B04E4508BF03F08BFF5E4508BFD9
:1030300003F087FF7068C008C000504518BF03F058
:1030400080FFD94505D1206805FA08F18843206042
:103050000DE02069834508D3DBF80C00B04204D1B1
:10306000C9F808B0CBF80C9001E003F06AFF47F014
:1030700003007060AAEB0708B819019048F001003E
:1030800001994860019848F80080A7684FEAD70A7C
:10309000BAF1200F28BF03F054FF47B3CDF800A0CA
:1030A00004EBCA00D4F8149000F1280AD346102F7C
:1030B00038BF03F046FF2068009920FA01F2D107DB
:1030C00005D4009905FA01F10843206007E0DAF819
:1030D0000800216988422CBF834603F032FFCAF8FA
:1030E0000890CBF80C90C9F808B0C9F80CA0C4F847
:1030F000088006F108050198606150E06068C0B37F
:1031000039462046FFF7EEFD050012D047E015F1E5
:10311000400F28BF4FF0FF370BD205F10B00C70857
:103120006068FF0028B139462046FFF713FC050010
:1031300035D1A068B8421CD3C11B626910290AD3DB
:10314000B8186061A16041F001034360095047F085
:10315000030050600AE00021A160616140F00301BA
:1031600051608018416841F00101416002F1080599
:1031700015E0E06887420DD2C01BA169E0607A18B3
:10318000A26140F00100506001F1080547F0030022
:10319000486004E039462046FFF712FA0546C0466B
:1031A000C046284603B0BDE8F08F00B970472DE94E
:1031B000F047A0F10804C046C046DFF80055286972
:1031C0008442C0F07482616801F00302012A00F0B9
:1031D0006E82CA084FEAC208CA0708EB040936D44F
:1031E000226811F0030F00F06482A41A8442904414
:1031F000C0F05D8269698C4200F0D880D608202E2C
:1032000070D2D4F80CA0A768544508BF03F099FE0B
:10321000BC4208BF03F095FE6068C008C000B0EB78
:10322000C60F18BF03F08DFE05EBC60000F12801A4
:103230008F4205D029698F4251D3F968A1424ED1FE
:10324000BA453DD128680121B140884328604C45EA
:1032500080F02D82D9F80400C10740F1288281074F
:1032600000F17A81A969894540F0B580E868AC61D0
:103270004044E86040F00101616069698C4202D11C
:1032800000216961A960E969814280F01282DFF85A
:103290003004006808B9FEF7AAFFA969002900F008
:1032A0000882E868292824BF2846FEF793FFE869CA
:1032B000E968884280F0FD814FF0FF30E861F8E175
:1032C0002830824506D02869824508D3DAF80800FC
:1032D000A04204D1C7F80CA0CAF80870B7E703F001
:1032E00030FEB4E7E768A669A7420BD0A168814227
:1032F00022D3C868A04204BFB868A0421CD1CF60E6
:10330000B9601BE004F114010F6837B904F1100132
:103310000F689FB101E011460F6807F114021368AE
:10332000002B02BF07F110021368002BF3D181427A
:1033300002D30020086001E003F003FE002E86D0D7
:10334000E06905EB800000F5987001688C4209D1B6
:103350000760380011D1E269686801219140884313
:10336000686074E72869864205D33069A04214BFBB
:103370007761376101E003F0E4FD002F3FF467AFB0
:1033800028698742ABD3BE61216929B1814226BF3A
:1033900039618F6103F0D5FD606900283FF457AFB4
:1033A000296988429BD37861876150E799F80400C6
:1033B00000F0030003287FF44AAFC5F80880D9F86D
:1033C000040040084000C9F8040048F001006060B3
:1033D00048F804806DE16969894508D1A8686C6185
:1033E0004044A86040F001016160005161E1C00803
:1033F000C0004FEAD00ABAF1200F804436D2D9F883
:103400000C70D9F80860B94508BF03F09AFDB145C2
:1034100008BF03F096FDD9F80400C008C000B0EB67
:10342000CA0F18BF03F08DFD05EBCA0000F128019B
:103430008E4206D029698E42C0F08180F1684945EC
:103440007DD1B74206D12868012101FA0AF18843EB
:10345000286076E02830874205D0286987426ED3FD
:10346000B86848456BD1F760BE606AE0D9F80C7067
:10347000D9F818604F450DD0D9F80800296988425D
:1034800023D3C168494504BFB96849451DD1C76008
:10349000B8601CE009F11400076837B909F11000A1
:1034A0000768A7B101E00846076807F114010A6838
:1034B000002A02BF07F110010A68002AF3D1296926
:1034C000884202D30021016001E003F03AFD002EA2
:1034D00037D0D9F81C0005EB800000F59870016822
:1034E00089450AD10760380012D1D9F81C206868D4
:1034F000012191408843686023E02869864205D312
:103500003069484514BF7761376101E003F019FD68
:10351000BFB12869874212D3BE61D9F8101029B112
:10352000814226BF39618F6103F00BFDD9F8140089
:1035300038B12969884202D37861876101E003F0DC
:1035400000FD48F00100606048F80480686984422A
:103550000BD1C5F80880ACE040084000C9F8040071
:1035600048F00100606048F804804FEAD807202F37
:1035700022D205EBC70000F128094E46B8F1100F22
:1035800038BF03F0DEFC286820FA07F1C90704D42D
:103590000121B9400843286007E0D9F808002969EB
:1035A00088422CBF064603F0CCFCC9F80840F46002
:1035B000A660C4F80C907CE05FEA182008BF0021E8
:1035C00023D0B0F5803F28BF1F211ED2A0F5807107
:1035D000090C01F008018840A0F58052120C02F09D
:1035E00004029040A0F580431B0CC1F10E0103F0D2
:1035F0000203891AC91A984001EBD030C11D28FA7C
:1036000001F202F0010101EB40010022626122613E
:10361000E16105EB81006A6822FA01F3DB0700F53E
:10362000987006D4012303FA01F111436960046024
:103630001CE000681F290EBF00214908C1F11901D3
:1036400008FA01F100E010464268D208D200424573
:1036500010D0CA0F00EB820202F1100349001A6871
:10366000002AF0D129698B4211D31C60A061E4606B
:10367000A4600EE02A698168904228BF914206D377
:10368000CC608460E060A1600020A06101E003F0F4
:1036900058FC286A401E28620BD1D5F8C80100E00A
:1036A00080680028FCD14FF0FF30286201E003F071
:1036B00048FCC046C046BDE8F08700005029002005
:1036C000D43000205FF0FF0C1CEAD05114BF6145DC
:1036D00006E0C110400721F0E04101F16051704760
:1036E00079B900F0004100020AD0B0FA80FC00FA7B
:1036F0000CF001F16051A1EB0C5101EBD021400520
:10370000704741020CBF40F4E0016FF0000100205F
:10371000704700000CB41CB5044604A801900A468A
:10372000009401AB694607487844183002F01AFB50
:10373000009A0021117000285CBF0098001B16BC85
:103740005DF80CFB4FEAFFFF10B50400002C01D11F
:10375000012033E0A0690028FFD194F83900002847
:1037600005D1002084F83800200003F017FC242045
:1037700084F839002068C06830F400502168C860BF
:10378000200000F039FA2068006930F49040216888
:1037900008612068406930F02A002168486120688B
:1037A000C06850F400502168C8600020E063202009
:1037B00084F83900202084F83A00002010BD2DE95B
:1037C000F04182B004000D0016001F005FF00008F9
:1037D00094F8390020285DD1002D02D0B6B2002E19
:1037E00001D1012057E094F93800012801D10220CD
:1037F00051E0012084F838000020E063212084F8A3
:10380000390000F0DEFB8046A684E68403E02878D9
:10381000216848606D1CE08C002828D0E08C401E98
:10382000E084A068B0F5805F16D10097434600227F
:103830008021200000F0FCF8002801D003202AE0BD
:103840002888C005C00D216848602069002801D182
:10385000AD1CE0E76D1CDEE70097434600228021A7
:10386000200000F0E5F80028D1D0032013E00097F5
:10387000434600224021200000F0DAF8002801D061
:10388000032008E0202084F83900002084F8380064
:10389000002000E00220BDE8F68190F83A30202BAD
:1038A00028D1002902D092B2002A01D1012022E0C1
:1038B00090F93830012B01D102201CE0012380F85F
:1038C000383081628285C2850021C163222180F85F
:1038D0003A10002180F838100168496951F001015F
:1038E000026851610168C96851F490710068C16053
:1038F000002000E00220704738B50400206800680E
:103900002168C968226852690023002310F00F0360
:10391000002B07D1850605D58D0603D5200000F0C4
:103920001EF982E0002B70D0D30702D411F4907FEF
:103930006BD010F00103DBB2002B05D0CB0503D513
:10394000E36B53F00103E363430708D512F001036F
:10395000DBB2002B03D0E36B53F00203E363830776
:1039600008D512F00103DBB2002B03D0E36B53F058
:103970000403E363030708D512F00102D2B2002A60
:1039800003D0E26B52F00802E263E26B002A3BD004
:10399000800604D5880602D5200000F0E0F82068F3
:1039A0004069800910F00103E06B000701D4002B8F
:1039B00025D0200000F074F82068406940061AD530
:1039C0002068406930F0400021684861606B002841
:1039D0000DD00FF2F100616B0865606B03F000FC25
:1039E000002811D0606B616B096D88470CE02000E6
:1039F00000F01DF808E0200000F019F804E02000B5
:103A000000F015F80020E0630FE0020605D50A0675
:103A100003D5200000F060F807E0400605D5480611
:103A200003D5200000F08DF8FFE731BD70477047E7
:103A30002DE9F04104000D0016001F00DDF818808C
:103A4000206800682840A84201D1012000E0002041
:103A500076B2B04221D118F1010FF1D0B8F1000FC8
:103A600004D000F0AEFAC01B8045E9D22068C068DF
:103A700030F4D0702168C860206840694008400078
:103A800021684861202084F83900202084F83A0019
:103A9000002084F83800032000E00020BDE8F08119
:103AA0000168C96831F490710268D16001684969A0
:103AB0004908490002685161202180F83A10704796
:103AC0000000000080B5806B0021C1850021C18409
:103AD000FFF7ADFF01BD000090F8391021292ED16C
:103AE0008168B1F5805F10D1016A0988C905C90DE7
:103AF000026851600169002903D1016A891C0162D1
:103B000009E0016A491C016205E0016A4A1C02627F
:103B1000097802685160C18C491EC18489B20029AC
:103B20000BD10168C96831F080010268D160016879
:103B3000C96851F040010068C160002000E0022027
:103B4000704780B50168C96831F040010268D160F2
:103B5000202180F83910FFF769FF002002BD80B5F1
:103B600090F83A10222945D18168B1F5805F14D1CF
:103B7000816A0269002A08D102685268D205D20D12
:103B80000A80816A891C816219E002685268D2B297
:103B90000A80816A491C816211E00169002906D10D
:103BA000816A4A1C8262026852680A7007E0816A70
:103BB0004A1C82620268526812F07F020A70C18D4C
:103BC000491EC18589B2002912D10168C96831F442
:103BD00090710268D160016849694908490002682A
:103BE0005161202180F83A1003F0C8FC002002E067
:103BF000002000E0022002BD2DE9F0410400002079
:103C00002068006930F44050E16808432168086189
:103C10002068C068BB490840A168226911436269F5
:103C20001143E269114308432168C8602068406974
:103C300030F44070A169084321684861E069B0F53B
:103C4000004F40F0B0802068AF49884203D0206820
:103C5000AE49884253D104F091F9804604F08EF9C0
:103C6000060004F08BF9070004F088F9050004F061
:103C700085F9192101FB08F162685200B1FBF2F1EC
:103C80006422B1FBF2F1192202FB06F263685B00C9
:103C9000B2FBF3F2192303FB07F366687600B3FB6C
:103CA000F6F36426B3FBF6F3642606FB1322D20078
:103CB00032326423B2FBF3F212F0F802520012EB3C
:103CC0000111192202FB05F263685B00B2FBF3F2FB
:103CD0001923584363685B00B0FBF3F06423B0FB27
:103CE000F3F0642303FB1020C00032306422B0FBE9
:103CF000F2F010F0070040182168886000E104F03D
:103D00002DF9804604F02AF9060004F027F907008F
:103D100004F024F9050004F021F9192101FB08F150
:103D200062685200B1FBF2F16422B1FBF2F1192298
:103D300002FB06F263685B00B2FBF3F2192303FB9C
:103D400007F366687600B3FBF6F36426B3FBF6F37D
:103D5000642606FB1322D20032326423B2FBF3F254
:103D600012F0F802520012EB0111192202FB05F2C7
:103D700063685B00B2FBF3F21923584363685B008E
:103D8000B0FBF3F06423B0FBF3F0642303FB1020DB
:103D9000C00032306422B0FBF2F010F0070040188F
:103DA00021688860ACE020685749884203D02068C9
:103DB0005649884252D104F0E1F8804604F0DEF81A
:103DC000060004F0DBF8070004F0D8F8050004F062
:103DD000D5F8192101FB08F162689200B1FBF2F1FC
:103DE0006422B1FBF2F1192202FB06F263689B0028
:103DF000B2FBF3F2192303FB07F36668B600B3FBCB
:103E0000F6F36426B3FBF6F3642606FB13221201D5
:103E100032326423B2FBF3F212F0F00212EB011122
:103E2000192202FB05F263689B00B2FBF3F219232F
:103E3000584363689B00B0FBF3F06423B0FBF3F0DE
:103E4000642303FB1020000132306422B0FBF2F047
:103E500010F00F0040182168886051E004F07EF8EF
:103E6000804604F07BF8060004F078F8070004F0C0
:103E700075F8050004F072F8192101FB08F1626879
:103E80009200B1FBF2F16422B1FBF2F1192202FBC4
:103E900006F263689B00B2FBF3F2192303FB07F3FE
:103EA0006668B600B3FBF6F36426B3FBF6F364264C
:103EB00006FB1322120132326423B2FBF3F212F03A
:103EC000F00212EB0111192202FB05F263689B005C
:103ED000B2FBF3F21923584363689B00B0FBF3F085
:103EE0006423B0FBF3F0642303FB102000013230A5
:103EF0006422B0FBF2F010F00F00401821688860D7
:103F0000BDE8F081F369FFFF00100140001401409B
:103F10000A22002104F008B980B5002204F0E0F97B
:103F200041EC100B01BD00004FF4001C1CEB410FD5
:103F300094BF1CEB430F09E041EA030C50EA4C0C20
:103F400052EA0C0C03D2994208BF9042704714BF4A
:103F50008B4282427047000080B52348006850F4CD
:103F60000070214908602048006850F480601E49B4
:103F700008601D48006850F480701B4908600320E9
:103F800004F014FA002000F004F804F054FA0020C1
:103F900002BD10B50400154800684FF47A71B0FBFB
:103FA000F1F004F01DFA002221005FF0FF3004F070
:103FB00001FA002010BD0E480068401C0C49086042
:103FC00070470B480068704731B5FFF7FAFF0400EF
:103FD000009D15F1010F00D06D1CFFF7F2FF001BD3
:103FE000A842FAD331BD0000003C0240000000208E
:103FF000EC30002078B4002400230024002237E0B5
:104000000825EDB212F00306F6B2B600B5402C4317
:10401000DFF8FC51960845F82640DFF8F84124689F
:104020009C434D68ED0300D51C43DFF8E8512C603C
:10403000DFF8E44124689C434D68AD0300D51C4380
:10404000DFF8D4512C60DFF8D44124689C434D68DC
:10405000ED0200D51C43DFF8C4512C60704C24687D
:104060009C434D68AD0200D51C436D4B1C60521C37
:10407000102A80F0AA80012313FA02F40B6823406F
:10408000A342F4D14C68022C02D04C68122C15D1FA
:10409000D40810EB8404246A0F2512F00706F6B248
:1040A000B600B540AC430D6912F00706F6B2B60093
:1040B000B5402C43D50810EB85052C620468032518
:1040C0001600F6B27600B540AC430D7915F0030545
:1040D0001600F6B27600B5402C4304604C68012C03
:1040E00008D04C68022C05D04C68112C02D04C68CA
:1040F000122C17D1846803251600F6B27600B5405D
:10410000AC43CD681600F6B27600B5402C4384600F
:10411000446801259540AC434D68C5F300159540B2
:104120002C434460C46803251600F6B27600B540FF
:10413000AC438D681600F6B27600B5402C43C460DF
:104140004C68E40093D500240094364C246854F461
:104150008044344D2C60334C246814F48044009423
:10416000009C2B4C950854F825400F2512F00306AF
:10417000F6B2B600B540AC432B4DA84201D10025A4
:104180003FE72A4DA84201D101253AE7284DA84230
:1041900001D1022535E7274DA84201D1032530E79B
:1041A000254DA84201D104252BE7244DA84201D179
:1041B000052526E7224DA84201D1062521E7214DFC
:1041C000A8427FF41DAF07251BE771BC704700694B
:1041D00089B2084201D0012000E0002040B27047BF
:1041E00052B2002A02D089B2816102E089B2090488
:1041F0008161704780B51449096880B2014205D0D9
:1042000080B21149086080B203F09AFA01BD000043
:1042100008380140003C0140043C0140083C01409A
:104220000C3C0140443802400000024000040240BF
:1042300000080240000C024000100240001402403E
:1042400000180240001C0240143C014010B504005C
:10425000002C01D101204FE094F91D00002804D169
:1042600000202077200004F07FF902206077CA2028
:1042700021684862532021684862200000F0B6F9A6
:10428000002806D0FF2021684862042060770120C2
:1042900032E020688068DFF81413084021688860E5
:1042A000206880686168226911436269114308438C
:1042B00021688860E0682168086120680069A16859
:1042C00050EA0140216808612068C06830F0800031
:1042D0002168C8602068006C30F480202168086480
:1042E0002068006CA169084321680864FF202168E8
:1042F000486201206077002010BDF8B504000D0071
:10430000002694F91C00012801D102207DE0012043
:10431000207702206077002A1BD120688068400641
:1043200001D40020E870287800F07CF90600687855
:1043300000F078F90700A87800F074F9F6B2FFB23F
:10434000390251EA0641C0B20843E97850EA014611
:1043500014E020688068400604D5287800F06DF9E4
:10436000060001E00020E87028786978090251EA27
:104370000040A9780843E97850EA0146CA2021683C
:104380004862532021684862200000F02FF900287D
:1043900008D0FF2021684862042060770020207741
:1043A000012032E0DFF80802304021680860206810
:1043B000806830F480202168886020688068E9681F
:1043C0002A6911430843216888602068C06830F07A
:1043D00080002168C8602068806880060DD42000B5
:1043E00000F0EAF8002808D0FF2021684862042085
:1043F000607700202077012007E0FF2021684862D5
:1044000001206077002020770020F2BD10B50C005D
:1044100000210168896A6160016809694904490CE1
:10442000A16000680068DFF888110140080C10F0F6
:104430003F002070080A10F07F00607011F07F00CC
:10444000A070080C10F04000E070002A0BD120781A
:1044500000F0F3F82070607800F0EFF86070A0785A
:1044600000F0EBF8A070002010BDF8B504000D00BE
:10447000002694F91C00012801D1022070E00120DF
:10448000207702206077002A07D16878C00604D51B
:10449000687810F0EF000A306870002A15D1E878CB
:1044A00000F0C0F80600687800F0BCF80700A878B3
:1044B00000F0B8F8F6B2FFB2390251EA0641C0B2D4
:1044C0000843297850EA413611E0687800F0B5F8E1
:1044D0000600A87800F0B1F80600E87869780902CB
:1044E00051EA0040A9780843297850EA4136CA20A9
:1044F00021684862532021684862200000F076F865
:10450000002808D0FF20216848620420607700203E
:104510002077012024E0DFF89C00304021684860CB
:104520002068C06830F080002168C860206880681A
:1045300080060DD4200000F03FF8002808D0FF20AE
:10454000216848620420607700202077012007E07E
:10455000FF2021684862012060770020207700203A
:10456000F2BD10B50C00002100684068DFF844106F
:104570000140080CE070080A10F01F00607011F094
:104580003F00A070480B10F007002070002A0BD1EC
:10459000E07800F052F8E070607800F04EF860705B
:1045A000A07800F04AF8A070002010BDBFFF8FFF78
:1045B0007F7F7F003FFFFF0038B5040000252068A3
:1045C000C06830F0A0002168C860FFF7FAFC050061
:1045D0002068C068800607D4FFF7F3FC401BB0F5E5
:1045E0007A7FF5D9032000E0002032BD38B5040001
:1045F00000252068C068400612D45FF0FF302168B3
:10460000C860FFF7DEFC05002068C068400607D4DC
:10461000FFF7D7FC401BB0F57A7FF5D9032000E007
:10462000002032BD002101E0491C0A38C0B20A282E
:10463000FAD250EA0110C0B2704700210100C9B29D
:104640000909C9B20A225143C0B210F00F00401844
:10465000C0B27047B0B581EA030C0CF0004C40F2D8
:10466000FF7515EA11541DBF15EA1357AC42AF424E
:1046700039E0E41923EA455343F48013C90241F0B9
:10468000004141EA505EC7021100A7FB0202002868
:104690004FF00000EEFB01204FF00001E3FB07218B
:1046A00018BF42F00102401800214941E3FB0E010E
:1046B000A4F580640F0302D252004041494154F1F5
:1046C00001046CDD470872F1004250F1000051EB2B
:1046D0000451A1F580115CBF41EA0C01B0BD4CEA68
:1046E00005510020B0BD05EA1357AC4214BFAF42DC
:1046F00041E050EA410E1CBF52EA430E02E061461F
:104700000020B0BD24423C441BD15FEA070EF6D026
:10471000090302BF01460020AEF1140EB1FA81F781
:10472000AEEB070401FA07FE0C37C7F1200100FACF
:1047300007F7C8404EEA000E23EA455343F48013BE
:10474000A2E733F00043B3FA83F704BFB2FA82FE64
:1047500077440B3FE41BB7F1200E2FBF02FA0EF394
:10476000BB40C7F1200E22FA0EFE38BF43EA0E030B
:10477000BA40641C82E750EA410E14BF52EA430E6D
:104780006FF000014FF4001717EB430F8ABF194673
:1047900017EB410FB5E74CEA05510020B0BDD4F14D
:1047A0000104B4F120070FDAC4F12007520828BF32
:1047B00042F0010210FA07F501FA07F7E1BF2A43B8
:1047C000E0403843E1400FE0352C98DCC7F120048D
:1047D00052EA400220FA07F218BF42F0010231FA11
:1047E00007F0A1400A43002172F1004250F100009D
:1047F00051EB0C01B0BD00004FEAF17CBCF1E04C84
:104800002CBFBCF5001F11E05FEA4C0C34BFBCF1BB
:104810007F5F2EE05FEA9C0C4FEA0C1C4FEA3C0CD9
:10482000C10071F100414CEB50707047C90241EA80
:104830005051C00218BF41F0010141F000414FEA60
:104840006C50C0F10900212810D240EACC7CCCF198
:10485000200C11FA0CF070F10040CCF1200C21FA80
:104860000CF00CF0004C40EB0C0070474FEACC70A1
:104870007047490011F5001F04D84FEACC10FF30F3
:10488000C0057047C817704730B4002300220AE003
:104890000C78012595402C4204D00124D2F1070563
:1048A000AC402343521C082AF2DB037030BC704733
:1048B00030B4002300220AE00C88012595402C42E8
:1048C00004D00124D2F10F05AC402343521C102A1E
:1048D000F2DB038030BC704770B582B004000D007D
:1048E0004FF6FF70ADF8000048F2050600208DF885
:1048F00002002800451E002826D020788DF80200EE
:10490000641C0DF102010DF10200FFF7BDFFBDF8BF
:1049100000009DF8021090EA0120ADF80000002090
:1049200005E0BDF800104900ADF80010401C082853
:10493000DFDABDF800100904F3D5BDF8001096EADF
:104940004101ADF80010F1E769466846FFF7B0FF96
:10495000BDF8000076BD0000820707D010F8012BDB
:1049600011F8013BBAB19A42F6D014E002680B6824
:104970009A42A2F1013301BF934313F0803F50F8F4
:10498000042F51F8043FF3D010F8012B11F8013B2C
:104990000AB19A42F8D0D01A7047002848BF404266
:1049A00070470000010040F10980F446404200F0E9
:1049B00005F851F000416047010000BF09D0B0FA8E
:1049C00080F18840C91CC1F58461090501EBD02143
:1049D00040057047F0B44FF0004591EA030C44BF26
:1049E0006B4003F0F5BD00BF841A71EB030603D2E0
:1049F000001BB141121973414FF4001C1CEB410F15
:104A000034BF7CEB430443E00C0DA4EB1356352E6E
:104A100050DC45EAC323DB0A45EAC121C912B6F1DD
:104A200020050DDD63FA05F6EB4086EA0305124228
:104A300018BF45F00105C01851F100010CD213E078
:104A400062FA06F5F2405540F3415A40B340F34054
:104A50005A408018594107D349085FEA30005FEA9D
:104A6000350528BF45F0010501F58011420875F1B3
:104A7000004250F1000041EB0451F0BC4FF4001C27
:104A80001CEB410F38BF70470020090D0905704726
:104A90001CEB410F10D252EA43060BD0BCEB410F86
:104AA00005D80C0DAB43661E342EB5DD02E0AB43DA
:104AB00080185941F0BC7047F0BC7047F446400D77
:104AC00040EAC120490006D200F014F8004248BF75
:104AD0006FF00040604700F00DF84FF00041884251
:104AE0008CBF084640426047400D40EAC120490063
:104AF00080F00D8040F00040490DA1F58061491C17
:104B000005D4D1F11F0154BFC840C01770474FF002
:104B100000007047436F6E74726F6C5F74656D65F3
:104B2000723AB4D3B5B1C7B0CAB1BCE4BFAACABC6B
:104B3000B6A8CAB1BCD32CC3BF2573BCD32573CAD6
:104B4000B1BCE40A000000002DE9F8452DED088B0A
:104B50000FB486B040F2FF7107989DED080B8DED04
:104B6000040BC0F30A50884208D1079800240003C0
:104B700005BF069800280225012512E0012807DA62
:104B800006A803F0DBFD012802DB0024002508E075
:104B9000079A40F2FE3161F31E520792441A4FF019
:104BA000FF35002104A803F0EAFD1A9F06460FB165
:104BB0000020388036B9DDE908230020002103F009
:104BC0001BFE12D0002D13D524B2012C15D1DDE926
:104BD00006230020DFF88C1303F00EFE05D0012E13
:104BE0000BD1DF4903F008FE3ED10AB0CD49E8E120
:104BF000022D04D1DDE90601E2E1012E6FDB022E78
:104C000008BFDDE9080100F0DB81012D2AD10798FA
:104C10000028099806D4002854BF9FEDD50B9FEDBE
:104C2000D60BCBE100280ED456B94FF0FF3104A8C3
:104C300003F0A5FD002848BF9FEDD10B00F1BE8118
:104C40009FEDCB0BBAE156B94FF0FF3104A803F04A
:104C500096FD002848BF9FEDB40B00F1AF819FED9A
:104C6000C60BABE1012E11D10998002824B206D45D
:104C7000012CACBF9FEDBE0B9FEDBF0B9EE1012C45
:104C8000ACBF9FEDBD0B9FEDBA0B97E109980028D3
:104C900010D466B94FF0FF3104A803F070FD00286E
:104CA00042BF079800289FEDA00B00F187819FED80
:104CB000B20B83E103F0B0FD2221016066B94FF031
:104CC000FF3104A803F05BFD002842BF07980028CD
:104CD0009FEDAB0B00F172819FEDA50B6EE1079884
:104CE000002848BF002E0CD503F096FD212101605D
:104CF0000AB04FF0FF30BDEC088B6FF00041BDE80B
:104D0000F485DDE906010022002303F08BFD38BFA6
:104D1000002509D381F00041CDE906014FF0FF31B4
:104D200004A803F02CFD0546012C13D1DDE9060192
:104D30007F4A804BFFF7F8F80CD2DDE9062300200C
:104D40004FF08041FFF786FCCDE9060100269FED7C
:104D50007A8B1CE0DDE9062300207949FFF77AFC15
:104D60009FED788B53EC182BFFF734FEFFF7A6FE70
:104D7000A0F120063046FFF715FE0022734BFFF727
:104D800069FC53EC182BFFF725FE41EC180B0FF2D2
:104D9000582000EB461ADDE9060153EC182B03F00E
:104DA0000DFCDDE9062341EC190B51EC180BFFF764
:104DB00011FE02460B4651EC190B03F04BFD41EC82
:104DC0001A0B53EC1A2BFFF745FC41EC1B0B8DED36
:104DD000069B03F06BFE53EC1B2BFFF73BFCDDE95E
:104DE000062303F0EBFB0646884600204D4953ECB2
:104DF000182B03F0E3FB00224FF08043FFF72AFC5F
:104E000032464346FFF7E6FD53EC1A2BFFF722FC30
:104E1000DDE90623FFF7DEFD41EC180B4C4A4D4B54
:104E200003F018FDCDE904012046FFF7BBFD41EC7E
:104E3000190BDAE9000153EC192BFFF7CBFDDDE983
:104E40000423FFF7C7FDCDE90401DDE90823FFF7DF
:104E500001FCCDE9020100223F4BFFF765F8C0F0ED
:104E6000938001223D4B03F0DDFC40F29180002253
:104E70000023FFF759F8DDE9022339BF0020384944
:104E800000203849FFF7A6FDFFF718FE0446DDE9CC
:104E9000080153EC182BFFF7DDFBCDE90201DAE93D
:104EA0000223DAE90401FFF795FDDDE90823FFF7A6
:104EB000D1FB9FED2D8B53EC182BFFF7CBFBDDE9DE
:104EC0000223FFF787FDCDE90201DAE9002351EC67
:104ED000190BFFF77FFDDDE90823FFF7BBFB064653
:104EE00088462046FFF75EFD02460B4630464146A7
:104EF00003F064FB53EC182BFFF7ACFBDDE9022356
:104F0000FFF768FDCDE902010FB13C800024009459
:104F10000022044B02A803F021FEA8B3012837D0D9
:104F200042E000BF0000F03F0000000000000080F1
:104F3000CD3B7F669EA0E63F000000000000F03FF2
:104F400000005040000000000000E03F0000903FE3
:104F5000EF39FAFE422EE63F0000E0C00000E040DC
:104F60000000E0BF0000E03FEF39FAFE422EE63FCE
:104F7000000000000000F07F0000000000000000C2
:104F8000000000000000F0FF0020CDE9020007E073
:104F90000020014902E000BF0000F07FCDE90201DE
:104FA00003F03AFC22210160002D1DBFDDE9020162
:104FB00081F0004141EC100B9DED020B51EC100B08
:104FC0000AB0BDEC088BBDE8F48580B500200090E8
:104FD00053EC112B51EC100BFFF7B6FD41EC100B0D
:104FE00001BD000000000000000000000000F0BF54
:104FF00000000000000000800000000000000080B1
:105000000000000000000000000000C05294EEBF4D
:1050100000000048204E51BE000000F86467BCBC90
:105020000000000000000000000000208133EDBF00
:1050300000000080B3DB14BE000000506706A3BC74
:105040000000000000000000000000D0E9DCEBBF21
:1050500000000008C39259BE00000080B0D3B8BC65
:10506000000000000000000000000070F98FEABF9F
:10507000000000C0A51028BE000000E8BFC0B0BC02
:10508000000000000000000000000070284CE9BF94
:1050900000000060134B42BE000000C03D20B8BCC1
:1050A000000000000000000000000050FA10E8BFFF
:1050B000000000C05FF62BBE000000905C71A7BC32
:1050C000000000000000000000000020FCDDE6BF42
:1050D000000000C0F8F154BE00000018E9F6B9BCA9
:1050E0000000000000000000000000D0C3B2E5BFD7
:1050F00000000070E43254BE00000050DB06B4BC77
:10510000000000000000000000000010EF8EE4BF6F
:1051100000000020F36252BE000000C02A879ABC43
:105120000000000000000000000000B02272E3BF99
:10513000000000F0E8E056BE00000028352DBDBCA0
:105140000000000000000000000000000A5CE2BF58
:10515000000000B0FA8E41BE00000040AE6FBDBC42
:10516000000000000000000000000000564CE1BFFD
:10517000000000F015CD5FBE00000000141C90BCC4
:10518000000000000000000000000040BD42E0BF41
:1051900000000030F93457BE000000E06C1E93BCE4
:1051A0000000000000000000000000E0F57DDEBF10
:1051B000000000B08A535EBE00000080DA77AABC0F
:1051C0000000000000000000000000C09D81DCBF66
:1051D00000000000FFA226BE0000006057E2B0BC45
:1051E000000000000000000000000060F98FDABF3E
:1051F000000000580A8151BE000000F05F60B8BC9A
:1052000000000000000000000000000098A8D8BFC7
:10521000000000607A7F45BE000000D05433A3BC7C
:105220000000000000000000000000600FCBD6BFAF
:10523000000000D091CB40BE000000406D1BA0BC20
:105240000000000000000000000000A0FBF6D4BF3A
:1052500000000098C5CE52BE000000003A397EBC66
:105260000000000000000000000000E0FE2BD3BFA3
:105270000000004073872BBE00000000926879BCDC
:10528000000000000000000000000040C069D1BF25
:1052900000000058F16353BE00000080438D7CBCC9
:1052A000000000000000000000000080D85FCFBFB9
:1052B000000000181F8354BE000000B03F42A2BC93
:1052C00000000000000000000000008067FCCBBF71
:1052D00000000060FAFF53BE00000050E00DB8BCB3
:1052E00000000000000000000000000098A8C8BFF7
:1052F000000000607A7F35BE000000C0543393BCCC
:10530000000000000000000000000000DC63C5BFDA
:1053100000000058D6FF54BE00000000396490BC65
:105320000000000000000000000000C0AD2DC2BF62
:1053300000000080A45915BE000000E0484BABBC43
:105340000000000000000000000000801A0BBEBF3B
:1053500000000050BF3C5ABE000000A0B364B6BCC1
:1053600000000000000000000000008004D6B7BF6D
:1053700000000040BBCF36BE0000008076CEA8BC47
:1053800000000000000000000000008032BBB1BF40
:10539000000000402A0043BE00000028C60CBDBC2F
:1053A0000000000000000000000000009473A7BF90
:1053B000000000182B3B59BE000000C0E55DA5BCF5
:1053C000000000000000000000000000EE4397BF56
:1053D000000000A0E6C340BE00000020958DB5BCD3
:1053E000000000000000000000000000000000803D
:1053F00000000000000000800000000000000080AD
:10540000000000000000000080B5DFF8E003DFF8D6
:10541000E01308604FF48270DFF8D4134860002076
:10542000DFF8CC1388600020DFF8C413C8600220C6
:10543000DFF8BC1308610120DFF8B41348614FF4B2
:105440000070DFF8AC1388610820DFF8A413C8618E
:105450000020DFF89C1308620020DFF894134862F4
:105460000020DFF88C1388620A20DFF88413C862FA
:10547000DFF87C0303F0D6FC01BD00B587B00068FF
:10548000DFF8681388425AD100200090DFF86403E7
:10549000006850F48040DFF85C130860DFF85403C4
:1054A000006810F480400090009800200090DFF821
:1054B0004803006850F48070DFF83C130860DFF8A0
:1054C0003803006810F4807000900098002000906D
:1054D000DFF82403006850F00400DFF81C130860B4
:1054E000DFF81403006810F00400009000980A2010
:1054F000019002200290022004900520059001A94D
:10550000DFF8F802FEF776FD0420019002200290F9
:10551000002003900520059001A9B948FEF76AFD17
:1055200001220121B548FEF75BFE01200190012018
:1055300002900520059001A9B048FEF75BFD07B079
:1055400000BD10B5040000F02BF900F038F900227E
:105550000121AA48FEF744FE202000F00BF9200CA0
:10556000C0B200F007F9200AC0B200F003F9200031
:10557000C0B200F0FFF801220121A048FEF730FE82
:1055800000F01DF910BD70B504000D00160000F00C
:1055900007F9002201219948FEF722FE022000F0BF
:1055A000E9F8280CC0B200F0E5F8280AC0B200F013
:1055B000E1F82800C0B200F0DDF8B6B2B6F5807FA1
:1055C00006DD4FF4807603E0207800F0D3F8641C09
:1055D0003000461E80B20028F6D101220121874802
:1055E000FEF7FEFD00F0EBF870BD2DE9F04105007F
:1055F0000C0000275FF000080020002600274FF471
:105600008071B4FBF1F000FB1140464292B24FF4BE
:10561000807192FBF1F792B24FF4807192FBF1F836
:1056200008FB1128C0B2002820D1FFB2002F0FD1F3
:1056300092B221002800FFF7A6FF70E04FF48072BD
:1056400021002800FFF79FFF14F5807415F5807581
:105650003800471EC0B20028F0D15FFA88F84246F1
:1056600092B221002800FFF78EFF58E0FFB2002F12
:105670001FD1F6B25FFA88F8464514D2B8EB060798
:10568000F6B2320092B221002800FFF77CFF54FAF4
:1056900086F4F6B27519FFB23A0092B221002800E2
:1056A000FFF771FF3BE092B221002800FFF76BFF8C
:1056B00035E0F6B2921B92B24FF4807092FBF0F795
:1056C00092B24FF4807092FBF0F808FB1028F6B20B
:1056D000320092B221002800FFF755FF54FA86F4F9
:1056E000F6B2751909E04FF4807221002800FFF727
:1056F0004AFF14F5807415F580753800471EC0B256
:105700000028F0D15FFA88F8B8F1000F07D05FFAEF
:1057100088F8424692B221002800FFF734FFBDE826
:10572000F08170B504000D001600002201213348FD
:10573000FEF756FD032000F01DF8280CC0B200F063
:1057400019F8280AC0B200F015F82800C0B200F01D
:1057500011F804E0FF2000F00DF82070641C300008
:10576000461E80B20028F5D1012201212348FEF710
:1057700037FD70BD00B583B08DF805007FF07F4028
:105780000090012301AA0DF10501194803F091FBD6
:10579000002802D0FF208DF804009DF804000EBD03
:1057A00080B5002201211548FEF71AFD0620FFF7FB
:1057B000E1FF012201211148FEF712FD01BD80B574
:1057C0000020002201210D48FEF70AFD0520FFF709
:1057D000D1FFFF20FFF7CEFFC0B2C007F9D40122EE
:1057E00001210648FEF7FCFC01BD00000038004026
:1057F000A82E0020403802403038024000200240ED
:105800000008024000B587B000200090DFF8FC03DC
:10581000006850F04000DFF8F4130860DFF8EC0394
:10582000006810F040000090009800200090DFF821
:10583000DC03006850F04000DFF8D0130860DFF8A8
:10584000CC03006810F04000009000980020009009
:10585000DFF8B803006850F04000DFF8B0130860CC
:10586000DFF8A803006810F04000009000980020C6
:105870000090DFF89803006850F04000DFF88C13C8
:105880000860DFF88803006810F04000009000987E
:1058900000200090DFF87403006850F04000DFF84B
:1058A0006C130860DFF86403006810F0400000909B
:1058B000009800200090DFF85403006850F040008A
:1058C000DFF848130860DFF84403006810F0400078
:1058D0000090009800200090CC48006850F04000F4
:1058E000CA490860C948006810F04000009000985C
:1058F00000200090C548006850F04000C34908608F
:10590000C248006810F0400000900098002000900D
:10591000BE48006850F04000BC490860BB480068C1
:1059200010F040000090009800200090B7480068F8
:1059300050F04000B5490860B448006810F04000DD
:105940000090009800200090B048006850F040009F
:10595000AE490860AD48006810F040000090009823
:1059600000200090A948006850F04000A749086056
:10597000A648006810F040000090009801200190B7
:10598000002002900220039001A9A148FEF732FBFB
:1059900002200190002002900220039001A99C485F
:1059A000FEF728FB042001900220039001A99848EB
:1059B000FEF720FB082001900020029002200390B7
:1059C00001A99348FEF716FB1020019000200290D9
:1059D0000220039001A98E48FEF70CFB20200190C5
:1059E000002002900220039001A98948FEF702FBE3
:1059F00040200190002002900220039001A98448D9
:105A0000FEF7F8FA80200190002002900220039017
:105A100001A97F48FEF7EEFA4FF4807001907D48AF
:105A200002900220039001A97948FEF7E3FA4FF4AF
:105A300000700190774802900220039001A97448F9
:105A4000FEF7D8FA4FF4806001907248029002206D
:105A5000039001A96E48FEF7CDFA4FF40040019083
:105A60006C4802900220039001A96948FEF7C2FA2F
:105A700001220021282002F09DFC282002F0ABFC2E
:105A800000220121172002F095FC172002F0A3FC50
:105A900007B000BD38B5012812D039D3032815D07E
:105AA00011D3052818D014D307281BD017D30928E1
:105AB0001ED01AD30B2823D01ED30C2824D027E0C5
:105AC000534C022524E0524C022521E0504C042581
:105AD0001EE04F4C08251BE04D4C102518E04C4CA7
