:020000040800F2
:10000000B811002001BE00087DB200087FB20008D0
:1000100081B2000883B2000885B200080000000029
:1000200000000000000000000000000087B200088F
:1000300089B20008000000008BB200088DB20008F1
:1000400011BF000815BF000819BF00081DBF000838
:1000500021BF000899B2000825BF000829BF000889
:100060002DBF000831BF000835BF000839BF0008A8
:100070003DBF000841BF000845BF000849BF000858
:100080004DBF000851BF000855BF000859BF000808
:100090005DBF000861BF000865BF000869BF0008B8
:1000A0006DBF000871BF000875BF000879BF000868
:1000B0007DBF000881BF000885BF000889BF000818
:1000C0008DBF000891BF000895BF000899BF0008C8
:1000D0009DBF00089BB20008A1BF0008A5B20008A0
:1000E000E1B20008A5BF0008A9BF0008ADBF000825
:1000F000B1BF0008B5BF0008C3B20008B9BF00080F
:10010000BDBF0008C1BF0008C5BF0008C9BF0008C7
:10011000CDBF0008AFB20008B9B20008D1BF0008D7
:10012000D5BF0008D9BF0008DDBF0008E1BF000847
:10013000E5BF0008E9BF0008EDBF0008F1BF0008F7
:10014000F5BF0008F9BF0008FDBF000801C00008A6
:1001500005C0000809C000080DC0000811C0000853
:1001600015C0000819C000081DC0000821C0000803
:1001700025C0000829C000082DC0000800000000AC
:1001800031C0000835C0000810B5DFF8680B01F079
:10019000ADFF00240020DFF8600B007800280AD0B3
:1001A000C6A1DFF8580B01F0B3FF04000020DFF810
:1001B000481B087005E0C1A1DFF8440C01F0A8FF5E
:1001C0000400BEA1002001F0A3FF90F90010302927
:1001D00004D194F9000000F019FE0CE090F9000041
:1001E000312804D194F9000000F0E4FC03E0DFF8CA
:1001F000500D01F07BFF10BD70B5ADF5966DDFF8C9
:10020000040C01F073FF68464FF4966101F0A6FFFD
:1002100000200024DFF8E00A0078002809D0A8A117
:10022000DFF8D80A01F074FF0021DFF8CC2A117042
:1002300012E0A3A1DFF8C80B01F06AFF0CE0010097
:100240006846E4B2C82202FB040001F08FFF641C80
:100250009BA1002001F05CFF0028F0D1E4B2250052
:10026000002000F076F8012000F073F8022000F082
:1002700070F8032000F06DF8042000F06AF8052003
:1002800000F067F8002605E049B2DFF87C0B01F0CA
:100290002DFF761CF6B2AE424DDA6846F6B2C821A2
:1002A00001FB060090F9001049B2302909D0EBD3C8
:1002B000322918D00ED3342927D01DD335292DD07B
:1002C000E2E76846F6B2C82101FB0601002000F013
:1002D00017FADEE76846F6B2C82101FB06010120E5
:1002E00000F00EFAD5E76846F6B2C82101FB060118
:1002F000022000F005FACCE76846F6B2C82101FBFF
:100300000601032000F0FCF9C3E76846F6B2C821F5
:1003100001FB0601042000F0F3F9BAE76846F6B2E3
:10032000C82101FB0601052000F0EAF90120DFF8F1
:10033000141C0870ADE7DFF8100C01F0D7FEE4B232
:10034000002C03D00120DFF8281D08700DF5966DF4
:1003500070BD70B50400052C5AD1002051E0002179
:10036000DFF8E82B682303FB002211700021DFF87F
:10037000DC2B682303FB002291770021DFF8CC2BD4
:10038000682303FB002211625FF0FF31DFF8BC2B12
:10039000682303FB002291620021DFF8B02B682361
:1003A00003FB002251620021DFF8A02B682303FB2E
:1003B0000022D1630021DFF8942B682303FB002285
:1003C00011660021DFF8842B682303FB002282F8EA
:1003D00054100021DFF8742B682303FB00225166C0
:1003E0000021DFF8682B682303FB002282F840100D
:1003F0000021DFF8582B682303FB002282F84A1003
:10040000401C0528ABDBDFF8C40B01F06FFE54E0A5
:10041000DFF8BC0B382101FB0400406B050001260E
:1004200005E0D0F8805002F0AEFE2800761CDFF820
:10043000A01B382202FB041109688E42F1DBDFF8B1
:10044000900B382101FB040000220023C0E90623A1
:10045000DFF87C0B382101FB040000220023C0E9F7
:1004600004230020DFF8681B382202FB0411086017
:100470000020DFF85C1B382202FB04110863DFF860
:10048000500B382101FB040000220023C0E908239F
:10049000DFF83C0B382101FB040000220023C0E9F7
:1004A0000A230020DFF8281B382202FB04114863CE
:1004B0002100DFF8440D01F019FE70BD2C00000092
:1004C0003B000000F8B52DED028BA0B0DFF8A40BC7
:1004D00001F00CFE0027002435E097ED148A390066
:1004E00002A801F043FE0190009518EE100A03F0F7
:1004F000D7F802000B00DFF81C1C07A803F0F8F87F
:1005000002A80190009518EE100A03F0C9F8020045
:100510000B00DFF8040C01F0E9FD07A803F002F975
:100520004FF47A73020092B207A9DFF8F00B03F0E0
:1005300050F9761CDFF8980A382101FB04000068A6
:100540008642CADB641C052C3FDADFF8840A3821B6
:1005500001FB040000680128F4DBDFF8740A38218D
:1005600001FB0400476BDFF8B80B282101FB0400F6
:100570000568DFF8AC0B282101FB040090ED098A27
:10058000009518EE100A03F08BF802000B00DFF85C
:10059000941B07A803F0ACF8009518EE100A03F0BE
:1005A0007FF802000B00DFF8800B01F09FFD07A829
:1005B00003F0B8F802004FF47A7392B207A9DFF89B
:1005C0005C0B03F006F90026B4E74FF47A730122BE
:1005D00049A1DFF8480B03F0FCF8DFF8780D01F0D3
:1005E00085FD20B0BDEC028BF1BD00002DE9F0418E
:1005F0002DED028BDFF8040C01F078FD5FF00008B0
:1006000000249FED3E8A00250026002719E0DFF830
:10061000C009382101FB070090ED000AB8EEC00ABE
:1006200088EE008ADFF8A809382101FB070080ED79
:10063000028ADFF8EC0A282101FB070080ED098A15
:100640007F1C052F53DADFF88809382101FB0700EA
:10065000D0F83480B8F1000F1AD1F1E798ED160AFE
:10066000B8EEC00AD8ED140A80EE800A88ED140AAC
:1006700098ED140A38EE008AD8F85400854202DA60
:10068000D8F854504446D8F854008619D8F88080D9
:10069000B8F1000F11D0D8F85800002803D0D8F8CE
:1006A00054001F28DADB0020C8F850004246390009
:1006B000DFF8FC0B01F01AFDDAE7DFF8640A282105
:1006C00001FB070007601F2EA1DBDFF8540A282179
:1006D00001FB0700DFF8DC1B41622100DFF8400A64
:1006E000282202FB0700001D01F040FDA8E7BDEC39
:1006F000028BBDE8F0810000230000000000000034
:1007000070B52DED028BADF57A7D05000800002453
:1007100000260026E0A101F0FBFC04000CE0DEA1B5
:10072000002001F0F5FC040021006846322202FBA3
:10073000060001F01BFD761C002CF0D10A2E07DA12
:10074000052D05D02900DFF8140C01F0CFFC9EE147
:10075000052D40F0BC80684603F0E4FB0500002452
:100760001AE0DFF8E827682303FB012212EB81027D
:100770006B46C82606FB0433CB1893F9C830303BD0
:100780009362491C8142ECDB0020DFF8C01768222D
:1007900002FB04110862641CAC4280F29780684638
:1007A000A100322202FB010010F13201DFF89C07A8
:1007B000682202FB040001F0D9FC6846A100322245
:1007C00002FB010090F86400DFF88017682202FB4A
:1007D000041188776846A100322202FB010096309E
:1007E00003F0A0FBDFF86417682202FB0411C86362
:1007F000DFF85807682101FB0400C06B042826D1EC
:1008000000206946A200322303FB021181F8CD00CB
:100810006846A100322202FB010010F1C801DFF896
:100820002C07682202FB0400403001F09FFC684660
:10083000A100322202FB010010F1CE01DFF80C070B
:10084000682202FB04004A3001F090FC9CE7DFF8CC
:10085000FC06682101FB0400C06B032826D10020A0
:100860006946A200322303FB021181F8CD006846DD
:10087000A100322202FB010010F1C801DFF8CC0612
:10088000682202FB0400543001F070FC6846A100AD
:10089000322202FB010010F1CE01DFF8B00668221F
:1008A00002FB04004A3001F061FC6DE76846A100DC
:1008B000322202FB0100C83002F034FFDFF88C1650
:1008C000682202FB0411486200215BE7DFE0DFF8E9
:1008D0000007382101FB05004560684603F022FB54
:1008E000DFF8EC16382202FB0511086000210DF13B
:1008F000320003F01BFBB0EE408AF0EE608A00216C
:1009000019A803F013FBDFF8C806382101FB050026
:1009100080ED048BDFF8B806382101FB050080ED7F
:10092000060B002132A803F001FBB0EE408AF0EE86
:10093000608A00210DF1960003F0F8FADFF89006C6
:10094000382101FB050080ED088BDFF88406382193
:1009500001FB050080ED0A0B0020DFF87416382239
:1009600002FB051108630020DFF86416382202FB41
:100970000511486300240EE0DFF85406382101FB1E
:100980000500406BC6F88000DFF84406382101FB03
:1009900005004663641CDFF83806382101FB0500BA
:1009A0000068844273DA842002F092FA06006846F6
:1009B000072101FB04F1322202FB010010F1FA01D0
:1009C000300001F0D3FB6846072101FB04F132221D
:1009D00002FB010010F5967116F11E0001F0C6FB36
:1009E0006846072101FB04F1322202FB010010F5E9
:1009F000AF7116F15C0001F0B9FB6846072101FBFD
:100A000004F1322202FB010010F5C87003F08AFAEB
:100A1000B0666846072101FB04F1322202FB0100A7
:100A200010F5E17003F07EFAF0666846072101FBDD
:100A300004F1322202FB010010F5FA7003F072FAA1
:100A400030676846072101FB04F1322202FB0100F6
:100A500000F2262116F1740001F088FB0020706579
:100A6000002030650020B0650020C6F88000DFF867
:100A70006005382101FB0500406B00287FF47CAF46
:100A8000DFF84C05382101FB0500466382E70DF5D0
:100A90007A7DBDEC028B70BD2C00000030B585B0B6
:100AA00000247BE0686D152810DB2A0090A16846C1
:100AB00002F01EFE684602F035FE02004FF47A7323
:100AC00092B26946DFF8540602F083FE286D02F008
:100AD000E7FD02000B00DFF8F804382101FB0400F9
:100AE000416A006A03F02AFA0CD3286D02F0D8FD9F
:100AF000DFF8DC24382303FB0422D36A926A03F074
:100B00001DFA0CD2DFF8C804382101FB0400006B89
:100B1000401CDFF8BC14382202FB041108630020DB
:100B200068650020A86500202865D5F88050002D54
:100B3000B8D1DFF89C04382101FB0400006BDFF81A
:100B40009014382202FB04110968884225D1DFF88D
:100B50008004382101FB0400006800281DD021001A
:100B6000DFF8780901F0C2FA0020DFF864143822B7
:100B700002FB0411086301224FF48061DFF8600971
:100B800003F0EAFA41F2883003F054FB00224FF4FC
:100B90008061DFF84C0903F0DFFA641C052C06DAEB
:100BA000DFF82C04382101FB0400456BBFE705B0DA
:100BB00030BD000010B58EB0040064B22100DFF833
:100BC000240901F093FA00F0C3F964B2312C07D084
:100BD000C0F08B80332C44D021D3342C63D084E0FC
:100BE00001224FF48051DFF8000903F0B5FA01202B
:100BF000D6490862D548036AD44ADFF8F018684637
:100C000002F076FD684602F08DFD4FF47A73020023
:100C100092B26946DFF8040502F0DBFD65E00122CF
:100C20004FF48051DFF8C00803F096FA0120C7495D
:100C3000C1F88800C548D0F88830DFF8B428DFF85C
:100C4000B418684602F054FD684602F06BFD4FF49C
:100C50007A73020092B26946DFF8C00402F0B9FD6F
:100C600043E001224FF48051DFF87C0803F074FA6E
:100C70000120B649C1F8F000B448D0F8F030DFF8F0
:100C80007828DFF87818684602F032FD684602F0EE
:100C900049FD4FF47A73020092B26946DFF87C0492
:100CA00002F097FD21E001224FF48051DFF838086F
:100CB00003F052FA0120A549C1F85801A348D0F821
:100CC0005831DFF8C02BDFF8C01B684602F010FD7A
:100CD000684602F027FD4FF47A73020092B269462B
:100CE000DFF8380402F075FDFFE70EB010BD00001C
:100CF0002125730078BA0008B93500207C2B00202C
:100D0000F0B59FB0040000200026002205A9DFF8FE
:100D10007C0B03F085FB9DF815309DF81420DFF85F
:100D2000701B684602F0E4FC69468848682202FBB2
:100D30000400403001F01AFA8448682101FB0400E5
:100D400010F15401684601F011FA9FA101F0E0F999
:100D50000BE001000AA8142202FB060001F006FACB
:100D600099A1002001F0D4F9761C0028F1D10026C9
:100D70007648682101FB040010F14001684601F04B
:100D8000F5F991A101F0C4F90BE0010014A81422B7
:100D900002FB060001F0EAF98BA1002001F0B8F98E
:100DA000761C0028F1D119A803F0BCF806000FA8A2
:100DB00003F0B8F886193C2E07DB3C2096FBF0F5D3
:100DC0003C2096FBF0F100FB116614A803F0AAF892
:100DD00007000AA803F0A6F8C0194519182095FBCA
:100DE000F0F100FB115533002A00DFF8A41A574830
:100DF000682505FB0400403002F07AFC1FB0F0BD0E
:100E0000B821002078B9000898B9000810B58EB054
:100E1000040064B22100DFF87C0A01F067F900F0F9
:100E200097F864B2312C07D0C0F08780332C42D0C1
:100E300020D3342C60D080E000224FF48051DFF8C2
:100E4000A80603F089F90020404908623F48036A78
:100E50003E4ADFF89816684602F04AFC684602F0FF
:100E600061FC4FF47A73020092B26946AB4802F01B
:100E7000B0FC62E000224FF48051DFF86C0603F012
:100E80006BF900203149C1F888003048D0F888302B
:100E9000DFF85C26DFF85C16684602F029FC68463D
:100EA00002F040FC4FF47A73020092B269469B480C
:100EB00002F08FFC41E000224FF48051DFF8280659
:100EC00003F04AF900202149C1F8F0001F48D0F88A
:100ED000F030DFF82426DFF82416684602F008FC1C
:100EE000684602F01FFC4FF47A73020092B2694622
:100EF0008A4802F06EFC20E000224FF48051DFF8B7
:100F0000E80503F029F900201049C1F858010F48FD
:100F1000D0F85831DFF86C29DFF86C19684602F018
:100F2000E7FB684602F0FEFB4FF47A73020092B2D0
:100F300069467A4802F04DFCFFE70EB010BD000094
:100F400094BA0008B5350020B0BA0008482F002038
:100F500000B589B0002203A9DFF8300903F060FA78
:100F6000002202A9DFF8240903F005FB9DF80B001D
:100F700000F2CD700C21DFF8742B9DF8083052F888
:100F8000232001929DF80A2000929DF8093090FBE1
:100F9000F1F201FB1200DFF8581B51F820209DF8F8
:100FA0000B0010F5FA61DFF84C0B01F09FF89DF88B
:100FB0000E309DF80D209DF80C10DFF8580C01F054
:100FC00095F809B000BD00003A00000098BC000888
:100FD000E8300020F8B50400DFF83C0C682101FB84
:100FE0000400456A002640E0DFF82C0C682101FB74
:100FF000040010EB8600876ADFF8FC0A382101FB49
:101000000700806802F04CFBDFF8EC2A382303FB72
:1010100007225369126902F091FF08D2DFF8F80B3A
:10102000682101FB040090F91E00FFF7C3FDDFF803
:10103000C80A382101FB0700806802F031FB02007A
:101040000B00DFF8B40A382101FB0700C169806991
:1010500002F074FF08D2DFF8C00B682101FB040026
:1010600090F91E00FFF7D2FE761CAE42BCDBF1BD4C
:10107000B4350020D4BB0008F8B50400DFF8980BA5
:10108000682101FB0400456A002640E0DFF8880B78
:10109000682101FB040010EB8600876ADFF8580A1C
:1010A000382101FB0700806802F0FAFADFF8482ACD
:1010B000382303FB07225369126902F03FFF08D26D
:1010C000DFF8540B682101FB040090F91E00FFF7C4
:1010D0009DFEDFF8240A382101FB0700806802F03A
:1010E000DFFA02000B00DFF8100A382101FB0700CD
:1010F000C169806902F022FF08D2DFF81C0B682169
:1011000001FB040090F91E00FFF754FD761CAE426F
:10111000BCDBF1BD28BE0008B8B9000820340020AF
:10112000003200201CBE0008CCBA000870B5ACB07C
:1011300004000025002000226946DFF8500703F074
:101140006FF99DF801309DF80020DFF844171FA8C3
:1011500002F0CEFA1FA9DFF8C00A682202FB0400E1
:10116000403001F003F8DFF8B00A682101FB040009
:1011700010F14A0112A800F0F9FF77A100F0C8FFB2
:101180000BE0010005A80A2202FB050000F0EEFFBB
:1011900071A1002000F0BCFF6D1C0028F1D1002DD2
:1011A00004D1DFF8780A00F0A1FF23E005A802F0DF
:1011B000B9FE05003C260DF11E0002F0B3FE06FB51
:1011C00005004EF660214843DFF84C1A682202FB06
:1011D00004110866DFF8400A682101FB0400006E74
:1011E000DFF8341A682202FB041148660120DFF898
:1011F0005C1C08702CB070BDBCBB0008D8B90008DE
:1012000070B5A8B0040000250020DFF80C0A6821A2
:1012100001FB040010F140011AA800F0A7FFDFF85D
:10122000F809682101FB040010F14A010DA800F043
:101230009DFF49A100F06CFF0BE0010068460A2207
:1012400002FB050000F092FF43A1002000F060FFC8
:101250006D1C0028F1D1002D04D1DFF8EC0A00F05C
:1012600045FF23E0684602F05DFE05003C260DF1D7
:101270000A0002F057FE06FB05004EF660214843C7
:10128000DFF89419682202FB04110866DFF8880968
:10129000682101FB0400006EDFF87C19682202FB64
:1012A000041148660120DFF8A81B087028B070BD43
:1012B000ACBC000800401CC610B5002400E0641C53
:1012C000052C37DADFF85009682101FB040090F99A
:1012D00000003028F3D0DFF84009682101FB04004A
:1012E000C06B012806D0EAD303280BD006D304280C
:1012F00014D0E4E72000FFF76DFEE0E72000FFF7E1
:10130000BBFEDCE7DFF81009682101FB0400006E7A
:10131000002802D12000FFF709FFD0E7DFF8F80826
:10132000682101FB0400006E002802D12000FFF7B5
:1013300067FFC4E710BD002004E00021DFF8142B94
:101340008154401CDFF88C1C09888842F5DB70470B
:1013500000000000ECBB00083A000000E8BA0008FA
:1013600010B52DED028B00EE100A0C00B8EEC08A0D
:1013700018EE100A02F094F902000B00DFF8240CBA
:1013800000F0B4FE002C0ED0022C1CD00CD3042C88
:1013900037D027D3062C52D042D3082C6DD05DD342
:1013A000092C79D087E08AE018EE100A02F078F96B
:1013B000DFF8A42ADFF8A43A03F056F903F026FA7E
:1013C00008EE100A7BE018EE100A02F069F9DFF867
:1013D000902ADFF8903A03F047F903F017FA08EE85
:1013E000100A6CE018EE100A02F05AF9DFF8782AB9
:1013F000DFF8783A03F038F903F008FA08EE100A3B
:101400005DE018EE100A02F04BF9DFF8642ADFF80D
:10141000643A03F029F903F0F9F908EE100A4EE0F6
:1014200018EE100A02F03CF9DFF84C2ADFF84C3ACB
:1014300003F01AF903F0EAF908EE100A3FE018EE9B
:10144000100A02F02DF9DFF8382ADFF8383A03F0F5
:101450000BF903F0DBF908EE100A30E018EE100A81
:1014600002F01EF9DFF8202ADFF83C3B03F0FCF81D
:1014700003F0CCF908EE100A21E018EE100A02F091
:101480000FF9DFF8282BDFF8283B03F0EDF803F025
:10149000BDF908EE100A12E018EE100A02F000F989
:1014A000DFF8342BDFF8343B03F0DEF803F0AEF95D
:1014B00008EE100A03E0DFF8280B00F017FE18EE24
:1014C000100A02F0EDF802000B00DFF8D80A00F075
:1014D0000DFEB0EE480ABDEC028B10BDC0BC00088A
:1014E0000020024090BD00080014024064BE0008C5
:1014F000B02F00206CBE00081830002074BE000819
:1015000070B52DED028B92B00C00150068461421C9
:1015100000F024FE9FEDD98A9FEDD80A0026002016
:1015200005E0DFF83019415C05AA8154401CDFF862
:10153000A41A09888842F4DBDFF8980A0188DFF8EA
:10154000140903F0D3F900282FD1DFF8980A00F02E
:10155000CDFDDFF8941A14F15C0003F007FA0028BF
:1015600040F0A980C6A114F1740003F0FFF900282F
:1015700038D1E06E042822D105A8A16E081810F811
:10158000010C8DF8020005A8A16E085C8DF803001F
:1015900005A8A16E081840788DF8000005A8A16E76
:1015A000081880788DF801004AE0DFF8400A00F062
:1015B0009DFD606D401C6065FFF7BDFE5AE105A80A
:1015C000A16E085C8DF8020005A8A16E081810F83D
:1015D000010C8DF8030000208DF8000000208DF82C
:1015E00001002DE0E06E042818D105A8A16E0818AE
:1015F00010F8010C8DF8000005A8A16E085C8DF8AC
:10160000010005A8A16E081840788DF8020005A811
:10161000A16E081880788DF8030011E005A8A16E6E
:10162000081810F8010C8DF8020005A8A16E085CDE
:101630008DF8030000208DF8000000208DF80100D7
:10164000684600F037F9D4ED140A70EE800AC4ED54
:10165000140A10EE100A02F023F802000B00DFF863
:10166000900900F043FD002D09D0022D00F09C8070
:101670007AD3042D00F0D880C0F0B680F4E0DFF813
:10168000740990ED000AB4EE408AF1EE10FA67DBBF
:10169000DFF8640990ED000AB4EE480AF1EE10FAA2
:1016A0005EDB94ED140A30EE080A84ED140AA06D96
:1016B000401CA06557E0DFF8441914F15C0003F00A
:1016C00055F9002847D1E06E022812D100208DF88C
:1016D000000000208DF8010005A8A16E081810F880
:1016E000010C8DF8020005A8A16E085C8DF80300BE
:1016F00017E005A8A16E081810F8010C8DF800007D
:1017000005A8A16E085C8DF8010005A8A16E081857
:1017100040788DF8020005A8A16E081880788DF831
:101720000300684600F0B8F80600216F3000FFF7AC
:1017300017FEB0EE408A3100DFF8C40800F0D6FC96
:1017400018EE100A01F0ACFF02000B00DFF8A00851
:1017500000F0CCFC87E7DFF8AC0800F0C7FC89E0BC
:10176000606D401C606583E0DFF89C0890ED000A26
:10177000B4EE408AF1EE10FA12DBDFF8900890ED3B
:10178000000AB4EE480AF1EE10FA09DB94ED140AEF
:1017900030EE080A84ED140AA06D401CA06502E03A
:1017A000606D401C606563E0DFF8640890ED000A3E
:1017B000B4EE408AF1EE10FA12DBDFF8580890ED33
:1017C000000AB4EE480AF1EE10FA09DB94ED140AAF
:1017D00030EE080A84ED140AA06D401CA06502E0FA
:1017E000606D401C606543E0DFF82C0890ED000A56
:1017F000B4EE408AF1EE10FA12DBDFF8200890ED2B
:10180000000AB4EE480AF1EE10FA09DB94ED140A6E
:1018100030EE080A84ED140AA06D401CA06502E0B9
:10182000606D401C606523E0DFF8F40790ED000A6E
:10183000B4EE408AF1EE10FA12DBDFF8E80790ED23
:10184000000AB4EE480AF1EE10FA09DB94ED140A2E
:1018500030EE080A84ED140AA06D401CA06502E079
:10186000606D401C606503E0DFF8BC0700F03EFCE3
:10187000FFF761FD12B0BDEC028B70BD00000000EF
:1018800062696700803000207CBE00085835002067
:1018900034BE0008A0BD0008017809064278120491
:1018A00083781B029A18C0781018411808007047F6
:1018B000000000002DE9F0412DED048B017890F837
:1018C00001808478C578B7EE008AC9B2802901D337
:1018D000BFEE008ADFED848AC9B280290DD3C9B278
:1018E000080003F06FF80022DFF8403703F078F8C3
:1018F00002F08CFF08EE900A04E0C9B200EE101A64
:10190000F8EE408A18EE900A01F0CAFE00225FF05D
:10191000804302F0A9FE02F079FF08EE900A5FFA18
:1019200088F8B8F1800F0CD318EE900A01F0B8FED9
:101930000022DFF8FC3603F053F802F067FF08EEF0
:10194000900A18EE900A01F0ABFE0022DFF8E436B0
:1019500003F046F802F05AFF08EE900A9FED629AF3
:101960005FFA88F8B8F1800F0CD35FFA88F8404628
:1019700003F028F80022DFF8B43603F031F803F062
:10198000A3F88046EDB2280003F01CF806000F0013
:10199000E4B2200003F016F804000D005FFA88F8A6
:1019A000404603F00FF80022DFF88C3602F05CFEB0
:1019B00022002B0003F014F80022DFF87C3602F03E
:1019C00053FE32003B0003F00BF802F01FFF09EE5C
:1019D000100A9FED8F0A89EE009A18EE100A01F0A6
:1019E0005FFE04000D0018EE900A01F059FE41EC74
:1019F000110B9FEDD60B03F0D4FA51EC100B220023
:101A00002B0002F031FE04000D00B7EE000A39EEA3
:101A1000000A10EE100A01F043FE22002B0002F033
:101A200023FE02F0F3FE00EE100ABDEC048BBDE8CD
:101A3000F08170B504000D00002605E0315DDFF88F
:101A4000FC0500F053FB761CAE42F7DBC1A000F0B2
:101A50004DFB70BD30B5ADF57F7D0500280001F070
:101A600061FE0400641C6946200000F047F829006C
:101A7000DFF8CC0500F07AFB290005A800F076FB22
:101A8000232005A9611801F8010CDFF8B8050068EA
:101A9000012803D1312005A9605402E0302005A9B6
:101AA0006054002005A961184870641C002003F0F0
:101AB00034FD684601F036FE020092B2002168460D
:101AC00003F07FFD05A801F02DFE020092B20A216D
:101AD00005A803F076FD220005A9DFF86C0500F0EB
:101AE00005FB0DF57F7D30BD0000000000000020EB
:101AF0001C00002078B50008E83000203EB4030048
:101B0000002B00D5404200220A2490FBF4F504FB90
:101B1000150430346D465455521C0A2490FBF4F0E1
:101B20000128F1DA002B03D52D206B46D054521C2E
:101B300000206B46D054100006E06B46C31813F823
:101B4000013C141A6354401E0028F6D537BC704778
:101B500030B5ADF57D7D04000A220021684603F012
:101B6000CCFD684602F0DEF905006D1C280002007D
:101B700092B20A2103A803F0C0FD03A8281810F8A8
:101B8000010C302808D10020DFF8B8140860DFF815
:101B9000BC0400F0ABFA16E003A8281810F8010CFA
:101BA000312808D10120DFF89C140860DFF8A00478
:101BB00000F09CFA07E00020DFF888140860DFF8E6
:101BC000940400F093FA03A8281810F8020C2328B4
:101BD00016D1002003A9691801F8020C03A92000FE
:101BE00000F0C4FADFF87014DFF8700400F07EFA39
:101BF00003A9DFF8680400F079FAFEF7FDFA03E0C4
:101C0000DFF85C0400F072FA0DF57D7D30BD000058
:101C10000000004BB0BD0008482F002004BB0008A6
:101C200080B5012807D0C0F08980032844D021D393
:101C3000042862D082E0DFF82C040078002814D158
:101C400000228021DFF8200402F086FA0122002120
:101C5000DFF8180404F0A6F80320DFF80814087071
:101C6000DFF80C0400F042FA03E0DFF8080400F0AB
:101C70003DFA67E0DFF8EC0390F82C00002816D15D
:101C800000224FF40061DFF8F00302F065FA012250
:101C90000421DFF8D80304F085F80320DFF8C4132B
:101CA00081F82C00DFF8D40300F020FA03E0DFF81D
:101CB000D00300F01BFA45E0DFF8A80390F85800C5
:101CC000002815D100220421DFF8AC0302F044FA09
:101CD00001220821DFF8940304F064F80320DFF800
:101CE000841381F85800DFF89C0300F0FFF903E04B
:101CF000DFF8940300F0FAF924E0DFF8680390F8C5
:101D00008400002815D100220421DFF85C0302F0D2
:101D100023FA01220C21DFF8540304F043F80320D6
:101D2000DFF8401381F88400DFF8600300F0DEF98B
:101D300003E0DFF85C0300F0D9F903E0DFF85403B7
:101D400000F0D4F901BD0000F8B90008000000005F
:101D5000000000400A00000010B50400012C06D06D
:101D60006DD3032C37D01BD3042C4ED067E0BD4875
:101D70000078032810D101228021BB4802F0ECF941
:101D800000220021B94804F00DF80020B549087080
:101D9000C14800F0ABF902E0C04800F0A7F951E0FB
:101DA000B04890F82C00032812D101224FF40061B2
:101DB000B14802F0D1F900220421AC4803F0F2FF4F
:101DC0000020A84981F82C00B54800F08FF902E006
:101DD000B44800F08BF9A34890F85800032811D1BB
:101DE00001220421A44802F0B7F9002208219F48EB
:101DF00003F0D8FF00209B4981F85800AA4800F062
:101E000075F902E0A94800F071F9964890F884004D
:101E1000032811D101220421934802F09DF90022E8
:101E20000C21924803F0BEFF00208E4981F8840007
:101E30009F4800F05BF902E09E4800F057F99E4889
:101E400000F054F9200004F0C0FA10BDBA350020AB
:101E5000BB350020882900209A9999999999B93F12
:101E60007B14AE47E17A843FFCA9F1D24D62503F2A
:101E70002D431CEBE2361A3FF168E388B5F8E43EE7
:101E80008DEDB5A0F7C6B03E48AFBC9A80B501282D
:101E900007D0C0F08280032840D01ED304285CD035
:101EA0007BE07048407800280BD101206D494870D4
:101EB000002208216C4802F04FF9804800F016F922
:101EC0000AE000206749487001220821664802F0B4
:101ED00043F97B4800F00AF962E0624890F82D006F
:101EE00000280DD101205F4981F82D0000224FF418
:101EF00000615D4802F030F9724800F0F7F80CE03C
:101F00000020584981F82D0001224FF40061564805
:101F100002F022F96C4800F0E9F841E0514890F8ED
:101F2000590000280CD101204E4981F859000022A7
:101F30000221514802F010F9644800F0D7F80BE094
:101F40000020484981F85900012202214A4802F044
:101F500003F95F4800F0CAF822E0424890F8850093
:101F600000280DD101203F4981F8850000224FF45F
:101F70008071584802F0F0F8574800F0B7F80BE0CD
:101F80000020384981F8850001220821364802F0F6
:101F9000E3F8524800F0AAF802E0514800F0A6F831
:101FA00001BD000040BE0008F2D77A3E3A8C30E214
:101FB0008E79453E80B504F0FDFB002804D14948E8
:101FC00000F094F8002003E0474800F08FF801206B
:101FD00002BD0000B401002095D626E80B2E113E6C
:101FE00004BC00083CB7000884BE000860B70008C5
:101FF000D4BC0008580000205C0000208CBE000803
:10200000C0BD0008E8BC00089C350020600000202E
:102010006400002068000020983500205400002053
:102020009435002050000020FCBC0008000060C077
:102030000000F03F00C05FC00000704094BE000888
:10204000A02500206C000020A8B5000810BD0008E5
:1020500024BD000884B70008B8210020D0BD0008C6
:10206000A8B70008C8320020000C0240000401405C
:10207000CCB70008D4B5000800140240F0B700083F
:10208000FCB5000814B8000824B6000838B80008E9
:102090004CB6000818BA00085CB8000874B600080E
:1020A00080B800089CB60008A4B80008C4B60008B0
:1020B000C8B80008ECB6000838BA0008D8B3000861
:1020C0000CB4000840B4000874B40008A8B40008B8
:1020D000DCB400080008024010B5000844B5000850
:1020E000ECB8000858BA000810B900080EB400B5E2
:1020F00082B003A9009102466B460121034878444F
:102100000A3004F01BFC06BC5DF810FB419B00008C
:1021100070B504460D46104805F0C3FC064644B1B0
:102120002946204605F0BEFC0419207830B93060FD
:1021300070BD3468002CF3D1002070BD29462046C4
:1021400005F0C1FC0019017811B1002100F8011B54
:102150003060204670BD00BFB0000020002205F0B6
:10216000C3BC0268531C0360117070475FEA000C27
:10217000830706D011F8013B00F8013BB3B1830798
:10218000F8D10A68B2F1013323EA020313F0803F69
:1021900002BF40F8042B51F8042FF3E711F8013B7C
:1021A00000F8013B13B111F8013BF9E760467047B5
:1021B00000F5E0700268914203D343689A18914297
:1021C00002D380680028F5D17047DFF8580701680E
:1021D00091B94FF4803181604FF4805141604FF0EC
:1021E000FF31C16001610421DFF83C274161C2F881
:1021F000BC11DFF8381701600120704701F10803B6
:1022000013F0070305D001F10803C3F1080303F03D
:1022100007035918D21A8161C26042F001034B6072
:10222000511828234B60DFF8FC160969C16170471B
:102230002DE9F84F064601F1080010F0070008BF2D
:10224000884607D001F10800C0F1080000F007003F
:1022500000EB010802F1080010F0070006D002F1BF
:102260000800C0F1080000F0070082181546A5EB31
:102270000800A0EB030903EB080B43F00300C8F8C8
:102280000400AB4528BF05F048FC2879C00758BFBB
:1022900005F043FCB9F1100F38BF05F03EFCB06902
:1022A000854209D1F0684844F060C6F818B040F0A3
:1022B0000100CBF804006DE1706985420BD1B06874
:1022C0004844B060C6F814B040F00101CBF80410E7
:1022D00040F80B005EE1686800F00301012940F05E
:1022E000AD80C008C0000190C00820283AD2D5F8BF
:1022F00008A0EF680090BD4208BF05F00EFC5545F0
:1023000008BF05F00AFC68680099C008C000B0EB7F
:10231000C10F18BF05F001FC009806EBC00000F1EA
:1023200028018A4507D031698A45C0F08280DAF8F1
:102330000C10A9427DD1574506D1009A3068012181
:1023400091408843306076E02830874205D030697C
:1023500087426ED3B868A8426BD1CAF80C70C7F830
:1023600008A068E0EF68D5F818A0AF420CD0A868C4
:102370003169884223D3C168A94204BFB968A94220
:102380001DD1C760B8601CE005F11400076837B9BB
:1023900005F110000768A7B101E00846076807F1DA
:1023A00014010A68002A02BF07F110010A68002A16
:1023B000F3D13169884202D30021016001E005F0C8
:1023C000ACFBBAF1000F36D0E86906EB800000F5EF
:1023D000987001688D4208D10760A7B9EA697068F2
:1023E000012191408843706025E03069824508D31F
:1023F000DAF81000A84214BFCAF81470CAF81070B6
:1024000001E005F08AFBB7B13069874211D3C7F804
:1024100018A0296929B1814226BF39618F6105F071
:102420007CFB686938B13169884202D37861876181
:1024300001E005F072FB0198451981446868400885
:10244000400068604FEAD90549F00100CBF804006C
:1024500049F80B90202D23D206EBC50000F1280788
:10246000BA46B9F1100F38BF05F057FB306820FAB3
:1024700005F1C90704D40121A9400843306006E0F2
:10248000B868316988422CBF824605F046FBC7F820
:1024900008B0CAF80CB0CBF808A0CBF80C7079E003
:1024A0005FEA192108BF002023D0B1F5803F28BF83
:1024B0001F201ED2A1F58070000C00F008008140A2
:1024C000A1F58052120C02F004029140A1F5804364
:1024D0001B0CC0F10E0003F00203801AC01A9940D1
:1024E00000EBD130C11D29FA01F202F0010101EB2C
:1024F0004000CBF81C000022CBF81420CBF81020B1
:1025000006EB8001726822FA00F3DB0701F598718F
:1025100007D4012303FA00F010437060C1F800B043
:102520001DE009681F280EBF00204008C0F11900F7
:1025300009FA00F000E011464A68D208D2004A4584
:1025400014D0C20F01EB820202F1100340001A689E
:10255000002AF0D1306983421AD3C3F800B0CBF817
:102560001810CBF80CB0CBF808B013E032698868CB
:10257000914228BF90420BD3C0F80CB0C1F808B00C
:10258000CBF80800CBF80C100020CBF8180001E0C5
:1025900005F0C3FA08F10800BDE8E68F2DE9FA4D11
:1025A0000546DFF8800384B0006808B9FFF70DFE28
:1025B000DFF870030499806841182F31401E21EA2A
:1025C00000000499814280F0A88105F5D876B168B1
:1025D00039B132688018824280F09F818142C0F018
:1025E0009C8105F09DFA00281EBF0446D0F80080AB
:1025F00014F1010F00F0918130687168404430603F
:10260000814238BF01467160A86980BB286908B162
:10261000844200D22C610020F0613461C6F814803D
:1026200005F12801BF48006868624FF0FF3028625A
:10263000002001F10802C9601160801C10312028BF
:10264000D2609260F5D3B848854203D1A8F1280240
:10265000214629E055F8040CC00805EBC000A0F1A4
:10266000080108EB0400401AA0F128021CE005F55F
:10267000E071084600E08068D0B1026843689A18AB
:102680009442F8D1027B120712D4AA6903689A42D5
:102690000ED347683B449A420AD208EB07014160D7
:1026A000E868A96908EB00022846FFF7A7FD1EE1CC
:1026B00028698442084638BF2C6108EB040100E019
:1026C000806880B102688A42FAD1017B09070AD486
:1026D00004604168414441602146049B284606B09D
:1026E000BDE8F04DA4E5AF6939462846FFF760FD27
:1026F00001684068401802902F3800F1080111F07D
:10270000070105D000F10801C1F1080101F007013E
:10271000081807F11001884234BF00970090009814
:102720000830019004F10801009800F1180A11F036
:1027300007014FF0000BA8F1280005D004F10801B3
:10274000C1F1080101F007010A19401AAA61E86005
:1027500040F00101516080182821416071480069F2
:10276000E861019810F0070018BF05F0D6F900994C
:102770001B20486005F5E071B1E80C500198A0E815
:102780000C503461C6F81480C6F81CB00198B061D2
:10279000029800E08A460722CAF804200AF10401E0
:1027A0000A1D82420BF1010BF4D3BBF1020FB8BF3B
:1027B00005F0B3F90098B84200F09980C01BC11928
:1027C000C4084A68520852004A6040F0010179602A
:1027D000C051202C20D205EBC40101F12806B046DF
:1027E000102838BF05F099F9286820FA04F1C907C4
:1027F00004D40121A1400843286006E0B06829699B
:1028000088422CBF804605F088F9B760C8F80C7084
:10281000C7F80880FE606AE0010A08BF002223D0E2
:10282000B1F5803F28BF1F221ED2A1F58072120C85
:1028300002F008029140A1F580531B0C03F0040341
:102840009940A1F58044240CC2F10E0204F0020468
:10285000D21A121BA14002EBD131CA1D20FA02F399
:1028600003F0010202EB4102FA6100237B613B614C
:1028700005EB82016B6823FA02F4E40701F5987115
:1028800005D401209040184368600F601CE009687F
:102890001F2A0EBF00225208C2F1190200FA02F2EA
:1028A00000E019464B68DB08DB00834210D0D30FF1
:1028B00001EB830303F1100452002368002BF0D1D5
:1028C0002869844211D32760B961FF60BF600EE0C0
:1028D0002A698868914228BF904206D3C7608F60FA
:1028E000B860F9600020B86101E005F016F9E86809
:1028F0000499814211D2401AE860A969049A5218D9
:10290000AA6140F001005060049840F00300486064
:1029100006B001F10800BDE8F08D002006B0BDE86A
:10292000F08D000078350020702D00206859883C1B
:102930002DE9F04D0446002688465FEA1820C8F1CC
:10294000000B08BF002123D0B0F5803F28BF1F2116
:102950001ED2A0F58071090C01F008018840A0F595
:102960008052120C02F004029040A0F580431B0C30
:10297000C1F10E0103F00203891AC91A984001EB54
:10298000D030C11D28FA01F202F0010101EB400133
:1029900004EB8100D0F8300118B31F290EBF0022CC
:1029A0004A08C2F1190208FA02F2002300E05200BC
:1029B0004568ED08ED00A5EB08055D4503D25FEA2B
:1029C000050B06460BD04569D70F00EB8700002D9D
:1029D00000691CBF85422B460028E8D11846B8BBC9
:1029E000C6BB01208840400041420843616808405E
:1029F00000F0638141420840401E010B01F01001CC
:102A0000C840420902F00802D040830803F00403E2
:102A1000D840450805F002055118E8405918C0F3A0
:102A2000400729443944F840401804EB8000D0F8AE
:102A300030010DE008464168C908C900A1EB080152
:102A400059453CBF8B46064601690029F2D14069D1
:102A50000028F0D1002E00F03081A068A0EB080023
:102A6000834580F02A8120698642C0F02481706805
:102A7000C008C00008EB0B0108EB0605884218BF30
:102A800005F04BF8AE4280F01681F768D6F818A032
:102A9000B7420CD0B0682169884223D3C168B142E3
:102AA00004BFB968B1421DD1C760B8601CE006F12F
:102AB0001400076837B906F110000768A7B101E0F4
:102AC0000846076807F114010A68002A02BF07F1E7
:102AD00010010A68002AF3D12169884202D300213B
:102AE000016001E005F019F8BAF1000F38D0F06983
:102AF00004EB800000F5987001688E4209D10760F0
:102B0000380014D1F2696068012191408843606007
:102B100026E02069824508D3DAF81000B04214BFDD
:102B2000CAF81470CAF8107001E004F0F6FFBFB1E3
:102B30002069874212D3C7F818A0306930B12169E3
:102B4000884226BF3861876104F0E7FF706938B1B9
:102B50002169884202D37861876101E004F0DDFFDA
:102B6000BBF1100F0CD208EB0B0040F003007060BB
:102B700008EB0B008019416841F00101416096E0CB
:102B800048F0030070604BF0010068604FEADB0022
:102B90004BF805B020281DD204EBC00101F1280735
:102BA000216821FA00F2D207BB4605D4012202FABD
:102BB00000F00843206006E0B868216988422CBF15
:102BC000834604F0AAFFBD60CBF80C50C5F808B0EE
:102BD000EF606CE05FEA1B2108BF002023D0B1F555
:102BE000803F28BF1F201ED2A1F58070000C00F08E
:102BF00008008140A1F58052120C02F004029140BD
:102C0000A1F580431B0CC0F10E0003F00203801AF3
:102C1000C01A994000EBD130C11D2BFA01F202F02D
:102C2000010101EB4000E86100226A612A6104EBC6
:102C30008001626822FA00F3DB0701F5987106D47F
:102C4000012303FA00F0104360600D601CE0096886
:102C50001F280EBF00204008C0F119000BFA00F039
:102C600000E011464A68D208D2005A4510D0C20F7F
:102C700001EB820202F1100340001A68002AF0D131
:102C80002069834211D31D60A961ED60AD600EE043
:102C900022698868914228BF904206D3C5608D6042
:102CA000A860E9600020A86101E004F036FF06F1A9
:102CB0000800BDE8F08D04F030FF0020BDE8F08D85
:102CC0002DE9F84F04468846606841420840401E9E
:102CD000010B01F01001C840420902F00802D04087
:102CE000830803F00403D840450805F00205511895
:102CF000E8405918C0F3400629447118F0404018C4
:102D000004EB8000D0F830014168C908C9000646CC
:102D1000A1EB080A09E008464168C908C900A1EB0F
:102D2000080151453CBF8A46064601690029F2D197
:102D300040690028F0D120698642C0F0C4807068E4
:102D4000C00808EB0A09C00008EB060B484518BF8D
:102D500004F0E3FE5E4580F0B680F768B569B742DF
:102D60000CD0B0682169884223D3C168B14204BF46
:102D7000B968B1421DD1C760B8601CE006F114000B
:102D8000076837B906F110000768A7B101E00846E7
:102D9000076807F114010A68002A02BF07F1100151
:102DA0000A68002AF3D12169884202D30021016018
:102DB00001E004F0B2FE002D34D0F06904EB800095
:102DC00000F5987001688E4209D10760380011D172
:102DD000F2696068012191408843606022E02069C7
:102DE000854205D32869B04214BF6F612F6101E0AD
:102DF00004F093FEB7B12069874211D3BD613069F9
:102E000030B12169884226BF3861876104F085FEB0
:102E1000706938B12169884202D37861876101E025
:102E200004F07BFEBAF1100F09D249F00300706084
:102E300009EB0600416841F0010141603FE048F0C4
:102E4000030070604AF00100CBF804004AF80BA0C0
:102E5000D4F808804FEAD805202D28BF04F05DFE85
:102E6000B8F1000F27D0D4F81490009504EBC500FA
:102E700000F128052F46B8F1100F38BF04F04DFEC1
:102E80002068009920FA01F2D10705D4009A0121A7
:102E900091400843206006E0A868216988422CBF61
:102EA000074604F03AFEC5F80890C7F80C90C9F838
:102EB0000870C9F80C50C4F808A0C4F814B006F1A2
:102EC0000800BDE8F28F04F028FE0020BDE8F28F74
:102ED0002DE9F04F83B00546C046C046F52DDFF81A
:102EE000B84780F002810B2D31BF102705F10B0090
:102EF000C708FF002068FE08F04010F0030F42D022
:102F0000C04300F00100861904EBC60000F1280858
:102F1000F700D8F808506868C008C000B84218BF69
:102F200004F0FBFDD5F80890454508BF04F0F5FD19
:102F30004D4508BF04F0F1FD6868C008C000B84204
:102F400018BF04F0EAFDC84505D120680121B14051
:102F5000884320600DE02069814508D3D9F80C0032
:102F6000A84204D1C8F80890C9F80C8001E004F028
:102F7000D4FD47F00300686078190835416841F0D6
:102F800001014160F9E0A168B94280F0C0800028E9
:102F900000F0A280012505FA06F149004A42B0403E
:102FA0001143084041420840401E010B01F010014E
:102FB000C840420902F00802D040830803F004032D
:102FC000D840460806F002065118F0405918C0F3E0
:102FD00040087118414420FA08F000EB010804EBA6
:102FE000C80000F128094FEAC80AD9F808607068DB
:102FF000C008C000504518BF04F08FFDD6F808B0D7
:103000004E4508BF04F089FD5E4508BF04F085FD0C
:103010007068C008C000504518BF04F07EFDD94557
:1030200005D1206805FA08F1884320600DE0206989
:10303000834508D3DBF80C00B04204D1C9F808B0CE
:10304000CBF80C9001E004F068FD47F003007060DD
:10305000AAEB0708B819019048F0010001994860EF
:10306000019848F80080A7684FEAD70ABAF1200F04
:1030700028BF04F052FD47B3CDF800A004EBCA000E
:10308000D4F8149000F1280AD346102F38BF04F06A
:1030900044FD2068009920FA01F2D10705D4009977
:1030A00005FA01F10843206007E0DAF80800216919
:1030B00088422CBF834604F030FDCAF80890CBF854
:1030C0000C90C9F808B0C9F80CA0C4F8088006F143
:1030D00008050198606150E06068C0B33946204639
:1030E000FFF7EEFD050012D047E015F1400F28BFB5
:1030F0004FF0FF370BD205F10B00C7086068FF00E7
:1031000028B139462046FFF713FC050035D1A068E9
:10311000B8421CD3C11B626910290AD3B818606178
:10312000A16041F001034360095047F00300506083
:103130000AE00021A160616140F003015160801844
:10314000416841F00101416002F1080515E0E068C5
:1031500087420DD2C01BA169E0607A18A26140F0DD
:103160000100506001F1080547F00300486004E0E9
:1031700039462046FFF712FA0546C046C0462846A3
:1031800003B0BDE8F08F00B970472DE9F047A0F11A
:103190000804C046C046DFF8005528698442C0F0E4
:1031A0007482616801F00302012A00F06E82CA088D
:1031B0004FEAC208CA0708EB040936D4226811F0A6
:1031C000030F00F06482A41A84429044C0F05D8230
:1031D00069698C4200F0D880D608202E70D2D4F8CD
:1031E0000CA0A768544508BF04F097FCBC4208BF78
:1031F00004F093FC6068C008C000B0EBC60F18BFB5
:1032000004F08BFC05EBC60000F128018F4205D0CD
:1032100029698F4251D3F968A1424ED1BA453DD1B7
:1032200028680121B140884328604C4580F02D82F8
:10323000D9F80400C10740F12882810700F17A81A2
:10324000A969894540F0B580E868AC614044E86010
:1032500040F00101616069698C4202D1002169611D
:10326000A960E969814280F01282DFF830040068C9
:1032700008B9FEF7AAFFA969002900F00882E868EA
:10328000292824BF2846FEF793FFE869E9688842A9
:1032900080F0FD814FF0FF30E861F8E12830824591
:1032A00006D02869824508D3DAF80800A04204D184
:1032B000C7F80CA0CAF80870B7E704F02EFCB4E712
:1032C000E768A669A7420BD0A168814222D3C868EB
:1032D000A04204BFB868A0421CD1CF60B9601BE017
:1032E00004F114010F6837B904F110010F689FB1A0
:1032F00001E011460F6807F114021368002B02BFAA
:1033000007F110021368002BF3D1814202D3002091
:10331000086001E004F001FC002E86D0E06905EBB6
:10332000800000F5987001688C4209D10760380070
:1033300011D1E2696868012191408843686074E7AF
:103340002869864205D33069A04214BF776137618E
:1033500001E004F0E2FB002F3FF467AF28698742E9
:10336000ABD3BE61216929B1814226BF39618F612A
:1033700004F0D3FB606900283FF457AF2969884205
:103380009BD37861876150E799F8040000F003004F
:1033900003287FF44AAFC5F80880D9F80400400834
:1033A0004000C9F8040048F00100606048F804805B
:1033B0006DE16969894508D1A8686C614044A860DD
:1033C00040F001016160005161E1C008C0004FEAB6
:1033D000D00ABAF1200F804436D2D9F80C70D9F84F
:1033E0000860B94508BF04F098FBB14508BF04F078
:1033F00094FBD9F80400C008C000B0EBCA0F18BF96
:1034000004F08BFB05EBCA0000F128018E4206D0C8
:1034100029698E42C0F08180F16849457DD1B7426B
:1034200006D12868012101FA0AF18843286076E074
:103430002830874205D0286987426ED3B86848454E
:103440006BD1F760BE606AE0D9F80C70D9F81860EB
:103450004F450DD0D9F808002969884223D3C168A7
:10346000494504BFB96849451DD1C760B8601CE033
:1034700009F11400076837B909F110000768A7B10E
:1034800001E00846076807F114010A68002A02BF34
:1034900007F110010A68002AF3D12969884202D392
:1034A0000021016001E004F038FB002E37D0D9F88C
:1034B0001C0005EB800000F59870016889450AD171
:1034C0000760380012D1D9F81C20686801219140AA
:1034D0008843686023E02869864205D330694845FF
:1034E00014BF7761376101E004F017FBBFB12869B1
:1034F000874212D3BE61D9F8101029B1814226BF8C
:1035000039618F6104F009FBD9F8140038B12969D9
:10351000884202D37861876101E004F0FEFA48F046
:103520000100606048F80480686984420BD1C5F8E6
:103530000880ACE040084000C9F8040048F00100F1
:10354000606048F804804FEAD807202F22D205EBAC
:10355000C70000F128094E46B8F1100F38BF04F03B
:10356000DCFA286820FA07F1C90704D40121B94020
:103570000843286007E0D9F80800296988422CBF71
:10358000064604F0CAFAC9F80840F460A660C4F818
:103590000C907CE05FEA182008BF002123D0B0F532
:1035A000803F28BF1F211ED2A0F58071090C01F0B9
:1035B00008018840A0F58052120C02F004029040ED
:1035C000A0F580431B0CC1F10E0103F00203891A20
:1035D000C91A984001EBD030C11D28FA01F202F05F
:1035E000010101EB4001002262612261E16105EB12
:1035F00081006A6822FA01F3DB0700F5987006D4AF
:10360000012303FA01F11143696004601CE00068C2
:103610001F290EBF00214908C1F1190108FA01F163
:1036200000E010464268D208D200424510D0CA0FCE
:1036300000EB820202F1100349001A68002AF0D15F
:1036400029698B4211D31C60A061E460A4600EE084
:103650002A698168904228BF914206D3CC60846079
:10366000E060A1600020A06101E004F056FA286A41
:10367000401E28620BD1D5F8C80100E08068002800
:10368000FCD14FF0FF30286201E004F046FAC0465A
:10369000C046BDE8F0870000702D0020783500207E
:1036A0005FF0FF0C1CEAD05114BF614506E0C11069
:1036B000400721F0E04101F16051704779B900F015
:1036C000004100020AD0B0FA80FC00FA0CF001F1CF
:1036D0006051A1EB0C5101EBD02140057047410234
:1036E0000CBF40F4E0016FF00001002070470000C3
:1036F0000CB41CB5044604A801900A46009401AB22
:10370000694607487844183003F018F9009A0021F8
:10371000117000285CBF0098001B16BC5DF80CFB04
:1037200043EAFFFF00F10103810704D010F8011BF9
:1037300089B18107FAD10268B2F10131914311F0E8
:10374000803F04BF50F8042FF6E710F8011B11B1B9
:1037500010F8011BFBE7C01A7047000010B5040009
:10376000002C01D1012033E0A0690028FFD194F89A
:103770003900002805D1002084F83800200004F02A
:10378000F9F9242084F839002068C06830F400502A
:103790002168C860200000F039FA2068006930F420
:1037A0009040216808612068406930F02A00216853
:1037B00048612068C06850F400502168C86000204B
:1037C000E063202084F83900202084F83A000020AB
:1037D00010BD2DE9F04182B004000D0016001F005D
:1037E0005FF0000894F8390020285DD1002D02D048
:1037F000B6B2002E01D1012057E094F9380001281B
:1038000001D1022051E0012084F838000020E0635B
:10381000212084F8390000F00AFD8046A684E68461
:1038200003E02878216848606D1CE08C002828D0CF
:10383000E08C401EE084A068B0F5805F16D1009750
:10384000434600228021200000F0FCF8002801D02F
:1038500003202AE02888C005C00D2168486020693F
:10386000002801D1AD1CE0E76D1CDEE70097434660
:1038700000228021200000F0E5F80028D1D00320AC
:1038800013E00097434600224021200000F0DAF8C0
:10389000002801D0032008E0202084F8390000200F
:1038A00084F83800002000E00220BDE8F68190F89E
:1038B0003A30202B28D1002902D092B2002A01D11F
:1038C000012022E090F93830012B01D102201CE0C8
:1038D000012380F8383081628285C2850021C1636E
:1038E000222180F83A10002180F8381001684969D7
:1038F00051F00101026851610168C96851F4907189
:103900000068C160002000E00220704738B5040064
:10391000206800682168C968226852690023002372
:1039200010F00F03002B07D1850605D58D0603D5B2
:10393000200000F01EF982E0002B70D0D30702D4E3
:1039400011F4907F6BD010F00103DBB2002B05D097
:10395000CB0503D5E36B53F00103E363430708D5BD
:1039600012F00103DBB2002B03D0E36B53F0020330
:10397000E363830708D512F00103DBB2002B03D009
:10398000E36B53F00403E363030708D512F001026D
:10399000D2B2002A03D0E26B52F00802E263E26B7B
:1039A000002A3BD0800604D5880602D5200000F00E
:1039B000E0F820684069800910F00103E06B00071F
:1039C00001D4002B25D0200000F074F82068406955
:1039D00040061AD52068406930F0400021684861EF
:1039E000606B00280DD00FF2F100616B0865606B11
:1039F00004F0E2F9002811D0606B616B096D884713
:103A00000CE0200000F01DF808E0200000F019F89C
:103A100004E0200000F015F80020E0630FE002064B
:103A200005D50A0603D5200000F060F807E040063F
:103A300005D5480603D5200000F08DF8FFE731BD1D
:103A4000704770472DE9F04104000D0016001F007B
:103A5000DDF81880206800682840A84201D10120C4
:103A600000E0002076B2B04221D118F1010FF1D070
:103A7000B8F1000F04D000F0DAFBC01B8045E9D29A
:103A80002068C06830F4D0702168C8602068406940
:103A90004008400021684861202084F83900202037
:103AA00084F83A00002084F83800032000E0002069
:103AB000BDE8F0810168C96831F490710268D16095
:103AC000016849694908490002685161202180F86C
:103AD0003A1070470000000080B5806B0021C1855E
:103AE0000021C184FFF7ADFF01BD000090F839103F
:103AF00021292ED18168B1F5805F10D1016A098832
:103B0000C905C90D026851600169002903D1016A24
:103B1000891C016209E0016A491C016205E0016A31
:103B20004A1C0262097802685160C18C491EC18436
:103B300089B200290BD10168C96831F0800102689F
:103B4000D1600168C96851F040010068C16000207F
:103B500000E00220704780B50168C96831F040017B
:103B60000268D160202180F83910FFF769FF00203A
:103B700002BD80B590F83A10222945D18168B1F58F
:103B8000805F14D1816A0269002A08D102685268F4
:103B9000D205D20D0A80816A891C816219E002680F
:103BA0005268D2B20A80816A491C816211E00169BF
:103BB000002906D1816A4A1C8262026852680A7032
:103BC00007E0816A4A1C82620268526812F07F0232
:103BD0000A70C18D491EC18589B2002912D10168C0
:103BE000C96831F490710268D16001684969490877
:103BF000490002685161202180F83A1004F0B3FABC
:103C0000002002E0002000E0022002BD2DE9F0418A
:103C1000040000202068006930F44050E168084347
:103C2000216808612068C068BB490840A168226912
:103C3000114362691143E269114308432168C86076
:103C40002068406930F44070A169084321684861E8
:103C5000E069B0F5004F40F0B0802068AF4988427D
:103C600003D02068AE49884253D105F06BF88046F6
:103C700005F068F8060005F065F8070005F062F841
:103C8000050005F05FF8192101FB08F16268520098
:103C9000B1FBF2F16422B1FBF2F1192202FB06F250
:103CA00063685B00B2FBF3F2192303FB07F366685A
:103CB0007600B3FBF6F36426B3FBF6F3642606FB4B
:103CC0001322D20032326423B2FBF3F212F0F80274
:103CD000520012EB0111192202FB05F263685B002E
:103CE000B2FBF3F21923584363685B00B0FBF3F0B7
:103CF0006423B0FBF3F0642303FB1020C0003230D8
:103D00006422B0FBF2F010F00700401821688860D0
:103D100000E105F007F8804605F004F8060005F01C
:103D200001F8070004F0FEFF050004F0FBFF192175
:103D300001FB08F162685200B1FBF2F16422B1FBB1
:103D4000F2F1192202FB06F263685B00B2FBF3F2A8
:103D5000192303FB07F366687600B3FBF6F36426CA
:103D6000B3FBF6F3642606FB1322D200323264233F
:103D7000B2FBF3F212F0F802520012EB0111192219
:103D800002FB05F263685B00B2FBF3F219235843B0
:103D900063685B00B0FBF3F06423B0FBF3F06423D3
:103DA00003FB1020C00032306422B0FBF2F010F0B0
:103DB0000700401821688860ACE0206857498842B5
:103DC00003D020685649884252D104F0BBFF804698
:103DD00004F0B8FF060004F0B5FF070004F0B2FFDE
:103DE000050004F0AFFF192101FB08F162689200A1
:103DF000B1FBF2F16422B1FBF2F1192202FB06F2EF
:103E000063689B00B2FBF3F2192303FB07F36668B8
:103E1000B600B3FBF6F36426B3FBF6F3642606FBA9
:103E20001322120132326423B2FBF3F212F0F002D9
:103E300012EB0111192202FB05F263689B00B2FB31
:103E4000F3F21923584363689B00B0FBF3F064233B
:103E5000B0FBF3F0642303FB102000013230642236
:103E6000B0FBF2F010F00F0040182168886051E0BC
:103E700004F058FF804604F055FF060004F052FF9E
:103E8000070004F04FFF050004F04CFF192101FB6F
:103E900008F162689200B1FBF2F16422B1FBF2F129
:103EA000192202FB06F263689B00B2FBF3F21923AE
:103EB00003FB07F36668B600B3FBF6F36426B3FBB7
:103EC000F6F3642606FB1322120132326423B2FB9E
:103ED000F3F212F0F00212EB0111192202FB05F2CB
:103EE00063689B00B2FBF3F21923584363689B009D
:103EF000B0FBF3F06423B0FBF3F0642303FB10206A
:103F0000000132306422B0FBF2F010F00F004018D4
:103F100021688860BDE8F081F369FFFF001001406F
:103F2000001401400A22002104F0E2BF80B5002203
:103F300005F0BAF841EC100B01BD00004FF4001C75
:103F40001CEB410F94BF1CEB430F09E041EA030C4B
:103F500050EA4C0C52EA0C0C03D2994208BF904232
:103F6000704714BF8B4282427047000078B400242F
:103F700000230024002237E00825EDB212F00306EA
:103F8000F6B2B600B5402C43DFF8FC51960845F870
:103F90002640DFF8F84124689C434D68ED0300D5C6
:103FA0001C43DFF8E8512C60DFF8E44124689C43AF
:103FB0004D68AD0300D51C43DFF8D4512C60DFF809
:103FC000D44124689C434D68ED0200D51C43DFF8C2
:103FD000C4512C60704C24689C434D68AD0200D5E0
:103FE0001C436D4B1C60521C102A80F0AA800123D8
:103FF00013FA02F40B682340A342F4D14C68022C5C
:1040000002D04C68122C15D1D40810EB8404246A19
:104010000F2512F00706F6B2B600B540AC430D69A5
:1040200012F00706F6B2B600B5402C43D50810EBE7
:1040300085052C62046803251600F6B27600B540AB
:10404000AC430D7915F003051600F6B27600B540C5
:104050002C4304604C68012C08D04C68022C05D01D
:104060004C68112C02D04C68122C17D1846803259F
:104070001600F6B27600B540AC43CD681600F6B235
:104080007600B5402C438460446801259540AC43DC
:104090004D68C5F3001595402C434460C468032562
:1040A0001600F6B27600B540AC438D681600F6B245
:1040B0007600B5402C43C4604C68E40093D50024DE
:1040C0000094364C246854F48044344D2C60334CB6
:1040D000246814F480440094009C2B4C950854F8F8
:1040E00025400F2512F00306F6B2B600B540AC43EA
:1040F0002B4DA84201D100253FE72A4DA84201D10E
:1041000001253AE7284DA84201D1022535E7274D80
:10411000A84201D1032530E7254DA84201D104254D
:104120002BE7244DA84201D1052526E7224DA842C0
:1041300001D1062521E7214DA8427FF41DAF0725B7
:104140001BE771BC7047006989B2084201D00120A9
:1041500000E0002040B2704752B2002A02D089B27B
:10416000816102E089B209048161704780B5144918
:10417000096880B2014205D080B21149086080B25E
:1041800004F0F8F901BD000008380140003C01408E
:10419000043C0140083C01400C3C014044380240D2
:1041A000000002400004024000080240000C0240EF
:1041B000001002400014024000180240001C02409F
:1041C000143C014080B52348006850F40070214938
:1041D00008602048006850F480601E4908601D484F
:1041E000006850F480701B490860032004F0C2FF8F
:1041F000002000F004F805F002F8002002BD10B520
:104200000400154800684FF47A71B0FBF1F004F037
:10421000CBFF002221005FF0FF3004F0AFFF002051
:1042200010BD0E480068401C0C49086070470B48E0
:104230000068704731B5FFF7FAFF0400009D15F1E3
:10424000010F00D06D1CFFF7F2FF001BA842FAD34C
:1042500031BD0000003C02404C00002090350020A1
:1042600010B50400002C01D101204FE094F91D008D
:10427000002804D100202077200005F059F8022002
:104280006077CA2021684862532021684862200074
:1042900000F0B6F9002806D0FF202168486204200B
:1042A0006077012032E020688068DFF8141308404E
:1042B00021688860206880686168226911436269AA
:1042C0001143084321688860E0682168086120681C
:1042D0000069A16850EA0140216808612068C0684F
:1042E00030F080002168C8602068006C30F48020C5
:1042F000216808642068006CA1690843216808648B
:10430000FF202168486201206077002010BDF8B5C9
:1043100004000D00002694F91C00012801D10220A0
:104320007DE00120207702206077002A1BD12068E1
:104330008068400601D40020E870287800F07CF9FD
:104340000600687800F078F90700A87800F074F9A2
:10435000F6B2FFB2390251EA0641C0B20843E97829
:1043600050EA014614E020688068400604D52878A9
:1043700000F06DF9060001E00020E8702878697807
:10438000090251EA0040A9780843E97850EA014659
:10439000CA2021684862532021684862200000F04A
:1043A0002FF9002808D0FF20216848620420607798
:1043B00000202077012032E0DFF808023040216839
:1043C00008602068806830F4802021688860206858
:1043D0008068E9682A691143084321688860206879
:1043E000C06830F080002168C8602068806880065E
:1043F0000DD4200000F0EAF8002808D0FF20216842
:1044000048620420607700202077012007E0FF2029
:104410002168486201206077002020770020F2BDEB
:1044200010B50C0000210168896A616001680969A2
:104430004904490CA16000680068DFF88811014058
:10444000080C10F03F002070080A10F07F00607028
:1044500011F07F00A070080C10F04000E070002AFE
:104460000BD1207800F0F3F82070607800F0EFF8BE
:104470006070A07800F0EBF8A070002010BDF8B5D7
:1044800004000D00002694F91C00012801D102202F
:1044900070E00120207702206077002A07D1687839
:1044A000C00604D5687810F0EF000A306870002A62
:1044B00015D1E87800F0C0F80600687800F0BCF884
:1044C0000700A87800F0B8F8F6B2FFB2390251EA56
:1044D0000641C0B20843297850EA413611E06878B5
:1044E00000F0B5F80600A87800F0B1F80600E8780A
:1044F0006978090251EA0040A9780843297850EA0E
:104500004136CA2021684862532021684862200051
:1045100000F076F8002808D0FF20216848620420C7
:10452000607700202077012024E0DFF89C003040F5
:10453000216848602068C06830F080002168C86049
:104540002068806880060DD4200000F03FF8002825
:1045500008D0FF202168486204206077002020777F
:10456000012007E0FF2021684862012060770020D9
:1045700020770020F2BD10B50C00002100684068D3
:10458000DFF844100140080CE070080A10F01F002A
:10459000607011F03F00A070480B10F00700207011
:1045A000002A0BD1E07800F052F8E070607800F05B
:1045B0004EF86070A07800F04AF8A070002010BD9E
:1045C000BFFF8FFF7F7F7F003FFFFF0038B50400F4
:1045D00000252068C06830F0A0002168C860FFF79F
:1045E00026FE05002068C068800607D4FFF71FFE7E
:1045F000401BB0F57A7FF5D9032000E0002032BDE2
:1046000038B5040000252068C068400612D45FF069
:10461000FF302168C860FFF70AFE05002068C06807
:10462000400607D4FFF703FE401BB0F57A7FF5D9AB
:10463000032000E0002032BD002101E0491C0A38BF
:10464000C0B20A28FAD250EA0110C0B27047002165
:104650000100C9B20909C9B20A225143C0B210F01F
:104660000F004018C0B27047B0B581EA030C0CF0DF
:10467000004C40F2FF7515EA11541DBF15EA13579F
:10468000AC42AF4239E0E41923EA455343F48013C6
:10469000C90241F0004141EA505EC7021100A7FB88
:1046A000020200284FF00000EEFB01204FF0000155
:1046B000E3FB072118BF42F00102401800214941E5
:1046C000E3FB0E01A4F580640F0302D252004041C7
:1046D000494154F101046CDD470872F1004250F188
:1046E000000051EB0451A1F580115CBF41EA0C01BF
:1046F000B0BD4CEA05510020B0BD05EA1357AC42ED
:1047000014BFAF4241E050EA410E1CBF52EA430ED3
:1047100002E061460020B0BD24423C441BD15FEA68
:10472000070EF6D0090302BF01460020AEF1140EB9
:10473000B1FA81F7AEEB070401FA07FE0C37C7F1B7
:10474000200100FA07F7C8404EEA000E23EA45535D
:1047500043F48013A2E733F00043B3FA83F704BFB6
:10476000B2FA82FE77440B3FE41BB7F1200E2FBF55
:1047700002FA0EF3BB40C7F1200E22FA0EFE38BF3C
:1047800043EA0E03BA40641C82E750EA410E14BFAC
:1047900052EA430E6FF000014FF4001717EB430F7E
:1047A0008ABF194617EB410FB5E74CEA05510020C7
:1047B000B0BDD4F10104B4F120070FDAC4F1200731
:1047C000520828BF42F0010210FA07F501FA07F774
:1047D000E1BF2A43E0403843E1400FE0352C98DC4C
:1047E000C7F1200452EA400220FA07F218BF42F053
:1047F000010231FA07F0A1400A43002172F10042A0
:1048000050F1000051EB0C01B0BD00004FEAF17C0B
:10481000BCF1E04C2CBFBCF5001F11E05FEA4C0C72
:1048200034BFBCF17F5F2EE05FEA9C0C4FEA0C1CAA
:104830004FEA3C0CC10071F100414CEB50707047E5
:10484000C90241EA5051C00218BF41F0010141F0D4
:1048500000414FEA6C50C0F10900212810D240EA13
:10486000CC7CCCF1200C11FA0CF070F10040CCF1B2
:10487000200C21FA0CF00CF0004C40EB0C007047BF
:104880004FEACC707047490011F5001F04D84FEA79
:10489000CC10FF30C0057047C817704730B40023F4
:1048A00000220AE00C78012595402C4204D0012416
:1048B000D2F10705AC402343521C082AF2DB0370F7
:1048C00030BC704730B4002300220AE00C88012578
:1048D00095402C4204D00124D2F10F05AC40234373
:1048E000521C102AF2DB038030BC704770B582B0D6
:1048F00004000D004FF6FF70ADF8000048F2050609
:1049000000208DF802002800451E002826D02078BF
:104910008DF80200641C0DF102010DF10200FFF799
:10492000BDFFBDF800009DF8021090EA0120ADF82F
:104930000000002005E0BDF800104900ADF80010AF
:10494000401C0828DFDABDF800100904F3D5BDF8D3
:10495000001096EA4101ADF80010F1E7694668469B
:10496000FFF7B0FFBDF8000076BD0000820707D05A
:1049700010F8012B11F8013BBAB19A42F6D014E0BD
:1049800002680B689A42A2F1013301BF934313F00E
:10499000803F50F8042F51F8043FF3D010F8012B5A
:1049A00011F8013B0AB19A42F8D0D01A70470000C2
:1049B000010040F10980F446404200F005F851F052
:1049C00000416047010000BF09D0B0FA80F1884083
:1049D000C91CC1F58461090501EBD0214005704770
:1049E000F0B44FF0004591EA030C44BF6B4004F073
:1049F000D3BC00BF841A71EB030603D2001BB14184
:104A0000121973414FF4001C1CEB410F34BF7CEBB7
:104A1000430443E00C0DA4EB1356352E50DC45EA5D
:104A2000C323DB0A45EAC121C912B6F120050DDD19
:104A300063FA05F6EB4086EA0305124218BF45F01B
:104A40000105C01851F100010CD213E062FA06F51D
:104A5000F2405540F3415A40B340F3405A40801869
:104A6000594107D349085FEA30005FEA350528BF9E
:104A700045F0010501F58011420875F1004250F141
:104A8000000041EB0451F0BC4FF4001C1CEB410F43
:104A900038BF70470020090D090570471CEB410F16
:104AA00010D252EA43060BD0BCEB410F05D80C0DD7
:104AB000AB43661E342EB5DD02E0AB43801859418E
:104AC000F0BC7047F0BC7047F446400D40EAC1208E
:104AD000490006D200F014F8004248BF6FF00040D1
:104AE000604700F00DF84FF0004188428CBF084647
:104AF00040426047400D40EAC120490080F00D80EF
:104B000040F00040490DA1F58061491C05D4D1F168
:104B10001F0154BFC840C01770474FF000007047D6
:104B20002DE9F8452DED088B0FB486B040F2FF71EA
:104B300007989DED080B8DED040BC0F30A508842D9
:104B400008D107980024000305BF06980028022515
:104B5000012512E0012807DA06A804F0D3FC012899
:104B600002DB0024002508E0079A40F2FE3161F3E1
:104B70001E520792441A4FF0FF35002104A804F09A
:104B8000E2FC1A9F06460FB10020388036B9DDE9F5
:104B900008230020002104F013FD12D0002D13D5AE
:104BA00024B2012C15D1DDE906230020DFF88C1397
:104BB00004F006FD05D0012E0BD1DF4904F000FD05
:104BC0003ED10AB0CD49E8E1022D04D1DDE906016C
:104BD000E2E1012E6FDB022E08BFDDE9080100F0E3
:104BE000DB81012D2AD107980028099806D40028D6
:104BF00054BF9FEDD50B9FEDD60BCBE100280ED413
:104C000056B94FF0FF3104A804F09DFC002848BFBE
:104C10009FEDD10B00F1BE819FEDCB0BBAE156B9F0
:104C20004FF0FF3104A804F08EFC002848BF9FED30
:104C3000B40B00F1AF819FEDC60BABE1012E11D19A
:104C40000998002824B206D4012CACBF9FEDBE0BFE
:104C50009FEDBF0B9EE1012CACBF9FEDBD0B9FED07
:104C6000BA0B97E10998002810D466B94FF0FF31CC
:104C700004A804F068FC002842BF079800289FEDB4
:104C8000A00B00F187819FEDB20B83E104F0A8FC3B
:104C90002221016066B94FF0FF3104A804F053FCF3
:104CA000002842BF079800289FEDAB0B00F17281EE
:104CB0009FEDA50B6EE10798002848BF002E0CD58C
:104CC00004F08EFC212101600AB04FF0FF30BDECF2
:104CD000088B6FF00041BDE8F485DDE90601002294
:104CE000002304F083FC38BF002509D381F0004184
:104CF000CDE906014FF0FF3104A804F024FC05467D
:104D0000012C13D1DDE906017F4A804BFFF716F92C
:104D10000CD2DDE9062300204FF08041FFF7A4FC10
:104D2000CDE9060100269FED7A8B1CE0DDE9062324
:104D300000207949FFF798FC9FED788B53EC182BF6
:104D4000FFF74EFEFFF7C0FEA0F120063046FFF74A
:104D50002FFE0022734BFFF787FC53EC182BFFF755
:104D60003FFE41EC180B0FF2582000EB461ADDE92C
:104D7000060153EC182B04F005FBDDE9062341EC9A
:104D8000190B51EC180BFFF72BFE02460B4651ECAA
:104D9000190B04F043FC41EC1A0B53EC1A2BFFF7F0
:104DA00063FC41EC1B0B8DED069B04F063FD53ECA3
:104DB0001B2BFFF759FCDDE9062304F0E3FA064656
:104DC000884600204D4953EC182B04F0DBFA0022F2
:104DD0004FF08043FFF748FC32464346FFF700FEA2
:104DE00053EC1A2BFFF740FCDDE90623FFF7F8FD33
:104DF00041EC180B4C4A4D4B04F010FCCDE904017A
:104E00002046FFF7D5FD41EC190BDAE9000153EC20
:104E1000192BFFF7E5FDDDE90423FFF7E1FDCDE9FF
:104E20000401DDE90823FFF71FFCCDE902010022A0
:104E30003F4BFFF783F8C0F0938001223D4B04F015
:104E4000D5FB40F2918000220023FFF777F8DDE9DF
:104E5000022339BF0020384900203849FFF7C0FD40
:104E6000FFF732FE0446DDE9080153EC182BFFF78B
:104E7000FBFBCDE90201DAE90223DAE90401FFF7DD
:104E8000AFFDDDE90823FFF7EFFB9FED2D8B53EC22
:104E9000182BFFF7E9FBDDE90223FFF7A1FDCDE9C0
:104EA0000201DAE9002351EC190BFFF799FDDDE966
:104EB0000823FFF7D9FB064688462046FFF778FD12
:104EC00002460B463046414604F05CFA53EC182B80
:104ED000FFF7CAFBDDE90223FFF782FDCDE90201FE
:104EE0000FB13C80002400940022044B02A804F07F
:104EF00019FDA8B3012837D042E000BF0000F03F01
:104F00000000000000000080CD3B7F669EA0E63FD1
:104F1000000000000000F03F0000504000000000D2
:104F20000000E03F0000903FEF39FAFE422EE63FDE
:104F30000000E0C00000E0400000E0BF0000E03FF3
:104F4000EF39FAFE422EE63F000000000000F07F3D
:104F50000000000000000000000000000000F0FF62
:104F60000020CDE9020007E00020014902E000BF77
:104F70000000F07FCDE9020104F032FB2221016044
:104F8000002D1DBFDDE9020181F0004141EC100B55
:104F90009DED020B51EC100B0AB0BDEC088BBDE887
:104FA000F48580B50020009053EC112B51EC100BD0
:104FB000FFF7B6FD41EC100B01BD00000000000042
:104FC000000000000000F0BF0000000000000080B2
:104FD0000000000000000080000000000000000051
:104FE000000000C05294EEBF00000048204E51BEA9
:104FF000000000F86467BCBC000000000000000076
:10500000000000208133EDBF00000080B3DB14BE40
:10501000000000506706A3BC000000000000000074
:10502000000000D0E9DCEBBF00000008C39259BECD
:1050300000000080B0D3B8BC0000000000000000F9
:1050400000000070F98FEABF000000C0A51028BE64
:10505000000000E8BFC0B0BC00000000000000007D
:1050600000000070284CE9BF00000060134B42BEF6
:10507000000000C03D20B8BC00000000000000009F
:1050800000000050FA10E8BF000000C05FF62BBE21
:10509000000000905C71A7BC000000000000000050
:1050A00000000020FCDDE6BF000000C0F8F154BEA7
:1050B00000000018E9F6B9BC000000000000000084
:1050C000000000D0C3B2E5BF00000070E43254BE5F
:1050D00000000050DB06B4BC00000000000000002F
:1050E00000000010EF8EE4BF00000020F36252BE0B
:1050F000000000C02A879ABC0000000000000000E9
:10510000000000B02272E3BF000000F0E8E056BEED
:1051100000000028352DBDBC00000000000000008C
:10512000000000000A5CE2BF000000B0FA8E41BE41
:1051300000000040AE6FBDBC000000000000000099
:1051400000000000564CE1BF000000F015CD5FBE2E
:1051500000000000141C90BC0000000000000000D3
:1051600000000040BD42E0BF00000030F93457BEEF
:10517000000000E06C1E93BC000000000000000076
:10518000000000E0F57DDEBF000000B08A535EBE87
:1051900000000080DA77AABC0000000000000000D8
:1051A000000000C09D81DCBF00000000FFA226BE01
:1051B0000000006057E2B0BC0000000000000000EA
:1051C00000000060F98FDABF000000580A8151BE6C
:1051D000000000F05F60B8BC0000000000000000AC
:1051E0000000000098A8D8BF000000607A7F45BE8C
:1051F000000000D05433A3BC0000000000000000F9
:10520000000000600FCBD6BF000000D091CB40BEA5
:10521000000000406D1BA0BC00000000000000006A
:10522000000000A0FBF6D4BF00000098C5CE52BE1F
:10523000000000003A397EBC0000000000000000C1
:10524000000000E0FE2BD3BF0000004073872BBEA0
:1052500000000000926879BC00000000000000001F
:1052600000000040C069D1BF00000058F16353BE88
:1052700000000080438D7CBC0000000000000000A6
:1052800000000080D85FCFBF000000181F8354BE0D
:10529000000000B03F42A2BC00000000000000007F
:1052A0000000008067FCCBBF00000060FAFF53BE27
:1052B00000000050E00DB8BC00000000000000003D
:1052C0000000000098A8C8BF000000607A7F35BECB
:1052D000000000C0543393BC000000000000000038
:1052E00000000000DC63C5BF00000058D6FF54BEBC
:1052F00000000000396490BC0000000000000000C5
:10530000000000C0AD2DC2BF00000080A45915BE32
:10531000000000E0484BABBC0000000000000000B3
:10532000000000801A0BBEBF00000050BF3C5ABEF8
:10533000000000A0B364B6BC000000000000000044
:105340000000008004D6B7BF00000040BBCF36BECF
:105350000000008076CEA8BC000000000000000025
:105360000000008032BBB1BF000000402A0043BEF5
:1053700000000028C60CBDBC0000000000000000BA
:10538000000000009473A7BF000000182B3B59BE1B
:10539000000000C0E55DA5BC0000000000000000AA
:1053A00000000000EE4397BF000000A0E6C340BE2F
:1053B00000000020958DB5BC00000000000000003A
:1053C00000000000000000800000000000000080DD
:1053D000000000000000008000000000000000004D
:1053E00080B5DFF8E003DFF8E01308604FF4827067
:1053F000DFF8D41348600020DFF8CC138860002069
:10540000DFF8C413C8600220DFF8BC130861012074
:10541000DFF8B41348614FF40070DFF8AC13886113
:105420000820DFF8A413C8610020DFF89C1308628D
:105430000020DFF8941348620020DFF88C138862A4
:105440000A20DFF88413C862DFF87C0304F0CEFB87
:1054500001BD00B587B00068DFF8681388425AD1F3
:1054600000200090DFF86403006850F48040DFF80B
:105470005C130860DFF85403006810F4804000906B
:10548000009800200090DFF84803006850F4807016
:10549000DFF83C130860DFF83803006810F4807010
:1054A0000090009800200090DFF82403006850F07E
:1054B0000400DFF81C130860DFF81403006810F024
:1054C0000400009000980A2001900220029002201F
:1054D00004900520059001A9DFF8F802FEF746FDCB
:1054E00004200190022002900020039005200590E6
:1054F00001A9B948FEF73AFD01220121B548FEF79E
:105500002BFE01200190012002900520059001A9A9
:10551000B048FEF72BFD07B000BD10B5040000F049
:105520002BF900F038F900220121AA48FEF714FEF9
:10553000202000F00BF9200CC0B200F007F9200A7F
:10554000C0B200F003F92000C0B200F0FFF8012261
:105550000121A048FEF700FE00F01DF910BD70B556
:1055600004000D00160000F007F9002201219948FF
:10557000FEF7F2FD022000F0E9F8280CC0B200F0BE
:10558000E5F8280AC0B200F0E1F82800C0B200F047
:10559000DDF8B6B2B6F5807F06DD4FF4807603E025
:1055A000207800F0D3F8641C3000461E80B200283A
:1055B000F6D1012201218748FEF7CEFD00F0EBF87D
:1055C00070BD2DE9F04105000C0000275FF00008D8
:1055D0000020002600274FF48071B4FBF1F000FB9F
:1055E0001140464292B24FF4807192FBF1F792B2B1
:1055F0004FF4807192FBF1F808FB1128C0B200282B
:1056000020D1FFB2002F0FD192B221002800FFF766
:10561000A6FF70E04FF4807221002800FFF79FFF83
:1056200014F5807415F580753800471EC0B2002847
:10563000F0D15FFA88F8424692B221002800FFF7C5
:105640008EFF58E0FFB2002F1FD1F6B25FFA88F844
:10565000464514D2B8EB0607F6B2320092B22100EA
:105660002800FFF77CFF54FA86F4F6B27519FFB2F2
:105670003A0092B221002800FFF771FF3BE092B29E
:1056800021002800FFF76BFF35E0F6B2921B92B2C3
:105690004FF4807092FBF0F792B24FF4807092FB5F
:1056A000F0F808FB1028F6B2320092B22100280070
:1056B000FFF755FF54FA86F4F6B2751909E04FF476
:1056C000807221002800FFF74AFF14F5807415F559
:1056D00080753800471EC0B20028F0D15FFA88F804
:1056E000B8F1000F07D05FFA88F8424692B2210065
:1056F0002800FFF734FFBDE8F08170B504000D000D
:105700001600002201213348FEF726FD032000F099
:105710001DF8280CC0B200F019F8280AC0B200F039
:1057200015F82800C0B200F011F804E0FF2000F0E6
:105730000DF82070641C3000461E80B20028F5D1A0
:10574000012201212348FEF707FD70BD00B583B09B
:105750008DF805007FF07F400090012301AA0DF134
:105760000501194804F089FA002802D0FF208DF8BD
:1057700004009DF804000EBD80B5002201211548EB
:10578000FEF7EAFC0620FFF7E1FF012201211148A4
:10579000FEF7E2FC01BD80B50020002201210D488A
:1057A000FEF7DAFC0520FFF7D1FFFF20FFF7CEFF61
:1057B000C0B2C007F9D4012201210648FEF7CCFC93
:1057C00001BD00000038004078330020403802401E
:1057D00030380240002002400008024010B50400AA
:1057E000002C01D1012014E094F93900002805D1E2
:1057F000002084F83800200004F0C9FB022084F85F
:105800003900211D206800F020FA012084F83900B9
:10581000002010BD022180F839100168096851F09C
:10582000010102681160012180F8391000207047E1
:10583000022180F839100168096A41F211121142FF
:105840000BD10168096A40F24442114205D1016856
:1058500009684908490002681160012180F839107F
:10586000002070470168C96851F001010268D160E9
:105870000168096851F0010100680160002070476B
:1058800010B50400002C01D1012014E094F9390076
:10589000002805D1002084F83800200000F00CF822
:1058A000022084F83900211D206800F0CEF9012083
:1058B00084F83900002010BD704710B504000800BE
:1058C000002806D004280BD0082810D00C2815D0AA
:1058D0001BE02068C06850F002002268D06014E02D
:1058E0002068C06850F004002268D0600DE0206895
:1058F000C06850F008002268D06006E02068C068E8
:1059000050F010002268D060FFE70122206800F00C
:1059100049FA2068DFF83810884204D02068DFF8A0
:105920003410884201D1012000E00020C0B20028DC
:1059300005D02068406C50F400402168486420681D
:10594000006850F0010021680860002010BD0000D0
:10595000000001400004014010B504002068006907
:1059600080071AD52068C068800716D57FF002002E
:1059700021680861012020762068806910F0030FFB
:1059800003D0200000F05EF905E0200002F0A0FD49
:10599000200000F058F900202076206800694007B8
:1059A0001AD52068C068400716D57FF0040021682A
:1059B0000861022020762068806910F4407F03D0BF
:1059C000200000F03FF905E0200002F081FD2000FA
:1059D00000F039F9002020762068006900071AD508
:1059E0002068C068000716D57FF0080021680861AC
:1059F000042020762068C06910F0030F03D0200037
:105A000000F020F905E0200002F062FD200000F027
:105A10001AF90020207620680069C0061AD520688F
:105A2000C068C00616D57FF0100021680861082004
:105A300020762068C06910F4407F03D0200000F079
:105A400001F905E0200002F043FD200000F0FBF822
:105A50000020207620680069C0070AD52068C06849
:105A6000C00706D57FF0010021680861200002F020
:105A7000D9FC2068006900060AD52068C0680006C5
:105A800006D57FF0800021680861200004F016FB35
:105A90002068006940060AD52068C068400606D51F
:105AA0007FF0400021680861200000F0CDF82068F8
:105AB000006980060AD52068C068800606D57FF098
:105AC000200021680861200004F0F7FA10BD10B52D
:105AD000040094F93800012801D1022025E00120BA
