:020000040800F2
:10000000F011002001D7000885C1000887C1000851
:1000100095C10008A3C10008B1C10008000000009C
:10002000000000000000000000000000BFC1000848
:10003000C1C1000800000000C3C10008D1C1000810
:10004000ADD70008B1D70008B5D70008B9D7000868
:10005000BDD70008DDC10008C1D70008C5D700081A
:10006000C9D70008CDD70008D1D70008D5D70008D8
:10007000D9D70008DDD70008E1D70008E5D7000888
:10008000E9D70008EDD70008F1D70008F5D7000838
:10009000F9D70008FDD7000801D8000831C20008D0
:1000A00005D8000809D800080DD8000811D80008A4
:1000B00015D8000819D800081DD8000821D8000854
:1000C00025D8000829D800082DD8000831D8000804
:1000D00035D80008DFC1000839D80008E9C1000898
:1000E0001DC200083DD8000841D8000845D80008C6
:1000F00049D800084DD8000851D8000855D8000844
:1001000059D800085DD8000861D8000865D80008F3
:1001100069D800086DD80008F3C1000871D800083C
:1001200075D8000879D800087DD8000881D8000863
:1001300085D8000889D800088DD8000891D8000813
:1001400095D8000899D800089DD80008A1D80008C3
:10015000A5D80008A9D80008ADD80008B1D8000873
:10016000B5D80008B9D80008BDD80008C1D8000823
:10017000C5D80008C9D80008CDD800080000000084
:10018000D1D80008D5D80008BFF34F8FDFF8DC0ABC
:10019000006810F4E060DFF8D81A0843DFF8CC1AE2
:1001A0000860BFF34F8F00BFFDE780B5DFF8C40ADA
:1001B00003F016F9002000F073F9012000F070F947
:1001C000022000F06DF9032000F06AF9042000F02D
:1001D00067F9052000F064F9062000F061F90720B6
:1001E00000F05EF90020DFF8901A08700020DFF8B8
:1001F0008C1A08700020DFF8881A08700020DFF8D9
:10020000841A08704FF47A730122A0A1DFF8780AEB
:1002100003F033F901BD38B5DFF8700A03F0E0F8F8
:10022000002400259AA1DFF8680A03F0CFFC04003F
:1002300097A1002003F0CAFC05002A002100DFF886
:10024000540A03F0CDF894F900003138052805D39D
:1002500094F90010DFF8400A03F0C2F88DA12800DD
:1002600003F0DAFC002804D194F9000001F02AFC24
:100270000FE089A1280003F0CFFC002804D194F9F5
:10028000000001F0F9FA04E02900DFF8100A03F099
:10029000A7F831BD2DE9F047ADF5BC6DDFF8000AD8
:1002A00003F09EF8FAA84FF4FA7103F0DBFC5FF05C
:1002B000000A002400255FF0000868464FF47A71B8
:1002C00003F0D0FC00265FF030090127DFF8C019E9
:1002D000684603F0CBFC684603F0EAFC8046B8F1C0
:1002E0000B0FC0F2CE80002000F0DAF8012000F001
:1002F000D7F8022000F0D4F8032000F0D1F8042051
:1003000000F0CEF8052000F0CBF8062000F0C8F889
:10031000072000F0C5F80020DFF85C190870002005
:10032000DFF8581908700020DFF854190870002011
:10033000DFF8501908700020DFF86819087057A11D
:10034000684603F043FC8246BAF1000F78D0761C71
:100350005146FAA803F08AFC9DF9E893504603F051
:10036000A7FC45196D1C4DA16846281803F02EFC0A
:100370008246454501DB5FF0000A4FFA89F9B9F181
:10038000300F10D043D3B9F1320F18D011D3B9F1D7
:10039000340F20D019D3B9F1360F2CD021D3B9F1B5
:1003A000370F2ED033E0FAA9002000F09DFC0400A6
:1003B00035E0FAA9012000F097FC04002FE0FAA92B
:1003C000022000F091FC040029E0FAA9032000F0CB
:1003D0008BFC040023E0FAA9042000F085FC040053
:1003E0001DE0FAA9052000F07FFC04000120DFF8E1
:1003F000B418087013E0FAA9062000F075FC040098
:100400000DE0FAA9072000F06FFC040007E00027C8
:100410004FFA89F94946DFF8900802F0E1FF14F13C
:10042000010F91D14FFA89F94946DFF8800802F0AF
:10043000D7FFFFF7BAFE0120DFF87418087020E03C
:10044000012E0FDB002F0DD0DFF8680802F0C8FF87
:100450000120DFF8301808700020DFF85418087009
:1004600002F07CFD312001F02DFB322001F02AFB4F
:10047000332001F027FB342001F024FB352001F06C
:1004800021FB0DF5BC6DBDE8F08700005B000000AE
:100490002C00000030000000310000003B00000094
:1004A00038B5040000250020052C40F0B980002458
:1004B000AEE01E210022DFF800084FF4BC7303FBFE
:1004C0000405280003F010FC0020DFF8EC174FF4BF
:1004D000BC7202FB041188770020DFF8DC174FF4B0
:1004E000BC7202FB041108625FF0FF30DFF8C8172E
:1004F0004FF4BC7202FB041188620020DFF8B817C9
:100500004FF4BC7202FB041148620020DFF8A81708
:100510004FF4BC7202FB041108644FF47A70DFF8E8
:1005200098174FF4BC7202FB0411C1F858010A215C
:100530000022DFF884074FF4BC7303FB040010F5BE
:10054000A475280003F0D0FB0020DFF86C174FF4EF
:10055000BC7202FB0411C1F85C0178210022DFF8B3
:1005600058074FF4BC7303FB040010F1BC052800CE
:1005700003F0BAFB0A210022DFF83C074FF4BC73FA
:1005800003FB040010F59F75280003F0ADFB7821F4
:100590000022DFF824074FF4BC7303FB040010F1C2
:1005A0004405280003F0A0FB0A210022DFF8080719
:1005B0004FF4BC7303FB040010F14405280003F062
:1005C00093FB0020DFF8F0164FF4BC7202FB04111D
:1005D000C1F86001DFF8E0064FF4BC7101FB0400D4
:1005E00000220023C0E95A23DFF8CC064FF4BC7187
:1005F00001FB040000220023C0E95C230020DFF897
:10060000B8164FF4BC7202FB0411C1F85401641C0B
:10061000052CFFF64EAFDFF8A40602F0E1FE7EE007
:10062000062C00DB641EDFF89806482101FB04005D
:1006300000220023C0E90623DFF88406482101FBDD
:10064000040000220023C0E904230020DFF8701614
:10065000482202FB041108600020DFF864164822DB
:1006600002FB04110863DFF85806482101FB04006F
:1006700000220023C0E90823DFF84406482101FBDB
:10068000040000220023C0E90A230020DFF830160E
:10069000482202FB04114864DFF82406482101FBCC
:1006A0000400002141630020DFF81416482202FBF9
:1006B000041188630620DFF80816482202FB0411A3
:1006C000C8630020DFF8F815482202FB041181F806
:1006D00040000020DFF8E815482202FB041181F8F1
:1006E0004100DFF8DC05482101FB0400456C002DCA
:1006F00010D0D5F894500020DFF8C415482202FB32
:100700000411486404E02800D5F8945004F00BFB71
:10071000002DF8D12100DFF8AC0502F061FE31BDFB
:10072000F8B52DED028B94B0DFF89C0502F058FE71
:100730000FA8142103F096FA9FED6D8A002600247D
:10074000002702A8342103F08DFA00254FF47A73B4
:10075000012268A1DFF8300502F08FFE00240BE0D3
:10076000DFF85C05482101FB040090F84110DFF838
:100770005C0502F035FE641C072C80F2A980DFF8CE
:100780004005482101FB040000680128F3DBDFF885
:100790003005482101FB0400456CDFF834052821B1
:1007A00001FB04000668052E00DB761CDFF810054F
:1007B000482101FB040090F841000028D0D1DFF867
:1007C0001005282101FB040090ED098A009618EE1F
:1007D000100A04F035FD02000B00DFF8F81402A83F
:1007E00004F056FD009618EE100A04F029FD0200F0
:1007F0000B00DFF8E40402F0F3FD02A803F058FA5E
:1008000002004FF47A7392B202A9DFF87C0402F07E
:1008100034FE052C15D118EE100A04F011FD02006B
:100820000B00DFF89C04482101FB040041690069CA
:1008300004F048FD05D8DFF8A40402F0D1FD00F073
:100840009DFF002707E095F890202900DFF890042D
:1008500002F0C6FD7F1CDFF86804482101FB04009C
:100860000068874287DA95F890000028EBD195ED73
:10087000148A29000FA803F0F9F90190009618EEE8
:10088000100A04F0DDFC02000B00DFF8581402A887
:1008900004F0FEFC0FA80190009618EE100A04F078
:1008A000CFFC02000B00DFF8640D02F099FD02A8F6
:1008B00003F0FEF94FF47A73020092B202A9DFF856
:1008C000C80302F0DAFD00202865D5F89450C1E78E
:1008D0004FF47A73012208A1DFF8AC0302F0CDFDDA
:1008E000DFF82C0D02F07CFD14B0BDEC028BF1BDE5
:1008F0000000000023000000250000002DE9F8435F
:100900002DED028B8AB000265FF000099FEDD58A9D
:100910005FF00008002505A8142103F0A3F902A840
:100920000021002200230EC00C380027DFF8E40C61
:1009300002F056FD00244EE0DFF88403482101FB5D
:10094000040090ED000AB8EEC00A88EE008A18EEA6
:10095000100A04F075FC02000B00DFF8BC1C02A8B2
:1009600004F096FC02A804F0C4FC51EC100B04F057
:10097000C9FCD349482202FB0411886002A804F094
:10098000B8FC51EC100B04F0BDFCD149282202FB4D
:1009900004114862CA48482101FB0400806B00280A
:1009A00005D1C748482101FB040080ED0D8AC448E9
:1009B000482101FB0400806B401C032190FBF1F2F5
:1009C00001FB1200BE49482202FB04118863002586
:1009D0009FEDA48A641C072C80F23F819FEDA18AC1
:1009E000B748482101FB0400466C002E1BD1F1E7FB
:1009F0000020306596ED140AB5EE400AF1EE10FACB
:100A000003DD96ED140A38EE008A706D804502DA37
:100A1000D6F85480B146706D4519002070650020ED
:100A2000B065D6F89460002E00F08E80B06D019015
:100A3000706D0090306D04F003FC02000B00611C2F
:100A4000DFF8340D02F0CCFCB06D716D0818012890
:100A500035DBB06D002802D0706D15282FDBDFF874
:100A6000440D306596F89000032819DB32007EA112
:100A700005A804F00DFC05A803F01AF94FF47A73E9
:100A8000020092B205A9804802F0F7FC3200210072
:100A9000DFF8140D02F0A4FC002086F890000CE0B2
:100AA00096F89000401C86F8900096F8903032003E
:100AB0002100DFF8F80C02F093FC7F1C9AE7B06D80
:100AC000012895DB96ED160AB8EEC00AD6ED140A99
:100AD00080EE800A86ED140A306D04F0B1FB02004E
:100AE0000B007748482101FB0400416A006A04F0CA
:100AF00051FC0CD3306D04F0A3FB714A482303FB77
:100B00000422D36A926A04F045FCBFF473AF6C48C8
:100B1000482101FB040090F8400000280BD16848F0
:100B2000482101FB0400006B401C6549482202FB80
:100B3000041108635EE732002100DFF8280D02F09F
:100B40004FFC00F01BFE55E75D48482101FB040007
:100B5000006B5B49482202FB04110968884206D0F9
:100B60005748482101FB0400006B03280CDB544864
:100B7000482101FB0400026B2100DFF8EC0C02F0BD
:100B80002FFC00F0FBFD49E04D48482101FB04002B
:100B9000006887423DD14A48482101FB040090F893
:100BA000410003281CDB2100DFF8C00C02F018FC18
:100BB00000F0E4FD40484249482202FB0411C96BA1
:100BC0004FF4BC7202FB010090F91E0000F0F0FD32
:100BD00000203B49482202FB041181F841001DE03E
:100BE0003748482101FB040090F84100401C34497B
:100BF000482202FB041181F841003148482101FBE1
:100C0000040090F841202100DFF8640C02F0E8FBBA
:100C100004E02100DFF85C0C02F0E2FB002700207A
:100C20002749482202FB041108632948282101FBB7
:100C3000040004600B2DFFF67FAE2548282101FB40
:100C40000400DFF8441D416249462148282202FB86
:100C50000400001D03F00AF89CE60AB0BDEC028B0C
:100C6000BDE8F18300000000212573000CED00E0D9
:100C70000400FA0544D300086B3400206C340020D3
:100C80007734002066340020C032002060D3000892
:100C900048290020CCCD0008F0CD000820CC000869
:100CA00024D100086734002044D1000864D1000832
:100CB000783400207CD30008F021002084D1000883
:100CC000302D002014CE000814D50008C0CA00083A
:100CD0000031002010D7000898D3000890D60008F3
:100CE00080C800081CD700082DE9F8432DED068BBD
:100CF000ADF50C7D040088465FF0000900256846CC
:100D00004FF40C7102F0AEFF0026002600250020F3
:100D10009FEDA28B9FEDA19B9FEDA08B9FED9FABC5
:100D20000027A0A1404602F051FF814609E09DA1A5
:100D3000002002F04BFF81466846F6B240F826904C
:100D4000761CB9F1000FF2D1F6B20A2E0CDA052C9E
:100D50000AD0F6B232002100DFF8300C02F040FB7E
:100D60005FF0FF3000F04ABC052C40F07182009823
:100D700004F027FB050000264EE0DFF8402D4FF47D
:100D8000BC7303FB072212EB81026B46F6B25FF0E5
:100D9000050C0CFB06FC13EB8C031B69CB56303B9C
:100DA0009362DFF8182D4FF4BC7303FB072212EB9C
:100DB0008102926A062A12DBDFF8002D4FF4BC7321
:100DC00003FB072212EB8102DFF8F03C4FF4BC7CFE
:100DD0000CFB073313EB81039B6A5B1E9362DFF806
:100DE000F82DDFF8D83C4FF4BC7C0CFB073313EB39
:100DF00081039B6A5FF0480C0CFB0322D763491CFC
:100E0000C0B28142B9DB0020DFF8B01C4FF4BC72E5
:100E100002FB07110862761CF6B2EDB2AE4280F01A
:100E200015826846F6B2052101FB06F110EB810040
:100E3000806890F90000B0F131076846F6B20521EC
:100E400001FB06F110EB81004168DFF8700C4FF4F4
:100E5000BC7202FB070002F009FF6846F6B20521EA
:100E600001FB06F110EB810080680078DFF84C1C74
:100E70004FF4BC7202FB07118877DFF8400C4FF487
:100E8000BC7101FB070090F91E00313804280FD314
:100E9000DFF8280C4FF4BC7101FB070090F91E200D
:100EA0002100DFF81C0C02F09BFA5FF0FF30A5E395
:100EB0006846F6B2052101FB06F110EB810040699E
:100EC00004F017FADFF8F40B4FF4BC7101FB0700D4
:100ED00080ED5C0BDFF8E40B4FF4BC7101FB070005
:100EE000D0F87411D0F870010022002304F052FAF7
:100EF0000FD3DFF8C80B4FF4BC7101FB0700D0F82B
:100F00007411D0F870010122DFF8D03C04F0DAF956
:100F10000FD8DFF8A80B4FF4BC7101FB0700D0E934
:100F20005C232100DFF8B80C02F05AFA5FF0FF30C2
:100F300064E36846F6B2052101FB06F110EB81007F
:100F4000C06804F03EFADFF8741B4FF4BC7202FB79
:100F500007110864DFF8640B4FF4BC7101FB070054
:100F6000006C05283FF457AFDFF8500B4FF4BC710D
:100F700001FB0700006C401E072815D3DFF83C0B6F
:100F80004FF4BC7101FB0700026C2100DFF8A40CD8
:100F900002F026FA5FF0FF3030E300BF00000000EF
:100FA000000000002C000000DFF8100B4FF4BC71B3
:100FB00001FB0700006C042870D16846F6B20521D9
:100FC00001FB06F110EB8100006902F071FEE2A165
:100FD0006846F6B2052202FB06F210EB82000069B9
:100FE00002F0F4FD80465FF00109002088F805005A
:100FF0004146DFF8C80A4FF4BC7202FB070010F547
:101000009A7002F033FE18F10601DFF8B00A4FF4CF
:10101000BC7202FB070010F59F7002F027FE4146EC
:10102000DFF8980A4FF4BC7202FB0700443002F06C
:101030001DFE18F10601DFF8840A4FF4BC7202FBB2
:101040000700BC3002F012FEB8F1000F3FF4DBAE37
:10105000C1A1002002F0BAFD8046002088F80500FA
:101060004146DFF8580A4FF4BC7202FB07000A221F
:1010700002FB0900443002F0F9FD18F10601DFF827
:101080003C0A4FF4BC7202FB07000A2202FB090073
:10109000BC3002F0EBFD19F10109D5E7DFF81C0ABD
:1010A0004FF4BC7101FB0700006C03282FD1684688
:1010B000F6B2052101FB06F110EB81000069002169
:1010C00041716846F6B2052101FB06F110EB810083
:1010D0000169DFF8E8094FF4BC7202FB070010F564
:1010E000A47002F0C3FD6846F6B2052101FB06F1CB
:1010F00010EB81000069811DDFF8C0094FF4BC725C
:1011000002FB070010F59F7002F0B0FD7BE6DFF8F0
:10111000AC094FF4BC7101FB0700006C062874D1C8
:10112000E0A16846F6B2052202FB06F210EB82004F
:10113000006902F04BFD8146484602F0B9FDC0B29D
:10114000082809DBC0B202002100DFF89C0C02F085
:1011500047F95FF0FF3051E2C0B2DFF860194FF499
:10116000BC7202FB0711486200213AE0DFF84C290B
:101170004FF4BC7303FB072212EB810211F9093013
:10118000303B9362DFF834294FF4BC7303FB072232
:1011900012EB8102926A062A12DBDFF820294FF453
:1011A000BC7303FB072212EB8102DFF810394FF406
:1011B000BC7C0CFB073313EB81039B6A5B1E9362C1
:1011C000DFF8142ADFF8F4384FF4BC7C0CFB07334B
:1011D00013EB81039B6A5FF0480C0CFB0322D7637F
:1011E000491CC0B28142C1DBAEA1002002F0EEFC7E
:1011F0008146484604F07DF8DFF8C0084FF4BC7122
:1012000001FB070080ED5A0BFDE56846F6B20521AB
:1012100001FB06F110EB8100006902F049FDC0B24C
:10122000082809DBC0B202002100DFF8BC0B02F085
:10123000D7F85FF0FF30E1E1C0B2DFF880184FF47B
:10124000BC7202FB071148620021D9E50020D5E1FC
:10125000062C00DB641EDFF88009482101FB040036
:101260004460009804F0ADF8DFF86C19482202FBE6
:1012700004110860DFF86009482101FB04000068E0
:10128000001E0B280DD3DFF85009482101FB040094
:1012900002682100DFF8540B02F0A2F85FF0FF3083
:1012A000ACE10021019804F090F8B0EE408AF0EE35
:1012B000608A0021029804F088F8B0EE409AF0EEBF
:1012C000609A51EC190B53EC182B04F063F80BD215
:1012D0008DED008B53EC192B2100DFF8480C02F048
:1012E0007FF85FF0FF3089E1DFF8EC08482101FB6F
:1012F000040080ED048BDFF8E008482101FB0400C6
:1013000080ED069B0021049804F05FF8B0EE408A5F
:10131000F0EE608A0021039804F057F8B0EE40AA7E
:10132000F0EE60AA51EC190B03F0ECFFDFF8F81BAC
:10133000086051EC180B53EC1A2B04F02BF80DD26B
:101340008DED00AB53EC182B2100DFF8E00B02F021
:1013500047F85FF0FF3051E12E000000AAA1059888
:1013600002F05AFC002807D10120DFF86C1848224F
:1013700002FB041181F84000DFF85C08482101FB02
:10138000040080ED088BDFF85008482101FB0400C1
:1013900080ED0AAB0020DFF84018482202FB041160
:1013A00008630020DFF83018482202FB041148646B
:1013B000DFF82408482101FB0400002141630020DC
:1013C000DFF81418482202FB041188630020DFF8BC
:1013D0000818482202FB041181F8410000260EE0A3
:1013E000DFF8F407482101FB0400406CC5F89400C5
:1013F000DFF8E407482101FB04004564761CF6B2DF
:10140000DFF8D407482101FB04000068864280F21F
:10141000F480982003F02CFB05006846F6B2092101
:1014200001FB06F110EB81008169280002F01EFC2F
:101430006846F6B2092101FB06F110EB8100C16993
:1014400015F11E0002F012FC002809D115F11E0250
:101450002100DFF8E00A01F0C3FF5FF0FF30CDE0CC
:101460006846F6B2092101FB06F110EB8100016A22
:1014700015F15C0002F0FAFB6846F6B2092101FBA7
:1014800006F110EB8100406A03F09BFF0200101E82
:10149000332809D32100DFF8A00A01F0A1FF5FF093
:1014A000FF30ABE07C000000AA666846F6B2092176
:1014B00001FB06F110EB8100806A03F082FF011E40
:1014C0001F2908D3EA6E2100DFF8700A01F088FFB7
:1014D0005FF0FF3092E0E8666846F6B2092101FB52
:1014E00006F110EB8100C06A03F06BFF011E0A29B0
:1014F00008D32A6F2100DFF8480A01F071FF5FF07E
:10150000FF307BE028676846F6B2092101FB06F14F
:1015100010EB8100016B15F1740002F0A7FB684627
:10152000F6B2092101FB06F110EB8100406B03F0DC
:10153000E0FEB0EE408AF0EE608A51EC180B00221B
:10154000002303F027FF07D351EC180B0122DFF82B
:10155000F43903F0B7FE09D8D5E920232100DFF8DC
:10156000E80901F03DFF5FF0FF3047E085ED208B9B
:101570006846F6B2092101FB06F110EB8100806B91
:1015800003F0B7FEB0EE408AF0EE608A51EC180B23
:101590000022002303F0FEFE07D351EC180B0122BA
:1015A000DFF8A83903F08EFE09D8D5E922232100FF
:1015B000DFF89C0901F014FF5FF0FF301EE085EDBD
:1015C000228B00206865002028650020A865002087
:1015D00085F890000020C5F89400DFF8FC0548214C
:1015E00001FB0400406C00287FF4FAAEDFF8E80548
:1015F000482101FB0400456400E700200DF50C7D47
:10160000BDEC068BBDE8F28331000000A4D10008D8
:101610002CD50008C4D1000864D7000838B50024D0
:101620000025DFF8300901F0DBFE002410E0DFF8D0
:10163000280901F0D5FE00F0A1F8DFF880044FF48E
:10164000BC7101FB050090F91E0000F0B1F8641CAC
:10165000072C80F29080DFF88005482101FB040010
:10166000C56BDFF858044FF4BC7101FB0500006A3C
:101670000128ECD1DFF86005482101FB0400806BF4
:101680000228E4DBDFF834044FF4BC7101FB0500F1
:10169000006C0328DBDADFF84005482101FB040079
:1016A00090F841000228D2DADFF82C05482101FB2E
:1016B000040090ED020ADFF82005482101FB040038
:1016C000D0ED0D0A30EE600A10EE100A03F0B8FDFE
:1016D00031F00041DFF8202CDFF8203C03F05AFE07
:1016E000A5D3DFF8D8034FF4BC7101FB0500006CF3
:1016F000012819D1DFF8E004482101FB040090ED36
:10170000020ADFF8D404482101FB0400D0ED0D0AE1
:1017100030EE600AB5EE400AF1EE10FA04D5DFF8BB
:10172000E00B01F05DFE86E7E4484FF4BC7101FB7D
:101730000500006C022819D1DFF89C04482101FB48
:10174000040090ED020ADFF89004482101FB040038
:10175000D0ED0D0A30EE600AB5EE400AF1EE10FA57
:1017600004DDDFF8A40B01F03BFE64E7DFF89C0B1F
:1017700001F036FE6BE731BD44C2000880B5DFF8EA
:10178000900B01F02DFEDFF88C0B0088642808DA3E
:1017900001F048FD01F028FD4FF49670DFF8781B4A
:1017A000088001BD0AD723BCB8C50008ECCA0008F0
:1017B0003EB5040064B2B4F1310564B2B4F1310055
:1017C00005282DD2BD484FF4BC7101FB0500D0F8AF
:1017D0006001002824D164B22100DFF8400B01F041
:1017E000FFFD200040B200F06DF90120B3494FF435
:1017F000BC7202FB0511C1F8600164B22200DFF87F
:10180000201B684603F044FD684602F051FA4FF48D
:101810007A73020092B26946DFF8080B01F02DFEE0
:1018200037BD10B540B2B0F1310440B2B0F1310172
:10183000052916D2A1494FF4BC7202FB0411D1F85C
:10184000601101290DD140B20100DFF8DC0A01F07E
:10185000C7FD002099494FF4BC7202FB0411C1F886
:10186000600110BD38CE000848CC000840C5000813
:10187000B0C80008B4D300082DE9F0418EB00400D0
:1018800001A8342102F0EEF9012664B2B4F130056A
:1018900000275FF0000864B2312C07D024D3332C2A
:1018A00010D009D3352C19D012D31DE00821DFF850
:1018B0007C0A03F0C9FD1EE00821DFF8740A03F07A
:1018C000C3FD18E00821DFF86C0A03F0BDFD12E04B
:1018D0000821DFF8640A03F0B7FD0CE00821DFF807
:1018E0005C0A03F0B1FD06E0002664B22100DFF8D7
:1018F000500A01F075FD002E37D0052001F0BAFC2A
:1019000003F0DBFD070000F00DFFFFB2002F2FD02A
:10191000002E2AD00120009064B2230067484FF4C3
:10192000BC7101FB0500B0F5BC72DFF8181A01A804
:1019300003F0AEFC01A802F0BBF94FF47A73020089
:1019400092B201A9DFF8DC0901F097FD01205B49A3
:101950004FF4BC7202FB0511B1F5AC71086064B2C2
:101960002100DFF8DC0C01F03BFD0EB0BDE8F0819A
:1019700018F10108B8F1030F8DDB64B22100DFF824
:10198000C80D01F02DFDF0E700401CC65CCE00083C
:10199000F0B59FB00400002000260025002701A814
:1019A000142102F05FF9002206A9DFF8980C03F079
:1019B000A5FE9DF819309DF81820DFF88C1C01A8B1
:1019C00003F066FC01A9DFF8840D4FF4BC7202FB42
:1019D000040010F59A7002F049F900226946DFF818
:1019E000640C03F036FFDFF8640D4FF4BC7101FBAB
:1019F000040010F5A47101A802F038F98CA102F0DE
:101A0000E5F80BE001000BA8142202FB060002F02F
:101A10002DF987A1002002F0D9F8761C0028F1D119
:101A20000026DFF8280D4FF4BC7101FB040010F50F
:101A30009A7101A802F01AF97DA102F0C7F80BE033
:101A4000010015A8142202FB060002F00FF978A18C
:101A5000002002F0BBF8761C0028F1D11AA803F090
:101A6000B0FC060010A803F0ACFC87193C2F07DB84
:101A70003C2097FBF0F53C2097FBF0F100FB117741
:101A800015A803F09EFC06000BA803F09AFC801931
:101A90004519182095FBF0F100FB11553B002A0079
:101AA000DFF8A41BDFF8A40C4FF4BC7505FB0400A1
:101AB00010F59A7003F0ECFB1FB0F0BDF021002090
:101AC00070CC00082DE9F0418EB0040001A834214B
:101AD00002F0C8F8012664B2B4F1300500275FF0C7
:101AE000000864B2312C07D024D3332C10D009D392
:101AF000352C19D012D31DE00821DFF8540C03F067
:101B0000A3FC1EE00821DFF84C0C03F09DFC18E05C
:101B10000821DFF8440C03F097FC12E00821DFF8FD
:101B20003C0C03F091FC0CE00821DFF8340C03F0CE
:101B30008BFC06E0002664B22100DFF8280C01F0DF
:101B40004FFC002E39D0052001F094FB03F0B5FCCA
:101B5000070000F0E7FDFFB2002F31D0002E2CD09F
:101B60000020009064B22300DFF8E00B4FF4BC715A
:101B700001FB0500B0F5BC72DFF8C81701A803F03F
:101B800087FB01A802F094F84FF47A73020092B236
:101B900001A9DFF8900701F070FC0020DFF8AC1B12
:101BA0004FF4BC7202FB0511B1F5AC71086064B270
:101BB0002100DFF8B40B01F013FC0EB0BDE8F0819A
:101BC00018F10108B8F1030F8BDB64B22100DFF8D4
:101BD000F40C01F005FCF0E7302D00200088C34034
:101BE00018CB000800B587B0002201A9DFF8540A1D
:101BF00003F084FD00226946DFF8480A03F029FE5D
:101C00009DF802309DF801209DF8030010F5FA615F
:101C1000DFF8580B01F0E4FB9DF806309DF8052035
:101C20009DF80410DFF8A00C01F0DAFB07B000BD4E
:101C30003A00000044CB0008F8B504000026002557
:101C40000027611CDFF8840C01F0CAFBDFF8FC0AF6
:101C50004FF4BC7101FB0400456A002655E0DFF833
:101C6000EC0A4FF4BC7101FB040010EB8600876A9C
:101C7000DFF8D406482101FB0700806803F0E0FA92
:101C8000DFF8C426482303FB07225369126903F0D7
:101C900081FB12D2DFF8B40A4FF4BC7101FB0400DF
:101CA000006A002809D1DFF8A40A4FF4BC7101FBD7
:101CB000040090F91E00FFF7DFFDDFF88C064821D5
:101CC00001FB0700806803F0BBFA02000B00DFF89D
:101CD0007806482101FB0700C169806903F05AFBBF
:101CE00012D2DFF8680A4FF4BC7101FB0400006AED
:101CF000012809D1DFF8540A4FF4BC7101FB04003C
:101D000090F91E00FFF7DEFE761CAE42A7DBF1BDA8
:101D1000F8B50400002600250027611CDFF8B00B91
:101D200001F05EFBDFF8240A4FF4BC7101FB0400F4
:101D3000456A002655E0DFF8140A4FF4BC7101FB38
:101D4000040010EB8600876ADFF8FC05482101FBE0
:101D50000700806803F074FADFF8EC25482303FBE2
:101D600007225369126903F015FB12D2DFF8DC0970
:101D70004FF4BC7101FB0400006A012809D1DFF8AF
:101D8000CC094FF4BC7101FB040090F91E00FFF771
:101D900099FEDFF8B405482101FB0700806803F0D5
:101DA0004FFA02000B00DFF8A005482101FB0700F5
:101DB000C169806903F0EEFA12D2DFF890094FF49E
:101DC000BC7101FB0400006A002809D1DFF87C091E
:101DD0004FF4BC7101FB040090F91E00FFF74CFDAD
:101DE000761CAE42A7DBF1BDE0C8000810C90008B0
:101DF00030B5ADB0040020A8342101F033FF13A8A2
:101E0000342101F02FFF06A8342101F02BFF00251B
:101E10000020611CDFF8BC0A01F0E2FADFF82C09AF
:101E20004FF4BC7101FB040010F59F72DFF81C0930
:101E30004FF4BC7101FB040010F5A471DFF8980A9F
:101E400001F0CEFADFF804094FF4BC7101FB040085
:101E500010F59F7113A801F009FF35A101F0B6FE3E
:101E60000BE0010006A80A2202FB050001F0FEFEBD
:101E70002FA1002001F0AAFE6D1C0028F1D1002D39
:101E800004D1DFF8580A01F0ABFA49E006A803F0E4
:101E900098FA3C2101FB00F50DF1220003F091FAC4
:101EA000401941F270714843DFF8A0184FF4BC723A
:101EB00002FB0411C1F85801DFF890084FF4BC711F
:101EC00001FB0400D0F85801DFF880184FF4BC7211
:101ED00002FB0411C1F85C010120DFF8041A08704C
:101EE000002201A9DFF85C0703F008FC9DF805302B
:101EF0009DF80420DFF8501720A803F0C9F920A9A5
:101F0000DFF848084FF4BC7202FB040010F59A7029
:101F100001F0ACFE00226946DFF8280703F099FCC7
:101F20002DB030BD84C2000848340020C4C200086F
:101F30003A000000D0D300087CC5000804C30008A4
:101F400044C30008006AF84040C90008D012634149
:101F500070C90008E4D10008F0C500082DE9F04779
:101F6000AEB0040002A8342101F07CFE21A8342187
:101F700001F078FE14A8342101F074FE00275FF010
:101F800000085FF000095FF0000A0025002000262D
:101F900000220FA9DFF8AC0603F0B0FB002201A974
:101FA000DFF8A00603F055FC9DF83C709DF83D80DD
:101FB000CDF800803B00DFF894074FF4BC7101FBC3
:101FC0000400D0F85421611CDFF8180901F008FA68
:101FD00015E0DFF878074FF4BC7101FB0400D0F87E
:101FE0005401401C0C2190FBF1F201FB1200DFF8C0
:101FF0005C174FF4BC7202FB0411C1F85401DFF806
:102000004C074FF4BC7101FB0400DFF840174FF49C
:10201000BC7202FB0411D1F854110A2202FB010028
:1020200090F946003A2809D00020DFF820174FF435
:10203000BC7202FB0411C1F854014FE0DFF80C0739
:102040004FF4BC7101FB0400DFF800174FF4BC72C1
:1020500002FB0411D1F854110A2202FB010010F115
:10206000440102A801F002FE00208DF80A0002A837
:1020700003F0A7F981460DF10B0003F0A2F98246A7
:1020800053464A46DFF8C4064FF4BC7101FB040016
:10209000D0F85411DFF8500801F0A2F94F451DDBCC
:1020A000B94596DBD04519DBC24516DADFF89C0648
:1020B0004FF4BC7101FB0400D0F85401401C0C210A
:1020C00090FBF1F201FB1200DFF880164FF4BC72B6
:1020D00002FB0411C1F8540191E70126002E1DD125
:1020E000DFF868064FF4BC7101FB0400DFF85C16F2
:1020F0004FF4BC7202FB0411D1F854110A2202FB06
:10210000010010F14401DFF844064FF4BC7202FBF9
:10211000040010F59A7001F0A9FD32E0DFF82C06FA
:102120004FF4BC7101FB0400DFF820164FF4BC72C1
:1021300002FB0411D1F854110A2202FB010010F134
:10214000440102A801F092FD9DF90C00392808D144
:102150009DF80B00401C8DF80B0030208DF80C0012
:1021600004E09DF80C00401C8DF80C0002A9DFF87B
:10217000DC054FF4BC7202FB040010F59A7001F00C
:1021800075FDDFF8C8054FF4BC7101FB0400DFF8F2
:10219000BC154FF4BC7202FB0411D1F854110A2291
:1021A00002FB010010F1BC01DFF8A0054FF4BC7286
:1021B00002FB040010F59F7001F058FD611CDFF870
:1021C000140701F00DF9DFF884054FF4BC7101FB31
:1021D000040010F59F72DFF874054FF4BC7101FB29
:1021E000040010F59A71DFF8A00B01F0F9F8DFF8A0
:1021F0005C054FF4BC7101FB040010F59A7102A854
:1022000001F034FDDFF844054FF4BC7101FB04001C
:1022100010F59F7121A801F029FD3AA101F0D6FC2B
:102220000BE0010014A80A2202FB050001F01EFDCC
:1022300034A1002001F0CAFC6D1C0028F1D1002D52
:1022400004D1DFF8480B01F0CBF852E014A803F0FA
:10225000B8F83C2101FB00F50DF15A0003F0B1F88C
:10226000401941F270714843DFF8E0144FF4BC723A
:1022700002FB0411C1F85801DFF8D0044FF4BC711F
:1022800001FB0400D0F85801B0F57A7F09D140F283
:10229000ED30DFF8B8144FF4BC7202FB0411C1F842
:1022A0005801DFF8A8044FF4BC7101FB0400D0F81A
:1022B0005801062809DA40F6B830DFF890144FF4D8
:1022C000BC7202FB0411C1F85801DFF880044FF41E
:1022D000BC7101FB0400D0F85801DFF870144FF412
:1022E000BC7202FB0411C1F85C010120DFF8781D0B
:1022F00008702EB0BDE8F0879A9999999999B93FDD
:1023000084C300083A000000C4C30008ECD30008EE
:1023100008D40008543400205834002080CE00082F
:102320006CD70008C032002004D2000854000020FE
:10233000640000207400002084000020940000202D
:10234000A0C9000828D70008302D0020F8B52DEDD1
:10235000028B98B004000026002500270AA834212B
:1023600001F080FC9FEDB98BDFF8DC0B00780028D2
:1023700040F020812100DFF8D40B01F031F8DFF8C4
:10238000CC034FF4BC7101FB0400456A002689E0D0
:1023900051EC180B03F0D6FA41F270714843DFF8A4
:1023A000AC134FF4BC7202FB0411C1F85801DFF802
:1023B0009C034FF4BC7101FB0400D0F85801DFF816
:1023C0008C134FF4BC7202FB0411C1F85C010120B4
:1023D000DFF80C1508708DED028BDFF8740B4821C7
:1023E00001FB070090ED040B8DED000BDFF8600B97
:1023F000482101FB0700806802F022FF02000B0069
:10240000DFF8500B00F0ECFF002205A98D4803F027
:1024100075F99DF815309DF814208B490AA802F033
:1024200037FF0AA9C9484FF4BC7202FB040010F53B
:102430009A7001F01BFC002204A9824803F009FAFB
:102440000020DFF8141B08600120DFF8FC1A087078
:10245000DFF8FC0A482101FB0700806802F0F0FE6B
:1024600002000B00DFF8E80A482101FB0700C16900
:10247000806902F08FFF14D2B4484FF4BC7101FBA5
:102480000400006A01280CD1B0484FF4BC7101FB74
:10249000040090F91E00FFF715FB0120DFF8A81AD1
:1024A0000870761CAE4280F28580A8484FF4BC715B
:1024B00001FB040010EB8600876ADFF8940A4821CC
:1024C00001FB0700806802F0BBFEDFF8842A482386
:1024D00003FB07225369126902F05CFFB8D29B48E4
:1024E0004FF4BC7101FB0400006A0028B0D1DFF892
:1024F000600A482101FB0700806802F0A1FE02008B
:102500000B00DFF84C0A482101FB07004169006914
:1025100003F044FA41EC180B8C484FF4BC7101FBFA
:102520000400D0F86C11D0F8680153EC182B03F0BC
:10253000F5FA41EC180B85484FF4BC7101FB04001F
:10254000D0F87411D0F870010022002302F022FFAD
:1025500004D2DFF81C0B00F043FF6DE07B484FF422
:10256000BC7101FB0400D0F87411D0F87001002296
:10257000DFF8003B03F0D2FA02000B0051EC180B1D
:1025800003F09EFB41EC180B51EC180B0022DFF816
:10259000E83A03F0C3FA41EC180B51EC180B002297
:1025A000002302F0F7FE3FF6F3AEDFF8D00A00F0AA
:1025B00017FF41E0DFF8C80A007800283CD121006D
:1025C000DFF8C00A00F00CFF60484FF4BC7101FB5B
:1025D0000400456A00262DE05C484FF4BC7101FB05
:1025E000040010EB8600876ADFF86409482101FBCC
:1025F0000700806802F024FE02000B00DFF850099B
:10260000482101FB0700C169806902F0C3FE10D2B6
:102610004E484FF4BC7101FB0400006A012808D148
:102620004A484FF4BC7101FB040090F91E00FFF70B
:1026300049FA761CAE42CFDB18B0BDEC028BF1BD7F
:1026400044D20008F033002034D700080000000016
:102650000000000038B500240025002400E0641CC0
:10266000052C5EDA39484FF4BC7101FB0400006CA4
:102670000028F4D035484FF4BC7101FB0400D0F8B9
:1026800060010028EBD131484FF4BC7101FB04001C
:10269000056C2E484FF4BC7101FB0400D0F85811B2
:1026A000DFF8B00B00F09CFE012D08D0022D0AD0FF
:1026B000032D0CD0042D18D0062D24D0CFE72000F8
:1026C000FFF7BAFACBE72000FFF722FBC7E71F4866
:1026D0004FF4BC7101FB0400D0F85801B0F57A7FCB
:1026E00002D12000FFF784FBB9E718484FF4BC7112
:1026F00001FB0400D0F85801B0F57A7F02D1200028
:10270000FFF72CFCABE7DFF840080078002804D086
:10271000DFF86C090078002802D12000FFF716FED0
:102720009DE731BD002004E00021DFF8782B8154C3
:10273000401CDFF8741B09888842F5DB0020DFF8B5
:102740006C1B08807047000024D20008F021002094
:102750005C0000206C0000207C0000208C00002029
:102760009C00002070CB000864D2000884D20008CE
:1027700080B52DED028B00EE100AB8EEC08A00295C
:102780000ED002291CD00CD3042937D027D3062918
:1027900052D042D308296DD05DD3092979D087E082
:1027A0008AE018EE100A02F04BFDDFF8082BDFF884
:1027B000083B03F0B3F902F0A5FD08EE100A7BE038
:1027C00018EE100A02F03CFDDFF8F02ADFF8F03ACC
:1027D00003F0A4F902F096FD08EE100A6CE018EE82
:1027E000100A02F02DFDDFF8DC2ADFF8DC3A03F0F6
:1027F00095F902F087FD08EE100A5DE018EE100A68
:1028000002F01EFDDFF8C42ADFF8C43A03F086F9AF
:1028100002F078FD08EE100A4EE018EE100A02F001
:102820000FFDDFF8B02ADFF8B03A03F077F902F0D5
:1028300069FD08EE100A3FE018EE100A02F000FDF4
:10284000DFF8982ADFF8983A03F068F902F05AFDA9
:1028500008EE100A30E018EE100A02F0F1FCDFF882
:10286000842ADFF8843A03F059F902F04BFD08EEB0
:10287000100A21E018EE100A02F0E2FCDFF86C2AE0
:10288000DFF86C3A03F04AF902F03CFD08EE100A5A
:1028900012E018EE100A02F0D3FCDFF8582ADFF835
:1028A000583A03F03BF902F02DFD08EE100A03E060
:1028B000DFF8480A00F094FDB0EE480ABDEC028B48
:1028C00001BD0000A4CE0008A0D60008D0C90008B1
:1028D00000CA00089CCB000860C6000824D4000889
:1028E0006B34002004C4000844C40008F8B52DED82
:1028F000028B94B004000D0002A8142101F0B2F97B
:102900009FEDD28A9FEDD18A002007A8342101F0E3
:10291000A9F9002005E0DFF88C19415C07AA815471
:10292000401CDFF8841909888842F4DBDFF8780955
:10293000018807A803F017FB00282BD1DFF8C00996
:1029400000F04EFD0A2107A800F0EDFADFF8B419F7
:1029500014F1740001F060F900283BD1E06E042806
:1029600025D107A8A16E081810F8010C8DF80A00EF
:1029700007A8A16E085C8DF80B0007A8A16E0818C7
:1029800040788DF8080007A8A16E081880788DF8A7
:1029900009004DE02100DFF8700900F021FD606DB5
:1029A000401C6065FFF7BEFE5FF0FF30E8E107A85E
:1029B000A16E085C8DF80A0007A8A16E081810F82F
:1029C000010C8DF80B0000208DF8080000208DF818
:1029D00009002DE0E06E042818D107A8A16E0818A0
:1029E00010F8010C8DF8080007A8A16E085C8DF89E
:1029F000090007A8A16E081840788DF80A0007A8FA
:102A0000A16E081880788DF80B0011E007A8A16E60
:102A1000081810F8010C8DF80A0007A8A16E085CD0
:102A20008DF80B0000208DF8080000208DF80900BB
:102A3000DFF8D81814F15C0001F0EEF8002840F03F
:102A40008D8002A800F0B0F9B0EE408A18EE100AAE
:102A500002F0F6FB02000B00DFF8B40800F0C0FC47
:102A6000D4E920010022002302F02CFC06D3D4E993
:102A700022010022002302F025FC44D29FED730ABC
:102A800094ED200B8DED000BD4E92223DFF88408B0
:102A900000F0A6FC18EE100A02F0D2FB06000F00B0
:102AA000D4E92201D4E9202302F078FF02000B00D0
:102AB0003000390003F032F802F024FC00EE100A76
:102AC00010EE100A02F0BCFB0022DFF84C3803F0D5
:102AD000F7F802F017FC08EE100A18EE100A02F0E0
:102AE000AFFBD4E9202303F07DFA02F00BFC08EEE3
:102AF000100A18EE100A02F0A3FB02000B00DFF828
:102B00001C0800F06DFC002D0CD0022D62D041D3CA
:102B1000042D00F0A1807DD3062D00F01781C0F0B8
:102B2000BB8026E1DFF8F80790ED000AB4EE408A9A
:102B3000F1EE10FA2ADBDFF8EC0790ED000AB4EEB4
:102B4000480AF1EE10FA21DB94ED140A30EE080A7F
:102B500084ED140AA06D401CA0651AE0DFF8C817C8
:102B600014F15C0001F058F8002808D102A800F028
:102B70000FF9216FFFF7FCFDB0EE408A66E7DFF842
:102B8000AC0700F02DFC5FF0FF30F9E0606D401CF9
:102B90006065F2E0DFF8980790ED000AB4EE408A35
:102BA000F1EE10FA12DBDFF88C0790ED000AB4EEBC
:102BB000480AF1EE10FA09DB94ED140A30EE080A27
:102BC00084ED140AA06D401CA06502E0606D401CFD
:102BD0006065D2E0DFF8600790ED000AB4EE408A4D
:102BE000F1EE10FA12DBDFF8540790ED000AB4EEB4
:102BF000480AF1EE10FA09DB94ED140A30EE080AE7
:102C000084ED140AA06D401CA06502E0606D401CBC
:102C10006065B2E0DFF8280790ED000AB4EE408A64
:102C2000F1EE10FA14DBDFF81C0790ED000AB4EEA9
:102C3000480AF1EE10FA0BDB94ED140A30EE080AA4
:102C400084ED140AA06D401CA06504E000000000A3
:102C5000606D401C606590E0DFF8EC0690ED000AC6
:102C6000B4EE408AF1EE10FA12DBDFF8E00690EDE8
:102C7000000AB4EE480AF1EE10FA09DB94ED140AEA
:102C800030EE080A84ED140AA06D401CA06502E035
:102C9000606D401C606570E018EE100A02F0D0FA1A
:102CA000AB4A482303FB0522D369926902F00AFB71
:102CB00024D8DFF89C06006802F0C2FAA44A482330
:102CC00003FB0522D369926902F0FCFA16D8DFF8FB
:102CD00084060068401CDFF87C160860DFF8740684
:102CE000006803280EDB00F0ADFADFF86C0600F098
:102CF00077FB0020DFF85C16086003E00020DFF8B7
:102D000054160860DFF8540690ED000AB4EE408ACD
:102D1000F1EE10FA12DBDFF8480690ED000AB4EE8F
:102D2000480AF1EE10FA09DB94ED140A30EE080AB5
:102D300084ED140AA06D401CA06502E0606D401C8B
:102D40006065DFF80C0680ED008A16E0B5EE408A7B
:102D5000F1EE10FA09DB94ED140A30EE080A84ED66
:102D6000140AA06D401CA06502E0606D401C606507
:102D700003E0DFF8F00500F033FBFFF7D3FC0020A1
:102D800014B0BDEC028BF2BD30CA0008A4D200081A
:102D9000017809064278120483781B029A18C078D9
:102DA00010184118080070472DE9F0412DED048BF3
:102DB000017890F801808478C578B7EE008AC9B2AE
:102DC000802901D3BFEE008ADFEDA88AC9B280292D
:102DD0000DD3C9B2080003F083F90022DFF888356B
:102DE00003F000F902F08EFA08EE900A04E0C9B28E
:102DF00000EE101AF8EE408A18EE900A02F020FA5F
:102E000000225FF0804302F089FE02F07BFA08EEB8
:102E1000900A5FFA88F8B8F1800F0CD318EE900A88
:102E200002F00EFA0022DFF8443503F0DBF802F07E
:102E300069FA08EE900A18EE900A02F001FA0022F0
:102E4000DFF82C3503F0CEF802F05CFA08EE900AB9
:102E50009FED869A5FFA88F8B8F1800F0CD35FFA7D
:102E600088F8404603F03CF90022DFF8FC3403F018
:102E7000B9F802F067FD8046EDB2280003F030F9A2
:102E800006000F00E4B2200003F02AF904000D0050
:102E90005FFA88F8404603F023F90022DFF8D434C3
:102EA00002F03CFE22002B0003F09CF80022DFF829
:102EB000C43402F033FE32003B0003F093F802F01A
:102EC00021FA09EE100A9FEDC00A89EE009A18EE69
:102ED000100A02F0B5F904000D0018EE900A02F095
:102EE000AFF941EC110B9FEDCD0B03F07EFB51ECE4
:102EF000100B22002B0002F011FE04000D00B7EEB3
:102F0000000A39EE000A10EE100A02F099F92200C8
:102F10002B0002F003FE02F0F5F900EE100ABDEC02
:102F2000048BBDE8F08170B504000D00002605E0BB
:102F3000315DDFF8440400F053FA761CAE42F7DB53
:102F4000CBA000F04DFA70BD7734002060CA0008B5
:102F5000302D00208CB900084034002010B5ADF5AC
:102F6000816DDFF818040078002876D1DFF81004AE
:102F700000F09EFE0400641C03A8142100F072FE01
:102F800003A9200000F080F81E2C07DA2200DFF8E9
:102F9000F013DFF8F00300F023FA61E0DFF8E0134C
:102FA00008A800F063FE232008A9611801F8010CAD
:102FB000DFF8D4030068012803D1312008A9605448
:102FC00002E0302008A96054002008A96118487068
:102FD000002008A961188870641C002003F0C1FD5E
:102FE00003A800F065FE020092B20A2103A803F0D4
:102FF0000CFE08A800F05CFE020092B2142108A8A2
:1030000003F003FE220008A9E04800F0E9F9684651
:103010000021002200230EC00C380A22002168463D
:1030200003F08FFE0A220A21684603F08AFE6846F2
:1030300002F0C7F9B0F57A7F02DD0A2190FBF1F0CA
:10304000401CA04203D1D24800F0CAF908E0D148A0
:1030500000F0C6F9FDF7A9F802E00020C7490870A2
:103060000DF5816D10BD00006C34002000000000E3
:10307000C8CB00080000594000004E4084C400083E
:103080007334002094C600087EB40022002300237D
:103090006B4600240025002670C30C3B0300002B68
:1030A00000D540420A2490FBF4F504FB15043034AB
:1030B0006D465455521C0A2490FBF4F00128F1DAB5
:1030C000002B03D52D206B46D054521C00206B469C
:1030D000D054130006E06846181810F8010CD41AF2
:1030E00060545B1E002BF6D577BC704730B5ADF54C
:1030F0007D7D0400002568460021002200230EC0CB
:103100000C3803A84FF47A7100F0ACFD0A220021BC
:10311000684603F016FE0A220A21684603F011FEF3
:10312000684602F04EF90500B5F57A7F02DD0A2007
:1031300095FBF0F56D1C2800020092B2142103A843
:1031400003F0FFFD2A0003A9934800F049F903A802
:10315000281810F8010C302806D100208A49086090
:103160008E4800F03DF912E003A8281810F8010C71
:10317000312806D1012084490860894800F030F9DF
:1031800005E0002080490860864800F029F903A87E
:10319000281810F8020C23280FD1002003A9691861
:1031A00001F8020C03A9200000F060FD03A97E488D
:1031B00000F016F9FDF76EF802E07C4800F010F917
:1031C0000DF57D7D30BD00000000004B80B54FF453
:1031D0007A73012236A1764800F04FF9012080F37E
:1031E0001388FCF7D1FF01BD80B50020082171488C
:1031F00002F02AF9FFF796FA01BD80B500200821F8
:103200006D4802F021F9FFF78DFA01BD80B5082164
:103210006A4802F019F9FFF785FA01BD00000000C5
:103220000000004080B50821654802F00DF9FFF765
:1032300079FA01BD80B50821624802F005F9FFF76F
:1032400071FA01BD80B508215F4802F0FDF8FFF773
:1032500069FA01BDB0D6000880B55C4800F0C0F83E
:10326000002003F07EFC5A4800F0BAF801BD0000CF
:103270000A0000004FF4FA51484356490860002004
:10328000554908600120554908605448006810F00D
:1032900001100128F9D000205049086000204E4953
:1032A00008607047BC330020E8010020563400203D
:1032B0007D0000009A9999999999B93F7B14AE477E
:1032C000E17A843FFCA9F1D24D62503F2D431CEBC3
:1032D000E2361A3FF168E388B5F8E43E8DEDB5A01B
:1032E000F7C6B03E48AFBC9AF2D77A3E3A8C30E28D
:1032F0008E79453E95D626E80B2E113E44D5000822
:10330000C8CE000874D7000898CC00087CD7000805
:1033100010CF0008C8C600080088D34040D4000879
:10332000343400200C00002084D70008ECCE0008C4
:103330003834002010000020140000201800002065
:1033400030340020080000202C340020040000202D
:103350004834002044340020C4D200083C3400200B
:103360001C000020E4D20008000060C00000F03F14
:1033700000C05FC0000070408CD700087834002087
:103380004829002090CA000820000020F4CB000843
:103390005CD40008C0CC000878D4000834CF000802
:1033A00058CF0008FCC6000804D300087CCF0008F2
:1033B000C0320020340000203C0000202400002007
:1033C0002C000020440000204C000020A0CF00086A
:1033D000C4CF000814E000E018E000E010E000E0D6
:1033E0000EB400B582B003A9009102466B460121DC
:1033F000034878440A3003F015FD06BC5DF810FB65
:103400001DA2000010B50400002C01D1012033E002
:10341000A0690028FFD194F83900002805D10020C8
:1034200084F83800200004F0C5FD242084F8390019
:103430002068C06830F400502168C860200000F0A7
:1034400039FA2068006930F49040216808612068EA
:10345000406930F02A00216848612068C06850F453
:1034600000502168C8600020E063202084F8390003
:10347000202084F83A00002010BD2DE9F04182B0F0
:1034800004000D0016001F005FF0000894F83900DA
:1034900020285DD1002D02D0B6B2002E01D101202E
:1034A00057E094F93800012801D1022051E00120B1
:1034B00084F838000020E063212084F8390004F00B
:1034C000D0FE8046A684E68403E028782168486020
:1034D0006D1CE08C002828D0E08C401EE084A068A1
:1034E000B0F5805F16D1009743460022802120006E
:1034F00000F0FCF8002801D003202AE02888C0054D
:10350000C00D216848602069002801D1AD1CE0E7AA
:103510006D1CDEE70097434600228021200000F06A
:10352000E5F80028D1D0032013E00097434600229D
:103530004021200000F0DAF8002801D0032008E044
:10354000202084F83900002084F83800002000E0B2
:103550000220BDE8F68190F83A30202B28D10029CE
:1035600002D092B2002A01D1012022E090F9383035
:10357000012B01D102201CE0012380F83830816248
:103580008285C2850021C163222180F83A10002182
:1035900080F838100168496951F0010102685161F1
:1035A0000168C96851F490710068C160002000E0B2
:1035B0000220704738B50400206800682168C96897
:1035C000226852690023002310F00F03002B07D15B
:1035D000850605D58D0603D5200000F01EF982E092
:1035E000002B70D0D30702D411F4907F6BD010F071
:1035F0000103DBB2002B05D0CB0503D5E36B53F001
:103600000103E363430708D512F00103DBB2002B8B
:1036100003D0E36B53F00203E363830708D512F092
:103620000103DBB2002B03D0E36B53F00403E3632D
:10363000030708D512F00102D2B2002A03D0E26BD0
:1036400052F00802E263E26B002A3BD0800604D508
:10365000880602D5200000F0E0F820684069800963
:1036600010F00103E06B000701D4002B25D02000EF
:1036700000F074F82068406940061AD52068406957
:1036800030F0400021684861606B00280DD00FF2D7
:10369000F100616B0865606B04F0ECFD002811D04F
:1036A000606B616B096D88470CE0200000F01DF82D
:1036B00008E0200000F019F804E0200000F015F800
:1036C0000020E0630FE0020605D50A0603D52000BE
:1036D00000F060F807E0400605D5480603D5200055
:1036E00000F08DF8FFE731BD704770472DE9F041DC
:1036F00004000D0016001F00DDF818802068006827
:103700002840A84201D1012000E0002076B2B0425A
:1037100021D118F1010FF1D0B8F1000F04D004F05D
:10372000A0FDC01B8045E9D22068C06830F4D0708D
:103730002168C860206840694008400021684861ED
:10374000202084F83900202084F83A00002084F8F2
:103750003800032000E00020BDE8F0810168C9685E
:1037600031F490710268D1600168496949084900E3
:1037700002685161202180F83A1070470000000073
:1037800080B5806B0021C1850021C184FFF7ADFFAA
:1037900001BD000090F8391021292ED18168B1F5C2
:1037A000805F10D1016A0988C905C90D026851609E
:1037B0000169002903D1016A891C016209E0016ADB
:1037C000491C016205E0016A4A1C0262097802682C
:1037D0005160C18C491EC18489B200290BD1016896
:1037E000C96831F080010268D1600168C96851F090
:1037F00040010068C160002000E00220704780B5F1
:103800000168C96831F040010268D160202180F868
:103810003910FFF769FF002002BD80B590F83A101B
:10382000222945D18168B1F5805F14D1816A02698E
:10383000002A08D102685268D205D20D0A80816A36
:10384000891C816219E002685268D2B20A80816ADA
:10385000491C816211E00169002906D1816A4A1C74
:103860008262026852680A7007E0816A4A1C8262BA
:103870000268526812F07F020A70C18D491EC1852C
:1038800089B2002912D10168C96831F490710268C7
:10389000D1600168496949084900026851612021E5
:1038A00080F83A1005F082F8002002E0002000E0E5
:1038B000022002BD2DE9F0410400002020680069CB
:1038C00030F44050E1680843216808612068C0680E
:1038D000BB490840A1682269114362691143E2694A
:1038E000114308432168C8602068406930F4407083
:1038F000A169084321684861E069B0F5004F40F0D4
:10390000B0802068AF49884203D02068AE49884221
:1039100053D105F0C5FE804605F0C2FE060005F055
:10392000BFFE070005F0BCFE050005F0B9FE192139
:1039300001FB08F162685200B1FBF2F16422B1FBB5
:10394000F2F1192202FB06F263685B00B2FBF3F2AC
:10395000192303FB07F366687600B3FBF6F36426CE
:10396000B3FBF6F3642606FB1322D2003232642343
:10397000B2FBF3F212F0F802520012EB011119221D
:1039800002FB05F263685B00B2FBF3F219235843B4
:1039900063685B00B0FBF3F06423B0FBF3F06423D7
:1039A00003FB1020C00032306422B0FBF2F010F0B4
:1039B000070040182168886000E105F061FE80463C
:1039C00005F05EFE060005F05BFE070005F058FE00
:1039D000050005F055FE192101FB08F1626852004F
:1039E000B1FBF2F16422B1FBF2F1192202FB06F203
:1039F00063685B00B2FBF3F2192303FB07F366680D
:103A00007600B3FBF6F36426B3FBF6F3642606FBFD
:103A10001322D20032326423B2FBF3F212F0F80226
:103A2000520012EB0111192202FB05F263685B00E0
:103A3000B2FBF3F21923584363685B00B0FBF3F069
:103A40006423B0FBF3F0642303FB1020C00032308A
:103A50006422B0FBF2F010F0070040182168886083
:103A6000ACE020685749884203D020685649884214
:103A700052D105F015FE804605F012FE060005F055
:103A80000FFE070005F00CFE050005F009FE1921E8
:103A900001FB08F162689200B1FBF2F16422B1FB14
:103AA000F2F1192202FB06F263689B00B2FBF3F20B
:103AB000192303FB07F36668B600B3FBF6F364262D
:103AC000B3FBF6F3642606FB1322120132326423A1
:103AD000B2FBF3F212F0F00212EB0111192202FB19
:103AE00005F263689B00B2FBF3F219235843636845
:103AF0009B00B0FBF3F06423B0FBF3F0642303FB03
:103B00001020000132306422B0FBF2F010F00F0000
:103B100040182168886051E005F0B2FD804605F04C
:103B2000AFFD060005F0ACFD070005F0A9FD05009E
:103B300005F0A6FD192101FB08F162689200B1FBB6
:103B4000F2F16422B1FBF2F1192202FB06F2636882
:103B50009B00B2FBF3F2192303FB07F36668B60080
:103B6000B3FBF6F36426B3FBF6F3642606FB1322DD
:103B7000120132326423B2FBF3F212F0F00212EBC4
:103B80000111192202FB05F263689B00B2FBF3F2FC
:103B90001923584363689B00B0FBF3F06423B0FB28
:103BA000F3F0642303FB1020000132306422B0FBE9
:103BB000F2F010F00F00401821688860BDE8F08135
:103BC000F369FFFF001001400014014070B5044686
:103BD0000D46104805F098FD064644B1294620469A
:103BE00005F093FD0419207830B9306070BD346859
:103BF000002CF3D1002070BD2946204605F096FD2B
:103C00000019017811B1002100F8011B3060204635
:103C100070BD00BFE4000020820707D010F8012B20
:103C200011F8013BBAB19A42F6D014E002680B6871
:103C30009A42A2F1013301BF934313F0803F50F841
:103C4000042F51F8043FF3D010F8012B11F8013B79
:103C50000AB19A42F8D0D01A70470268531C036028
:103C600011707047002205F073BD00005FEA000C80
:103C7000830706D011F8013B00F8013BB3B183077D
:103C8000F8D10A68B2F1013323EA020313F0803F4E
:103C900002BF40F8042B51F8042FF3E711F8013B61
:103CA00000F8013B13B111F8013BF9E7604670479A
:103CB00000F10103810704D010F8011B89B18107CD
:103CC000FAD10268B2F10131914311F0803F04BF93
:103CD00050F8042FF6E710F8011B11B110F8011B82
:103CE000FBE7C01A7047000062F30F2262F31F4225
:103CF000401810F0030308D0C91A1FD3DB0748BFD0
:103D000000F8012D28BF20F8022D130030B414460E
:103D10001546103928BF20E93C00FAD8490728BFCA
:103D200020E90C0048BF40F8042D890028BF20F886
:103D3000022D48BF00F8012D30BC7047C91818BFCC
:103D400000F8012DCB0728BF00F8012D70470000B7
:103D500000F5E0700268914203D343689A189142DB
:103D600002D380680028F5D17047DFF85807016852
:103D700091B94FF4803181604FF4805141604FF030
:103D8000FF31C16001610421DFF83C274161C2F8C5
:103D9000BC11DFF8381701600120704701F10803FA
:103DA00013F0070305D001F10803C3F1080303F082
:103DB00007035918D21A8161C26042F001034B60B7
:103DC000511828234B60DFF8FC160969C161704760
:103DD0002DE9F84F064601F1080010F0070008BF72
:103DE000884607D001F10800C0F1080000F0070084
:103DF00000EB010802F1080010F0070006D002F104
:103E00000800C0F1080000F0070082181546A5EB75
:103E10000800A0EB030903EB080B43F00300C8F80C
:103E20000400AB4528BF05F0ACFC2879C00758BF9B
:103E300005F0A7FCB9F1100F38BF05F0A2FCB0697E
:103E4000854209D1F0684844F060C6F818B040F0E7
:103E50000100CBF804006DE1706985420BD1B068B8
:103E60004844B060C6F814B040F00101CBF804102B
:103E700040F80B005EE1686800F00301012940F0A2
:103E8000AD80C008C0000190C00820283AD2D5F803
:103E900008A0EF680090BD4208BF05F072FC5545D0
:103EA00008BF05F06EFC68680099C008C000B0EB60
:103EB000C10F18BF05F065FC009806EBC00000F1CB
:103EC00028018A4507D031698A45C0F08280DAF836
:103ED0000C10A9427DD1574506D1009A30680121C6
:103EE00091408843306076E02830874205D03069C1
:103EF00087426ED3B868A8426BD1CAF80C70C7F875
:103F000008A068E0EF68D5F818A0AF420CD0A86808
:103F10003169884223D3C168A94204BFB968A94264
:103F20001DD1C760B8601CE005F11400076837B9FF
:103F300005F110000768A7B101E00846076807F11E
:103F400014010A68002A02BF07F110010A68002A5A
:103F5000F3D13169884202D30021016001E005F00C
:103F600010FCBAF1000F36D0E86906EB800000F5CE
:103F7000987001688D4208D10760A7B9EA69706836
:103F8000012191408843706025E03069824508D363
:103F9000DAF81000A84214BFCAF81470CAF81070FA
:103FA00001E005F0EEFBB7B13069874211D3C7F8E5
:103FB00018A0296929B1814226BF39618F6105F0B6
:103FC000E0FB686938B13169884202D37861876162
:103FD00001E005F0D6FB0198451981446868400866
:103FE000400068604FEAD90549F00100CBF80400B1
:103FF00049F80B90202D23D206EBC50000F12807CD
:10400000BA46B9F1100F38BF05F0BBFB306820FA93
:1040100005F1C90704D40121A9400843306006E036
:10402000B868316988422CBF824605F0AAFBC7F800
:1040300008B0CAF80CB0CBF808A0CBF80C7079E047
:104040005FEA192108BF002023D0B1F5803F28BFC7
:104050001F201ED2A1F58070000C00F008008140E6
:10406000A1F58052120C02F004029140A1F58043A8
:104070001B0CC0F10E0003F00203801AC01A994015
:1040800000EBD130C11D29FA01F202F0010101EB70
:104090004000CBF81C000022CBF81420CBF81020F5
:1040A00006EB8001726822FA00F3DB0701F59871D4
:1040B00007D4012303FA00F010437060C1F800B088
:1040C0001DE009681F280EBF00204008C0F119003C
:1040D00009FA00F000E011464A68D208D2004A45C9
:1040E00014D0C20F01EB820202F1100340001A68E3
:1040F000002AF0D1306983421AD3C3F800B0CBF85C
:104100001810CBF80CB0CBF808B013E0326988680F
:10411000914228BF90420BD3C0F80CB0C1F808B050
:10412000CBF80800CBF80C100020CBF8180001E009
:1041300005F027FB08F10800BDE8E68F2DE9FA4DF0
:104140000546DFF8800384B0006808B9FFF70DFE6C
:10415000DFF870030499806841182F31401E21EA6E
:1041600000000499814280F0A88105F5D876B168F5
:1041700039B132688018824280F09F818142C0F05C
:104180009C8105F001FB00281EBF0446D0F800808A
:1041900014F1010F00F09181306871684044306083
:1041A000814238BF01467160A86980BB286908B1A7
:1041B000844200D22C610020F0613461C6F8148082
:1041C00005F12801BF48006868624FF0FF3028629F
:1041D000002001F10802C9601160801C1031202804
:1041E000D2609260F5D3B848854203D1A8F1280285
:1041F000214629E055F8040CC00805EBC000A0F1E9
:10420000080108EB0400401AA0F128021CE005F5A3
:10421000E071084600E08068D0B1026843689A18EF
:104220009442F8D1027B120712D4AA6903689A4219
:104230000ED347683B449A420AD208EB070141601B
:10424000E868A96908EB00022846FFF7A7FD1EE110
:1042500028698442084638BF2C6108EB040100E05D
:10426000806880B102688A42FAD1017B09070AD4CA
:1042700004604168414441602146049B284606B0E1
:10428000BDE8F04DA4E5AF6939462846FFF760FD6B
:1042900001684068401802902F3800F1080111F0C1
:1042A000070105D000F10801C1F1080101F0070183
:1042B000081807F11001884234BF00970090009859
:1042C0000830019004F10801009800F1180A11F07B
:1042D00007014FF0000BA8F1280005D004F10801F8
:1042E000C1F1080101F007010A19401AAA61E8604A
:1042F00040F0010151608018282141607148006937
:10430000E861019810F0070018BF05F03AFA00992B
:104310001B20486005F5E071B1E80C500198A0E859
:104320000C503461C6F81480C6F81CB00198B06116
:10433000029800E08A460722CAF804200AF1040124
:104340000A1D82420BF1010BF4D3BBF1020FB8BF7F
:1043500005F017FA0098B84200F09980C01BC11907
:10436000C4084A68520852004A6040F0010179606E
:10437000C051202C20D205EBC40101F12806B04623
:10438000102838BF05F0FDF9286820FA04F1C907A4
:1043900004D40121A1400843286006E0B0682969DF
:1043A00088422CBF804605F0ECF9B760C8F80C7065
:1043B000C7F80880FE606AE0010A08BF002223D027
:1043C000B1F5803F28BF1F221ED2A1F58072120CCA
:1043D00002F008029140A1F580531B0C03F0040386
:1043E0009940A1F58044240CC2F10E0204F00204AD
:1043F000D21A121BA14002EBD131CA1D20FA02F3DE
:1044000003F0010202EB4102FA6100237B613B6190
:1044100005EB82016B6823FA02F4E40701F5987159
:1044200005D401209040184368600F601CE00968C3
:104430001F2A0EBF00225208C2F1190200FA02F22E
:1044400000E019464B68DB08DB00834210D0D30F35
:1044500001EB830303F1100452002368002BF0D119
:104460002869844211D32760B961FF60BF600EE004
:104470002A698868914228BF904206D3C7608F603E
:10448000B860F9600020B86101E005F07AF9E868E9
:104490000499814211D2401AE860A969049A52181D
:1044A000AA6140F001005060049840F003004860A9
:1044B00006B001F10800BDE8F08D002006B0BDE8AF
:1044C000F08D000010340020282F00206859883C0F
:1044D0002DE9F04D0446002688465FEA1820C8F111
:1044E000000B08BF002123D0B0F5803F28BF1F215B
:1044F0001ED2A0F58071090C01F008018840A0F5DA
:104500008052120C02F004029040A0F580431B0C74
:10451000C1F10E0103F00203891AC91A984001EB98
:10452000D030C11D28FA01F202F0010101EB400177
:1045300004EB8100D0F8300118B31F290EBF002210
:104540004A08C2F1190208FA02F2002300E0520000
:104550004568ED08ED00A5EB08055D4503D25FEA6F
:10456000050B06460BD04569D70F00EB8700002DE1
:1045700000691CBF85422B460028E8D11846B8BB0D
:10458000C6BB0120884040004142084361680840A2
:1045900000F0638141420840401E010B01F0100110
:1045A000C840420902F00802D040830803F0040327
:1045B000D840450805F002055118E8405918C0F3E5
:1045C000400729443944F840401804EB8000D0F8F3
:1045D00030010DE008464168C908C900A1EB080197
:1045E00059453CBF8B46064601690029F2D1406916
:1045F0000028F0D1002E00F03081A068A0EB080068
:10460000834580F02A8120698642C0F02481706849
:10461000C008C00008EB0B0108EB0605884218BF74
:1046200005F0AFF8AE4280F01681F768D6F818A012
:10463000B7420CD0B0682169884223D3C168B14227
:1046400004BFB968B1421DD1C760B8601CE006F173
:104650001400076837B906F110000768A7B101E038
:104660000846076807F114010A68002A02BF07F12B
:1046700010010A68002AF3D12169884202D300217F
:10468000016001E005F07DF8BAF1000F38D0F06963
:1046900004EB800000F5987001688E4209D1076034
:1046A000380014D1F269606801219140884360604C
:1046B00026E02069824508D3DAF81000B04214BF22
:1046C000CAF81470CAF8107001E005F05AF8BFB1CA
:1046D0002069874212D3C7F818A0306930B1216928
:1046E000884226BF3861876105F04BF8706938B1A0
:1046F0002169884202D37861876101E005F041F8C1
:10470000BBF1100F0CD208EB0B0040F003007060FF
:1047100008EB0B008019416841F00101416096E00F
:1047200048F0030070604BF0010068604FEADB0066
:104730004BF805B020281DD204EBC00101F1280779
:10474000216821FA00F2D207BB4605D4012202FA01
:1047500000F00843206006E0B868216988422CBF59
:10476000834605F00EF8BD60CBF80C50C5F808B0D4
:10477000EF606CE05FEA1B2108BF002023D0B1F599
:10478000803F28BF1F201ED2A1F58070000C00F0D2
:1047900008008140A1F58052120C02F00402914001
:1047A000A1F580431B0CC0F10E0003F00203801A38
:1047B000C01A994000EBD130C11D2BFA01F202F072
:1047C000010101EB4000E86100226A612A6104EB0B
:1047D0008001626822FA00F3DB0701F5987106D4C4
:1047E000012303FA00F0104360600D601CE00968CB
:1047F0001F280EBF00204008C0F119000BFA00F07E
:1048000000E011464A68D208D2005A4510D0C20FC3
:1048100001EB820202F1100340001A68002AF0D175
:104820002069834211D31D60A961ED60AD600EE087
:1048300022698868914228BF904206D3C5608D6086
:10484000A860E9600020A86101E004F09AFF06F189
:104850000800BDE8F08D04F094FF0020BDE8F08D65
:104860002DE9F84F04468846606841420840401EE2
:10487000010B01F01001C840420902F00802D040CB
:10488000830803F00403D840450805F002055118D9
:10489000E8405918C0F3400629447118F040401808
:1048A00004EB8000D0F830014168C908C900064611
:1048B000A1EB080A09E008464168C908C900A1EB54
:1048C000080151453CBF8A46064601690029F2D1DC
:1048D00040690028F0D120698642C0F0C480706829
:1048E000C00808EB0A09C00008EB060B484518BFD2
:1048F00004F047FF5E4580F0B680F768B569B742BF
:104900000CD0B0682169884223D3C168B14204BF8A
:10491000B968B1421DD1C760B8601CE006F114004F
:10492000076837B906F110000768A7B101E008462B
:10493000076807F114010A68002A02BF07F1100195
:104940000A68002AF3D12169884202D3002101605C
:1049500001E004F016FF002D34D0F06904EB800074
:1049600000F5987001688E4209D10760380011D1B6
:10497000F2696068012191408843606022E020690B
:10498000854205D32869B04214BF6F612F6101E0F1
:1049900004F0F7FEB7B12069874211D3BD613069D9
:1049A00030B12169884226BF3861876104F0E9FE91
:1049B000706938B12169884202D37861876101E06A
:1049C00004F0DFFEBAF1100F09D249F00300706065
:1049D00009EB0600416841F0010141603FE048F009
:1049E000030070604AF00100CBF804004AF80BA005
:1049F000D4F808804FEAD805202D28BF04F0C1FE66
:104A0000B8F1000F27D0D4F81490009504EBC5003E
:104A100000F128052F46B8F1100F38BF04F0B1FEA1
:104A20002068009920FA01F2D10705D4009A0121EB
:104A300091400843206006E0A868216988422CBFA5
:104A4000074604F09EFEC5F80890C7F80C90C9F818
:104A50000870C9F80C50C4F808A0C4F814B006F1E6
:104A60000800BDE8F28F04F08CFE0020BDE8F28F54
:104A70002DE9F04F83B00546C046C046F52DDFF85E
:104A8000B84780F002810B2D31BF102705F10B00D4
:104A9000C708FF002068FE08F04010F0030F42D066
:104AA000C04300F00100861904EBC60000F128089D
:104AB000F700D8F808506868C008C000B84218BFAE
:104AC00004F05FFED5F80890454508BF04F059FE94
:104AD0004D4508BF04F055FE6868C008C000B842E4
:104AE00018BF04F04EFEC84505D120680121B14031
:104AF000884320600DE02069814508D3D9F80C0077
:104B0000A84204D1C8F80890C9F80C8001E004F06C
:104B100038FE47F00300686078190835416841F0B5
:104B200001014160F9E0A168B94280F0C08000282D
:104B300000F0A280012505FA06F149004A42B04082
:104B40001143084041420840401E010B01F0100192
:104B5000C840420902F00802D040830803F0040371
:104B6000D840460806F002065118F0405918C0F324
:104B700040087118414420FA08F000EB010804EBEA
:104B8000C80000F128094FEAC80AD9F8086070681F
:104B9000C008C000504518BF04F0F3FDD6F808B0B7
:104BA0004E4508BF04F0EDFD5E4508BF04F0E9FD89
:104BB0007068C008C000504518BF04F0E2FDD94538
:104BC00005D1206805FA08F1884320600DE02069CE
:104BD000834508D3DBF80C00B04204D1C9F808B013
:104BE000CBF80C9001E004F0CCFD47F003007060BE
:104BF000AAEB0708B819019048F001000199486034
:104C0000019848F80080A7684FEAD70ABAF1200F48
:104C100028BF04F0B6FD47B3CDF800A004EBCA00EE
:104C2000D4F8149000F1280AD346102F38BF04F0AE
:104C3000A8FD2068009920FA01F2D10705D4009957
:104C400005FA01F10843206007E0DAF8080021695D
:104C500088422CBF834604F094FDCAF80890CBF834
:104C60000C90C9F808B0C9F80CA0C4F8088006F187
:104C700008050198606150E06068C0B3394620467D
:104C8000FFF7EEFD050012D047E015F1400F28BFF9
:104C90004FF0FF370BD205F10B00C7086068FF002B
:104CA00028B139462046FFF713FC050035D1A0682E
:104CB000B8421CD3C11B626910290AD3B8186061BD
:104CC000A16041F001034360095047F003005060C8
:104CD0000AE00021A160616140F003015160801889
:104CE000416841F00101416002F1080515E0E0680A
:104CF00087420DD2C01BA169E0607A18A26140F022
:104D00000100506001F1080547F00300486004E02D
:104D100039462046FFF712FA0546C046C0462846E7
:104D200003B0BDE8F08F00B970472DE9F047A0F15E
:104D30000804C046C046DFF8005528698442C0F028
:104D40007482616801F00302012A00F06E82CA08D1
:104D50004FEAC208CA0708EB040936D4226811F0EA
:104D6000030F00F06482A41A84429044C0F05D8274
:104D700069698C4200F0D880D608202E70D2D4F811
:104D80000CA0A768544508BF04F0FBFCBC4208BF58
:104D900004F0F7FC6068C008C000B0EBC60F18BF95
:104DA00004F0EFFC05EBC60000F128018F4205D0AE
:104DB00029698F4251D3F968A1424ED1BA453DD1FC
:104DC00028680121B140884328604C4580F02D823D
:104DD000D9F80400C10740F12882810700F17A81E7
:104DE000A969894540F0B580E868AC614044E86055
:104DF00040F00101616069698C4202D10021696162
:104E0000A960E969814280F01282DFF8300400680D
:104E100008B9FEF7AAFFA969002900F00882E8682E
:104E2000292824BF2846FEF793FFE869E9688842ED
:104E300080F0FD814FF0FF30E861F8E128308245D5
:104E400006D02869824508D3DAF80800A04204D1C8
:104E5000C7F80CA0CAF80870B7E704F092FCB4E7F2
:104E6000E768A669A7420BD0A168814222D3C8682F
:104E7000A04204BFB868A0421CD1CF60B9601BE05B
:104E800004F114010F6837B904F110010F689FB1E4
:104E900001E011460F6807F114021368002B02BFEE
:104EA00007F110021368002BF3D1814202D30020D6
:104EB000086001E004F065FC002E86D0E06905EB97
:104EC000800000F5987001688C4209D107603800B5
:104ED00011D1E2696868012191408843686074E7F4
:104EE0002869864205D33069A04214BF77613761D3
:104EF00001E004F046FC002F3FF467AF28698742C9
:104F0000ABD3BE61216929B1814226BF39618F616E
:104F100004F037FC606900283FF457AF29698842E4
:104F20009BD37861876150E799F8040000F0030093
:104F300003287FF44AAFC5F80880D9F80400400878
:104F40004000C9F8040048F00100606048F804809F
:104F50006DE16969894508D1A8686C614044A86021
:104F600040F001016160005161E1C008C0004FEAFA
:104F7000D00ABAF1200F804436D2D9F80C70D9F893
:104F80000860B94508BF04F0FCFBB14508BF04F058
:104F9000F8FBD9F80400C008C000B0EBCA0F18BF76
:104FA00004F0EFFB05EBCA0000F128018E4206D0A9
:104FB00029698E42C0F08180F16849457DD1B742B0
:104FC00006D12868012101FA0AF18843286076E0B9
:104FD0002830874205D0286987426ED3B868484593
:104FE0006BD1F760BE606AE0D9F80C70D9F8186030
:104FF0004F450DD0D9F808002969884223D3C168EC
:10500000494504BFB96849451DD1C760B8601CE077
:1050100009F11400076837B909F110000768A7B152
:1050200001E00846076807F114010A68002A02BF78
:1050300007F110010A68002AF3D12969884202D3D6
:105040000021016001E004F09CFB002E37D0D9F86C
:105050001C0005EB800000F59870016889450AD1B5
:105060000760380012D1D9F81C20686801219140EE
:105070008843686023E02869864205D33069484543
:1050800014BF7761376101E004F07BFBBFB1286991
:10509000874212D3BE61D9F8101029B1814226BFD0
:1050A00039618F6104F06DFBD9F8140038B12969BA
:1050B000884202D37861876101E004F062FB48F026
:1050C0000100606048F80480686984420BD1C5F82B
:1050D0000880ACE040084000C9F8040048F0010036
:1050E000606048F804804FEAD807202F22D205EBF1
:1050F000C70000F128094E46B8F1100F38BF04F080
:1051000040FB286820FA07F1C90704D40121B940FF
:105110000843286007E0D9F80800296988422CBFB5
:10512000064604F02EFBC9F80840F460A660C4F8F7
:105130000C907CE05FEA182008BF002123D0B0F576
:10514000803F28BF1F211ED2A0F58071090C01F0FD
:1051500008018840A0F58052120C02F00402904031
:10516000A0F580431B0CC1F10E0103F00203891A64
:10517000C91A984001EBD030C11D28FA01F202F0A3
:10518000010101EB4001002262612261E16105EB56
:1051900081006A6822FA01F3DB0700F5987006D4F3
:1051A000012303FA01F11143696004601CE0006807
:1051B0001F290EBF00214908C1F1190108FA01F1A8
:1051C00000E010464268D208D200424510D0CA0F13
:1051D00000EB820202F1100349001A68002AF0D1A4
:1051E00029698B4211D31C60A061E460A4600EE0C9
:1051F0002A698168904228BF914206D3CC608460BE
:10520000E060A1600020A06101E004F0BAFA286A21
:10521000401E28620BD1D5F8C80100E08068002844
:10522000FCD14FF0FF30286201E004F0AAFAC0463A
:10523000C046BDE8F0870000282F00201034002071
:105240005FF0FF0C1CEAD05114BF614506E0C110AD
:10525000400721F0E04101F16051704779B900F059
:10526000004100020AD0B0FA80FC00FA0CF001F113
:105270006051A1EB0C5101EBD02140057047410278
:105280000CBF40F4E0016FF0000100207047000007
:105290000CB41CB5044604A801900A46009401AB66
:1052A000694607487844183001F0BCFD009A002197
:1052B000117000285CBF0098001B16BC5DF80CFB49
:1052C0009BE9FFFF4FF4001C1CEB410F94BF1CEB4C
:1052D000430F09E041EA030C50EA4C0C52EA0C0C73
:1052E00003D28B4208BF8242704714BF994290425A
:1052F000704780B50022002104F00EFB41EC100B3A
:1053000001BD00004FEAF17CBCF1E04C2CBFBCF5C4
:10531000001F11E05FEA4C0C34BFBCF17F5F2EE050
:105320005FEA9C0C4FEA0C1C4FEA3C0CC10071F187
:1053300000414CEB50707047C90241EA5051C00225
:1053400018BF41F0010141F000414FEA6C50C0F13B
:105350000900212810D240EACC7CCCF1200C11FAB3
:105360000CF070F10040CCF1200C21FA0CF00CF0A4
:10537000004C40EB0C0070474FEACC70704749007E
:1053800011F5001F04D84FEACC10FF30C00570475C
:10539000C81770474FF4001C1CEB410F94BF1CEB67
:1053A000430F09E041EA030C50EA4C0C52EA0C0CA2
:1053B00003D2994208BF9042704714BF8B42824289
:1053C00070470A22002104F04BBB80B5002204F094
:1053D000A3FA41EC100B01BD80B500220221272069
:1053E00004F0D0FB272004F0DEFB01BD80B50020D7
:1053F00000904648006850F0020044490860434865
:10540000006810F00200009000984148414908608F
:105410004FF416503F49486000203E498860002004
:105420003C49C86000203B4908610C20394948616B
:1054300000203849886100203649C8613548FDF7A9
:10544000E1FFFFF7C9FF01BD38B504000D004FF4BF
:10545000FA70FDF70FFF20782F4908702E48017869
:105460002E48FDF7BDFF2C480078012802D126A068
:10547000FDF7B6FF01224FF48071294804F0B1FC1A
:105480004FF6FF73EDB22A0092B221002148FDF7DA
:10549000F4FF00280DD11F48006800684006FAD5C7
:1054A00000202049088000224FF480711C4804F03D
:1054B00098FC0520FDF7DEFE31BD10B50024642008
:1054C000FDF7D8FE1848FDF78BFF0A211748FDF7B6
:1054D0002AFD14480488A4B2002C02D11448FDF718
:1054E0007FFF104800881349088000200D4908807C
:1054F0000520FDF7BFFEA4B221000F48FDF770FFA5
:10550000200080B210BD000073617300303802408B
:1055100000480040403300207434002004D10008CB
:10552000001C02405634002060CD0008BC3300202F
:1055300084CD0008E8010020A8CD000810B50400C3
:10554000002C01D101204FE094F91D00002804D166
:1055500000202077200004F0C3FD02206077CA20DD
:1055600021684862532021684862200000F0B6F9A3
:10557000002806D0FF2021684862042060770120BF
:1055800032E020688068DFF81413084021688860E2
:105590002068806861682269114362691143084389
:1055A00021688860E0682168086120680069A16856
:1055B00050EA0140216808612068C06830F080002E
:1055C0002168C8602068006C30F48020216808647D
:1055D0002068006CA169084321680864FF202168E5
:1055E000486201206077002010BDF8B504000D006E
:1055F000002694F91C00012801D102207DE0012041
:10560000207702206077002A1BD12068806840063E
:1056100001D40020E870287800F07CF90600687852
:1056200000F078F90700A87800F074F9F6B2FFB23C
:10563000390251EA0641C0B20843E97850EA01460E
:1056400014E020688068400604D5287800F06DF9E1
:10565000060001E00020E87028786978090251EA24
:105660000040A9780843E97850EA0146CA20216839
:105670004862532021684862200000F02FF900287A
:1056800008D0FF202168486204206077002020773E
:10569000012032E0DFF8080230402168086020680D
:1056A000806830F480202168886020688068E9681C
:1056B0002A6911430843216888602068C06830F077
:1056C00080002168C8602068806880060DD42000B2
:1056D00000F0EAF8002808D0FF2021684862042082
:1056E000607700202077012007E0FF2021684862D2
:1056F00001206077002020770020F2BD10B50C005B
:1057000000210168896A6160016809694904490CDE
:10571000A16000680068DFF888110140080C10F0F3
:105720003F002070080A10F07F00607011F07F00C9
:10573000A070080C10F04000E070002A0BD1207817
:1057400000F0F3F82070607800F0EFF86070A07857
:1057500000F0EBF8A070002010BDF8B504000D00BB
:10576000002694F91C00012801D1022070E00120DC
:10577000207702206077002A07D16878C00604D518
:10578000687810F0EF000A306870002A15D1E878C8
:1057900000F0C0F80600687800F0BCF80700A878B0
:1057A00000F0B8F8F6B2FFB2390251EA0641C0B2D1
:1057B0000843297850EA413611E0687800F0B5F8DE
:1057C0000600A87800F0B1F80600E87869780902C8
:1057D00051EA0040A9780843297850EA4136CA20A6
:1057E00021684862532021684862200000F076F862
:1057F000002808D0FF20216848620420607700203C
:105800002077012024E0DFF89C00304021684860C8
:105810002068C06830F080002168C8602068806817
:1058200080060DD4200000F03FF8002808D0FF20AB
:10583000216848620420607700202077012007E07B
:10584000FF20216848620120607700202077002037
:10585000F2BD10B50C00002100684068DFF844106C
:105860000140080CE070080A10F01F00607011F091
:105870003F00A070480B10F007002070002A0BD1E9
:10588000E07800F052F8E070607800F04EF8607058
:10589000A07800F04AF8A070002010BDBFFF8FFF75
:1058A0007F7F7F003FFFFF0038B5040000252068A0
:1058B000C06830F0A0002168C86002F0D2FC05008A
:1058C0002068C068800607D402F0CBFC401BB0F50E
:1058D0007A7FF5D9032000E0002032BD38B50400FE
:1058E00000252068C068400612D45FF0FF302168B0
:1058F000C86002F0B6FC05002068C068400607D406
:1059000002F0AFFC401BB0F57A7FF5D9032000E030
:10591000002032BD002101E0491C0A38C0B20A282B
:10592000FAD250EA0110C0B2704700210100C9B29A
:105930000909C9B20A225143C0B210F00F00401841
:10594000C0B27047F446400D40EAC120490006D27B
:1059500000F014F8004248BF6FF00040604700F0CC
:105960000DF84FF0004188428CBF08464042604726
:10597000400D40EAC120490080F00D8040F0004019
:10598000490DA1F58061491C05D4D1F11F0154BF17
:10599000C840C01770474FF000007047F0B44FF098
:1059A000004591EA030F44BF6B4000F025BB00BFE8
:1059B000841A71EB030604D26E40001BB141121928
:1059C00073414FF4001C1CEB410F34BF7CEB4306CA
:1059D00084E00C0DA4EB1356362E7DDC012E43DC47
:1059E00045EAC32343EA525312BFD20292025B0834
:1059F000240545EAC12141EA5051D2EBC02099412A
:105A000025D407D1B0FA80F610FA06F164D0002050
:105A1000203608E0B1FA81F6B140C6F1200220FA42
:105A200002F21143B0404FEAF474B4EB465434F040
:105A300001064FEA74040AD8D6F50016760D04F074
:105A40000044F04061FA06F25040F1404840C00A7C
:105A500040EA415021F0004128BF5FEA500550F173
:105A6000000044EBD12137E045EAC323DB0A45EAD5
:105A7000C121C90AB6F120050EDD42EA0242120C2C
:105A8000C5F1200603FA06F6EB4042EA06056D4230
:105A9000984161F100010DE062FA06F5F2405540CF
:105AA00063FA06FC82EA0C02F3405A406D429041D0
:105AB00061EB030111F4801F05D1641E620502D061
:105AC0006D004041494121F48011430875F10043C4
:105AD00050F1000041EB0451F0BC70471CEB410F4A
