:020000040800F2
:10000000F011002015CD000859B900085BB90008AF
:1000100069B9000877B9000885B900080000000038
:1000200000000000000000000000000093B900087C
:1000300095B900080000000097B90008A5B90008AC
:10004000C9CD0008CDCD0008D1CD0008D5CD000820
:10005000D9CD0008B1B90008DDCD0008E1CD000818
:10006000E5CD0008E9CD0008EDCD0008F1CD000890
:10007000F5CD0008F9CD0008FDCD000801CE00083F
:1000800005CE000809CE00080DCE000811CE0008EC
:1000900015CE000819CE00081DCE000805BA0008CC
:1000A00021CE000825CE000829CE00082DCE00085C
:1000B00031CE000835CE000839CE00083DCE00080C
:1000C00041CE000845CE000849CE00084DCE0008BC
:1000D00051CE0008B3B9000855CE0008BDB90008DC
:1000E000F1B9000859CE00085DCE000861CE0008C5
:1000F00065CE000869CE00086DCE000871CE0008FC
:1001000075CE000879CE00087DCE000881CE0008AB
:1001100085CE000889CE0008C7B900088DCE00083A
:1001200091CE000895CE000899CE00089DCE00081B
:10013000A1CE0008A5CE0008A9CE0008ADCE0008CB
:10014000B1CE0008B5CE0008B9CE0008BDCE00087B
:10015000C1CE0008C5CE0008C9CE0008CDCE00082B
:10016000D1CE0008D5CE0008D9CE0008DDCE0008DB
:10017000E1CE0008E5CE0008E9CE0008000000004E
:10018000EDCE0008F1CE0008BFF34F8FDFF8A807CF
:10019000006810F4E060DFF8A4170843DFF8981750
:1001A0000860BFF34F8F00BFFDE780B5DFF8900711
:1001B00002F0BCFD002000F057F9012000F054F9D6
:1001C000022000F051F9032000F04EF9042000F065
:1001D0004BF9052000F048F9062000F045F907200A
:1001E00000F042F90020DFF85C1708700020DFF80B
:1001F000581708700020DFF8541708700020DFF847
:10020000501708704FF47A73012293A1DFF8440766
:1002100002F0D9FD01BD38B5DFF83C0702F086FDDC
:10022000002400258DA1DFF8340703F075F90400E0
:100230008AA1002003F070F9050094F9000031381C
:10024000052805D394F90010DFF8140702F06EFDBD
:1002500083A1280003F086F9002804D194F9000056
:1002600001F0F2FA0FE07FA1280003F07BF90028EB
:1002700004D194F9000001F0BBF904E02900DFF893
:10028000E40602F053FD31BD2DE9F047ADF5BC6D3C
:10029000DFF8D40602F04AFDFAA84FF4FA7103F031
:1002A00087F95FF0000A002400255FF00008684627
:1002B0004FF47A7103F07CF900265FF030090127D2
:1002C000DFF89816684603F077F9684603F096F968
:1002D0008046002000F0C8F8012000F0C5F8022098
:1002E00000F0C2F8032000F0BFF8042000F0BCF8D2
:1002F000052000F0B9F8062000F0B6F8072000F05D
:10030000B3F80020DFF83C1608700020DFF838163C
:1003100008700020DFF8341608700020DFF830166F
:100320000870CBA1684603F0F7F88246BAF1000FD7
:100330007AD0761C5146FAA803F03EF99DF9E8936D
:10034000504603F05BF945196D1C684615EB000A31
:10035000BFA1504603F0E0F88246454501DB5FF05F
:10036000000A4FFA89F9B9F1300F10D043D3B9F12F
:10037000320F18D011D3B9F1340F20D019D3B9F1FD
:10038000360F2CD021D3B9F1370F2ED033E0FAA994
:10039000002000F0EDFA040035E0FAA9012000F099
:1003A000E7FA04002FE0FAA9022000F0E1FA0400C5
:1003B00029E0FAA9032000F0DBFA040023E0FAA9FF
:1003C000042000F0D5FA04001DE0FAA9052000F091
:1003D000CFFA04000120DFF89415087013E0FAA9A1
:1003E000062000F0C5FA04000DE0FAA9072000F08D
:1003F000BFFA040007E000274FFA89F94946DFF801
:100400002C0D02F093FC14F1010F8FD14FFA89F9F2
:100410004946DFF81C0D02F089FCFFF7C6FE0120FB
:10042000DFF8101D087013E0012E11DB002F0FD034
:10043000DFF8040D02F07AFC0120DFF814150870D3
:100440000020DFF8F01C0870DFF8100502F020FA39
:100450000DF5BC6DBDE8F0875B0000002C000000CE
:10046000300000003100000070B5040000200025BD
:10047000052C79D1002470E014F1310040B201F074
:10048000E3F90020DFF8B41C802202FB041108709D
:100490000020DFF8A81C802202FB041188770020CE
:1004A000DFF8981C802202FB041108625FF0FF3025
:1004B000DFF8881C802202FB041188620020DFF82C
:1004C0007C1C802202FB041148620020DFF86C1CB7
:1004D000802202FB041108644FF47A70DFF85C1C80
:1004E000802202FB041148660020DFF8501C8022A5
:1004F00002FB041181F858000020DFF8401C802224
:1005000002FB041188660020DFF8301C802202FB09
:10051000041181F844000020DFF8201C802202FB37
:10052000041181F84E000020DFF8101C802202FB2D
:100530000411C866DFF8040C802101FB04000022CE
:100540000023C0E91C23DFF8F40B802101FB040029
:1005500000220023C0E91E23641C052C8CDBDFF87D
:10056000E00B02F0E3FB71E0062C00DB641EDFF819
:10057000D40B482101FB040000220023C0E906231C
:10058000DFF8C00B482101FB040000220023C0E972
:1005900004230020DFF8AC1B482202FB0411086092
:1005A0000020DFF8A01B482202FB04110863DFF8DB
:1005B000940B482101FB040000220023C0E908231A
:1005C000DFF8800B482101FB040000220023C0E972
:1005D0000A230020DFF86C1B482202FB0411086488
:1005E000DFF8600B482101FB04000021416300207B
:1005F000DFF8501B482202FB041188630620DFF855
:10060000441B482202FB0411C863DFF8380B482161
:1006100001FB0400006C0500002817D0012601E052
:100620002800761CDFF81C1B482202FB0411096815
:100630008E4206DAD0F8885003F0E7FF002DEFD1A4
:1006400004E02100DFF8000B02F070FB70BD000039
:100650003B000000F8B52DED028B94B0DFF8EC0AFA
:1006600002F064FB0FA8142102F0A2FF9FEDAF8AF5
:1006700000250024002602A8342102F099FF00275B
:100680004FF47A730122AAA1B24802F09CFB002425
:1006900036E097ED148A39000FA802F08DFF019023
:1006A000009518EE100A04F03DFA02000B00DFF886
:1006B000A01A02A804F05EFA0FA80190009518EEA7
:1006C000100A04F02FFA02000B00DFF8880A02F08B
:1006D0002DFB02A802F092FF4FF47A73020092B24F
:1006E00002A99C4802F06FFBD7F88870761CDFF8EF
:1006F000540A482101FB040000688642C9DB641CDF
:10070000072C3EDADFF83C0A482101FB04000068B0
:100710000128F4DBDFF82C0A482101FB0400076CF8
:10072000DFF8340A282101FB04000568DFF8280AF5
:10073000282101FB040090ED098A009518EE100AAB
:1007400004F0F0F902000B00DFF8101A02A804F020
:1007500011FA009518EE100A04F0E4F902000B00FB
:10076000DFF8FC0902F0E2FA02A802F047FF0200FB
:100770004FF47A7392B202A9764802F024FB002665
:10078000B5E74FF47A73012269A1724802F01BFBAE
:10079000DFF8F80D02F0CAFA14B0BDEC028BF1BD1F
:1007A0002DE9F0412DED028B88B000275FF00008A5
:1007B0009FED5E8A0024002502A8142102F0F8FEB5
:1007C000DFF8300D02F0B2FA00263BE0DFF87409E2
:1007D000482101FB060090ED000AB8EEC00A88EE41
:1007E000008ADFF86009482101FB060080ED028ADB
:1007F000DFF86409282101FB060080ED098ADFF893
:100800004409482101FB0600806B002806D1DFF86F
:100810003409482101FB060080ED0D8ADFF8240928
:10082000482101FB0600806B401C032190FBF1F284
:1008300001FB1200DFF80C19482202FB0611886345
:100840000025761C072E6BDA9FED388ADFF8F40856
:10085000482101FB0600076C002F17D1F1E797ED47
:10086000160AB8EEC00AD7ED140A80EE800A87EDAA
:10087000140A97ED140A38EE008A786D844201DA82
:100880007C6DB846786D4519D7F88870002F2CD04C
:10089000B86D0190786D0090386D04F043F9020056
:1008A0000B003900DFF8340D02F040FAB86D002873
:1008B00002D0786D1F28D2DB002038653A001DA1D8
:1008C00002A804F057F902A802F098FE4FF47A73D8
:1008D000020092B202A91F4802F075FA3A003100F4
:1008E000DFF8000D02F022FAC3E7DFF86C082821D8
:1008F00001FB060006601F2DFFF668AFDFF8580801
:10090000282101FB0600DFF8E01C41624146DFF8C8
:100910004808282202FB0600001D02F04DFE6EE78B
:1009200008B0BDEC028BBDE8F081000000000000C3
:1009300023000000212573000CED00E00400FA05FF
:1009400004CA0008872F0020882F0020922F002043
:10095000822F0020E82D002020CA0008F02100206E
:10096000E8C30008D0C2000844C70008832F002055
:100970002DE9F8432DED048B9EB0040088465FF00E
:10098000000900256846782102F012FE00260026A4
:10099000002500209FED978B9FED969B9FED958BFB
:1009A0009FED949B002795A1404602F0B5FD81463E
:1009B00009E092A1002002F0AFFD81466846F6B240
:1009C00040F82690761CB9F1000FF2D1F6B20A2E4B
:1009D0000BDA052C09D0F6B232002100DFF80C0C3E
:1009E00002F0A4F95FF0FF309AE3052C40F0088292
:1009F000009804F0D9F8050000264AE0DFF83C270B
:100A0000802303FB072212EB81026B46F6B25FF0F4
:100A1000050C0CFB06FC13EB8C031B69CB56303B1F
:100A20009362DFF81827802303FB072212EB810271
:100A3000926A062A11DBDFF80427802303FB0722D2
:100A400012EB8102DFF8F4365FF0800C0CFB073309
:100A500013EB81039B6A5B1E9362DFF8E826DFF8E5
:100A6000DC365FF0800C0CFB073313EB81039B6AD1
:100A70005FF0480C0CFB0322D763491CC0B28142D3
:100A8000BCDB0020DFF8B416802202FB07110862ED
:100A9000761CF6B2EDB2AE4280F0B0816846F6B296
:100AA000052101FB06F110EB8100806890F9000040
:100AB000B0F131076846F6B2052101FB06F110EBF3
:100AC00081004168DFF87406802202FB070002F013
:100AD00073FD6846F6B2052101FB06F110EB8100BB
:100AE00080680078DFF85416802202FB07118877AF
:100AF000DFF84806802101FB070090F91E0031381D
:100B000004280ED3DFF83406802101FB070090F99A
:100B10001E202100DFF80C0C02F008F95FF0FF3016
:100B2000FEE26846F6B2052101FB06F110EB8100FA
:100B3000406904F03DF8DFF80406802101FB07005E
:100B400080ED1E0BDFF8F405802101FB0700C16F6B
:100B5000806F0022002304F033F80CD3DFF8DC05AB
:100B6000802101FB0700C16F806F0122DFF8CC3CC0
:100B700004F03EF80ED8DFF8C405802101FB070021
:100B8000D0E91E232100DFF8B80C02F0CFF85FF0A7
:100B9000FF30C5E26846F6B2052101FB06F110EB15
:100BA0008100C06804F000F8DFF89015802202FB95
:100BB00007110864DFF88405802101FB0700006C41
:100BC00005283FF465AFDFF87405802101FB0700BD
:100BD000006C401E072813D3DFF86005802101FB5D
:100BE0000700026C2100DFF85C0C02F09FF85FF058
:100BF000FF3095E200000000000000002C00000023
:100C0000DFF83805802101FB0700006C04282BD198
:100C10006846F6B2052101FB06F110EB8100006980
:100C2000002141716846F6B2052101FB06F110EB87
:100C300081000169DFF80405802202FB07004430CF
:100C400002F0BAFC6846F6B2052101FB06F110EB92
:100C500081000069811DDFF8E404802202FB0700A7
:100C60004E3002F0A9FC0CE7DFF8D004802101FB34
:100C70000700006C03282BD16846F6B2052101FB62
:100C800006F110EB81000069002141716846F6B25F
:100C9000052101FB06F110EB81000169DFF89C04DE
:100CA000802202FB0700583002F086FC6846F6B24C
:100CB000052101FB06F110EB81000069811DDFF8C1
:100CC0007C04802202FB07004E3002F075FCD8E65F
:100CD000DFF86804802101FB0700006C06286ED154
:100CE000D3A16846F6B2052202FB06F210EB8200A1
:100CF000006902F011FC8146484602F07FFCC0B258
:100D0000082809DBC0B202002100DFF86C0C02F0F9
:100D10000DF85FF0FF3003E2C0B2DFF8201480224C
:100D200002FB07114862002137E0DFF8102480231E
:100D300003FB072212EB810211F90930303B936269
:100D4000DFF8F823802303FB072212EB8102926A6B
:100D5000062A11DBDFF8E423802303FB072212EBD2
:100D60008102DFF8D8335FF0800C0CFB073313EB04
:100D700081039B6A5B1E9362DFF8C823DFF8BC33F4
:100D80005FF0800C0CFB073313EB81039B6A5FF071
:100D9000480C0CFB0322D763491CC0B28142C4DB60
:100DA000A3A1002002F0B8FB8146484603F000FFF3
:100DB000E248802101FB070080ED1C0B61E66846DC
:100DC000F6B2052101FB06F110EB8100006902F08B
:100DD00015FCC0B2082809DBC0B202002100DFF810
:100DE000980B01F0A3FF5FF0FF3099E1C0B2D34947
:100DF000802202FB0711486200213FE600208FE1BC
:100E0000062C00DB641ECF48482101FB040044602F
:100E1000009803F0C9FECB49482202FB0411086088
:100E2000C848482101FB04000068001E0B280CD3B1
:100E3000C448482101FB040002682100DFF8480C87
:100E400001F074FF5FF0FF306AE10021019803F0C8
:100E5000E6FEB0EE408AF0EE608A0021029803F0D0
:100E6000DEFEB0EE409AF0EE609A51EC180B53ECB7
:100E7000192B03F0BDFE12D851EC180B00220023F1
:100E800003F0D4FE0BD08DED008B53EC192B210019
:100E9000DFF8F80B01F04AFF5FF0FF3040E1A948AE
:100EA000482101FB040080ED048BA648482101FB8A
:100EB000040080ED069B0021049803F0B0FEB0EE24
:100EC000408AF0EE608A0021039803F0A8FEB0EE9D
:100ED000409AF0EE609A51EC190B53EC182B03F08A
:100EE00087FE12D851EC180B0022002303F09EFE5F
:100EF0000BD08DED009B53EC182B2100DFF8480C34
:100F000001F014FF5FF0FF300AE18E48482101FB39
:100F1000040080ED088B8B48482101FB040080ED24
:100F20000A9B00208749482202FB04110863002025
:100F30008449482202FB041108648248482101FBCD
:100F400004000021416300207E49482202FB041175
:100F5000886300260CE07B48482101FB0400006CFC
:100F6000C5F888007748482101FB04000564761C19
:100F7000F6B27448482101FB04000068864280F202
:100F8000CE808C2003F0E6F905006846F6B2092110
:100F900001FB06F110EB81004169280002F00CFB17
:100FA0006846F6B2092101FB06F110EB8100816968
:100FB00015F11E0002F000FB6846F6B2092101FBA4
:100FC00006F110EB8100C16915F15C0002F0F4FA42
:100FD0006846F6B2092101FB06F110EB8100006AB8
:100FE00003F0E2FDA866A86E001E332808D3AA6E9F
:100FF0002100DFF8580B01F099FE5FF0FF308FE021
:101000006846F6B2092101FB06F110EB8100406A47
:1010100003F0CAFDE866E86E001E1F280AD3EA6ED8
:101020002100DFF82C0B01F081FE5FF0FF3077E04C
:101030007C0000006846F6B2092101FB06F110EBC6
:101040008100806A03F0B0FD2867286F001E0A281F
:1010500008D32A6F2100DFF8000C01F067FE5FF073
:10106000FF305DE06846F6B2092101FB06F110EBA6
:101070008100C16A15F1740002F09EFA6846F6B26A
:10108000092101FB06F110EB8100006B03F08CFDE0
:10109000C5F88000D5F88000001EDFF8C01B88422C
:1010A00009D3D5F880202100DFF8B40B01F03EFE13
:1010B0005FF0FF3034E06846F6B2092101FB06F12B
:1010C00010EB8100406B03F06FFDC5F88400D5F88C
:1010D0008400001EDFF8841B884209D3D5F88420E1
:1010E0002100DFF8800B01F021FE5FF0FF3017E0F8
:1010F00000206865002028650020A8650020C5F84C
:1011000088001048482101FB0400006C00287FF48F
:1011100022AF0C48482101FB0400056427E70020AA
:101120001EB0BDEC048BBDE8F283000064C700086C
:1011300084C70008932F00203CCA0008D82500204F
:10114000A4C70008582800200CC400084CCB000895
:101150003CCD0008C4C70008282C002030CD000872
:1011600058CA00082DE9F04190B000270026002061
:101170000AA8142102F01CFA5FF000080024684657
:10118000282102F015FA0025DFF8C80B01F0CEFD8A
:10119000002654E13100DFF8C00B01F0C7FD00204C
:1011A000DFF8B81B482202FB0611086300F0A4F91F
:1011B000002F6ED0386D03F0B5FC02000B00DFF895
:1011C0009C0B482101FB0600416A006A03F0F8FC11
:1011D00013D3386D03F0A6FCDFF8802B482303FB04
:1011E0000622D36A926A03F0EBFC14D297ED140A3C
:1011F000B5EE400AF1EE10FA0DD0DFF8600B482191
:1012000001FB0600006B401CDFF8501B482202FB6C
:10121000061108630DE097ED140AB5EE400AF1EEF1
:1012200010FA01D1641C04E06846396D40F82510BD
:101230006D1C002078650020B86500203865D7F85F
:101240008870DFF8180B482101FB0600006BDFF8FF
:101250000C1B482202FB0611096888429AD0DFF86D
:10126000FC0A482101FB060000688442A0D131003D
:10127000DFF8EC0A01F05AFD002400F03DF9DFF838
:10128000E40A802101FB080090F91E0000F046F9F5
:101290008EE7022DC0F28D802900684601F066FCC1
:1012A000002E05D0022E44D023D3032E61D080E03F
:1012B000684610EB8500001F90ED000ADDED000A86
:1012C00030EE600ADFEDB20AB4EE600AF1EE10FA19
:1012D0000EDBDFF8940A01F029FD00F00DF9DFF8CC
:1012E000840A802101FB080090F91E0000F016F925
:1012F0005FE0684610EB850090ED000ADDED000A26
:1013000030EE600ADFEDB30AB4EE600AF1EE10FAD7
:101310000EDBDFF8580A01F009FD00F0EDF8DFF808
:10132000440A802101FB080090F91E0000F0F6F845
:101330003FE0684610EB850090ED000ADDED000A05
:1013400030EE600ADFEDA40AB4EE600AF1EE10FAA6
:101350000EDBDFF81C0A01F0E9FC00F0CDF8DFF845
:10136000040A802101FB080090F91E0000F0D6F865
:101370001FE0684610EB850090ED000ADDED000AE5
:1013800030EE600ADFED960AB4EE600AF1EE10FA74
:101390000EDBDFF8E00901F0C9FC00F0ADF8DFF882
:1013A000C409802101FB080090F91E0000F0B6F886
:1013B000FFE70025DFF8AC09802101FB0800006A87
:1013C00001283BD1DFF89409482101FB0600806B1E
:1013D000022833DBDFF88C09802101FB0800006C58
:1013E00005282BDADFF87409482101FB060090ED8F
:1013F000020ADFF86809482101FB0600D0ED0D0A5A
:1014000030EE600A10EE100A03F08CFB31F0004160
:10141000DFF86429DFF8643903F0D2FB22D2DFF869
:10142000600901F083FC00F067F8DFF838098021DB
:1014300001FB080090F91E0000F070F8761C072EE2
:1014400055DADFF81809482101FB0600D0F83C8086
:10145000DFF80809482101FB0600076C002F7FF424
:10146000A7AEEBE7DFF8FC08802101FB0800006C69
:10147000012819D1DFF8E408482101FB060090EDAE
:10148000020ADFF8D808482101FB0600D0ED0D0A5A
:1014900030EE600AB5EE400AF1EE10FA04D5DFF83E
:1014A000B40B01F043FCBEE7DFF8B808802101FB74
:1014B0000800006C022819D1DFF8A008482101FBC0
:1014C000060090ED020ADFF89408482101FB0600AF
:1014D000D0ED0D0A30EE600AB5EE400AF1EE10FADA
:1014E00004DDDFF8500C01F021FC9CE7A6E710B00A
:1014F000BDE8F081E4C7000880B5DFF83C0C01F0DE
:1015000015FC01F00DFB01F0F9FA40F6B83003F0DC
:10151000D5FB01F0F9FA01F0FDFA01BD3EB504007A
:1015200064B2B4F1310564B2B4F1310005282BD2B4
:10153000DFF83008802101FB0500C06E002823D1B0
:1015400064B22100DFF8CC0B01F0F0FB200040B2C8
:1015500000F07AF90120DFF80C18802202FB051157
:10156000C86664B22200DFF8D41B684603F002FBB1
:10157000684602F043F84FF47A73020092B269466B
:10158000DFF8BC0B01F01FFC37BD000064CB000886
:101590000100404010B540B2B0F1310440B2B0F1AA
:1015A0003101052914D2DFF8BC17802202FB041197
:1015B000C96E01290CD140B20100DFF8880B01F09F
:1015C000B5FB0020DFF89C17802202FB0411C866DF
:1015D00010BD00000100A0410100A04018BA0008A1
:1015E0000100004004C8000800401CC630C40008C8
:1015F000F0B58FB0040000F0C1F902A8342101F069
:10160000D7FF012564B2B4F1300600208DF8040044
:10161000002700F0B3F964B2312C07D024D3332C67
:1016200010D009D3352C19D012D31DE00821DFF8D2
:10163000180B03F091FB1EE00821DFF8100B03F0FC
:101640008BFB18E00821DFF8080B03F085FB12E0A4
:101650000821DFF8000B03F07FFB0CE00821DFF826
:10166000F80A03F079FB06E0002564B22100DFF8F8
:10167000EC0A01F05BFB002D46D001A803F092FBC1
:101680009DF80400002841D0DFF8D40A0079FF2833
:101690003CD1DFF8D006802101FB060050F8600C39
:1016A000012805D164B22100DFF8B80A01F03EFB41
:1016B000002D29D00120009064B22300DFF8A40699
:1016C000802101FB0600B0F18002DFF89C1A02A81D
:1016D00003F050FA02A801F091FF4FF47A73020070
:1016E00092B202A9DFF8580A01F06DFB0120DFF881
:1016F0007416802202FB061141F8600C64B22100CE
:10170000DFF8BC0B01F012FB0FB0F0BD7F1C032F04
:10171000FFF681AF64B22100DFF8A80B01F006FBF1
:10172000F2E70000F8C20008F0B59FB00400002006
:101730000026002500276846142101F039FF002209
:1017400005A9DFF8840B03F047FC9DF815309DF8E0
:101750001420DFF8781B684603F00CFA6946DFF8BE
:101760000406802202FB0400443001F025FFDFF86C
:10177000F405802101FB040010F15801684601F0D6
:101780001BFF91A101F0C8FE0BE001000AA8142282
:1017900002FB060001F010FF8BA1002001F0BCFE4F
:1017A000761C0028F1D10026DFF8B805802101FB66
:1017B000040010F14401684601F0FEFE82A101F030
:1017C000ABFE0BE0010014A8142202FB060001F09E
:1017D000F3FE7DA1002001F09FFE761C0028F1D1D0
:1017E00019A803F0E1F906000FA803F0DDF9871945
:1017F0003C2F07DB3C2097FBF0F53C2097FBF0F1FA
:1018000000FB117714A803F0CFF906000AA803F033
:10181000CBF980194519182095FBF0F100FB115503
:101820003B002A00DFF8A41ADFF83805802505FB05
:101830000400443003F09EF91FB0F0BD0088C3409F
:1018400020C3000818C10008F0B58FB0040002A83A
:10185000342101F0ADFE012564B2B4F13006002060
:101860008DF80400002700F089F864B2312C07D00D
:1018700024D3332C10D009D3352C19D012D31DE02A
:101880000821DFF84C0A03F067FA1EE00821DFF8B0
:10189000440A03F061FA18E00821DFF83C0A03F07B
:1018A0005BFA12E00821DFF8340A03F055FA0CE085
:1018B0000821DFF82C0A03F04FFA06E0002564B295
:1018C0002100DFF8200A01F031FA002D46D001A8EE
:1018D00003F068FA9DF80400002841D0DFF8800882
:1018E000007900283CD1DFF87C04802101FB060050
:1018F00050F8600C002805D164B22100DFF8E80937
:1019000001F014FA002D29D00020009064B22300C9
:10191000DFF85004802101FB0600B0F18002DFF8FF
:10192000481802A803F026F902A801F067FE4FF458
:101930007A73020092B202A9DFF8040801F043FAB8
:101940000020DFF82014802202FB061141F8600C11
:1019500064B22100DFF8940901F0E8F90FB0F0BD9E
:101960007F1C032FFFF681AF64B22100DFF8400D2A
:1019700001F0DCF9F2E7000068BF000800B587B0AD
:10198000002201A9DFF8400903F026FB0022694686
:10199000DFF8340903F0CBFB9DF802309DF80120FD
:1019A0009DF8030010F5FA61DFF8440901F0BEF973
:1019B0009DF806309DF805209DF80410DFF8F40C22
:1019C00001F0B4F907B000BD3A000000F8B504001A
:1019D0000026002500272100DFF8180901F0A6F9EC
:1019E000DFF88003802101FB0400456A002647E000
:1019F000DC48802101FB040010EB8600876AD74891
:101A0000482101FB0700806803F08CF8D34A482383
:101A100003FB07225369126903F0D2F80ED2D148B2
:101A2000802101FB0400006A002807D1CD488021F5
:101A300001FB040090F91E00FFF7DAFDC7484821BA
:101A400001FB0700806803F06DF802000B00C3483B
:101A5000482101FB0700C169806903F0B1F80ED28B
:101A6000C048802101FB0400006A012807D1BD485D
:101A7000802101FB040090F91E00FFF7E5FE761CB3
:101A8000AE42B5DBF1BD000098BF000858BA0008AF
:101A9000F8B504000026002500272100DFF85808CB
:101AA00001F044F9AF48802101FB0400456A00269B
:101AB00047E0AC48802101FB040010EB8600876AF8
:101AC000A648482101FB0700806803F02BF8A34AD1
:101AD000482303FB07225369126903F071F80ED201
:101AE000A048802101FB0400006A012807D19D481D
:101AF000802101FB040090F91E00FFF7A5FE974826
:101B0000482101FB0700806803F00CF802000B007D
:101B10009248482101FB0700C169806903F050F831
:101B20000ED29048802101FB0400006A002807D1F2
:101B30008C48802101FB040090F91E00FFF758FD3E
:101B4000761CAE42B5DBF1BD98BA000894BC000823
:101B5000D8BA000870B5ACB004001FA8342101F059
:101B600027FD12A8342101F023FD05A8342101F03E
:101B70001FFD002500202100DFF8400B01F0D6F802
:101B80007848802101FB040010F14E027548802145
:101B900001FB040010F15801DFF8240B01F0C6F836
:101BA0007048802101FB040010F14E0112A801F0E1
:101BB00003FD67A101F0B0FC0BE0010005A80A22BB
:101BC00002FB050001F0F8FC61A1002001F0A4FC7B
:101BD0006D1C0028F1D1002D04D1DFF8E80A01F0D6
:101BE000A5F837E005A802F0DFFF05003C260DF15F
:101BF0001E0002F0D9FF06FB05004EF660214843A7
:101C00005849802202FB041148665648802101FB96
:101C10000400406E5349802202FB041188660120B3
:101C2000DFF8A41A087000226946DFF89C0603F06A
:101C3000D3F99DF801309DF80020DFF890161FA819
:101C400002F098FF1FA94748802202FB040044309D
:101C500001F0B2FC2CB070BD18BB0008A1860100D9
:101C600044C1000870C1000870B5A8B004001AA8EB
:101C7000342101F09DFC0DA8342101F099FC684647
:101C8000342101F095FC002500202100DFF82C0A0A
:101C900001F04CF83348802101FB040010F14E02A2
:101CA0003048802101FB040010F14401DFF8D80B1B
:101CB00001F03CF82B48802101FB040010F14401A5
:101CC0001AA801F079FC2748802101FB040010F1DB
:101CD0004E010DA801F070FC1DA101F01DFC0BE0F0
:101CE000010068460A2202FB050001F065FC18A10C
:101CF000002001F011FC6D1C0028F1D1002D04D151
:101D0000DFF8880B01F012F820E0684602F04CFF83
:101D100005003C260DF10A0002F046FF06FB050017
:101D20004EF6602148430F49802202FB04114866A9
:101D30000C48802101FB0400406E0A49802202FB0E
:101D4000041188660120DFF8AC1D087028B070BD52
:101D50003A00000024C8000844C8000858280020A1
:101D600054C40008D82500209CC10008C8BF000842
:101D7000C8C10008F4C100089A9999999999B93F86
:101D80000CBD0008F8B52DED028BA0B004000026B4
:101D90000025002712A8342101F00AFC05A83421EF
:101DA00001F006FC05A8342101F002FC002000200F
:101DB0009FEDA98BDFF89C0B0078002840F0038191
:101DC0002100DFF8940B00F0B1FFDFF8740D8021E3
:101DD00001FB0400456A002667E051EC180B002265
:101DE000DFF8783B03F01CFA03F0ECFADFF8501D43
:101DF000802202FB04114866DFF8440D802101FBBC
:101E00000400406EDFF8381D802202FB0411886652
:101E10000120DFF8B418087053EC182B2100DFF80C
:101E2000400B00F083FF00226946DFF89C0403F0BA
:101E3000D3F89DF801309DF80020DFF8901412A827
:101E400002F098FE12A9DFF8F80C802202FB0400D1
:101E5000443001F0B1FB0020DFF8081B0860DFF818
:101E6000080B482101FB0700806802F05BFE0200BE
:101E70000B00DFF8F40A482101FB0700C169806903
:101E800002F09EFE10D2DFF8B80C802101FB0400A6
:101E9000006A012808D1DFF8A80C802101FB0400AA
:101EA00090F91E00FFF7D0FC761CAE4280F28780CE
:101EB000DFF88C0C802101FB040010EB8600876AA0
:101EC000DFF8A40A482101FB0700DFF8E81B816066
:101ED000DFF8940A482101FB0700806802F022FE27
:101EE000DFF8842A482303FB07225369126902F0B2
:101EF00067FEB4D2DFF8480C802101FB0400006AC1
:101F00000028ACD1DFF8600A482101FB0700806897
:101F100002F008FE02000B00DFF84C0A482101FB2A
:101F200007004169006903F079FA41EC180BDFF80A
:101F3000100C802101FB0400416F006F53EC182B43
:101F400003F06EF941EC180BDFF8F40B802101FB74
:101F50000400C16F806F0022002302F031FE04D222
:101F6000DFF8C80B00F0E2FE6FE0DFF8D40B802151
:101F700001FB0400C16F806F0022DFF8C03B03F05B
:101F80004FF902000B0051EC180B03F007FB41EC7A
:101F9000180B51EC180B0022DFF8C03B03F040F99E
:101FA00041EC180B51EC180B0022002302F008FE44
:101FB0003FF613AFDFF8A80B00F0B8FE45E00120B4
:101FC000DFF890190870DFF89C0B007800283CD1EE
:101FD0002100DFF8940B00F0A9FEDFF8640B8021EC
:101FE00001FB0400456A00262DE0DFF8540B802138
:101FF00001FB040010EB8600876ADFF86C094821BA
:1020000001FB0700806802F08DFD02000B00DFF885
:102010005809482101FB0700C169806902F0D0FD21
:1020200010D2DFF81C0B802101FB0400006A01289C
:1020300008D1DFF80C0B802101FB040090F91E0091
:10204000FFF702FC761CAE42CFDB20B0BDEC028B6A
:10205000F1BD000058BB00080000000000000000B7
:1020600010B500240020002400E0641C052C4FDA89
:10207000DFF8CC0A802101FB040090F90000302831
:10208000F3D0DFF8BC0A802101FB0400C06E0028F9
:10209000EBD1DFF8AC0A802101FB0400006C0128C1
:1020A00008D002280AD003280CD0042816D006280D
:1020B00020D0DAE72000FFF789FCD6E72000FFF701
:1020C000E7FCD2E7DFF8780A802101FB0400406ECC
:1020D000002802D12000FFF73DFDC6E7DFF8600AC7
:1020E000802101FB0400406E002802D12000FFF790
:1020F000BBFDBAE7DFF85C080078002804D0DFF801
:10210000640A0078002802D12000FFF73BFEACE70C
:1021100010BD000078C40008002003E00021104A30
:102120008154401CDFF8EC1A09888842F6DB7047BE
:102130000000000098BB000874CA000890CD000899
:10214000E82D002064C8000854000020640000202E
:10215000740000208400002094000020F8BF0008D4
:10216000E42E00209CC4000848CD000880B52DED69
:10217000028B00EE100AB8EEC08A00290ED00229A8
:102180001CD00CD3042937D027D3062952D042D3F0
:1021900008296DD05DD3092979D087E08AE018EE4F
:1021A000100A02F0BFFCDFF8742ADFF8743A03F07B
:1021B00037F803F01FFB08EE100A7BE018EE100A58
:1021C00002F0B0FCDFF85C2ADFF85C3A03F028F894
:1021D00003F010FB08EE100A6CE018EE100A02F093
:1021E000A1FCDFF8482ADFF8483A03F019F803F0B9
:1021F00001FB08EE100A5DE018EE100A02F092FCF6
:10220000DFF8302ADFF8303A03F00AF803F0F2FA88
:1022100008EE100A4EE018EE100A02F083FCDFF818
:102220001C2ADFF81C3A02F0FBFF03F0E3FA08EE89
:10223000100A3FE018EE100A02F074FCDFF8042ADE
:10224000DFF8043A02F0ECFF03F0D4FA08EE100ACB
:1022500030E018EE100A02F065FCDFF8F029DFF834
:10226000F03902F0DDFF03F0C5FA08EE100A21E0B4
:1022700018EE100A02F056FCDFF8D829DFF8D8393A
:1022800002F0CEFF03F0B6FA08EE100A12E018EEE4
:10229000100A02F047FCDFF8C429DFF8C43902F065
:1022A000BFFF03F0A7FA08EE100A03E0DFF8B40955
:1022B00000F03CFDB0EE480ABDEC028B01BD000011
:1022C000A4C8000884C80008182F002054CD0008B6
:1022D0005C0000206C0000207C0000208C000020AE
:1022E0009C00002020C20008C4C80008E4C8000800
:1022F00004C9000828C0000858C0000870B52DEDBA
:10230000028B92B006000C0015006846142101F003
:102310004FF99FEDD58A9FEDD48A002005A834217E
:1023200001F046F9002003E0815D05AA8154401CBC
:10233000DFF8E01809888842F6DBDFF8D808018862
:1023400005A803F0C7FA002827D1DFF81C0900F020
:10235000EDFCDFF8181914F1740001F003F90028FE
:1023600039D1E06E042823D105A8A16E081810F811
:10237000010C8DF8020005A8A16E085C8DF8030021
:1023800005A8A16E081840788DF8000005A8A16E78
:10239000081880788DF801004BE02100DFF8D008A4
:1023A00000F0C4FC606D401C6065FFF7B5FE7AE18B
:1023B00005A8A16E085C8DF8020005A8A16E08189A
:1023C00010F8010C8DF8030000208DF800000020AB
:1023D0008DF801002DE0E06E042818D105A8A16E4B
:1023E000081810F8010C8DF8000005A8A16E085C13
:1023F0008DF8010005A8A16E081840788DF802003C
:1024000005A8A16E081880788DF8030011E005A8D2
:10241000A16E081810F8010C8DF8020005A8A16E35
:10242000085C8DF8030000208DF8000000208DF876
:102430000100DFF8401814F15C0001F093F8002867
:102440005CD1684600F050F9B0EE408A18EE100AF0
:1024500002F068FB02000B00DFF81C0800F066FCCD
:10246000D4F88000002803D1D4F8840000281AD0C2
:102470009FED910A88EE008AD4F88400D4F8801089
:10248000401A03F066FA00EE100AB8EEC00A28EE11
:10249000008A18EE100A02F045FB02000B00DFF87C
:1024A000DC0700F043FC002D0CD0022D60D03FD3A0
:1024B000042D00F09D807BD3062D00F0DB80C0F062
:1024C000B780EAE0DFF8B80790ED000AB4EE408A82
:1024D000F1EE10FA28DBDFF8AC0790ED000AB4EE5D
:1024E000480AF1EE10FA1FDB94ED140A30EE080AE8
:1024F00084ED140AA06D401CA06518E0DFF8881771
:1025000014F15C0001F02EF8002808D1684600F0B4
:10251000DDF8216FFFF72AFEB0EE408A96E7DFF87C
:102520006C0700F003FCBEE0606D401C6065B8E025
:10253000DFF85C0790ED000AB4EE408AF1EE10FA85
:1025400012DBDFF8500790ED000AB4EE480AF1EE16
:1025500010FA09DB94ED140A30EE080A84ED140A2F
:10256000A06D401CA06502E0606D401C606598E0B5
:10257000DFF8240790ED000AB4EE408AF1EE10FA7D
:1025800012DBDFF8180790ED000AB4EE480AF1EE0E
:1025900010FA09DB94ED140A30EE080A84ED140AEF
:1025A000A06D401CA06502E0606D401C606578E095
:1025B000DFF8EC0690ED000AB4EE408AF1EE10FA76
:1025C00012DBDFF8E00690ED000AB4EE480AF1EE07
:1025D00010FA09DB94ED140A30EE080A84ED140AAF
:1025E000A06D401CA06502E0606D401C606558E075
:1025F000DFF8B40690ED000AB4EE408AF1EE10FA6E
:1026000012DBDFF8A80690ED000AB4EE480AF1EEFE
:1026100010FA09DB94ED140A30EE080A84ED140A6E
:10262000A06D401CA06502E0606D401C606538E054
:10263000DFF87C0690ED000AB4EE408AF1EE10FA65
:1026400014DBDFF8700690ED000AB4EE480AF1EEF4
:1026500010FA0BDB94ED140A30EE080A84ED140A2C
:10266000A06D401CA06504E000000000606D401CEF
:10267000606516E0B5EE408AF1EE10FA09DB94EDE4
:10268000140A30EE080A84ED140AA06D401CA065FF
:1026900002E0606D401C606503E0DFF81C0600F09E
:1026A00045FBFFF739FD12B0BDEC028B70BD000099
:1026B000C0C40008E4CC000800409C464CC200089E
:1026C0007CBD000890CA0008872F00200178090609
:1026D0004278120483781B029A18C07810184118A7
:1026E00008007047000000002DE9F0412DED048B3B
:1026F000017890F801808478C578B7EE008AC9B275
:10270000802901D3BFEE008ADFED918AC9B280290A
:102710000DD3C9B2080003F02BF90022DFF89C3575
:1027200003F034F903F066F808EE900A04E0C9B249
:1027300000EE101AF8EE408A18EE900A02F0F2F954
:1027400000225FF0804302F06BFD03F053F808EEC7
:10275000900A5FFA88F8B8F1800F0CD318EE900A4F
:1027600002F0E0F90022DFF8583503F00FF903F02A
:1027700041F808EE900A18EE900A02F0D3F9002210
:10278000DFF8403503F002F903F034F808EE900A60
:102790009FED6F9A5FFA88F8B8F1800F0CD35FFA5B
:1027A00088F8404603F0E4F80022DFF8103503F023
:1027B000EDF802F007FE8046EDB2280003F0D8F8ED
:1027C00006000F00E4B2200003F0D2F804000D0070
:1027D0005FFA88F8404603F0CBF80022DFF8E834CF
:1027E00002F01EFD22002B0003F0D0F80022DFF8DB
:1027F000D83402F015FD32003B0003F0C7F802F0B8
:10280000F9FF09EE100A9FEDBC0A89EE009A18EE56
:10281000100A02F087F904000D0018EE900A02F089
:1028200081F941EC110B9FEDC70B03F09AFB51ECC2
:10283000100B22002B0002F0F3FC04000D00B7EE99
:10284000000A39EE000A10EE100A02F06BF92200BD
:102850002B0002F0E5FC02F0CDFF00EE100ABDEC0B
:10286000048BBDE8F08170B504000D00002605E082
:10287000315DDFF8580400F059FA761CAE42F7DB00
:10288000B5A000F053FA70BD88C0000824C9000844
:1028900030B5ADF57F7D0500DFF834040078002801
:1028A0004FD1280000F0AAFE0400641C68461421E1
:1028B00000F07EFE6946200000F058F8462C06DA4B
:1028C00022002900DFF80C0400F030FA3DE0290076
:1028D00005A800F071FE232005A9611801F8010C7C
:1028E000DFF8F4030068012803D1312005A9605402
:1028F00002E0302005A96054002005A96118487045
:10290000002005A961188870641C002003F0E5FD13
:10291000684600F073FE020092B20A21684603F096
:1029200030FE05A800F06AFE020092B2142105A84C
:1029300003F027FE220005A9DFF8A00300F0F6F956
:1029400003E00020DFF8881308700DF57F7D30BDAF
:1029500000000000922F0020B8C00008004CED409D
:10296000D0BC0008682F0020582800207EB4002228
:10297000002300236B4600240025002670C30C3B77
:102980000300002B00D540420A2490FBF4F504FB21
:10299000150430346D465455521C0A2490FBF4F053
:1029A0000128F1DA002B03D52D206B46D054521CA0
:1029B00000206B46D054130006E06846181810F843
:1029C000010CD41A60545B1E002BF6D577BC7047FF
:1029D00030B5ADF57D7D040000256846002100225C
:1029E00000230EC00C3803A84FF47A7100F0E0FD0C
:1029F0000A220021684603F060FE0A220A21684686
:102A000003F05BFE6A460021B54800F08FF9684686
:102A100002F0CAF80500B5F57A7F02DD0A2095FBC1
:102A2000F0F56D1C2800020092B2142103A803F0F7
:102A300044FE2A0003A9AB4800F078F903A828183F
:102A400010F8010C302806D10020A3490860A648E0
:102A500000F06CF912E003A8281810F8010C3128D6
:102A600006D101209C490860A04800F05FF905E00C
:102A70000020994908609E4800F058F903A82818DA
:102A800010F8020C23280FD1002003A9691801F8BF
:102A9000020C03A9200000F08FFD03A9954800F067
:102AA00045F9FDF7F1FB02E0934800F03FF90DF521
:102AB0007D7D30BD295CBF4080B503F0B7FF0028A5
:102AC00004D18E4800F032F9002003E08C4800F079
:102AD0002DF9012002BD80B54FF47A7301224CA17B
:102AE000884800F070F9012080F31388FDF74CFB53
:102AF00001BD0000882F00200000004B80B5082198
:102B0000814802F029F901BD80B508217F4802F013
:102B100023F901BD80B508217D4802F01DF901BDF2
:102B200080B508217B4802F017F901BD78C2000882
:102B300080B50821784802F00FF901BD0000594026
:102B4000D8250020000000000000004080B50821CA
:102B5000724802F001F901BD0A00000000004E4079
:102B6000D8BB00088F2F0020B0BD000880B52DED28
:102B7000028B82B000229FED280A9FED278A90EDFC
:102B8000008A90ED000A01221AE010EB8203D3EDD7
:102B9000000AB4EE608AF1EE10FA03D550F8223044
:102BA00008EE103A10EB8203D3ED000AF4EE400A6F
:102BB000F1EE10FA03D550F8223000EE103A521C14
:102BC0008A42E2DB80ED000A10EB8100001F80EDFD
:102BD000008A10EE100A01F0A5FFCDE9000118EE01
:102BE000100A01F09FFF02000B004D4800F09EF814
:102BF00002B0BDEC028B01BD80B54A4800F096F8EA
:102C0000002003F06AFC484800F090F801BD000085
:102C10007D000000E8010020000000009A999999C9
:102C20009999B93F7B14AE47E17A843FFCA9F1D270
:102C30004D62503F2D431CEBE2361A3FF168E388AA
:102C4000B5F8E43E8DEDB5A0F7C6B03E48AFBC9AEE
:102C5000F2D77A3E3A8C30E28E79453E95D626E818
:102C60000B2E113E7CCB0008E4C4000898CD000870
:102C700048C30008A0CD00082CC50008ACCA000855
:102C80005C2F00200C000020A8CD000808C500081B
:102C9000602F0020100000201400002018000020E9
:102CA000582F002008000020542F0020040000208E
:102CB000642F00201C00002044C90008000060C0F0
:102CC0000000F03F00C05FC000007040B0CD0008C1
:102CD000932F0020E8C0000820000020A4C20008B4
:102CE00050C50008C8CA000874C5000898C5000887
:102CF000E4BD000864C90008BCC5000884C9000818
:102D0000E0C50008E82D0020340000203C00002031
:102D1000240000202C000020440000204C00002053
:102D2000A4C9000804C6000828C600080EB400B5EF
:102D300082B003A9009102466B4601210348784402
:102D40000A3003F037FF06BC5DF810FB099F000056
:102D500010B50400002C01D1012033E0A069002847
:102D6000FFD194F83900002805D1002084F83800FC
:102D7000200004F0E7FF242084F839002068C068B0
:102D800030F400502168C860200000F039FA206853
:102D9000006930F49040216808612068406930F093
:102DA0002A00216848612068C06850F400502168FA
:102DB000C8600020E063202084F83900202084F8D7
:102DC0003A00002010BD2DE9F04182B004000D0052
:102DD00016001F005FF0000894F8390020285DD12C
:102DE000002D02D0B6B2002E01D1012057E094F997
:102DF0003800012801D1022051E0012084F8380078
:102E00000020E063212084F8390001F054FF80465F
:102E1000A684E68403E02878216848606D1CE08C75
:102E2000002828D0E08C401EE084A068B0F5805FC8
:102E300016D10097434600228021200000F0FCF8C4
:102E4000002801D003202AE02888C005C00D216891
:102E500048602069002801D1AD1CE0E76D1CDEE769
:102E60000097434600228021200000F0E5F800286A
:102E7000D1D0032013E000974346002240212000D8
:102E800000F0DAF8002801D0032008E0202084F8C0
:102E90003900002084F83800002000E00220BDE85E
:102EA000F68190F83A30202B28D1002902D092B236
:102EB000002A01D1012022E090F93830012B01D104
:102EC00002201CE0012380F8383081628285C285AF
:102ED0000021C163222180F83A10002180F83810C7
:102EE0000168496951F00101026851610168C968CE
:102EF00051F490710068C160002000E0022070472A
:102F000038B50400206800682168C96822685269E1
:102F10000023002310F00F03002B07D1850605D5F1
:102F20008D0603D5200000F01EF982E0002B70D042
:102F3000D30702D411F4907F6BD010F00103DBB201
:102F4000002B05D0CB0503D5E36B53F00103E363FE
:102F5000430708D512F00103DBB2002B03D0E36B6B
:102F600053F00203E363830708D512F00103DBB2D9
:102F7000002B03D0E36B53F00403E363030708D58E
:102F800012F00102D2B2002A03D0E26B52F0080222
:102F9000E263E26B002A3BD0800604D5880602D5A6
:102FA000200000F0E0F820684069800910F001037B
:102FB000E06B000701D4002B25D0200000F074F84E
:102FC0002068406940061AD52068406930F040000A
:102FD00021684861606B00280DD00FF2F100616B31
:102FE0000865606B04F0D0FF002811D0606B616B46
:102FF000096D88470CE0200000F01DF808E0200073
:1030000000F019F804E0200000F015F80020E0635B
:103010000FE0020605D50A0603D5200000F060F88F
:1030200007E0400605D5480603D5200000F08DF8DE
:10303000FFE731BD704770472DE9F04104000D00F6
:1030400016001F00DDF81880206800682840A8429C
:1030500001D1012000E0002076B2B04221D118F168
:10306000010FF1D0B8F1000F04D001F024FEC01B15
:103070008045E9D22068C06830F4D0702168C8600B
:10308000206840694008400021684861202084F899
:103090003900202084F83A00002084F8380003200A
:1030A00000E00020BDE8F0810168C96831F490714A
:1030B0000268D160016849694908490002685161A4
:1030C000202180F83A1070470000000080B5806B26
:1030D0000021C1850021C184FFF7ADFF01BD0000C3
:1030E00090F8391021292ED18168B1F5805F10D177
:1030F000016A0988C905C90D026851600169002982
:1031000003D1016A891C016209E0016A491C01625C
:1031100005E0016A4A1C0262097802685160C18CAC
:10312000491EC18489B200290BD10168C96831F0F8
:1031300080010268D1600168C96851F040010068EF
:10314000C160002000E00220704780B50168C968B6
:1031500031F040010268D160202180F83910FFF77A
:1031600069FF002002BD80B590F83A10222945D1B0
:103170008168B1F5805F14D1816A0269002A08D1A3
:1031800002685268D205D20D0A80816A891C816268
:1031900019E002685268D2B20A80816A491C8162D1
:1031A00011E00169002906D1816A4A1C8262026825
:1031B00052680A7007E0816A4A1C8262026852689B
:1031C00012F07F020A70C18D491EC18589B20029A3
:1031D00012D10168C96831F490710268D160016848
:1031E00049694908490002685161202180F83A1074
:1031F00005F06CF9002002E0002000E0022002BD92
:103200002DE9F041040000202068006930F44050AE
:10321000E1680843216808612068C068BB4908402C
:10322000A1682269114362691143E26911430843AD
:103230002168C8602068406930F44070A169084383
:1032400021684861E069B0F5004F40F0B080206827
:10325000AF49884203D02068AE49884253D105F077
:10326000DDFF804605F0DAFF060005F0D7FF070016
:1032700005F0D4FF050005F0D1FF192101FB08F18D
:1032800062685200B1FBF2F16422B1FBF2F1192243
:1032900002FB06F263685B00B2FBF3F2192303FB47
:1032A00007F366687600B3FBF6F36426B3FBF6F328
:1032B000642606FB1322D20032326423B2FBF3F2FF
:1032C00012F0F802520012EB0111192202FB05F272
:1032D00063685B00B2FBF3F21923584363685B0039
:1032E000B0FBF3F06423B0FBF3F0642303FB102086
:1032F000C00032306422B0FBF2F010F0070040183A
:103300002168886000E105F079FF804605F076FFCE
:10331000060005F073FF070005F070FF050005F0DB
:103320006DFF192101FB08F162685200B1FBF2F157
:103330006422B1FBF2F1192202FB06F263685B0022
:10334000B2FBF3F2192303FB07F366687600B3FBC5
:10335000F6F36426B3FBF6F3642606FB1322D200D1
:1033600032326423B2FBF3F212F0F802520012EB95
:103370000111192202FB05F263685B00B2FBF3F254
:103380001923584363685B00B0FBF3F06423B0FB80
:10339000F3F0642303FB1020C00032306422B0FB42
:1033A000F2F010F00700401821688860ACE0206857
:1033B0005749884203D020685649884252D105F0C7
:1033C0002DFF804605F02AFF060005F027FF0700C5
:1033D00005F024FF050005F021FF192101FB08F18C
:1033E00062689200B1FBF2F16422B1FBF2F11922A2
:1033F00002FB06F263689B00B2FBF3F2192303FBA6
:1034000007F36668B600B3FBF6F36426B3FBF6F386
:10341000642606FB1322120132326423B2FBF3F25C
:1034200012F0F00212EB0111192202FB05F263689F
:103430009B00B2FBF3F21923584363689B00B0FB77
:10344000F3F06423B0FBF3F0642303FB10200001CE
:1034500032306422B0FBF2F010F00F004018216807
:10346000886051E005F0CAFE804605F0C7FE060000
:1034700005F0C4FE070005F0C1FE050005F0BEFE24
:10348000192101FB08F162689200B1FBF2F164229C
:10349000B1FBF2F1192202FB06F263689B00B2FB5A
:1034A000F3F2192303FB07F36668B600B3FBF6F3E8
:1034B0006426B3FBF6F3642606FB132212013232B4
:1034C0006423B2FBF3F212F0F00212EB01111922A5
:1034D00002FB05F263689B00B2FBF3F21923584329
:1034E00063689B00B0FBF3F06423B0FBF3F064234C
:1034F00003FB1020000132306422B0FBF2F010F028
:103500000F00401821688860BDE8F081F369FFFF73
:10351000001001400014014070B504460D461048EB
:1035200005F0B0FE064644B12946204605F0ABFE44
:103530000419207830B9306070BD3468002CF3D1A4
:10354000002070BD2946204605F0AEFE0019017826
:1035500011B1002100F8011B3060204670BD00BF92
:10356000E4000020820707D010F8012B11F8013B7E
:10357000BAB19A42F6D014E002680B689A42A2F1FE
:10358000013301BF934313F0803F50F8042F51F8EB
:10359000043FF3D010F8012B11F8013B0AB19A4215
:1035A000F8D0D01A70470268531C0360117070473E
:1035B000002205F08BBE00005FEA000C830706D0F6
:1035C00011F8013B00F8013BB3B18307F8D10A6859
:1035D000B2F1013323EA020313F0803F02BF40F847
:1035E000042B51F8042FF3E711F8013B00F8013BDD
:1035F00013B111F8013BF9E76046704700F1010390
:10360000810704D010F8011B89B18107FAD1026843
:10361000B2F10131914311F0803F04BF50F8042F03
:10362000F6E710F8011B11B110F8011BFBE7C01AF7
:103630007047000000F5E0700268914203D34368D0
:103640009A18914202D380680028F5D17047DFF8BC
:103650005807016891B94FF4803181604FF480516F
:1036600041604FF0FF31C16001610421DFF83C2768
:103670004161C2F8BC11DFF83817016001207047C2
:1036800001F1080313F0070305D001F10803C3F1AA
:10369000080303F007035918D21A8161C26042F08F
:1036A00001034B60511828234B60DFF8FC160969B1
:1036B000C16170472DE9F84F064601F1080010F08E
:1036C000070008BF884607D001F10800C0F10800D4
:1036D00000F0070000EB010802F1080010F00700FD
:1036E00006D002F10800C0F1080000F007008218BF
:1036F0001546A5EB0800A0EB030903EB080B43F00C
:103700000300C8F80400AB4528BF05F0F8FD287990
:10371000C00758BF05F0F3FDB9F1100F38BF05F031
:10372000EEFDB069854209D1F0684844F060C6F802
:1037300018B040F00100CBF804006DE170698542DB
:103740000BD1B0684844B060C6F814B040F0010135
:10375000CBF8041040F80B005EE1686800F003014C
:10376000012940F0AD80C008C0000190C0082028A9
:103770003AD2D5F808A0EF680090BD4208BF05F026
:10378000BEFD554508BF05F0BAFD68680099C00840
:10379000C000B0EBC10F18BF05F0B1FD009806EBFB
:1037A000C00000F128018A4507D031698A45C0F080
:1037B0008280DAF80C10A9427DD1574506D1009AD3
:1037C0003068012191408843306076E0283087429C
:1037D00005D0306987426ED3B868A8426BD1CAF869
:1037E0000C70C7F808A068E0EF68D5F818A0AF42E1
:1037F0000CD0A8683169884223D3C168A94204BFAC
:10380000B968A9421DD1C760B8601CE005F1140079
:10381000076837B905F110000768A7B101E008464D
:10382000076807F114010A68002A02BF07F11001B6
:103830000A68002AF3D13169884202D3002101606D
:1038400001E005F05CFDBAF1000F36D0E86906EB47
:10385000800000F5987001688D4208D10760A7B913
:10386000EA697068012191408843706025E0306901
:10387000824508D3DAF81000A84214BFCAF81470C1
:10388000CAF8107001E005F03AFDB7B1306987421F
:1038900011D3C7F818A0296929B1814226BF39611F
:1038A0008F6105F02CFD686938B13169884202D317
:1038B0007861876101E005F022FD01984519814496
:1038C00068684008400068604FEAD90549F0010087
:1038D000CBF8040049F80B90202D23D206EBC5004D
:1038E00000F12807BA46B9F1100F38BF05F007FDFF
:1038F000306820FA05F1C90704D40121A940084322
:10390000306006E0B868316988422CBF824605F015
:10391000F6FCC7F808B0CAF80CB0CBF808A0CBF892
:103920000C7079E05FEA192108BF002023D0B1F5BF
:10393000803F28BF1F201ED2A1F58070000C00F030
:1039400008008140A1F58052120C02F0040291405F
:10395000A1F580431B0CC0F10E0003F00203801A96
:10396000C01A994000EBD130C11D29FA01F202F0D2
:10397000010101EB4000CBF81C000022CBF8142021
:10398000CBF8102006EB8001726822FA00F3DB0707
:1039900001F5987107D4012303FA00F01043706019
:1039A000C1F800B01DE009681F280EBF00204008C4
:1039B000C0F1190009FA00F000E011464A68D20887
:1039C000D2004A4514D0C20F01EB820202F110036B
:1039D00040001A68002AF0D1306983421AD3C3F834
:1039E00000B0CBF81810CBF80CB0CBF808B013E04F
:1039F00032698868914228BF90420BD3C0F80CB05E
:103A0000C1F808B0CBF80800CBF80C100020CBF8B8
:103A1000180001E005F073FC08F10800BDE8E68F2E
:103A20002DE9FA4D0546DFF8800384B0006808B937
:103A3000FFF70DFEDFF870030499806841182F31FD
:103A4000401E21EA00000499814280F0A88105F51A
:103A5000D876B16839B132688018824280F09F818F
:103A60008142C0F09C8105F04DFC00281EBF044639
:103A7000D0F8008014F1010F00F091813068716876
:103A800040443060814238BF01467160A86980BB04
:103A9000286908B1844200D22C610020F0613461B1
:103AA000C6F8148005F12801BF48006868624FF02D
:103AB000FF302862002001F10802C9601160801CFB
:103AC00010312028D2609260F5D3B848854203D1E6
:103AD000A8F12802214629E055F8040CC00805EB9E
:103AE000C000A0F1080108EB0400401AA0F1280270
:103AF0001CE005F5E071084600E08068D0B102687E
:103B000043689A189442F8D1027B120712D4AA692A
:103B100003689A420ED347683B449A420AD208EBA4
:103B200007014160E868A96908EB00022846FFF731
:103B3000A7FD1EE128698442084638BF2C6108EBC6
:103B4000040100E0806880B102688A42FAD1017BFA
:103B500009070AD404604168414441602146049B3E
:103B6000284606B0BDE8F04DA4E5AF6939462846C1
:103B7000FFF760FD01684068401802902F3800F19F
:103B8000080111F0070105D000F10801C1F1080199
:103B900001F00701081807F11001884234BF0097AF
:103BA000009000980830019004F10801009800F19D
:103BB000180A11F007014FF0000BA8F1280005D0FA
:103BC00004F10801C1F1080101F007010A19401AC6
:103BD000AA61E86040F0010151608018282141602D
:103BE00071480069E861019810F0070018BF05F0FE
:103BF00086FB00991B20486005F5E071B1E80C5088
:103C00000198A0E80C503461C6F81480C6F81CB0C6
:103C10000198B061029800E08A460722CAF80420A1
:103C20000AF104010A1D82420BF1010BF4D3BBF12E
:103C3000020FB8BF05F063FB0098B84200F099800E
:103C4000C01BC119C4084A68520852004A6040F0BB
:103C500001017960C051202C20D205EBC40101F193
:103C60002806B046102838BF05F049FB286820FA1E
:103C700004F1C90704D40121A1400843286006E0EB
:103C8000B068296988422CBF804605F038FBB760D0
:103C9000C8F80C70C7F80880FE606AE0010A08BF27
:103CA000002223D0B1F5803F28BF1F221ED2A1F5EC
:103CB0008072120C02F008029140A1F580531B0C97
:103CC00003F004039940A1F58044240CC2F10E02D4
:103CD00004F00204D21A121BA14002EBD131CA1D1A
:103CE00020FA02F303F0010202EB4102FA61002321
:103CF0007B613B6105EB82016B6823FA02F4E40708
:103D000001F5987105D401209040184368600F6058
:103D10001CE009681F2A0EBF00225208C2F11902D6
:103D200000FA02F200E019464B68DB08DB00834230
:103D300010D0D30F01EB830303F11004520023686A
:103D4000002BF0D12869844211D32760B961FF604C
:103D5000BF600EE02A698868914228BF904206D36E
:103D6000C7608F60B860F9600020B86101E005F0BD
:103D7000C6FAE8680499814211D2401AE860A9693C
:103D8000049A5218AA6140F001005060049840F073
:103D90000300486006B001F10800BDE8F08D002086
:103DA00006B0BDE8F08D0000382F0020502A00201A
:103DB0006859883C2DE9F04D0446002688465FEAA4
:103DC0001820C8F1000B08BF002123D0B0F5803FB8
:103DD00028BF1F211ED2A0F58071090C01F0080137
:103DE0008840A0F58052120C02F004029040A0F529
:103DF00080431B0CC1F10E0103F00203891AC91A9A
:103E0000984001EBD030C11D28FA01F202F0010107
:103E100001EB400104EB8100D0F8300118B31F29F9
:103E20000EBF00224A08C2F1190208FA02F200236A
:103E300000E052004568ED08ED00A5EB08055D4582
:103E400003D25FEA050B06460BD04569D70F00EB9E
:103E50008700002D00691CBF85422B460028E8D151
:103E60001846B8BBC6BB0120884040004142084309
:103E70006168084000F0638141420840401E010B28
:103E800001F01001C840420902F00802D040830846
:103E900003F00403D840450805F002055118E84036
:103EA0005918C0F3400729443944F840401804EB3E
:103EB0008000D0F830010DE008464168C908C9000B
:103EC000A1EB080159453CBF8B4606460169002914
:103ED000F2D140690028F0D1002E00F03081A068B6
:103EE000A0EB0800834580F02A8120698642C0F05B
:103EF00024817068C008C00008EB0B0108EB0605C0
:103F0000884218BF05F0FBF9AE4280F01681F768D1
:103F1000D6F818A0B7420CD0B0682169884223D3E4
:103F2000C168B14204BFB968B1421DD1C760B86071
:103F30001CE006F11400076837B906F110000768A5
:103F4000A7B101E00846076807F114010A68002AD2
:103F500002BF07F110010A68002AF3D121698842E3
:103F600002D30021016001E005F0C9F9BAF1000FA8
:103F700038D0F06904EB800000F5987001688E423B
:103F800009D10760380014D1F269606801219140BD
:103F90008843606026E02069824508D3DAF8100083
:103FA000B04214BFCAF81470CAF8107001E005F0EE
:103FB000A6F9BFB12069874212D3C7F818A03069AB
:103FC00030B12169884226BF3861876105F097F9D1
:103FD000706938B12169884202D37861876101E054
:103FE00005F08DF9BBF1100F0CD208EB0B0040F07F
:103FF0000300706008EB0B008019416841F001017B
:10400000416096E048F0030070604BF0010068608A
:104010004FEADB004BF805B020281DD204EBC001AD
:1040200001F12807216821FA00F2D207BB4605D426
:10403000012202FA00F00843206006E0B868216916
:1040400088422CBF834605F05AF9BD60CBF80C506E
:10405000C5F808B0EF606CE05FEA1B2108BF0020E4
:1040600023D0B1F5803F28BF1F201ED2A1F580705C
:10407000000C00F008008140A1F58052120C02F003
:1040800004029140A1F580431B0CC0F10E0003F027
:104090000203801AC01A994000EBD130C11D2BFADF
:1040A00001F202F0010101EB4000E86100226A61C7
:1040B0002A6104EB8001626822FA00F3DB0701F554
:1040C000987106D4012303FA00F0104360600D607C
:1040D0001CE009681F280EBF00204008C0F119002D
:1040E0000BFA00F000E011464A68D208D2005A45A7
:1040F00010D0C20F01EB820202F1100340001A68D7
:10410000002AF0D12069834211D31D60A961ED60BE
:10411000AD600EE022698868914228BF904206D3C4
:10412000C5608D60A860E9600020A86101E005F02D
:10413000E6F806F10800BDE8F08D05F0E0F8002093
:10414000BDE8F08D2DE9F84F04468846606841428D
:104150000840401E010B01F01001C840420902F066
:104160000802D040830803F00403D840450805F056
:1041700002055118E8405918C0F340062944711847
:10418000F040401804EB8000D0F830014168C908C5
:10419000C9000646A1EB080A09E008464168C908BB
:1041A000C900A1EB080151453CBF8A46064601699A
:1041B0000029F2D140690028F0D120698642C0F080
:1041C000C4807068C00808EB0A09C00008EB060B41
:1041D000484518BF05F093F85E4580F0B680F76853
:1041E000B569B7420CD0B0682169884223D3C16851
:1041F000B14204BFB968B1421DD1C760B8601CE0CC
:1042000006F11400076837B906F110000768A7B176
:1042100001E00846076807F114010A68002A02BF96
:1042200007F110010A68002AF3D12169884202D3FC
:104230000021016001E005F062F8002D34D0F06942
:1042400004EB800000F5987001688E4209D1076088
:10425000380011D1F26960680121914088436060A3
:1042600022E02069854205D32869B04214BF6F61FE
:104270002F6101E005F043F8B7B12069874211D3FF
:10428000BD61306930B12169884226BF38618761DC
:1042900005F035F8706938B12169884202D3786138
:1042A000876101E005F02BF8BAF1100F09D249F04F
:1042B0000300706009EB0600416841F001014160B4
:1042C0003FE048F0030070604AF00100CBF80400C2
:1042D0004AF80BA0D4F808804FEAD805202D28BF53
:1042E00005F00DF8B8F1000F27D0D4F81490009520
:1042F00004EBC50000F128052F46B8F1100F38BFB8
:1043000004F0FDFF2068009920FA01F2D10705D4DE
:10431000009A012191400843206006E0A8682169C5
:1043200088422CBF074604F0EAFFC5F80890C7F89A
:104330000C90C9F80870C9F80C50C4F808A0C4F86B
:1043400014B006F10800BDE8F28F04F0D8FF002099
:10435000BDE8F28F2DE9F04F83B00546C046C04658
:10436000F52DDFF8B84780F002810B2D31BF102703
:1043700005F10B00C708FF002068FE08F04010F0B0
:10438000030F42D0C04300F00100861904EBC600C1
:1043900000F12808F700D8F808506868C008C00085
:1043A000B84218BF04F0ABFFD5F80890454508BFE8
:1043B00004F0A5FF4D4508BF04F0A1FF6868C008E0
:1043C000C000B84218BF04F09AFFC84505D1206864
:1043D0000121B140884320600DE02069814508D368
:1043E000D9F80C00A84204D1C8F80890C9F80C808C
:1043F00001E004F084FF47F0030068607819083595
:10440000416841F001014160F9E0A168B94280F0E2
:10441000C080002800F0A280012505FA06F14900BD
:104420004A42B0401143084041420840401E010B3F
:1044300001F01001C840420902F00802D040830890
:1044400003F00403D840460806F002065118F04075
:104450005918C0F340087118414420FA08F000EBE5
:10446000010804EBC80000F128094FEAC80AD9F88E
:1044700008607068C008C000504518BF04F03FFFD6
:10448000D6F808B04E4508BF04F039FF5E4508BFB6
:1044900004F035FF7068C008C000504518BF04F034
:1044A0002EFFD94505D1206805FA08F18843206020
:1044B0000DE02069834508D3DBF80C00B04204D13D
:1044C000C9F808B0CBF80C9001E004F018FF47F0F1
:1044D00003007060AAEB0708B819019048F00100CA
:1044E00001994860019848F80080A7684FEAD70A08
:1044F000BAF1200F28BF04F002FF47B3CDF800A0A7
:1045000004EBCA00D4F8149000F1280AD346102F07
:1045100038BF04F0F4FE2068009920FA01F2D107B8
:1045200005D4009905FA01F10843206007E0DAF8A4
:104530000800216988422CBF834604F0E0FECAF8D7
:104540000890CBF80C90C9F808B0C9F80CA0C4F8D2
:10455000088006F108050198606150E06068C0B30A
:1045600039462046FFF7EEFD050012D047E015F171
:10457000400F28BF4FF0FF370BD205F10B00C708E3
:104580006068FF0028B139462046FFF713FC05009C
:1045900035D1A068B8421CD3C11B626910290AD367
:1045A000B8186061A16041F001034360095047F011
:1045B000030050600AE00021A160616140F0030146
:1045C00051608018416841F00101416002F1080525
:1045D00015E0E06887420DD2C01BA169E0607A183F
:1045E000A26140F00100506001F1080547F00300AE
:1045F000486004E039462046FFF712FA0546C046F7
:10460000C046284603B0BDE8F08F00B970472DE9D9
:10461000F047A0F10804C046C046DFF800552869FD
:104620008442C0F07482616801F00302012A00F044
:104630006E82CA084FEAC208CA0708EB040936D4DA
:10464000226811F0030F00F06482A41A844290449F
:10465000C0F05D8269698C4200F0D880D608202EB7
:1046600070D2D4F80CA0A768544508BF04F047FEE8
:10467000BC4208BF04F043FE6068C008C000B0EB55
:10468000C60F18BF04F03BFE05EBC60000F1280181
:104690008F4205D029698F4251D3F968A1424ED18A
:1046A000BA453DD128680121B140884328604C4576
:1046B00080F02D82D9F80400C10740F128828107DB
:1046C00000F17A81A969894540F0B580E868AC615C
:1046D0004044E86040F00101616069698C4202D1A8
:1046E00000216961A960E969814280F01282DFF8E6
:1046F0003004006808B9FEF7AAFFA969002900F094
:104700000882E868292824BF2846FEF793FFE86955
:10471000E968884280F0FD814FF0FF30E861F8E100
:104720002830824506D02869824508D3DAF8080087
:10473000A04204D1C7F80CA0CAF80870B7E704F08B
:10474000DEFDB4E7E768A669A7420BD0A168814205
:1047500022D3C868A04204BFB868A0421CD1CF6071
:10476000B9601BE004F114010F6837B904F11001BE
:104770000F689FB101E011460F6807F1140213683A
:10478000002B02BF07F110021368002BF3D1814206
:1047900002D30020086001E004F0B1FD002E86D0B5
:1047A000E06905EB800000F5987001688C4209D142
:1047B0000760380011D1E26968680121914088439F
:1047C000686074E72869864205D33069A04214BF47
:1047D0007761376101E004F092FD002F3FF467AF8D
:1047E00028698742ABD3BE61216929B1814226BFC6
:1047F00039618F6104F083FD606900283FF457AF91
:10480000296988429BD37861876150E799F8040051
:1048100000F0030003287FF44AAFC5F80880D9F8F8
:10482000040040084000C9F8040048F0010060603E
:1048300048F804806DE16969894508D1A8686C6110
:104840004044A86040F001016160005161E1C0088E
:10485000C0004FEAD00ABAF1200F804436D2D9F80E
:104860000C70D9F80860B94508BF04F048FDB1459F
:1048700008BF04F044FDD9F80400C008C000B0EB44
:10488000CA0F18BF04F03BFD05EBCA0000F1280178
:104890008E4206D029698E42C0F08180F168494578
:1048A0007DD1B74206D12868012101FA0AF1884377
:1048B000286076E02830874205D0286987426ED389
:1048C000B86848456BD1F760BE606AE0D9F80C70F3
:1048D000D9F818604F450DD0D9F8080029698842E9
:1048E00023D3C168494504BFB96849451DD1C76094
:1048F000B8601CE009F11400076837B909F110002D
:104900000768A7B101E00846076807F114010A68C3
:10491000002A02BF07F110010A68002AF3D12969B1
:10492000884202D30021016001E004F0E8FC002E7F
:1049300037D0D9F81C0005EB800000F598700168AD
:1049400089450AD10760380012D1D9F81C2068685F
:10495000012191408843686023E02869864205D39D
:104960003069484514BF7761376101E004F0C7FC46
:10497000BFB12869874212D3BE61D9F8101029B19E
:10498000814226BF39618F6104F0B9FCD9F8140067
:1049900038B12969884202D37861876101E004F067
:1049A000AEFC48F00100606048F804806869844209
:1049B0000BD1C5F80880ACE040084000C9F80400FD
:1049C00048F00100606048F804804FEAD807202FC3
:1049D00022D205EBC70000F128094E46B8F1100FAE
:1049E00038BF04F08CFC286820FA07F1C90704D40A
:1049F0000121B9400843286007E0D9F80800296977
:104A000088422CBF064604F07AFCC9F80840F460DE
:104A1000A660C4F80C907CE05FEA182008BF002173
:104A200023D0B0F5803F28BF1F211ED2A0F5807192
:104A3000090C01F008018840A0F58052120C02F028
:104A400004029040A0F580431B0CC1F10E0103F05D
:104A50000203891AC91A984001EBD030C11D28FA07
:104A600001F202F0010101EB4001002262612261CA
:104A7000E16105EB81006A6822FA01F3DB0700F5CA
:104A8000987006D4012303FA01F1114369600460B0
:104A90001CE000681F290EBF00214908C1F119015F
:104AA00008FA01F100E010464268D208D2004245FF
:104AB00010D0CA0F00EB820202F1100349001A68FD
:104AC000002AF0D129698B4211D31C60A061E460F7
:104AD000A4600EE02A698168904228BF914206D303
:104AE000CC608460E060A1600020A06101E004F07F
:104AF00006FC286A401E28620BD1D5F8C80100E0E8
:104B000080680028FCD14FF0FF30286201E004F0FB
:104B1000F6FBC046C046BDE8F0870000502A0020E2
:104B2000382F00205FF0FF0C1CEAD05114BF614504
:104B300006E0C110400721F0E04101F160517047EB
:104B400079B900F0004100020AD0B0FA80FC00FA06
:104B50000CF001F16051A1EB0C5101EBD0214005AB
:104B6000704741020CBF40F4E0016FF000010020EB
:104B7000704700000CB41CB5044604A801900A4616
:104B8000009401AB694607487844183002F012F8E7
:104B9000009A0021117000285CBF0098001B16BC11
:104BA0005DF80CFB03EAFFFF0A22002104F062BC5F
:104BB00080B50022002104F039FD41EC100B01BD4D
:104BC0004FF4001C1CEB410F94BF1CEB430F09E09A
:104BD00041EA030C50EA4C0C52EA0C0C03D2994205
:104BE00008BF9042704714BF8B428242704700005A
:104BF0004FF4001C1CEB410F94BF1CEB430F09E06A
:104C000041EA030C50EA4C0C52EA0C0C03D28B42E2
:104C100008BF8242704714BF99429042704780B5E6
:104C2000002204F003FD41EC100B01BD90420CD1B9
:104C300041EA030C50EA4C0C07D0994205D14FF4DD
:104C4000001C1CEB410F38BF8942704780B52348D8
:104C5000006850F40070214908602048006850F452
:104C600080601E4908601D48006850F480701B4930
:104C70000860032004F040FD002000F004F804F078
:104C800080FD002002BD10B50400154800684FF4F7
:104C90007A71B0FBF1F004F049FD002221005FF0D1
:104CA000FF3004F02DFD002010BD0E480068401CB0
:104CB0000C49086070470B480068704731B5FFF732
:104CC000FAFF0400009D15F1010F00D06D1CFFF7E5
:104CD000F2FF001BA842FAD331BD0000003C0240A5
:104CE00000000020502F002080B500220221272044
:104CF00004F006FD272004F014FD01BD80B500205E
:104D000000903B48006850F002003949086038487C
:104D1000006810F00200009000983648364908609C
:104D20004FF4165034494860002033498860002011
:104D30003149C8600020304908610C202E49486183
:104D400000202D49886100202B49C8612A48FDF7C1
:104D5000FFFFFFF7C9FF01BD38B504000D000A20B1
:104D6000FFF7ACFF01224FF48071244804F036FEB7
:104D70004FF6FF73EDB22A0092B221001E48FEF7F3
:104D800022F800280AD11C48006800684006FAD5BD
:104D900000224FF48071194804F020FE0A20FFF72A
:104DA0008DFF31BD10B50400002020701448FDF7C0
:104DB000BDFF6420FFF782FF1248FDF7B7FF0A210D
:104DC0001148FDF750FD1148008820702078002818
:104DD00002D10F48FDF7AAFF0C4800880D49088052
:104DE00000200A4908800A20FFF768FF10BD000074
:104DF0003038024000480040682E0020001C02406D
:104E000024CD0008C4CC0008E42E0020762F00201A
:104E1000D4CC0008E801002010B50400002C01D11A
:104E200001204FE094F91D00002804D100202077D4
:104E3000200004F043FF02206077CA202168486206
:104E4000532021684862200000F0B6F9002806D0FF
:104E5000FF202168486204206077012032E020684A
:104E60008068DFF814130840216888602068806833
:104E700061682269114362691143084321688860AF
:104E8000E0682168086120680069A16850EA014073
:104E9000216808612068C06830F080002168C8601F
:104EA0002068006C30F48020216808642068006C61
:104EB000A169084321680864FF2021684862012035
:104EC0006077002010BDF8B504000D00002694F9AD
:104ED0001C00012801D102207DE001202077022062
:104EE0006077002A1BD120688068400601D400202A
:104EF000E870287800F07CF90600687800F078F90E
:104F00000700A87800F074F9F6B2FFB2390251EA4E
:104F10000641C0B20843E97850EA014614E020682F
:104F20008068400604D5287800F06DF9060001E09D
:104F30000020E87028786978090251EA0040A978D1
:104F40000843E97850EA0146CA20216848625320A4
:104F500021684862200000F02FF9002808D0FF20C7
:104F6000216848620420607700202077012032E029
:104F7000DFF808023040216808602068806830F45B
:104F800080202168886020688068E9682A69114368
:104F90000843216888602068C06830F0800021687C
:104FA000C8602068806880060DD4200000F0EAF810
:104FB000002808D0FF202168486204206077002084
:104FC0002077012007E0FF202168486201206077F8
:104FD000002020770020F2BD10B50C0000210168F0
:104FE000896A6160016809694904490CA160006827
:104FF0000068DFF888110140080C10F03F002070B5
:10500000080A10F07F00607011F07F00A070080C9B
:1050100010F04000E070002A0BD1207800F0F3F887
:105020002070607800F0EFF86070A07800F0EBF886
:10503000A070002010BDF8B504000D00002694F902
:105040001C00012801D1022070E0012020770220FD
:105050006077002A07D16878C00604D5687810F018
:10506000EF000A306870002A15D1E87800F0C0F827
:105070000600687800F0BCF80700A87800F0B8F8DF
:10508000F6B2FFB2390251EA0641C0B208432978AC
:1050900050EA413611E0687800F0B5F80600A878CB
:1050A00000F0B1F80600E8786978090251EA00409A
:1050B000A9780843297850EA4136CA202168486215
:1050C000532021684862200000F076F8002808D0BC
:1050D000FF202168486204206077002020770120AB
:1050E00024E0DFF89C003040216848602068C068F8
:1050F00030F080002168C8602068806880060DD488
:10510000200000F03FF8002808D0FF202168486206
:105110000420607700202077012007E0FF2021682D
:10512000486201206077002020770020F2BD10B592
:105130000C00002100684068DFF844100140080CB2
:10514000E070080A10F01F00607011F03F00A070BE
:10515000480B10F007002070002A0BD1E07800F017
:1051600052F8E070607800F04EF86070A07800F0BF
:105170004AF8A070002010BDBFFF8FFF7F7F7F0027
:105180003FFFFF0038B5040000252068C06830F0FC
:10519000A0002168C860FFF78EFD05002068C06888
:1051A000800607D4FFF787FD401BB0F57A7FF5D95D
:1051B000032000E0002032BD38B50400002520683F
:1051C000C068400612D45FF0FF302168C860FFF766
:1051D00072FD05002068C068400607D4FFF76BFD2C
:1051E000401BB0F57A7FF5D9032000E0002032BDE6
:1051F000002101E0491C0A38C0B20A28FAD250EA5C
:105200000110C0B2704700210100C9B20909C9B23A
:105210000A225143C0B210F00F004018C0B27047CC
:10522000B0B581EA030C0CF0004C40F2FF7515EAB2
:1052300011541DBF15EA1357AC42AF4239E0E419CF
:1052400023EA455343F48013C90241F0004141EA87
:10525000505EC7021100A7FB020200284FF00000B9
:10526000EEFB01204FF00001E3FB072118BF42F0E5
:105270000102401800214941E3FB0E01A4F58064BE
:105280000F0302D252004041494154F101046CDD48
:10529000470872F1004250F1000051EB0451A1F5B2
:1052A00080115CBF41EA0C01B0BD4CEA0551002001
:1052B000B0BD05EA1357AC4214BFAF4241E050EA1B
:1052C000410E1CBF52EA430E02E061460020B0BD11
:1052D00024423C441BD15FEA070EF6D0090302BF0B
:1052E00001460020AEF1140EB1FA81F7AEEB0704CF
:1052F00001FA07FE0C37C7F1200100FA07F7C84092
:105300004EEA000E23EA455343F48013A2E733F03C
:105310000043B3FA83F704BFB2FA82FE77440B3F2F
:10532000E41BB7F1200E2FBF02FA0EF3BB40C7F10A
:10533000200E22FA0EFE38BF43EA0E03BA40641C68
:1053400082E750EA410E14BF52EA430E6FF00001AB
:105350004FF4001717EB430F8ABF194617EB410FA5
:10536000B5E74CEA05510020B0BDD4F10104B4F119
:1053700020070FDAC4F12007520828BF42F00102CB
:1053800010FA07F501FA07F7E1BF2A43E040384376
:10539000E1400FE0352C98DCC7F1200452EA4002CE
:1053A00020FA07F218BF42F0010231FA07F0A140DB
:1053B0000A43002172F1004250F1000051EB0C0150
:1053C000B0BD0000F446400D40EAC120490006D2BD
:1053D00000F014F8004248BF6FF00040604700F052
:1053E0000DF84FF0004188428CBF084640426047AC
:1053F000400D40EAC120490080F00D8040F000409F
:10540000490DA1F58061491C05D4D1F11F0154BF9C
:10541000C840C01770474FF000007047F0B44FF01D
:10542000004591EA030F44BF6B4000F0B9BA00BFDA
:10543000841A71EB030604D26E40001BB1411219AD
:1054400073414FF4001C1CEB410F34BF7CEB43064F
:1054500084E00C0DA4EB1356362E7DDC012E43DCCC
:1054600045EAC32343EA525312BFD20292025B08B9
:10547000240545EAC12141EA5051D2EBC0209941AF
:1054800025D407D1B0FA80F610FA06F164D00020D6
:10549000203608E0B1FA81F6B140C6F1200220FAC8
:1054A00002F21143B0404FEAF474B4EB465434F0C6
:1054B00001064FEA74040AD8D6F50016760D04F0FA
:1054C0000044F04061FA06F25040F1404840C00A02
:1054D00040EA415021F0004128BF5FEA500550F1F9
:1054E000000044EBD12137E045EAC323DB0A45EA5B
:1054F000C121C90AB6F120050EDD42EA0242120CB2
:10550000C5F1200603FA06F6EB4042EA06056D42B5
:10551000984161F100010DE062FA06F5F240554054
:1055200063FA06FC82EA0C02F3405A406D42904155
:1055300061EB030111F4801F05D1641E620502D0E6
:105540006D004041494121F48011430875F1004349
:1055500050F1000041EB0451F0BC70471CEB410FCF
:1055600015D223F0004352EA43060BD04FEA4C0C0D
:10557000BCEB410F04D80C0D661E342EB7DDEBE7F3
:10558000801A994150EA410608BF0021E4E708BFAC
:105590001CEB430F28BF6FF00001DDE72DE9F04160
:1055A00040F2FF7581EA030C0CF0004C15EA11542F
:1055B0001DBF15EA1357AC42AF42E9E0BC41C1F34D
:1055C0001301C3F31303801A994143F4801304D2E7
:1055D000641E4000494180185941C90241EA5051B6
:1055E000B1FBF3F603FB1611A2FB0675D7EBC02047
:1055F000A94102D2761E80185941C90241EA505190
:10560000B1FBF3FE03FB1E11A2FB0E75D7EBC0200E
:10561000A94103D2AEF1010E80185941890241EA35
:105620009051760546EA8E2EB1FBF3F603FB161178
:10563000A2FB0675D7EB8020A94102D2761E801806
:105640005941C90241EA50514EEA060EB1FBF3F648
:1056500003FB1611A2FB0675D7EBC020A94102D2AD
:10566000761E80185941C90241EA5051B1FBF3F747
:1056700003FB1711A2FB0735D3EBC020A94167F14B
:1056800000070CBF004247F0010766F3D5274FEA39
:105690001E31B80814F5806414DDBD0775F10042B1
:1056A00050EB0E5051EB045111F5801F5CBF41EAE5
:1056B0000C01BDE8F0814CF07F6141F0E041002039
:1056C000BDE8F081BD076D0840EA0E5041F480113D
:1056D000D4F10104B4F120060ADAC4F12006020074
:1056E000E04001FA06F3E1401843B24015430EE0F2
:1056F000342C14DCC6F1200445EA40056D0820FA7C
:1057000006F2154321FA06F0A1400D43002175F180
:10571000004250F1000051EB0C01BDE8F081002087
:105720005FEA0C01BDE8F081CFB992185B41B3FA92
:1057300083F704BFB2FA82F6BF190B3FB7F1200618
:105740002FBF02FA06F3BB40C7F1200622FA06F685
:1057500038BF3343BA401CB1E419641E2FE77F42BF
:1057600031F00041B1FA81F404BFB0FA80F6A41917
:105770000B3CB4F120062FBF00FA06F1A140C4F1A2
:10578000200620FA06F638BF3143A0403C1B16E73E
:10579000AC421ABF05EA1357AF4214E050EA410683
:1057A0001CBF52EA4306BFE750EA41073046614654
:1057B0001CBF41EA0551BDE8F08152EA430C08BF25
:1057C000C143BDE8F08100204FF4001616EB410FF5
:1057D00098BF16EB430F08BF16EB410F24BFC14320
:1057E00005E016EB430F0CBF61464CEA0551BDE8DE
:1057F000F08100004FEAF17CBCF1E04C2CBFBCF51D
:10580000001F11E05FEA4C0C34BFBCF17F5F2EE05B
:105810005FEA9C0C4FEA0C1C4FEA3C0CC10071F192
:1058200000414CEB50707047C90241EA5051C00230
:1058300018BF41F0010141F000414FEA6C50C0F146
:105840000900212810D240EACC7CCCF1200C11FABE
:105850000CF070F10040CCF1200C21FA0CF00CF0AF
:10586000004C40EB0C0070474FEACC707047490089
:1058700011F5001F04D84FEACC10FF30C005704767
:10588000C817704730B4002300220AE00C780125C5
:1058900095402C4204D00124D2F10705AC402343AB
:1058A000521C082AF2DB037030BC704730B400236E
:1058B00000220AE00C88012595402C4204D00124E6
:1058C000D2F10F05AC402343521C102AF2DB0380B7
:1058D00030BC704770B582B004000D004FF6FF7009
:1058E000ADF8000048F2050600208DF802002800FF
:1058F000451E002826D020788DF80200641C0DF18A
:1059000002010DF10200FFF7BDFFBDF800009DF898
:10591000021090EA0120ADF80000002005E0BDF87B
:1059200000104900ADF80010401C0828DFDABDF86F
:1059300000100904F3D5BDF8001096EA4101ADF856
:105940000010F1E769466846FFF7B0FFBDF80000B8
:1059500076BD002848BF404270470000010040F17A
:105960000980F446404200F005F851F000416047DC
:10597000010000BF09D0B0FA80F18840C91CC1F510
:105980008461090501EBD02140057047F0B44FF068
:10599000004591EA030C44BF6B40FFF749BD00BFCF
:1059A000841A71EB030603D2001BB1411219734133
:1059B0004FF4001C1CEB410F34BF7CEB430443E06D
:1059C0000C0DA4EB1356352E50DC45EAC323DB0A3D
:1059D00045EAC121C912B6F120050DDD63FA05F6CD
:1059E000EB4086EA0305124218BF45F00105C018D6
:1059F00051F100010CD213E062FA06F5F240554075
:105A0000F3415A40B340F3405A408018594107D3FC
:105A100049085FEA30005FEA350528BF45F0010517
:105A200001F58011420875F1004250F1000041EB90
:105A30000451F0BC4FF4001C1CEB410F38BF704701
:105A40000020090D090570471CEB410F10D252EAE6
:105A500043060BD0BCEB410F05D80C0DAB43661EC3
:105A6000342EB5DD02E0AB4380185941F0BC7047DD
:105A7000F0BC70471248006850F47000104908608C
:105A80001048006850F001000E49086000200E49DF
:105A900008600C4800680D4908400A4908600C4835
:105AA0000C4908600748006830F480200549086008
:105AB0000020094908605FF00060084908607047ED
:105AC00088ED00E00038024008380240FFFFF6FE93
:105AD00010300024043802400C38024008ED00E089
