:020000040800F2
:10000000F0110020D5BA000849AE000851AE000832
:1000100059AE000861AE000869AE0008000000009B
:1000200000000000000000000000000071AE0008A9
:1000300079AE00080000000081AE000889AE00081B
:100040007DBB000881BB000885BB000889BB000898
:100050008DBB000895AE000891BB000895BB000859
:1000600099BB00089DBB0008A1BB0008A5BB000808
:10007000A9BB0008ADBB0008B1BB0008B5BB0008B8
:10008000B9BB0008BDBB0008C1BB0008C5BB000868
:10009000C9BB0008CDBB0008D1BB0008D9AE000821
:1000A000D5BB0008D9BB0008DDBB0008E1BB0008D8
:1000B000E5BB0008E9BB0008EDBB0008F1BB000888
:1000C000F5BB0008F9BB0008FDBB000801BC000837
:1000D00005BC000897AE000809BC0008A1AE0008E6
:1000E000C5AE00080DBC000811BC000815BC000816
:1000F00019BC00081DBC000821BC000825BC000874
:1001000029BC00082DBC000831BC000835BC000823
:1001100039BC00083DBC0008ABAE000841BC00087B
:1001200045BC000849BC00084DBC000851BC000893
:1001300055BC000859BC00085DBC000861BC000843
:1001400065BC000869BC00086DBC000871BC0008F3
:1001500075BC000879BC00087DBC000881BC0008A3
:1001600085BC000889BC00088DBC000891BC000853
:1001700095BC000899BC00089DBC00080000000068
:10018000A1BC0008A5BC0008BFF34F8FDFF8700CBE
:10019000006810F4E060DFF86C1C0843DFF8601CB6
:1001A0000860BFF34F8F00BFFDE780B5DFF8581C34
:1001B000DFF8580C02F014FA00F020F801BD10B579
:1001C00000240020CAA1DFF8440C02F02BFA04003E
:1001D000C7A1002002F026FA90F90010302904D1BE
:1001E00094F9000001F080F907E090F9000031284F
:1001F00003D194F9000001F047F810BD2DE9F04754
:10020000ADF5BC6DFAA84FF4FA7102F031FA5FF067
:10021000000900240025002768464FF47A7102F097
:1002200027FA5FF000085FF0300A0126DFF8DC1BD8
:10023000684602F0D5F9684602F022FA070000206D
:1002400000F088F8012000F085F8022000F082F824
:10025000032000F07FF8042000F07CF8052000F077
:1002600079F8062000F076F8A2A1684602F0DAF9E3
:100270008146B9F1000F60D018F101084946FAA88B
:1002800002F0AEF99DF9E8A3484602F0F9F94519E4
:100290006D1C684615EB000996A1484602F0C2F9AC
:1002A0008146BD4201DB5FF000094FFA8AFABAF1DC
:1002B000300F0DD03AD3BAF1320F15D00ED3BAF1B8
:1002C000340F1DD016D3BAF1360F29D01ED32DE02E
:1002D000FAA9002000F07CFA040028E0FAA9012025
:1002E00000F076FA040022E0FAA9022000F070FA89
:1002F00004001CE0FAA9032000F06AFA040016E0EA
:10030000FAA9042000F064FA040010E0FAA905201C
:1003100000F05EFA04000120DFF8F41A087006E02D
:10032000FAA9062000F054FA040000E0002614F1B7
:10033000010F9ED1FFF739FF08E0B8F1010F05DB8F
:10034000002E03D00120DFF8381E08700DF5BC6DBB
:10035000BDE8F08770B5040000200025052C5DD1B4
:10036000002058E00021DFF8AC2A702303FB0022B4
:1003700011700021DFF89C2A702303FB0022917783
:100380000021DFF8902A702303FB002211625FF046
:10039000FF31DFF8802A702303FB002291620021E5
:1003A000DFF8702A702303FB002251620021DFF87E
:1003B000642A702303FB002211640021DFF8542A11
:1003C000702303FB002251660021DFF8482A7023C6
:1003D00003FB002282F858100021DFF8382A70232E
:1003E00003FB002291660021DFF8282A702303FB1B
:1003F000002282F844100021DFF8182A702303FB42
:10040000002282F84E100021DFF8082A702303FB37
:100410000022D166401C0528A4DB67E0062C00D131
:100420000524DFF8440E482101FB0400006C0500A0
:10043000012605E0D0F8885003F029F92800761C41
:10044000DFF8241E482202FB041109688E42F1DB0A
:10045000DFF8140E482101FB040000220023C0E94C
:100460000623DFF8040E482101FB040000220023CC
:10047000C0E904230020DFF8F01D482202FB04112C
:1004800008600020DFF8E01D482202FB0411086329
:10049000DFF8D40D482101FB040000220023C0E94D
:1004A0000823DFF8C40D482101FB040000220023CB
:1004B000C0E90A230020DFF8B01D482202FB041126
:1004C0000864DFF8A40D482101FB0400002141630A
:1004D0000020DFF8941D482202FB041188630520E8
:1004E000DFF8841D482202FB0411C86370BD0000C0
:1004F0002C0000003B000000F8B52DED028B94B0FD
:100500000FA8142102F0B4F89FEDAE8A0025002454
:10051000002602A8342102F0ABF800274FF47A73CA
:100520000122A9A1DFF8F40C03F079FB002437E0E5
:1005300097ED148A39000FA802F052F80190009547
:1005400018EE100A03F014FF02000B00DFF8D01CB5
:1005500002A803F035FF0FA80190009518EE100ACD
:1005600003F006FF02000B00DFF8B80C03F042FFB7
:1005700002A802F085F84FF47A73020092B202A941
:10058000DFF8980C03F04BFBD7F88870761CDFF887
:10059000D80C482101FB040000688642C8DB641CBB
:1005A000062C3FDADFF8C00C482101FB040000688C
:1005B0000128F4DBDFF8B00C482101FB0400076CD4
:1005C000DFF8B40C282101FB04000568DFF8A80C53
:1005D000282101FB040090ED098A009518EE100A0D
:1005E00003F0C6FE02000B00DFF8901C02A803F027
:1005F000E7FE009518EE100A03F0BAFE02000B00A9
:10060000DFF87C0C03F0F6FE02A802F039F80200D5
:100610004FF47A7392B202A9DFF8000C03F0FFFAEC
:100620000026B4E74FF47A73012267A1DFF8EC0BE0
:1006300003F0F5FADFF8880D03F0DCFE14B0BDEC32
:10064000028BF1BD2DE9F0412DED028B86B05FF0FC
:10065000000800249FED5B8A0025002668461421CF
:1006600002F006F8DFF81C0C03F0C4FE00273AE0A5
:10067000DFF8F40B482101FB070090ED000AB8EE0B
:10068000C00A88EE008ADFF8E00B482101FB070072
:1006900080ED028ADFF8E00B282101FB070080EDE6
:1006A000098ADFF8C40B482101FB0700806B002892
:1006B00006D1DFF8B40B482101FB070080ED0D8A5D
:1006C000DFF8A40B482101FB0700806B401C0321CD
:1006D00090FBF1F201FB1200DFF88C1B482202FBB9
:1006E000071188637F1C062F67DA9FED368ADFF8D3
:1006F000780B482101FB0700D0F84080B8F1000FCB
:100700001AD1EFE798ED160AB8EEC00AD8ED140A30
:1007100080EE800A88ED140A98ED140A38EE008AFB
:10072000D8F85400854202DAD8F854504446D8F834
:1007300054008619D8F88880B8F1000F22D0D8F874
:100740005800002803D0D8F854001F28DADB002016
:10075000C8F8500042461DA1684603F031FE6846C5
:1007600001F08EFF4FF47A73020092B26946DFF80F
:10077000AC0A03F054FA42463900DFF8480C03F0A3
:1007800039FEC9E7DFF8F00A282101FB07000760FE
:100790001F2EFFF66DAFDFF8E00A282101FB0700EE
:1007A000DFF8241C41622100DFF8CC0A282202FB7A
:1007B0000700001D01F014FF73E706B0BDEC028BCB
:1007C000BDE8F08100000000230000002125730037
:1007D0002DE9F0412DED048BB2B0040088460020D5
:1007E00000256846C82101F043FF002600260025A9
:1007F00000209FEDD78B9FEDD69B9FEDD58B9FED76
:10080000D49B0027D4A1404601F00CFF08E0D2A100
:10081000002001F007FF6946F6B241F82600761C79
:100820000028F4D1F6B20A2E0BDA052C09D0F6B264
:1008300032002100DFF8A80C03F0DCFD5FF0FF3090
:10084000D8E2052C40F03081009803F0E5FD05006A
:1008500000263FE0DFF8BC25702303FB072212EBE4
:1008600081026B46F6B25FEA860C13EB8C031B69C0
:10087000CB56303B9362DFF89C25702303FB0722A5
:1008800012EB8102926A062A08D1DFF888257023CC
:1008900003FB072212EB810205239362DFF8C829CC
:1008A000DFF870355FF0700C0CFB073313EB81033E
:1008B0009B6A5FF0480C0CFB0322D763491CC0B253
:1008C0008142C7DB0020DFF84C15702202FB0711C4
:1008D0000862761CF6B2EDB2AE4280F0E380684664
:1008E000F6B2B10010EB8100806890F90000B0F121
:1008F00031076846F6B2B10010EB81004168DFF8BD
:100900001405702202FB070001F06AFE6846F6B289
:10091000B10010EB810080680078DFF8F8147022D5
:1009200002FB07118877DFF8EC04702101FB070058
:1009300090F91E00313804280ED3DFF8D804702156
:1009400001FB070090F91E202100DFF8980B03F04F
:1009500051FD5FF0FF304DE26846F6B2B10010EB9A
:100960008100C06803F058FDDFF8A814702202FB74
:1009700007110864DFF89C04702101FB0700006C7C
:100980000528A6D0DFF88C04702101FB0700006C5D
:10099000401E04280DD3DFF87C04702101FB070002
:1009A000026C2100DFF87C0C03F024FD5FF0FF30C7
:1009B00020E2DFF86004702101FB0700006C0428CE
:1009C00025D16846F6B2B10010EB81000069002124
:1009D00041716846F6B2B10010EB81000169DFF8A1
:1009E0003404702202FB0700443001F0F9FD684630
:1009F000F6B2B10010EB81000069811DDFF814042C
:100A0000702202FB07004E3001F0EAFD5AE7DFF8E2
:100A10000404702101FB0700006C032825D16846FF
:100A2000F6B2B10010EB8100006900214171684607
:100A3000F6B2B10010EB81000169DFF8D803702233
:100A400002FB0700583001F0CBFD6846F6B2B1005A
:100A500010EB81000069811DDFF8B803702202FBF2
:100A600007004E3001F0BCFD2CE76846F6B2B1003D
:100A700010EB8100006901F003FEC0B2082809DB19
:100A8000C0B202002100DFF8F00B03F0B3FC5FF00E
:100A9000FF30AFE1C0B2DF49702202FB07114862AC
:100AA00000210CE70020A5E1062C00D10524DFF889
:100AB000B807482101FB04004460009803F0ACFC37
:100AC000DFF8A417482202FB04110860DFF898073A
:100AD000482101FB04000068001E0B280DD3DFF83D
:100AE0008807482101FB040002682100DFF8380C68
:100AF00003F080FC5FF0FF307CE10021019803F0FF
:100B00008FFCB0EE408AF0EE608A0021029803F07C
:100B100087FCB0EE409AF0EE609A51EC180B53EC63
:100B2000192B03F085FC19D851EC180B0022002377
:100B300003F096FC12D08DED008B53EC192B2100A5
:100B4000DFF8E80B03F056FC5FF0FF3052E100BF26
:100B500000000000000000002C000000DFF8080783
:100B6000482101FB040080ED048BDFF8FC064821DE
:100B700001FB040080ED069B0021049803F050FC6B
:100B8000B0EE408AF0EE608A0021039803F048FC42
:100B9000B0EE409AF0EE609A51EC190B53EC182B22
:100BA00003F046FC12D851EC180B0022002303F08E
:100BB00057FC0BD08DED009B53EC182B2100DFF878
:100BC000140C03F017FC5FF0FF3013E1DFF8980618
:100BD000482101FB040080ED088BDFF88C064821DA
:100BE00001FB040080ED0A9B0020DFF87C16482200
:100BF00002FB041108630020DFF86C16482202FB98
:100C000004110864DFF86006482101FB040000219C
:100C100041630020DFF85016482202FB041188636C
:100C200000260EE0DFF84006482101FB0400006CBE
:100C3000C5F88800DFF83006482101FB0400056490
:100C4000761CF6B2DFF82006482101FB040000689C
:100C5000864280F2CE808C2002F0BEFB0500684602
:100C6000F6B2092101FB06F110EB81004169280071
:100C700001F0B6FC6846F6B2092101FB06F110EB63
:100C80008100816915F11E0001F0AAFC6846F6B2E8
:100C9000092101FB06F110EB8100C16915F15C002F
:100CA00001F09EFC6846F6B2092101FB06F110EB4B
:100CB0008100006A03F0B0FBA866A86E001E33280E
:100CC00008D3AA6E2100DFF8100B03F093FB5FF04E
:100CD000FF308FE06846F6B2092101FB06F110EB08
:100CE0008100406A03F098FBE866E86E001E1F284A
:100CF00008D3EA6E2100DFF8E80B03F07BFB5FF01E
:100D0000FF3077E06846F6B2092101FB06F110EBEF
:100D10008100806A03F080FB2867286F001E0A2884
:100D200008D32A6F2100DFF8BC0B03F063FB5FF0F0
:100D3000FF305FE06846F6B2092101FB06F110EBD7
:100D40008100C16A15F1740001F04AFC6846F6B2F0
:100D5000092101FB06F110EB8100006B03F05CFB45
:100D6000C5F88000D5F88000001EDFF87C1B8842A3
:100D700009D3D5F880202100DFF8700B03F03AFB8F
:100D80005FF0FF3036E06846F6B2092101FB06F15C
:100D900010EB8100406B03F03FFBC5F88400D5F8F1
:100DA0008400001EDFF8401B884209D3D5F8842058
:100DB0002100DFF83C0B03F01DFB5FF0FF3019E072
:100DC00000206865002028650020A8650020C5F87F
:100DD0008800DFF89404482101FB0400006C00281F
:100DE0007FF420AFDFF88004482101FB0400056494
:100DF00026E7002032B0BDEC048BBDE8F081000096
:100E00000CED00E00400FA05D8250020F0210020B8
:100E1000A4320020C02900202DE9F04190B0002725
:100E2000002600200AA8142101F022FC5FF000082F
:100E300000246846282101F01BFC0025DFF89C0BEC
:100E400003F0D8FA002646E13100DFF8940B03F0F6
:100E5000D1FA0020DFF81014482202FB06110863C3
:100E600000F090F9002F6BD0386D03F081FA02008A
:100E70000B00DFF8F403482101FB0600416A006A19
:100E800003F0FEFA13D3386D03F072FADFF8D823BB
:100E9000482303FB0622D36A926A03F0F1FA14D2C4
:100EA00097ED140AB5EE400AF1EE10FA0DD0DFF816
:100EB000B803482101FB0600006B401CDFF8A813B3
:100EC000482202FB061108630DE097ED140AB5EE07
:100ED000400AF1EE10FA01D1641C04E06846396D55
:100EE00040F825106D1C002078650020B8650020B2
:100EF0003865D7F88870DC48482101FB0600006B94
:100F0000D949482202FB0611096888429CD0D6487C
:100F1000482101FB060000688442A3D13100DFF8BC
:100F20006C0B03F067FA002400F02CF9DFF8600B7B
:100F3000702101FB080090F91E0000F035F991E7DF
:100F4000022DC0F28D802900684601F07BFA002E48
:100F500005D0022E44D023D3032E61D080E0684612
:100F600010EB8500001F90ED000ADDED000A30EE69
:100F7000600ADFEDA90AB4EE600AF1EE10FA0EDBAA
:100F8000DFF8100B03F036FA00F0FCF8DFF8000B86
:100F9000702101FB080090F91E0000F005F95FE0E8
:100FA000684610EB850090ED000ADDED000A30EE9A
:100FB000600ADFEDAE0AB4EE600AF1EE10FA0EDB65
:100FC000DFF8D40A03F016FA00F0DCF8DFF8C00A04
:100FD000702101FB080090F91E0000F0E5F83FE0E9
:100FE000684610EB850090ED000ADDED000A30EE5A
:100FF000600ADFED9F0AB4EE600AF1EE10FA0EDB34
:10100000DFF8980A03F0F6F900F0BCF8DFF8800A80
:10101000702101FB080090F91E0000F0C5F81FE0E8
:10102000684610EB850090ED000ADDED000A30EE19
:10103000600ADFED900AB4EE600AF1EE10FA0EDB02
:10104000DFF85C0A03F0D6F900F09CF8DFF8400AFC
:10105000702101FB080090F91E0000F0A5F8FFE7E1
:101060000025DFF82C0A702101FB0800006A012826
:1010700030D17D48482101FB0600806B022829DB26
:101080007948482101FB060090ED020A7648482184
:1010900001FB0600D0ED0D0A30EE600A10EE100ADA
:1010A00003F066F931F00041DFF8482BDFF8483BE8
:1010B00003F0E6F920D2DFF8440B03F09BF900F0CF
:1010C00061F8DFF8CC09702101FB080090F91E00DF
:1010D00000F06AF8761C062E4FDA6348482101FBBF
:1010E0000600D0F83C806048482101FB0600076CF0
:1010F000002F7FF4B7AEEDE7DFF89409702101FB14
:101100000800006C012817D15748482101FB060050
:1011100090ED020A5448482101FB0600D0ED0D0A6B
:1011200030EE600AB5EE400AF1EE10FA04D5DFF8B1
:10113000D00A03F05FF9C2E7DFF85409702101FB20
:101140000800006C022817D14748482101FB06001F
:1011500090ED020A4448482101FB0600D0ED0D0A3B
:1011600030EE600AB5EE400AF1EE10FA04DDDFF869
:10117000940A03F03FF9A2E7ACE710B0BDE8F081B4
:10118000A332002080B5DFF8800A03F033F901F0C4
:1011900041F901F029F940F6B83003F0C1F901F046
:1011A0002BF901F031F901BD3EB5040064B2B4F190
:1011B000310564B2B4F1310005282BD2DFF8D00834
:1011C000702101FB0500C06E002823D164B221000C
:1011D000DFF8380A03F00EF9200040B200F084F97D
:1011E0000120DFF8AC18702202FB0511C86664B25A
:1011F0002200DFF81C1A684603F0E2F8684601F0A6
:101200003FFA4FF47A73020092B26946DFF8040A9B
:1012100002F005FD37BD0000010040401031002004
:10122000F0BA0008C8B6000810B540B2B0F13104F9
:1012300040B2B0F13101052914D2DFF85418702200
:1012400002FB0411C96E01290CD140B20100DFF884
:10125000C80903F0CFF80020DFF83418702202FB31
:101260000411C86610BD0000C82D00200100A04177
:101270000100A04001000040782F0020E4BA0008DF
:10128000E8B80008E8B60008F0B58FB0040064B212
:101290002100DFF8880903F0ADF800F0C5F902A8D5
:1012A000342101F0E5F9012564B2B4F130060020E3
:1012B0008DF80400002708E07F1C032F05DB64B2D3
:1012C0002100DFF85C0903F095F864B2312C07D0F7
:1012D00024D3332C10D009D3352C19D012D31DE0D0
:1012E0000821DFF8400903F069F91EE00821DFF862
:1012F000380903F063F918E00821DFF8300903F03A
:101300005DF912E00821DFF8280903F057F90CE035
:101310000821DFF8200903F051F906E0002564B246
:101320002100DFF8140903F065F8002D45D001A86D
:1013300003F06AF99DF804000028BDD0DFF8FC082E
:101340000079FF28B8D1DFF84807702101FB0600BB
:1013500050F8500C012830D0002D2ED001200090E4
:1013600064B22300DFF82807702101FB0600B0F10A
:101370007002DFF8CC1802A803F022F802A801F0EE
:101380007FF94FF47A73020092B202A9DFF8840861
:1013900002F045FC0120DFF8F816702202FB06116E
:1013A00041F8500C02A9DFF89C0803F023F864B25E
:1013B0002100DFF8280C03F01DF80FB0F0BD00008D
:1013C000A4B9000808B7000800401CC6F0B59FB0DB
:1013D000040000200026002500276846142101F0A3
:1013E00047F9002205A9DFF8600803F013FA9DF819
:1013F00015309DF81420DFF85418684602F0E0FF1D
:101400006946DFF88C06702202FB0400443001F0CC
:10141000E7F8DFF87C06702101FB040010F15801A9
:10142000684601F0DDF893A101F0FCF80BE0010043
:101430000AA8142202FB060001F0D2F88DA10020B8
:1014400001F0F0F8761C0028F1D10026DFF8400604
:10145000702101FB040010F14401684601F0C0F85E
:1014600084A101F0DFF80BE0010014A8142202FBB4
:10147000060001F0B5F87FA1002001F0D3F8761C3A
:101480000028F1D119A802F0C7FF06000FA802F04A
:10149000C3FF87193C2F07DB3C2097FBF0F53C206E
:1014A00097FBF0F100FB117714A802F0B5FF0600DE
:1014B0000AA802F0B1FF80194519182095FBF0F138
:1014C00000FB11553B002A00DFF88017DFF8C0054C
:1014D000702505FB0400443002F072FF1FB0F0BD20
:1014E000B0B4000860B40008F0B58FB0040002A8E2
:1014F000342101F0BDF8012564B2B4F130060020BA
:101500008DF80400002700F08FF864B2312C07D06A
:1015100024D3332C10D009D3352C19D012D31DE08D
:101520000821DFF8BC0A03F049F81EE00821DFF8C3
:10153000B40A03F043F818E00821DFF8AC0A03F01E
:101540003DF812E00821DFF8A40A03F037F80CE0B8
:101550000821DFF89C0A03F031F806E0002564B2A8
:101560002100DFF8900A02F045FF01A803F04CF8D3
:10157000002D49D09DF80400002847D0DFF8BC06B4
:101580000079002842D1DFF80805702101FB060030
:1015900050F8500C002806D164B22100DFF8580A38
:1015A00002F028FF30E0002D2ED00020009064B221
:1015B0002300DFF8DC04702101FB0600B0F17002AB
:1015C000DFF87C1602A802F0FBFE02A801F058F832
:1015D0004FF47A73020092B202A9DFF8380602F0E3
:1015E0001EFB0020DFF8A814702202FB061141F850
:1015F000500C02A9DFF8A00B02F0FCFE64B221003F
:10160000DFF8980B02F0F6FE0FB0F0BD7F1C032F41
:10161000FFF67BAF64B22100DFF8040602F0EAFEB9
:10162000F2E70000D4B2000800B587B0002201A99B
:10163000DFF8140603F0EEF800226946DFF808062A
:1016400003F093F99DF802309DF801209DF8030006
:1016500010F5FA61DFF8480B02F0CCFE9DF8063079
:101660009DF805209DF80410DFF85C0D02F0C2FE25
:1016700007B000BD3A00000084B10008F8B50400CE
:101680000026002500272100DFF8180B02F0B2FE2B
:10169000DFF8FC03702101FB0400456A002640E0EE
:1016A000DFF8EC03702101FB040010EB8600876A71
:1016B000DFF89C0B482101FB0700806802F058FE10
:1016C000DFF88C2B482303FB07225369126902F0D1
:1016D000D7FE08D2DFF8B803702101FB040090F9AF
:1016E0001E00FFF7D1FDDFF8680B482101FB070062
:1016F000806802F03DFE02000B00DFF8540B482129
:1017000001FB0700C169806902F0BAFE08D2DFF868
:101710008003702101FB040090F91E00FFF7E4FE36
:10172000761CAE42BCDBF1BDB4B10008ECAE0008E3
:10173000F8B504000026002500272100DFF8140B6F
:1017400002F058FED248702101FB0400456A0026D1
:101750003DE0CF48702101FB040010EB8600876A52
:10176000DFF8EC0A482101FB0700806802F000FE68
:10177000DFF8DC2A482303FB07225369126902F0D1
:101780007FFE07D2C248702101FB040090F91E00C1
:10179000FFF7AAFEDFF8B80A482101FB07008068BE
:1017A00002F0E6FD02000B00DFF8A40A482101FB6D
:1017B0000700C169806902F063FE07D2B448702156
:1017C00001FB040090F91E00FFF75EFD761CAE429F
:1017D000BFDBF1BD2CAF000894A6000870B5ACB01B
:1017E00004001FA8342100F043FF12A8342100F0A8
:1017F0003FFF05A8342100F03BFF00250020210019
:10180000DFF8540A02F0F6FDA148702101FB040044
:1018100010F14E029E48702101FB040010F15801A6
:10182000DFF8800B02F0E6FD9948702101FB04000F
:1018300010F14E0112A800F0D3FE93A100F0F2FEC9
:101840000BE0010005A80A2202FB050000F0C8FE1B
:101850008DA1002000F0E6FE6D1C0028F1D1002DC6
:1018600004D1DFF8900B02F0C5FD37E005A802F0C7
:10187000D3FD05003C260DF11E0002F0CDFD06FB58
:1018800005004EF6602148438149702202FB041195
:1018900048667F48702101FB0400406E7C4970223D
:1018A00002FB041188660120DFF8801B087000220B
:1018B0006946DFF8940302F0ADFF9DF801309DF812
:1018C0000020DFF888131FA802F07AFD1FA97048D6
:1018D000702202FB0400443000F082FE2CB070BD88
:1018E0006CAF0008ACAF0008A186010000B300088F
:1018F0002CB3000870B5A8B004001AA8342100F079
:10190000B7FE0DA8342100F0B3FE6846342100F084
:10191000AFFE002500202100DFF83C0902F06AFD3F
:101920005B48702101FB040010F14E025848702101
:1019300001FB040010F14401DFF8940B02F05AFDA2
:101940005348702101FB040010F144011AA800F073
:1019500047FE4F48702101FB040010F14E010DA815
:1019600000F03EFE48A100F05DFE0BE0010068467D
:101970000A2202FB050000F033FE43A1002000F024
:1019800051FE6D1C0028F1D1002D04D1DFF8440B6D
:1019900002F030FD20E0684602F03EFD05003C26E6
:1019A0000DF10A0002F038FD06FB05004EF660213D
:1019B00048433749702202FB0411486634487021BD
:1019C00001FB0400406E3249702202FB041188665C
:1019D0000120DFF8081B087028B070BD28B7000888
:1019E00048B7000810B500240020002400E0641C63
:1019F000052C3ADA2648702101FB040090F900001A
:101A00003028F4D02248702101FB0400C06E002869
:101A1000EDD11F48702101FB0400006C012806D0A5
:101A2000E5D303280BD006D3042813D0DFE720002A
:101A3000FFF724FEDBE72000FFF77AFED7E7144824
:101A4000702101FB0400406E002802D12000FFF746
:101A5000C5FECCE70E48702101FB0400406E002853
:101A600002D12000FFF746FFC1E710BD002003E0D0
:101A70000021724A8154401CDFF8681A09888842A4
:101A8000F6DB7047000000003A000000D4B4000804
:101A9000C029002058B30008E4B1000884B300084E
:101AA000B0B3000880B52DED028B00EE100AB8EE41
:101AB000C08A00290ED002291AD00CD3042935D0AF
:101AC00025D3062950D040D308296BD05BD30929F0
:101AD00077D085E088E018EE100A02F049FC454A0C
:101AE000454B02F0BBFF03F08BF808EE100A7BE0D9
:101AF00018EE100A02F03CFCDFF8EC29DFF8EC39B4
:101B000002F0ACFF03F07CF808EE100A6CE018EE6F
:101B1000100A02F02DFCDFF8D829DFF8D83902F0DE
:101B20009DFF03F06DF808EE100A5DE018EE100A54
:101B300002F01EFCDFF8C029DFF8C03902F08EFF8A
:101B400003F05EF808EE100A4EE018EE100A02F0FC
:101B50000FFCDFF8AC29DFF8AC3902F07FFF03F0AF
:101B60004FF808EE100A3FE018EE100A02F000FCF1
:101B7000DFF89429DFF8943902F070FF03F040F8A1
:101B800008EE100A30E018EE100A02F0F1FBDFF860
:101B90008029DFF8803902F061FF03F031F808EEA8
:101BA000100A21E018EE100A02F0E2FBDFF86829C3
:101BB000DFF8683902F052FF03F022F808EE100A4D
:101BC00012E018EE100A02F0D3FBDFF85429DFF818
:101BD000543902F043FF03F013F808EE100A03E053
:101BE000DFF8440902F006FCB0EE480ABDEC028BB7
:101BF00001BD00009A9999999999B93FACB0000834
:101C0000ECAF00082CB0000804B90008F8B40008D4
:101C100044BB00081031002068B70008A4BA0008CF
:101C20001CB500085400002064000020740000204F
:101C3000840000209400002014B200080C32002020
:101C4000FCBA000888B700084032002008BB000832
:101C500070B52DED028B92B006000C0015006846A1
:101C6000142100F005FD9FEDD48A9FEDD38A00205A
:101C700005A8342100F0FCFC002003E0815D05AAEA
:101C80008154401CDFF85C1809888842F6DBDFF8D5
:101C90005408018805A803F023F8002827D1DFF8AD
:101CA0008C0802F0A7FBDFF8881814F1740003F029
:101CB00057F8002838D1E06E042822D105A8A16E7B
:101CC000081810F8010C8DF8020005A8A16E085C38
:101CD0008DF8030005A8A16E081840788DF8000063
:101CE00005A8A16E081880788DF801004AE0DFF899
:101CF000440802F07FFB606D401C6065FFF7B6FE94
:101D000066E105A8A16E085C8DF8020005A8A16E29
:101D1000081810F8010C8DF8030000208DF8000061
:101D200000208DF801002DE0E06E042818D105A8F0
:101D3000A16E081810F8010C8DF8000005A8A16E1E
:101D4000085C8DF8010005A8A16E081840788DF890
:101D5000020005A8A16E081880788DF8030011E034
:101D600005A8A16E081810F8010C8DF8020005A84E
:101D7000A16E085C8DF8030000208DF800000020A3
:101D80008DF80100DFF8B01714F15C0002F0E8FFF5
:101D900000285AD1684600F03FF9B0EE408A18EEAC
:101DA000100A02F0E5FA02000B00DFF8900702F0DB
:101DB00021FBD4F88000002803D1D4F88400002847
:101DC0001AD09FED850A88EE008AD4F88400D4F8F2
:101DD0008010401A02F0E5FF00EE100AB8EEC00ACB
:101DE00028EE008A18EE100A02F0C2FA02000B0078
:101DF000DFF84C0702F0FEFA002D0AD0022D5ED06B
:101E00003DD3042D00F09B8079D3052D00F0B780E1
:101E1000D8E0DFF8300790ED000AB4EE408AF1EE2A
:101E200010FA28DBDFF8200790ED000AB4EE480A2C
:101E3000F1EE10FA1FDB94ED140A30EE080A84ED7F
:101E4000140AA06D401CA06518E0DFF8001714F11B
:101E50005C0002F085FF002808D1684600F0CEF84B
:101E6000216FFFF71FFEB0EE408A98E7DFF8E0062B
:101E700002F0C0FAACE0606D401C6065A6E0DFF8DF
:101E8000D40690ED000AB4EE408AF1EE10FA12DBAF
:101E9000DFF8C40690ED000AB4EE480AF1EE10FA3D
:101EA00009DB94ED140A30EE080A84ED140AA06DE3
:101EB000401CA06502E0606D401C606586E0DFF8B4
:101EC0009C0690ED000AB4EE408AF1EE10FA12DBA7
:101ED000DFF88C0690ED000AB4EE480AF1EE10FA35
:101EE00009DB94ED140A30EE080A84ED140AA06DA3
:101EF000401CA06502E0606D401C606566E0DFF894
:101F0000640690ED000AB4EE408AF1EE10FA12DB9E
:101F1000DFF8540690ED000AB4EE480AF1EE10FA2C
:101F200009DB94ED140A30EE080A84ED140AA06D62
:101F3000401CA06502E0606D401C606546E0DFF873
:101F40002C0690ED000AB4EE408AF1EE10FA12DB96
:101F5000DFF81C0690ED000AB4EE480AF1EE10FA24
:101F600009DB94ED140A30EE080A84ED140AA06D22
:101F7000401CA06502E0606D401C606526E0DFF853
:101F8000F40590ED000AB4EE408AF1EE10FA15DB8C
:101F9000DFF8E40590ED000AB4EE480AF1EE10FA1D
:101FA0000CDB94ED140A30EE080A84ED140AA06DDF
:101FB000401CA06505E000BF00000000606D401CF3
:101FC000606503E0DFF8B40502F014FAFFF74EFD98
:101FD00012B0BDEC028B70BD00409C46A8B7000853
:101FE0005C0000206C0000207C0000208C000020A1
:101FF0009C000020DCB30008C8B70008017809067F
:102000004278120483781B029A18C078101841187D
:1020100008007047000000002DE9F0412DED048B11
:10202000017890F801808478C578B7EE008AC9B24B
:10203000802901D3BFEE008ADFED848AC9B28029EE
:102040000DD3C9B2080002F0BBFE0022DFF8303524
:1020500002F0C4FE02F0D4FD08EE900A04E0C9B21A
:1020600000EE101AF8EE408A18EE900A02F080F99D
:1020700000225FF0804302F0F1FC02F0C1FD08EEA7
:10208000900A5FFA88F8B8F1800F0CD318EE900A26
:1020900002F06EF90022DFF8EC3402F09FFE02F04D
:1020A000AFFD08EE900A18EE900A02F061F90022E6
:1020B000DFF8D43402F092FE02F0A2FD08EE900A9E
:1020C0009FED629A5FFA88F8B8F1800F0CD35FFA3F
:1020D00088F8404602F074FE0022DFF8A43402F0D3
:1020E0007DFE02F0EFFE8046EDB2280002F068FEB1
:1020F00006000F00E4B2200002F062FE04000D00B2
:102100005FFA88F8404602F05BFE0022DFF87C347C
:1021100002F0A4FC22002B0002F060FE0022DFF897
:102120006C3402F09BFC32003B0002F057FE02F0E0
:1021300067FD09EE100A9FEDB30A89EE009A18EECA
:10214000100A02F015F904000D0018EE900A02F0D2
:102150000FF941EC110B9FEDB90B03F056F951EC5F
:10216000100B22002B0002F079FC04000D00B7EEEA
:10217000000A39EE000A10EE100A02F0F9F8220007
:102180002B0002F06BFC02F03BFD00EE100ABDECF0
:10219000048BBDE8F0810000E8B7000808B800082B
:1021A00028B8000844B2000830B5ADF57F7D0500C1
:1021B000280000F065FA0400641C6846142100F051
:1021C00057FA6946200000F049F82900DFF8C003FB
:1021D00000F006FA290005A800F002FA232005A95C
:1021E000611801F8010CDFF8AC030068012803D185
:1021F000312005A9605402E0302005A96054002078
:1022000005A961184870002005A961188870641C30
:10221000002003F0B6FB684600F032FA020092B2EA
:102220000A21684603F001FC05A800F029FA020023
:1022300092B2142105A803F0F8FB220005A9D648A4
:1022400002F0D8F80DF57F7D30BD000000000000E1
:10225000C82D002074B2000808B400087EB4002223
:10226000002300236B4600240025002670C30C3B8E
:102270000300002B00D540420A2490FBF4F504FB38
:10228000150430346D465455521C0A2490FBF4F06A
:102290000128F1DA002B03D52D206B46D054521CB7
:1022A00000206B46D054130006E06846181810F85A
:1022B000010CD41A60545B1E002BF6D577BC704716
:1022C00030B5ADF57D7D0400002568460021002273
:1022D00000230EC00C3803A84FF47A7100F0C8F93F
:1022E0000A220021684603F03CFC0A220A216846C3
:1022F00003F037FC6A460021A84802F07BF86846E4
:1023000002F08AF80500B5F57A7F02DD0A2095FB18
:10231000F0F56D1C2800020092B2142103A803F00E
:1023200020FC2A0003A99E4802F064F803A828189C
:1023300010F8010C302806D1002096490860994811
:1023400002F058F812E003A8281810F8010C312800
:1023500006D101208F490860934802F04BF805E050
:1023600000208C490860914802F044F803A828181E
:1023700010F8020C23280FD1002003A9691801F8D6
:10238000020C03A9200000F02BF903A9884802F0F1
:1023900031F8FDF733FF02E0864802F02BF80DF527
:1023A0007D7D30BD1CB1000880B503F093FD002891
:1023B00004D1814802F01EF8002003E07F4802F0BB
:1023C00019F8012002BD0000B4BA000880B54FF42E
:1023D0007A73012240A17A4801F021FC012080F3A8
:1023E0001388FDF7D1FE01BD80B50821754802F0C4
:1023F000E5F801BD20B9000880B50821724802F057
:10240000DDF801BD0000004B80B508216F4802F0E7
:10241000D5F801BD80B508216D4802F0CFF801BDA7
:1024200080B508216B4802F0C9F801BDA832002030
:1024300080B50821684802F0C1F801BD0000000025
:102440000000004080B52DED028B82B000229FED90
:10245000240A9FED238A90ED008A90ED000A012264
:102460001AE010EB8203D3ED000AB4EE608AF1EEBD
:1024700010FA03D550F8223008EE103A10EB820320
:10248000D3ED000AF4EE400AF1EE10FA03D550F84D
:10249000223000EE103A521C8A42E2DB80ED000A44
:1024A00010EB8100001F80ED008A10EE100A01F091
:1024B0005FFFCDE9000118EE100A01F059FF02009C
:1024C0000B00464801F096FF02B0BDEC028B01BD47
:1024D000A4B2000848B800087B000000A932002020
:1024E00000000000E80100207B14AE47E17A843F41
:1024F000FCA9F1D24D62503F2D431CEBE2361A3F4E
:10250000F168E388B5F8E43E8DEDB5A0F7C6B03EBE
:1025100048AFBC9AF2D77A3E3A8C30E28E79453E8B
:1025200095D626E80B2E113EBCB9000840B5000830
:102530004CBB000864B5000854BB0008ACB50008EB
:1025400014BB0008843200200C0000205CBB000893
:1025500088B50008883200201000002014000020F8
:102560001800002080320020080000207C3200206B
:10257000040000208C3200201C00002070BA0008EB
:10258000000060C00000F03F00C05FC0000070406D
:10259000D82500202000002034B40008D0B5000861
:1025A0003CB90008F4B5000818B6000850B100089E
:1025B00068B800083CB6000888B8000860B6000893
:1025C00010310020340000203C00002024000020B6
:1025D0002C000020440000204C000020A8B8000877
:1025E0005FEA000C830706D011F8013B00F8013BBD
:1025F000B3B18307F8D10A68B2F1013323EA0203C9
:1026000013F0803F02BF40F8042B51F8042FF3E78A
:1026100011F8013B00F8013B13B111F8013BF9E758
:102620006046704770B504460D46104803F016FD2D
:10263000064644B12946204603F011FD04192078CE
:1026400030B9306070BD3468002CF3D1002070BD0B
:102650002946204603F014FD0019017811B100212C
:1026600000F8011B3060204670BD00BFE400002070
:10267000002203F017BD0268531C036011707047FD
:1026800000F10103810704D010F8011B89B1810713
:10269000FAD10268B2F10131914311F0803F04BFD9
:1026A00050F8042FF6E710F8011B11B110F8011BC8
:1026B000FBE7C01A7047000000F5E0700268914225
:1026C00003D343689A18914202D380680028F5D159
:1026D0007047DFF85807016891B94FF48031816085
:1026E0004FF4805141604FF0FF31C160016104211E
:1026F000DFF83C274161C2F8BC11DFF838170160F0
:102700000120704701F1080313F0070305D001F120
:102710000803C3F1080303F007035918D21A8161B3
:10272000C26042F001034B60511828234B60DFF870
:10273000FC160969C16170472DE9F84F064601F1A1
:10274000080010F0070008BF884607D001F1080014
:10275000C0F1080000F0070000EB010802F10800DA
:1027600010F0070006D002F10800C0F1080000F0E8
:10277000070082181546A5EB0800A0EB030903EB40
:10278000080B43F00300C8F80400AB4528BF03F072
:10279000A2FC2879C00758BF03F09DFCB9F1100FC7
:1027A00038BF03F098FCB069854209D1F06848440D
:1027B000F060C6F818B040F00100CBF804006DE1FD
:1027C000706985420BD1B0684844B060C6F814B057
:1027D00040F00101CBF8041040F80B005EE168689E
:1027E00000F00301012940F0AD80C008C000019055
:1027F000C00820283AD2D5F808A0EF680090BD4262
:1028000008BF03F068FC554508BF03F064FC686826
:102810000099C008C000B0EBC10F18BF03F05BFC0B
:10282000009806EBC00000F128018A4507D0316905
:102830008A45C0F08280DAF80C10A9427DD1574554
:1028400006D1009A3068012191408843306076E0DB
:102850002830874205D0306987426ED3B868A842D5
:102860006BD1CAF80C70C7F808A068E0EF68D5F81B
:1028700018A0AF420CD0A8683169884223D3C16840
:10288000A94204BFB968A9421DD1C760B8601CE065
:1028900005F11400076837B905F110000768A7B102
:1028A00001E00846076807F114010A68002A02BF20
:1028B00007F110010A68002AF3D13169884202D376
:1028C0000021016001E003F006FCBAF1000F36D0F0
:1028D000E86906EB800000F5987001688D4208D128
:1028E0000760A7B9EA697068012191408843706068
:1028F00025E03069824508D3DAF81000A84214BFF9
:10290000CAF81470CAF8107001E003F0E4FBB7B124
:102910003069874211D3C7F818A0296929B18142CB
:1029200026BF39618F6103F0D6FB686938B1316920
:10293000884202D37861876101E003F0CCFB019803
:102940004519814468684008400068604FEAD9052D
:1029500049F00100CBF8040049F80B90202D23D258
:1029600006EBC50000F12807BA46B9F1100F38BFD1
:1029700003F0B1FB306820FA05F1C90704D4012146
:10298000A9400843306006E0B868316988422CBF2E
:10299000824603F0A0FBC7F808B0CAF80CB0CBF829
:1029A00008A0CBF80C7079E05FEA192108BF00207D
:1029B00023D0B1F5803F28BF1F201ED2A1F5807023
:1029C000000C00F008008140A1F58052120C02F0CA
:1029D00004029140A1F580431B0CC0F10E0003F0EE
:1029E0000203801AC01A994000EBD130C11D29FAA8
:1029F00001F202F0010101EB4000CBF81C000022C3
:102A0000CBF81420CBF8102006EB8001726822FA74
:102A100000F3DB0701F5987107D4012303FA00F0F6
:102A200010437060C1F800B01DE009681F280EBF98
:102A300000204008C0F1190009FA00F000E011463A
:102A40004A68D208D2004A4514D0C20F01EB820274
:102A500002F1100340001A68002AF0D13069834265
:102A60001AD3C3F800B0CBF81810CBF80CB0CBF8E1
:102A700008B013E032698868914228BF90420BD3B6
:102A8000C0F80CB0C1F808B0CBF80800CBF80C10B7
:102A90000020CBF8180001E003F01DFB08F108004E
:102AA000BDE8E68F2DE9FA4D0546DFF8800384B0D6
:102AB000006808B9FFF70DFEDFF87003049980681D
:102AC00041182F31401E21EA00000499814280F014
:102AD000A88105F5D876B16839B13268801882428C
:102AE00080F09F818142C0F09C8103F0F7FA0028BA
:102AF0001EBF0446D0F8008014F1010F00F0918150
:102B00003068716840443060814238BF014671606E
:102B1000A86980BB286908B1844200D22C610020DA
:102B2000F0613461C6F8148005F12801BF480068DF
:102B300068624FF0FF302862002001F10802C9608E
:102B40001160801C10312028D2609260F5D3B84803
:102B5000854203D1A8F12802214629E055F8040C4A
:102B6000C00805EBC000A0F1080108EB0400401A02
:102B7000A0F128021CE005F5E071084600E080683D
:102B8000D0B1026843689A189442F8D1027B1207C8
:102B900012D4AA6903689A420ED347683B449A420A
:102BA0000AD208EB07014160E868A96908EB000256
:102BB0002846FFF7A7FD1EE128698442084638BF72
:102BC0002C6108EB040100E0806880B102688A4251
:102BD000FAD1017B09070AD404604168414441608D
:102BE0002146049B284606B0BDE8F04DA4E5AF6938
:102BF00039462846FFF760FD01684068401802909A
:102C00002F3800F1080111F0070105D000F108018B
:102C1000C1F1080101F00701081807F1100188420D
:102C200034BF0097009000980830019004F108012B
:102C3000009800F1180A11F007014FF0000BA8F1FD
:102C4000280005D004F10801C1F1080101F00701D5
:102C50000A19401AAA61E86040F001015160801829
:102C60002821416071480069E861019810F007006F
:102C700018BF03F030FA00991B20486005F5E07199
:102C8000B1E80C500198A0E80C503461C6F81480EB
:102C9000C6F81CB00198B061029800E08A4607228D
:102CA000CAF804200AF104010A1D82420BF1010B4B
:102CB000F4D3BBF1020FB8BF03F00DFA0098B8428D
:102CC00000F09980C01BC119C4084A68520852001C
:102CD0004A6040F001017960C051202C20D205EB00
:102CE000C40101F12806B046102838BF03F0F3F9FB
:102CF000286820FA04F1C90704D40121A14008433F
:102D0000286006E0B068296988422CBF804603F03D
:102D1000E2F9B760C8F80C70C7F80880FE606AE096
:102D2000010A08BF002223D0B1F5803F28BF1F222F
:102D30001ED2A1F58072120C02F008029140A1F59A
:102D400080531B0C03F004039940A1F58044240C2C
:102D5000C2F10E0204F00204D21A121BA14002EBCF
:102D6000D131CA1D20FA02F303F0010202EB410245
:102D7000FA6100237B613B6105EB82016B6823FAFA
:102D800002F4E40701F5987105D40120904018433E
:102D900068600F601CE009681F2A0EBF00225208FD
:102DA000C2F1190200FA02F200E019464B68DB0892
:102DB000DB00834210D0D30F01EB830303F1100437
:102DC00052002368002BF0D12869844211D3276078
:102DD000B961FF60BF600EE02A698868914228BF30
:102DE000904206D3C7608F60B860F9600020B86178
:102DF00001E003F070F9E8680499814211D2401AA9
:102E0000E860A969049A5218AA6140F00100506074
:102E1000049840F00300486006B001F10800BDE8E6
:102E2000F08D002006B0BDE8F08D0000603200207B
:102E3000F02B00206859883C2DE9F04D044600260F
:102E400088465FEA1820C8F1000B08BF002123D094
:102E5000B0F5803F28BF1F211ED2A0F58071090C5C
:102E600001F008018840A0F58052120C02F0040223
:102E70009040A0F580431B0CC1F10E0103F002034A
:102E8000891AC91A984001EBD030C11D28FA01F205
:102E900002F0010101EB400104EB8100D0F83001A8
:102EA00018B31F290EBF00224A08C2F1190208FAFE
:102EB00002F2002300E052004568ED08ED00A5EBAA
:102EC00008055D4503D25FEA050B06460BD0456950
:102ED000D70F00EB8700002D00691CBF85422B46F1
:102EE0000028E8D11846B8BBC6BB01208840400086
:102EF000414208436168084000F063814142084054
:102F0000401E010B01F01001C840420902F0080206
:102F1000D040830803F00403D840450805F00205BB
:102F20005118E8405918C0F3400729443944F84083
:102F3000401804EB8000D0F830010DE008464168ED
:102F4000C908C900A1EB080159453CBF8B4606469C
:102F500001690029F2D140690028F0D1002E00F06B
:102F60003081A068A0EB0800834580F02A812069A9
:102F70008642C0F024817068C008C00008EB0B01D5
:102F800008EB0605884218BF03F0A5F8AE4280F0B2
:102F90001681F768D6F818A0B7420CD0B06821693E
:102FA000884223D3C168B14204BFB968B1421DD180
:102FB000C760B8601CE006F11400076837B906F175
:102FC00010000768A7B101E00846076807F114017F
:102FD0000A68002A02BF07F110010A68002AF3D12B
:102FE0002169884202D30021016001E003F073F8F7
:102FF000BAF1000F38D0F06904EB800000F598704A
:1030000001688E4209D10760380014D1F269606806
:10301000012191408843606026E02069824508D301
:10302000DAF81000B04214BFCAF81470CAF8107071
:1030300001E003F050F8BFB12069874212D3C7F80E
:1030400018A0306930B12169884226BF3861876194
:1030500003F041F8706938B12169884202D3786180
:10306000876101E003F037F8BBF1100F0CD208EBD9
:103070000B0040F00300706008EB0B008019416802
:1030800041F00101416096E048F0030070604BF0B0
:10309000010068604FEADB004BF805B020281DD224
:1030A00004EBC00101F12807216821FA00F2D207E0
:1030B000BB4605D4012202FA00F00843206006E076
:1030C000B868216988422CBF834603F004F8BD60CC
:1030D000CBF80C50C5F808B0EF606CE05FEA1B213C
:1030E00008BF002023D0B1F5803F28BF1F201ED28B
:1030F000A1F58070000C00F008008140A1F580521D
:10310000120C02F004029140A1F580431B0CC0F1A7
:103110000E0003F00203801AC01A994000EBD13070
:10312000C11D2BFA01F202F0010101EB4000E86140
:1031300000226A612A6104EB8001626822FA00F3CE
:10314000DB0701F5987106D4012303FA00F0104360
:1031500060600D601CE009681F280EBF0020400859
:10316000C0F119000BFA00F000E011464A68D208DD
:10317000D2005A4510D0C20F01EB820202F11003B7
:1031800040001A68002AF0D12069834211D31D60E3
:10319000A961ED60AD600EE022698868914228BFA8
:1031A000904206D3C5608D60A860E9600020A861E8
:1031B00001E002F090FF06F10800BDE8F08D02F09A
:1031C0008AFF0020BDE8F08D2DE9F84F04468846BF
:1031D000606841420840401E010B01F01001C840E8
:1031E000420902F00802D040830803F00403D840EB
:1031F000450805F002055118E8405918C0F340068B
:1032000029447118F040401804EB8000D0F83001D8
:103210004168C908C9000646A1EB080A09E008464A
:103220004168C908C900A1EB080151453CBF8A4665
:10323000064601690029F2D140690028F0D12069D1
:103240008642C0F0C4807068C00808EB0A09C0005C
:1032500008EB060B484518BF02F03DFF5E4580F0C5
:10326000B680F768B569B7420CD0B068216988426A
:1032700023D3C168B14204BFB968B1421DD1C76050
:10328000B8601CE006F11400076837B906F11000B9
:103290000768A7B101E00846076807F114010A684A
:1032A000002A02BF07F110010A68002AF3D1216940
:1032B000884202D30021016001E002F00CFF002DE2
:1032C00034D0F06904EB800000F5987001688E42FC
:1032D00009D10760380011D1F2696068012191407D
:1032E0008843606022E02069854205D32869B042A6
:1032F00014BF6F612F6101E002F0EDFEB7B12069EC
:10330000874211D3BD61306930B12169884226BF3F
:103310003861876102F0DFFE706938B12169884247
:1033200002D37861876101E002F0D5FEBAF1100F97
:1033300009D249F00300706009EB0600416841F0D2
:10334000010141603FE048F0030070604AF0010075
:10335000CBF804004AF80BA0D4F808804FEAD8054F
:10336000202D28BF02F0B7FEB8F1000F27D0D4F807
:103370001490009504EBC50000F128052F46B8F124
:10338000100F38BF02F0A7FE2068009920FA01F262
:10339000D10705D4009A012191400843206006E03E
:1033A000A868216988422CBF074602F094FEC5F840
:1033B0000890C7F80C90C9F80870C9F80C50C4F808
:1033C00008A0C4F814B006F10800BDE8F28F02F0BE
:1033D00082FE0020BDE8F28F2DE9F04F83B0054654
:1033E000C046C046F52DDFF8B84780F002810B2DAE
:1033F00031BF102705F10B00C708FF002068FE0849
:10340000F04010F0030F42D0C04300F001008619D5
:1034100004EBC60000F12808F700D8F808506868E7
:10342000C008C000B84218BF02F055FED5F8089099
:10343000454508BF02F04FFE4D4508BF02F04BFE68
:103440006868C008C000B84218BF02F044FEC84512
:1034500005D120680121B140884320600DE020693A
:10346000814508D3D9F80C00A84204D1C8F80890C7
:10347000C9F80C8001E002F02EFE47F003006860FE
:1034800078190835416841F001014160F9E0A1680F
:10349000B94280F0C080002800F0A280012505FA22
:1034A00006F149004A42B0401143084041420840F9
:1034B000401E010B01F01001C840420902F0080251
:1034C000D040830803F00403D840460806F0020603
:1034D0005118F0405918C0F340087118414420FABF
:1034E00008F000EB010804EBC80000F128094FEADE
:1034F000C80AD9F808607068C008C000504518BFF5
:1035000002F0E9FDD6F808B04E4508BF02F0E3FD31
:103510005E4508BF02F0DFFD7068C008C00050457E
:1035200018BF02F0D8FDD94505D1206805FA08F189
:10353000884320600DE02069834508D3DBF80C0048
:10354000B04204D1C9F808B0CBF80C9001E002F009
:10355000C2FD47F003007060AAEB0708B81901909C
:1035600048F0010001994860019848F80080A76878
:103570004FEAD70ABAF1200F28BF02F0ACFD47B3DB
:10358000CDF800A004EBCA00D4F8149000F1280A8A
:10359000D346102F38BF02F09EFD2068009920FA14
:1035A00001F2D10705D4009905FA01F10843206022
:1035B00007E0DAF80800216988422CBF834602F050
:1035C0008AFDCAF80890CBF80C90C9F808B0C9F881
:1035D0000CA0C4F8088006F108050198606150E06D
:1035E0006068C0B339462046FFF7EEFD050012D0F3
:1035F00047E015F1400F28BF4FF0FF370BD205F120
:103600000B00C7086068FF0028B139462046FFF765
:1036100013FC050035D1A068B8421CD3C11B6269F8
:1036200010290AD3B8186061A16041F0010343601A
:10363000095047F0030050600AE00021A160616179
:1036400040F0030151608018416841F00101416080
:1036500002F1080515E0E06887420DD2C01BA169A0
:10366000E0607A18A26140F00100506001F10805A5
:1036700047F00300486004E039462046FFF712FA9D
:103680000546C046C046284603B0BDE8F08F00B9E5
:1036900070472DE9F047A0F10804C046C046DFF8A6
:1036A000005528698442C0F07482616801F0030209
:1036B000012A00F06E82CA084FEAC208CA0708EB66
:1036C000040936D4226811F0030F00F06482A41AB2
:1036D00084429044C0F05D8269698C4200F0D880D9
:1036E000D608202E70D2D4F80CA0A768544508BF85
:1036F00002F0F1FCBC4208BF02F0EDFC6068C008BB
:10370000C000B0EBC60F18BF02F0E5FC05EBC60029
:1037100000F128018F4205D029698F4251D3F96801
:10372000A1424ED1BA453DD128680121B14088431C
:1037300028604C4580F02D82D9F80400C10740F183
:103740002882810700F17A81A969894540F0B58016
:10375000E868AC614044E86040F00101616069697B
:103760008C4202D100216961A960E969814280F03F
:103770001282DFF83004006808B9FEF7AAFFA969D1
:10378000002900F00882E868292824BF2846FEF7AF
:1037900093FFE869E968884280F0FD814FF0FF30CF
:1037A000E861F8E12830824506D02869824508D3CF
:1037B000DAF80800A04204D1C7F80CA0CAF80870D3
:1037C000B7E702F088FCB4E7E768A669A7420BD028
:1037D000A168814222D3C868A04204BFB868A04251
:1037E0001CD1CF60B9601BE004F114010F6837B938
:1037F00004F110010F689FB101E011460F6807F155
:1038000014021368002B02BF07F110021368002B8B
:10381000F3D1814202D30020086001E002F05BFC9A
:10382000002E86D0E06905EB800000F598700168F5
:103830008C4209D10760380011D1E2696868012122
:1038400091408843686074E72869864205D33069EF
:10385000A04214BF7761376101E002F03CFC002F09
:103860003FF467AF28698742ABD3BE61216929B1B4
:10387000814226BF39618F6102F02DFC606900280A
:103880003FF457AF296988429BD37861876150E73D
:1038900099F8040000F0030003287FF44AAFC5F84C
:1038A0000880D9F8040040084000C9F8040048F036
:1038B0000100606048F804806DE16969894508D1BC
:1038C000A8686C614044A86040F00101616000514B
:1038D00061E1C008C0004FEAD00ABAF1200F80446D
:1038E00036D2D9F80C70D9F80860B94508BF02F093
:1038F000F2FBB14508BF02F0EEFBD9F80400C008A6
:10390000C000B0EBCA0F18BF02F0E5FB05EBCA0020
:1039100000F128018E4206D029698E42C0F08180D4
:10392000F16849457DD1B74206D12868012101FAE5
:103930000AF18843286076E02830874205D028695C
:1039400087426ED3B86848456BD1F760BE606AE0C5
:10395000D9F80C70D9F818604F450DD0D9F8080087
:103960002969884223D3C168494504BFB9684945DC
:103970001DD1C760B8601CE009F11400076837B9B1
:1039800009F110000768A7B101E00846076807F1D0
:1039900014010A68002A02BF07F110010A68002A10
:1039A000F3D12969884202D30021016001E002F0CD
:1039B00092FB002E37D0D9F81C0005EB800000F5F3
:1039C0009870016889450AD10760380012D1D9F88A
:1039D0001C206868012191408843686023E02869C1
:1039E000864205D33069484514BF7761376101E0ED
:1039F00002F071FBBFB12869874212D3BE61D9F8CA
:103A0000101029B1814226BF39618F6102F063FB3A
:103A1000D9F8140038B12969884202D378618761E6
:103A200001E002F058FB48F00100606048F80480B3
:103A3000686984420BD1C5F80880ACE040084000BA
:103A4000C9F8040048F00100606048F804804FEABB
:103A5000D807202F22D205EBC70000F128094E46D7
:103A6000B8F1100F38BF02F036FB286820FA07F1D2
:103A7000C90704D40121B9400843286007E0D9F8F8
:103A80000800296988422CBF064602F024FBC9F8C9
:103A90000840F460A660C4F80C907CE05FEA18204F
:103AA00008BF002123D0B0F5803F28BF1F211ED2C0
:103AB000A0F58071090C01F008018840A0F5805242
:103AC000120C02F004029040A0F580431B0CC1F1DF
:103AD0000E0103F00203891AC91A984001EBD03095
:103AE000C11D28FA01F202F0010101EB40010022A0
:103AF00062612261E16105EB81006A6822FA01F3EB
:103B0000DB0700F5987006D4012303FA01F1114395
:103B1000696004601CE000681F290EBF002149088D
:103B2000C1F1190108FA01F100E010464268D2081B
:103B3000D200424510D0CA0F00EB820202F11003FE
:103B400049001A68002AF0D129698B4211D31C6000
:103B5000A061E460A4600EE02A698168904228BFF9
:103B6000914206D3CC608460E060A1600020A06137
:103B700001E002F0B0FA286A401E28620BD1D5F8A5
:103B8000C80100E080680028FCD14FF0FF302862B7
:103B900001E002F0A0FAC046C046BDE8F087000090
:103BA000F02B00206032002010B50400002C01D161
:103BB000012033E0A0690028FFD194F839000028E3
:103BC00005D1002084F83800200002F0B1FA24204A
:103BD00084F839002068C06830F400502168C8605B
:103BE000200000F039FA2068006930F49040216824
:103BF00008612068406930F02A0021684861206827
:103C0000C06850F400502168C8600020E0632020A4
:103C100084F83900202084F83A00002010BD2DE9F6
:103C2000F04182B004000D0016001F005FF0000894
:103C300094F8390020285DD1002D02D0B6B2002EB4
:103C400001D1012057E094F93800012801D1022068
:103C500051E0012084F838000020E063212084F83E
:103C6000390000F05AFC8046A684E68403E02878F8
:103C7000216848606D1CE08C002828D0E08C401E34
:103C8000E084A068B0F5805F16D10097434600221B
:103C90008021200000F0FCF8002801D003202AE059
:103CA0002888C005C00D216848602069002801D11E
:103CB000AD1CE0E76D1CDEE7009743460022802143
:103CC000200000F0E5F80028D1D0032013E0009791
:103CD000434600224021200000F0DAF8002801D0FD
:103CE000032008E0202084F83900002084F8380000
:103CF000002000E00220BDE8F68190F83A30202B49
:103D000028D1002902D092B2002A01D1012022E05C
:103D100090F93830012B01D102201CE0012380F8FA
:103D2000383081628285C2850021C163222180F8FA
:103D30003A10002180F838100168496951F00101FA
:103D4000026851610168C96851F490710068C160EE
:103D5000002000E00220704738B5040020680068A9
:103D60002168C968226852690023002310F00F03FC
:103D7000002B07D1850605D58D0603D5200000F060
:103D80001EF982E0002B70D0D30702D411F4907F8B
:103D90006BD010F00103DBB2002B05D0CB0503D5AF
:103DA000E36B53F00103E363430708D512F001030B
:103DB000DBB2002B03D0E36B53F00203E363830712
:103DC00008D512F00103DBB2002B03D0E36B53F0F4
:103DD0000403E363030708D512F00102D2B2002AFC
:103DE00003D0E26B52F00802E263E26B002A3BD0A0
:103DF000800604D5880602D5200000F0E0F820688F
:103E00004069800910F00103E06B000701D4002B2A
:103E100025D0200000F074F82068406940061AD5CB
:103E20002068406930F0400021684861606B0028DC
:103E30000DD00FF2F100616B0865606B02F09AFA29
:103E4000002811D0606B616B096D88470CE0200081
:103E500000F01DF808E0200000F019F804E0200050
:103E600000F015F80020E0630FE0020605D50A0611
:103E700003D5200000F060F807E0400605D54806AD
:103E800003D5200000F08DF8FFE731BD7047704783
:103E90002DE9F04104000D0016001F00DDF8188028
:103EA000206800682840A84201D1012000E00020DD
:103EB00076B2B04221D118F1010FF1D0B8F1000F64
:103EC00004D000F02AFBC01B8045E9D22068C068FE
:103ED00030F4D0702168C860206840694008400014
:103EE00021684861202084F83900202084F83A00B5
:103EF000002084F83800032000E00020BDE8F081B5
:103F00000168C96831F490710268D160016849693B
:103F10004908490002685161202180F83A10704731
:103F20000000000080B5806B0021C1850021C184A4
:103F3000FFF7ADFF01BD000090F8391021292ED107
:103F40008168B1F5805F10D1016A0988C905C90D82
:103F5000026851600169002903D1016A891C01626C
:103F600009E0016A491C016205E0016A4A1C02621B
:103F7000097802685160C18C491EC18489B2002948
:103F80000BD10168C96831F080010268D160016815
:103F9000C96851F040010068C160002000E00220C3
:103FA000704780B50168C96831F040010268D1608E
:103FB000202180F83910FFF769FF002002BD80B58D
:103FC00090F83A10222945D18168B1F5805F14D16B
:103FD000816A0269002A08D102685268D205D20DAE
:103FE0000A80816A891C816219E002685268D2B233
:103FF0000A80816A491C816211E00169002906D1A9
:10400000816A4A1C8262026852680A7007E0816A0B
:104010004A1C82620268526812F07F020A70C18DE7
:10402000491EC18589B2002912D10168C96831F4DD
:1040300090710268D16001684969490849000268C5
:104040005161202180F83A1002F082FB002002E04A
:10405000002000E0022002BD2DE9F0410400002014
:104060002068006930F44050E16808432168086125
:104070002068C068BB490840A16822691143626991
:104080001143E269114308432168C8602068406910
:1040900030F44070A169084321684861E069B0F5D7
:1040A000004F40F0B0802068AF49884203D02068BC
:1040B000AE49884253D103F0F3F8804603F0F0F89C
:1040C000060003F0EDF8070003F0EAF8050003F03E
:1040D000E7F8192101FB08F162685200B1FBF2F127
:1040E0006422B1FBF2F1192202FB06F263685B0065
:1040F000B2FBF3F2192303FB07F366687600B3FB08
:10410000F6F36426B3FBF6F3642606FB1322D20013
:1041100032326423B2FBF3F212F0F802520012EBD7
:104120000111192202FB05F263685B00B2FBF3F296
:104130001923584363685B00B0FBF3F06423B0FBC2
:10414000F3F0642303FB1020C00032306422B0FB84
:10415000F2F010F0070040182168886000E103F0D9
:104160008FF8804603F08CF8060003F089F807000A
:1041700003F086F8050003F083F8192101FB08F12C
:1041800062685200B1FBF2F16422B1FBF2F1192234
:1041900002FB06F263685B00B2FBF3F2192303FB38
:1041A00007F366687600B3FBF6F36426B3FBF6F319
:1041B000642606FB1322D20032326423B2FBF3F2F0
:1041C00012F0F802520012EB0111192202FB05F263
:1041D00063685B00B2FBF3F21923584363685B002A
:1041E000B0FBF3F06423B0FBF3F0642303FB102077
:1041F000C00032306422B0FBF2F010F0070040182B
:1042000021688860ACE020685749884203D0206864
:104210005649884252D103F043F8804603F040F8F3
:10422000060003F03DF8070003F03AF8050003F03C
:1042300037F8192101FB08F162689200B1FBF2F135
:104240006422B1FBF2F1192202FB06F263689B00C3
:10425000B2FBF3F2192303FB07F36668B600B3FB66
:10426000F6F36426B3FBF6F3642606FB1322120171
:1042700032326423B2FBF3F212F0F00212EB0111BE
:10428000192202FB05F263689B00B2FBF3F21923CB
:10429000584363689B00B0FBF3F06423B0FBF3F07A
:1042A000642303FB1020000132306422B0FBF2F0E3
:1042B00010F00F0040182168886051E002F0E0FF24
:1042C000804602F0DDFF060002F0DAFF070002F090
:1042D000D7FF050002F0D4FF192101FB08F1626845
:1042E0009200B1FBF2F16422B1FBF2F1192202FB60
:1042F00006F263689B00B2FBF3F2192303FB07F39A
:104300006668B600B3FBF6F36426B3FBF6F36426E7
:1043100006FB1322120132326423B2FBF3F212F0D5
:10432000F00212EB0111192202FB05F263689B00F7
:10433000B2FBF3F21923584363689B00B0FBF3F020
:104340006423B0FBF3F0642303FB10200001323040
:104350006422B0FBF2F010F00F0040182168886072
:10436000BDE8F081F369FFFF001001400014014037
:104370005FF0FF0C1CEAD05114BF614506E0C1108C
:10438000400721F0E04101F16051704779B900F038
:10439000004100020AD0B0FA80FC00FA0CF001F1F2
:1043A0006051A1EB0C5101EBD02140057047410257
:1043B0000CBF40F4E0016FF00001002070470000E6
:1043C0000CB41CB5044604A801900A46009401AB45
:1043D000694607487844183002F096FF009A002199
:1043E000117000285CBF0098001B16BC5DF80CFB28
:1043F00087E2FFFF0EB400B582B003A90091024628
:104400006B460121034878440A3002F07DFF06BC68
:104410005DF810FB397600000A22002104F0CAB8CA
:1044200080B5002204F0A2F941EC100B01BD0000A0
:104430004FF4001C1CEB410F94BF1CEB430F09E031
:1044400041EA030C50EA4C0C52EA0C0C03D28B42AA
:1044500008BF8242704714BF9942904270470000E3
:1044600090420CD141EA030C50EA4C0C07D099421F
:1044700005D14FF4001C1CEB410F38BF8942704737
:104480004FF4001C1CEB410F94BF1CEB430F09E0E1
:1044900041EA030C50EA4C0C52EA0C0C03D299424C
:1044A00008BF9042704714BF8B42824270470000A1
:1044B00080B52348006850F4007021490860204806
:1044C000006850F480601E4908601D48006850F480
:1044D00080701B490860032004F0AEF9002000F052
:1044E00004F804F0EEF9002002BD10B504001548F0
:1044F00000684FF47A71B0FBF1F004F0B7F90022D4
:1045000021005FF0FF3004F09BF9002010BD0E4841
:104510000068401C0C49086070470B4800687047F1
:1045200031B5FFF7FAFF0400009D15F1010F00D02F
:104530006D1CFFF7F2FF001BA842FAD331BD00004B
:10454000003C0240000000207832002080B50022AC
:104550000221272004F074F9272004F082F901BD1C
:1045600080B5002000903448006850F002003249C5
:1045700008603148006810F00200009000982F4851
:104580002F4908604FF416502D49486000202C49EF
:10459000886000202A49C8600020294908610C2051
:1045A0002749486100202649886100202449C861C4
:1045B0002348FFF7F9FAFFF7C9FF01BD38B504003A
:1045C0000D000A20FFF7ACFF01224FF480711D4857
:1045D00004F0A4FA4FF6FF73EDB22A0092B2210064
:1045E0001748FFF71CFB00280AD11548006800682F
:1045F0004006FAD500224FF48071124804F08EFA7A
:104600000A20FFF78DFF31BD10B504000020207097
:104610006420FFF785FF0C48FFF7ECFE0B4800888D
:1046200020700A4800880A4908800020074908804D
:104630000A20FFF775FF10BD3038024000480040E7
:1046400090310020001C024094BA00089C320020E7
:10465000E801002010B50400002C01D101204FE03A
:1046600094F91D00002804D100202077200004F0D8
:10467000A3FB02206077CA2021684862532021688A
:104680004862200000F0B6F9002806D0FF2021681B
:10469000486204206077012032E020688068DFF8FB
:1046A0001413084021688860206880686168226966
:1046B000114362691143084321688860E0682168FA
:1046C000086120680069A16850EA0140216808611A
:1046D0002068C06830F080002168C8602068006CE5
:1046E00030F48020216808642068006CA1690843C8
:1046F00021680864FF20216848620120607700205B
:1047000010BDF8B504000D00002694F91C00012826
:1047100001D102207DE00120207702206077002A6D
:104720001BD120688068400601D40020E8702878FA
:1047300000F07CF90600687800F078F90700A878A6
:1047400000F074F9F6B2FFB2390251EA0641C0B284
:104750000843E97850EA014614E020688068400682
:1047600004D5287800F06DF9060001E00020E8701B
:1047700028786978090251EA0040A9780843E97865
:1047800050EA0146CA2021684862532021684862E5
:10479000200000F02FF9002808D0FF20216848628F
:1047A0000420607700202077012032E0DFF8080243
:1047B0003040216808602068806830F480202168DB
:1047C000886020688068E9682A6911430843216885
:1047D00088602068C06830F080002168C860206868
:1047E000806880060DD4200000F0EAF8002808D088
:1047F000FF20216848620420607700202077012094
:1048000007E0FF20216848620120607700202077C0
:104810000020F2BD10B50C0000210168896A6160BA
:10482000016809694904490CA16000680068DFF863
:1048300088110140080C10F03F002070080A10F0A9
:104840007F00607011F07F00A070080C10F0400035
:10485000E070002A0BD1207800F0F3F82070607827
:1048600000F0EFF86070A07800F0EBF8A070002086
:1048700010BDF8B504000D00002694F91C000128B5
:1048800001D1022070E00120207702206077002A09
:1048900007D16878C00604D5687810F0EF000A30B8
:1048A0006870002A15D1E87800F0C0F80600687832
:1048B00000F0BCF80700A87800F0B8F8F6B2FFB234
:1048C000390251EA0641C0B20843297850EA41361C
:1048D00011E0687800F0B5F80600A87800F0B1F8AB
:1048E0000600E8786978090251EA0040A97808438F
:1048F000297850EA4136CA2021684862532021684D
:104900004862200000F076F8002808D0FF202168D7
:1049100048620420607700202077012024E0DFF83F
:104920009C003040216848602068C06830F08000FA
:104930002168C8602068806880060DD4200000F0DF
:104940003FF8002808D0FF202168486204206077E3
:1049500000202077012007E0FF2021684862012025
:104960006077002020770020F2BD10B50C000021F8
:1049700000684068DFF844100140080CE070080A45
:1049800010F01F00607011F03F00A070480B10F095
:1049900007002070002A0BD1E07800F052F8E07098
:1049A000607800F04EF86070A07800F04AF8A070CF
:1049B000002010BDBFFF8FFF7F7F7F003FFFFF0004
:1049C00038B5040000252068C06830F0A0002168D8
:1049D000C860FFF7A2FD05002068C068800607D404
:1049E000FFF79BFD401BB0F57A7FF5D9032000E06F
:1049F000002032BD38B5040000252068C06840069C
:104A000012D45FF0FF302168C860FFF786FD050013
:104A10002068C068400607D4FFF77FFD401BB0F553
:104A20007A7FF5D9032000E0002032BD002101E0AB
:104A3000491C0A38C0B20A28FAD250EA0110C0B2A2
:104A4000704700210100C9B20909C9B20A225143C5
:104A5000C0B210F00F004018C0B27047B0B581EA84
:104A6000030C0CF0004C40F2FF7515EA11541DBF09
:104A700015EA1357AC42AF4239E0E41923EA455333
:104A800043F48013C90241F0004141EA505EC7027D
:104A90001100A7FB020200284FF00000EEFB0120EE
:104AA0004FF00001E3FB072118BF42F0010240185C
:104AB00000214941E3FB0E01A4F580640F0302D2FB
:104AC00052004041494154F101046CDD470872F144
:104AD000004250F1000051EB0451A1F580115CBF80
:104AE00041EA0C01B0BD4CEA05510020B0BD05EA19
:104AF0001357AC4214BFAF4241E050EA410E1CBF15
:104B000052EA430E02E061460020B0BD24423C441C
:104B10001BD15FEA070EF6D0090302BF0146002051
:104B2000AEF1140EB1FA81F7AEEB070401FA07FEFD
:104B30000C37C7F1200100FA07F7C8404EEA000E13
:104B400023EA455343F48013A2E733F00043B3FA5A
:104B500083F704BFB2FA82FE77440B3FE41BB7F140
:104B6000200E2FBF02FA0EF3BB40C7F1200E22FA2F
:104B70000EFE38BF43EA0E03BA40641C82E750EAD7
:104B8000410E14BF52EA430E6FF000014FF40017BC
:104B900017EB430F8ABF194617EB410FB5E74CEAF5
:104BA00005510020B0BDD4F10104B4F120070FDAA3
:104BB000C4F12007520828BF42F0010210FA07F59D
:104BC00001FA07F7E1BF2A43E0403843E1400FE034
:104BD000352C98DCC7F1200452EA400220FA07F293
:104BE00018BF42F0010231FA07F0A1400A43002148
:104BF00072F1004250F1000051EB0C01B0BD000019
:104C00004FEAF17CBCF1E04C2CBFBCF5001F11E079
:104C10005FEA4C0C34BFBCF17F5F2EE05FEA9C0C76
:104C20004FEA0C1C4FEA3C0CC10071F100414CEB07
:104C300050707047C90241EA5051C00218BF41F09C
:104C4000010141F000414FEA6C50C0F109002128F8
:104C500010D240EACC7CCCF1200C11FA0CF070F1AF
:104C60000040CCF1200C21FA0CF00CF0004C40EB91
:104C70000C0070474FEACC707047490011F5001FD7
:104C800004D84FEACC10FF30C0057047C8177047F2
:104C900030B4002300220AE00C78012595402C4214
:104CA00004D00124D2F10705AC402343521C082A4A
:104CB000F2DB037030BC704730B4002300220AE0FE
:104CC0000C88012595402C4204D00124D2F10F0517
:104CD000AC402343521C102AF2DB038030BC7047E7
:104CE00070B582B004000D004FF6FF70ADF8000003
:104CF00048F2050600208DF802002800451E002815
:104D000026D020788DF80200641C0DF102010DF10F
:104D10000200FFF7BDFFBDF800009DF8021090EA09
:104D20000120ADF80000002005E0BDF800104900AA
:104D3000ADF80010401C0828DFDABDF800100904A7
:104D4000F3D5BDF8001096EA4101ADF80010F1E787
:104D500069466846FFF7B0FFBDF8000076BD000069
:104D6000820707D010F8012B11F8013BBAB19A4223
:104D7000F6D014E002680B689A42A2F1013301BF39
:104D8000934313F0803F50F8042F51F8043FF3D0C1
:104D900010F8012B11F8013B0AB19A42F8D0D01A51
:104DA0007047002848BF404270470000010040F1B2
:104DB0000980F446404200F005F851F00041604798
:104DC000010000BF09D0B0FA80F18840C91CC1F5CC
:104DD0008461090501EBD02140057047F0B44FF024
:104DE000004591EA030C44BF6B4004F01BB800BFC0
:104DF000841A71EB030603D2001BB14112197341EF
:104E00004FF4001C1CEB410F34BF7CEB430443E028
:104E10000C0DA4EB1356352E50DC45EAC323DB0AF8
:104E200045EAC121C912B6F120050DDD63FA05F688
:104E3000EB4086EA0305124218BF45F00105C01891
:104E400051F100010CD213E062FA06F5F240554030
:104E5000F3415A40B340F3405A408018594107D3B8
:104E600049085FEA30005FEA350528BF45F00105D3
:104E700001F58011420875F1004250F1000041EB4C
:104E80000451F0BC4FF4001C1CEB410F38BF7047BD
:104E90000020090D090570471CEB410F10D252EAA2
:104EA00043060BD0BCEB410F05D80C0DAB43661E7F
:104EB000342EB5DD02E0AB4380185941F0BC704799
:104EC000F0BC7047F446400D40EAC120490006D2CC
:104ED00000F014F8004248BF6FF00040604700F057
:104EE0000DF84FF0004188428CBF084640426047B1
:104EF000400D40EAC120490080F00D8040F00040A4
:104F0000490DA1F58061491C05D4D1F11F0154BFA1
:104F1000C840C01770474FF0000070471248006843
:104F200050F47000104908601048006850F001000B
:104F30000E49086000200E4908600C4800680D49C1
:104F400008400A4908600C480C4908600748006896
:104F500030F48020054908600020094908605FF0AE
:104F6000006008490860704788ED00E000380240A2
:104F700008380240FFFFF6FE1030002404380240DB
:104F80000C38024008ED00E02DE9F8452DED088BC6
:104F90000FB486B040F2FF7107989DED080B8DEDC0
:104FA000040BC0F30A50884208D10798002400037C
:104FB00005BF069800280225012512E0012807DA1E
:104FC00006A803F0E5FF012802DB0024002508E025
:104FD000079A40F2FE3161F31E520792441A4FF0D5
:104FE000FF35002104A803F0F4FF1A9F06460FB115
:104FF0000020388036B9DDE9082300200021FFF7C2
:105000002FFA12D0002D13D524B2012C15D1DDE9D1
:1050100006230020DFF88C13FFF722FA05D0012EBB
:105020000BD1DF49FFF71CFA3ED10AB0CD49E8E1C8
:10503000022D04D1DDE90601E2E1012E6FDB022E33
:1050400008BFDDE9080100F0DB81012D2AD10798B6
:105050000028099806D4002854BF9FEDD50B9FED7A
:10506000D60BCBE100280ED456B94FF0FF3104A87F
:1050700003F0AFFF002848BF9FEDD10B00F1BE81C8
:105080009FEDCB0BBAE156B94FF0FF3104A803F006
:10509000A0FF002848BF9FEDB40B00F1AF819FED4A
:1050A000C60BABE1012E11D10998002824B206D419
:1050B000012CACBF9FEDBE0B9FEDBF0B9EE1012C01
:1050C000ACBF9FEDBD0B9FEDBA0B97E1099800288F
:1050D00010D466B94FF0FF3104A803F07AFF00281E
:1050E00042BF079800289FEDA00B00F187819FED3C
:1050F000B20B83E103F0AAFF2221016066B94FF0F1
:10510000FF3104A803F065FF002842BF079800287C
:105110009FEDAB0B00F172819FEDA50B6EE107983F
:10512000002848BF002E0CD503F090FF212101601C
:105130000AB04FF0FF30BDEC088B6FF00041BDE8C6
:10514000F485DDE9060100220023FFF771F938BF7D
:10515000002509D381F00041CDE906014FF0FF3170
:1051600004A803F036FF0546012C13D1DDE9060142
:105170007F4A804BFFF784F90CD2DDE9062300203B
:105180004FF08041FFF76AFCCDE9060100269FED54
:105190007A8B1CE0DDE9062300207949FFF75EFCED
:1051A0009FED788B53EC182BFFF718FEFFF78AFE64
:1051B000A0F120063046FFF7F9FD0022734BFFF700
:1051C0004DFC53EC182BFFF709FE41EC180B0FF2C6
:1051D000582000EB461ADDE9060153EC182B03F0CA
:1051E00017FEDDE9062341EC190B51EC180BFFF714
:1051F000F5FD02460B4651EC190B03F02DFF41EC77
:105200001A0B53EC1A2BFFF729FC41EC1B0B8DED0D
:10521000069B04F04DF853EC1B2BFFF71FFCDDE958
:10522000062303F0F5FD0646884600204D4953EC61
:10523000182B03F0EDFD00224FF08043FFF70EFC2A
:1052400032464346FFF7CAFD53EC1A2BFFF706FC24
:10525000DDE90623FFF7C2FD41EC180B4C4A4D4B2C
:1052600003F0FAFECDE904012046FFF79FFD41EC73
:10527000190BDAE9000153EC192BFFF7AFFDDDE95B
:105280000423FFF7ABFDCDE90401DDE90823FFF7B7
:10529000E5FBCDE9020100223F4BFFF7F1F8C0F03A
:1052A000938001223D4BFFF7C3F840F2918000222A
:1052B0000023FFF7E5F8DDE9022339BF0020384974
:1052C00000203849FFF78AFDFFF7FCFD0446DDE9C1
:1052D000080153EC182BFFF7C1FBCDE90201DAE915
:1052E0000223DAE90401FFF779FDDDE90823FFF77E
:1052F000B5FB9FED2D8B53EC182BFFF7AFFBDDE9D2
:105300000223FFF76BFDCDE90201DAE9002351EC3E
:10531000190BFFF763FDDDE90823FFF79FFB064646
:1053200088462046FFF742FD02460B46304641467E
:1053300003F06EFD53EC182BFFF790FBDDE9022321
:10534000FFF74CFDCDE902010FB13C800024009431
:105350000022044B02A804F003F8A8B3012837D0B8
:1053600042E000BF0000F03F0000000000000080AD
:10537000CD3B7F669EA0E63F000000000000F03FAE
:1053800000005040000000000000E03F0000903F9F
:10539000EF39FAFE422EE63F0000E0C00000E04098
:1053A0000000E0BF0000E03FEF39FAFE422EE63F8A
:1053B000000000000000F07F00000000000000007E
:1053C000000000000000F0FF0020CDE9020007E02F
:1053D0000020014902E000BF0000F07FCDE902019A
:1053E00003F034FE22210160002D1DBFDDE9020122
:1053F00081F0004141EC100B9DED020B51EC100BC4
:105400000AB0BDEC088BBDE8F48580B500200090A3
:1054100053EC112B51EC100BFFF7B6FD41EC100BC8
:1054200001BD000000000000000000000000F0BF0F
:10543000000000000000008000000000000000806C
:105440000000000000000000000000C05294EEBF09
:1054500000000048204E51BE000000F86467BCBC4C
:105460000000000000000000000000208133EDBFBC
:1054700000000080B3DB14BE000000506706A3BC30
:105480000000000000000000000000D0E9DCEBBFDD
:1054900000000008C39259BE00000080B0D3B8BC21
:1054A000000000000000000000000070F98FEABF5B
:1054B000000000C0A51028BE000000E8BFC0B0BCBE
:1054C000000000000000000000000070284CE9BF50
:1054D00000000060134B42BE000000C03D20B8BC7D
:1054E000000000000000000000000050FA10E8BFBB
:1054F000000000C05FF62BBE000000905C71A7BCEE
:10550000000000000000000000000020FCDDE6BFFD
:10551000000000C0F8F154BE00000018E9F6B9BC64
:105520000000000000000000000000D0C3B2E5BF92
:1055300000000070E43254BE00000050DB06B4BC32
:10554000000000000000000000000010EF8EE4BF2B
:1055500000000020F36252BE000000C02A879ABCFF
:105560000000000000000000000000B02272E3BF55
:10557000000000F0E8E056BE00000028352DBDBC5C
:105580000000000000000000000000000A5CE2BF14
:10559000000000B0FA8E41BE00000040AE6FBDBCFE
:1055A000000000000000000000000000564CE1BFB9
:1055B000000000F015CD5FBE00000000141C90BC80
:1055C000000000000000000000000040BD42E0BFFD
:1055D00000000030F93457BE000000E06C1E93BCA0
:1055E0000000000000000000000000E0F57DDEBFCC
:1055F000000000B08A535EBE00000080DA77AABCCB
:105600000000000000000000000000C09D81DCBF21
:1056100000000000FFA226BE0000006057E2B0BC00
:10562000000000000000000000000060F98FDABFF9
:10563000000000580A8151BE000000F05F60B8BC55
:1056400000000000000000000000000098A8D8BF83
:10565000000000607A7F45BE000000D05433A3BC38
:105660000000000000000000000000600FCBD6BF6B
:10567000000000D091CB40BE000000406D1BA0BCDC
:105680000000000000000000000000A0FBF6D4BFF6
:1056900000000098C5CE52BE000000003A397EBC22
:1056A0000000000000000000000000E0FE2BD3BF5F
:1056B0000000004073872BBE00000000926879BC98
:1056C000000000000000000000000040C069D1BFE1
:1056D00000000058F16353BE00000080438D7CBC85
:1056E000000000000000000000000080D85FCFBF75
:1056F000000000181F8354BE000000B03F42A2BC4F
:1057000000000000000000000000008067FCCBBF2C
:1057100000000060FAFF53BE00000050E00DB8BC6E
:1057200000000000000000000000000098A8C8BFB2
:10573000000000607A7F35BE000000C0543393BC87
:10574000000000000000000000000000DC63C5BF96
:1057500000000058D6FF54BE00000000396490BC21
:105760000000000000000000000000C0AD2DC2BF1E
:1057700000000080A45915BE000000E0484BABBCFF
:105780000000000000000000000000801A0BBEBFF7
:1057900000000050BF3C5ABE000000A0B364B6BC7D
:1057A00000000000000000000000008004D6B7BF29
:1057B00000000040BBCF36BE0000008076CEA8BC03
:1057C00000000000000000000000008032BBB1BFFC
:1057D000000000402A0043BE00000028C60CBDBCEB
:1057E0000000000000000000000000009473A7BF4C
:1057F000000000182B3B59BE000000C0E55DA5BCB1
:10580000000000000000000000000000EE4397BF11
:10581000000000A0E6C340BE00000020958DB5BC8E
:1058200000000000000000000000000000000080F8
:105830000000000000000080000000000000008068
:10584000000000000000000080B5DFF8E003DFF892
:10585000E01308604FF48270DFF8D4134860002032
:10586000DFF8CC1388600020DFF8C413C860022082
:10587000DFF8BC1308610120DFF8B41348614FF46E
:105880000070DFF8AC1388610820DFF8A413C8614A
:105890000020DFF89C1308620020DFF894134862B0
:1058A0000020DFF88C1388620A20DFF88413C862B6
:1058B000DFF87C0303F0B8FE01BD00B587B00068D7
:1058C000DFF8681388425AD100200090DFF86403A3
:1058D000006850F48040DFF85C130860DFF8540380
:1058E000006810F480400090009800200090DFF8DD
:1058F0004803006850F48070DFF83C130860DFF85C
:105900003803006810F48070009000980020009028
:10591000DFF82403006850F00400DFF81C1308606F
:10592000DFF81403006810F00400009000980A20CB
:10593000019002200290022004900520059001A908
:10594000DFF8F80202F0F4FF042001900220029038
:10595000002003900520059001A9B94802F0E8FF56
:1059600001220121B54803F0D9F80120019001205E
:1059700002900520059001A9B04802F0D9FF07B0B8
:1059800000BD10B5040000F02BF900F038F900223A
:105990000121AA4803F0C2F8202000F00BF9200CE6
:1059A000C0B200F007F9200AC0B200F003F92000ED
:1059B000C0B200F0FFF801220121A04803F0AEF8C8
:1059C00000F01DF910BD70B504000D00160000F0C8
:1059D00007F900220121994803F0A0F8022000F005
:1059E000E9F8280CC0B200F0E5F8280AC0B200F0CF
:1059F000E1F82800C0B200F0DDF8B6B2B6F5807F5D
:105A000006DD4FF4807603E0207800F0D3F8641CC4
:105A10003000461E80B20028F6D1012201218748BD
:105A200003F07CF800F0EBF870BD2DE9F0410500C3
:105A30000C0000275FF000080020002600274FF42C
:105A40008071B4FBF1F000FB1140464292B24FF47A
:105A5000807192FBF1F792B24FF4807192FBF1F8F2
:105A600008FB1128C0B2002820D1FFB2002F0FD1AF
:105A700092B221002800FFF7A6FF70E04FF4807279
:105A800021002800FFF79FFF14F5807415F580753D
:105A90003800471EC0B20028F0D15FFA88F84246AD
:105AA00092B221002800FFF78EFF58E0FFB2002FCE
:105AB0001FD1F6B25FFA88F8464514D2B8EB060754
:105AC000F6B2320092B221002800FFF77CFF54FAB0
:105AD00086F4F6B27519FFB23A0092B2210028009E
