:020000040800F2
:10000000B8110020B1BB0008E5B00008E7B0000857
:10001000E9B00008EBB00008EDB0000800000000F7
:10002000000000000000000000000000EFB0000829
:10003000F1B0000800000000F3B00008F5B00008BF
:10004000C1BC0008C5BC0008C9BC0008CDBC000884
:10005000D1BC000801B10008D5BC0008D9BC00081B
:10006000DDBC0008E1BC0008E5BC0008E9BC0008F4
:10007000EDBC0008F1BC0008F5BC0008F9BC0008A4
:10008000FDBC000801BD000805BD000809BD000851
:100090000DBD000811BD000815BD000819BD000800
:1000A0001DBD000821BD000825BD000829BD0008B0
:1000B0002DBD000831BD000835BD000839BD000860
:1000C0003DBD000841BD000845BD000849BD000810
:1000D0004DBD000803B1000851BD00080DB1000876
:1000E00049B1000855BD000859BD00085DBD0008B4
:1000F00061BD000865BD00082BB1000869BD00089E
:100100006DBD000871BD000875BD000879BD00080F
:100110007DBD000817B1000821B1000881BD0008AD
:1001200085BD000889BD00088DBD000891BD00088F
:1001300095BD000899BD00089DBD0008A1BD00083F
:10014000A5BD0008A9BD0008ADBD0008B1BD0008EF
:10015000B5BD0008B9BD0008BDBD0008C1BD00089F
:10016000C5BD0008C9BD0008CDBD0008D1BD00084F
:10017000D5BD0008D9BD0008DDBD000800000000A5
:10018000E1BD0008E5BD000810B5DFF8D40A01F0B4
:10019000A7FE00240020DFF8CC0A007800280AD04F
:1001A000BAA1DFF8C40A01F0ADFE04000020DFF8B8
:1001B000B41A087005E0B5A1DFF8B00A01F0A2FE9C
:1001C0000400B2A1002001F09DFE90F9001030293A
:1001D00004D194F9000000F04BFD0CE090F9000010
:1001E000312804D194F9000000F014FC03E0DFF89A
:1001F000CC0C01F075FE10BD70B5ADF5966DDFF855
:10020000A40B01F06DFE68464FF4966101F0A0FE6C
:1002100000200024DFF84C0A0078002809D09CA1B7
:10022000DFF8440A01F06EFE0021DFF8382A117071
:1002300012E097A1DFF8340A01F064FE0CE001003F
:100240006846E4B2C82202FB040001F089FE641C87
:100250008FA1002001F056FE0028F0D1E4B2250065
:10026000002000F076F8012000F073F8022000F082
:1002700070F8032000F06DF8042000F06AF8052003
:1002800000F067F8002605E049B2DFF8980B01F0AE
:1002900027FE761CF6B2AE424DDA6846F6B2C821A9
:1002A00001FB060090F9001049B2302909D0EBD3C8
:1002B000322918D00ED3342927D01DD335292DD07B
:1002C000E2E76846F6B2C82101FB0601002000F013
:1002D000F5F9DEE76846F6B2C82101FB0601012008
:1002E00000F0ECF9D5E76846F6B2C82101FB06013B
:1002F000022000F0E3F9CCE76846F6B2C82101FB22
:100300000601032000F0DAF9C3E76846F6B2C82117
:1003100001FB0601042000F0D1F9BAE76846F6B205
:10032000C82101FB0601052000F0C8F90120DFF813
:10033000901B0870ADE7DFF88C0B01F0D1FDE4B243
:10034000002C03D00120DFF8EC1C08700DF5966D31
:1003500070BD70B50400052C5AD1002051E0002179
:10036000DFF8642B682303FB002211700021DFF803
:10037000582B682303FB002291770021DFF8482BDC
:10038000682303FB002211625FF0FF31DFF8382B96
:10039000682303FB002291620021DFF82C2B6823E5
:1003A00003FB002251620021DFF81C2B682303FBB2
:1003B0000022D1630021DFF8102B682303FB002209
:1003C00011660021DFF8002B682303FB002282F86E
:1003D00054100021DFF8F02A682303FB0022516645
:1003E0000021DFF8E42A682303FB002282F8401092
:1003F0000021DFF8D42A682303FB002282F84A1088
:10040000401C0528ABDBDFF8580B01F069FD3BE031
:10041000DFF8500B282101FB0400006A05000126CB
:1004200005E0D0F8805002F0A8FD2800761CDFF827
:10043000341B282202FB041109688E42F1DBDFF82D
:10044000240B282101FB040000220023C0E906231D
:10045000DFF8100B282101FB040000220023C0E973
:1004600004230020DFF8FC1A282202FB0411086094
:100470000020DFF8F01A282202FB04110862210094
:10048000DFF8200D01F02CFD70BD00002C000000F5
:100490003B000000F8B52DED028BA0B0DFF8980B03
:1004A00001F01EFD002700243DE097ED148A39007D
:1004B00002A801F055FD0190009518EE100A02F017
:1004C000E9FF02000B00DFF8741B07A803F00AF82D
:1004D00002A80190009518EE100A02F0DBFF02005E
:1004E0000B00DFF85C0B01F0FBFC07A803F014F82D
:1004F0004FF47A73020092B207A9DFF8480B03F0B9
:1005000062F8002078650020B86500203865D7F8CB
:100510008070761CDFF84C0A282101FB040000687B
:100520008642C2DB641C052C3FDADFF8380A28213A
:1005300001FB040000680128F4DBDFF8280A282109
:1005400001FB0400076ADFF8B00B282101FB04005F
:100550000568DFF8A40B282101FB040090ED098A4F
:10056000009518EE100A02F095FF02000B00DFF86C
:100570008C1B07A802F0B6FF009518EE100A02F0D7
:1005800089FF02000B00DFF8780B01F0A9FC07A837
:1005900002F0C2FF02004FF47A7392B207A9DFF8AB
:1005A000A40A03F010F80026B4E74FF47A7301228E
:1005B00040A1DFF8900A03F006F8DFF8EC0B01F039
:1005C0008FFC20B0BDEC028BF1BD0000F8B52DED25
:1005D000028BDFF8B00B01F083FC002000249FEDBC
:1005E000368A00250026002719E0DFF8780928213F
:1005F00001FB070090ED000AB8EEC00A88EE008A01
:10060000DFF86009282101FB070080ED028ADFF88E
:10061000E80A282101FB070080ED098A7F1C052FCD
:1006200044DADFF84009282101FB0700006A0028AE
:1006300017D1F3E790ED160AB8EEC00AD0ED140A10
:1006400080EE800A80ED140A90ED140A38EE008ADC
:10065000416D8D4201DA456D0400416D8E19D0F86F
:100660008000002808D0816D002902D0416D1F292B
:10067000E0DB00210165E7E7DFF87C0A282101FBC8
:10068000070007601F2EB0DBDFF86C0A282101FB92
:100690000700DFF81C1B41622100DFF85C0A2822FA
:1006A00002FB0700001D01F05BFCB7E7BDEC028B0D
:1006B000F1BD0000230000000000000070B52DED2A
:1006C000028BADF57A7D0500080000240026002687
:1006D000CFA101F017FC04000CE0CDA1002001F037
:1006E00011FC040021006846322202FB060001F0E2
:1006F00037FC761C002CF0D10A2E07DA052D05D028
:100700002900DFF8B00A01F0EBFB7CE1052D40F099
:10071000BC80684603F000FB050000241AE0DFF807
:10072000A827682303FB012212EB81026B46C8262F
:1007300006FB0433CB1893F9C830303B9362491C55
:100740008142ECDB0020DFF88017682202FB0411F5
:100750000862641CAC4280F297806846A100322295
:1007600002FB010010F13201DFF85C07682202FB96
:10077000040001F0F5FB6846A100322202FB0100F3
:1007800090F86400DFF84017682202FB04118877B4
:100790006846A100322202FB0100963003F0BCFA49
:1007A000DFF82417682202FB0411C863DFF818077A
:1007B000682101FB0400C06B042826D10020694693
:1007C000A200322303FB021181F8CD006846A1008C
:1007D000322202FB010010F1C801DFF8EC066822AA
:1007E00002FB0400403001F0BBFB6846A10032224E
:1007F00002FB010010F1CE01DFF8CC06682202FBFB
:1008000004004A3001F0ACFB9CE7DFF8BC0668212D
:1008100001FB0400C06B032826D100206946A2001A
:10082000322303FB021181F8CD006846A100322279
:1008300002FB010010F1C801DFF88C06682202FB00
:100840000400543001F08CFB6846A100322202FB08
:10085000010010F1CE01DFF87006682202FB0400EF
:100860004A3001F07DFB6DE76846A100322202FBB1
:100870000100C83002F050FEDFF84C16682202FB7F
:100880000411486200215BE7BDE0DFF8D8062821AB
:1008900001FB05004560684603F03EFADFF8C41628
:1008A000282202FB0511086000210DF1320003F03F
:1008B00037FAB0EE408AF0EE608A002119A803F002
:1008C0002FFADFF8A006282101FB050080ED048B3C
:1008D000DFF89006282101FB050080ED060B0020C3
:1008E000DFF88016282202FB0511086200240EE0C2
:1008F000DFF87006282101FB0500006AC6F88000B9
:10090000DFF86006282101FB05000662641CDFF8A1
:100910005406282101FB05000068844273DA842014
:1009200002F0D0F906006846072101FB04F13222EB
:1009300002FB010010F19601300001F011FB684646
:10094000072101FB04F1322202FB010010F1C80172
:1009500016F11E0001F004FB6846072101FB04F1BB
:10096000322202FB010010F1FA0116F15C0001F0E5
:10097000F7FA6846072101FB04F1322202FB01006D
:1009800010F5967003F0C8F9B0666846072101FBC0
:1009900004F1322202FB010010F5AF7003F0BCF944
:1009A000F0666846072101FB04F1322202FB0100D8
:1009B00010F5C87003F0B0F930676846072101FBF5
:1009C00004F1322202FB010010F5E17116F174000E
:1009D00001F0C6FA00207065002030650020B06587
:1009E0000020C6F88000DFF87C05282101FB050007
:1009F000006A00287FF47CAFDFF86805282101FB3E
:100A00000500066282E70DF57A7DBDEC028B70BDB4
:100A10002C00000010B58EB0040064B22100DFF895
:100A2000140901F05DFA00F0BFF964B2312C07D06F
:100A3000C0F09480332C49D024D3342C6AD08DE07C
:100A400001224FF48051DFF8F00803F067FA01202B
:100A5000DFF874140862DFF87004036ADFF86824B2
:100A6000DFF8D818684602F03DFD684602F054FDF4
:100A70004FF47A73020092B26946DFF8C80502F0BB
:100A8000A2FD6BE001224FF48051DFF8AC0803F0C7
:100A900045FA0120DFF83014C1F88800DFF8280497
:100AA000D0F88830DFF89828DFF89818684602F008
:100AB00019FD684602F030FD4FF47A73020092B2DD
:100AC0006946DFF8800502F07EFD47E001224FF421
:100AD0008051DFF8640803F021FA0120DFF8E81301
:100AE000C1F8F000DFF8E003D0F8F030DFF8982B21
:100AF000DFF8981B684602F0F5FC684602F00CFD32
:100B00004FF47A73020092B26946DFF8380502F0BA
:100B10005AFD23E001224FF48051DFF81C0803F056
:100B2000FDF90120DFF8A013C1F85801DFF89803A0
:100B3000D0F85831DFF8582BDFF8581B684602F020
:100B4000D1FC684602F0E8FC4FF47A73020092B2DE
:100B50006946DFF8F00402F036FDFFE70EB010BD85
:100B6000F0B59FB0040000200026002205A9DFF8A0
:100B7000280B03F0E9FA9DF815309DF81420DFF8F2
:100B80001C1B684602F0AEFC6946CF48682202FB97
:100B90000400403001F0E4F9CB48682101FB040077
:100BA00010F15401684601F0DBF99DA101F0AAF9AA
:100BB0000BE001000AA8142202FB060001F0D0F9A4
:100BC00097A1002001F09EF9761C0028F1D10026A3
:100BD000BD48682101FB040010F14001684601F0A6
:100BE000BFF98FA101F08EF90BE0010014A81422C7
:100BF00002FB060001F0B4F989A1002001F082F99E
:100C0000761C0028F1D119A803F086F806000FA879
:100C100003F082F886193C2E07DB3C2096FBF0F5AA
:100C20003C2096FBF0F100FB116614A803F074F869
:100C300007000AA803F070F8C0194519182095FBA1
:100C4000F0F100FB115533002A00DFF8501A9E48DE
:100C5000682505FB0400403002F044FC1FB0F0BDE5
:100C600050B80008693500207C2B0020B8210020F6
:100C700010B58EB0040064B22100DFF8240A01F040
:100C80002FF900F091F864B2312C07D0C0F08780C2
:100C9000332C42D020D3342C60D080E000224FF49B
:100CA0008051DFF8940603F039F900208649086284
:100CB0008548036A844ADFF88416684602F012FC0D
:100CC000684602F029FC4FF47A73020092B269463A
:100CD000DC4802F078FC62E000224FF48051DFF83B
:100CE000580603F01BF900207749C1F888007648C0
:100CF000D0F88830DFF84826DFF84816684602F05A
:100D0000F1FB684602F008FC4FF47A73020092B2DD
:100D10006946CC4802F057FC41E000224FF4805174
:100D2000DFF8140603F0FAF800206749C1F8F00074
:100D30006548D0F8F030DFF85029DFF850196846E0
:100D400002F0D0FB684602F0E7FB4FF47A73020032
:100D500092B26946BB4802F036FC20E000224FF414
:100D60008051DFF8D40503F0D9F800205649C1F8C6
:100D700058015548D0F85831DFF81429DFF8141914
:100D8000684602F0AFFB684602F0C6FB4FF47A7388
:100D9000020092B26946AB4802F015FCFFE70EB0C4
:100DA00010BD000050B7000800B589B0002203A9AB
:100DB000DFF8E40803F0C8F9002202A9DFF8D80838
:100DC00003F06DFA9DF80B0000F2CD700C21DFF8F6
:100DD000282B9DF8083052F8232001929DF80A2014
:100DE00000929DF8093090FBF1F201FB1200DFF850
:100DF0000C1B51F820209DF80B0010F5FA61DFF86C
:100E0000000B01F06DF89DF80E309DF80D209DF857
:100E10000C10DFF82C0D01F063F809B000BD0000E4
:100E20003A00000070B70008F8B50400DFF8DC0BEA
:100E3000682101FB0400456A00263CE0DFF8CC0B8A
:100E4000682101FB040010EB8600876A45482821D1
:100E500001FB0700806802F01DFB424A282303FBC8
:100E600007225369126903F093FA08D2DFF89C0B4A
:100E7000682101FB040090F91E00FFF7CBFD394803
:100E8000282101FB0700806802F004FB02000B0030
:100E90003448282101FB0700C169806903F078FA12
:100EA00008D2DFF8680B682101FB040090F91E00EE
:100EB000FFF7DEFE761CAE42C0DBF1BD6CB8000869
:100EC0006535002088B80008482F0020F8B50400D8
:100ED000DFF8380B682101FB0400456A00263CE07E
:100EE000DFF8280B682101FB040010EB8600876AFD
:100EF0001C48282101FB0700806802F0CBFA194A40
:100F0000282303FB07225369126903F041FA08D230
:100F1000DFF8F80A682101FB040090F91E00FFF7D2
:100F2000A7FE1048282101FB0700806802F0B2FAF2
:100F300002000B000B48282101FB0700C1698069F2
:100F400003F026FA08D2DFF8C40A682101FB040086
:100F500090F91E00FFF75EFD761CAE42C0DBF1BDCE
:100F600070BA0008B031002070B5ACB004000025A4
:100F7000002000226946DFF8200703F0E5F89DF81D
:100F800001309DF80020DFF814171FA802F0AAFA1C
:100F90001FA9DFF8780A682202FB0400403000F045
:100FA000DFFFDFF8680A682101FB040010F14A0145
:100FB00012A800F0D5FF7DA100F0A4FF0BE0010016
:100FC00005A80A2202FB050000F0CAFF77A1002055
:100FD00000F098FF6D1C0028F1D1002D04D1DFF83E
:100FE000580B00F07DFF23E005A802F095FE0500F8
:100FF0003C260DF11E0002F08FFE06FB05004EF6AA
:1010000060214843DFF8041A682202FB04110866D5
:10101000DFF8F809682101FB0400006EDFF8EC1925
:10102000682202FB041148660120DFF8181C0870D2
:101030002CB070BD64350020ACB90008D8BB0008E6
:1010400090B70008D033002070B5A8B00400002588
:101050000020DFF8B809682101FB040010F140010D
:101060001AA800F07DFFDFF8A409682101FB040045
:1010700010F14A010DA800F073FF4CA100F042FFEF
:101080000BE0010068460A2202FB050000F068FF41
:1010900046A1002000F036FF6D1C0028F1D1002D84
:1010A00004D1DFF8980A00F01BFF23E0684602F045
:1010B00033FE05003C260DF10A0002F02DFE06FB72
:1010C00005004EF660214843DFF84019682202FB14
:1010D00004110866DFF83409682101FB0400006E82
:1010E000DFF82819682202FB041148660120DFF8A6
:1010F000941C087028B070BDE8300020CCBB0008FC
:10110000A4B8000810B5002400E0641C052C37DAF0
:10111000DFF8F808682101FB040090F9000030288E
:10112000F3D0DFF8E808682101FB0400C06B012858
:1011300006D0EAD303280BD006D3042814D0E4E762
:101140002000FFF771FEE0E72000FFF7BFFEDCE7BD
:10115000DFF8B808682101FB0400006E002802D106
:101160002000FFF701FFD0E7DFF8A008682101FBAE
:101170000400006E002802D12000FFF765FFC4E7DD
:1011800010BD0000B0B70008002004E00021DFF827
:10119000B82A8154401CDFF8181C09888842F5DB06
:1011A0007047000094B90008C4B900083A00000074
:1011B00000401CC6C0B8000810B52DED028B00EE33
:1011C000100A0C00B8EEC08A18EE100A02F062F99C
:1011D00002000B00DFF8DC0B00F082FE002C0ED0CA
:1011E000022C1CD00CD3042C37D027D3062C52D081
:1011F00042D3082C6DD05DD3092C79D087E08AE0EA
:1012000018EE100A02F046F9DFF8402ADFF8403AFB
:1012100003F0D6F803F0A6F908EE100A7BE018EE0A
:10122000100A02F037F9DFF82C2ADFF82C3A03F025
:10123000C7F803F097F908EE100A6CE018EE100AF0
:1012400002F028F9DFF8142ADFF8143A03F0B8F8AE
:1012500003F088F908EE100A5DE018EE100A02F0BB
:1012600019F9DFF8002ADFF8003A03F0A9F803F0D3
:1012700079F908EE100A4EE018EE100A02F00AF9A9
:10128000DFF8042BDFF8043B03F09AF803F06AF967
:1012900008EE100A3FE018EE100A02F0FBF8DFF843
:1012A000182BDFF8183B03F08BF803F05BF908EE1E
:1012B000100A30E018EE100A02F0ECF8DFF8002B0C
:1012C000DFF8003B03F07CF803F04CF908EE100A5D
:1012D00021E018EE100A02F0DDF8DFF8EC2ADFF862
:1012E000EC3A03F06DF803F03DF908EE100A12E055
:1012F00018EE100A02F0CEF8DFF8D42ADFF8D43A5C
:1013000003F05EF803F02EF908EE100A03E0DFF8B0
:10131000C80A00F0E5FD18EE100A02F0BBF8020062
:101320000B00DFF8900A00F0DBFDB0EE480ABDECE0
:10133000028B10BD40BB00080014024014BC000822
:10134000B02F00201CBC0008F8B52DED028B86B034
:1013500006000C0015006846142100F0F9FD9FED11
:10136000C88A9FEDC70A0027DFF8440A0188DFF822
:10137000D80803F067F900282BD1DFF8600A00F0E5
:10138000AFFDDFF85C1A14F15C0003F09BF9002854
:1013900040F09D80BBA114F1740003F093F9002884
:1013A00032D1E06E04281ED1A06E801910F8010C15
:1013B0008DF80200A06E805D8DF80300A06E80198C
:1013C00040788DF80000A06E801980788DF80100BB
:1013D00042E0DFF8100A00F083FD606D401C60659C
:1013E000FFF7D2FE48E1A06E805D8DF80200A06E8E
:1013F000801910F8010C8DF8030000208DF8000012
:1014000000208DF8010027E0E06E042814D1A06EC2
:10141000801910F8010C8DF80000A06E805D8DF829
:101420000100A06E801940788DF80200A06E80192E
:1014300080788DF803000FE0A06E801910F8010C81
:101440008DF80200A06E805D8DF8030000208DF8FD
:10145000000000208DF80100684600F031F9D4ED5D
:10146000140A70EE800AC4ED140A10EE100A02F09D
:1014700011F802000B00DFF8700900F031FD002DBB
:1014800009D0022D00F0968074D3042D00F0D28094
:10149000C0F0B080EEE0DFF8540990ED000AB4EE41
:1014A000408AF1EE10FA61DBDFF8440990ED000AA2
:1014B000B4EE480AF1EE10FA58DB94ED140A30EE5F
:1014C000080A84ED140AA06D401CA06551E0DFF805
:1014D000241914F15C0003F0F5F8002841D1E06E06
:1014E000022810D100208DF8000000208DF80100A6
:1014F000A06E801910F8010C8DF80200A06E805DBE
:101500008DF8030013E0A06E801910F8010C8DF81F
:101510000000A06E805D8DF80100A06E80194078FB
:101520008DF80200A06E801980788DF8030068465F
:1015300000F0B8F80700216F3800FFF73DFEB0EE6D
:10154000408A3900DFF8B00800F0CAFC18EE100A33
:1015500001F0A0FF02000B00DFF88C0800F0C0FCD7
:101560008DE7DFF8980800F0BBFC85E0606D401C5B
:1015700060657FE0DFF8880890ED000AB4EE408AED
:10158000F1EE10FA12DBDFF87C0890ED000AB4EE01
:10159000480AF1EE10FA09DB94ED140A30EE080A5D
:1015A00084ED140AA06D401CA06502E0606D401C33
:1015B00060655FE0DFF8500890ED000AB4EE408A05
:1015C000F1EE10FA12DBDFF8440890ED000AB4EEF9
:1015D000480AF1EE10FA09DB94ED140A30EE080A1D
:1015E00084ED140AA06D401CA06502E0606D401CF3
:1015F00060653FE0DFF8180890ED000AB4EE408A1D
:10160000F1EE10FA12DBDFF80C0890ED000AB4EEF0
:10161000480AF1EE10FA09DB94ED140A30EE080ADC
:1016200084ED140AA06D401CA06502E0606D401CB2
:1016300060651FE0DFF8E00790ED000AB4EE408A35
:10164000F1EE10FA12DBDFF8D40790ED000AB4EEE9
:10165000480AF1EE10FA09DB94ED140A30EE080A9C
:1016600084ED140AA06D401CA06502E0606D401C72
:101670006065FFE7FFF788FD06B0BDEC028BF1BDAA
:1016800000000000626967001830002024BC0008D8
:10169000803000202CBC000808350020E4BB000886
:1016A00050BB0008017809064278120483781B02B7
:1016B0009A18C07810184118080070470000000000
:1016C0002DE9F0412DED048B017890F801808478AC
:1016D000C578B7EE008AC9B2802901D3BFEE008A6F
:1016E000DFED848AC9B280290DD3C9B2080003F0A6
:1016F00015F80022DFF8283703F01EF802F032FF59
:1017000008EE900A04E0C9B200EE101AF8EE408A22
:1017100018EE900A01F0BEFE00225FF0804302F056
:101720004FFE02F01FFF08EE900A5FFA88F8B8F14A
:10173000800F0CD318EE900A01F0ACFE0022DFF807
:10174000E43602F0F9FF02F00DFF08EE900A18EE01
:10175000900A01F09FFE0022DFF8CC3602F0ECFF89
:1017600002F000FF08EE900A9FED629A5FFA88F897
:10177000B8F1800F0CD35FFA88F8404602F0CEFF34
:101780000022DFF89C3602F0D7FF03F049F88046CC
:10179000EDB2280002F0C2FF06000F00E4B2200004
:1017A00002F0BCFF04000D005FFA88F8404602F02A
:1017B000B5FF0022DFF8743602F002FE22002B0093
:1017C00002F0BAFF0022DFF8643602F0F9FD3200C1
:1017D0003B0002F0B1FF02F0C5FE09EE100A9FEDDA
:1017E0008A0A89EE009A18EE100A01F053FE0400EE
:1017F0000D0018EE900A01F04DFE41EC110B9FED2B
:10180000D10B03F07AFA51EC100B22002B0002F0FE
:10181000D7FD04000D00B7EE000A39EE000A10EE05
:10182000100A01F037FE22002B0002F0C9FD02F081
:1018300099FE00EE100ABDEC048BBDE8F08170B596
:1018400004000D00002605E0315DDFF8E40500F03E
:1018500047FB761CAE42F7DBBCA000F041FB70BD3D
:1018600030B5ADF57F7D0500280001F055FE040080
:10187000641C6946200000F045F82900DFF8B40533
:1018800000F06EFB290005A800F06AFB232005A9E3
:10189000611801F8010CDFF8A0050068012803D1E8
:1018A000312005A9605402E0302005A960540020D1
:1018B00005A961184870641C002003F0DAFC684632
:1018C00001F02AFE020092B20021684603F025FDD5
:1018D00005A801F021FE020092B20A2105A803F03A
:1018E0001CFD220005A9DFF8540500F0F9FA0DF5FA
:1018F0007F7D30BD00000000000000201C000020A3
:1019000074B300083EB40300002B00D5404200220F
:101910000A2490FBF4F504FB150430346D4654554D
:10192000521C0A2490FBF4F00128F1DA002B03D5B5
:101930002D206B46D054521C00206B46D054100012
:1019400006E06B46C31813F8013C141A6354401E9A
:101950000028F6D537BC704730B5ADF57D7D040065
:101960000A220021684603F074FD684602F0D4F9AB
:1019700005006D1C2800020092B20A2103A803F0A2
:1019800068FD03A8281810F8011CDFF8B40400F063
:10199000A7FA03A8281810F8010C302808D1002055
:1019A000DFF894140860DFF89C0400F099FA07E06F
:1019B0000120DFF884140860DFF88C0400F090FA4E
:1019C00003A8281810F8020C232816D1002003A918
:1019D000691801F8020C03A9200000F0C1FADFF831
:1019E0006C14DFF86C0400F07BFA03A9DFF86004E4
:1019F00000F076FAFEF700FC03E0DFF8580400F090
:101A00006FFA0DF57D7D30BD0000004B482F0020A2
:101A100080B5012807D0C0F08980032844D021D3A5
:101A2000042862D082E0DFF830040078002814D166
:101A300000228021DFF8240402F070FA0122002144
:101A4000DFF81C0404F05AF80320DFF80C140870C7
:101A5000DFF8100400F044FA03E0DFF80C0400F0B3
:101A60003FFA67E0DFF8F00390F82C00002816D169
:101A700000224FF40061DFF8F40302F04FFA012274
:101A80000421DFF8DC0304F039F80320DFF8C81381
:101A900081F82C00DFF8D80300F022FA03E0DFF829
:101AA000D40300F01DFA45E0DFF8AC0390F85800CD
:101AB000002815D100220421DFF8B00302F02EFA2D
:101AC00001220821DFF8980304F018F80320DFF85A
:101AD000881381F85800DFF8A00300F001FA03E052
:101AE000DFF8980300F0FCF924E0DFF86C0390F8CD
:101AF0008400002815D100220421DFF8600302F0E1
:101B00000DFA01220C21DFF8580303F0F7FF032040
:101B1000DFF8441381F88400DFF8640300F0E0F993
:101B200003E0DFF8600300F0DBF903E0DFF85803BF
:101B300000F0D6F901BD0000DCB80008D0B70008FD
:101B400060BB000800000000000000400A00000028
:101B500010B50400012C06D06DD3032C37D01BD355
:101B6000042C4ED067E0BC480078032810D1012235
:101B70008021BA4802F0D2F900220021B84803F0CF
:101B8000BDFF0020B4490870C04800F0A9F902E088
:101B9000BF4800F0A5F951E0AF4890F82C000328A9
:101BA00012D101224FF40061B04802F0B7F90022CF
:101BB0000421AB4803F0A2FF0020A74981F82C00C4
:101BC000B44800F08DF902E0B34800F089F9A2486A
:101BD00090F85800032811D101220421A34802F0F3
:101BE0009DF9002208219E4803F088FF00209A49B1
:101BF00081F85800A94800F073F902E0A84800F005
:101C00006FF9954890F88400032811D1012204212E
:101C1000924802F083F900220C21914803F06EFFF4
:101C200000208D4981F884009E4800F059F902E0B7
:101C30009D4800F055F99D4800F052F9200004F04D
:101C400070FA10BD6A350020882900209A99999968
:101C50009999B93F7B14AE47E17A843FFCA9F1D250
:101C60004D62503F2D431CEBE2361A3F80B50128F0
:101C700007D0C0F08280032840D01ED304285CD057
:101C80007BE07548407800280BD1012072494870EC
:101C900000220821714802F041F9854800F020F93E
:101CA0000AE000206C494870012208216B4802F0CC
:101CB00035F9804800F014F962E0674890F82D008B
:101CC00000280DD10120644981F82D0000224FF435
:101CD0000061624802F022F9774800F001F90CE057
:101CE00000205D4981F82D0001224FF400615B481E
:101CF00002F014F9714800F0F3F841E0564890F80A
:101D0000590000280CD10120534981F859000022C4
:101D10000221564802F002F9694800F0E1F80BE0B0
:101D200000204D4981F85900012202214F4802F05C
:101D3000F5F8644800F0D4F822E0474890F88500B0
:101D400000280DD10120444981F8850000224FF47C
:101D500080715D4802F0E2F85C4800F0C1F80BE0E9
:101D600000203D4981F88500012208213B4802F00E
:101D7000D5F8574800F0B4F802E0564800F0B0F843
:101D800001BD00006B350020F168E388B5F8E43E42
:101D900080B504F0C5FB002804D14F4800F0A0F83E
:101DA000002003E04D4800F09BF8012002BD000038
:101DB000B4010020F0BB00088DEDB5A0F7C6B03E21
:101DC00048AFBC9AF2D77A3E3A8C30E28E79453EE3
:101DD00095D626E80B2E113EDCB9000838B5000870
:101DE00034BC00085CB5000884BA00085800002024
:101DF0005C0000203CBC000870BB000898BA0008DA
:101E00004C350020600000206400002068000020A5
:101E100048350020540000204435002050000020A8
:101E2000000060C00000F03F00C05FC000007040D4
:101E300044BC0008A02500206C000020A4B30008CA
:101E4000ACBA0008C0BA0008D4BA0008B821002013
:101E500080BB000880B5000878320020000C0240EA
:101E600000040140A4B50008D0B3000800140240EB
:101E7000C8B50008F8B30008ECB5000820B40008A5
:101E800010B6000848B40008F0B7000834B60008DF
:101E900070B4000858B6000898B400087CB6000872
:101EA000C0B40008A0B60008E8B4000810B80008E4
:101EB000D4B1000808B200083CB2000870B20008B3
:101EC000A4B20008D8B20008000802400CB3000811
:101ED00040B30008C4B6000830B80008E8B60008EF
:101EE0000EB400B582B003A9009102466B460121F1
:101EF000034878440A3004F0D7FB06BC5DF810FBB9
:101F0000259B000070B504460D46104805F07FFC87
:101F1000064644B12946204605F07AFC041920788B
:101F200030B9306070BD3468002CF3D1002070BD32
:101F30002946204605F07DFC0019017811B10021E9
:101F400000F8011B3060204670BD00BFB0000020CB
:101F5000002205F07FBC0268531C036011707047BB
:101F60005FEA000C830706D011F8013B00F8013B43
:101F7000B3B18307F8D10A68B2F1013323EA02034F
:101F800013F0803F02BF40F8042B51F8042FF3E711
:101F900011F8013B00F8013B13B111F8013BF9E7DF
:101FA0006046704700F5E0700268914203D34368D1
:101FB0009A18914202D380680028F5D17047DFF863
:101FC0005807016891B94FF4803181604FF4805116
:101FD00041604FF0FF31C16001610421DFF83C270F
:101FE0004161C2F8BC11DFF8381701600120704769
:101FF00001F1080313F0070305D001F10803C3F151
:10200000080303F007035918D21A8161C26042F035
:1020100001034B60511828234B60DFF8FC16096957
:10202000C16170472DE9F84F064601F1080010F034
:10203000070008BF884607D001F10800C0F108007A
:1020400000F0070000EB010802F1080010F00700A3
:1020500006D002F10800C0F1080000F00700821865
:102060001546A5EB0800A0EB030903EB080B43F0B2
:102070000300C8F80400AB4528BF05F004FC28792C
:10208000C00758BF05F0FFFBB9F1100F38BF05F0CE
:10209000FAFBB069854209D1F0684844F060C6F89F
:1020A00018B040F00100CBF804006DE17069854282
:1020B0000BD1B0684844B060C6F814B040F00101DC
:1020C000CBF8041040F80B005EE1686800F00301F3
:1020D000012940F0AD80C008C0000190C008202850
:1020E0003AD2D5F808A0EF680090BD4208BF05F0CD
:1020F000CAFB554508BF05F0C6FB68680099C008D3
:10210000C000B0EBC10F18BF05F0BDFB009806EB97
:10211000C00000F128018A4507D031698A45C0F026
:102120008280DAF80C10A9427DD1574506D1009A79
:102130003068012191408843306076E02830874242
:1021400005D0306987426ED3B868A8426BD1CAF80F
:102150000C70C7F808A068E0EF68D5F818A0AF4287
:102160000CD0A8683169884223D3C168A94204BF52
:10217000B968A9421DD1C760B8601CE005F1140020
:10218000076837B905F110000768A7B101E00846F4
:10219000076807F114010A68002A02BF07F110015D
:1021A0000A68002AF3D13169884202D30021016014
:1021B00001E005F068FBBAF1000F36D0E86906EBE4
:1021C000800000F5987001688D4208D10760A7B9BA
:1021D000EA697068012191408843706025E03069A8
:1021E000824508D3DAF81000A84214BFCAF8147068
:1021F000CAF8107001E005F046FBB7B130698742BC
:1022000011D3C7F818A0296929B1814226BF3961C5
:102210008F6105F038FB686938B13169884202D3B3
:102220007861876101E005F02EFB01984519814432
:1022300068684008400068604FEAD90549F001002D
:10224000CBF8040049F80B90202D23D206EBC500F3
:1022500000F12807BA46B9F1100F38BF05F013FB9B
:10226000306820FA05F1C90704D40121A9400843C8
:10227000306006E0B868316988422CBF824605F0BC
:1022800002FBC7F808B0CAF80CB0CBF808A0CBF82E
:102290000C7079E05FEA192108BF002023D0B1F566
:1022A000803F28BF1F201ED2A1F58070000C00F0D7
:1022B00008008140A1F58052120C02F00402914006
:1022C000A1F580431B0CC0F10E0003F00203801A3D
:1022D000C01A994000EBD130C11D29FA01F202F079
:1022E000010101EB4000CBF81C000022CBF81420C8
:1022F000CBF8102006EB8001726822FA00F3DB07AE
:1023000001F5987107D4012303FA00F010437060BF
:10231000C1F800B01DE009681F280EBF002040086A
:10232000C0F1190009FA00F000E011464A68D2082D
:10233000D2004A4514D0C20F01EB820202F1100311
:1023400040001A68002AF0D1306983421AD3C3F8DA
:1023500000B0CBF81810CBF80CB0CBF808B013E0F5
:1023600032698868914228BF90420BD3C0F80CB004
:10237000C1F808B0CBF80800CBF80C100020CBF85F
:10238000180001E005F07FFA08F10800BDE8E68FCB
:102390002DE9FA4D0546DFF8800384B0006808B9DE
:1023A000FFF70DFEDFF870030499806841182F31A4
:1023B000401E21EA00000499814280F0A88105F5C1
:1023C000D876B16839B132688018824280F09F8136
:1023D0008142C0F09C8105F059FA00281EBF0446D6
:1023E000D0F8008014F1010F00F09181306871681D
:1023F00040443060814238BF01467160A86980BBAB
:10240000286908B1844200D22C610020F061346157
:10241000C6F8148005F12801BF48006868624FF0D3
:10242000FF302862002001F10802C9601160801CA1
:1024300010312028D2609260F5D3B848854203D18C
:10244000A8F12802214629E055F8040CC00805EB44
:10245000C000A0F1080108EB0400401AA0F1280216
:102460001CE005F5E071084600E08068D0B1026824
:1024700043689A189442F8D1027B120712D4AA69D1
:1024800003689A420ED347683B449A420AD208EB4B
:1024900007014160E868A96908EB00022846FFF7D8
:1024A000A7FD1EE128698442084638BF2C6108EB6D
:1024B000040100E0806880B102688A42FAD1017BA1
:1024C00009070AD404604168414441602146049BE5
:1024D000284606B0BDE8F04DA4E5AF693946284668
:1024E000FFF760FD01684068401802902F3800F146
:1024F000080111F0070105D000F10801C1F1080140
:1025000001F00701081807F11001884234BF009755
:10251000009000980830019004F10801009800F143
:10252000180A11F007014FF0000BA8F1280005D0A0
:1025300004F10801C1F1080101F007010A19401A6C
:10254000AA61E86040F001015160801828214160D3
:1025500071480069E861019810F0070018BF05F0A4
:1025600092F900991B20486005F5E071B1E80C5024
:102570000198A0E80C503461C6F81480C6F81CB06D
:102580000198B061029800E08A460722CAF8042048
:102590000AF104010A1D82420BF1010BF4D3BBF1D5
:1025A000020FB8BF05F06FF90098B84200F09980AB
:1025B000C01BC119C4084A68520852004A6040F062
:1025C00001017960C051202C20D205EBC40101F13A
:1025D0002806B046102838BF05F055F9286820FABB
:1025E00004F1C90704D40121A1400843286006E092
:1025F000B068296988422CBF804605F044F9B7606D
:10260000C8F80C70C7F80880FE606AE0010A08BFCD
:10261000002223D0B1F5803F28BF1F221ED2A1F592
:102620008072120C02F008029140A1F580531B0C3D
:1026300003F004039940A1F58044240CC2F10E027A
:1026400004F00204D21A121BA14002EBD131CA1DC0
:1026500020FA02F303F0010202EB4102FA610023C7
:102660007B613B6105EB82016B6823FA02F4E407AE
:1026700001F5987105D401209040184368600F60FF
:102680001CE009681F2A0EBF00225208C2F119027D
:1026900000FA02F200E019464B68DB08DB008342D7
:1026A00010D0D30F01EB830303F110045200236811
:1026B000002BF0D12869844211D32760B961FF60F3
:1026C000BF600EE02A698868914228BF904206D315
:1026D000C7608F60B860F9600020B86101E005F064
:1026E000D2F8E8680499814211D2401AE860A969D9
:1026F000049A5218AA6140F001005060049840F01A
:102700000300486006B001F10800BDE8F08D00202C
:1027100006B0BDE8F08D000028350020702D0020A7
:102720006859883C2DE9F04D0446002688465FEA4A
:102730001820C8F1000B08BF002123D0B0F5803F5E
:1027400028BF1F211ED2A0F58071090C01F00801DD
:102750008840A0F58052120C02F004029040A0F5CF
:1027600080431B0CC1F10E0103F00203891AC91A40
:10277000984001EBD030C11D28FA01F202F00101AE
:1027800001EB400104EB8100D0F8300118B31F29A0
:102790000EBF00224A08C2F1190208FA02F2002311
:1027A00000E052004568ED08ED00A5EB08055D4529
:1027B00003D25FEA050B06460BD04569D70F00EB45
:1027C0008700002D00691CBF85422B460028E8D1F8
:1027D0001846B8BBC6BB01208840400041420843B0
:1027E0006168084000F0638141420840401E010BCF
:1027F00001F01001C840420902F00802D0408308ED
:1028000003F00403D840450805F002055118E840DC
:102810005918C0F3400729443944F840401804EBE4
:102820008000D0F830010DE008464168C908C900B1
:10283000A1EB080159453CBF8B46064601690029BA
:10284000F2D140690028F0D1002E00F03081A0685C
:10285000A0EB0800834580F02A8120698642C0F001
:1028600024817068C008C00008EB0B0108EB060566
:10287000884218BF05F007F8AE4280F01681F7686D
:10288000D6F818A0B7420CD0B0682169884223D38B
:10289000C168B14204BFB968B1421DD1C760B86018
:1028A0001CE006F11400076837B906F1100007684C
:1028B000A7B101E00846076807F114010A68002A79
:1028C00002BF07F110010A68002AF3D1216988428A
:1028D00002D30021016001E004F0D5FFBAF1000F3E
:1028E00038D0F06904EB800000F5987001688E42E2
:1028F00009D10760380014D1F26960680121914064
:102900008843606026E02069824508D3DAF8100029
:10291000B04214BFCAF81470CAF8107001E004F095
:10292000B2FFBFB12069874212D3C7F818A030693F
:1029300030B12169884226BF3861876104F0A3FF66
:10294000706938B12169884202D37861876101E0FA
:1029500004F099FFBBF1100F0CD208EB0B0040F014
:102960000300706008EB0B008019416841F0010121
:10297000416096E048F0030070604BF00100686031
:102980004FEADB004BF805B020281DD204EBC00154
:1029900001F12807216821FA00F2D207BB4605D4CD
:1029A000012202FA00F00843206006E0B8682169BD
:1029B00088422CBF834604F066FFBD60CBF80C5004
:1029C000C5F808B0EF606CE05FEA1B2108BF00208B
:1029D00023D0B1F5803F28BF1F201ED2A1F5807003
:1029E000000C00F008008140A1F58052120C02F0AA
:1029F00004029140A1F580431B0CC0F10E0003F0CE
:102A00000203801AC01A994000EBD130C11D2BFA85
:102A100001F202F0010101EB4000E86100226A616D
:102A20002A6104EB8001626822FA00F3DB0701F5FA
:102A3000987106D4012303FA00F0104360600D6022
:102A40001CE009681F280EBF00204008C0F11900D3
:102A50000BFA00F000E011464A68D208D2005A454D
:102A600010D0C20F01EB820202F1100340001A687D
:102A7000002AF0D12069834211D31D60A961ED6065
:102A8000AD600EE022698868914228BF904206D36B
:102A9000C5608D60A860E9600020A86101E004F0D5
:102AA000F2FE06F10800BDE8F08D04F0ECFE002017
:102AB000BDE8F08D2DE9F84F044688466068414234
:102AC0000840401E010B01F01001C840420902F00D
:102AD0000802D040830803F00403D840450805F0FD
:102AE00002055118E8405918C0F3400629447118EE
:102AF000F040401804EB8000D0F830014168C9086C
:102B0000C9000646A1EB080A09E008464168C90861
:102B1000C900A1EB080151453CBF8A460646016940
:102B20000029F2D140690028F0D120698642C0F026
:102B3000C4807068C00808EB0A09C00008EB060BE7
:102B4000484518BF04F09FFE5E4580F0B680F768E8
:102B5000B569B7420CD0B0682169884223D3C168F7
:102B6000B14204BFB968B1421DD1C760B8601CE072
:102B700006F11400076837B906F110000768A7B11D
:102B800001E00846076807F114010A68002A02BF3D
:102B900007F110010A68002AF3D12169884202D3A3
:102BA0000021016001E004F06EFE002D34D0F069D8
:102BB00004EB800000F5987001688E4209D107602F
:102BC000380011D1F269606801219140884360604A
:102BD00022E02069854205D32869B04214BF6F61A5
:102BE0002F6101E004F04FFEB7B12069874211D395
:102BF000BD61306930B12169884226BF3861876183
:102C000004F041FE706938B12169884202D37861CD
:102C1000876101E004F037FEBAF1100F09D249F0E4
:102C20000300706009EB0600416841F0010141605A
:102C30003FE048F0030070604AF00100CBF8040068
:102C40004AF80BA0D4F808804FEAD805202D28BFF9
:102C500004F019FEB8F1000F27D0D4F814900095B5
:102C600004EBC50000F128052F46B8F1100F38BF5E
:102C700004F009FE2068009920FA01F2D10705D47A
:102C8000009A012191400843206006E0A86821696C
:102C900088422CBF074604F0F6FDC5F80890C7F837
:102CA0000C90C9F80870C9F80C50C4F808A0C4F812
:102CB00014B006F10800BDE8F28F04F0E4FD002036
:102CC000BDE8F28F2DE9F04F83B00546C046C046FF
:102CD000F52DDFF8B84780F002810B2D31BF1027AA
:102CE00005F10B00C708FF002068FE08F04010F057
:102CF000030F42D0C04300F00100861904EBC60068
:102D000000F12808F700D8F808506868C008C0002B
:102D1000B84218BF04F0B7FDD5F80890454508BF84
:102D200004F0B1FD4D4508BF04F0ADFD6868C00872
:102D3000C000B84218BF04F0A6FDC84505D1206800
:102D40000121B140884320600DE02069814508D30E
:102D5000D9F80C00A84204D1C8F80890C9F80C8032
:102D600001E004F090FD47F0030068607819083531
:102D7000416841F001014160F9E0A168B94280F089
:102D8000C080002800F0A280012505FA06F1490064
:102D90004A42B0401143084041420840401E010BE6
:102DA00001F01001C840420902F00802D040830837
:102DB00003F00403D840460806F002065118F0401C
:102DC0005918C0F340087118414420FA08F000EB8C
:102DD000010804EBC80000F128094FEAC80AD9F835
:102DE00008607068C008C000504518BF04F04BFD73
:102DF000D6F808B04E4508BF04F045FD5E4508BF53
:102E000004F041FD7068C008C000504518BF04F0D0
:102E10003AFDD94505D1206805FA08F188432060BC
:102E20000DE02069834508D3DBF80C00B04204D1E3
:102E3000C9F808B0CBF80C9001E004F024FD47F08D
:102E400003007060AAEB0708B819019048F0010070
:102E500001994860019848F80080A7684FEAD70AAE
:102E6000BAF1200F28BF04F00EFD47B3CDF800A043
:102E700004EBCA00D4F8149000F1280AD346102FAE
:102E800038BF04F000FD2068009920FA01F2D10754
:102E900005D4009905FA01F10843206007E0DAF84B
:102EA0000800216988422CBF834604F0ECFCCAF874
:102EB0000890CBF80C90C9F808B0C9F80CA0C4F879
:102EC000088006F108050198606150E06068C0B3B1
:102ED00039462046FFF7EEFD050012D047E015F118
:102EE000400F28BF4FF0FF370BD205F10B00C7088A
:102EF0006068FF0028B139462046FFF713FC050043
:102F000035D1A068B8421CD3C11B626910290AD30D
:102F1000B8186061A16041F001034360095047F0B7
:102F2000030050600AE00021A160616140F00301EC
:102F300051608018416841F00101416002F10805CB
:102F400015E0E06887420DD2C01BA169E0607A18E5
:102F5000A26140F00100506001F1080547F0030054
:102F6000486004E039462046FFF712FA0546C0469D
:102F7000C046284603B0BDE8F08F00B970472DE980
:102F8000F047A0F10804C046C046DFF800552869A4
:102F90008442C0F07482616801F00302012A00F0EB
:102FA0006E82CA084FEAC208CA0708EB040936D481
:102FB000226811F0030F00F06482A41A8442904446
:102FC000C0F05D8269698C4200F0D880D608202E5E
:102FD00070D2D4F80CA0A768544508BF04F053FC85
:102FE000BC4208BF04F04FFC6068C008C000B0EBF2
:102FF000C60F18BF04F047FC05EBC60000F128011E
:103000008F4205D029698F4251D3F968A1424ED130
:10301000BA453DD128680121B140884328604C451C
:1030200080F02D82D9F80400C10740F12882810781
:1030300000F17A81A969894540F0B580E868AC6102
:103040004044E86040F00101616069698C4202D14E
:1030500000216961A960E969814280F01282DFF88C
:103060003004006808B9FEF7AAFFA969002900F03A
:103070000882E868292824BF2846FEF793FFE869FC
:10308000E968884280F0FD814FF0FF30E861F8E1A7
:103090002830824506D02869824508D3DAF808002E
:1030A000A04204D1C7F80CA0CAF80870B7E704F032
:1030B000EAFBB4E7E768A669A7420BD0A1688142A2
:1030C00022D3C868A04204BFB868A0421CD1CF6018
:1030D000B9601BE004F114010F6837B904F1100165
:1030E0000F689FB101E011460F6807F114021368E1
:1030F000002B02BF07F110021368002BF3D18142AD
:1031000002D30020086001E004F0BDFB002E86D051
:10311000E06905EB800000F5987001688C4209D1E8
:103120000760380011D1E269686801219140884345
:10313000686074E72869864205D33069A04214BFED
:103140007761376101E004F09EFB002F3FF467AF29
:1031500028698742ABD3BE61216929B1814226BF6C
:1031600039618F6104F08FFB606900283FF457AF2D
:10317000296988429BD37861876150E799F80400F8
:1031800000F0030003287FF44AAFC5F80880D9F89F
:10319000040040084000C9F8040048F001006060E5
:1031A00048F804806DE16969894508D1A8686C61B7
:1031B0004044A86040F001016160005161E1C00835
:1031C000C0004FEAD00ABAF1200F804436D2D9F8B5
:1031D0000C70D9F80860B94508BF04F054FBB1453C
:1031E00008BF04F050FBD9F80400C008C000B0EBE1
:1031F000CA0F18BF04F047FB05EBCA0000F1280115
:103200008E4206D029698E42C0F08180F16849451E
:103210007DD1B74206D12868012101FA0AF188431D
:10322000286076E02830874205D0286987426ED32F
:10323000B86848456BD1F760BE606AE0D9F80C7099
:10324000D9F818604F450DD0D9F80800296988428F
:1032500023D3C168494504BFB96849451DD1C7603A
:10326000B8601CE009F11400076837B909F11000D3
:103270000768A7B101E00846076807F114010A686A
:10328000002A02BF07F110010A68002AF3D1296958
:10329000884202D30021016001E004F0F4FA002E1C
:1032A00037D0D9F81C0005EB800000F59870016854
:1032B00089450AD10760380012D1D9F81C20686806
:1032C000012191408843686023E02869864205D344
:1032D0003069484514BF7761376101E004F0D3FAE3
:1032E000BFB12869874212D3BE61D9F8101029B145
:1032F000814226BF39618F6104F0C5FAD9F8140004
:1033000038B12969884202D37861876101E004F00D
:10331000BAFA48F00100606048F8048068698442A5
:103320000BD1C5F80880ACE040084000C9F80400A3
:1033300048F00100606048F804804FEAD807202F69
:1033400022D205EBC70000F128094E46B8F1100F54
:1033500038BF04F098FA286820FA07F1C90704D4A6
:103360000121B9400843286007E0D9F8080029691D
:1033700088422CBF064604F086FAC9F80840F4607B
:10338000A660C4F80C907CE05FEA182008BF00211A
:1033900023D0B0F5803F28BF1F211ED2A0F5807139
:1033A000090C01F008018840A0F58052120C02F0CF
:1033B00004029040A0F580431B0CC1F10E0103F004
:1033C0000203891AC91A984001EBD030C11D28FAAE
:1033D00001F202F0010101EB400100226261226171
:1033E000E16105EB81006A6822FA01F3DB0700F571
:1033F000987006D4012303FA01F111436960046057
:103400001CE000681F290EBF00214908C1F1190105
:1034100008FA01F100E010464268D208D2004245A5
:1034200010D0CA0F00EB820202F1100349001A68A3
:10343000002AF0D129698B4211D31C60A061E4609D
:10344000A4600EE02A698168904228BF914206D3A9
:10345000CC608460E060A1600020A06101E004F025
:1034600012FA286A401E28620BD1D5F8C80100E084
:1034700080680028FCD14FF0FF30286201E004F0A2
:1034800002FAC046C046BDE8F0870000702D00205B
:10349000283500205FF0FF0C1CEAD05114BF6145B5
:1034A00006E0C110400721F0E04101F16051704792
:1034B00079B900F0004100020AD0B0FA80FC00FAAD
:1034C0000CF001F16051A1EB0C5101EBD021400552
:1034D000704741020CBF40F4E0016FF00001002092
:1034E000704700000CB41CB5044604A801900A46BD
:1034F000009401AB694607487844183003F0D4F8CB
:10350000009A0021117000285CBF0098001B16BCB7
:103510005DF80CFB43EAFFFF00F10103810704D0D3
:1035200010F8011B89B18107FAD10268B2F10131AB
:10353000914311F0803F04BF50F8042FF6E710F8D4
:10354000011B11B110F8011BFBE7C01A7047000006
:1035500010B50400002C01D1012033E0A06900283F
:10356000FFD194F83900002805D1002084F83800F4
:10357000200004F0B5F9242084F839002068C068E0
:1035800030F400502168C860200000F039FA20684B
:10359000006930F49040216808612068406930F08B
:1035A0002A00216848612068C06850F400502168F2
:1035B000C8600020E063202084F83900202084F8CF
:1035C0003A00002010BD2DE9F04182B004000D004A
:1035D00016001F005FF0000894F8390020285DD124
:1035E000002D02D0B6B2002E01D1012057E094F98F
:1035F0003800012801D1022051E0012084F8380070
:103600000020E063212084F8390004F0C0FA8046ED
:10361000A684E68403E02878216848606D1CE08C6D
:10362000002828D0E08C401EE084A068B0F5805FC0
:1036300016D10097434600228021200000F0FCF8BC
:10364000002801D003202AE02888C005C00D216889
:1036500048602069002801D1AD1CE0E76D1CDEE761
:103660000097434600228021200000F0E5F8002862
:10367000D1D0032013E000974346002240212000D0
:1036800000F0DAF8002801D0032008E0202084F8B8
:103690003900002084F83800002000E00220BDE856
:1036A000F68190F83A30202B28D1002902D092B22E
:1036B000002A01D1012022E090F93830012B01D1FC
:1036C00002201CE0012380F8383081628285C285A7
:1036D0000021C163222180F83A10002180F83810BF
:1036E0000168496951F00101026851610168C968C6
:1036F00051F490710068C160002000E00220704722
:1037000038B50400206800682168C96822685269D9
:103710000023002310F00F03002B07D1850605D5E9
:103720008D0603D5200000F01EF982E0002B70D03A
:10373000D30702D411F4907F6BD010F00103DBB2F9
:10374000002B05D0CB0503D5E36B53F00103E363F6
:10375000430708D512F00103DBB2002B03D0E36B63
:1037600053F00203E363830708D512F00103DBB2D1
:10377000002B03D0E36B53F00403E363030708D586
:1037800012F00102D2B2002A03D0E26B52F008021A
:10379000E263E26B002A3BD0800604D5880602D59E
:1037A000200000F0E0F820684069800910F0010373
:1037B000E06B000701D4002B25D0200000F074F846
:1037C0002068406940061AD52068406930F0400002
:1037D00021684861606B00280DD00FF2F100616B29
:1037E0000865606B04F0ECF9002811D0606B616B28
:1037F000096D88470CE0200000F01DF808E020006B
:1038000000F019F804E0200000F015F80020E06353
:103810000FE0020605D50A0603D5200000F060F887
:1038200007E0400605D5480603D5200000F08DF8D6
:10383000FFE731BD704770472DE9F04104000D00EE
:1038400016001F00DDF81880206800682840A84294
:1038500001D1012000E0002076B2B04221D118F160
:10386000010FF1D0B8F1000F04D004F090F9C01BA3
:103870008045E9D22068C06830F4D0702168C86003
:10388000206840694008400021684861202084F891
:103890003900202084F83A00002084F83800032002
:1038A00000E00020BDE8F0810168C96831F4907142
:1038B0000268D1600168496949084900026851619C
:1038C000202180F83A1070470000000080B5806B1E
:1038D0000021C1850021C184FFF7ADFF01BD0000BB
:1038E00090F8391021292ED18168B1F5805F10D16F
:1038F000016A0988C905C90D02685160016900297A
:1039000003D1016A891C016209E0016A491C016254
:1039100005E0016A4A1C0262097802685160C18CA4
:10392000491EC18489B200290BD10168C96831F0F0
:1039300080010268D1600168C96851F040010068E7
:10394000C160002000E00220704780B50168C968AE
:1039500031F040010268D160202180F83910FFF772
:1039600069FF002002BD80B590F83A10222945D1A8
:103970008168B1F5805F14D1816A0269002A08D19B
:1039800002685268D205D20D0A80816A891C816260
:1039900019E002685268D2B20A80816A491C8162C9
:1039A00011E00169002906D1816A4A1C826202681D
:1039B00052680A7007E0816A4A1C82620268526893
:1039C00012F07F020A70C18D491EC18589B200299B
:1039D00012D10168C96831F490710268D160016840
:1039E00049694908490002685161202180F83A106C
:1039F00004F0B0FA002002E0002000E0022002BD46
:103A00002DE9F041040000202068006930F44050A6
:103A1000E1680843216808612068C068BB49084024
:103A2000A1682269114362691143E26911430843A5
:103A30002168C8602068406930F44070A16908437B
:103A400021684861E069B0F5004F40F0B08020681F
:103A5000AF49884203D02068AE49884253D105F06F
:103A60006DF8804605F06AF8060005F067F8070073
:103A700005F064F8050005F061F8192101FB08F173
:103A800062685200B1FBF2F16422B1FBF2F119223B
:103A900002FB06F263685B00B2FBF3F2192303FB3F
:103AA00007F366687600B3FBF6F36426B3FBF6F320
:103AB000642606FB1322D20032326423B2FBF3F2F7
:103AC00012F0F802520012EB0111192202FB05F26A
:103AD00063685B00B2FBF3F21923584363685B0031
:103AE000B0FBF3F06423B0FBF3F0642303FB10207E
:103AF000C00032306422B0FBF2F010F00700401832
:103B00002168886000E105F009F8804605F006F8B4
:103B1000060005F003F8070005F000F8050004F0C2
:103B2000FDFF192101FB08F162685200B1FBF2F1BF
:103B30006422B1FBF2F1192202FB06F263685B001A
:103B4000B2FBF3F2192303FB07F366687600B3FBBD
:103B5000F6F36426B3FBF6F3642606FB1322D200C9
:103B600032326423B2FBF3F212F0F802520012EB8D
:103B70000111192202FB05F263685B00B2FBF3F24C
:103B80001923584363685B00B0FBF3F06423B0FB78
:103B9000F3F0642303FB1020C00032306422B0FB3A
:103BA000F2F010F00700401821688860ACE020684F
:103BB0005749884203D020685649884252D104F0C0
:103BC000BDFF804604F0BAFF060004F0B7FF07000F
:103BD00004F0B4FF050004F0B1FF192101FB08F166
:103BE00062689200B1FBF2F16422B1FBF2F119229A
:103BF00002FB06F263689B00B2FBF3F2192303FB9E
:103C000007F36668B600B3FBF6F36426B3FBF6F37E
:103C1000642606FB1322120132326423B2FBF3F254
:103C200012F0F00212EB0111192202FB05F2636897
:103C30009B00B2FBF3F21923584363689B00B0FB6F
:103C4000F3F06423B0FBF3F0642303FB10200001C6
:103C500032306422B0FBF2F010F00F0040182168FF
:103C6000886051E004F05AFF804604F057FF0600D8
:103C700004F054FF070004F051FF050004F04EFF6C
:103C8000192101FB08F162689200B1FBF2F1642294
:103C9000B1FBF2F1192202FB06F263689B00B2FB52
:103CA000F3F2192303FB07F36668B600B3FBF6F3E0
:103CB0006426B3FBF6F3642606FB132212013232AC
:103CC0006423B2FBF3F212F0F00212EB011119229D
:103CD00002FB05F263689B00B2FBF3F21923584321
:103CE00063689B00B0FBF3F06423B0FBF3F0642344
:103CF00003FB1020000132306422B0FBF2F010F020
:103D00000F00401821688860BDE8F081F369FFFF6B
:103D100000100140001401400A22002104F0E4BF19
:103D200080B5002205F0BCF841EC100B01BD00008D
:103D300078B4002400230024002237E00825EDB2E7
:103D400012F00306F6B2B600B5402C43DFF8FC5182
:103D5000960845F82640DFF8F84124689C434D68F2
:103D6000ED0300D51C43DFF8E8512C60DFF8E44197
:103D700024689C434D68AD0300D51C43DFF8D45143
:103D80002C60DFF8D44124689C434D68ED0200D5D7
:103D90001C43DFF8C4512C60704C24689C434D6870
:103DA000AD0200D51C436D4B1C60521C102A80F0E4
:103DB000AA80012313FA02F40B682340A342F4D132
:103DC0004C68022C02D04C68122C15D1D40810EB90
:103DD0008404246A0F2512F00706F6B2B600B54037
:103DE000AC430D6912F00706F6B2B600B5402C439D
:103DF000D50810EB85052C62046803251600F6B281
:103E00007600B540AC430D7915F003051600F6B207
:103E10007600B5402C4304604C68012C08D04C68F7
:103E2000022C05D04C68112C02D04C68122C17D1F2
:103E3000846803251600F6B27600B540AC43CD6821
:103E40001600F6B27600B5402C4384604468012524
:103E50009540AC434D68C5F3001595402C43446034
:103E6000C46803251600F6B27600B540AC438D68F1
:103E70001600F6B27600B5402C43C4604C68E400EE
:103E800093D500240094364C246854F48044344D77
:103E90002C60334C246814F480440094009C2B4C18
:103EA000950854F825400F2512F00306F6B2B60027
:103EB000B540AC432B4DA84201D100253FE72A4D28
:103EC000A84201D101253AE7284DA84201D1022597
:103ED00035E7274DA84201D1032530E7254DA842FB
:103EE00001D104252BE7244DA84201D1052526E761
:103EF000224DA84201D1062521E7214DA8427FF499
:103F00001DAF07251BE771BC7047006989B20842E5
:103F100001D0012000E0002040B2704752B2002AD8
:103F200002D089B2816102E089B2090481617047DF
:103F300080B51449096880B2014205D080B21149A8
:103F4000086080B204F012FA01BD00000838014098
:103F5000003C0140043C0140083C01400C3C014055
:103F600044380240000002400004024000080240C1
:103F7000000C0240001002400014024000180240F1
:103F8000001C0240143C014010B50400002C01D17B
:103F900001204FE094F91D00002804D10020207773
:103FA000200004F0E1FF02206077CA202168486207
:103FB000532021684862200000F0B6F9002806D09E
:103FC000FF202168486204206077012032E02068E9
:103FD0008068DFF8141308402168886020688068D2
:103FE000616822691143626911430843216888604E
:103FF000E0682168086120680069A16850EA014012
:10400000216808612068C06830F080002168C860BD
:104010002068006C30F48020216808642068006CFF
:10402000A169084321680864FF20216848620120D3
:104030006077002010BDF8B504000D00002694F94B
:104040001C00012801D102207DE001202077022000
:104050006077002A1BD120688068400601D40020C8
:10406000E870287800F07CF90600687800F078F9AC
:104070000700A87800F074F9F6B2FFB2390251EAED
:104080000641C0B20843E97850EA014614E02068CE
:104090008068400604D5287800F06DF9060001E03C
:1040A0000020E87028786978090251EA0040A97870
:1040B0000843E97850EA0146CA2021684862532043
:1040C00021684862200000F02FF9002808D0FF2066
:1040D000216848620420607700202077012032E0C8
:1040E000DFF808023040216808602068806830F4FA
:1040F00080202168886020688068E9682A69114307
:104100000843216888602068C06830F0800021681A
:10411000C8602068806880060DD4200000F0EAF8AE
:10412000002808D0FF202168486204206077002022
:104130002077012007E0FF20216848620120607796
:10414000002020770020F2BD10B50C00002101688E
:10415000896A6160016809694904490CA1600068C5
:104160000068DFF888110140080C10F03F00207053
:10417000080A10F07F00607011F07F00A070080C3A
:1041800010F04000E070002A0BD1207800F0F3F826
:104190002070607800F0EFF86070A07800F0EBF825
:1041A000A070002010BDF8B504000D00002694F9A1
:1041B0001C00012801D1022070E00120207702209C
:1041C0006077002A07D16878C00604D5687810F0B7
:1041D000EF000A306870002A15D1E87800F0C0F8C6
:1041E0000600687800F0BCF80700A87800F0B8F87E
:1041F000F6B2FFB2390251EA0641C0B2084329784B
:1042000050EA413611E0687800F0B5F80600A87869
:1042100000F0B1F80600E8786978090251EA004038
:10422000A9780843297850EA4136CA2021684862B3
:10423000532021684862200000F076F8002808D05A
:10424000FF20216848620420607700202077012049
:1042500024E0DFF89C003040216848602068C06896
:1042600030F080002168C8602068806880060DD426
:10427000200000F03FF8002808D0FF2021684862A5
:104280000420607700202077012007E0FF202168CC
:10429000486201206077002020770020F2BD10B531
:1042A0000C00002100684068DFF844100140080C51
:1042B000E070080A10F01F00607011F03F00A0705D
:1042C000480B10F007002070002A0BD1E07800F0B6
:1042D00052F8E070607800F04EF86070A07800F05E
:1042E0004AF8A070002010BDBFFF8FFF7F7F7F00C6
:1042F0003FFFFF0038B5040000252068C06830F09B
:10430000A0002168C86003F042FC05002068C06876
:10431000800607D403F03BFC401BB0F57A7FF5D94B
:10432000032000E0002032BD38B5040000252068DD
:10433000C068400612D45FF0FF302168C86003F007
:1043400026FC05002068C068400607D403F01FFC67
:10435000401BB0F57A7FF5D9032000E0002032BD84
:10436000002101E0491C0A38C0B20A28FAD250EAFA
:104370000110C0B2704700210100C9B20909C9B2D9
:104380000A225143C0B210F00F004018C0B270476B
:104390004FF4001C1CEB410F94BF1CEB430F09E0D2
:1043A00041EA030C50EA4C0C52EA0C0C03D299423D
:1043B00008BF9042704714BF8B4282427047000092
:1043C000B0B581EA030C0CF0004C40F2FF7515EA21
:1043D00011541DBF15EA1357AC42AF4239E0E4193E
:1043E00023EA455343F48013C90241F0004141EAF6
:1043F000505EC7021100A7FB020200284FF0000028
:10440000EEFB01204FF00001E3FB072118BF42F053
:104410000102401800214941E3FB0E01A4F580642C
:104420000F0302D252004041494154F101046CDDB6
:10443000470872F1004250F1000051EB0451A1F520
:1044400080115CBF41EA0C01B0BD4CEA055100206F
:10445000B0BD05EA1357AC4214BFAF4241E050EA89
:10446000410E1CBF52EA430E02E061460020B0BD7F
:1044700024423C441BD15FEA070EF6D0090302BF79
:1044800001460020AEF1140EB1FA81F7AEEB07043D
:1044900001FA07FE0C37C7F1200100FA07F7C84000
:1044A0004EEA000E23EA455343F48013A2E733F0AB
:1044B0000043B3FA83F704BFB2FA82FE77440B3F9E
:1044C000E41BB7F1200E2FBF02FA0EF3BB40C7F179
:1044D000200E22FA0EFE38BF43EA0E03BA40641CD7
:1044E00082E750EA410E14BF52EA430E6FF000011A
:1044F0004FF4001717EB430F8ABF194617EB410F14
:10450000B5E74CEA05510020B0BDD4F10104B4F187
:1045100020070FDAC4F12007520828BF42F0010239
:1045200010FA07F501FA07F7E1BF2A43E0403843E4
:10453000E1400FE0352C98DCC7F1200452EA40023C
:1045400020FA07F218BF42F0010231FA07F0A14049
:104550000A43002172F1004250F1000051EB0C01BE
:10456000B0BD00004FEAF17CBCF1E04C2CBFBCF5C3
:10457000001F11E05FEA4C0C34BFBCF17F5F2EE0FE
:104580005FEA9C0C4FEA0C1C4FEA3C0CC10071F135
:1045900000414CEB50707047C90241EA5051C002D3
:1045A00018BF41F0010141F000414FEA6C50C0F1E9
:1045B0000900212810D240EACC7CCCF1200C11FA61
:1045C0000CF070F10040CCF1200C21FA0CF00CF052
:1045D000004C40EB0C0070474FEACC70704749002C
:1045E00011F5001F04D84FEACC10FF30C00570470A
:1045F000C817704730B4002300220AE00C78012568
:1046000095402C4204D00124D2F10705AC4023434D
:10461000521C082AF2DB037030BC704730B4002310
:1046200000220AE00C88012595402C4204D0012488
:10463000D2F10F05AC402343521C102AF2DB038059
:1046400030BC704770B582B004000D004FF6FF70AB
:10465000ADF8000048F2050600208DF802002800A1
:10466000451E002826D020788DF80200641C0DF12C
:1046700002010DF10200FFF7BDFFBDF800009DF83B
:10468000021090EA0120ADF80000002005E0BDF81E
:1046900000104900ADF80010401C0828DFDABDF812
:1046A00000100904F3D5BDF8001096EA4101ADF8F9
:1046B0000010F1E769466846FFF7B0FFBDF800005B
:1046C00076BD0000820707D010F8012B11F8013BDE
:1046D000BAB19A42F6D014E002680B689A42A2F18D
:1046E000013301BF934313F0803F50F8042F51F87A
:1046F000043FF3D010F8012B11F8013B0AB19A42A4
:10470000F8D0D01A70470000010040F10980F4464B
:10471000404200F005F851F000416047010000BF41
:1047200009D0B0FA80F18840C91CC1F5846109053F
:1047300001EBD02140057047F0B44FF0004591EAFD
:10474000030C44BF6B4004F043BC00BF841A71EB00
:10475000030603D2001BB141121973414FF4001C30
:104760001CEB410F34BF7CEB430443E00C0DA4EB86
:104770001356352E50DC45EAC323DB0A45EAC12136
:10478000C912B6F120050DDD63FA05F6EB4086EAA5
:104790000305124218BF45F00105C01851F1000190
:1047A0000CD213E062FA06F5F2405540F3415A404C
:1047B000B340F3405A408018594107D349085FEA93
:1047C00030005FEA350528BF45F0010501F580118D
:1047D000420875F1004250F1000041EB0451F0BC79
:1047E0004FF4001C1CEB410F38BF70470020090D2F
:1047F000090570471CEB410F10D252EA43060BD05B
:10480000BCEB410F05D80C0DAB43661E342EB5DD55
:1048100002E0AB4380185941F0BC7047F0BC7047D0
:10482000F446400D40EAC120490006D200F014F8D9
:10483000004248BF6FF00040604700F00DF84FF0B5
:10484000004188428CBF084640426047400D40EA24
:10485000C120490080F00D8040F00040490DA1F5D5
:104860008061491C05D4D1F11F0154BFC840C01755
:1048700070474FF0000070472DE9F8452DED088B8B
:104880000FB486B040F2FF7107989DED080B8DEDD7
:10489000040BC0F30A50884208D107980024000393
:1048A00005BF069800280225012512E0012807DA35
:1048B00006A804F043FC012802DB0024002508E0E0
:1048C000079A40F2FE3161F31E520792441A4FF0EC
:1048D000FF35002104A804F052FC1A9F06460FB1D0
:1048E0000020388036B9DDE908230020002104F0DB
:1048F00083FC12D0002D13D524B2012C15D1DDE993
:1049000006230020DFF88C1304F076FC05D0012E7E
:104910000BD1DF4904F070FC3ED10AB0CD49E8E18B
:10492000022D04D1DDE90601E2E1012E6FDB022E4A
:1049300008BFDDE9080100F0DB81012D2AD10798CD
:104940000028099806D4002854BF9FEDD50B9FED91
:10495000D60BCBE100280ED456B94FF0FF3104A896
:1049600004F00DFC002848BF9FEDD10B00F1BE8183
:104970009FEDCB0BBAE156B94FF0FF3104A804F01C
:10498000FEFB002848BF9FEDB40B00F1AF819FED07
:10499000C60BABE1012E11D10998002824B206D430
:1049A000012CACBF9FEDBE0B9FEDBF0B9EE1012C18
:1049B000ACBF9FEDBD0B9FEDBA0B97E109980028A6
:1049C00010D466B94FF0FF3104A804F0D8FB0028DA
:1049D00042BF079800289FEDA00B00F187819FED53
:1049E000B20B83E104F018FC2221016066B94FF09C
:1049F000FF3104A804F0C3FB002842BF0798002839
:104A00009FEDAB0B00F172819FEDA50B6EE1079856
:104A1000002848BF002E0CD504F0FEFB21210160C8
:104A20000AB04FF0FF30BDEC088B6FF00041BDE8DD
:104A3000F485DDE906010022002304F0F3FB38BF12
:104A4000002509D381F00041CDE906014FF0FF3187
:104A500004A804F094FB0546012C13D1DDE90601FE
:104A60007F4A804BFFF794FC0CD2DDE9062300203F
:104A70004FF08041FFF7A4FCCDE9060100269FED31
:104A80007A8B1CE0DDE9062300207949FFF798FCCA
:104A90009FED788B53EC182BFFF74EFEFFF7C0FE0F
:104AA000A0F120063046FFF72FFE0022734BFFF7E0
:104AB00087FC53EC182BFFF73FFE41EC180B0FF26D
:104AC000582000EB461ADDE9060153EC182B04F0E0
:104AD00075FADDE9062341EC190B51EC180BFFF7D1
:104AE0002BFE02460B4651EC190B04F0B3FB41ECD4
:104AF0001A0B53EC1A2BFFF763FC41EC1B0B8DEDEB
:104B0000069B04F0D3FC53EC1B2BFFF759FCDDE9AB
:104B1000062304F053FA0646884600204D4953EC1C
:104B2000182B04F04BFA00224FF08043FFF748FCAB
:104B300032464346FFF700FE53EC1A2BFFF740FCCA
:104B4000DDE90623FFF7F8FD41EC180B4C4A4D4B0D
:104B500004F080FBCDE904012046FFF7D5FD41ECD0
:104B6000190BDAE9000153EC192BFFF7E5FDDDE93C
:104B70000423FFF7E1FDCDE90401DDE90823FFF798
:104B80001FFCCDE9020100223F4BFFF701FCC0F002
:104B9000938001223D4B04F045FB40F291800022BE
:104BA0000023FFF7F5FBDDE9022339BF0020384978
:104BB00000203849FFF7C0FDFFF732FE0446DDE96B
:104BC000080153EC182BFFF7FBFBCDE90201DAE9F2
:104BD0000223DAE90401FFF7AFFDDDE90823FFF75F
:104BE000EFFB9FED2D8B53EC182BFFF7E9FBDDE975
:104BF0000223FFF7A1FDCDE90201DAE9002351EC20
:104C0000190BFFF799FDDDE90823FFF7D9FB0646ED
:104C100088462046FFF778FD02460B46304641465F
:104C200004F0CCF953EC182BFFF7CAFBDDE90223A3
:104C3000FFF782FDCDE902010FB13C800024009412
:104C40000022044B02A804F089FCA8B3012837D045
:104C500042E000BF0000F03F0000000000000080C4
:104C6000CD3B7F669EA0E63F000000000000F03FC5
:104C700000005040000000000000E03F0000903FB6
:104C8000EF39FAFE422EE63F0000E0C00000E040AF
:104C90000000E0BF0000E03FEF39FAFE422EE63FA1
:104CA000000000000000F07F000000000000000095
:104CB000000000000000F0FF0020CDE9020007E046
:104CC0000020014902E000BF0000F07FCDE90201B1
:104CD00004F0A2FA22210160002D1DBFDDE90201CE
:104CE00081F0004141EC100B9DED020B51EC100BDB
:104CF0000AB0BDEC088BBDE8F48580B500200090BB
:104D000053EC112B51EC100BFFF7B6FD41EC100BDF
:104D100001BD000000000000000000000000F0BF26
:104D20000000000000000080000000000000008083
:104D30000000000000000000000000C05294EEBF20
:104D400000000048204E51BE000000F86467BCBC63
:104D50000000000000000000000000208133EDBFD3
:104D600000000080B3DB14BE000000506706A3BC47
:104D70000000000000000000000000D0E9DCEBBFF4
:104D800000000008C39259BE00000080B0D3B8BC38
:104D9000000000000000000000000070F98FEABF72
:104DA000000000C0A51028BE000000E8BFC0B0BCD5
:104DB000000000000000000000000070284CE9BF67
:104DC00000000060134B42BE000000C03D20B8BC94
:104DD000000000000000000000000050FA10E8BFD2
:104DE000000000C05FF62BBE000000905C71A7BC05
:104DF000000000000000000000000020FCDDE6BF15
:104E0000000000C0F8F154BE00000018E9F6B9BC7B
:104E10000000000000000000000000D0C3B2E5BFA9
:104E200000000070E43254BE00000050DB06B4BC49
:104E3000000000000000000000000010EF8EE4BF42
:104E400000000020F36252BE000000C02A879ABC16
:104E50000000000000000000000000B02272E3BF6C
:104E6000000000F0E8E056BE00000028352DBDBC73
:104E70000000000000000000000000000A5CE2BF2B
:104E8000000000B0FA8E41BE00000040AE6FBDBC15
:104E9000000000000000000000000000564CE1BFD0
:104EA000000000F015CD5FBE00000000141C90BC97
:104EB000000000000000000000000040BD42E0BF14
:104EC00000000030F93457BE000000E06C1E93BCB7
:104ED0000000000000000000000000E0F57DDEBFE3
:104EE000000000B08A535EBE00000080DA77AABCE2
:104EF0000000000000000000000000C09D81DCBF39
:104F000000000000FFA226BE0000006057E2B0BC17
:104F1000000000000000000000000060F98FDABF10
:104F2000000000580A8151BE000000F05F60B8BC6C
:104F300000000000000000000000000098A8D8BF9A
:104F4000000000607A7F45BE000000D05433A3BC4F
:104F50000000000000000000000000600FCBD6BF82
:104F6000000000D091CB40BE000000406D1BA0BCF3
:104F70000000000000000000000000A0FBF6D4BF0D
:104F800000000098C5CE52BE000000003A397EBC39
:104F90000000000000000000000000E0FE2BD3BF76
:104FA0000000004073872BBE00000000926879BCAF
:104FB000000000000000000000000040C069D1BFF8
:104FC00000000058F16353BE00000080438D7CBC9C
:104FD000000000000000000000000080D85FCFBF8C
:104FE000000000181F8354BE000000B03F42A2BC66
:104FF00000000000000000000000008067FCCBBF44
:1050000000000060FAFF53BE00000050E00DB8BC85
:1050100000000000000000000000000098A8C8BFC9
:10502000000000607A7F35BE000000C0543393BC9E
:10503000000000000000000000000000DC63C5BFAD
:1050400000000058D6FF54BE00000000396490BC38
:105050000000000000000000000000C0AD2DC2BF35
:1050600000000080A45915BE000000E0484BABBC16
:105070000000000000000000000000801A0BBEBF0E
:1050800000000050BF3C5ABE000000A0B364B6BC94
:1050900000000000000000000000008004D6B7BF40
:1050A00000000040BBCF36BE0000008076CEA8BC1A
:1050B00000000000000000000000008032BBB1BF13
:1050C000000000402A0043BE00000028C60CBDBC02
:1050D0000000000000000000000000009473A7BF63
:1050E000000000182B3B59BE000000C0E55DA5BCC8
:1050F000000000000000000000000000EE4397BF29
:10510000000000A0E6C340BE00000020958DB5BCA5
:10511000000000000000000000000000000000800F
:10512000000000000000008000000000000000807F
:10513000000000000000000080B5DFF8E003DFF8A9
:10514000E01308604FF48270DFF8D4134860002049
:10515000DFF8CC1388600020DFF8C413C860022099
:10516000DFF8BC1308610120DFF8B41348614FF485
:105170000070DFF8AC1388610820DFF8A413C86161
:105180000020DFF89C1308620020DFF894134862C7
:105190000020DFF88C1388620A20DFF88413C862CD
:1051A000DFF87C0304F03EFB01BD00B587B000686A
:1051B000DFF8681388425AD100200090DFF86403BA
:1051C000006850F48040DFF85C130860DFF8540397
:1051D000006810F480400090009800200090DFF8F4
:1051E0004803006850F48070DFF83C130860DFF873
:1051F0003803006810F48070009000980020009040
:10520000DFF82403006850F00400DFF81C13086086
:10521000DFF81403006810F00400009000980A20E2
:10522000019002200290022004900520059001A91F
:10523000DFF8F802FEF77CFD0420019002200290C6
:10524000002003900520059001A9B948FEF770FDE4
:1052500001220121B548FEF761FE012001900120E5
:1052600002900520059001A9B048FEF761FD07B046
:1052700000BD10B5040000F02BF900F038F9002251
:105280000121AA48FEF74AFE202000F00BF9200C6D
:10529000C0B200F007F9200AC0B200F003F9200004
:1052A000C0B200F0FFF801220121A048FEF736FE4F
:1052B00000F01DF910BD70B504000D00160000F0DF
:1052C00007F9002201219948FEF728FE022000F08C
:1052D000E9F8280CC0B200F0E5F8280AC0B200F0E6
:1052E000E1F82800C0B200F0DDF8B6B2B6F5807F74
:1052F00006DD4FF4807603E0207800F0D3F8641CDC
:105300003000461E80B20028F6D1012201218748D4
:10531000FEF704FE00F0EBF870BD2DE9F04105004A
:105320000C0000275FF000080020002600274FF443
:105330008071B4FBF1F000FB1140464292B24FF491
:10534000807192FBF1F792B24FF4807192FBF1F809
:1053500008FB1128C0B2002820D1FFB2002F0FD1C6
:1053600092B221002800FFF7A6FF70E04FF4807290
:1053700021002800FFF79FFF14F5807415F5807554
:105380003800471EC0B20028F0D15FFA88F84246C4
:1053900092B221002800FFF78EFF58E0FFB2002FE5
:1053A0001FD1F6B25FFA88F8464514D2B8EB06076B
:1053B000F6B2320092B221002800FFF77CFF54FAC7
:1053C00086F4F6B27519FFB23A0092B221002800B5
:1053D000FFF771FF3BE092B221002800FFF76BFF5F
:1053E00035E0F6B2921B92B24FF4807092FBF0F768
:1053F00092B24FF4807092FBF0F808FB1028F6B2DE
:10540000320092B221002800FFF755FF54FA86F4CB
:10541000F6B2751909E04FF4807221002800FFF7F9
:105420004AFF14F5807415F580753800471EC0B228
:105430000028F0D15FFA88F8B8F1000F07D05FFAC2
:1054400088F8424692B221002800FFF734FFBDE8F9
:10545000F08170B504000D001600002201213348D0
:10546000FEF75CFD032000F01DF8280CC0B200F030
:1054700019F8280AC0B200F015F82800C0B200F0F0
:1054800011F804E0FF2000F00DF82070641C3000DB
:10549000461E80B20028F5D1012201212348FEF7E3
:1054A0003DFD70BD00B583B08DF805007FF07F40F5
:1054B0000090012301AA0DF10501194804F0F9F942
:1054C000002802D0FF208DF804009DF804000EBDD6
:1054D00080B5002201211548FEF720FD0620FFF7C8
:1054E000E1FF012201211148FEF718FD01BD80B541
:1054F0000020002201210D48FEF710FD0520FFF7D6
:10550000D1FFFF20FFF7CEFFC0B2C007F9D40122C0
:1055100001210648FEF702FD01BD000000380040F1
:10552000283300204038024030380240002002403A
:105530000008024010B50400002C01D1012014E045
:1055400094F93900002805D1002084F838002000A3
:1055500004F039FB022084F83900211D206800F096
:1055600020FA012084F83900002010BD022180F8C3
:1055700039100168096851F00101026811600121C8
:1055800080F8391000207047022180F83910016836
:10559000096A41F2111211420BD10168096A40F205
:1055A0004442114205D1016809684908490002686E
:1055B0001160012180F83910002070470168C96826
:1055C00051F001010268D1600168096851F00101E0
:1055D000006801600020704710B50400002C01D164
:1055E000012014E094F93900002805D1002084F846
:1055F0003800200000F00CF8022084F83900211D4A
:10560000206800F0CEF9012084F83900002010BD98
:10561000704710B504000800002806D004280BD0FD
:10562000082810D00C2815D01BE02068C06850F066
:1056300002002268D06014E02068C06850F00400C6
:105640002268D0600DE02068C06850F00800226831
:10565000D06006E02068C06850F010002268D0607A
:10566000FFE70122206800F049FA2068DFF83810CF
:10567000884204D02068DFF83410884201D101202C
:1056800000E00020C0B2002805D02068406C50F433
:105690000040216848642068006850F001002168DB
:1056A0000860002010BD000000000140000401401F
:1056B00010B504002068006980071AD52068C0680A
:1056C000800716D57FF0020021680861012020764E
:1056D0002068806910F0030F03D0200000F05EF90D
:1056E00005E0200002F0F0FD200000F058F9002055
:1056F00020762068006940071AD52068C0684007F6
:1057000016D57FF004002168086102202076206809
:10571000806910F4407F03D0200000F03FF905E0DD
:10572000200002F0D1FD200000F039F900202076A1
:105730002068006900071AD52068C068000716D5E0
:105740007FF0080021680861042020762068C06985
:1057500010F0030F03D0200000F020F905E0200036
:1057600002F0B2FD200000F01AF900202076206837
:105770000069C0061AD52068C068C00616D57FF03B
:10578000100021680861082020762068C06910F4A4
:10579000407F03D0200000F001F905E0200002F076
:1057A00093FD200000F0FBF80020207620680069BF
:1057B000C0070AD52068C068C00706D57FF0010081
:1057C00021680861200002F029FD206800690006B8
:1057D0000AD52068C068000606D57FF080002168E1
:1057E0000861200004F086FA2068006940060AD5A6
:1057F0002068C068400606D57FF040002168086137
:10580000200000F0CDF82068006980060AD52068E5
:10581000C068800606D57FF020002168086120005E
:1058200004F067FA10BD10B5040094F9380001289F
:1058300001D1022025E0012084F83800022084F8FC
:105840003900002A06D0042A08D0082A0AD00C2AD7
:105850000CD00FE0206800F061F90BE0206800F048
:1058600012F907E0206800F08FF903E0206800F0EB
:10587000C5F9FFE7012084F83900002084F83800DA
:10588000002010BD10B50400002094F93800012854
:1058900001D1022081E0012084F83800022084F840
:1058A00039002068806830F0770030F47F4022684B
:1058B00090600868002855D0102858D020285BD068
:1058C00030285ED0402843D050282DD0602835D0D5
:1058D00070280DD0B0F5805F03D0B0F5005F16D012
:1058E00054E020688068C008C000216888604DE0EE
:1058F000CB684A688968206800F0F9F920688068F8
:1059000030F0770050F07700216888603EE0CB6887
:105910004A688968206800F0EAF92068806850F4D5
:1059200080402168886031E0CA684968206800F0DA
:10593000ABF95021206800F0D0F927E0CA68496827
:10594000206800F0B5F96021206800F0C6F91DE07C
:10595000CA684968206800F097F94021206800F083
:10596000BCF913E00021206800F0B7F90EE0102127
:10597000206800F0B2F909E02021206800F0ADF9BC
:1059800004E03021206800F0A8F9FFE7012084F846
:105990003900002084F83800002010BD704770479F
:1059A000704700220268DFF8B432984212D0B0F19A
:1059B000804F0FD0DFF8A83298420BD0DFF8A43226
:1059C000984207D0DFF8A032984203D0DFF89C322B
:1059D000984201D1012300E00023DBB2002B03D069
:1059E00032F070024B681A43DFF8703298422AD0C6
:1059F000B0F1804F27D0DFF86832984223D0DFF82B
:105A0000643298421FD0DFF8603298421BD0DFF832
:105A10005C32984217D0DFF85832984213D0DFF842
:105A2000543298420FD0DFF8503298420BD0DFF852
:105A30004C32984207D0DFF84832984203D0DFF862
:105A40004432984201D1012300E00023DBB2002B55
:105A500003D032F44072CB681A4302608A68C26293
:105A60000A6882627D4A904202D0804A904201D107
:105A7000012200E00022D2B2002A01D009690163AC
:105A800001214161704730B4002200230024026AE2
:105A900032F010020262036A4468826932F4E04222
:105AA00032F440720D6852EA052233F020038D680B
:105AB00053EA0513694DA84202D06C4DA84201D1AA
:105AC000012500E00025EDB2002D10D033F0800359
:105AD000CD6853EA051333F0400334F4806434F4A2
