:020000040800F2
:10000000F011002045D7000875C1000877C100082D
:1000100085C1000893C10008A1C1000800000000CC
:10002000000000000000000000000000AFC1000858
:10003000B1C1000800000000B3C10008C1C1000840
:10004000E9D70008EDD70008F1D70008F5D7000878
:10005000F9D70008CDC10008FDD7000801D8000875
:1000600005D8000809D800080DD8000811D80008E4
:1000700015D8000819D800081DD8000821D8000894
:1000800025D8000829D800082DD8000831D8000844
:1000900035D8000839D800083DD8000821C200082A
:1000A00041D8000845D8000849D800084DD80008B4
:1000B00051D8000855D8000859D800085DD8000864
:1000C00061D8000865D8000869D800086DD8000814
:1000D00071D80008CFC1000875D80008D9C1000840
:1000E0000DC2000879D800087DD8000881D8000822
:1000F00085D8000889D800088DD8000891D8000854
:1001000095D8000899D800089DD80008A1D8000803
:10011000A5D80008A9D80008E3C10008ADD8000898
:10012000B1D80008B5D80008B9D80008BDD8000873
:10013000C1D80008C5D80008C9D80008CDD8000823
:10014000D1D80008D5D80008D9D80008DDD80008D3
:10015000E1D80008E5D80008E9D80008EDD8000883
:10016000F1D80008F5D80008F9D80008FDD8000833
:1001700001D9000805D9000809D9000800000000CD
:100180000DD9000811D90008BFF34F8FDFF8DC0A42
:10019000006810F4E060DFF8D81A0843DFF8CC1AE2
:1001A0000860BFF34F8F00BFFDE780B5DFF8C40ADA
:1001B00003F022F9002000F073F9012000F070F93B
:1001C000022000F06DF9032000F06AF9042000F02D
:1001D00067F9052000F064F9062000F061F90720B6
:1001E00000F05EF90020DFF8901A08700020DFF8B8
:1001F0008C1A08700020DFF8881A08700020DFF8D9
:10020000841A08704FF47A730122A0A1DFF8780AEB
:1002100003F03FF901BD38B5DFF8700A03F0ECF8E0
:10022000002400259AA1DFF8680A03F0DBFC040033
:1002300097A1002003F0D6FC05002A002100DFF87A
:10024000540A03F0D9F894F900003138052805D391
:1002500094F90010DFF8400A03F0CEF88DA12800D1
:1002600003F0E6FC002804D194F9000001F02AFC18
:100270000FE089A1280003F0DBFC002804D194F9E9
:10028000000001F0F9FA04E02900DFF8100A03F099
:10029000B3F831BD2DE9F047ADF5BC6DDFF8000ACC
:1002A00003F0AAF8FAA84FF4FA7103F0E7FC5FF044
:1002B000000A002400255FF0000868464FF47A71B8
:1002C00003F0DCFC00265FF030090127DFF8C019DD
:1002D000684603F0D7FC684603F0F6FC8046B8F1A8
:1002E0000B0FC0F2CE80002000F0DAF8012000F001
:1002F000D7F8022000F0D4F8032000F0D1F8042051
:1003000000F0CEF8052000F0CBF8062000F0C8F889
:10031000072000F0C5F80020DFF85C190870002005
:10032000DFF8581908700020DFF854190870002011
:10033000DFF8501908700020DFF86819087057A11D
:10034000684603F04FFC8246BAF1000F78D0761C65
:100350005146FAA803F096FC9DF9E893504603F045
:10036000B3FC45196D1C4DA16846281803F03AFCF2
:100370008246454501DB5FF0000A4FFA89F9B9F181
:10038000300F10D043D3B9F1320F18D011D3B9F1D7
:10039000340F20D019D3B9F1360F2CD021D3B9F1B5
:1003A000370F2ED033E0FAA9002000F09DFC0400A6
:1003B00035E0FAA9012000F097FC04002FE0FAA92B
:1003C000022000F091FC040029E0FAA9032000F0CB
:1003D0008BFC040023E0FAA9042000F085FC040053
:1003E0001DE0FAA9052000F07FFC04000120DFF8E1
:1003F000B418087013E0FAA9062000F075FC040098
:100400000DE0FAA9072000F06FFC040007E00027C8
:100410004FFA89F94946DFF8900802F0EDFF14F130
:10042000010F91D14FFA89F94946DFF8800802F0AF
:10043000E3FFFFF7BAFE0120DFF87418087020E030
:10044000012E0FDB002F0DD0DFF8680802F0D4FF7B
:100450000120DFF8301808700020DFF85418087009
:1004600002F082FD312001F02DFB322001F02AFB49
:10047000332001F027FB342001F024FB352001F06C
:1004800021FB0DF5BC6DBDE8F08700005B000000AE
:100490002C00000030000000310000003B00000094
:1004A00038B5040000250020052C40F0B980002458
:1004B000AEE01E210022DFF800084FF4BC7303FBFE
:1004C0000405280003F01CFC0020DFF8EC174FF4B3
:1004D000BC7202FB041188770020DFF8DC174FF4B0
:1004E000BC7202FB041108625FF0FF30DFF8C8172E
:1004F0004FF4BC7202FB041188620020DFF8B817C9
:100500004FF4BC7202FB041148620020DFF8A81708
:100510004FF4BC7202FB041108644FF47A70DFF8E8
:1005200098174FF4BC7202FB0411C1F858010A215C
:100530000022DFF884074FF4BC7303FB040010F5BE
:10054000A475280003F0DCFB0020DFF86C174FF4E3
:10055000BC7202FB0411C1F85C0178210022DFF8B3
:1005600058074FF4BC7303FB040010F1BC052800CE
:1005700003F0C6FB0A210022DFF83C074FF4BC73EE
:1005800003FB040010F59F75280003F0B9FB7821E8
:100590000022DFF824074FF4BC7303FB040010F1C2
:1005A0004405280003F0ACFB0A210022DFF808070D
:1005B0004FF4BC7303FB040010F14405280003F062
:1005C0009FFB0020DFF8F0164FF4BC7202FB041111
:1005D000C1F86001DFF8E0064FF4BC7101FB0400D4
:1005E00000220023C0E95A23DFF8CC064FF4BC7187
:1005F00001FB040000220023C0E95C230020DFF897
:10060000B8164FF4BC7202FB0411C1F85401641C0B
:10061000052CFFF64EAFDFF8A40602F0EDFE7EE0FB
:10062000062C00DB641EDFF89806482101FB04005D
:1006300000220023C0E90623DFF88406482101FBDD
:10064000040000220023C0E904230020DFF8701614
:10065000482202FB041108600020DFF864164822DB
:1006600002FB04110863DFF85806482101FB04006F
:1006700000220023C0E90823DFF84406482101FBDB
:10068000040000220023C0E90A230020DFF830160E
:10069000482202FB04114864DFF82406482101FBCC
:1006A0000400002141630020DFF81416482202FBF9
:1006B000041188630620DFF80816482202FB0411A3
:1006C000C8630020DFF8F815482202FB041181F806
:1006D00040000020DFF8E815482202FB041181F8F1
:1006E0004100DFF8DC05482101FB0400456C002DCA
:1006F00010D0D5F894500020DFF8C415482202FB32
:100700000411486404E02800D5F8945004F017FB65
:10071000002DF8D12100DFF8AC0502F06DFE31BDEF
:10072000F8B52DED028B94B0DFF89C0502F064FE65
:100730000FA8142103F0A2FA9FED6D8A0026002471
:10074000002702A8342103F099FA00254FF47A73A8
:10075000012268A1DFF8300502F09BFE00240BE0C7
:10076000DFF85C05482101FB040090F84110DFF838
:100770005C0502F041FE641C072C80F2A980DFF8C2
:100780004005482101FB040000680128F3DBDFF885
:100790003005482101FB0400456CDFF834052821B1
:1007A00001FB04000668052E00DB761CDFF810054F
:1007B000482101FB040090F841000028D0D1DFF867
:1007C0001005282101FB040090ED098A009618EE1F
:1007D000100A04F041FD02000B00DFF8F81402A833
:1007E00004F062FD009618EE100A04F035FD0200D8
:1007F0000B00DFF8E40402F0FFFD02A803F064FA46
:1008000002004FF47A7392B202A9DFF87C0402F07E
:1008100040FE052C15D118EE100A04F01DFD020053
:100820000B00DFF89C04482101FB040041690069CA
:1008300004F054FD05D8DFF8A40402F0DDFD00F05B
:100840009DFF002707E095F890202900DFF890042D
:1008500002F0D2FD7F1CDFF86804482101FB040090
:100860000068874287DA95F890000028EBD195ED73
:10087000148A29000FA803F005FA0190009618EEDB
:10088000100A04F0E9FC02000B00DFF8581402A87B
:1008900004F00AFD0FA80190009618EE100A04F06B
:1008A000DBFC02000B00DFF8640D02F0A5FD02A8DE
:1008B00003F00AFA4FF47A73020092B202A9DFF849
:1008C000C80302F0E6FD00202865D5F89450C1E782
:1008D0004FF47A73012208A1DFF8AC0302F0D9FDCE
:1008E000DFF82C0D02F088FD14B0BDEC028BF1BDD9
:1008F0000000000023000000250000002DE9F8435F
:100900002DED028B8AB000265FF000099FEDD58A9D
:100910005FF00008002505A8142103F0AFF902A834
:100920000021002200230EC00C380027DFF8E40C61
:1009300002F062FD00244EE0DFF88403482101FB51
:10094000040090ED000AB8EEC00A88EE008A18EEA6
:10095000100A04F081FC02000B00DFF8BC1C02A8A6
:1009600004F0A2FC02A804F0D0FC51EC100B04F03F
:10097000D5FCD349482202FB0411886002A804F088
:10098000C4FC51EC100B04F0C9FCD149282202FB35
:1009900004114862CA48482101FB0400806B00280A
:1009A00005D1C748482101FB040080ED0D8AC448E9
:1009B000482101FB0400806B401C032190FBF1F2F5
:1009C00001FB1200BE49482202FB04118863002586
:1009D0009FEDA48A641C072C80F23F819FEDA18AC1
:1009E000B748482101FB0400466C002E1BD1F1E7FB
:1009F0000020306596ED140AB5EE400AF1EE10FACB
:100A000003DD96ED140A38EE008A706D804502DA37
:100A1000D6F85480B146706D4519002070650020ED
:100A2000B065D6F89460002E00F08E80B06D019015
:100A3000706D0090306D04F00FFC02000B00611C23
:100A4000DFF8340D02F0D8FCB06D716D0818012884
:100A500035DBB06D002802D0706D15282FDBDFF874
:100A6000440D306596F89000032819DB32007EA112
:100A700005A804F019FC05A803F026F94FF47A73D1
:100A8000020092B205A9804802F003FD3200210065
:100A9000DFF8140D02F0B0FC002086F890000CE0A6
:100AA00096F89000401C86F8900096F8903032003E
:100AB0002100DFF8F80C02F09FFC7F1C9AE7B06D74
:100AC000012895DB96ED160AB8EEC00AD6ED140A99
:100AD00080EE800A86ED140A306D04F0BDFB020042
:100AE0000B007748482101FB0400416A006A04F0CA
:100AF0005DFC0CD3306D04F0AFFB714A482303FB5F
:100B00000422D36A926A04F051FCBFF473AF6C48BC
:100B1000482101FB040090F8400000280BD16848F0
:100B2000482101FB0400006B401C6549482202FB80
:100B3000041108635EE732002100DFF8280D02F09F
:100B40005BFC00F01BFE55E75D48482101FB0400FB
:100B5000006B5B49482202FB04110968884206D0F9
:100B60005748482101FB0400006B03280CDB544864
:100B7000482101FB0400026B2100DFF8EC0C02F0BD
:100B80003BFC00F0FBFD49E04D48482101FB04001F
:100B9000006887423DD14A48482101FB040090F893
:100BA000410003281CDB2100DFF8C00C02F024FC0C
:100BB00000F0E4FD40484249482202FB0411C96BA1
:100BC0004FF4BC7202FB010090F91E0000F0F0FD32
:100BD00000203B49482202FB041181F841001DE03E
:100BE0003748482101FB040090F84100401C34497B
:100BF000482202FB041181F841003148482101FBE1
:100C0000040090F841202100DFF8640C02F0F4FBAE
:100C100004E02100DFF85C0C02F0EEFB002700206E
:100C20002749482202FB041108632948282101FBB7
:100C3000040004600B2DFFF67FAE2548282101FB40
:100C40000400DFF8441D416249462148282202FB86
:100C50000400001D03F016F89CE60AB0BDEC028B00
:100C6000BDE8F18300000000212573000CED00E0D9
:100C70000400FA0558D300086F34002070340020B7
:100C80007B3400206A340020C032002074D3000876
:100C90004829002000CE000824CE0008C0CC00085F
:100CA00038D100086B34002058D1000878D10008F2
:100CB0007C34002090D30008F021002098D1000857
:100CC000302D002048CE000828D5000860CB000851
:100CD0000031002054D70008ACD30008D4D6000857
:100CE00020C9000860D700082DE9F8432DED068BD8
:100CF000ADF50C7D040088465FF0000900256846CC
:100D00004FF40C7102F0BAFF0026002600250020E7
:100D10009FEDA28B9FEDA19B9FEDA08B9FED9FABC5
:100D20000027A0A1404602F05DFF814609E09DA199
:100D3000002002F057FF81466846F6B240F8269040
:100D4000761CB9F1000FF2D1F6B20A2E0CDA052C9E
:100D50000AD0F6B232002100DFF8300C02F04CFB72
:100D60005FF0FF3000F04ABC052C40F07182009823
:100D700004F033FB050000264EE0DFF8402D4FF471
:100D8000BC7303FB072212EB81026B46F6B25FF0E5
:100D9000050C0CFB06FC13EB8C031B69CB56303B9C
:100DA0009362DFF8182D4FF4BC7303FB072212EB9C
:100DB0008102926A062A12DBDFF8002D4FF4BC7321
:100DC00003FB072212EB8102DFF8F03C4FF4BC7CFE
:100DD0000CFB073313EB81039B6A5B1E9362DFF806
:100DE000F82DDFF8D83C4FF4BC7C0CFB073313EB39
:100DF00081039B6A5FF0480C0CFB0322D763491CFC
:100E0000C0B28142B9DB0020DFF8B01C4FF4BC72E5
:100E100002FB07110862761CF6B2EDB2AE4280F01A
:100E200015826846F6B2052101FB06F110EB810040
:100E3000806890F90000B0F131076846F6B20521EC
:100E400001FB06F110EB81004168DFF8700C4FF4F4
:100E5000BC7202FB070002F015FF6846F6B20521DE
:100E600001FB06F110EB810080680078DFF84C1C74
:100E70004FF4BC7202FB07118877DFF8400C4FF487
:100E8000BC7101FB070090F91E00313804280FD314
:100E9000DFF8280C4FF4BC7101FB070090F91E200D
:100EA0002100DFF81C0C02F0A7FA5FF0FF30A5E389
:100EB0006846F6B2052101FB06F110EB810040699E
:100EC00004F023FADFF8F40B4FF4BC7101FB0700C8
:100ED00080ED5C0BDFF8E40B4FF4BC7101FB070005
:100EE000D0F87411D0F870010022002304F05EFAEB
:100EF0000FD3DFF8C80B4FF4BC7101FB0700D0F82B
:100F00007411D0F870010122DFF8D03C04F0E6F94A
:100F10000FD8DFF8A80B4FF4BC7101FB0700D0E934
:100F20005C232100DFF8B80C02F066FA5FF0FF30B6
:100F300064E36846F6B2052101FB06F110EB81007F
:100F4000C06804F04AFADFF8741B4FF4BC7202FB6D
:100F500007110864DFF8640B4FF4BC7101FB070054
:100F6000006C05283FF457AFDFF8500B4FF4BC710D
:100F700001FB0700006C401E072815D3DFF83C0B6F
:100F80004FF4BC7101FB0700026C2100DFF8A40CD8
:100F900002F032FA5FF0FF3030E300BF00000000E3
:100FA000000000002C000000DFF8100B4FF4BC71B3
:100FB00001FB0700006C042870D16846F6B20521D9
:100FC00001FB06F110EB8100006902F07DFEE2A159
:100FD0006846F6B2052202FB06F210EB82000069B9
:100FE00002F000FE80465FF00109002088F805004D
:100FF0004146DFF8C80A4FF4BC7202FB070010F547
:101000009A7002F03FFE18F10601DFF8B00A4FF4C3
:10101000BC7202FB070010F59F7002F033FE4146E0
:10102000DFF8980A4FF4BC7202FB0700443002F06C
:1010300029FE18F10601DFF8840A4FF4BC7202FBA6
:101040000700BC3002F01EFEB8F1000F3FF4DBAE2B
:10105000C1A1002002F0C6FD8046002088F80500EE
:101060004146DFF8580A4FF4BC7202FB07000A221F
:1010700002FB0900443002F005FE18F10601DFF81A
:101080003C0A4FF4BC7202FB07000A2202FB090073
:10109000BC3002F0F7FD19F10109D5E7DFF81C0AB1
:1010A0004FF4BC7101FB0700006C03282FD1684688
:1010B000F6B2052101FB06F110EB81000069002169
:1010C00041716846F6B2052101FB06F110EB810083
:1010D0000169DFF8E8094FF4BC7202FB070010F564
:1010E000A47002F0CFFD6846F6B2052101FB06F1BF
:1010F00010EB81000069811DDFF8C0094FF4BC725C
:1011000002FB070010F59F7002F0BCFD7BE6DFF8E4
:10111000AC094FF4BC7101FB0700006C062874D1C8
:10112000E0A16846F6B2052202FB06F210EB82004F
:10113000006902F057FD8146484602F0C5FDC0B285
:10114000082809DBC0B202002100DFF89C0C02F085
:1011500053F95FF0FF3051E2C0B2DFF860194FF48D
:10116000BC7202FB0711486200213AE0DFF84C290B
:101170004FF4BC7303FB072212EB810211F9093013
:10118000303B9362DFF834294FF4BC7303FB072232
:1011900012EB8102926A062A12DBDFF820294FF453
:1011A000BC7303FB072212EB8102DFF810394FF406
:1011B000BC7C0CFB073313EB81039B6A5B1E9362C1
:1011C000DFF8142ADFF8F4384FF4BC7C0CFB07334B
:1011D00013EB81039B6A5FF0480C0CFB0322D7637F
:1011E000491CC0B28142C1DBAEA1002002F0FAFC72
:1011F0008146484604F089F8DFF8C0084FF4BC7116
:1012000001FB070080ED5A0BFDE56846F6B20521AB
:1012100001FB06F110EB8100006902F055FDC0B240
:10122000082809DBC0B202002100DFF8BC0B02F085
:10123000E3F85FF0FF30E1E1C0B2DFF880184FF46F
:10124000BC7202FB071148620021D9E50020D5E1FC
:10125000062C00DB641EDFF88009482101FB040036
:101260004460009804F0B9F8DFF86C19482202FBDA
:1012700004110860DFF86009482101FB04000068E0
:10128000001E0B280DD3DFF85009482101FB040094
:1012900002682100DFF8540B02F0AEF85FF0FF3077
:1012A000ACE10021019804F09CF8B0EE408AF0EE29
:1012B000608A0021029804F094F8B0EE409AF0EEB3
:1012C000609A51EC190B53EC182B04F06FF80BD209
:1012D0008DED008B53EC192B2100DFF8480C02F048
:1012E0008BF85FF0FF3089E1DFF8EC08482101FB63
:1012F000040080ED048BDFF8E008482101FB0400C6
:1013000080ED069B0021049804F06BF8B0EE408A53
:10131000F0EE608A0021039804F063F8B0EE40AA72
:10132000F0EE60AA51EC190B03F0F8FFDFF8F81BA0
:10133000086051EC180B53EC1A2B04F037F80DD25F
:101340008DED00AB53EC182B2100DFF8E00B02F021
:1013500053F85FF0FF3051E12E000000AAA105987C
:1013600002F066FC002807D10120DFF86C18482243
:1013700002FB041181F84000DFF85C08482101FB02
:10138000040080ED088BDFF85008482101FB0400C1
:1013900080ED0AAB0020DFF84018482202FB041160
:1013A00008630020DFF83018482202FB041148646B
:1013B000DFF82408482101FB0400002141630020DC
:1013C000DFF81418482202FB041188630020DFF8BC
:1013D0000818482202FB041181F8410000260EE0A3
:1013E000DFF8F407482101FB0400406CC5F89400C5
:1013F000DFF8E407482101FB04004564761CF6B2DF
:10140000DFF8D407482101FB04000068864280F21F
:10141000F480982003F038FB05006846F6B20921F5
:1014200001FB06F110EB81008169280002F02AFC23
:101430006846F6B2092101FB06F110EB8100C16993
:1014400015F11E0002F01EFC002809D115F11E0244
:101450002100DFF8E00A01F0CFFF5FF0FF30CDE0C0
:101460006846F6B2092101FB06F110EB8100016A22
:1014700015F15C0002F006FC6846F6B2092101FB9A
:1014800006F110EB8100406A03F0A7FF0200101E76
:10149000332809D32100DFF8A00A01F0ADFF5FF087
:1014A000FF30ABE07C000000AA666846F6B2092176
:1014B00001FB06F110EB8100806A03F08EFF011E34
:1014C0001F2908D3EA6E2100DFF8700A01F094FFAB
:1014D0005FF0FF3092E0E8666846F6B2092101FB52
:1014E00006F110EB8100C06A03F077FF011E0A29A4
:1014F00008D32A6F2100DFF8480A01F07DFF5FF072
:10150000FF307BE028676846F6B2092101FB06F14F
:1015100010EB8100016B15F1740002F0B3FB68461B
:10152000F6B2092101FB06F110EB8100406B03F0DC
:10153000ECFEB0EE408AF0EE608A51EC180B00220F
:10154000002303F033FF07D351EC180B0122DFF81F
:10155000F43903F0C3FE09D8D5E920232100DFF8D0
:10156000E80901F049FF5FF0FF3047E085ED208B8F
:101570006846F6B2092101FB06F110EB8100806B91
:1015800003F0C3FEB0EE408AF0EE608A51EC180B17
:101590000022002303F00AFF07D351EC180B0122AD
:1015A000DFF8A83903F09AFE09D8D5E922232100F3
:1015B000DFF89C0901F020FF5FF0FF301EE085EDB1
:1015C000228B00206865002028650020A865002087
:1015D00085F890000020C5F89400DFF8FC0548214C
:1015E00001FB0400406C00287FF4FAAEDFF8E80548
:1015F000482101FB0400456400E700200DF50C7D47
:10160000BDEC068BBDE8F28331000000B8D10008C4
:1016100040D50008D8D10008A8D7000838B5002464
:101620000025DFF8300901F0E7FE002410E0DFF8C4
:10163000280901F0E1FE00F0A1F8DFF880044FF482
:10164000BC7101FB050090F91E0000F0B1F8641CAC
:10165000072C80F29080DFF88005482101FB040010
:10166000C56BDFF858044FF4BC7101FB0500006A3C
:101670000128ECD1DFF86005482101FB0400806BF4
:101680000228E4DBDFF834044FF4BC7101FB0500F1
:10169000006C0328DBDADFF84005482101FB040079
:1016A00090F841000228D2DADFF82C05482101FB2E
:1016B000040090ED020ADFF82005482101FB040038
:1016C000D0ED0D0A30EE600A10EE100A03F0C4FDF2
:1016D00031F00041DFF8202CDFF8203C03F066FEFB
:1016E000A5D3DFF8D8034FF4BC7101FB0500006CF3
:1016F000012819D1DFF8E004482101FB040090ED36
:10170000020ADFF8D404482101FB0400D0ED0D0AE1
:1017100030EE600AB5EE400AF1EE10FA04D5DFF8BB
:10172000E00B01F069FE86E7E4484FF4BC7101FB71
:101730000500006C022819D1DFF89C04482101FB48
:10174000040090ED020ADFF89004482101FB040038
:10175000D0ED0D0A30EE600AB5EE400AF1EE10FA57
:1017600004DDDFF8A40B01F047FE64E7DFF89C0B13
:1017700001F042FE6BE731BDE4C2000880B5DFF83E
:10178000900B01F039FEDFF88C0B0088642808DA32
:1017900001F050FD01F02EFD4FF49670DFF8781B3C
:1017A000088001BD0AD723BC58C600088CCB0008AE
:1017B0003EB5040064B2B4F1310564B2B4F1310055
:1017C00005282DD2BD484FF4BC7101FB0500D0F8AF
:1017D0006001002824D164B22100DFF8400B01F041
:1017E0000BFE200040B200F06DF90120B3494FF428
:1017F000BC7202FB0511C1F8600164B22200DFF87F
:10180000201B684603F050FD684602F05DFA4FF475
:101810007A73020092B26946DFF8080B01F039FED4
:1018200037BD10B540B2B0F1310440B2B0F1310172
:10183000052916D2A1494FF4BC7202FB0411D1F85C
:10184000601101290DD140B20100DFF8DC0A01F07E
:10185000D3FD002099494FF4BC7202FB0411C1F87A
:10186000600110BD6CCE0008E8CC0008E0C500089F
:1018700050C90008C8D300082DE9F0418EB004001B
:1018800001A8342102F0FAF9012664B2B4F130055E
:1018900000275FF0000864B2312C07D024D3332C2A
:1018A00010D009D3352C19D012D31DE00821DFF850
:1018B0007C0A03F0D5FD1EE00821DFF8740A03F06E
:1018C000CFFD18E00821DFF86C0A03F0C9FD12E033
:1018D0000821DFF8640A03F0C3FD0CE00821DFF8FB
:1018E0005C0A03F0BDFD06E0002664B22100DFF8CB
:1018F000500A01F081FD002E37D0052001F0C5FC13
:1019000003F0DAFD070000F00DFFFFB2002F2FD02B
:10191000002E2AD00120009064B2230067484FF4C3
:10192000BC7101FB0500B0F5BC72DFF8181A01A804
:1019300003F0BAFC01A802F0C7F94FF47A73020071
:1019400092B201A9DFF8DC0901F0A3FD01205B4997
:101950004FF4BC7202FB0511B1F5AC71086064B2C2
:101960002100DFF8DC0C01F047FD0EB0BDE8F0818E
:1019700018F10108B8F1030F8DDB64B22100DFF824
:10198000C80D01F039FDF0E700401CC690CE0008FC
:10199000F0B59FB00400002000260025002701A814
:1019A000142102F06BF9002206A9DFF8980C03F06D
:1019B000FFFE9DF819309DF81820DFF88C1C01A857
:1019C00003F072FC01A9DFF8840D4FF4BC7202FB36
:1019D000040010F59A7002F055F900226946DFF80C
:1019E000640C03F090FFDFF8640D4FF4BC7101FB51
:1019F000040010F5A47101A802F044F98CA102F0D2
:101A0000F1F80BE001000BA8142202FB060002F023
:101A100039F987A1002002F0E5F8761C0028F1D101
:101A20000026DFF8280D4FF4BC7101FB040010F50F
:101A30009A7101A802F026F97DA102F0D3F80BE01B
:101A4000010015A8142202FB060002F01BF978A180
:101A5000002002F0C7F8761C0028F1D11AA803F084
:101A6000BCFC060010A803F0B8FC87193C2F07DB6C
:101A70003C2097FBF0F53C2097FBF0F100FB117741
:101A800015A803F0AAFC06000BA803F0A6FC801919
:101A90004519182095FBF0F100FB11553B002A0079
:101AA000DFF8A41BDFF8A40C4FF4BC7505FB0400A1
:101AB00010F59A7003F0F8FB1FB0F0BDF021002084
:101AC00010CD00082DE9F0418EB0040001A83421AA
:101AD00002F0D4F8012664B2B4F1300500275FF0BB
:101AE000000864B2312C07D024D3332C10D009D392
:101AF000352C19D012D31DE00821DFF8540C03F067
:101B0000AFFC1EE00821DFF84C0C03F0A9FC18E044
:101B10000821DFF8440C03F0A3FC12E00821DFF8F1
:101B20003C0C03F09DFC0CE00821DFF8340C03F0C2
:101B300097FC06E0002664B22100DFF8280C01F0D3
:101B40005BFC002E39D0052001F09FFB03F0B4FCB4
:101B5000070000F0E7FDFFB2002F31D0002E2CD09F
:101B60000020009064B22300DFF8E00B4FF4BC715A
:101B700001FB0500B0F5BC72DFF8C81701A803F03F
:101B800093FB01A802F0A0F84FF47A73020092B21E
:101B900001A9DFF8900701F07CFC0020DFF8AC1B06
:101BA0004FF4BC7202FB0511B1F5AC71086064B270
:101BB0002100DFF8B40B01F01FFC0EB0BDE8F0818E
:101BC00018F10108B8F1030F8BDB64B22100DFF8D4
:101BD000F40C01F011FCF0E7302D00200088C34028
:101BE000B8CB000800B587B0002201A9DFF8540A7D
:101BF00003F0DEFD00226946DFF8480A03F083FEA9
:101C00009DF802309DF801209DF8030010F5FA615F
:101C1000DFF8580B01F0F0FB9DF806309DF8052029
:101C20009DF80410DFF8A00C01F0E6FB07B000BD42
:101C30003A000000E4CB0008F8B5040000260025B7
:101C40000027611CDFF8840C01F0D6FBDFF8FC0AEA
:101C50004FF4BC7101FB0400456A002655E0DFF833
:101C6000EC0A4FF4BC7101FB040010EB8600876A9C
:101C7000DFF8D406482101FB0700806803F0ECFA86
:101C8000DFF8C426482303FB07225369126903F0D7
:101C90008DFB12D2DFF8B40A4FF4BC7101FB0400D3
:101CA000006A002809D1DFF8A40A4FF4BC7101FBD7
:101CB000040090F91E00FFF7DFFDDFF88C064821D5
:101CC00001FB0700806803F0C7FA02000B00DFF891
:101CD0007806482101FB0700C169806903F066FBB3
:101CE00012D2DFF8680A4FF4BC7101FB0400006AED
:101CF000012809D1DFF8540A4FF4BC7101FB04003C
:101D000090F91E00FFF7DEFE761CAE42A7DBF1BDA8
:101D1000F8B50400002600250027611CDFF8B00B91
:101D200001F06AFBDFF8240A4FF4BC7101FB0400E8
:101D3000456A002655E0DFF8140A4FF4BC7101FB38
:101D4000040010EB8600876ADFF8FC05482101FBE0
:101D50000700806803F080FADFF8EC25482303FBD6
:101D600007225369126903F021FB12D2DFF8DC0964
:101D70004FF4BC7101FB0400006A012809D1DFF8AF
:101D8000CC094FF4BC7101FB040090F91E00FFF771
:101D900099FEDFF8B405482101FB0700806803F0D5
:101DA0005BFA02000B00DFF8A005482101FB0700E9
:101DB000C169806903F0FAFA12D2DFF890094FF492
:101DC000BC7101FB0400006A002809D1DFF87C091E
:101DD0004FF4BC7101FB040090F91E00FFF74CFDAD
:101DE000761CAE42A7DBF1BD80C90008B0C900086F
:101DF00030B5ADB0040020A8342101F03FFF13A896
:101E0000342101F03BFF06A8342101F037FF002503
:101E10000020611CDFF8BC0A01F0EEFADFF82C09A3
:101E20004FF4BC7101FB040010F59F72DFF81C0930
:101E30004FF4BC7101FB040010F5A471DFF8980A9F
:101E400001F0DAFADFF804094FF4BC7101FB040079
:101E500010F59F7113A801F015FF35A101F0C2FE26
:101E60000BE0010006A80A2202FB050001F00AFFB0
:101E70002FA1002001F0B6FE6D1C0028F1D1002D2D
:101E800004D1DFF8580A01F0B7FA49E006A803F0D8
:101E9000A4FA3C2101FB00F50DF1220003F09DFAAC
:101EA000401941F270714843DFF8A0184FF4BC723A
:101EB00002FB0411C1F85801DFF890084FF4BC711F
:101EC00001FB0400D0F85801DFF880184FF4BC7211
:101ED00002FB0411C1F85C010120DFF8041A08704C
:101EE000002201A9DFF85C0703F062FC9DF80530D1
:101EF0009DF80420DFF8501720A803F0D5F920A999
:101F0000DFF848084FF4BC7202FB040010F59A7029
:101F100001F0B8FE00226946DFF8280703F0F3FC61
:101F20002DB030BD24C300084C34002064C3000829
:101F30003A000000E4D300081CC60008A4C300084F
:101F4000E4C30008006AF840E0C90008D012634109
:101F500010CA0008F8D1000890C600082DE9F04723
:101F6000AEB0040002A8342101F088FE21A834217B
:101F700001F084FE14A8342101F080FE00275FF0F8
:101F800000085FF000095FF0000A0025002000262D
:101F900000220FA9DFF8AC0603F00AFC002201A919
:101FA000DFF8A00603F0AFFC9DF83C709DF83D8083
:101FB000CDF800803B00DFF894074FF4BC7101FBC3
:101FC0000400D0F85421611CDFF8180901F014FA5C
:101FD00015E0DFF878074FF4BC7101FB0400D0F87E
:101FE0005401401C0C2190FBF1F201FB1200DFF8C0
:101FF0005C174FF4BC7202FB0411C1F85401DFF806
:102000004C074FF4BC7101FB0400DFF840174FF49C
:10201000BC7202FB0411D1F854110A2202FB010028
:1020200090F946003A2809D00020DFF820174FF435
:10203000BC7202FB0411C1F854014FE0DFF80C0739
:102040004FF4BC7101FB0400DFF800174FF4BC72C1
:1020500002FB0411D1F854110A2202FB010010F115
:10206000440102A801F00EFE00208DF80A0002A82B
:1020700003F0B3F981460DF10B0003F0AEF982468F
:1020800053464A46DFF8C4064FF4BC7101FB040016
:10209000D0F85411DFF8500801F0AEF94F451DDBC0
:1020A000B94596DBD04519DBC24516DADFF89C0648
:1020B0004FF4BC7101FB0400D0F85401401C0C210A
:1020C00090FBF1F201FB1200DFF880164FF4BC72B6
:1020D00002FB0411C1F8540191E70126002E1DD125
:1020E000DFF868064FF4BC7101FB0400DFF85C16F2
:1020F0004FF4BC7202FB0411D1F854110A2202FB06
:10210000010010F14401DFF844064FF4BC7202FBF9
:10211000040010F59A7001F0B5FD32E0DFF82C06EE
:102120004FF4BC7101FB0400DFF820164FF4BC72C1
:1021300002FB0411D1F854110A2202FB010010F134
:10214000440102A801F09EFD9DF90C00392808D138
:102150009DF80B00401C8DF80B0030208DF80C0012
:1021600004E09DF80C00401C8DF80C0002A9DFF87B
:10217000DC054FF4BC7202FB040010F59A7001F00C
:1021800081FDDFF8C8054FF4BC7101FB0400DFF8E6
:10219000BC154FF4BC7202FB0411D1F854110A2291
:1021A00002FB010010F1BC01DFF8A0054FF4BC7286
:1021B00002FB040010F59F7001F064FD611CDFF864
:1021C000140701F019F9DFF884054FF4BC7101FB25
:1021D000040010F59F72DFF874054FF4BC7101FB29
:1021E000040010F59A71DFF8A80B01F005F9DFF88B
:1021F0005C054FF4BC7101FB040010F59A7102A854
:1022000001F040FDDFF844054FF4BC7101FB040010
:1022100010F59F7121A801F035FD3AA101F0E2FC13
:102220000BE0010014A80A2202FB050001F02AFDC0
:1022300034A1002001F0D6FC6D1C0028F1D1002D46
:1022400004D1DFF8500B01F0D7F852E014A803F0E6
:10225000C4F83C2101FB00F50DF15A0003F0BDF874
:10226000401941F270714843DFF8E0144FF4BC723A
:1022700002FB0411C1F85801DFF8D0044FF4BC711F
:1022800001FB0400D0F85801B0F57A7F09D140F283
:10229000ED30DFF8B8144FF4BC7202FB0411C1F842
:1022A0005801DFF8A8044FF4BC7101FB0400D0F81A
:1022B0005801062809DA40F6B830DFF890144FF4D8
:1022C000BC7202FB0411C1F85801DFF880044FF41E
:1022D000BC7101FB0400D0F85801DFF870144FF412
:1022E000BC7202FB0411C1F85C010120DFF8841DFF
:1022F00008702EB0BDE8F0879A9999999999B93FDD
:1023000024C400083A00000064C4000800D4000897
:102310001CD40008583400205C340020B4CE0008DF
:10232000B0D70008C032002018D2000854000020A6
:10233000640000207400002084000020940000202D
:1023400040CA00086CD70008302D0020F8B52DEDEC
:10235000028B98B004000026002500270AA834212B
:1023600001F08CFC9FEDB98BDFF8EC0B00780028B6
:1023700040F020812100DFF8B80B01F03DF8DFF8D4
:10238000CC034FF4BC7101FB0400456A002689E0D0
:1023900051EC180B03F030FB41F270714843DFF849
:1023A000AC134FF4BC7202FB0411C1F85801DFF802
:1023B0009C034FF4BC7101FB0400D0F85801DFF816
:1023C0008C134FF4BC7202FB0411C1F85C010120B4
:1023D000DFF80C1508708DED028BDFF8800B4821BB
:1023E00001FB070090ED040B8DED000BDFF86C0B8B
:1023F000482101FB0700806802F02EFF02000B005D
:10240000DFF85C0B00F0F8FF002205A98D4803F00F
:10241000CFF99DF815309DF814208B490AA802F0D9
:1024200043FF0AA9C9484FF4BC7202FB040010F52F
:102430009A7001F027FC002204A9824803F063FA95
:102440000020DFF8201B08600120DFF80C1B08705B
:10245000DFF8080B482101FB0700806802F0FCFE52
:1024600002000B00DFF8F40A482101FB0700C169F4
:10247000806902F09BFF14D2B4484FF4BC7101FB99
:102480000400006A01280CD1B0484FF4BC7101FB74
:10249000040090F91E00FFF715FB0120DFF8B81AC1
:1024A0000870761CAE4280F28580A8484FF4BC715B
:1024B00001FB040010EB8600876ADFF8A00A4821C0
:1024C00001FB0700806802F0C7FEDFF8902A48236E
:1024D00003FB07225369126902F068FFB8D29B48D8
:1024E0004FF4BC7101FB0400006A0028B0D1DFF892
:1024F0006C0A482101FB0700806802F0ADFE020073
:102500000B00DFF8580A482101FB07004169006908
:1025100003F09EFA41EC180B8C484FF4BC7101FBA0
:102520000400D0F86C11D0F8680153EC182B03F0BC
:102530004FFB41EC180B85484FF4BC7101FB0400C4
:10254000D0F87411D0F870010022002302F02EFFA1
:1025500004D2DFF8280B00F04FFF6DE07B484FF40A
:10256000BC7101FB0400D0F87411D0F87001002296
:10257000DFF80C3B03F02CFB02000B0051EC180BB6
:1025800003F0F8FB41EC180B51EC180B0022DFF8BC
:10259000F43A03F01DFB41EC180B51EC180B002230
:1025A000002302F003FF3FF6F3AEDFF8DC0A00F091
:1025B00023FF41E0DFF8D40A007800283CD1210055
:1025C000DFF8CC0A00F018FF60484FF4BC7101FB43
:1025D0000400456A00262DE05C484FF4BC7101FB05
:1025E000040010EB8600876ADFF87009482101FBC0
:1025F0000700806802F030FE02000B00DFF85C0983
:10260000482101FB0700C169806902F0CFFE10D2AA
:102610004E484FF4BC7101FB0400006A012808D148
:102620004A484FF4BC7101FB040090F91E00FFF70B
:1026300049FA761CAE42CFDB18B0BDEC028BF1BD7F
:1026400058D20008F033002078D7000800000000BE
:102650000000000038B500240025002400E0641CC0
:10266000052C5EDA39484FF4BC7101FB0400006CA4
:102670000028F4D035484FF4BC7101FB0400D0F8B9
:1026800060010028EBD131484FF4BC7101FB04001C
:10269000056C2E484FF4BC7101FB0400D0F85811B2
:1026A000DFF8B40B00F0A8FE012D08D0022D0AD0EF
:1026B000032D0CD0042D18D0062D24D0CFE72000F8
:1026C000FFF7BAFACBE72000FFF722FBC7E71F4866
:1026D0004FF4BC7101FB0400D0F85801B0F57A7FCB
:1026E00002D12000FFF784FBB9E718484FF4BC7112
:1026F00001FB0400D0F85801B0F57A7F02D1200028
:10270000FFF72CFCABE7DFF850080078002804D076
:10271000DFF878090078002802D12000FFF716FEC4
:102720009DE731BD002004E00021DFF8902B8154AB
:10273000401CDFF88C1B09888842F5DB0020DFF89D
:10274000841B08807047000038D20008F021002068
:102750005C0000206C0000207C0000208C00002029
:102760009C00002010CC000878D2000898D2000805
:1027700080B52DED028B00EE100AB8EEC08A00295C
:102780000ED002291CD00CD3042937D027D3062918
:1027900052D042D308296DD05DD3092979D087E082
:1027A0008AE018EE100A02F057FDDFF8202BDFF860
:1027B000203B03F00DFA02F0B1FD08EE100A7BE0B9
:1027C00018EE100A02F048FDDFF8082BDFF8083B8E
:1027D00003F0FEF902F0A2FD08EE100A6CE018EE1C
:1027E000100A02F039FDDFF8F42ADFF8F43A03F0BA
:1027F000EFF902F093FD08EE100A5DE018EE100A02
:1028000002F02AFDDFF8DC2ADFF8DC3A03F0E0F919
:1028100002F084FD08EE100A4EE018EE100A02F0F5
:102820001BFDDFF8C82ADFF8C83A03F0D1F902F03F
:1028300075FD08EE100A3FE018EE100A02F00CFDDC
:10284000DFF8B02ADFF8B03A03F0C2F902F066FD13
:1028500008EE100A30E018EE100A02F0FDFCDFF876
:102860009C2ADFF89C3A03F0B3F902F057FD08EE1A
:10287000100A21E018EE100A02F0EEFCDFF8842ABC
:10288000DFF8843A03F0A4F902F048FD08EE100ADC
:1028900012E018EE100A02F0DFFCDFF8702ADFF811
:1028A000703A03F095F902F039FD08EE100A03E0E2
:1028B000DFF8600A00F0A0FDB0EE480ABDEC028B24
:1028C00001BD0000D8CE0008E4D6000870CA000898
:1028D000A0CA00083CCC000800C7000838D4000893
:1028E0006F340020A4C40008E4C40008F8B52DED3E
:1028F000028B94B004000D0002A8142101F0BEF96F
:102900009FEDD28A9FEDD18A002007A8342101F0E3
:10291000B5F9002005E0DFF8A419415C07AA81544D
:10292000401CDFF89C1909888842F4DBDFF8900925
:10293000018807A803F071FB00282BD1DFF8D80924
:1029400000F05AFD0A2107A800F0F4FADFF8CC19CC
:1029500014F1740001F06CF900283BD1E06E0428FA
:1029600025D107A8A16E081810F8010C8DF80A00EF
:1029700007A8A16E085C8DF80B0007A8A16E0818C7
:1029800040788DF8080007A8A16E081880788DF8A7
:1029900009004DE02100DFF8880900F02DFD606D91
:1029A000401C6065FFF7BEFE5FF0FF30ECE107A85A
:1029B000A16E085C8DF80A0007A8A16E081810F82F
:1029C000010C8DF80B0000208DF8080000208DF818
:1029D00009002DE0E06E042818D107A8A16E0818A0
:1029E00010F8010C8DF8080007A8A16E085C8DF89E
:1029F000090007A8A16E081840788DF80A0007A8FA
:102A0000A16E081880788DF80B0011E007A8A16E60
:102A1000081810F8010C8DF80A0007A8A16E085CD0
:102A20008DF80B0000208DF8080000208DF80900BB
:102A3000DFF8F01814F15C0001F0FAF8002840F01B
:102A40008D8002A800F0B4F9B0EE408A18EE100AAA
:102A500002F002FC02000B00DFF8CC0800F0CCFC16
:102A6000D4E920010022002302F038FC06D3D4E987
:102A700022010022002302F031FC44D29FED730AB0
:102A800094ED200B8DED000BD4E92223DFF89C0898
:102A900000F0B2FC18EE100A02F0DEFB06000F0098
:102AA000D4E92201D4E9202302F0D2FF02000B0076
:102AB0003000390003F08CF802F030FC00EE100A10
:102AC00010EE100A02F0C8FB0022DFF8643803F0B1
:102AD00051F902F023FC08EE100A18EE100A02F079
:102AE000BBFBD4E9202303F0D7FA02F017FC08EE71
:102AF000100A18EE100A02F0AFFB02000B00DFF81C
:102B0000340800F079FC002D0CD0022D62D041D3A6
:102B1000042D00F0A1807DD3062D00F01781C0F0B8
:102B2000BB802AE1DFF8100890ED000AB4EE408A7D
:102B3000F1EE10FA2ADBDFF8040890ED000AB4EE9B
:102B4000480AF1EE10FA21DB94ED140A30EE080A7F
:102B500084ED140AA06D401CA0651AE0DFF8E017B0
:102B600014F15C0001F064F8002808D102A800F01C
:102B700013F9216FFFF7FCFDB0EE408A66E7DFF83E
:102B8000C40700F039FC5FF0FF30FDE0606D401CD1
:102B90006065F6E0DFF8B00790ED000AB4EE408A19
:102BA000F1EE10FA12DBDFF8A40790ED000AB4EEA4
:102BB000480AF1EE10FA09DB94ED140A30EE080A27
:102BC00084ED140AA06D401CA06502E0606D401CFD
:102BD0006065D6E0DFF8780790ED000AB4EE408A31
:102BE000F1EE10FA12DBDFF86C0790ED000AB4EE9C
:102BF000480AF1EE10FA09DB94ED140A30EE080AE7
:102C000084ED140AA06D401CA06502E0606D401CBC
:102C10006065B6E0DFF8400790ED000AB4EE408A48
:102C2000F1EE10FA14DBDFF8340790ED000AB4EE91
:102C3000480AF1EE10FA0BDB94ED140A30EE080AA4
:102C400084ED140AA06D401CA06504E000000000A3
:102C5000606D401C606594E0DFF8040790ED000AA9
:102C6000B4EE408AF1EE10FA12DBDFF8F80690EDD0
:102C7000000AB4EE480AF1EE10FA09DB94ED140AEA
:102C800030EE080A84ED140AA06D401CA06502E035
:102C9000606D401C606574E018EE100A02F0DCFA0A
:102CA000AE4A482303FB0522D369926902F016FB62
:102CB00024D8DFF8B406006802F0CEFAA74A482309
:102CC00003FB0522D369926902F008FB16D8DFF8EE
:102CD0009C060068401CDFF894160860DFF88C063C
:102CE000006803280EDB00F0B9FADFF8840600F074
:102CF00083FB0020DFF87416086003E00020DFF893
:102D00006C160860DFF86C0690ED000AB4EE408A9D
:102D1000F1EE10FA12DBDFF8600690ED000AB4EE77
:102D2000480AF1EE10FA09DB94ED140A30EE080AB5
:102D300084ED140AA06D401CA06502E0606D401C8B
:102D40006065DFF8240680ED008A1AE0B0EE000A24
:102D500028EE008AB5EE408AF1EE10FA09DB94ED18
:102D6000140A30EE080A84ED140AA06D401CA06518
:102D700002E0606D401C606503E0DFF8000600F0D3
:102D80003BFBFFF7CFFC002014B0BDEC028BF2BD83
:102D9000D0CA0008B8D200080178090642781204A7
:102DA00083781B029A18C0781018411808007047E1
:102DB0002DE9F0412DED048B017890F801808478A5
:102DC000C578B7EE008AC9B2802901D3BFEE008A68
:102DD000DFEDA98AC9B280290DD3C9B2080003F07A
:102DE000D9F90022DFF8983503F056F902F096FA87
:102DF00008EE900A04E0C9B200EE101AF8EE408A1C
:102E000018EE900A02F028FA00225FF0804302F0E8
:102E1000DFFE02F083FA08EE900A5FFA88F8B8F154
:102E2000800F0CD318EE900A02F016FA0022DFF899
:102E3000543503F031F902F071FA08EE900A18EEF9
:102E4000900A02F009FA0022DFF83C3503F024F979
:102E500002F064FA08EE900A9FED879A5FFA88F80C
:102E6000B8F1800F0CD35FFA88F8404603F092F96E
:102E70000022DFF80C3503F00FF902F0BDFD8046AB
:102E8000EDB2280003F086F906000F00E4B220003E
:102E900003F080F904000D005FFA88F8404603F063
:102EA00079F90022DFF8E43402F092FE22002B00D0
:102EB00003F0F2F80022DFF8D43402F089FE320089
:102EC0003B0003F0E9F802F029FA09EE100A9FED41
:102ED000C10A89EE009A18EE100A02F0BDF904004A
:102EE0000D0018EE900A02F0B7F941EC110B9FEDBE
:102EF000CF0B03F09EFB51EC100B22002B0002F0D5
:102F000067FE04000D00B7EE000A39EE000A10EE6D
:102F1000100A02F0A1F922002B0002F059FE02F083
:102F2000FDF900EE100ABDEC048BBDE8F081000055
:102F300000CB000870B504000D00002605E0315DEF
:102F4000DFF84C0400F058FA761CAE42F7DBC8A05C
:102F500000F052FA70BD00007B340020302D0020BC
:102F6000A0C200084434002010B5ADF5816DDFF833
:102F700024040078002876D1DFF81C0400F0A4FEB9
:102F80000400641C03A8142100F078FE03A92000AB
:102F900000F080F81E2C07DA2200DFF8FC13DFF8BF
:102FA000FC0300F029FA61E0DFF8EC1308A800F058
:102FB00069FE232008A9611801F8010CDFF8E0037D
:102FC0000068012803D1312008A9605402E03020B4
:102FD00008A96054002008A961184870002008A9B9
:102FE00061188870641C002003F0DFFD03A800F066
:102FF0006BFE020092B20A2103A803F02AFE08A881
:1030000000F062FE020092B2142108A803F021FE33
:10301000220008A9E34800F0EFF9684600210022E9
:1030200000230EC00C380A220021684603F0ADFED2
:103030000A220A21684603F0A8FE684602F0CDF98C
:10304000B0F57A7F02DD0A2190FBF1F0401CA0422E
:1030500003D1D54800F0D0F908E0D44800F0CCF90D
:10306000FDF7A3F802E00020CA4908700DF5816D54
:1030700010BD0000703400200000000068CC000883
:103080000000594000004E4024C50008773400205D
:1030900034C700087EB40022002300236B460024BE
:1030A0000025002670C30C3B0300002B00D54042D6
:1030B0000A2490FBF4F504FB150430346D46545596
:1030C000521C0A2490FBF4F00128F1DA002B03D5FE
:1030D0002D206B46D054521C00206B46D054130058
:1030E00006E06846181810F8010CD41A60545B1EEC
:1030F000002BF6D577BC704730B5ADF57D7D04006B
:10310000002568460021002200230EC00C3803A8C9
:103110004FF47A7100F0B2FD0A220021684603F0F4
:1031200034FE0A220A21684603F02FFE684602F0A8
:1031300054F90500B5F57A7F02DD0A2095FBF0F51C
:103140006D1C2800020092B2142103A803F01DFE9A
:103150002A0003A9964800F04FF903A8281810F890
:10316000010C302806D100208D490860914800F0FC
:1031700043F912E003A8281810F8010C312806D1F1
:103180000120874908608C4800F036F905E00020EE
:1031900083490860894800F02FF903A8281810F81F
:1031A000020C23280FD1002003A9691801F8020C92
:1031B00003A9200000F066FD03A9814800F01CF976
:1031C000FDF768F802E07F4800F016F90DF57D7D07
:1031D00030BD00000000004B80B54FF47A7301222F
:1031E00039A1794800F055F9012080F31388FCF7E4
:1031F000CBFF01BD80B500200821744802F030F9F2
:10320000FFF790FA01BD80B500200821704802F058
:1032100027F9FFF787FA01BD80B5002008216D4826
:1032200002F01EF9FFF77EFA01BD00000000000069
:103230000000004080B500200821674802F010F926
:10324000FFF770FA01BD80B500200821634802F045
:1032500007F9FFF767FA01BDF4D6000880B5002032
:1032600008215F4802F0FCF8FFF75CFA01BD00009E
:103270000A00000080B55B4800F0BEF8002003F0B3
:1032800094FC594800F0B8F801BD4FF4FA51484396
:1032900056490860002056490860012055490860D9
:1032A0005448006810F001100128F9D0002051495D
:1032B000086000204E49086070470000BC330020C1
:1032C000E80100205A3400207D0000009A99999965
:1032D0009999B93F7B14AE47E17A843FFCA9F1D2BA
:1032E0004D62503F2D431CEBE2361A3FF168E388F4
:1032F000B5F8E43E8DEDB5A0F7C6B03E48AFBC9A38
:10330000F2D77A3E3A8C30E28E79453E95D626E861
:103310000B2E113E58D50008FCCE0008B8D7000887
:1033200038CD0008C0D7000844CF000868C700089F
:103330000088D34054D40008383400200C0000200A
:10334000C8D7000820CF00083C340020100000201F
:103350001400002018000020343400200800002051
:1033600030340020040000204C3400204834002079
:10337000D8D20008403400201C000020F8D20008F9
:10338000000060C00000F03F00C05FC0000070405F
:10339000D0D700087C3400204829002030CB00081A
:1033A0002000002094CC000870D4000860CD0008F4
:1033B0008CD4000868CF00088CCF00089CC7000898
:1033C00018D30008B0CF0008C0320020340000201D
:1033D0003C000020240000202C000020440000209D
:1033E0004C000020D4CF0008F8CF000814E000E023
:1033F00018E000E010E000E00EB400B582B003A9D0
:10340000009102466B460121034878440A3003F0DC
:103410002DFD06BC5DF810FB19A2000010B50400DC
:10342000002C01D1012033E0A0690028FFD194F8DD
:103430003900002805D1002084F83800200004F06D
:10344000DDFD242084F839002068C06830F4005085
:103450002168C860200000F039FA2068006930F463
:103460009040216808612068406930F02A00216896
:1034700048612068C06850F400502168C86000208E
:10348000E063202084F83900202084F83A000020EE
:1034900010BD2DE9F04182B004000D0016001F00A0
:1034A0005FF0000894F8390020285DD1002D02D08B
:1034B000B6B2002E01D1012057E094F9380001285E
:1034C00001D1022051E0012084F838000020E0639F
:1034D000212084F8390004F0E8FE8046A684E684C2
:1034E00003E02878216848606D1CE08C002828D013
:1034F000E08C401EE084A068B0F5805F16D1009794
:10350000434600228021200000F0FCF8002801D072
:1035100003202AE02888C005C00D21684860206982
:10352000002801D1AD1CE0E76D1CDEE700974346A3
:1035300000228021200000F0E5F80028D1D00320EF
:1035400013E00097434600224021200000F0DAF803
:10355000002801D0032008E0202084F83900002052
:1035600084F83800002000E00220BDE8F68190F8E1
:103570003A30202B28D1002902D092B2002A01D162
:10358000012022E090F93830012B01D102201CE00B
:10359000012380F8383081628285C2850021C163B1
:1035A000222180F83A10002180F83810016849691A
:1035B00051F00101026851610168C96851F49071CC
:1035C0000068C160002000E00220704738B50400A8
:1035D000206800682168C9682268526900230023B6
:1035E00010F00F03002B07D1850605D58D0603D5F6
:1035F000200000F01EF982E0002B70D0D30702D427
:1036000011F4907F6BD010F00103DBB2002B05D0DA
:10361000CB0503D5E36B53F00103E363430708D500
:1036200012F00103DBB2002B03D0E36B53F0020373
:10363000E363830708D512F00103DBB2002B03D04C
:10364000E36B53F00403E363030708D512F00102B0
:10365000D2B2002A03D0E26B52F00802E263E26BBE
:10366000002A3BD0800604D5880602D5200000F051
:10367000E0F820684069800910F00103E06B000762
:1036800001D4002B25D0200000F074F82068406998
:1036900040061AD52068406930F040002168486132
:1036A000606B00280DD00FF2F100616B0865606B54
:1036B00004F004FE002811D0606B616B096D88472F
:1036C0000CE0200000F01DF808E0200000F019F8E0
:1036D00004E0200000F015F80020E0630FE002068F
:1036E00005D50A0603D5200000F060F807E0400683
:1036F00005D5480603D5200000F08DF8FFE731BD61
:10370000704770472DE9F04104000D0016001F00BE
:10371000DDF81880206800682840A84201D1012007
:1037200000E0002076B2B04221D118F1010FF1D0B3
:10373000B8F1000F04D004F0B8FDC01B8045E9D2F9
:103740002068C06830F4D0702168C8602068406983
:103750004008400021684861202084F8390020207A
:1037600084F83A00002084F83800032000E00020AC
:10377000BDE8F0810168C96831F490710268D160D8
:10378000016849694908490002685161202180F8AF
:103790003A1070470000000080B5806B0021C185A1
:1037A0000021C184FFF7ADFF01BD000090F8391082
:1037B00021292ED18168B1F5805F10D1016A098875
:1037C000C905C90D026851600169002903D1016A68
:1037D000891C016209E0016A491C016205E0016A75
:1037E0004A1C0262097802685160C18C491EC1847A
:1037F00089B200290BD10168C96831F080010268E3
:10380000D1600168C96851F040010068C1600020C2
:1038100000E00220704780B50168C96831F04001BE
:103820000268D160202180F83910FFF769FF00207D
:1038300002BD80B590F83A10222945D18168B1F5D2
:10384000805F14D1816A0269002A08D10268526837
:10385000D205D20D0A80816A891C816219E0026852
:103860005268D2B20A80816A491C816211E0016902
:10387000002906D1816A4A1C8262026852680A7075
:1038800007E0816A4A1C82620268526812F07F0275
:103890000A70C18D491EC18589B2002912D1016803
:1038A000C96831F490710268D160016849694908BA
:1038B000490002685161202180F83A1005F094F81F
:1038C000002002E0002000E0022002BD2DE9F041CE
:1038D000040000202068006930F44050E16808438B
:1038E000216808612068C068BB490840A168226956
:1038F000114362691143E269114308432168C860BA
:103900002068406930F44070A1690843216848612B
:10391000E069B0F5004F40F0B0802068AF498842C0
:1039200003D02068AE49884253D105F0D3FE8046CB
:1039300005F0D0FE060005F0CDFE070005F0CAFE3A
:10394000050005F0C7FE192101FB08F1626852006D
:10395000B1FBF2F16422B1FBF2F1192202FB06F293
:1039600063685B00B2FBF3F2192303FB07F366689D
:103970007600B3FBF6F36426B3FBF6F3642606FB8E
:103980001322D20032326423B2FBF3F212F0F802B7
:10399000520012EB0111192202FB05F263685B0071
:1039A000B2FBF3F21923584363685B00B0FBF3F0FA
:1039B0006423B0FBF3F0642303FB1020C00032301B
:1039C0006422B0FBF2F010F0070040182168886014
:1039D00000E105F06FFE804605F06CFE060005F084
:1039E00069FE070005F066FE050005F063FE19217B
:1039F00001FB08F162685200B1FBF2F16422B1FBF5
:103A0000F2F1192202FB06F263685B00B2FBF3F2EB
:103A1000192303FB07F366687600B3FBF6F364260D
:103A2000B3FBF6F3642606FB1322D2003232642382
:103A3000B2FBF3F212F0F802520012EB011119225C
:103A400002FB05F263685B00B2FBF3F219235843F3
:103A500063685B00B0FBF3F06423B0FBF3F0642316
:103A600003FB1020C00032306422B0FBF2F010F0F3
:103A70000700401821688860ACE0206857498842F8
:103A800003D020685649884252D105F023FE804673
:103A900005F020FE060005F01DFE070005F01AFEE9
:103AA000050005F017FE192101FB08F1626892007C
:103AB000B1FBF2F16422B1FBF2F1192202FB06F232
:103AC00063689B00B2FBF3F2192303FB07F36668FC
:103AD000B600B3FBF6F36426B3FBF6F3642606FBED
:103AE0001322120132326423B2FBF3F212F0F0021D
:103AF00012EB0111192202FB05F263689B00B2FB75
:103B0000F3F21923584363689B00B0FBF3F064237E
:103B1000B0FBF3F0642303FB102000013230642279
:103B2000B0FBF2F010F00F0040182168886051E0FF
:103B300005F0C0FD804605F0BDFD060005F0BAFDAC
:103B4000070005F0B7FD050005F0B4FD192101FBE4
:103B500008F162689200B1FBF2F16422B1FBF2F16C
:103B6000192202FB06F263689B00B2FBF3F21923F1
:103B700003FB07F36668B600B3FBF6F36426B3FBFA
:103B8000F6F3642606FB1322120132326423B2FBE1
:103B9000F3F212F0F00212EB0111192202FB05F20E
:103BA00063689B00B2FBF3F21923584363689B00E0
:103BB000B0FBF3F06423B0FBF3F0642303FB1020AD
:103BC000000132306422B0FBF2F010F00F00401818
:103BD00021688860BDE8F081F369FFFF00100140B3
:103BE0000014014070B504460D46104805F0A6FDCE
:103BF000064644B12946204605F0A1FD0419207867
:103C000030B9306070BD3468002CF3D1002070BD35
:103C10002946204605F0A4FD0019017811B10021C4
:103C200000F8011B3060204670BD00BFE40000209A
:103C3000820707D010F8012B11F8013BBAB19A4264
:103C4000F6D014E002680B689A42A2F1013301BF7A
:103C5000934313F0803F50F8042F51F8043FF3D002
:103C600010F8012B11F8013B0AB19A42F8D0D01A92
:103C700070470268531C036011707047002205F002
:103C800081BD00005FEA000C830706D011F8013BFC
:103C900000F8013BB3B18307F8D10A68B2F10133F0
:103CA00023EA020313F0803F02BF40F8042B51F8CF
:103CB000042FF3E711F8013B00F8013B13B111F8B1
:103CC000013BF9E76046704700F10103810704D02A
:103CD00010F8011B89B18107FAD10268B2F10131F4
:103CE000914311F0803F04BF50F8042FF6E710F81D
:103CF000011B11B110F8011BFBE7C01A704700004F
:103D000062F30F2262F31F42401810F0030308D041
:103D1000C91A1FD3DB0748BF00F8012D28BF20F8C0
:103D2000022D130030B414461546103928BF20E97F
:103D30003C00FAD8490728BF20E90C0048BF40F8EA
:103D4000042D890028BF20F8022D48BF00F8012D5E
:103D500030BC7047C91818BF00F8012DCB0728BF29
:103D600000F8012D7047000000F5E07002689142F4
:103D700003D343689A18914202D380680028F5D192
:103D80007047DFF85807016891B94FF480318160BE
:103D90004FF4805141604FF0FF31C1600161042157
:103DA000DFF83C274161C2F8BC11DFF83817016029
:103DB0000120704701F1080313F0070305D001F15A
:103DC0000803C3F1080303F007035918D21A8161ED
:103DD000C26042F001034B60511828234B60DFF8AA
:103DE000FC160969C16170472DE9F84F064601F1DB
:103DF000080010F0070008BF884607D001F108004E
:103E0000C0F1080000F0070000EB010802F1080013
:103E100010F0070006D002F10800C0F1080000F021
:103E2000070082181546A5EB0800A0EB030903EB79
:103E3000080B43F00300C8F80400AB4528BF05F0A9
:103E4000BAFC2879C00758BF05F0B5FCB9F1100FCE
:103E500038BF05F0B0FCB069854209D1F06848442C
:103E6000F060C6F818B040F00100CBF804006DE136
:103E7000706985420BD1B0684844B060C6F814B090
:103E800040F00101CBF8041040F80B005EE16868D7
:103E900000F00301012940F0AD80C008C00001908E
:103EA000C00820283AD2D5F808A0EF680090BD429B
:103EB00008BF05F080FC554508BF05F07CFC68682C
:103EC0000099C008C000B0EBC10F18BF05F073FC2B
:103ED000009806EBC00000F128018A4507D031693F
:103EE0008A45C0F08280DAF80C10A9427DD157458E
:103EF00006D1009A3068012191408843306076E015
:103F00002830874205D0306987426ED3B868A8420E
:103F10006BD1CAF80C70C7F808A068E0EF68D5F854
:103F200018A0AF420CD0A8683169884223D3C16879
:103F3000A94204BFB968A9421DD1C760B8601CE09E
:103F400005F11400076837B905F110000768A7B13B
:103F500001E00846076807F114010A68002A02BF59
:103F600007F110010A68002AF3D13169884202D3AF
:103F70000021016001E005F01EFCBAF1000F36D00F
:103F8000E86906EB800000F5987001688D4208D161
:103F90000760A7B9EA6970680121914088437060A1
:103FA00025E03069824508D3DAF81000A84214BF32
:103FB000CAF81470CAF8107001E005F0FCFBB7B144
:103FC0003069874211D3C7F818A0296929B1814205
:103FD00026BF39618F6105F0EEFB686938B1316940
:103FE000884202D37861876101E005F0E4FB019823
:103FF0004519814468684008400068604FEAD90567
:1040000049F00100CBF8040049F80B90202D23D291
:1040100006EBC50000F12807BA46B9F1100F38BF0A
:1040200005F0C9FB306820FA05F1C90704D4012165
:10403000A9400843306006E0B868316988422CBF67
:10404000824605F0B8FBC7F808B0CAF80CB0CBF848
:1040500008A0CBF80C7079E05FEA192108BF0020B6
:1040600023D0B1F5803F28BF1F201ED2A1F580705C
:10407000000C00F008008140A1F58052120C02F003
:1040800004029140A1F580431B0CC0F10E0003F027
:104090000203801AC01A994000EBD130C11D29FAE1
:1040A00001F202F0010101EB4000CBF81C000022FC
:1040B000CBF81420CBF8102006EB8001726822FAAE
:1040C00000F3DB0701F5987107D4012303FA00F030
:1040D00010437060C1F800B01DE009681F280EBFD2
:1040E00000204008C0F1190009FA00F000E0114674
:1040F0004A68D208D2004A4514D0C20F01EB8202AE
:1041000002F1100340001A68002AF0D1306983429E
:104110001AD3C3F800B0CBF81810CBF80CB0CBF81A
:1041200008B013E032698868914228BF90420BD3EF
:10413000C0F80CB0C1F808B0CBF80800CBF80C10F0
:104140000020CBF8180001E005F035FB08F108006D
:10415000BDE8E68F2DE9FA4D0546DFF8800384B00F
:10416000006808B9FFF70DFEDFF870030499806856
:1041700041182F31401E21EA00000499814280F04D
:10418000A88105F5D876B16839B1326880188242C5
:1041900080F09F818142C0F09C8105F00FFB0028D8
:1041A0001EBF0446D0F8008014F1010F00F0918189
:1041B0003068716840443060814238BF01467160A8
:1041C000A86980BB286908B1844200D22C61002014
:1041D000F0613461C6F8148005F12801BF48006819
:1041E00068624FF0FF302862002001F10802C960C8
:1041F0001160801C10312028D2609260F5D3B8483D
:10420000854203D1A8F12802214629E055F8040C83
:10421000C00805EBC000A0F1080108EB0400401A3B
:10422000A0F128021CE005F5E071084600E0806876
:10423000D0B1026843689A189442F8D1027B120701
:1042400012D4AA6903689A420ED347683B449A4243
:104250000AD208EB07014160E868A96908EB00028F
:104260002846FFF7A7FD1EE128698442084638BFAB
:104270002C6108EB040100E0806880B102688A428A
:10428000FAD1017B09070AD40460416841444160C6
:104290002146049B284606B0BDE8F04DA4E5AF6971
:1042A00039462846FFF760FD0168406840180290D3
:1042B0002F3800F1080111F0070105D000F10801C5
:1042C000C1F1080101F00701081807F11001884247
:1042D00034BF0097009000980830019004F1080165
:1042E000009800F1180A11F007014FF0000BA8F137
:1042F000280005D004F10801C1F1080101F007010F
:104300000A19401AAA61E86040F001015160801862
:104310002821416071480069E861019810F00700A8
:1043200018BF05F048FA00991B20486005F5E071B8
:10433000B1E80C500198A0E80C503461C6F8148024
:10434000C6F81CB00198B061029800E08A460722C6
:10435000CAF804200AF104010A1D82420BF1010B84
:10436000F4D3BBF1020FB8BF05F025FA0098B842AC
:1043700000F09980C01BC119C4084A685208520055
:104380004A6040F001017960C051202C20D205EB39
:10439000C40101F12806B046102838BF05F00BFA19
:1043A000286820FA04F1C90704D40121A140084378
:1043B000286006E0B068296988422CBF804605F075
:1043C000FAF9B760C8F80C70C7F80880FE606AE0B8
:1043D000010A08BF002223D0B1F5803F28BF1F2269
:1043E0001ED2A1F58072120C02F008029140A1F5D4
:1043F00080531B0C03F004039940A1F58044240C66
:10440000C2F10E0204F00204D21A121BA14002EB08
:10441000D131CA1D20FA02F303F0010202EB41027E
:10442000FA6100237B613B6105EB82016B6823FA33
:1044300002F4E40701F5987105D401209040184377
:1044400068600F601CE009681F2A0EBF0022520836
:10445000C2F1190200FA02F200E019464B68DB08CB
:10446000DB00834210D0D30F01EB830303F1100470
:1044700052002368002BF0D12869844211D32760B1
:10448000B961FF60BF600EE02A698868914228BF69
:10449000904206D3C7608F60B860F9600020B861B1
:1044A00001E005F088F9E8680499814211D2401AC8
:1044B000E860A969049A5218AA6140F001005060AE
:1044C000049840F00300486006B001F10800BDE820
:1044D000F08D002006B0BDE8F08D00001034002003
:1044E000282F00206859883C2DE9F04D044600260D
:1044F00088465FEA1820C8F1000B08BF002123D0CE
:10450000B0F5803F28BF1F211ED2A0F58071090C95
:1045100001F008018840A0F58052120C02F004025C
:104520009040A0F580431B0CC1F10E0103F0020383
:10453000891AC91A984001EBD030C11D28FA01F23E
:1045400002F0010101EB400104EB8100D0F83001E1
:1045500018B31F290EBF00224A08C2F1190208FA37
:1045600002F2002300E052004568ED08ED00A5EBE3
:1045700008055D4503D25FEA050B06460BD0456989
:10458000D70F00EB8700002D00691CBF85422B462A
:104590000028E8D11846B8BBC6BB012088404000BF
:1045A000414208436168084000F06381414208408D
:1045B000401E010B01F01001C840420902F0080240
:1045C000D040830803F00403D840450805F00205F5
:1045D0005118E8405918C0F3400729443944F840BD
:1045E000401804EB8000D0F830010DE00846416827
:1045F000C908C900A1EB080159453CBF8B460646D6
:1046000001690029F2D140690028F0D1002E00F0A4
:104610003081A068A0EB0800834580F02A812069E2
:104620008642C0F024817068C008C00008EB0B010E
:1046300008EB0605884218BF05F0BDF8AE4280F0D1
:104640001681F768D6F818A0B7420CD0B068216977
:10465000884223D3C168B14204BFB968B1421DD1B9
:10466000C760B8601CE006F11400076837B906F1AE
:1046700010000768A7B101E00846076807F11401B8
:104680000A68002A02BF07F110010A68002AF3D164
:104690002169884202D30021016001E005F08BF816
:1046A000BAF1000F38D0F06904EB800000F5987083
:1046B00001688E4209D10760380014D1F269606840
:1046C000012191408843606026E02069824508D33B
:1046D000DAF81000B04214BFCAF81470CAF81070AB
:1046E00001E005F068F8BFB12069874212D3C7F82E
:1046F00018A0306930B12169884226BF38618761CE
:1047000005F059F8706938B12169884202D378619F
:10471000876101E005F04FF8BBF1100F0CD208EBF8
:104720000B0040F00300706008EB0B00801941683B
:1047300041F00101416096E048F0030070604BF0E9
:10474000010068604FEADB004BF805B020281DD25D
:1047500004EBC00101F12807216821FA00F2D20719
:10476000BB4605D4012202FA00F00843206006E0AF
:10477000B868216988422CBF834605F01CF8BD60EB
:10478000CBF80C50C5F808B0EF606CE05FEA1B2175
:1047900008BF002023D0B1F5803F28BF1F201ED2C4
:1047A000A1F58070000C00F008008140A1F5805256
:1047B000120C02F004029140A1F580431B0CC0F1E1
:1047C0000E0003F00203801AC01A994000EBD130AA
:1047D000C11D2BFA01F202F0010101EB4000E8617A
:1047E00000226A612A6104EB8001626822FA00F308
:1047F000DB0701F5987106D4012303FA00F010439A
:1048000060600D601CE009681F280EBF0020400892
:10481000C0F119000BFA00F000E011464A68D20816
:10482000D2005A4510D0C20F01EB820202F11003F0
:1048300040001A68002AF0D12069834211D31D601C
:10484000A961ED60AD600EE022698868914228BFE1
:10485000904206D3C5608D60A860E9600020A86121
:1048600001E004F0A8FF06F10800BDE8F08D04F0B7
:10487000A2FF0020BDE8F08D2DE9F84F04468846E0
:10488000606841420840401E010B01F01001C84021
:10489000420902F00802D040830803F00403D84024
:1048A000450805F002055118E8405918C0F34006C4
:1048B00029447118F040401804EB8000D0F8300112
:1048C0004168C908C9000646A1EB080A09E0084684
:1048D0004168C908C900A1EB080151453CBF8A469F
:1048E000064601690029F2D140690028F0D120690B
:1048F0008642C0F0C4807068C00808EB0A09C00096
:1049000008EB060B484518BF04F055FF5E4580F0E4
:10491000B680F768B569B7420CD0B06821698842A3
:1049200023D3C168B14204BFB968B1421DD1C76089
:10493000B8601CE006F11400076837B906F11000F2
:104940000768A7B101E00846076807F114010A6883
:10495000002A02BF07F110010A68002AF3D1216979
:10496000884202D30021016001E004F024FF002D01
:1049700034D0F06904EB800000F5987001688E4235
:1049800009D10760380011D1F269606801219140B6
:104990008843606022E02069854205D32869B042DF
:1049A00014BF6F612F6101E004F005FFB7B120690A
:1049B000874211D3BD61306930B12169884226BF79
:1049C0003861876104F0F7FE706938B12169884267
:1049D00002D37861876101E004F0EDFEBAF1100FB7
:1049E00009D249F00300706009EB0600416841F00C
:1049F000010141603FE048F0030070604AF00100AF
:104A0000CBF804004AF80BA0D4F808804FEAD80588
:104A1000202D28BF04F0CFFEB8F1000F27D0D4F826
:104A20001490009504EBC50000F128052F46B8F15D
:104A3000100F38BF04F0BFFE2068009920FA01F281
:104A4000D10705D4009A012191400843206006E077
:104A5000A868216988422CBF074604F0ACFEC5F85F
:104A60000890C7F80C90C9F80870C9F80C50C4F841
:104A700008A0C4F814B006F10800BDE8F28F04F0F5
:104A80009AFE0020BDE8F28F2DE9F04F83B0054675
:104A9000C046C046F52DDFF8B84780F002810B2DE7
:104AA00031BF102705F10B00C708FF002068FE0882
:104AB000F04010F0030F42D0C04300F0010086190F
:104AC00004EBC60000F12808F700D8F80850686821
:104AD000C008C000B84218BF04F06DFED5F80890B9
:104AE000454508BF04F067FE4D4508BF04F063FE6E
:104AF0006868C008C000B84218BF04F05CFEC84532
:104B000005D120680121B140884320600DE0206973
:104B1000814508D3D9F80C00A84204D1C8F8089000
:104B2000C9F80C8001E004F046FE47F0030068601D
:104B300078190835416841F001014160F9E0A16848
:104B4000B94280F0C080002800F0A280012505FA5B
:104B500006F149004A42B040114308404142084032
:104B6000401E010B01F01001C840420902F008028A
:104B7000D040830803F00403D840460806F002063C
:104B80005118F0405918C0F340087118414420FAF8
:104B900008F000EB010804EBC80000F128094FEA17
:104BA000C80AD9F808607068C008C000504518BF2E
:104BB00004F001FED6F808B04E4508BF04F0FBFD36
:104BC0005E4508BF04F0F7FD7068C008C00050459E
:104BD00018BF04F0F0FDD94505D1206805FA08F1A9
:104BE000884320600DE02069834508D3DBF80C0082
:104BF000B04204D1C9F808B0CBF80C9001E004F041
:104C0000DAFD47F003007060AAEB0708B8190190BD
:104C100048F0010001994860019848F80080A768B1
:104C20004FEAD70ABAF1200F28BF04F0C4FD47B3FA
:104C3000CDF800A004EBCA00D4F8149000F1280AC3
:104C4000D346102F38BF04F0B6FD2068009920FA33
:104C500001F2D10705D4009905FA01F1084320605B
:104C600007E0DAF80800216988422CBF834604F087
:104C7000A2FDCAF80890CBF80C90C9F808B0C9F8A2
:104C80000CA0C4F8088006F108050198606150E0A6
:104C90006068C0B339462046FFF7EEFD050012D02C
:104CA00047E015F1400F28BF4FF0FF370BD205F159
:104CB0000B00C7086068FF0028B139462046FFF79F
:104CC00013FC050035D1A068B8421CD3C11B626932
:104CD00010290AD3B8186061A16041F00103436054
:104CE000095047F0030050600AE00021A1606161B3
:104CF00040F0030151608018416841F001014160BA
:104D000002F1080515E0E06887420DD2C01BA169D9
:104D1000E0607A18A26140F00100506001F10805DE
:104D200047F00300486004E039462046FFF712FAD6
:104D30000546C046C046284603B0BDE8F08F00B91E
:104D400070472DE9F047A0F10804C046C046DFF8DF
:104D5000005528698442C0F07482616801F0030242
:104D6000012A00F06E82CA084FEAC208CA0708EB9F
:104D7000040936D4226811F0030F00F06482A41AEB
:104D800084429044C0F05D8269698C4200F0D88012
:104D9000D608202E70D2D4F80CA0A768544508BFBE
:104DA00004F009FDBC4208BF04F005FD6068C008BE
:104DB000C000B0EBC60F18BF04F0FDFC05EBC60049
:104DC00000F128018F4205D029698F4251D3F9683B
:104DD000A1424ED1BA453DD128680121B140884356
:104DE00028604C4580F02D82D9F80400C10740F1BD
:104DF0002882810700F17A81A969894540F0B58050
:104E0000E868AC614044E86040F0010161606969B4
:104E10008C4202D100216961A960E969814280F078
:104E20001282DFF83004006808B9FEF7AAFFA9690A
:104E3000002900F00882E868292824BF2846FEF7E8
:104E400093FFE869E968884280F0FD814FF0FF3008
:104E5000E861F8E12830824506D02869824508D308
:104E6000DAF80800A04204D1C7F80CA0CAF808700C
:104E7000B7E704F0A0FCB4E7E768A669A7420BD047
:104E8000A168814222D3C868A04204BFB868A0428A
:104E90001CD1CF60B9601BE004F114010F6837B971
:104EA00004F110010F689FB101E011460F6807F18E
:104EB00014021368002B02BF07F110021368002BC5
:104EC000F3D1814202D30020086001E004F073FCBA
:104ED000002E86D0E06905EB800000F5987001682F
:104EE0008C4209D10760380011D1E269686801215C
:104EF00091408843686074E72869864205D3306929
:104F0000A04214BF7761376101E004F054FC002F28
:104F10003FF467AF28698742ABD3BE61216929B1ED
:104F2000814226BF39618F6104F045FC6069002829
:104F30003FF457AF296988429BD37861876150E776
:104F400099F8040000F0030003287FF44AAFC5F885
:104F50000880D9F8040040084000C9F8040048F06F
:104F60000100606048F804806DE16969894508D1F5
:104F7000A8686C614044A86040F001016160005184
:104F800061E1C008C0004FEAD00ABAF1200F8044A6
:104F900036D2D9F80C70D9F80860B94508BF04F0CA
:104FA0000AFCB14508BF04F006FCD9F80400C008AB
:104FB000C000B0EBCA0F18BF04F0FDFB05EBCA0040
:104FC00000F128018E4206D029698E42C0F081800E
:104FD000F16849457DD1B74206D12868012101FA1F
:104FE0000AF18843286076E02830874205D0286996
:104FF00087426ED3B86848456BD1F760BE606AE0FF
:10500000D9F80C70D9F818604F450DD0D9F80800C0
:105010002969884223D3C168494504BFB968494515
:105020001DD1C760B8601CE009F11400076837B9EA
:1050300009F110000768A7B101E00846076807F109
:1050400014010A68002A02BF07F110010A68002A49
:10505000F3D12969884202D30021016001E004F004
:10506000AAFB002E37D0D9F81C0005EB800000F514
:105070009870016889450AD10760380012D1D9F8C3
:105080001C206868012191408843686023E02869FA
:10509000864205D33069484514BF7761376101E026
:1050A00004F089FBBFB12869874212D3BE61D9F8E9
:1050B000101029B1814226BF39618F6104F07BFB5A
:1050C000D9F8140038B12969884202D37861876120
:1050D00001E004F070FB48F00100606048F80480D3
:1050E000686984420BD1C5F80880ACE040084000F4
:1050F000C9F8040048F00100606048F804804FEAF5
:10510000D807202F22D205EBC70000F128094E4610
:10511000B8F1100F38BF04F04EFB286820FA07F1F1
:10512000C90704D40121B9400843286007E0D9F831
:105130000800296988422CBF064604F03CFBC9F8E8
:105140000840F460A660C4F80C907CE05FEA182088
:1051500008BF002123D0B0F5803F28BF1F211ED2F9
:10516000A0F58071090C01F008018840A0F580527B
:10517000120C02F004029040A0F580431B0CC1F118
:105180000E0103F00203891AC91A984001EBD030CE
:10519000C11D28FA01F202F0010101EB40010022D9
:1051A00062612261E16105EB81006A6822FA01F324
:1051B000DB0700F5987006D4012303FA01F11143CF
:1051C000696004601CE000681F290EBF00214908C7
:1051D000C1F1190108FA01F100E010464268D20855
:1051E000D200424510D0CA0F00EB820202F1100338
:1051F00049001A68002AF0D129698B4211D31C603A
:10520000A061E460A4600EE02A698168904228BF32
:10521000914206D3CC608460E060A1600020A06170
:1052200001E004F0C8FA286A401E28620BD1D5F8C4
:10523000C80100E080680028FCD14FF0FF302862F0
:1052400001E004F0B8FAC046C046BDE8F0870000AF
:10525000282F0020103400205FF0FF0C1CEAD051F2
:1052600014BF614506E0C110400721F0E04101F1A3
:105270006051704779B900F0004100020AD0B0FADD
:1052800080FC00FA0CF001F16051A1EB0C5101EB34
:10529000D0214005704741020CBF40F4E0016FF09F
:1052A00000010020704700000CB41CB5044604A89F
:1052B00001900A46009401AB6946074878441830CB
:1052C00001F0D4FD009A0021117000285CBF009805
:1052D000001B16BC5DF80CFB9BE9FFFF4FF4001CA4
:1052E0001CEB410F94BF1CEB430F09E041EA030C98
:1052F00050EA4C0C52EA0C0C03D28B4208BF82429B
:10530000704714BF99429042704780B50022002137
:1053100004F01CFB41EC100B01BD00004FEAF17CD6
:10532000BCF1E04C2CBFBCF5001F11E05FEA4C0C57
:1053300034BFBCF17F5F2EE05FEA9C0C4FEA0C1C8F
:105340004FEA3C0CC10071F100414CEB50707047CA
:10535000C90241EA5051C00218BF41F0010141F0B9
:1053600000414FEA6C50C0F10900212810D240EAF8
:10537000CC7CCCF1200C11FA0CF070F10040CCF197
:10538000200C21FA0CF00CF0004C40EB0C007047A4
:105390004FEACC707047490011F5001F04D84FEA5E
:1053A000CC10FF30C0057047C81770474FF4001C81
:1053B0001CEB410F94BF1CEB430F09E041EA030CC7
:1053C00050EA4C0C52EA0C0C03D2994208BF9042AE
:1053D000704714BF8B42824270470A22002104F0BA
:1053E00059BB80B5002204F0B1FA41EC100B01BDAD
:1053F00080B500220221272004F0DEFB272004F0E4
:10540000ECFB01BD80B5002000906D48006850F0B5
:1054100002006B4908606A48006810F002000090C2
:1054200000986848684908604FF41650664948601B
:1054300000206549886000206349C86000206249F7
:1054400008610C206049486100205F4988610020A4
:105450005D49C8615C48FDF7E1FFFFF7C9FF01BD89
:1054600038B504000D006420FDF70FFF2078574980
:10547000087001224FF48071554804F0CCFC4FF6BF
:10548000FF73EDB22A0092B221004F48FEF701F8F7
:1054900000280DD14C48006800684006FAD500206D
:1054A0004C49088000224FF48071494804F0B3FC55
:1054B0000520FDF7EAFE31BD10B500244FF47A70E7
:1054C000FDF7E3FE032044490968434A126892FB52
:1054D000F0F200FB1210002815D102203F4908709D
:1054E00003203E49487002203C49887000203B4917
:1054F000C870002039490871FC203849487144209F
:105500003649887133E034480068022190FBF1F29B
:1055100002FB1102002A15D1022030490870032035
:105520002E49487002202D49887003202B49C870ED
:1055300000202A490871FC2028494871B4202749D5
:10554000887114E00220254908700320234948701F
:10555000022022498870F3202049C87000201F498A
:105560000871B8201D494871B4201C4988711A4837
:105570000068401C18490860072016490880184830
:10558000FDF73AFF0A211548FDF7D4FC11480488BD
:10559000A4B2002C02D11348FDF72EFF0D4800885D
:1055A0001149088000200B4908800520FDF76DFE99
:1055B000A4B221000D48FDF71FFF200080B210BDEE
:1055C000303802400048004040330020783400204A
:1055D000001C02405A34002028340020BC33002034
:1055E000A4D60008B4D60008E8010020C4D60008FC
:1055F00010B50400002C01D101204FE094F91D00EA
:10560000002804D100202077200004F083FD022030
:105610006077CA20216848625320216848622000D0
:1056200000F0B6F9002806D0FF2021684862042067
:105630006077012032E020688068DFF814130840AA
:105640002168886020688068616822691143626906
:105650001143084321688860E06821680861206878
:105660000069A16850EA0140216808612068C068AB
:1056700030F080002168C8602068006C30F4802021
:10568000216808642068006CA169084321680864E7
:10569000FF202168486201206077002010BDF8B526
:1056A00004000D00002694F91C00012801D10220FD
:1056B0007DE00120207702206077002A1BD120683E
:1056C0008068400601D40020E870287800F07CF95A
:1056D0000600687800F078F90700A87800F074F9FF
:1056E000F6B2FFB2390251EA0641C0B20843E97886
:1056F00050EA014614E020688068400604D5287806
:1057000000F06DF9060001E00020E8702878697863
:10571000090251EA0040A9780843E97850EA0146B5
:10572000CA2021684862532021684862200000F0A6
:105730002FF9002808D0FF202168486204206077F4
:1057400000202077012032E0DFF808023040216895
:1057500008602068806830F48020216888602068B4
:105760008068E9682A6911430843216888602068D5
:10577000C06830F080002168C860206880688006BA
:105780000DD4200000F0EAF8002808D0FF2021689E
:1057900048620420607700202077012007E0FF2086
:1057A0002168486201206077002020770020F2BD48
:1057B00010B50C0000210168896A616001680969FF
:1057C0004904490CA16000680068DFF888110140B5
:1057D000080C10F03F002070080A10F07F00607085
:1057E00011F07F00A070080C10F04000E070002A5B
:1057F0000BD1207800F0F3F82070607800F0EFF81B
:105800006070A07800F0EBF8A070002010BDF8B533
:1058100004000D00002694F91C00012801D102208B
:1058200070E00120207702206077002A07D1687895
:10583000C00604D5687810F0EF000A306870002ABE
:1058400015D1E87800F0C0F80600687800F0BCF8E0
:105850000700A87800F0B8F8F6B2FFB2390251EAB2
:105860000641C0B20843297850EA413611E0687811
:1058700000F0B5F80600A87800F0B1F80600E87866
:105880006978090251EA0040A9780843297850EA6A
:105890004136CA20216848625320216848622000AE
:1058A00000F076F8002808D0FF2021684862042024
:1058B000607700202077012024E0DFF89C00304052
:1058C000216848602068C06830F080002168C860A6
:1058D0002068806880060DD4200000F03FF8002882
:1058E00008D0FF20216848620420607700202077DC
:1058F000012007E0FF202168486201206077002036
:1059000020770020F2BD10B50C000021006840682F
:10591000DFF844100140080CE070080A10F01F0086
:10592000607011F03F00A070480B10F0070020706D
:10593000002A0BD1E07800F052F8E070607800F0B7
:105940004EF86070A07800F04AF8A070002010BDFA
:10595000BFFF8FFF7F7F7F003FFFFF0038B5040050
:1059600000252068C06830F0A0002168C86002F0FF
:105970009CFC05002068C068800607D402F095FCF6
:10598000401BB0F57A7FF5D9032000E0002032BD3E
:1059900038B5040000252068C068400612D45FF0C6
:1059A000FF302168C86002F080FC05002068C068F4
:1059B000400607D402F079FC401BB0F57A7FF5D998
:1059C000032000E0002032BD002101E0491C0A381C
:1059D000C0B20A28FAD250EA0110C0B270470021C2
:1059E0000100C9B20909C9B20A225143C0B210F07C
:1059F0000F004018C0B27047F446400D40EAC12085
:105A0000490006D200F014F8004248BF6FF0004091
:105A1000604700F00DF84FF0004188428CBF084607
:105A200040426047400D40EAC120490080F00D80AF
:105A300040F00040490DA1F58061491C05D4D1F129
:105A40001F0154BFC840C01770474FF00000704797
:105A5000F0B44FF0004591EA030F44BF6B4000F0F3
:105A600025BB00BF841A71EB030604D26E40001BF5
:105A7000B141121973414FF4001C1CEB410F34BFAC
:105A80007CEB430684E00C0DA4EB1356362E7DDC34
:105A9000012E43DC45EAC32343EA525312BFD2022C
:105AA00092025B08240545EAC12141EA5051D2EB3C
:105AB000C020994125D407D1B0FA80F610FA06F13A
:105AC00064D00020203608E0B1FA81F6B140C6F17A
:105AD000200220FA02F21143B0404FEAF474B4EB12
