:020000040801F1
:10000000004100209D010108455D01084953010898
:10001000CD57010871120108657701080000000042
:10002000000000000000000000000000236901083B
:100030000D2401080000000055600108856E0108CC
:10004000B7010108B7010108B7010108B7010108AC
:10005000B701010889600108B7010108B70101086B
:10006000B7010108B7010108B7010108B70101088C
:10007000B7010108B7010108B7010108B70101087C
:10008000B7010108B7010108B7010108B70101086C
:10009000B7010108B7010108B701010803260108EB
:1000A000B7010108B7010108B7010108B70101084C
:1000B000B7010108B7010108B7010108B70101083C
:1000C000B7010108B7010108B7010108B70101082C
:1000D000B70101085D750108B701010869750108DC
:1000E000ED250108B7010108B7010108B7010108B2
:1000F000B7010108B7010108B7010108B7010108FC
:10010000B7010108B7010108B7010108B7010108EB
:10011000B7010108B70101088D6F0108B701010897
:10012000B7010108B7010108B7010108B7010108CB
:10013000B7010108B7010108B7010108B7010108BB
:10014000B7010108B7010108B7010108B7010108AB
:10015000B7010108B7010108B7010108B70101089B
:10016000B7010108B7010108B7010108B70101088B
:10017000B7010108B7010108B7010108000000003C
:10018000B7010108B7010108DFF80CD000F07CFCD2
:1001900000480047B1900108004100200648804710
:1001A00006480047FEE7FEE7FEE7FEE7FEE7FEE75C
:1001B000FEE7FEE7FEE7FEE7316F0108890101086F
:1001C000A0F14101192900D820307047D2B201E0D6
:1001D00000F8012B491EFBD270470022F6E710B54C
:1001E00013460A4604461946FFF7F0FF204610BDA5
:1001F000421C10F8011B0029FBD1801A704710B572
:10020000002200E0521C835C8C5CA34201D1002BD5
:10021000F8D1D8B2E1B2401A10BD034611F8012B53
:1002200000F8012B002AF9D11846704770B50F4D20
:1002300000B92868002412E00A4602E09E4203D07A
:10024000521C1378002BF9D1DAB2224305D02BB11E
:1002500024B1002100F8011B04E00446401C06788C
:10026000002EE9D12860204670BD0000F400002077
:1002700070B5064607F0CAFA046805460A2200214E
:10028000304600F0F5FA2C6070BD2DE9FE4F804637
:1002900081EA0300C00F0C46009021F0004123F0DA
:1002A0000045B8EB0200A94105D2404621469046E0
:1002B0001C460B46024623F00040104347D0270D52
:1002C000C7F30A00C3F30A510290401A0190402874
:1002D0006BDAC3F3130040F4801B0098924620B100
:1002E0000023D2EB030A63EB0B0B01985946C0F1D4
:1002F0004002504600F03DFA06460D46504659462B
:10030000019A00F055FA10EB08006141002487EAD9
:10031000115284EAE7731A4340D0009A62B3019AFB
:10032000012A4FEA075215DC001B61EB02014FF076
:10033000004202EA0752CDE90042001C41F580115B
:1003400032462B4600F012FB03B0BDE8F08F40466A
:100350002146F9E7001B61EB0201001C41F5801307
:1003600000185B412018A2F5001747EB030140EA93
:10037000D570B6196D4111E06D084FEA360645EAB1
:10038000C0754FEA0752001B61EB0201001C41F5EA
:10039000801149084FEA30000019514132462B467E
:1003A00003B0BDE8F04F00F0D2BA0098012240003F
:1003B0000023D0EB020263EBE073009821464FEA82
:1003C000E074B8EB000061EB0401E9E783F000435F
:1003D0005BE781F0004158E72DE9FE4F81EA030415
:1003E00004F0004421F0004100944FF0000B23F092
:1003F000004350EA01045ED052EA03045BD0C3F329
:100400000A54C1F30A552C44A4F2F3340194A0FB1E
:100410000254C1F3130141F48011C3F3130343F4F5
:10042000801301FB024400FB034E840A970A44EA4E
:10043000815447EA8357A4FB076802958D0A05FBA0
:1004400007854FEA932C04FB0C542705029D4FEAC5
:10045000065847EA1637B5EB08056EEB070C870E12
:10046000920E47EA811742EA8312A7FB0201B6EB1C
:100470000B0164EB00042B0D43EA0C335E1844EBD4
:100480001C50DA465146E7FB0201C5F313044FEA5C
:100490000B3343EA14534FEA0432019C43EA060348
:1004A000A4F10C040294009CCDE900B400F05EFAC3
:1004B00003B0BDE8F08F00200146F9E72DE9F04DCB
:1004C00081EA030404F0004B21F0004514464FF08C
:1004D000000A23F0004150EA050220D054EA01024C
:1004E0001DD0C5F30A570246C5F31303C1F3130029
:1004F000C1F30A5640F4801543F48013A7EB0608B5
:10050000101BD64608F2FD3873EB050002D308F144
:10051000010801E092185B41B8F1000F03DA0020F6
:100520000146BDE8F08D00204FF480110646844658
:100530000EE0171B73EB050705D3121B63EB0503D6
:1005400006434CEA010C49084FEA300092185B411F
:1005500050EA0107EDD152EA030012D082EA04000A
:1005600083EA0501084305D0101BAB4106D20122E6
:10057000002306E000224FF0004302E06FF001028A
:1005800053101AEB06004CEB085110EB0A0041EB3C
:100590000B01BDE8F04D00F0DAB90EB540F2334181
:1005A00002910021CDE900110A460B4600F0DEF968
:1005B00003B000BD70B5C1F30A5201F0004500243C
:1005C000C1F3130140F2FF3341F480119A4201DA82
:1005D000002070BD40F233439A42A2F2334203DC62
:1005E000524200F0D5F800E090402C43F1D0404258
:1005F00070BDC1F30A5210B5C1F3130140F2FF33CD
:1006000041F480119A4201DA002010BD40F23343D8
:100610009A42A2F2334203DC524200F0B9F810BD14
:10062000904010BD00F0004230F000400AD0C10DF3
:1006300001F56071C0F3160042EA0151C20840079B
:1006400011437047002001467047000030B5041E7A
:1006500071F1000404DB4FF00044404264EB0101FF
:10066000141E73F1000405DB1C464FF00043524298
:1006700063EB04038B4208BF824230BD30B5041ED9
:1006800071F1000404DB4FF00044404264EB0101CF
:10069000141E73F1000405DB1C464FF00043524268
:1006A00063EB0403994208BF904230BD01F0004360
:1006B00030B421F0004150EA010206D00A0DA2F543
:1006C0006072C1F31301002A02DC30BC00207047C5
:1006D000440F44EAC104C100E01830BC00EBC25032
:1006E00000F0FEB830B50B46014600202022012460
:1006F00009E021FA02F59D4205D303FA02F5491BF0
:1007000004FA02F52844151EA2F10102F1DC30BD05
:100710002DE9F05F0546002092469B468846064636
:10072000814640241BE0284641464746224600F0C9
:100730002FF853465A46C01A914110D31146184615
:10074000224600F016F82D1A67EB01084F462246A4
:100750000120002100F00DF817EB00094E41201E8A
:10076000A4F10104DFDC484631462A464346BDE891
:10077000F09F202A04DB203A00FA02F100207047A3
:100780009140C2F1200320FA03F3194390407047CF
:10079000202A04DB203A21FA02F00021704721FAD6
:1007A00002F3D040C2F1200291400843194670473D
:1007B000202A06DBCB17203A41FA02F043EAE07325
:1007C00006E041FA02F3D040C2F120029140084312
:1007D000194670470FB4002300B589B00CA90091E9
:1007E0000B996FF00042CB601E4B06931E4B079394
:1007F0000423CDE901321D4A089202466B460020CF
:1008000000F0F6F909B05DF814FB70B586B0064645
:100810004FF0FF300091CDE90101002015460C4654
:1008200004903246694604A8FFF7D4FF02460498B4
:10083000211825B108B1084600E020462860049838
:1008400000280DD0002A02DD0098884208D0081B3D
:100850000094CDE901043246694604A8FFF7BAFFC7
:1008600006B070BD290E0108470E0108B50A01083F
:100870002DE9F04791460F4680460446002614F8BD
:10088000015B2DB100F012F90068405DC007F6D1A0
:100890002B2D02D02D2D18D0641E4A4639462046F5
:1008A00000F0E2FA27B13968A14201D1C7F800800F
:1008B00071054FF002040BD54042002803DD06F01D
:1008C000A5FF0460A007BDE8F08746F48066E4E772
:1008D0000028F8DA06F09AFF04606FF00040F2E7B3
:1008E0000029A8BF7047401C490008BF20F0010044
:1008F000704710B4B0FA80FC00FA0CF050EA010422
:1009000004BF10BC704749B1CCF1200421FA04F4B3
:1009100011FA0CF118BF012121430843A3EB0C018C
:10092000CB1D4FEA00614FEA102042BF002010BCEF
:10093000704700EBC35010440029A4BF10BC70479F
:10094000401C490008BF20F0010010BC704710B5E2
:10095000141E73F1000408DA401C41F100019218E2
:100960005B411A4301D120F0010010BD2DE9F04D8B
:1009700092469B4611B1B1FA81F202E0B0FA80F2E0
:1009800020329046FFF7F5FE04460F4640EA0A0083
:1009900041EA0B0153465A46084313D0114653EA25
:1009A000010019D0C8F140025046FFF7F1FE05469C
:1009B0000E46504659464246FFF7DBFE084305D037
:1009C000012004E020463946BDE8F08D00200543B3
:1009D00046EAE0762C4337430A986305E40AA0EB25
:1009E00008000022FD0A44EA47540A3002D50020DC
:1009F0000146E9E7010510196941DDE908450019DB
:100A00006941BDE8F04DA2E770B521F00043034312
:100A10000CD0C1F30A550024D5EB040564EB0403A4
:100A2000D617AD1AB34102DB0020014670BD201875
:100A300041EB025170BD0EB5C10F80EAE070084471
:100A4000CA07002140F233438DE80E000A460B46E8
:100A5000FFF78CFF03B000BDC1F30A52C1F31301CD
:100A600040F2FF3341F480119A4202DA002001463D
:100A7000704740F233439A42A2F2334202DC5242C0
:100A8000FFF786BEFFF775BE064C074D06E0E0682F
:100A900040F0010394E8070098471034AC42F6D3C5
:100AA000FFF776FBCC9A0108EC9A010800487047E2
:100AB000849A010810B50446FFF7F8FF0068005D4E
:100AC00000F0010010BD00002DE9FF4F087883B051
:100AD0009946FF2805D0491C2D2804D00024002069
:100AE00008E000200BE00124F9E700EB800003EBB5
:100AF0004000491C0B78FF2BF7D104B14042002382
:100B00000293147819461D462D2C01D02B2C04D1AC
:100B1000521C2D2C13D000240294AA461478FF2CCA
:100B20000FD00A25A3FB057801FB05814FF0000CCF
:100B300003FB0C11521CE3194AEB0101EEE70124FF
:100B4000EAE7814453EA010002D019F5C87F06DACA
:100B500003980021C0E9001107B0BDE8F08F00251F
:100B6000AE4E2F46DFF8B882184600F02BFACDE9DA
:100B70000001B9F1000002DAC9F1000400E0044606
:100B80000023A74A1AEB030B42EB045A12E0E007DA
:100B900007D02A46334638464146FFF71DFC074634
:100BA00088462A46334610461946FFF715FC054687
:100BB0000E466410002CEAD1DDE90001B9F1000F06
:100BC0005A46534606DAFFF779FC3A464346FFF7A2
:100BD00075FC05E0FFF700FC3A464346FFF7FCFBD7
:100BE000029A0AB181F00041039AC2E90001B3E719
:100BF0002DE9FF4F1F468DB0D7E901464FF0FF3872
:100C00002E2045464FF000090B90B9696D1C0E98D7
:100C10008847396A824688470028F6D1BAF1FF3FF3
:100C20000AD024F4D064002E11DDBAF12B0F08D0C5
:100C3000BAF12D0F0BD102E0404611B08DE744F41C
:100C40008064B9696D1C0E9888478246761E694695
:100C5000600501D52D2000E02B208DF8000001F16A
:100C6000010B0DF1200809E0B9696D1C0E98884749
:100C700082460F9844F40074761E0560002E02DD53
:100C8000BAF1300FF0D00B998A453ED144F0800480
:100C900006E00F99681CA9F1010944F4007408608A
:100CA000B9696D1C761E0E98884782463028F0D0B0
:100CB0002BE00B998A4505D1200603D444F080042B
:100CC000761E18E0504607F0B9FD08B30DF1130188
:100CD000761E44F400748B4508D2AAF130000BF85C
:100CE000010B200607D5A9F1010003E0200602D47C
:100CF00009F101008146A00502D50F99681C086022
:100D0000B9696D1C0E9888478246002ED1DC53E0ED
:100D1000002E51DDBAF1650F02D0BAF1450F4BD16B
:100D2000A00549D5B9696D1C24F44074761E0E984F
:100D300088478246002E0CDD2B2804D0BAF12D0FF7
:100D400007D144F48074B9696D1C0E9888478246B7
:100D5000761EE00501D52D2100E02B2108F8011BAE
:100D6000CDF82C8021E00DF12901761E44F40074A9
:100D700088450CD2AAF1300010F0FF0088F800007E
:100D800002D10B99884509D908F1010806E0E00570
:100D900001D5244801E042F20F708146B9696D1C0B
:100DA0000E98884782460F980560002E04DD504655
:100DB00007F044FD0028D6D1F9690E988847FF2036
:100DC0008BF8000088F800000020069007904B4642
:100DD0006A4608A906A8FFF777FEA00502D46FF0BF
:100DE00001002AE714F0240F0AD0E00714D1DDE94E
:100DF00006123868031D3B600068C0E900120BE072
:100E0000DDE90601FFF752FC0146E00704D138682E
:100E1000021D3A600068016028460EE70000144099
:100E20000000F03FF1D8FFFF426842B1016811F8BD
:100E3000013B23B1521EC0E9001218467047012140
:100E4000C160881E704742685AB1C368016843B9DF
:100E500083688B4205D0491E521CC0E90012002055
:100E600070474FF0FF3070472DE9F05F8246007801
:100E7000002715468B460AF10104B946302801D0F7
:100E80009DB113E014F8010B0127782803D05828EE
:100E900001D045B10AE00DB1102D07D10027102572
:100EA00014F8010B02E0082500E00A250026B046F0
:100EB0000EE005FB080005FB06F1012701EB1046DB
:100EC0001FFA80F8B6F5803F00D3B94614F8010B3D
:100ED000294600F069F80028EBDABBF1000F05D0D5
:100EE0000FB1641E00E05446CBF80040B9F1000F8A
:100EF00006D006F08BFC02210160C81EBDE8F09F01
:100F000048EA0640FAE72DE9F04D00231A461B1A7D
:100F10008A4103DB00200146BDE8F08DC1F30A528F
:100F2000C1F3130141F480154FF0000BD10702D13A
:100F300000186D41521E0027044640F2FF1138464A
:100F400001EB620A3E468046024600204FF48011C3
:100F5000FFF71EFCC2197141BB1846EB0100B4EB50
:100F6000030C75EB000C04D3E41A65EB000517467F
:100F70000E46241908F101006D4180463428E3DD56
:100F8000F91946EB0600091BA84103D24FF0FF32C6
:100F9000134601E0002213461BEB070046EB0A5103
:100FA000BDE8F04DFFF7D3BC3A2800D2303820F02E
:100FB0002002412A01D3A2F13700884201D34FF029
:100FC000FF3070470EB540F2334202920022CDE965
:100FD00000221346FFF7CAFC03B000BD10B508A0FD
:100FE00006F0D8FB0D480088642807D200F01AFCF0
:100FF00004F0F8FE0A494FF49670088010BD000016
:10100000416C61726D3AB3F6CFD6D2ECB3A32CB774
:10101000A2B3F6B8E6BEAF0A00000000460000200A
:101020006400002010B582B00A48094901605321CC
:1010300041600024846042F20F71C16003F07FFCC4
:10104000009401946946034803F046FC02B010BDC9
:10105000001000404C10002010B516A006F09AFBBE
:10106000002000F0FDF9012000F0FAF9022000F064
:10107000F7F9032000F0F4F9042000F0F1F905205D
:1010800000F0EEF9062000F0EBF9072000F0E8F997
:101090000F49002008700F4908700F4908700F4968
:1010A0000870BDE810404FF47A7301220CA10D487E
:1010B00004F0DAB84261636B7570735F4461746108
:1010C000A3BAC7E5BFD5C5E4D6C3D0C5CFA20A0031
:1010D0004F00002050000020E800002044000020C5
:1010E0005B0000008C0F00202DE9F0412DED088BF6
:1010F000017844788578C678B7EE009AB0EE49AAB0
:101100009FED498B802901D3BFEE00AA0BD308467F
:10111000FFF743FA53EC182BFFF758F9FFF7C6FA1D
:1011200000EE100A03E000EE101AB8EE400AF0EEEE
:10113000000A20EE200A802C0DD310EE100AFFF7D3
:1011400071FA9FED3B1B53EC112BFFF79EF8FFF755
:10115000ADFA00EE100A10EE100AFFF763FA9FEDE9
:10116000361B53EC112BFFF731F9FFF79FFA0746B7
:10117000802C09D32046FFF710FA53EC182BFFF709
:1011800025F9FFF736FAC4B22046FFF706FA9FEDBD
:101190002CBB53EC1B2BFFF71FF941EC180B284617
:1011A000FFF7FBF953EC182BFFF76FF853EC1B2BF1
:1011B000FFF712F941EC180B3046FFF7EEF953EC4C
:1011C000182BFFF762F8FFF771FA00EE100ADFED57
:1011D0001E0A20EE200A30EE090A10EE100AFFF770
:1011E00021FA41EC180B3846FFF71CFA41EC110BC1
:1011F0009FED170B06F038FBB0EE409AF0EE609AC8
:101200001AEE100AFFF70EFA53EC192BFFF7E4F869
:1012100053EC182BFFF7E0F8FFF748FA00EE100A3E
:10122000BDEC088BBDE8F0810000000000006040CC
:10123000000000000000F03F0000000000C05F4020
:1012400000000000000070400000003400000000BA
:10125000000000000000004001780A0641780904FF
:1012600083781B02C078194410440844704700007A
:1012700002A006F08FFA05F08FF9FEE7427573467B
:1012800061756C745F48616E646C657220D2ECB3FA
:10129000A3A3ACB5BCD6C2D6D8C6F40A00000000E1
:1012A000F0B582B004464FF6FF77019748F2050685
:1012B000002000904D1E1FD314F8010B00906946CA
:1012C000684604F04EF9BDF804009DF8001080EA6D
:1012D000012001900021BDF8042012F4004F03D03A
:1012E00086EA4200019002E007EA42000190491CB0
:1012F0000829F0DB6D1EDFD201A901A804F01AF95C
:10130000BDF8040002B0F0BD2DE9F043A1B00546E0
:101310000024002700260796089609960A960B9641
:10132000002202A9464802F069FF9DF809309DF8A5
:10133000082044A107A806F03DFAC5EB051000EB14
:101340004511434800EBC10505F59A7007A9FEF762
:1013500064FF002201A93A4802F02CFF05F5A471B0
:1013600007A8FEF75AFF3BA107A8FEF75FFF0DF1A4
:10137000300870B104EB840208EB8202014610468B
:10138000FEF74BFF33A10020FEF750FF641C00283E
:10139000F0D1002405F59A7107A8FEF73EFF2DA1B4
:1013A00007A8FEF743FF0DF1580970B104EB840262
:1013B00009EB820201461046FEF72FFF25A100200F
:1013C000FEF734FF641C0028F0D109F11400FEF789
:1013D0004FFF044608F11400FEF74AFF04443C2C7A
:1013E00011DB1D4920463246C1FB04204211A2EB0D
:1013F000E0772046C1FB04604111A1EBE070A0EB57
:10140000001004EB800416A8FEF732FF06460CA875
:10141000FEF72EFF30443844104981FB00218A102A
:10142000A2EBE171A1EB810100EBC10205F59A701D
:10143000234604A106F0BEF921B0BDE8F083000008
:10144000E0100020253032643A253032640000007C
:10145000080100203A00000089888888ABAAAA2ADF
:101460002DE9F0472DED028B00269FED378B0528E7
:1014700024D0062800DB401E354B00EBC00103EBF7
:10148000C10282ED068B82ED048B43F83160166356
:1014900082ED088B82ED0A8B56649FED2E0A82ED59
:1014A0000D0A96630621D16382F840600146BDECC7
:1014B000028B29A0BDE8F04706F06CB900252F4F3C
:1014C0004FF0FF384FF47A79C5EB051000EB45106B
:1014D00007EBC0041E212046FEF77FFEA67726629A
:1014E000C4F8288066622664C4F8589104F5A47094
:1014F0000A21FEF772FEC4F85C6104F1BC00782199
:10150000FEF76BFEC4F83E61C4F84261A4F8466180
:1015100004F144007821FEF760FE04F144000A2142
:10152000FEF75BFEC4F8606184ED5A8B84ED5C8B42
:10153000C4F854616D1C052DC6DBBDEC028B10A0F8
:10154000BDE8F04706F026B90000000000000000EA
:101550007809002000000000436C65616E5F446103
:101560007461A3BA256420B4ABB8D0C6F7D0C5CF98
:10157000A2C7E5B3FDCDEAB1CF0A00000801002003
:10158000436C65616E5F44617461A3BABCCCB5E71E
:10159000C6F7D0C5CFA2C7E5B3FDCDEAB1CF0A00EB
:1015A00010B505A006F0F6F8002005F0FBF8BDE840
:1015B00010400AA006F0EEB8436C6561725F464CBD
:1015C0004153485F446174613ABFAACABCC7E5B3DE
:1015D000FD666C617368CAFDBEDD0A00436C65611F
:1015E000725F464C4153485F446174613AC7E5B34A
:1015F000FD666C617368CAFDBEDDCDEAB3C90A0041
:10160000002006490A880021002A04DD044B1954F1
:10161000401C9042FBDB0348018070474A000020D9
:10162000700B00204800002010B50821044804F089
:101630006BFD052007F0A6FC02490020088010BDC4
:101640007E000020480000202DE9F0478EB0814642
:10165000002401940294039404940594069407943E
:10166000089409940A940B940C940D940126A9F102
:10167000300A0025A9F13108B8F1050F1DD2DFE8C5
:1016800008F003080D12170008212A4804F03CFD59
:1016900018E00821284804F037FD13E00821274806
:1016A00004F032FD0EE00821254804F02DFD09E08C
:1016B0000821244804F028FD04E00026494622A021
:1016C00006F068F8002E27D0052007F05BFC04F038
:1016D000DDFCC7B2FFF794FF0FB3AAF10100C0EB26
:1016E000001101EB401123484B4600EBC1021546A7
:1016F00021A101A8009406F05DF801A8FEF778FD8D
:1017000082B24FF47A7301A91E4803F0ADFD2C623A
:1017100049461DA006F03EF80EB0BDE8F0876D1CEE
:10172000032DA9DB494620A006F034F80EB0BDE831
:10173000F08700009E000020AE000020BE000020C8
:10174000CE000020DE000020436C6F73655F4465AF
:101750006C61793AB9D8B1D5BCCCB5E7C6F7CAA7A0
:10176000B0DCA3ACB6CBBFDAB4EDCEF33A25630A56
:1017700000000000080100202A25732C25632C2579
:10178000640000008C0F0020436C6F73655F44653C
:101790006C61793AB9D8B1D52563B6CBBFDABCCC88
:1017A000B5E7C6F70A000000436C6F73655F4465D8
:1017B0006C61793AB9D8B1D52563B6CBBFDABCCC68
:1017C000B5E7C6F7CAA7B0DC0A00000010B5A0F163
:1017D00031021146052911D2C2EB021101EB42126E
:1017E000074901EBC204D4F86011012906D1014672
:1017F00004A005F0CFFF0020C4F8600110BD000078
:1018000008010020436C6F73655F4572726F3A2563
:1018100063BAC5BCCCB5E7C6F7D5FDB3A3B9A4D7A9
:10182000F70A000010B50821044804F06DFC0520FB
:1018300007F0A8FB02490020088010BD6E000020C0
:101840004800002010B50821034804F05DFC03495E
:101850000020088010BD00008E00002048000020FD
:1018600070B51AA005F096FF1FA12048FEF7DEFC18
:1018700004461DA10020FEF7D9FC05462A46214654
:101880001BA005F087FF2178A1F13100052802D3C4
:1018900020A005F07FFF28A12846FEF7B0FC50B13C
:1018A00026A12846FEF7ABFC50B12946BDE87040A2
:1018B00023A005F06FBF2078BDE87040FFF7C4BEDD
:1018C0002078BDE8704004F09DBA0000436F6D6D54
:1018D000616E645F44617461A3BABFAACABCD6B426
:1018E000D0D0C3FCC1EE0A002C000000A20B0020E7
:1018F000436F6D6D616E645F44617461A3BAB6CB72
:10190000BFDAA3BA257320C3FCC1EEA3BA25730ABC
:1019100000000000436F6D6D616E645F446174612F
:10192000A3BAC3FCC1EEB6CBBFDA2563B4EDCEF3E8
:101930002121210A000000003000000031000000D9
:10194000436F6D6D616E645F44617461A3BAC3FCE3
:10195000C1EEB4EDCEF32CB4EDCEF3B2CECAFD257C
:10196000732121210A0000002DE9F0470025224FB4
:10197000DFF88880DFF88890C5EB051000EB451094
:1019800007EBC004266CFEB1D4F86001E0B91DA0DD
:10199000D4F8581105F0FEFE072E28D2DFE806F035
:1019A0002704080C15271E00284600F03DFA1EE00B
:1019B000284600F0DDF91AE0D4F85801B0F57A7F36
:1019C00015D1284600F04AFC11E0D4F85801B0F5D2
:1019D0007A7F0CD1284600F083FA08E098F80000DE
:1019E00010B199F8000010B9284600F015F86D1CE8
:1019F000052DC1DBBDE8F08708010020E8000020CC
:101A00005E000020B5B1C7B0BCC6CAFDD6B53A2548
:101A1000640A0000000000002DE9F14F2DED088B55
:101A200098B00026B146CDF82C90CDF83090CDF886
:101A30003490CDF83890CDF83C90CDF84090CDF86A
:101A40004490CDF84890CDF84C90CDF85090CDF81A
:101A50005490CDF85890CDF85C909FED7F9BDFF8C7
:101A600000B2209880499BF80020C0EB0013DFF8FB
:101A7000F48103EB401001EBC004002A40F0C18068
:101A80007AA0209905F086FE676A4FF0010A002FC0
:101A900040F3B5809FED82AB9FED83BB04EB8600E6
:101AA000806A00EBC00008EBC005A868FEF7BAFD2D
:101AB00095ED040B53EC102BFEF7C8FD7BD2206A8A
:101AC000002878D1A868FEF7ADFD95ED041B53EC16
:101AD000112BFEF77EFC41EC100B94ED5A1B53ECDE
:101AE000102B51EC110BFEF777FC41EC180B94ED29
:101AF0005C0B53EC192B51EC100BFEF7A7FD07D232
:101B00006BA005F047FE18B0BDEC088BBDE8F88F60
:101B100094ED5C0B53EC1A2B51EC100BFEF75CFCB4
:101B200041EC100B51EC180B53EC102BFEF7C6FCDC
:101B300041EC100B53EC1B2B51EC100BFEF74CFC43
:101B400041EC180BB0EE490AF0EE690A53EC102B89
:101B500051EC180BFEF77AFD03D860A005F01AFED1
:101B6000D1E751EC180BFEF725FD41F270714843A7
:101B7000C4F85801C4F85C01684880F800A0A8685F
:101B8000FEF750FD8DED028B41EC100B95ED041B23
:101B900053EC102B8DED001B614805F0FBFD00227E
:101BA00006A9604802F02AFB9DF819309DF818201C
:101BB0005DA10BA800E00EE005F0FCFD04F59A70B5
:101BC0000BA9FEF72AFB002205A9564802F0F2FAFB
:101BD0005848C0F80090A868FEF724FD95ED061B54
:101BE00053EC112BFEF74AFD05D2206A012802D1E1
:101BF000A07FFFF729FD761CBE42FFF64FAF8BF8A2
:101C000000A04D48007800287FF47DAF4BA02099BC
:101C100005F0C0FD676A0025002F7FF774AF04EB65
:101C20008500806A00EBC00008EBC006B068FEF7D4
:101C3000F9FC96ED061B53EC112BFEF71FFD05D2A8
:101C4000206A012802D1A07FFFF7FEFC6D1CBD4277
:101C5000E5DB58E700000000000000000000000085
:101C6000E80000207809002008010020436F6E740E
:101C7000726F6C5F696E6465785F74696D653ABC9C
:101C8000CCB5E7C6F7BFD8D6C6B6CBBFDA25642C2D
:101C9000BFAACABCBFD8D6C60A0000000000000018
:101CA00000000000000059400000000000004E400D
:101CB000436F6E74726F6C5F696E6465785F746990
:101CC0006D653AC3BFD0A1CAB1BCD3D2A9C1BFB35D
:101CD000F6CFD6CECACCE20A00000000436F6E7485
:101CE000726F6C5F696E6465785F74696D653AB236
:101CF000C9BCAFCAFDBEDDD0A1D3DAD6B8B1EA2CDB
:101D0000B5ABCAC7C9E8B6A8BCD3D2A9C1BFB9FD93
:101D1000D0A1B5BCD6C2CECACCE20A004F0000208A
:101D2000889A0108E0100020253032643A253032CC
:101D300064000000600000205E000020436F6E74AD
:101D4000726F6C5F696E6465785F74696D653ABCCB
:101D5000CCB5E7C6F7CAB5CAB1BFD8D6C6B6CBBFF1
:101D6000DA25642CBFAACABCBFD8D6C60A000000B8
:101D70002DE9F04104460025611C1DA005F00AFD77
:101D8000C4EB041000EB4411254800EBC104676A62
:101D9000002F2ADDDFF88C8004EB8500806A00EBE1
:101DA000C00008EBC006B068FEF73CFC96ED041BD3
:101DB00053EC112BFEF74AFC05D2206A012802D110
:101DC000A07FFFF741FCB068FEF72CFC96ED061BE8
:101DD00053EC112BFEF752FC04D2206A10B9A07FFD
:101DE00004F010F86D1CBD42D6DBBDE8F0810000A8
:101DF000436F6E74726F6C5F6D61785F66726F6D4A
:101E00005F6D696E3ABCCCB5E7C6F7BFD8D6C6B62B
:101E1000CBBFDA25642CBFAACABCBFD8D6C60A007D
:101E200008010020780900202DE9F0410446002532
:101E3000611C1DA005F0AEFCC4EB041000EB4411C6
:101E4000254800EBC104676A002F2ADDDFF88C808B
:101E500004EB8500806A00EBC00008EBC006B068A8
:101E6000FEF7E0FB96ED041B53EC112BFEF7EEFBA7
:101E700004D2206A10B9A07F03F0C4FFB068FEF757
:101E8000D1FB96ED061B53EC112BFEF7F7FB05D2A9
:101E9000206A012802D1A07FFFF7D6FB6D1CBD424E
:101EA000D6DBBDE8F0810000436F6E74726F6C5F2B
:101EB0006D696E5F66726F6D5F6D61783ABCCCB5AF
:101EC000E7C6F7BFD8D6C6B6CBBFDA25642CBFAA03
:101ED000CABCBFD8D6C60A00080100207809002075
:101EE0002DE9F04FAFB0804600252295239524952B
:101EF000259526952795289529952A952B952C95F6
:101F00002D952E95159516951795189519951A9541
:101F10001B951C951D951E951F952095219508953F
:101F200009950A950B950C950D950E950F951095A5
:101F300011951295139514950026AA46002202A920
:101F4000824802F05BF9002201A9804802F032F9D0
:101F50009DF808909DF80970C8EB081000EB481137
:101F60007B48009700EBC1044B4608F1010179A0C2
:101F7000D4F8542105F00EFC864DD4F8540100EB42
:101F8000800004EB400090F846103A2903D000206E
:101F9000C4F8540142E000F1440122A8FEF73DF9E3
:101FA00000208DF88A0022A8FEF762F983460DF121
:101FB0008B00FEF75DF90790D4F854115A4676A0CD
:101FC000079B05F0E7FBD94528DB10DDD4F8540169
:101FD00000F1010085FB00214FEA6102A2EBE171F3
:101FE000A1EB810100EB8100C4F85401C5E707981B
:101FF000874213DB10DDD4F8540100F1010085FBAA
:1020000000214FEA6102A2EBE171A1EB810100EB3B
:102010008100C4F85401B0E74FF0010ABAF1000F93
:1020200062D0D4F8540100EB800004EB400000F1D2
:10203000440122A8FEF7F1F89DF88C00392860D001
:10204000401C8DF88C0004F59A7022A9FEF7E5F883
:10205000D4F8540100EB800004EB400000F1BC0117
:1020600004F59F70FEF7D9F808F101015AA005F0B8
:1020700091FB04F59F7204F59A7162A005F08AFB4A
:1020800004F59A7122A8FEF7C8F804F59F7115A807
:10209000FEF7C3F867A115A8FEF7C8F808AD70B140
:1020A00006EB860205EB420201461046FEF7B5F844
:1020B00060A10020FEF7BAF8761C0028F0D14EB3DC
:1020C00008A8FEF7D5F8C0EB0010860005F10A005D
:1020D000FEF7CEF8304441F270714843C4F858011D
:1020E000B0F57A7F1CD01FE0D4F8540100EB8000DB
:1020F00004EB400000F1440104F59A70FEF78DF8FE
:10210000A6E79DF88B00401C8DF88B0030208DF8E1
:102110008C0098E748A005F03DFB2FB0BDE8F08F9C
:1021200040F2ED30C4F85801D4F85801052803DC1A
:1021300040F6B830C4F85801D4F85801C4F85C012E
:102140004549012008702FB0BDE8F08FE010002055
:1021500008010020B6CBBFDA3A25642C6E6F7743B6
:102160006F6E74726F6C54696D653A25642C6E6F76
:102170007754696D65486F7572733A25642C6E6F7C
:102180007754696D654D696E757465733A25640A97
:1021900000000000ABAAAA2A6E6F77436F6E7472BC
:1021A0006F6C54696D653A25642C636F6E74726F41
:1021B0006C54696D65486F7572733A25642C636F52
:1021C0006E74726F6C54696D654D696E757465736C
:1021D0003A25640A00000000436F6E74726F6C5FF2
:1021E00074656D65723ABCCCB5E7C6F7BFD8D6C684
:1021F000B6CBBFDA25642CBFAACABCBFD8D6C60AE4
:1022000000000000436F6E74726F6C5F74656D65E3
:10221000723AC3BFCCECCCD8B6A8CAB1BCE4BCD32C
:102220002CC3BFCCEC2573BCD32573CAB1BCE40A64
:10223000000000003A000000436F6E74726F6C5F24
:102240007379735F74656D6572A3BACAE4C8EBD223
:10225000ECB3A3210A0000005000002070B5AEB01E
:1022600005460021219122912391249125912691C7
:102270002791289129912A912B912C912D9114919C
:10228000159116911791189119911A911B911C9102
:102290001D911E911F9120910791089109910A911A
:1022A0000B910C910D910E910F9110911191129132
:1022B00013910024691C2FA005F06CFAC5EB0510E2
:1022C00000EB4511364800EBC10505F59F7205F599
:1022D000A47134A005F05EFA05F59F7114A8FDF70E
:1022E0009CFF3DA114A8FDF7A1FF07AE70B104EB60
:1022F000840206EB420201461046FDF78EFF36A12E
:102300000020FDF793FF641C0028F0D16CB307A8F0
:10231000FDF7AEFFC0EB0010840006F10A00FDF7E8
:10232000A7FF204441F270714843C5F85801C5F831
:102330005C012A4901200870002202A9284801F006
:102340005DFF9DF809309DF8082026A121A805F021
:1023500031FA05F59A7021A9FDF75FFF002201A966
:102360001F4801F027FF2EB070BD21A005F012FA22
:102370002EB070BD436F6E74726F6C5F74656D6567
:10238000723ABCCCB5E7C6F7BFD8D6C6B6CBBFDA73
:1023900025642CBFAACABCBFD8D6C60A000000005C
:1023A00008010020436F6E74726F6C5F74656D6519
:1023B000723AB4D3B5B1C7B0CAB1BCE4BFAACABC03
:1023C000B6A8CAB1BCD32CC3BF2573BCD32573CA6E
:1023D000B1BCE40A000000003A0000004F000020F9
:1023E000E0100020253032643A25303264000000CD
:1023F000436F6E74726F6C5F74656D6572A3BACA59
:10240000E4C8EBD2ECB3A3210A000000704700003F
:102410002DE9F0412DED028B002533A005F0BAF92E
:102420009FED398B3A4FDFF8EC8005EBC50007EBE9
:10243000C004E06BC0EB001101EB401008EBC006DC
:10244000306A012845D1A06B022842DB306C02289B
:102450003FDC94ED020AD4ED0D0A30EE600A10EE76
:10246000100AFEF7DFF841EC100B05F0F1F953EC20
:10247000182B51EC100BFEF7E9F803D226A005F05B
:1024800089F921E0306C01280ED194ED020AD4EDD7
:102490000D0A30EE600AB5EEC00AF1EE10FA03D272
:1024A0002BA005F077F90FE0022819D194ED020A6C
:1024B000D4ED0D0A30EE600AB5EEC00AF1EE10FA66
:1024C0000EDD33A005F066F9FEF788FDB07F03F05E
:1024D0005BFD6D1C072DA8DBBDEC028BBDE8F08118
:1024E0003BA005F057F9F4E7446574656374696FC0
:1024F0006EA3BABFAACABCBCECB2E2B4ABB8D0C639
:10250000F7D2ECB3A30A00009A9999999999B93F27
:102510007809002008010020446574656374696FC0
:102520006EA3BABCCCB5E7C6F7D5FDB3A3B9A4D7A3
:10253000F7A3ACB5ABCAC7CAFDBEDDD6B8B1EAC811
:10254000FDB7D6D6D3C3BBD3D0B1E4BBAF0A00002E
:10255000446574656374696F6EA3BABCCCB5E7C695
:10256000F7D5FDB3A3B9A4D7F7D4DABFD8D6C6B789
:10257000BDCABDD2BBA3ACB5ABCAC7CAFDBEDDD612
:10258000B8B1EAB7B4B6F8BCF5C9D90A0000000082
:10259000446574656374696F6EA3BABCCCB5E7C655
:1025A000F7D5FDB3A3B9A4D7F7D4DABFD8D6C6B749
:1025B000BDCABDB6FEA3ACB5ABCAC7CAFDBEDDD6AB
:1025C000B8B1EAB7B4B6F8D4F6BCD30A000000003C
:1025D000446574656374696F6EA3BABCCCB5E7C615
:1025E000F7D5FDB3A3B9A4D7F700000010B54FF499
:1025F000806000F07DFFBDE810404FF4004000F027
:1026000077BF10B54FF4807000F072FFBDE8104046
:102610004FF4007000F06CBF2DE9F04F2DED048BEE
:102620008BB04FF0000BDFED8C8AD94600270024D9
:1026300006940794089409940A94039404940594C6
:10264000A04686A005F0A6F800269FED8C9ADFED47
:102650008C9AB0EE688A8B4806EBC60A00EBCA0576
:102660006C6C002C00F0EE80206DFDF7DBFF41EC80
:10267000100BA16D606D0191009053EC102B711C3B
:1026800081A005F087F8616DA06D4218002A1BDD5E
:1026900008B1142918DD84ED149A22468AA106A8EF
:1026A00005F088F806A8FDF7A3FD82B24FF47A730F
:1026B00006A9864802F0D8FD2246314684A005F0DE
:1026C00069F808F1010831E000282DDD00EE100A5C
:1026D000D4ED140AB8EEC01A80EE810A84ED140A13
:1026E00010EE100AFDF79EFF95ED081B53EC112B21
:1026F000FDF7C4FF09D3206DFDF794FF95ED0A1B8C
:1027000053EC112BFDF7A2FF10D295F8400038B121
:102710002246314676A005F03DF8FEF75FFC05E065
:10272000286B401C286301E0C4ED148A94ED140A60
:10273000B5EEC00AF1EE10FA01DD30EE088A606DE8
:10274000484501DD8146A346074400206065A06539
:10275000D4F89040002C87D14A4C2A6B54F83A00A8
:10276000824201D0022A06DD31466AA005F012F845
:10277000FEF734FC17E0404511D131466FA005F05B
:1027800009F8FEF72BFCE86BC0EB001101EB4011E0
:10279000734800EBC100807F03F0F6FB03E0314695
:1027A00070A004F0F7FF4FF00008002021462863D6
:1027B000734A06EB8600044642F830600A2F09DDB2
:1027C000104600EBC400C0ED099A001D5946FDF704
:1027D00024FD28E051F83A0000EE100AF8EEC00A95
:1027E00088EE200AB0EE408A18EE100AFDF71AFFB4
:1027F00041EC100B63A153EC102B03A804F0DAFF9B
:1028000003A805F009F851EC100BFDF74FFFA86085
:1028100003A805F001F851EC100BFDF747FF5849EC
:1028200001EBC4014862A86B08B985ED0D8A5749D0
:10283000401C81FB0021A1EBE171A1EB8101084467
:10284000A8630027761C072EFFF603AF0BB0BDEC84
:10285000048BBDE8F08F0000000000004765745F46
:1028600041766572616765A3BABFAACABCBCC6CB14
:10287000E3CAFDBEDDBEF9D6B50A00000AD723BC07
:1028800000401CC6780900204765745F4176657278
:102890006167653A20C0E0B1F0A3BA2564202076D4
:1028A000616C7565203D20252E326620B4EDCEF397
:1028B000B4CECAFDA3BA25642CB2C9BCAFB4CECA8B
:1028C000FDA3BA25640A0000212573008C0F0020A7
:1028D0004765745F41766572616765A3BA2564BA1E
:1028E000C5B4ABB8D0C6F72573B4EDCEF30A00007B
:1028F0004765745F41766572616765A3BA2564BAFE
:10290000C5B4ABB8D0C6F72573B7A2B3F6B8E6BE68
:10291000AF0A0000446574656374696F6EA3BA25DD
:1029200064BAC5B4ABB8D0C6F7B7A2B3F6B8E6BEC2
:10293000AF2CB4CECAFD25640A000000446574655E
:102940006374696F6EA3BA2564BAC5B4ABB8D0C658
:10295000F7C8ABB2BFB3F6CFD6D2ECB3A30A000030
:1029600008010020446574656374696F6EA3BA251D
:1029700064BAC5B4ABB8D0C6F7D5FDB3A30A00009E
:102980006008002025302E3266000000565555554F
:102990002DE9F04F2DED0A8BADF50F7D80460D46EC
:1029A0004FF40C7102A8FDF718FC00249FEDFCAB5E
:1029B000FDA12846FDF73AFC0DF1080A48B1FAA13D
:1029C0000020FDF733FC4AF82400611CCCB200283B
:1029D000F5D10A2C0FD2B8F1050F0CD02246414692
:1029E000F2A004F0D7FE4FF0FF300DF50F7DBDECE7
:1029F0000A8BBDE8F08F0024DFF8D4B3B8F1050FDF
:102A00001AD0B8F1060F01DBA8F1010808EBC809DC
:102A10000BEBC905C5F804800298FDF729FC4BF8BB
:102A200039000B28C0F0408102464146E9A004F07D
:102A3000B1FE4FF0FF30D8E70298FDF719FC00F027
:102A4000FF090027B9F1000F40F22C819FEDEE8BBA
:102A500007EB870505F1020A0DF1080B5BF82A0068
:102A60000078A0F13106681C5BF82010C6EB061058
:102A700000EB4612E64800EBC2042046FDF7CDFB12
:102A80005BF82A000078A077313804280ED3C6EB13
:102A9000061000EB4611DE4800EBC1004146827F84
:102AA000DCA004F077FE4FF0FF309EE7681D5BF876
:102AB000200004F0B1FE84ED5C0B53EC1A2B51ECBA
:102AC000100BFDF7C3FD08D394ED5C0B53EC182BF2
:102AD00051EC100BFDF7D2FD11D2C6EB061000EB46
:102AE0004611CB4800EBC100414690ED5C0BD3A0F2
:102AF00053EC102B04F04EFE4FF0FF3075E7E81C4E
:102B00005BF82000FDF7B4FB02462064052800F0C6
:102B1000C480501E072806D34146D3A004F03AFED5
:102B20004FF0FF3061E7042A12D0032A4FD0062A63
:102B300060D02D1D5BF82500FDF75AFBC2B2072AB5
:102B40007DD94146D3A004F025FE4FF0FF304CE77D
:102B50002D1D5BF82500FDF74BFB5BF82500D9A187
:102B6000FDF764FB064601254FF0000A86F805A034
:102B700004F59A703146FDF750FB04F59F70B11DC6
:102B8000FDF74BFB04F144003146FDF746FB04F131
:102B9000BC00B11DFDF741FB002E7CD0C9A1002077
:102BA000FDF744FB064686F805A005EB850004EB1F
:102BB000400B0BF144003146FDF72FFB0BF1BC003D
:102BC000B11DFDF72AFB6D1C002EE7D163E000204C
:102BD0002D1D5BF8251048715BF8251004F5A470D5
:102BE000FDF71BFB5BF82500811D04F59F70FDF7C9
:102BF00014FB50E0281DB4A15BF82000FDF716FB84
:102C000005462846FDF7F4FAC2B2072A06D941461E
:102C1000A0A004F0BFFD4FF0FF30E6E662620020A6
:102C2000002A15DDDFF8A8C1295C04EB80033039E8
:102C30009962062901DB491E9962996A00E010E059
:102C400001EBC1010CEBC101CE63401C9042EBDBF8
:102C50009DA10020FDF7EAFA04F0DEFD84ED5A0B99
:102C600019E062620020002A15DDDFF864C15BF81C
:102C7000255004EB8003295C30399962062901DB79
:102C8000491E9962996A01EBC1010CEBC101CE6347
:102C9000401C9042EDDB00202062781CC7B24F45FB
:102CA000FFF4D6AE0020A0E60021039805F004FC56
:102CB000B0EE408AF0EE608A0021049805F0FCFB3B
:102CC000B0EE409AF0EE609A53EC192B51EC180BD1
:102CD000FDF7D4FC0AD28DED008B53EC192B414645
:102CE0007AA004F057FD4FF0FF307EE685ED048BAF
:102CF00085ED069B0021069805F0DEFBB0EE408ACC
:102D0000F0EE608A0021059805F0D6FBB0EE409AFF
:102D1000F0EE609A53EC192B51EC180BFDF796FC72
:102D20000AD28DED009B53EC182B414677A004F09E
:102D300031FD4FF0FF3058E684A10798FDF75FFAA8
:102D400010B9012085F8400085ED088B85ED0A9BC0
:102D50002C636C649FED7ECA85ED0DCAAC630027C1
:102D60005BF83900002840F3AD819FED7B9B9FED20
:102D70007CBB982006F096FC044607EBC706B01D06
:102D80005AF820102046FDF748FAF01D5AF8201096
:102D900004F11E00FDF741FAE6E00000000000002B
:102DA00000000000000000002C0000004765745F78
:102DB000446174613A256420C5E4D6C3D0C5CFA26E
:102DC000B4EDCEF32CB4EDCEF3C2EB25640A0000D3
:102DD000780900204765745F446174613A25642076
:102DE000C5E4D6C3B4ABB8D0C6F7CAFDC1BFD0C521
:102DF000CFA2B4EDCEF32CB4EDCEF3C2EB25640A32
:102E00000000000000000000000000000088C34037
:102E1000080100204765745F446174613A256420AD
:102E2000C5E4D6C3B6CBBFDAD0C5CFA2B4EDCEF3DE
:102E30002CB4EDCEF3C2EB25640A00004765745F45
:102E4000446174613A256420C5E4D6C3BCD3D2A9D9
:102E5000D0C5CFA2B4EDCEF32CB4EDCEF3C2EB25AA
:102E6000302E32660A0000004765745F4461746169
:102E70003A256420C5E4D6C3BFD8D6C6C4A3CABD0C
:102E8000D0C5CFA2B4EDCEF32CB4EDCEF3C2EB257A
:102E9000640A00004765745F446174613A256420E8
:102EA000C5E4D6C3BFD8D6C6B4ABB8D0C6F7D0C574
:102EB000CFA2B4EDCEF32CB4EDCEF3C2EB25640A71
:102EC000000000002E0000007C0000004765745FD9
:102ED000446174613A256420C5E4D6C3B4ABB8D06C
:102EE000C6F7D6B8B1EAD0C5CFA2B4EDCEF32CD791
:102EF000EEB4F3D6B5CEAA252E32662CD7EED0A1ED
:102F0000D6B5CEAA252E32662C0A00004765745F1E
:102F1000446174613A256420C5E4D6C3B4ABB8D02B
:102F2000C6F7B8E6BEAFD0C5CFA2B4EDCEF32CD76E
:102F3000EEB4F3D6B5CEAA252E32662CD7EED0A1AC
:102F4000D6B5CEAA252E32662C0A0000310000002C
:102F5000000000000000000000000000006AF840CF
:102F600000000000D0126341B8B106F108005AF821
:102F7000201004F15C00FDF750F906F109005AF841
:102F80002000FDF775F90246332A0FD341464FA0C2
:102F900004F000FC4FF0FF3027E504F11E0241462B
:102FA00059A004F0F7FB4FF0FF301EE5A26606F1D2
:102FB0000A005AF82000FDF75BF91F2807D34146A5
:102FC00058A0E26E04F0E6FB4FF0FF300DE5E0663E
:102FD00006F10B005AF82000FDF74AF90A2807D33A
:102FE000414660A0226F04F0D5FB4FF0FF30FCE4B7
:102FF000206706F10C005AF8201004F17400FDF768
:103000000CF906F10D005AF8200004F005FCB0EEB2
:10301000408AF0EE608A53EC1A2B51EC180BFDF746
:1030200015FB06D353EC192B51EC180BFDF726FBBF
:103030000AD294ED200B414653EC102B59A004F01A
:10304000A9FB4FF0FF30D0E484ED208B06F10E0099
:103050005AF8200004F0E0FBB0EE408AF0EE608AFF
:10306000B0EE4A0AF0EE6A0A53EC102B51EC180B42
:10307000FDF7ECFA06D353EC1B2B51EC180BFDF7C4
:10308000FDFA0AD294ED220B414653EC102B51A0CD
:1030900004F080FB4FF0FF30A7E484ED228B00208A
:1030A000606584ED14CAA065C4F89000686C58B1DE
:1030B000C4F890006C64781CC7B25BF83900B84261
:1030C0003FF757AE002090E46C64F4E74765745F07
:1030D000446174613A256420C5E4D6C3C6F0CABC15
:1030E000B5D8D6B7D0C5CFA2B4EDCEF32CB5D8D6CF
:1030F000B7B7B6CEA7CEAA302D35302CB4EDCEF36F
:10310000C2EB25640A0000004765745F4461746186
:103110003A256420C3FCC1EEB4EDCEF3C2EB2573B7
:103120000A0000004765745F446174613A256420B9
:10313000C5E4D6C3CAFDBEDDCEBBCAFDD0C5CFA295
:10314000B4EDCEF32CCAFDBEDDCEBBCAFDB7B6CE04
:10315000A7CEAA302D33302CB4EDCEF3C2EB2564CC
:103160000A0000004765745F446174613A25642079
:10317000C5E4D6C3B1A3B3D6CEBBCAFDD0C5CFA2DA
:10318000B4EDCEF32CB1A3C1F4CEBBCAFDB7B6CE1D
:10319000A7CEAA302D392CB4EDCEF3C2EB25640AAC
:1031A000000000004765745F446174613A25642043
:1031B000C5E4D6C3346D61B6D4D3A6D0C5CFA2B40E
:1031C000EDCEF32CB4EDCEF3C2EB25302E32660AF1
:1031D000000000004765745F446174613A25642013
:1031E000C5E4D6C332306D61B6D4D3A6D0C5CFA264
:1031F000B4EDCEF32CB4EDCEF3C2EB25302E326617
:103200000A00000070B5ADF57E7D06460024FA94F4
:10321000FB94FC944FF47A716846FCF7DEFF0A22B7
:103220000021FAA803F0EAF90A221146FAA803F0ED
:10323000E5F9FAAA002125A004F0ACFAFAA8FDF7F6
:1032400017F8B0F57A7F05DD294981FB0010811060
:10325000A1EBE070451CAAB21421684603F0CEF938
:103260002A46694623A004F095FA6D44284915F8CA
:10327000010C30280FD0312812D00C6025A004F0AA
:1032800089FA15F8020C232810D02FA004F082FA36
:103290000DF57E7D70BD0C6034A004F07BFAF0E784
:1032A000012008603AA004F075FAEAE705F8024C3C
:1032B00069463046FCF7B1FF69463EA004F06AFA61
:1032C00003F0DEFB0DF57E7D70BD00004765745F89
:1032D0004465766963655F446174613AB5D8D6B771
:1032E00020257320200A73697A653A2573200A0025
:1032F000676666664765745F4465766963655F44C3
:103300006174613A25730A73697A653A25640A0023
:10331000540000204765745F4465766963655F44C7
:103320006174613AB6C1C8A1CFB5CDB3D7B4CCAC46
:10333000CAA7B0DCA3ACCFB5CDB3B4A6D3DACDA3C6
:10334000D6B9D7B4CCAC0A004765745F44657669DA
:1033500063655F44617461A3BAB1BEB5D8BBF1C8FF
:10336000A1C5E4D6C3CAA7B0DC0A00004765745FF4
:103370004465766963655F446174613ACFB5CDB3E6
:10338000B5B1C7B0D7B4CCAC73746F700A0000008D
:103390004765745F4465766963655F446174613A4B
:1033A000CFB5CDB3B5B1C7B0D7B4CCAC72756E0ADA
:1033B000000000004765745F4465766963655F449B
:1033C000617461A3BABBF1C8A1C5E4D6C325730A71
:1033D0000000000090F83510022903D080214165DB
:1033E00001207047052180F835100068016821F040
:1033F00001010160002070472DE9F0470446214695
:103400002EA004F0C7F901253148DFF8C880324EFC
:10341000324FB4F5806F1CD04FF00009B4F5004F67
:1034200029D0B4F5007F39D0B4F5807F0FD10022C8
:10343000411500F07BF9386830B1C7F8009088F882
:103440000050274801F0C2FA4FF480703060BDE8A8
:10345000F0870122510200F069F93868012805D08F
:103460003D6088F800501E4801F0A4FA4FF48060D7
:103470003060BDE8F08700224FF4007100F056F98B
:10348000386830B1C7F8009088F80050144801F04F
:103490009DFA4FF400403060BDE8F0871149C878CC
:1034A00038B9114805701148027882F0FE020270A6
:1034B000CD704FF400703060BDE8F087BCECB2E234
:1034C000B5BDCAE4C8EBB5E7C6BD202025780A0023
:1034D000001C024058000020143C01405400002011
:1034E0004C100020000000205A000020590000204D
:1034F00010B504490A68024202D00860FFF77CFF59
:1035000010BD0000143C01402DE9F84F0022DFF807
:103510000082DFF80092DFF800A24FF0030E0F27C1
:10352000012303FA02F50B682B40AB427DD1D1F8A1
:1035300004C0BCF1020F02D0BCF1120F12D14FEA4D
:10354000D20C00EB8C0CDCF820605407E40E07FA78
:1035500004FB26EA0B06D1F810B00BFA04F434434E
:10356000CCF8204006684FEA420C0EFA0CF4A64351
:1035700091F804B00BF0030B0BFA0CFB4BEA0606B8
:1035800006604E68012E05D0022E03D0112E01D008
:10359000122E11D18668A643D1F80CB00BFA0CFBA1
:1035A0004BEA06068660466826EA05050E79C6F3EC
:1035B0000016964035434560C56825EA04048D68C9
:1035C00005FA0CFC4CEA040CC0F80CC0D1F804C09D
:1035D0001CF0805F7DD0D8F800C04CF4804CC8F857
:1035E00000C0D8F800C00CF4804CCDF800C022F028
:1035F000030C0CF1804404F59834D4F808C89507FE
:103600002D0F07FA05F62CEA0606A0F1804CBCF552
:10361000003C64D0A0F1804CBCF5013C62D0A0F12C
:10362000804CBCF5023C60D000E052E0A0F1804C40
:10363000BCF5033C5CD0A0F1804CBCF5043C5AD0F6
:10364000A0F1804CBCF5053C58D0A0F1804CBCF5F5
:10365000063C56D0A0F1804CBCF5073C54D04FF04E
:10366000080C0CFA05FC4CEA060CC4F808C8D9F89A
:1036700000C02CEA030C4C6814F4803F01D04CEAE3
:10368000030CC9F800C0254CD4F800C02CEA030C88
:103690004D6815F4003F01D04CEA030CC4F800C09B
:1036A000DAF800C02CEA030C4C6814F4801F01D037
:1036B0004CEA030CCAF800C0194CD4F800C02CEA3C
:1036C000030C4D6815F4001F01D04CEA030CC4F83C
:1036D00000C0521C102AFFF423AFBDE8F88F4FF052
:1036E000000CBEE74FF0010CBBE74FF0020CB8E74F
:1036F0004FF0030CB5E74FF0040CB2E74FF0050CA8
:10370000AFE74FF0060CACE74FF0070CA9E700005D
:1037100044380240003C0140083C0140043C014068
:103720000C3C01404269514041617047002A01D080
:103730008161704709048161704700000148006899
:1037400070470000EC00002002480168491C01603D
:1037500070470000EC00002010B50B48016841F4F0
:1037600000710160016841F480610160016841F409
:1037700080710160032000F091F8002000F006F84D
:1037800000F018F8002010BD003C024010B50446BF
:1037900007484FF47A720068B0FBF2F001F082F84B
:1037A00000222146501E00F045F8002010BD000008
:1037B000F000002010B5032000F070F80022114640
:1037C0006FF00B0000F036F8002211466FF00A008F
:1037D00000F030F8002211466FF0090000F02AF8DE
:1037E00000221146501F00F025F800221146101F3C
:1037F00000F020F800221146901E00F01BF8002275
:103800001146501E00F016F800221146052000F067
:1038100011F8BDE810400520AFF3008000F01F0153
:10382000012202FA01F14009800000F1E020C0F815
:103830000011704710B4184B1B68C3F30223C3F187
:10384000070CBCF1040F01D94FF0040C1C1D072C10
:1038500001D2002300E0DB1E012404FA0CFCACF1D1
:10386000010C0CEA0101994004FA03F35B1E1A40B3
:103870001143002808DA00F00F0000F1E0200901F0
:1038800080F8141D10BC704700F1E020090180F899
:10389000001410BC704700000CED00E000F00700C1
:1038A000064A11684FF6FF03194041EA002040F034
:1038B000FD7040F080601060704700000CED00E08B
:1038C0000120010291FAA1F1B1FA81F1890001F11F
:1038D000844101F560210860704700002DE9F8433C
:1038E00004464FF0010820784FF0000710F0050F54
:1038F0003FD0DFF85C91C9F86870FFF71FFF0546FD
:10390000544E306810F0006F0BD0FFF717FF401BCC
:10391000022802D90320BDE8F883306810F0006F58
:10392000F3D147F6C07191FAA1F16068B1FA81F163
:1039300088404FF0E04292FAA2F2A168B2FA82F215
:103940009140084344490860C9F86880FFF7F6FED3
:103950000546306810F0006F0BD1FFF7EFFE401BFB
:10396000022802D90320BDE8F883306810F0006F08
:10397000F3D0207810F0020F5CD03848016841F095
:1039800080510160006800F080500090344D28683C
:1039900040F480702860FFF7D1FE0646286810F4D6
:1039A000807F0BD1FFF7CAFE801B022802D90320BB
:1039B000BDE8F883286810F4807FF3D0294D28688B
:1039C00000F4407028B3A18901F44071814220D0F5
:1039D000286820F440702449C1F800800F602860F6
:1039E000286810F0010F14D0FFF7A8FE07462868DA
:1039F00010F0020F0DD141F28836FFF79FFEC01B79
:103A0000B04202D90320BDE8F883286810F0020F05
:103A1000F3D0E0684FF4407131EA000213490CD052
:103A2000086820F4F81008602868A189C1F30B0128
:103A3000084328600020BDE8F8830A6820F440703D
:103A400022F4F81220F0704010430860ECE7000008
:103A500000004742003802408438024040380240AB
:103A60000070004070380240400E47420838024063
:103A70002DE9F05F04460E46DFF8D091D9F800003A
:103A8000F7B200F00F00B0420AD289F80070D9F8FE
:103A9000000000F00F00B04202D00120BDE8F09F0E
:103AA0002078DFF8AC8110F0020F07D0D8F80000C2
:103AB000A16820F0F0000843C8F80000207810F05A
:103AC000010F51D060686349012808D002280DD049
:103AD00003280BD0096811F0020F2ED00AE0096804
:103AE00011F4003F06D10120BDE8F09F096811F0F4
:103AF000007F1FD0D8F8001021F003010843C8F858
:103B00000000FFF71BFE0546606841F2883A012875
:103B100016D0022829D003283CD0D8F8000010F095
:103B20000C0F51D0FFF70AFE401B504547D9032028
:103B3000BDE8F09F0120BDE8F09F0120BDE8F09FA7
:103B4000D8F8000000F00C0004283DD0FFF7F6FD87
:103B5000401B504502D90320BDE8F09FD8F8000073
:103B600000F00C000428F1D12EE0D8F8000000F09D
:103B70000C00082828D0FFF7E1FD401B504502D972
:103B80000320BDE8F09FD8F8000000F00C000828E2
:103B9000F1D119E0D8F800004FF00C0B3BEA00001F
:103BA00012D0FFF7CBFD401B504502D90320BDE8E2
:103BB000F09FD8F800003BEA0000F2D104E0D8F80A
:103BC000000010F00C0FADD1D9F8000000F00F008C
:103BD000B0420AD989F80070D9F8000000F00F004F
:103BE000B04202D00120BDE8F09F207810F0040F11
:103BF00007D0D8F80000E16820F4E0500843C8F886
:103C00000000207810F0080F08D0D8F800002169D3
:103C100020F4604040EAC100C8F8000000F058F805
:103C2000D8F80010F02292FAA2F201F0F001B2FAF4
:103C300082F2D140084A515CC8400849086000201F
:103C4000FFF7A4FD0020BDE8F09F0000003C02400B
:103C5000083802400038024054990108F000002062
:103C600001490120C86470470000474201480068CC
:103C700070470000F000002000B5FFF7F7FF07498C
:103C800009684FF4E05292FAA2F201F4E051B2FA5C
:103C900082F2D140024A515CC84000BD083802405F
:103CA0006499010800B5FFF7E1FF074909684FF47F
:103CB000604292FAA2F201F46041B2FA82F2D1407B
:103CC000024A515CC84000BD0838024064990108AE
:103CD00010B41F48006810F00C011E481BD04FEABA
:103CE000600C042916D0082915D11B4A116801F06F
:103CF0003F01136813F4800F47F6C0730DD0BCFB6F
:103D0000F1F01168194093FAA3F3B3FA83F3D940A1
:103D100048430CE0604610BC7047B0FBF1F01168FE
:103D2000194093FAA3F3B3FA83F3D94048431168D7
:103D30004FF4403292FAA2F201F44031B2FA82F228
:103D4000D140491C4900B0FBF1F010BC70470000A5
:103D5000083802400024F400043802402DE9F84FEE
:103D60000446DFF81C842078A8F1040710F0010F46
:103D7000A7F1040560D0D8F8000000F00C0004287A
:103D800009D0D8F8000000F00C0008280DD13868E0
:103D900010F4800F09D0286810F4003F4CD0606800
:103DA000002849D10120BDE8F88F6068B0F5803F58
:103DB00014D0B0F5A02F16D0286820F480302860E9
:103DC000286820F480202860606810B3FFF7B6FCF4
:103DD0000646286810F4003F0ED02DE0286840F415
:103DE00080302860F0E7286840F480202860286848
:103DF00040F480302860E7E7FFF7A0FC801B6428D0
:103E000002D90320BDE8F88F286810F4003FF3D0F2
:103E100012E0FFF793FC0646286810F4003F0BD031
:103E2000FFF78CFC801B642802D90320BDE8F88FC3
:103E3000286810F4003FF3D12078DFF8489310F0A1
:103E4000020F4FF0000663D0D8F800004FF0F80BD7
:103E500010F00C0F16D0D8F8000000F00C00082865
:103E600003D1386810F4800F0CD0E068C8B301208B
:103E7000C9F80000FFF762FC8246286810F0020FC4
:103E800016D022E0286810F0020F05D0E068012863
:103E900002D00120BDE8F88F28689BFAABF22169B7
:103EA000B2FA82F220F0F8009140084328602FE037
:103EB000FFF744FCA0EB0A00022802D90320BDE86A
:103EC000F88F286810F0020FF2D028689BFAABF246
:103ED0002169B2FA82F220F0F8009140084328608C
:103EE00016E0FFE7C9F80060FFF728FC8246286863
:103EF00010F0020F0CD0FFF721FCA0EB0A00022803
:103F000002D90320BDE8F88F286810F0020FF2D123
:103F1000207810F0080F34D09B48DFF870B2616948
:103F2000C1B101210160FFF709FC8246DBF8000006
:103F300010F0020F25D1FFF701FCA0EB0A000228C8
:103F400002D90320BDE8F88FDBF8000010F0020F63
:103F5000F1D016E00660FFF7F1FB8246DBF80000C7
:103F600010F0020F0DD0FFF7E9FBA0EB0A000228CA
:103F700002D90320BDE8F88FDBF8000010F0020F33
:103F8000F1D1207810F0040F43D08148016841F04E
:103F900080510160006800F080500090DFF8F4B1BB
:103FA000DBF8000040F48070CBF80000FFF7C6FBA0
:103FB0008246DBF8000010F4807F0DD1FFF7BEFBD6
:103FC000A0EB0A00022802D90320BDE8F88FDBF835
:103FD000000010F4807FF1D0A068DFF8BCB10128A8
:103FE00018D005281DD0DBF8000020F00100CBF828
:103FF0000000DBF8000020F00400CBF80000A0680F
:1040000068B3FFF79BFB8246DBF8000010F0020F5D
:1040100014D03CE0DBF8000040F00100CBF80000D9
:10402000EDE7DBF8000040F00400CBF80000DBF81F
:10403000000040F00100CBF80000E0E7FFF77EFB56
:10404000A0EB0A0141F28830814202D90320BDE889
:10405000F88FDBF8000010F0020FEFD017E0FFF749
:104060006DFB8246DBF8000010F0020F0FD0FFF767
:1040700065FBA0EB0A0141F28830814202D903209E
:10408000BDE8F88FDBF8000010F0020FEFD1A06957
:10409000F0B3D8F8001001F00C0108296CD0022808
:1040A00010D0C9F86060FFF749FB0446286810F09B
:1040B000007F5ED0FFF742FB001B022855D903208A
:1040C000BDE8F88FC9F86060FFF738FB064628683E
:1040D00010F0007F0BD0FFF731FB801B022802D9C4
:1040E0000320BDE8F88F286810F0007FF3D1216A23
:1040F000E0694FF0FF3340EA010247F6C07191FAE0
:10410000A1F1606AB1FA81F100FA01F1A06A00E060
:104110002FE003EB50004FF4403393FAA3F3B3FACC
:1041200083F39840084310434FF0706292FAA2F272
:10413000E16AB2FA82F29140084338600120C9F87E
:104140006000FFF7FBFA0446286810F0007F10D1EA
:10415000FFF7F4FA001B022802D90320BDE8F88F0C
:10416000286810F0007FF3D003E0286810F0007F8B
:10417000A0D10020BDE8F88F0120BDE8F88F000035
:104180000838024000004742800E4742743802401F
:1041900040380240007000407038024000685030E3
:1041A00000EB8100006870470068503000EB810030
:1041B0000260704700B50B460068406820F0C001FF
:1041C00021F07F41080CD870C1F3042C83F801C0A2
:1041D00001F03F0C83F802C0C1F342311970002A8C
:1041E0000AD101F0E3FFD870587801F0DFFF587072
:1041F000987801F0DBFF9870002000BD00B50B46F9
:104200000168896A596001680969C1F30E01996002
:10421000006800680F490140C1F305401870C1F300
:10422000062C83F801C001F07F0C83F802C001F472
:104230008001090CD970002A0AD101F0B7FF18706B
:10424000587801F0B3FF5870987801F0AFFF98707C
:10425000002000BD7F7F7F0010B50446002C02D0F7
:10426000607F10B106E0012010BD002020772046BD
:1042700000F044F8022060772168CA204862216873
:1042800053204862204602F065F9FF2128B12068DA
:10429000416204206077012010BD2068826822F00E
:1042A000400222F4E0028260206882686368D4F8E9
:1042B00014C01A43236943EA0C031A43826022683C
:1042C000E068106120680269238942EA03420261C2
:1042D0002068C26822F08002C2602068026C22F46A
:1042E000802202642068026CA3691A430264206879
:1042F000416201206077002010BD000010B590B031
:104300000068A0F18041B1F5205113D1FFF7D8FA30
:104310000420049000200A900124069404A8FFF7CA
:104320001DFD02200090C00103906846FFF7D6FAF9
:104330000148046010B010BD3C0E47422DE9F04723
:1043400004460B46207F012805D00126267702204F
:1043500060771AB10AE00220BDE8F087587810F0C3
:10436000100F03D000F0EF000A30587042B35878B5
:1043700001F01CFF987801F019FF9878D9781A7825
:1043800040EA01405978090241EA423140EA010518
:104390002168CA204862216853204862204602F002
:1043A000D9F800274FF0FF084FF00409C8B1206882
:1043B000C0F8248084F81D9027770120BDE8F0879D
:1043C000D87801F0FCFE0204587801F0F8FE42EAC9
:1043D0000022987801F0F3FE1978104340EA413545
:1043E000D6E7216825F0C00020F07F4048602068B3
:1043F000C16821F08001C1602068806810F0200F42
:104400000CD1204600F09AF840B12068C0F8248012
:1044100084F81D9027770120BDE8F0872068C0F858
:104420002480667727770020BDE8F0872DE9F047E4
:1044300004460D46207F012810D04FF0010984F872
:104440001C900220607700275AB12068806810F025
:10445000400F1DD0287801F0A9FE1AE00220BDE827
:10446000F0872068806810F0400F00D1EF70287846
:1044700001F0A5FE0204687801F0A1FE42EA0022E4
:10448000A87801F09CFEE978104340EA01460BE071
:10449000EF70A8782978EA7840EA01406978090243
:1044A00041EA024140EA01062168CA2048622168C7
:1044B00053204862204602F04DF84FF0FF084FF0BD
:1044C000040A40B12068C0F8248084F81DA0277732
:1044D0000120BDE8F0871848216830400860206856
:1044E000816821F4802181602969E868014320689E
:1044F0008268114381602068C16821F08001C16039
:104500002068806810F0200F0CD1204600F016F8CB
:1045100040B12068C0F8248084F81DA027770120CE
:10452000BDE8F0872068C0F8248084F81D902777C4
:104530000020BDE8F08700007F7F7F0070B5044653
:104540002068C16821F0A001C160FFF7F7F80546B7
:104550002068C06810F0200F0CD1FFF7EFF8401B67
:10456000B0F57A7F01D9032070BD2068C06810F0D3
:10457000200FF2D0002070BD70B50446002C05D08D
:104580000025A56294F8510010B106E0012070BD2D
:1045900084F85050204600F031F8022084F8510091
:1045A0002068016821F040010160A168606822690B
:1045B0000843E1681143084361690843218B01F412
:1045C00000710843E1690843216A0843A16A08436E
:1045D00021680860A069042101EA1040616A08436B
:1045E000216848602068C16921F40061C161656586
:1045F000012084F85100002070BD0000F0B587B0A4
:104600000068A0F18041B1F560513CD100251F4800
:10461000016841F480410160006800F4804001902D
:104620001B48016841F480710160016801F48071E8
:104630000191016841F004010160006800F004008C
:1046400001900A2002900224039405940526069600
:10465000104F02A93846FEF757FF0420029003943A
:104660000495069602A90C48FEF74EFF012211465A
:104670003846FFF75BF8012102910391069602A9E3
:104680003846FEF741FF07B0F0BD00004038024059
:104690003038024000200240000802402DE9F84F67
:1046A0000446DDF828800D4616469B4601274FF04C
:1046B000000994F8500001280ED0012084F8500021
:1046C000FFF73CF8824694F85100616801280ED04B
:1046D000B1F5827F07D102E00220BDE8F88FA16822
:1046E00009B9042803D04FF0020900F0C3B845B15E
:1046F0003EB1BBF1000F04D094F85100012803D063
:1047000005E04FF00109B5E0052084F851000020D4
:104710006065A663A4F83EB0A4F83CB02563A4F895
:1047200036B0A4F834B0206460642068016811F0E9
:10473000400F03D1016841F040010160E068B0F52D
:10474000006F05D06068C8B3E08E01283ED06EE0EF
:10475000606810B1E08E012831D121682888C860D6
:10476000AD1CE08E401EE08629E06FB1E08E58B1AE
:104770002068816811F0020F06D02988C160AD1C45
:10478000E08E401EE0860027E08F58B120688168E7
:1047900011F0010F06D0C0683080B61CE08F401EBB
:1047A000E0870127B8F1FF3F09D0FEF7C7FFA0EB74
:1047B0000A00404503D34FF003095BE006E0E08EBA
:1047C0000028D2D1E08F0028CFD136E021682878A8
:1047D00008736D1CE08E401EE08628E06FB1E08E0D
:1047E00058B12068816811F0020F06D015F8011B3E
:1047F0000173E08E401EE0860027E08F58B12068EC
:10480000816811F0010F06D0C06806F8010BE08F37
:10481000401EE0870127B8F1FF3F08D0FEF78EFF6A
:10482000A0EB0A00404502D34FF0030922E0E08EDE
:104830000028D3D1E08F0028D0D1434601220221A5
:104840002046CDF800A002F017F810B14FF0030990
:1048500010E052464146204601F0BEFE20B14FF026
:1048600001092020606505E0A06818B92068C168CA
:1048700080680090012084F85100002084F85000E6
:104880004846BDE8F88F4FF0E021042804D00869BD
:1048900020F0040008617047086940F004000861D6
:1048A00070477047401EB0F1807F01D301207047F0
:1048B0004FF0E0214861044AF02010700020886128
:1048C000072008610020704723ED00E010B5FFF7D6
:1048D000E8FF10BD7047704710B490F83820012AE7
:1048E0002AD0012380F83830022280F8392002686B
:1048F000D2F804C02CF0700CC2F804C00268D2F8E0
:1049000004C00C684CEA040CC2F804C00268D2F877
:1049100008C02CF0800CC2F808C00268D2F808C0A9
:1049200049684CEA0101916080F83930002180F833
:10493000381010BC0020704710BC0220704710B522
:104940000446002C03D094F8390010B107E0012090
:1049500010BD002084F83800204600F00DF8022039
:1049600084F83900211D206802F016FB012084F82C
:104970003900002010BD000008B50068A0F180419A
:10498000B1F5805112D10A48016841F0100101606F
:10499000006800F010000090062201213620FEF78A
:1049A00049FFBDE808403620FEF738BF08BD0000CB
:1049B000403802400168CA6842F00102CA600068DB
:1049C000016841F00101016000207047022180F878
:1049D000391001680A6A41F211131A4207D10A6AB2
:1049E0009B101A4203D10A6822F001020A600121D9
:1049F00080F8391000207047704770B50446206871
:104A000001694FF0000511F0020F17D0C16811F0D5
:104A1000020F13D0E91E0161012020762068806911
:104A200010F0030F03D02046FFF7E6FF05E0204615
:104A300000F09DF8204600F09BF82576206801697B
:104A400011F0040F18D0C16811F0040F14D06FF0EA
:104A500004010161022020762068806910F4407F03
:104A600003D02046FFF7C8FF05E0204600F07FF89E
:104A7000204600F07DF825762068016911F0080FC6
:104A800018D0C16811F0080F14D06FF0080101614F
:104A9000042020762068C06910F0030F03D0204660
:104AA000FFF7AAFF05E0204600F061F8204600F07D
:104AB0005FF825762068016911F0100F18D0C168E1
:104AC00011F0100F14D06FF0100101610820207652
:104AD0002068C06910F4407F03D02046FFF78CFFA8
:104AE00005E0204600F043F8204600F041F8257626
:104AF0002068016911F0010F09D0C16811F0010FA0
:104B000005D06FF001010161204600F033F8206804
:104B1000016911F0800F09D0C16811F0800F05D034
:104B20006FF0800101612046FFF7D4FE2068016923
:104B300011F0400F09D0C16811F0400F05D06FF09F
:104B400040010161204600F061F82068016911F020
:104B5000200F0BD0C16811F0200F07D06FF020019B
:104B600001612046BDE87040FFF7B5BE70BD7047DB
:104B70007047000030B41F48018A491C0182C18976
:104B8000491CC1811C480168491C01601B490888F7
:104B9000002802D00888401E088000211848194AC1
:104BA000194C007812784FF47A7340EA020CC1EB8A
:104BB000011000EB411004EBC000026C032A14DB6F
:104BC000BCF1000F11D0026A012A06D1D0F8582199
:104BD0001AB1521EC0F8582107E0D0F85C51D0F845
:104BE0005821AA4201D0C0F85831491C0529DEDB02
:104BF00030BC7047000000206000002064000020EE
:104C00004F0000205000002008010020704770472E
:104C100010B5044622681068D168526900F00F038D
:104C2000002B0AD110F0200F07D011F0200F04D074
:104C30002046BDE8104002F036BA002B6BD002F0DF
:104C4000010301F4907C53EA0C0364D010F0010FCF
:104C500006D011F4807F03D0E36B43F00103E363DC
:104C600010F0040F06D012F0010F03D0E36B43F0F5
:104C70000203E36310F0020F06D012F0010F03D01D
:104C8000E36B43F00403E36310F0080F06D012F067
:104C9000010F03D0E26B42F00802E263E26B002AEC
:104CA0002ED010F0200F05D011F0200F02D020469A
:104CB00002F0F9F920684069C0F38010E16B11F04F
:104CC000080F00D108B3204602F0D2F920684169EC
:104CD00011F0400F15D0416921F040014161606B36
:104CE00058B118490165606BFEF774FB002807D0C6
:104CF000606B016DBDE8104008472046FFF787FF55
:104D000010BD2046FFF783FF10BD2046FFF77FFF51
:104D10000020E06310BD10F0800F07D011F0800F6D
:104D200004D02046BDE8104002F0A8BB10F0400FB0
:104D3000F0D011F0400FEDD02046BDE8104002F059
:104D4000A5B900006170010870B50446002C04D0BC
:104D500094F83900002510B106E0012070BD84F8F8
:104D60003850204600F022F8242084F839002068CA
:104D7000C16821F40051C160204602F0DDF92068CD
:104D8000016921F4904101612068416921F02A0103
:104D900041612068C16841F40051C160E563202091
:104DA00084F8390084F83A00002070BDF0B587B06F
:104DB0000168002702240125032007233F4EA1F1AB
:104DC0008042B2F588322DD03D4AA1F1804CBCF52D
:104DD000904C42D0A1F18043B3F5A04320D111689B
:104DE00041F004011160116801F0040101911168A2
:104DF00041F008011160116801F00801019191145E
:104E000002910394049505900820069002A92D486C
:104E1000FEF77AFB0420029002A92B48FEF774FBF0
:104E200007B0F0BD29490A6842F010020A6009681B
:104E300001F0100101914021029103940495059025
:104E4000069302A93046FEF75FFB8021029102A97A
:104E50003046FEF759FB07B0F0BD1D49D1F800C040
:104E60004CF4802CC1F800C0096801F48021019144
:104E7000116841F080011160116801F08001019119
:104E80004FF480610291039404950590069302A962
:104E90003046FEF739FB4FF40061029102A930461B
:104EA000FEF732FB4FF4807002900395049406974E
:104EB00002A90848FEF728FB07B0F0BD0004024035
:104EC0003038024000080240000C024044380240E2
:104ED00040380240001C024090F83A30202B01D0AC
:104EE00002207047D1B1CAB190F83830012B17D0E9
:104EF00081628285C2850021C163222280F83A2026
:104F000080F8381001684A6942F001024A6100687D
:104F1000C16841F49071C160002070470120704762
:104F2000022070472DE9F04701680124DFF8DCA179
:104F30000025DFF8DC91A1F18042B2F5883226D05D
:104F4000A1F18042B2F590421FD1734ADFF8C4C18B
:104F500099F8053011880CF80130491C118090F83F
:104F60003A10202900F0CA8099F80110491CC9B2F2
:104F700089F801100A29F2D389F8015067A002F0DC
:104F800009FC8AF8004089F80040BDE8F087694EC6
:104F9000694F3078A0B199F8041068A002F0FAFBCC
:104FA00099F80A00401C89F80A003D8099F804002D
:104FB0007B2840F09C80357089F80B0000F097B892
:104FC0003888B0F57A7F80F08E8099F80B1062A057
:104FD00002F0E0FB3888DFF8988118B999F80B10D7
:104FE000202905D099F80B1008F80010401C3880D3
:104FF000388889F8020099F80B10262956D008DC69
:10500000212918D023290BD024291FD025296ED17E
:1050100055E03A2927D040295CD07B2967D133E07D
:10502000347089F80740404400F8015C51A002F058
:10503000B1FB3D805BE0347089F80840404400F8E3
:10504000015C52A002F0A6FB3D8050E005284ED244
:105050003470404400F8015C5248047052A002F0E1
:1050600099FB3D8043E0A0F10F0105293FD81128AD
:105070003DD83470404400F8015C5148047051A0A0
:1050800002F088FB3D8032E04FF47A73012254A194
:10509000544800F0E9F889F809403888404400F89D
:1050A000015C51A002F076FB3D8020E005281ED275
:1050B000347053A002F06EFB8AF8004017E0052818
:1050C00015D2347054A002F065FB89F800408AF8CC
:1050D00000400CE005280AD25348047053A002F0A7
:1050E00059FB3D8003E059A002F054FB3D80BDE830
:1050F000F047012259493B48FFF7EEBEBDE8F047B3
:10510000012257495748FFF7E7BE00005B00002027
:1051100000000020700B002048000020343835B417
:10512000AEBFDAB6C2C8FBA3ACD7D4B6AFD6D8C62A
:10513000F40A0000E700002046000020B0B2D7BF0C
:10514000BDD3CAD5B5ABB2BBB1A3B4E6CAFDBEDD13
:10515000A3BA25630A000000B0B2D7BFBDD3CAD539
:10516000B1A3B4E6CAFDBEDDA3BA25630A00000000
:10517000A20B0020B0B2D7BFC5E4D6C3D0C5CFA222
:10518000A3BABDD3CAD5CDEAB3C90A00B0B2D7BF5E
:10519000C3FCC1EED0C5CFA2A3BABDD3CAD5CDEA58
:1051A000B3C90A005C000020B0B2D7BFBDE2B3FDB6
:1051B000D0C5CFA2A3BABDD3CAD5CDEAB3C90A0020
:1051C0005D000020B0B2D7BFB8FCD0C2CAB1BCE409
:1051D000D0C5CFA2A3BABDD3CAD5CDEAB3C90A0000
:1051E0007B0000008C0F0020B0B2D7BFCDA8D0C587
:1051F000D0C5CFA2A3BABDD3CAD5CDEAB3C90A00E0
:10520000CFB5CDB3D7BCB1B8D6D8C6F4A3ACB8FC33
:10521000D0C2B3CCD0F20A00CFB5CDB3D7BCB1B8B1
:10522000D6D8C6F40A000000E6000020B0B2D7BF0E
:10523000C7E5B3FDB5A5C6ACBBFA464C415348BD66
:10524000D3CAD5CDEAB3C90A0A000000CAE4B3F64E
:10525000CAFDBEDDD2E7B3F60A0000000B00002055
:10526000050000200C1000202DE9F84304460D46EF
:1052700091461E4694F83900202802D00220BDE84D
:10528000F8834DB3B9F1000F26D094F83800012807
:1052900025D0012084F838000027E763212084F816
:1052A0003900FEF74BFA8046A4F82490A4F8269023
:1052B000E08CA0B3E08C401EE084A068B0F5805F75
:1052C00010D04346002280212046009602F009F9C2
:1052D000F0B10320BDE8F8830120BDE8F883022087
:1052E000BDE8F8834346002280212046009602F064
:1052F000F8F810B10320BDE8F88328882168C0F3CE
:1053000008004860206908B16D1C05E0AD1C03E091
:10531000216815F8010B4860E08C0028CAD143468B
:10532000002240212046009602F0DBF810B1032055
:10533000BDE8F883202084F8390084F83870002014
:10534000BDE8F8837047000002A002F023FA01F0E4
:1053500023F9FEE7486172644661756C745F4861C9
:105360006E646C657220D2ECB3A3A3ACB5BCD6C29C
:10537000D6D8C6F40A00000070B586B000256A4889
:10538000016841F040010160016801F040010091B5
:10539000016841F040010160016801F040010091A5
:1053A000016841F040010160016801F04001009195
:1053B000016841F040010160016801F04001009185
:1053C000016841F040010160016801F04001009175
:1053D000016841F040010160016801F04001009165
:1053E000016841F040010160016801F04001009155
:1053F000016841F040010160016801F04001009145
:10540000016841F040010160016801F04001009134
:10541000016841F040010160016801F04001009124
:10542000016841F040010160016801F04001009114
:10543000016841F040010160006800F04000009008
:1054400001200190029502240394384E01A93046B0
:10545000FEF75AF801940295039401A93046FEF72D
:1054600053F804200190039401A93046FEF74CF84C
:10547000082001900295039401A93046FEF744F8F4
:10548000102001900295039401A93046FEF73CF8E4
:10549000202001900295039401A93046FEF734F8CC
:1054A000402001900295039401A93046FEF72CF8A4
:1054B000802001900295039401A93046FEF724F85C
:1054C000E00101901A4D0295039401A93046FEF7C0
:1054D0001BF8200201900295039401A93046FEF7C3
:1054E00013F8600201900295039401A93046FEF77B
:1054F0000BF8A00301900295039401A93046FEF732
:1055000003F8042200212820FEF794F92820FEF752
:1055100085F9052200211720FEF78CF91720FEF7E8
:105520007DF906B070BD000030380240001802401E
:105530000000211010B400230022B1F800C00121A6
:1055400001FA02F41CEA040F05D0C2F10F0401FABB
:1055500004F423439BB2521C102AF1DB038010BCDD
:10556000704710B40023002291F800C0012101FA15
:1055700002F41CEA040F05D0C2F1070401FA04F496
:105580002343DBB2521C082AF1DB037010BC7047C6
:10559000F0B587B02348016841F0800101600168DF
:1055A00001F080010191016841F010010160016882
:1055B00001F010010191016841F0100101600068E3
:1055C00000F010000190184F00224FF4007138468F
:1055D000FEF7ACF8154E002220213046FEF7A6F863
:1055E000002240213046FEF7A1F8701502900124F8
:1055F00003940225059502A93846FDF785FF202171
:1056000002910394059502A93046FDF77DFF4020E5
:1056100002900394059502A93046FDF775FF07B087
:10562000F0BD000030380240001C02400010024073
:1056300008B500210D48026842F0020202600068CD
:1056400000F0020000900B48094A02604FF49652A5
:1056500042608160C16001610C2242618161C1616F
:10566000FFF772FBBDE8084000F006B83038024092
:10567000001001408C0F002010B5002201212520D0
:10568000FEF7D8F8BDE810402520FEF7C7B810B5E2
:10569000002202212720FEF7CDF8BDE81040272088
:1056A000FEF7BCB810B5002203213520FEF7C2F882
:1056B000BDE810403520FEF7B1B8000010B516481F
:1056C00014490160002141607F228260FF22C26094
:1056D000016141618161FEF7BFFD01210E48FEF7C6
:1056E0005DFDA0F54851F13912D10C4C206810F045
:1056F000006F02D00AA002F04DF8206810F0806F11
:1057000002D00CA002F046F8206840F080702060C3
:1057100010BD000000280040E01000207438024056
:10572000B7A2C9FAC9CFB5E7B8B4CEBBA3A1A3A1AC
:10573000A3A10A00B7A2C9FACDE2B2BFD2FDBDC58E
:10574000B8B4CEBBA3A1A3A1A3A10A000C480B49E6
:1057500001604FF48271416000218160C1600222CA
:10576000026101224261520282610822C261016229
:10577000416281620A21C162FEF7FEBE003800402C
:105780008810002008B500210D48026842F48012FC
:105790000260006800F4801000900B48094A026023
:1057A0004FF4E13242608160C16001610C224261CC
:1057B0008161C161FFF7C8FABDE80840FFF772BF19
:1057C0004038024000500040CC0F002002A001F001
:1057D000E1FF00F0E1FEFEE74D656D4D616E616732
:1057E000655F48616E646C657220D2ECB3A3A3ACB4
:1057F000B5BCD6C2D6D8C6F40A000000000000002E
:10580000F0B52DED068B95B004460E46002510959B
:105810001195129513951495039504950595069584
:105820000795089509950A950B950C950D950E957C
:105830000F950020E84903AF0988002905DDE74AF4
:10584000135C3B54401C8842FADB03A8FBF728FD9D
:1058500070B12146E2A001F09DFF606D401C6065C3
:10586000FBF7CEFE15B04FF0FF30BDEC068BF0BD60
:10587000E5A001F08FFF0A2103A801F0B3FAEBA124
:1058800004F17400FAF7BBFC03000DF10B000DF1FD
:105890000D010DF10E0227D0E36E042B44D0A16E52
:1058A000085C8DF84200A06E385C8DF843008DF8DE
:1058B00040508DF84150DFA104F15C00FAF79FFCE5
:1058C0009FEDDF9B00283FD0DFA104F15C00FAF7D9
:1058D00096FC00283ED0DEA001F05CFF15B04FF032
:1058E000FF30BDEC068BF0BDE36E042B0CD0A16E37
:1058F000795C8DF84210A16E085C8DF843008DF83C
:1059000040508DF84150D6E7A36E185C8DF84200E8
:10591000A06E385C8DF84300A06E415C8DF840109D
:10592000805C8DF84100C6E7A36E185C8DF84000DE
:10593000F85C8DF84100A06E405C8DF84200A06ECE
:10594000805C8DF84300B6E710A8FBF7CDFBB0EE06
:10595000408A07E010A8FBF77FFC216F03F0D8FE18
:10596000B0EE408A18EE100AFAF75CFE41EC100B1C
:10597000C0A053EC102B01F00DFF94ED200B53EC65
:10598000192B51EC100BFAF779FE08D394ED220B8A
:1059900053EC192B51EC100BFAF770FE3FD294ED3B
:1059A000200BBDA08DED000B94ED220B53EC102BC2
:1059B00001F0F0FE94ED209B94ED220B53EC192B9B
:1059C00051EC100BFAF702FD41EC1A0B18EE100A1D
:1059D000FAF728FE53EC1A2BFAF7FEFCFAF766FEEC
:1059E000FAF720FE9FEDBA1B53EC112BFAF766FD78
:1059F000FAF75CFEFAF716FE53EC192BFAF745FCA2
:105A0000FAF754FE08EE100A18EE100AFAF70AFE2A
:105A100041EC100BB0A053EC102B01F0BBFE072E95
:105A200079D2DFE806F00422405E7D9BB900B148E0
:105A300090ED000AB4EEC80AF1EE10FA11D8AE48A3
:105A400090ED000AB4EEC80AF1EE10FA09DB94ED0D
:105A5000140A30EE080A84ED140AA06D401CA065FB
:105A6000B0E0606D401C6065ACE0A44890ED000AB9
:105A7000B4EEC80AF1EE10FA11D8A14890ED000A70
:105A8000B4EEC80AF1EE10FA09DB94ED140A30EE18
:105A9000080A84ED140AA06D401CA06592E0606DB8
:105AA000401C60658EE0974890ED000AB4EEC80A8D
:105AB000F1EE10FA11D8944890ED000AB4EEC80A3D
:105AC000F1EE10FA09DB94ED140A30EE080A84EDC9
:105AD000140AA06D401CA06574E0606D401C6065F8
