:020000040801F1
:10000000A83D00209D010108654B01083F42010801
:100010002D4701087F1101080D6101080000000053
:10002000000000000000000000000000D75301089D
:100030008D1B010800000000D14D01086158010826
:10004000B7010108B7010108B7010108B7010108AC
:10005000B7010108D54D0108B7010108B701010832
:10006000B7010108B7010108B7010108B70101088C
:10007000B7010108B7010108B7010108B70101087C
:10008000B7010108B7010108B7010108B70101086C
:10009000B7010108B7010108B7010108B71C010841
:1000A000B7010108B7010108B7010108B70101084C
:1000B000B7010108B7010108B7010108B70101083C
:1000C000B7010108B7010108B7010108B70101082C
:1000D000B7010108315F0108B70101083D5F010860
:1000E000A11C0108B7010108B7010108B701010807
:1000F000B7010108B7010108B7010108B7010108FC
:10010000B7010108B7010108B7010108B7010108EB
:10011000B7010108295A010869590108B701010806
:10012000B7010108B7010108B7010108B7010108CB
:10013000B7010108B7010108B7010108B7010108BB
:10014000B7010108B7010108B7010108B7010108AB
:10015000B7010108B7010108B7010108B70101089B
:10016000B7010108B7010108B7010108B70101088B
:10017000B7010108B7010108B7010108000000003C
:10018000B7010108B7010108DFF80CD000F05EFCF0
:1001900000480047DD790108A83D00200648804757
:1001A00006480047FEE7FEE7FEE7FEE7FEE7FEE75C
:1001B000FEE7FEE7FEE7FEE70D59010889010108A9
:1001C000A0F14101192900D820307047D2B201E0D6
:1001D00000F8012B491EFBD270470022F6E710B54C
:1001E00013460A4604461946FFF7F0FF204610BDA5
:1001F000421C10F8011B0029FBD1801A704710B572
:10020000002200E0521C835C8C5CA34201D1002BD5
:10021000F8D1D8B2E1B2401A10BD034611F8012B53
:1002200000F8012B002AF9D11846704770B50F4D20
:1002300000B92868002412E00A4602E09E4203D07A
:10024000521C1378002BF9D1DAB2224305D02BB11E
:1002500024B1002100F8011B04E00446401C06788C
:10026000002EE9D12860204670BD00006800002003
:1002700070B5064605F08AFF046805460A2200218B
:10028000304600F067FA2C6070BD2DE9FE4F8046C5
:1002900081EA0300C00F0C46009021F0004123F0DA
:1002A0000045B8EB0200A94105D2404621469046E0
:1002B0001C460B46024623F00040104347D0270D52
:1002C000C7F30A00C3F30A510290401A0190402874
:1002D0006BDAC3F3130040F4801B0098924620B100
:1002E0000023D2EB030A63EB0B0B01985946C0F1D4
:1002F0004002504600F0AFF906460D4650465946BA
:10030000019A00F0C7F910EB08006141002487EA68
:10031000115284EAE7731A4340D0009A62B3019AFB
:10032000012A4FEA075215DC001B61EB02014FF076
:10033000004202EA0752CDE90042001C41F580115B
:1003400032462B4600F084FA03B0BDE8F08F4046F9
:100350002146F9E7001B61EB0201001C41F5801307
:1003600000185B412018A2F5001747EB030140EA93
:10037000D570B6196D4111E06D084FEA360645EAB1
:10038000C0754FEA0752001B61EB0201001C41F5EA
:10039000801149084FEA30000019514132462B467E
:1003A00003B0BDE8F04F00F044BA009801224000CD
:1003B0000023D0EB020263EBE073009821464FEA82
:1003C000E074B8EB000061EB0401E9E783F000435F
:1003D0005BE781F0004158E72DE9FE4F81EA030415
:1003E00004F0004421F0004100944FF0000B23F092
:1003F000004350EA01045ED052EA03045BD0C3F329
:100400000A54C1F30A552C44A4F2F3340194A0FB1E
:100410000254C1F3130141F48011C3F3130343F4F5
:10042000801301FB024400FB034E840A970A44EA4E
:10043000815447EA8357A4FB076802958D0A05FBA0
:1004400007854FEA932C04FB0C542705029D4FEAC5
:10045000065847EA1637B5EB08056EEB070C870E12
:10046000920E47EA811742EA8312A7FB0201B6EB1C
:100470000B0164EB00042B0D43EA0C335E1844EBD4
:100480001C50DA465146E7FB0201C5F313044FEA5C
:100490000B3343EA14534FEA0432019C43EA060348
:1004A000A4F10C040294009CCDE900B400F0D0F952
:1004B00003B0BDE8F08F00200146F9E70EB540F229
:1004C000334102910021CDE900110A460B4600F0AC
:1004D000BFF903B000BDC1F30A5210B5C1F3130157
:1004E00040F2FF3341F480119A4201DA002010BD3E
:1004F00040F233439A42A2F2334203DC524200F00C
:10050000B9F810BD904010BD00F0004230F000403E
:100510000AD0C10D01F56071C0F3160042EA015125
:10052000C208400711437047002001467047000091
:1005300030B5041E71F1000404DB4FF0004440426A
:1005400064EB0101141E73F1000405DB1C464FF03F
:100550000043524263EB04038B4208BF824230BD2A
:1005600030B5041E71F1000404DB4FF0004440423A
:1005700064EB0101141E73F1000405DB1C464FF00F
:100580000043524263EB0403994208BF904230BDDE
:1005900001F0004330B421F0004150EA010206D0DE
:1005A0000A0DA2F56072C1F31301002A02DC30BC0F
:1005B00000207047440F44EAC104C100E01830BC79
:1005C00000EBC25000F0FEB830B50B4601460020EB
:1005D0002022012409E021FA02F59D4205D303FA05
:1005E00002F5491B04FA02F52844151EA2F1010286
:1005F000F1DC30BD2DE9F05F0546002092469B46B8
:1006000088460646814640241BE028464146474628
:10061000224600F02FF853465A46C01A914110D393
:1006200011461846224600F016F82D1A67EB01080D
:100630004F4622460120002100F00DF817EB00097B
:100640004E41201EA4F10104DFDC484631462A4613
:100650004346BDE8F09F202A04DB203A00FA02F16D
:10066000002070479140C2F1200320FA03F31943A0
:1006700090407047202A04DB203A21FA02F0002142
:10068000704721FA02F3D040C2F1200291400843A2
:1006900019467047202A06DBCB17203A41FA02F0B0
:1006A00043EAE07306E041FA02F3D040C2F12002CF
:1006B00091400843194670470FB4002300B589B034
:1006C0000CA900910B996FF00042CB601E4B069372
:1006D0001E4B07930423CDE901321D4A08920246BE
:1006E0006B46002000F052FA09B05DF814FB70B5BB
:1006F00086B006464FF0FF300091CDE901010020A1
:1007000015460C4604903246694604A8FFF7D4FF0C
:1007100003460498211825B108B10A4600E0224694
:100720002A6000280DD0002B02DD0098884208D0F6
:10073000081B0094CDE901043246694604A8FFF77E
:10074000BBFF06B070BD0000C50D0108E30D010838
:10075000790A01082DE9F04791460F468046044684
:10076000002614F8015B2DB100F082F90068405DAD
:10077000C007F6D12B2D02D02D2D18D0641E4A466D
:100780003946204600F03EFB27B13968A14201D12D
:10079000C7F8008071054FF002040BD540420028D5
:1007A00003DD05F0F3FC0460A007BDE8F08746F424
:1007B0008066E4E70028F8DA05F0E8FC04606FF0F2
:1007C0000040F2E70029A8BF7047401C490008BF5D
:1007D00020F00100704710B4B0FA80FC00FA0CF071
:1007E00050EA010404BF10BC704749B1CCF12004A9
:1007F00021FA04F411FA0CF118BF01212143084336
:10080000A3EB0C01CB1D4FEA00614FEA102042BF61
:10081000002010BC704700EBC35010440029A4BF57
:1008200010BC7047401C490008BF20F0010010BCFC
:10083000704710B5141E73F1000408DA401C41F132
:10084000000192185B411A4301D120F0010010BD54
:100850002DE9F04D92469B4611B1B1FA81F202E0CA
:10086000B0FA80F220329046FFF7F5FE04460F46BC
:1008700040EA0A0041EA0B0153465A46084313D0A6
:10088000114653EA010019D0C8F140025046FFF763
:10089000F1FE05460E46504659464246FFF7DBFE3E
:1008A000084305D0012004E020463946BDE8F08D1C
:1008B0000020054346EAE0762C4337430A98630557
:1008C000E40AA0EB08000022FD0A44EA47540A307B
:1008D00002D500200146E9E7010510196941DDE96B
:1008E000084500196941BDE8F04DA2E72DE9F04D3A
:1008F00081EA030404F0004B21F0004514464FF058
:10090000000A23F0004150EA050220D054EA010217
:100910001DD0C5F30A570246C5F31303C1F31300F4
:10092000C1F30A5640F4801543F48013A7EB060880
:10093000101BD64608F2FD3873EB050002D308F110
:10094000010801E092185B41B8F1000F03DA0020C2
:100950000146BDE8F08D00204FF480110646844624
:100960000EE0171B73EB050705D3121B63EB0503A2
:1009700006434CEA010C49084FEA300092185B41EB
:1009800050EA0107EDD152EA030012D082EA0400D6
:1009900083EA0501084305D0101BAB4106D20122B2
:1009A000002306E000224FF0004302E06FF0010256
:1009B00053101AEB06004CEB085110EB0A0041EB08
:1009C0000B01BDE8F04DFFF734BF70B521F00043D7
:1009D00003430CD0C1F30A550024D5EB040564EBA6
:1009E0000403D617AD1AB34102DB0020014670BDE7
:1009F000201841EB025170BD0EB5C10F80EAE070C6
:100A00000844CA07002140F233438DE80E000A462D
:100A10000B46FFF71DFF03B000BDC1F30A52C1F33F
:100A2000130140F2FF3341F480119A4202DA0020B0
:100A30000146704740F233439A42A2F2334202DC4D
:100A40005242FFF717BEFFF706BE0000064C074DE7
:100A500006E0E06840F0010394E80700984710348E
:100A6000AC42F6D3FFF794FB008001082080010818
:100A700000487047FC7F010810B50446FFF7F8FFF7
:100A80000068005D00F0010010BD00002DE9FF4F7F
:100A9000087881B09946FF2805D0491C2D2804D03C
:100AA0000024002308E000230BE00124F9E703EB16
:100AB000830300EB4303491C0878FF28F7D104B1F6
:100AC0005B4200200090147801462D2C01D02B2C85
:100AD00004D1521C2D2C12D000240094002516782D
:100AE000FF2E0ED00A24A0FB04C801FB04810027BE
:100AF00000FB0711521C16EB0C006941EFE70124C3
:100B0000EBE7994450EA01020ED00024AA4D264694
:100B1000DFF8A88200F024FA82468B46B9F1000083
:100B200009DAC9F100071BE001980021C0E90011B2
:100B300005B0BDE8F08F074612E0F80707D022465F
:100B40002B4630464146FFF747FC0646884622467C
:100B50002B4610461946FFF73FFC04460D467F1012
:100B6000002FEAD1B9F1000F3246434650465946AC
:100B700002DAFFF7BBFE01E0FFF72EFC009A0AB194
:100B800081F00041019AC2E90001D1E72DE9FF4F50
:100B90001F468DB0D7E901464FF0FF382E2045465D
:100BA0004FF000090B90B9696D1C0E988847396A9F
:100BB000824688470028F6D1BAF1FF3F0AD024F4D4
:100BC000D064002E11DDBAF12B0F08D0BAF12D0F31
:100BD0000BD102E0404611B0ABE744F48064B96940
:100BE0006D1C0E9888478246761E6946600501D5C1
:100BF0002D2000E02B208DF8000001F1010B0DF1FC
:100C0000200809E0B9696D1C0E98884782460F9844
:100C100044F40074761E0560002E02DDBAF1300F38
:100C2000F0D00B998A453ED144F0800406E00F993C
:100C3000681CA9F1010944F400740860B9696D1CCD
:100C4000761E0E98884782463028F0D02BE00B990C
:100C50008A4505D1200603D444F08004761E18E0AE
:100C6000504606F06DFA08B30DF11301761E44F4F8
:100C700000748B4508D2AAF130000BF8010B200656
:100C800007D5A9F1010003E0200602D409F1010013
:100C90008146A00502D50F99681C0860B9696D1CD2
:100CA0000E9888478246002ED1DC53E0002E51DD9D
:100CB000BAF1650F02D0BAF1450F4BD1A00549D565
:100CC000B9696D1C24F44074761E0E9888478246DC
:100CD000002E0CDD2B2804D0BAF12D0F07D144F4DF
:100CE0008074B9696D1C0E9888478246761EE005AF
:100CF00001D52D2100E02B2108F8011BCDF82C8017
:100D000021E00DF12901761E44F4007488450CD2CF
:100D1000AAF1300010F0FF0088F8000002D10B9912
:100D2000884509D908F1010806E0E00501D5244805
:100D300001E042F20F708146B9696D1C0E98884738
:100D400082460F980560002E04DD504606F0F8F943
:100D50000028D6D1F9690E988847FF208BF800004B
:100D600088F800000020069007904B466A4608A9C4
:100D700006A8FFF78BFEA00502D46FF001002AE75A
:100D800014F0240F0AD0E00714D1DDE90612386808
:100D9000031D3B600068C0E900120BE0DDE90601BD
:100DA000FFF7F6FB0146E00704D13868021D3A6000
:100DB0000068016028460EE7000024400000F03F74
:100DC000F1D8FFFF426842B1016811F8013B23B13D
:100DD000521EC0E90012184670470121C160881EEA
:100DE000704742685AB1C368016843B983688B424F
:100DF00005D0491E521CC0E90012002070474FF078
:100E0000FF3070472DE9F05F8246007800271546D5
:100E10008B460AF10104B946302801D09DB113E098
:100E200014F8010B0127782803D0582801D045B1C8
:100E30000AE00DB1102D07D10027102514F8010B81
:100E400002E0082500E00A250026B0460EE005FB7A
:100E5000080005FB06F1012701EB10461FFA80F898
:100E6000B6F5803F00D3B94614F8010B294600F0CF
:100E700069F80028EBDABBF1000F05D00FB1641E52
:100E800000E05446CBF80040B9F1000F06D005F061
:100E90007DF902210160C81EBDE8F09F48EA0640C6
:100EA000FAE72DE9F04D00231A461B1A8A4103DBAD
:100EB00000200146BDE8F08DC1F30A52C1F31301D1
:100EC00041F480154FF0000BD10702D100186D419D
:100ED000521E0027044640F2FF11384601EB620A19
:100EE0003E468046024600204FF48011FFF7C2FBC9
:100EF000C2197141BB1846EB0100B4EB030C75EB52
:100F0000000C04D3E41A65EB000517460E462419BD
:100F100008F101006D4180463428E3DDF91946EB04
:100F20000600091BA84103D24FF0FF32134601E02F
:100F3000002213461BEB070046EB0A51BDE8F04DBB
:100F4000FFF777BC3A2800D2303820F02002412A3F
:100F500001D3A2F13700884201D34FF0FF30704730
:100F60000EB540F2334202920022CDE90022134630
:100F7000FFF76EFC03B000BD10B582B00A48094906
:100F80000160532141600024846040F2E731C16078
:100F900002F041FD009401946946034802F008FD07
:100FA00002B010BD00100040F40C002010B507A0E6
:100FB00005F0B0F80C490D48FFF72FF90A490C4825
:100FC000FFF72BF9BDE8104004F0BABA4261636B39
:100FD0007570735F44617461A3BABBD8CDCBC5E4AF
:100FE000D6C3D0C5CFA20A004C080020320400208E
:100FF00064040020000000002DE9F0412DED088B75
:10100000017844788578C678B7EE009AB0EE49AAA0
:101010009FED498B802901D3BFEE00AA0BD3084670
:10102000FFF74CFA53EC182BFFF7D0F9FFF7B0FAA3
:1010300000EE100A03E000EE101AB8EE400AF0EEDF
:10104000000A20EE200A802C0DD310EE100AFFF7C4
:101050005BFA9FED3B1B53EC112BFFF716F9FFF7E3
:1010600097FA00EE100A10EE100AFFF74DFA9FED06
:10107000361B53EC112BFFF7A9F9FFF789FA074646
:10108000802C09D32046FFF719FA53EC182BFFF7F1
:101090009DF9FFF720FAC4B22046FFF70FFA9FED43
:1010A0002CBB53EC1B2BFFF797F941EC180B284690
:1010B000FFF704FA53EC182BFFF7E7F853EC1B2B60
:1010C000FFF78AF941EC180B3046FFF7F7F953ECBC
:1010D000182BFFF7DAF8FFF75BFA00EE100ADFEDE6
:1010E0001E0A20EE200A30EE090A10EE100AFFF761
:1010F0000BFA41EC180B3846FFF706FA41EC110BDE
:101100009FED170B05F048F8B0EE409AF0EE609AAC
:101110001AEE100AFFF7F8F953EC192BFFF75CF9F8
:1011200053EC182BFFF758F9FFF732FA00EE100ACC
:10113000BDEC088BBDE8F0810000000000006040BD
:10114000000000000000F03F0000000000C05F4011
:1011500000000000000070400000003400000000AB
:10116000000000000000004001780A0641780904F0
:1011700083781B02C078194410440844704703F078
:1011800071FFFEE7F0B582B004464FF6FF77019796
:1011900048F20506002000904D1E1FD314F8010BE5
:1011A00000906946684603F088F9BDF804009DF890
:1011B000001080EA012001900021BDF8042012F403
:1011C000004F03D086EA4200019002E007EA4200A5
:1011D0000190491C0829F0DB6D1EDFD201A901A88E
:1011E00003F054F9BDF8040002B0F0BD2DE9F0435E
:1011F0009FB0054600240027002605960696079610
:101200000896099600226946434802F063F89DF863
:1012100001309DF8002041A105A804F08BFF05EBEB
:10122000850000EBC501404800EBC10505F1400019
:1012300005A9FEF7F2FF05F1540105A8FEF7EDFF41
:101240003AA105A8FEF7F2FF0DF1280870B104EBF2
:10125000840208EB820201461046FEF7DEFF33A14E
:101260000020FEF7E3FF641C0028F0D1002405F104
:10127000400105A8FEF7D1FF2CA105A8FEF7D6FF77
:101280000DF1500970B104EB840209EB82020146B2
:101290001046FEF7C2FF25A10020FEF7C7FF641C21
:1012A0000028F0D109F11400FEF7E2FF044608F12E
:1012B0001400FEF7DDFF04443C2C11DB1C492046E2
:1012C0003246C1FB04204211A2EBE0772046C1FB6D
:1012D00004604111A1EBE070A0EB001004EB80046E
:1012E00014A8FEF7C5FF06460AA8FEF7C1FF304462
:1012F0003844104981FB00218A10A2EBE171A1EB77
:10130000810100EBC10205F14000234603A104F076
:1013100011FF1FB0BDE8F083880D00202530326436
:101320003A253032640000007C0000203A000000C2
:1013300089888888ABAAAA2A2DE9F047814600242B
:10134000B9F1050F29D0DFF898A0C9EBC9070AEB5E
:10135000C705686B01265AF83710012909DDD0F856
:10136000888006F0ABFA4046761C5AF83710B14236
:10137000F5DC9FED1D0B85ED060B85ED040B4AF8A2
:1013800037402C6385ED080B85ED0A0B6C634946ED
:10139000BDE8F04716A004F0BDBE00211D4A4B1E5B
:1013A00001EB810000EBC10002F8304002EBC0000D
:1013B0008477046283624462C463046680F85440A4
:1013C000446680F8404080F84A40491C0529E7DB24
:1013D000BDE8F04710A004F09DBE00000000000032
:1013E000E8020020000000000000000000000000F3
:1013F000436C65616E5F44617461A3BA256420B477
:10140000ABB8D0C6F7D0C5CFA2C7E5B3FDCDEAB122
:10141000CF0A00007C000020436C65616E5F446170
:101420007461A3BABCCCB5E7C6F7D0C5CFA2C7E5F7
:10143000B3FDCDEAB1CF0A00002005490988002993
:1014400005DD044B00221A54401C8842FBDB704728
:1014500036000020000400200821014803F002BDEE
:1014600058000020F0B58DB005460024009401948A
:1014700002940394049405940694079408940994A0
:101480000A940B940C94012603F08EFD3C483D4FCA
:10149000312D12D0322D27D0332D3ED0342D55D0C2
:1014A0000026294638A004F035FE002E03D0294638
:1014B00040A004F02FFE0DB0F0BD00224FF480518B
:1014C00001F0A1F923463C622E4A42A1684604F08D
:1014D00031FE6846FEF78CFE82B24FF47A7369469D
:1014E0003F4802F03DFEE0E700224FF4805101F05A
:1014F0008AF92346C7F8884007F1680239A168468F
:1015000004F018FE6846FEF773FE82B24FF47A7359
:101510006946334802F024FEC7E700224FF48051A9
:1015200001F071F92346C7F8F04007F1D00230A16D
:10153000684604F0FFFD6846FEF75AFE82B24FF49B
:101540007A736946264802F00BFEAEE700224FF49C
:10155000805101F058F92346C7F8584107F59C72AD
:1015600026A1684604F0E6FD6846FEF741FE82B219
:101570004FF47A7369461A4802F0F2FD95E70000CD
:10158000001402407C000020436C6F73655F44656B
:101590006C61793AB9D8B1D5BCCCB5E7C6F7CAA762
:1015A000B0DCA3ACB6CBBFDAB4EDCEF33A25630A18
:1015B00000000000436C6F73655F44656C61793AAD
:1015C000B9D8B1D52563B6CBBFDABCCCB5E7C6F781
:1015D000000000002A25732C312C25640000000037
:1015E000340C00202A25732C322C256400000000C6
:1015F0002A25732C332C2564000000002A25732C27
:10160000342C2564000000000821014803F02ABCA6
:101610004800002070B515A004F07CFD1A4D287814
:1016200038B11AA11A48FEF701FE044600202870BE
:1016300004E016A11748FEF7F9FD044613A10020A7
:10164000FEF7F4FD0178302906D0312909D0BDE834
:10165000704011A004F05EBD2078BDE87040FFF737
:1016600001BF2078BDE8704003F0D2BA436F6D6DC2
:10167000616E645F44617461A3BABFAACABCD6B488
:10168000D0D0C3FCC1EE0A003B0000202C000000BB
:101690003204002064040020436F6D6D616E645F4E
:1016A00044617461A3BAC3FCC1EEB4EDCEF3212151
:1016B000210A000070B50024154D04EB840000EBF6
:1016C000C40015F8301030291ED005EBC000C16BE6
:1016D000012906D0022908D003290AD0042913D1F0
:1016E0000DE0204600F06CF80EE0204600F012F805
:1016F0000AE0006E40B9204600F076F904E0006E82
:1017000010B9204600F0B2F8641C042CD5DB70BD83
:101710007C0000202DE9F0410546002429461AA04E
:1017200004F0F8FC05EB850000EBC501224800EB56
:10173000C106776A002F25DDDFF8808006EB840084
:10174000806AC0EBC00008EBC005A868FEF7DCFEAD
:1017500095ED041B53EC112BFEF7EAFE02D2B07F8D
:10176000FFF780FEA868FEF7CFFE95ED061B53EC51
:10177000112BFEF7F5FE02D2B07F03F049FA641C8C
:10178000BC42DBDBBDE8F081436F6E74726F6C5F4F
:101790006D61785F66726F6D5F6D696E3ABCCCB5D6
:1017A000E7C6F7BFD8D6C6B6CBBFDA25642CBFAA2A
:1017B000CABCBFD8D6C60A007C000020E8020020C0
:1017C0002DE9F0410546002429461AA004F0A2FCA8
:1017D00005EB850000EBC501224800EBC106776AE6
:1017E000002F25DDDFF8808006EB8400806AC0EBE7
:1017F000C00008EBC005A868FEF786FE95ED041B47
:1018000053EC112BFEF794FE02D2B07F03F000FAE6
:10181000A868FEF779FE95ED061B53EC112BFEF739
:101820009FFE02D2B07FFFF71DFE641CBC42DBDBD3
:10183000BDE8F081436F6E74726F6C5F6D696E5FAF
:1018400066726F6D5F6D61783ABCCCB5E7C6F7BF65
:10185000D8D6C6B6CBBFDA25642CBFAACABCBFD8BF
:10186000D6C60A007C000020E802002070B5A8B0AF
:10187000054600221B921C921D921E921F922092DE
:1018800021922292239224922592269227920E92BE
:101890000F92109211921292139214921592169224
:1018A0001792189219921A9201920292039204923C
:1018B000059206920792089209920A920B920C9254
:1018C0000D920024294626A004F024FC05EB850097
:1018D00000EBC5012D4800EBC10505F14A0205F1F9
:1018E00040012BA004F016FC05F140011BA8FEF7F7
:1018F00094FC05F14A010EA8FEF78FFC30A10EA85A
:10190000FEF794FC01AE70B104EB840206EB4202D8
:1019100001461046FEF781FC29A10020FEF786FC57
:10192000641C0028F0D1ACB106F10A00FEF7A0FC5F
:10193000044601A8FEF79CFCC0EB001004EB8000FD
:101940004EF660214843286668661E4901200870EB
:1019500028B070BD1CA004F0DDFB28B070BD0000F5
:10196000436F6E74726F6C5F74656D65723ABCCC58
:10197000B5E7C6F7BFD8D6C6B6CBBFDA25642CBF4D
:10198000AACABCBFD8D6C60A000000007C0000204E
:10199000436F6E74726F6C5F74656D65723AC3BF2E
:1019A000CCECCCD8B6A8CAB1BCE4BCD32CC3BFCC59
:1019B000EC2573BCD32573CAB1BCE40A0000000057
:1019C0003A0000003D000020436F6E74726F6C5F40
:1019D0007379735F74656D6572A3BACAE4C8EBD29C
:1019E000ECB3A3210A00000070B5ACB0054600229C
:1019F0001F92209221922292239224922592269243
:101A00002792289229922A922B9212921392149240
:101A1000159216921792189219921A921B921C9272
:101A20001D921E92059206920792089209920A92BE
:101A30000B920C920D920E920F9210921192002422
:101A400029462CA004F066FB05EB850000EBC501E0
:101A5000334800EBC10505F14A0205F1540131A0FC
:101A600004F058FB002269463B4801F033FC9DF826
:101A700001309DF8002039A11FA804F05BFB05F19F
:101A800040001FA9FEF7C9FB05F14A0112A8FEF7A5
:101A9000C4FB35A112A8FEF7C9FB05AE70B104EB7B
:101AA000840206EB420201461046FEF7B6FB2EA169
:101AB0000020FEF7BBFB641C0028F0D1ACB106F19E
:101AC0000A00FEF7D5FB044605A8FEF7D1FBC0EBE4
:101AD000001004EB80004EF66021484328666866DB
:101AE0002249012008702CB070BD21A004F012FB27
:101AF0002CB070BD436F6E74726F6C5F74656D65F2
:101B0000723ABCCCB5E7C6F7BFD8D6C6B6CBBFDAFB
:101B100025642CBFAACABCBFD8D6C60A00000000E4
:101B20007C000020436F6E74726F6C5F74656D652E
:101B3000723AB4D3B5B1C7B0CAB1BCE4BFAACABC8B
:101B4000B6A8CAB1BCD32CC3BF2573BCD32573CAF6
:101B5000B1BCE40A00000000880D0020253032648A
:101B60003A253032640000003A0000003C000020BA
:101B7000436F6E74726F6C5F74656D6572A3BACAE1
:101B8000E4C8EBD2ECB3A3210A00000003F06ABA68
:101B90002DE9F0432DED028B85B00026B046CDF83F
:101BA0000080CDF80480CDF80880CDF80C80CDF809
:101BB000108029A004F0AEFA9FED2F8ADFF8BC90C8
:101BC000C6EBC60709EBC7056C6B24B3206DFEF7A7
:101BD0009BFC95ED081B53EC112BFEF7C1FC09D3C0
:101BE000206DFEF791FC95ED0A1B53EC112BFEF7CF
:101BF0009FFC02D2286B401C2863C4F85480C4F8B0
:101C0000588084ED148AC4F88080C4F88480D4F8A5
:101C10008840002CDAD159F83700296B814212D163
:101C200088B1314616A004F075FAC5F83080FFF788
:101C3000EBFC02F0E7FF41F2883000F021FCFFF7F7
:101C40000BFC03F0BFF8761C052EB9DB05B0BDEC2C
:101C5000028BBDE8F0830000446574656374696FAE
:101C60006EA3BABFAACABCBCECB2E2B4ABB8D0C6D1
:101C7000F7D2ECB3A30A000000000000E802002045
:101C8000446574656374696F6EA3BA2564BAC5B49C
:101C9000ABB8D0C6F7B7A2B3F6B8E6BEAF0A00003D
:101CA00010B54FF4806000F09BFCBDE810404FF48D
:101CB000004000F095BC10B54FF4807000F090FC2F
:101CC000BDE810404FF4007000F08ABC2DE9F04FE1
:101CD0002DED048B85B04FF000089FED3C8A002766
:101CE000002600200090019002900390049038A0FC
:101CF00004F010FA00259FED3E9ADFF8F8B0F0EE00
:101D0000488AC5EBC5090BEBC90ADAF83440002C48
:101D100053D0A06D10B1616D1E2916DDC4ED148A7B
:101D2000224635A1684604F005FA6846FEF760FAD7
:101D300082B24FF47A736946304802F011FA2246B3
:101D400029462FA004F0E6F909E000EE100AD4EDD0
:101D5000140AB8EEC00A80EE801A84ED141A94EDCD
:101D6000140A30EE088A606DB84201DD0746A046CD
:101D70000644D4F88840002CCBD1294905EB8500D6
:101D800041F830501E2E08DD01EBC00080ED099AAD
:101D9000001D4146FEF741FA0FE05BF8392000EEE6
:101DA000102AF8EEC00A88EE200AB0EE408A8AEDCA
:101DB000028A01EBC00080ED098A6D1C052DA0DBB5
:101DC00005B0BDEC048BBDE8F08F00000000000002
:101DD0004765745F41766572616765A3BABFAACA39
:101DE000BCBCC6CBE3CAFDBEDDBEF9D6B50A000059
:101DF00000401CC6E802002021257300340C00209E
:101E00004765745F41766572616765A3BA2564BAF8
:101E1000C5B4ABB8D0C6F72573B4EDCEF30A000055
:101E20001C0200202DE9F04F2DED028BB3B00746C8
:101E30000D46C8216846FEF7D0F90024C8A12846FF
:101E4000FEF7F4F9E84640B1C5A10020FEF7EEF92F
:101E500048F82400641C0028F6D10A2C0DDA052F5E
:101E60000BD022463946BFA004F054F94FF0FF30A2
:101E700033B0BDEC028BBDE8F08F4FF0000B052FA7
:101E800014D0C14CC7EBC70A04EBCA056F600098B9
:101E9000FEF7EEF944F83A0015287AD3024639469F
:101EA000BAA004F037F94FF0FF30E1E70098FEF7F1
:101EB000DFF982460025BAF1000F6BDDDFF8FC92F6
:101EC00005EB8506701C58F8201005EB850000EB2B
:101ED000C50009EBC0042046FEF79FF9B01C58F876
:101EE00020000078A077313804280DD305EB850059
:101EF00000EBC50009EBC0003946827FB0A004F0BA
:101F000009F94FF0FF30B3E7F01C58F82000FEF756
:101F1000AFF9E063052807D302463946B2A004F0C2
:101F2000F9F84FF0FF30A3E7042810D003281FD0A2
:101F3000361D58F82600FEF75BF90246062A2AD31A
:101F40003946B4A004F0E6F84FF0FF3090E7361DB4
:101F500058F8261081F805B004F14000FEF75DF94D
:101F600058F82600811D04F14A00FEF756F927E0D3
:101F7000361D58F8261081F805B004F15400FEF71C
:101F80004CF958F82600811D04F14A00FEF745F986
:101F900016E01DE01AE062620020002A10DD58F809
:101FA000261000EB800C0CEBC00C0B5C09EBCC0C8E
:101FB0000CEB800C303BCCF82830401C9042F0DB1E
:101FC000C4F820B06D1C5545FFF67AAF00204FE7EE
:101FD0000021019804F008FFB0EE408AF0EE608A1C
:101FE0000021029804F000FFB0EE401AF0EE601AF3
:101FF00085ED048B85ED061B0021049804F0F4FEAA
:10200000B0EE408AF0EE608A0021039804F0ECFE06
:1020100085ED088B85ED0A0B5846C5F830B068632E
:102020004FF0000954F83A1000297CDDDFF814B2B3
:102030009FED858A8C2005F0EFFD044609EBC9066B
:10204000701D58F820102046FEF7E7F8B01D58F82C
:10205000201004F11E00FEF7E0F8F01D58F82010E3
:1020600004F15C00FEF7D9F806F1080058F82000EA
:10207000FEF7FEF8A066652807D3394673A0A26E66
:1020800004F048F84FF0FF30F2E606F1090058F886
:102090002000FEF7EDF8E066652807D3394676A004
:1020A000E26E04F037F84FF0FF30E1E606F10A0087
:1020B00058F82000FEF7DCF82067652807D339467A
:1020C00078A0226F04F026F84FF0FF30D0E606F13A
:1020D0000B0058F8201004F17400FEF79EF806F18A
:1020E0000C0058F82000FEF7C3F8C4F880005845EB
:1020F00008D3394676A0D4F8802004F00BF84FF0CE
:10210000FF30B5E606F10D0058F82000FEF7B0F8F4
:10211000C4F8840058450AD3394678A0D4F88420FE
:1021200003F0F8FF00E016E04FF0FF30A0E60020DB
:10213000606584ED148AA065C4F888001249686B54
:1021400058B1C4F888006C6309F1010951F83A00EC
:1021500048453FF76FAF00208AE66C63F4E7000064
:102160002C0000004765745F446174613A25642067
:10217000C5E4D6C3D0C5CFA2B4EDCEF32CB4EDCE1A
:10218000F3C2EB25640A0000E80200204765745F93
:10219000446174613A256420C5E4D6C3B4ABB8D0B9
:1021A000C6F7CAFDC1BFD0C5CFA2B4EDCEF32CB4E3
:1021B000EDCEF3C2EB25640A000000007C00002095
:1021C0004765745F446174613A256420C5E4D6C3F1
:1021D000B6CBBFDAD0C5CFA2B4EDCEF32CB4EDCEE2
:1021E000F3C2EB25640A00004765745F44617461C3
:1021F0003A256420C5E4D6C3BFD8D6C6C4A3CABD99
:10220000D0C5CFA2B4EDCEF32CB4EDCEF3C2EB2506
:10221000640A00004765745F446174613A25642074
:10222000C5E4D6C3BFD8D6C6B4ABB8D0C6F7D0C500
:10223000CFA2B4EDCEF32CB4EDCEF3C2EB25640AFD
:102240000000000041420F00000000004765745F7D
:10225000446174613A256420C5E4D6C3C6F0CABCA3
:10226000B5D8D6B7D0C5CFA2B4EDCEF32CB4EDCE51
:10227000F3C2EB25640A00004765745F4461746132
:102280003A256420C5E4D6C3CAFDBEDDCEBBCAFD77
:10229000D0C5CFA2B4EDCEF32CB4EDCEF3C2EB2576
:1022A000640A00004765745F446174613A256420E4
:1022B000C5E4D6C3B1A3B3D6CEBBCAFDD0C5CFA2A9
:1022C000B4EDCEF32CB4EDCEF3C2EB25640A0000DE
:1022D0004765745F446174613A256420C5E4D6C3E0
:1022E000346D61B6D4D3A6D0C5CFA2B4EDCEF32C55
:1022F000B4EDCEF3C2EB25640A0000004765745FBD
:10230000446174613A256420C5E4D6C332306D61FE
:10231000B6D4D3A6D0C5CFA2B4EDCEF32CB4EDCEB7
:10232000F3C2EB25640A000070B5ADF5007D0646EA
:1023300000247D947E947F944FF4FA716846FDF7F3
:102340004CFF0A2220497DA802F0B2FE7DA8FDF7CD
:102350008FFF451CAAB21D49684602F0A9FE6946D6
:102360001BA003F0D7FE6D441B4815F8011C302953
:102370000FD0312912D0046018A003F0CBFE15F85D
:10238000020C232810D01EA003F0C4FE0DF5007D22
:1023900070BD046023A003F0BDFEF0E701210160E1
:1023A00025A003F0B7FEEAE705F8024C694630467F
:1023B000FDF733FF694625A003F0ACFE03F0C0F83B
:1023C0000DF5007D70BD000000FF0F080AFF0F082B
:1023D0000A25730A0000000040000020B6C1C8A111
:1023E000CFB5CDB3D7B4CCACCAA7B0DCA3ACCFB516
:1023F000CDB3B4A6D3DACDA3D6B9D7B4CCAC0A004A
:102400004765745F4465766963655F44617461A381
:10241000BAB1BEB5D8BBF1C8A1C5E4D6C3CAA7B08E
:10242000DC0A0000CFB5CDB3B5B1C7B0D7B4CCACE2
:1024300073746F700A000000CFB5CDB3B5B1C7B0EB
:10244000D7B4CCAC72756E0A00000000BBF1C8A115
:10245000C5E4D6C3A3BA25730A00000090F835106E
:10246000022903D08021416501207047052180F8B1
:1024700035100068016821F00101016000207047FB
:1024800031B500F0C7F90546009CB4F1FF3F00D01C
:10249000641C00F0BFF9401BA042FAD338BD000015
:1024A0002DE9F0473F4BDFF80091DFF80081404D08
:1024B0000124404FB0F5806F25D00026B0F5004FC5
:1024C0003ED0B0F5007F58D0B0F5807F19D1002202
:1024D0005915184600F097F900222021484600F0CF
:1024E00092F900224021484600F08DF9386828B161
:1024F0003E6088F80040304801F0D4FA4FF4807014
:102500002860BDE8F08701225102184600F07BF9EF
:1025100001222021484600F076F901224021484658
:1025200000F071F93868012805D03C6088F8004057
:10253000214801F0ABFA4FF480602860BDE8F087D5
:1025400000224FF40071184600F05DF900222021AE
:10255000484600F058F900224021484600F053F95F
:10256000386828B13E6088F80040134801F09AFAB4
:102570004FF400402860BDE8F0871048047010490F
:102580000878012809D050B10E700EA003F0C2FDEA
:102590004FF400702860BDE8F0870E70F8E70C700B
:1025A000F6E70000001C024000100240440000203A
:1025B000143C014040000020F40C002046000020A4
:1025C00045000020D2C6D2BAB1C3D7B4CCACB4ED6A
:1025D000CEF3A3ACD2D1B9D8B1D5A3A10A000000E3
:1025E00010B504490A68024202D00860FFF758FF9C
:1025F00010BD0000143C01402DE9F84F0022DFF827
:10260000E481DFF8E491DFF8E4A14FF0030E0F2737
:10261000012303FA02F50B682B40AB427ED1D1F8BF
:1026200004C0BCF1020F02D0BCF1120F12D14FEA6C
:10263000D20C00EB8C0CDCF820605407E40E07FA97
:1026400004FB26EA0B06D1F810B00BFA04F434436D
:10265000CCF8204006684FEA420C0EFA0CF4A64370
:1026600091F804B00BF0030B0BFA0CFB4BEA0606D7
:1026700006604E68012E05D0022E03D0112E01D027
:10268000122E11D18668A643D1F80CB00BFA0CFBC0
:102690004BEA06068660466826EA05050E79C6F30B
:1026A0000016964035434560C56825EA04048D68E8
:1026B00005FA0CFC4CEA040CC0F80CC0D1F804C0BC
:1026C0001CF0805F6FD0D8F800C04CF4804CC8F884
:1026D00000C0D8F800C00CF4804CCDF800C022F047
:1026E000030C0CF1804404F59834D4F808C895071D
:1026F0002D0F07FA05F62CEA0606A0F1804CBCF572
:10270000003C56D0BCF5806C56D0BCF5806C56D0E1
:10271000BCF5806C56D0BCF5806C00E043E054D032
:10272000BCF5806C54D0BCF5806C54D0BCF5806C8A
:1027300054D04FF0080C0CFA05FC4CEA060CC4F817
:1027400008C8D9F800C02CEA030C4C6814F4803F88
:1027500001D04CEA030CC9F800C0254CD4F800C0E5
:102760002CEA030C4D6815F4003F01D04CEA030C31
:10277000C4F800C0DAF800C02CEA030C4C6814F46A
:10278000801F01D04CEA030CCAF800C0194CD4F8E1
:1027900000C02CEA030C4D6815F4001F01D04CEA70
:1027A000030CC4F800C0521C102AFFF431AFBDE87E
:1027B000F88F4FF0000CBEE74FF0010CBBE74FF075
:1027C000020CB8E74FF0030CB5E74FF0040CB2E78A
:1027D0004FF0050CAFE74FF0060CACE74FF0070CDD
:1027E000A9E7000044380240003C0140083C014099
:1027F000043C01400C3C01400069084201D001202A
:10280000704700207047002A01D081617047090499
:102810008161704701480068704700006000002037
:1028200002480168491C01607047000060000020F8
:1028300010B50B48016841F400710160016841F472
:1028400080610160016841F480710160032000F043
:1028500091F8002000F006F800F018F8002010BDF4
:10286000003C024010B5044607484FF47A720068F5
:10287000B0FBF2F001F082F800222146501E00F079
:1028800045F8002010BD00006400002010B50320B2
:1028900000F070F8002211466FF00B0000F036F8DF
:1028A000002211466FF00A0000F030F800221146B5
:1028B0006FF0090000F02AF800221146501F00F0C6
:1028C00025F800221146101F00F020F800221146C2
:1028D000901E00F01BF800221146501E00F016F862
:1028E00000221146052000F011F8BDE81040052037
:1028F000AFF3008000F01F01012202FA01F140094C
:10290000800000F1E020C0F80011704710B4184BAF
:102910001B68C3F30223C3F1070CBCF1040F01D9F8
:102920004FF0040C1C1D072C01D2002300E0DB1E1D
:10293000012404FA0CFCACF1010C0CEA01019940F1
:1029400004FA03F35B1E1A401143002808DA00F072
:102950000F0000F1E020090180F8141D10BC704741
:1029600000F1E020090180F8001410BC704700005D
:102970000CED00E000F00700064A11684FF6FF0377
:10298000194041EA002040F0FD7040F08060106086
:10299000704700000CED00E00120010291FAA1F166
:1029A000B1FA81F1890001F1844101F560210860EB
:1029B000704700002DE9F84304464FF001082078E5
:1029C0004FF0000710F0050F3FD0DFF85C91C9F819
:1029D0006870FFF71FFF0546544E306810F0006F17
:1029E0000BD0FFF717FF401B022802D90320BDE8D8
:1029F000F883306810F0006FF3D147F6C07191FA98
:102A0000A1F16068B1FA81F188404FF0E04292FA9A
:102A1000A2F2A168B2FA82F29140084344490860E8
:102A2000C9F86880FFF7F6FE0546306810F0006FC1
:102A30000BD1FFF7EFFE401B022802D90320BDE8AF
:102A4000F883306810F0006FF3D0207810F0020F98
:102A50005CD03848016841F080510160006800F0A6
:102A600080500090344D286840F480702860FFF753
:102A7000D1FE0646286810F4807F0BD1FFF7CAFE0E
:102A8000801B022802D90320BDE8F883286810F4CF
:102A9000807FF3D0294D286800F4407028B3A189C5
:102AA00001F44071814220D0286820F4407024490C
:102AB000C1F800800F602860286810F0010F14D062
:102AC000FFF7A8FE0746286810F0020F0DD141F26B
:102AD0008836FFF79FFEC01BB04202D90320BDE835
:102AE000F883286810F0020FF3D0E0684FF44071CB
:102AF00031EA000213490CD0086820F4F81008608D
:102B00002868A189C1F30B01084328600020BDE8B3
:102B1000F8830A6820F4407022F4F81220F0704024
:102B200010430860ECE70000000047420038024014
:102B30008438024040380240007000407038024043
:102B4000400E4742083802402DE9F05F04460E4629
:102B5000DFF8D091D9F80000F7B200F00F00B042D2
:102B60000AD289F80070D9F8000000F00F00B042D6
:102B700002D00120BDE8F09F2078DFF8AC8110F092
:102B8000020F07D0D8F80000A16820F0F000084339
:102B9000C8F80000207810F0010F51D06068634938
:102BA000012808D002280DD003280BD0096811F0A5
:102BB000020F2ED00AE0096811F4003F06D101206F
:102BC000BDE8F09F096811F0007F1FD0D8F8001011
:102BD00021F003010843C8F80000FFF71BFE05467B
:102BE000606841F2883A012816D0022829D00328CB
:102BF0003CD0D8F8000010F00C0F51D0FFF70AFEBF
:102C0000401B504547D90320BDE8F09F0120BDE897
:102C1000F09F0120BDE8F09FD8F8000000F00C0004
:102C200004283DD0FFF7F6FD401B504502D9032094
:102C3000BDE8F09FD8F8000000F00C000428F1D1A6
:102C40002EE0D8F8000000F00C00082828D0FFF78C
:102C5000E1FD401B504502D90320BDE8F09FD8F8A4
:102C6000000000F00C000828F1D119E0D8F80000AD
:102C70004FF00C0B3BEA000012D0FFF7CBFD401BDE
:102C8000504502D90320BDE8F09FD8F800003BEA88
:102C90000000F2D104E0D8F8000010F00C0FADD124
:102CA000D9F8000000F00F00B0420AD989F800708E
:102CB000D9F8000000F00F00B04202D00120BDE8BA
:102CC000F09F207810F0040F07D0D8F80000E168DA
:102CD00020F4E0500843C8F80000207810F0080FF6
:102CE00008D0D8F80000216920F4604040EAC10013
:102CF000C8F8000000F058F8D8F80010F02292FA56
:102D0000A2F201F0F001B2FA82F2D140084A515C1D
:102D1000C840084908600020FFF7A4FD0020BDE876
:102D2000F09F0000003C024008380240003802409A
:102D3000CC7E01086400002001490120C86470476E
:102D4000000047420148006870470000640000200E
:102D500000B5FFF7F7FF074909684FF4E05292FA10
:102D6000A2F201F4E051B2FA82F2D140024A515C7F
:102D7000C84000BD08380240DC7E010800B5FFF7FE
:102D8000E1FF074909684FF4604292FAA2F201F4A8
:102D90006041B2FA82F2D140024A515CC84000BDA3
:102DA00008380240DC7E010810B41F48006810F0AB
:102DB0000C011E481BD04FEA600C042916D00829CC
:102DC00015D11B4A116801F03F01136813F4800FFD
:102DD00047F6C0730DD0BCFBF1F01168194093FAAF
:102DE000A3F3B3FA83F3D94048430CE0604610BC28
:102DF0007047B0FBF1F01168194093FAA3F3B3FAEE
:102E000083F3D940484311684FF4403292FAA2F25A
:102E100001F44031B2FA82F2D140491C4900B0FBC2
:102E2000F1F010BC70470000083802400024F400A4
:102E3000043802402DE9F84F0446DFF81C8420785E
:102E4000A8F1040710F0010FA7F1040560D0D8F82D
:102E5000000000F00C00042809D0D8F8000000F0B1
:102E60000C0008280DD1386810F4800F09D02868AC
:102E700010F4003F4CD06068002849D10120BDE823
:102E8000F88F6068B0F5803F14D0B0F5A02F16D051
:102E9000286820F480302860286820F4802028608A
:102EA000606810B3FFF7B6FC0646286810F4003FD0
:102EB0000ED02DE0286840F480302860F0E72868C4
:102EC00040F480202860286840F480302860E7E7DC
:102ED000FFF7A0FC801B642802D90320BDE8F88F0F
:102EE000286810F4003FF3D012E0FFF793FC064689
:102EF000286810F4003F0BD0FFF78CFC801B64287F
:102F000002D90320BDE8F88F286810F4003FF3D100
:102F10002078DFF8489310F0020F4FF0000663D0DE
:102F2000D8F800004FF0F80B10F00C0F16D0D8F8BE
:102F3000000000F00C00082803D1386810F4800F5E
:102F40000CD0E068C8B30120C9F80000FFF762FCAC
:102F50008246286810F0020F16D022E0286810F090
:102F6000020F05D0E068012802D00120BDE8F88FEB
:102F700028689BFAABF22169B2FA82F220F0F800DD
:102F80009140084328602FE0FFF744FCA0EB0A00C3
:102F9000022802D90320BDE8F88F286810F0020F3C
:102FA000F2D028689BFAABF22169B2FA82F220F0E3
:102FB000F80091400843286016E0FFE7C9F8006078
:102FC000FFF728FC8246286810F0020F0CD0FFF7AC
:102FD00021FCA0EB0A00022802D90320BDE8F88FEB
:102FE000286810F0020FF2D1207810F0080F34D0CA
:102FF0009B48DFF870B26169C1B101210160FFF740
:1030000009FC8246DBF8000010F0020F25D1FFF723
:1030100001FCA0EB0A00022802D90320BDE8F88FCA
:10302000DBF8000010F0020FF1D016E00660FFF7A9
:10303000F1FB8246DBF8000010F0020F0DD0FFF725
:10304000E9FBA0EB0A00022802D90320BDE8F88FB3
:10305000DBF8000010F0020FF1D1207810F0040F1F
:1030600043D08148016841F080510160006800F060
:1030700080500090DFF8F4B1DBF8000040F480707D
:10308000CBF80000FFF7C6FB8246DBF8000010F427
:10309000807F0DD1FFF7BEFBA0EB0A00022802D90A
:1030A0000320BDE8F88FDBF8000010F4807FF1D03A
:1030B000A068DFF8BCB1012818D005281DD0DBF8C6
:1030C000000020F00100CBF80000DBF8000020F049
:1030D0000400CBF80000A06868B3FFF79BFB8246B2
:1030E000DBF8000010F0020F14D03CE0DBF8000029
:1030F00040F00100CBF80000EDE7DBF8000040F005
:103100000400CBF80000DBF8000040F00100CBF831
:103110000000E0E7FFF77EFBA0EB0A0141F28830F8
:10312000814202D90320BDE8F88FDBF8000010F0DF
:10313000020FEFD017E0FFF76DFB8246DBF80000CF
:1031400010F0020F0FD0FFF765FBA0EB0A0141F270
:103150008830814202D90320BDE8F88FDBF80000F7
:1031600010F0020FEFD1A069F0B3D8F8001001F011
:103170000C0108296CD0022810D0C9F86060FFF754
:1031800049FB0446286810F0007F5ED0FFF742FB41
:10319000001B022855D90320BDE8F88FC9F86060EC
:1031A000FFF738FB0646286810F0007F0BD0FFF7CA
:1031B00031FB801B022802D90320BDE8F88F286864
:1031C00010F0007FF3D1216AE0694FF0FF3340EA4D
:1031D000010247F6C07191FAA1F1606AB1FA81F17A
:1031E00000FA01F1A06A00E02FE003EB50004FF479
:1031F000403393FAA3F3B3FA83F3984008431043A0
:103200004FF0706292FAA2F2E16AB2FA82F2914051
:10321000084338600120C9F86000FFF7FBFA044654
:10322000286810F0007F10D1FFF7F4FA001B022885
:1032300002D90320BDE8F88F286810F0007FF3D092
:1032400003E0286810F0007FA0D10020BDE8F88FCF
:103250000120BDE8F88F0000083802400000474216
:10326000800E4742743802404038024000700040EF
:10327000703802400068503000EB810000687047F1
:103280000068503000EB81000260704700B50B46CB
:103290000068406820F0C00121F07F41080CD87020
:1032A000C1F3042C83F801C001F03F0C83F802C085
:1032B000C1F342311970002A0AD101F033FED870EF
:1032C000587801F02FFE5870987801F02BFE987016
:1032D000002000BD00B50B460168896A596001688D
:1032E0000969C1F30E019960006800680F49014047
:1032F000C1F305401870C1F3062C83F801C001F03A
:103300007F0C83F802C001F48001090CD970002AF7
:103310000AD101F007FE1870587801F003FE5870CA
:10332000987801F0FFFD9870002000BD7F7F7F003E
:1033300010B50446002C02D0607F10B106E00120D9
:1033400010BD00202077204600F044F8022060776E
:103350002168CA204862216853204862204601F053
:103360005FFEFF2128B120684162042060770120C0
:1033700010BD2068826822F0400222F4E0028260E0
:10338000206882686368D4F814C01A43236943EA4A
:103390000C031A4382602268E068106120680269A9
:1033A000238942EA034202612068C26822F0800257
:1033B000C2602068026C22F4802202642068026CE1
:1033C000A3691A43026420684162012060770020EB
:1033D00010BD000010B590B00068A0F18041B1F5BB
:1033E000205113D1FFF7D8FA0420049000200A904E
:1033F0000124069404A8FFF71DFD02200090C001DF
:1034000003906846FFF7D6FA0148046010B010BD7B
:103410003C0E47422DE9F04704460B46207F012829
:1034200005D001262677022060771AB10AE0022033
:10343000BDE8F087587810F0100F03D000F0EF00CF
:103440000A30587042B3587801F06CFD987801F05A
:1034500069FD9878D9781A7840EA014059780902CC
:1034600041EA423140EA01052168CA2048622168E8
:1034700053204862204601F0D3FD00274FF0FF089B
:103480004FF00409C8B12068C0F8248084F81D906A
:1034900027770120BDE8F087D87801F04CFD0204C1
:1034A000587801F048FD42EA0022987801F043FD87
:1034B0001978104340EA4135D6E7216825F0C0006D
:1034C00020F07F4048602068C16821F08001C16021
:1034D0002068806810F0200F0CD1204600F09AF888
:1034E00040B12068C0F8248084F81D90277701201F
:1034F000BDE8F0872068C0F8248066772777002031
:10350000BDE8F0872DE9F04704460D46207F0128ED
:1035100010D04FF0010984F81C900220607700273A
:103520005AB12068806810F0400F1DD0287801F053
:10353000F9FC1AE00220BDE8F0872068806810F0EE
:10354000400F00D1EF70287801F0F5FC0204687894
:1035500001F0F1FC42EA0022A87801F0ECFCE978E5
:10356000104340EA01460BE0EF70A8782978EA782A
:1035700040EA01406978090241EA024140EA010655
:103580002168CA204862216853204862204601F021
:1035900047FD4FF0FF084FF0040A40B12068C0F823
:1035A000248084F81DA027770120BDE8F087184803
:1035B0002168304008602068816821F480218160A2
:1035C0002969E868014320688268114381602068A6
:1035D000C16821F08001C1602068806810F0200F70
:1035E0000CD1204600F016F840B12068C0F82480C5
:1035F00084F81DA027770120BDE8F0872068C0F877
:10360000248084F81D9027770020BDE8F087000013
:103610007F7F7F0070B504462068C16821F0A0015B
:10362000C160FFF7F7F805462068C06810F0200F6A
:103630000CD1FFF7EFF8401BB0F57A7F01D90320DA
:1036400070BD2068C06810F0200FF2D0002070BD5F
:1036500070B50446002C05D00025A56294F85100F1
:1036600010B106E0012070BD84F85050204600F0F3
:1036700031F8022084F851002068016821F04001EF
:103680000160A168606822690843E168114308434A
:1036900061690843218B01F400710843E169084323
:1036A000216A0843A16A084321680860A0690421CF
:1036B00001EA1040616A0843216848602068C169D6
:1036C00021F40061C1616565012084F8510000208A
:1036D00070BD0000F0B587B00068A0F18041B1F581
:1036E00060513CD100251F48016841F480410160D0
:1036F000006800F4804001901B48016841F480712B
:103700000160016801F480710191016841F00401D8
:103710000160006800F0040001900A200290022479
:103720000394059405260696104F02A93846FEF725
:1037300063FF0420029003940495069602A90C48A6
:10374000FEF75AFF012211463846FFF75CF80121C7
:1037500002910391069602A93846FEF74DFF07B085
:10376000F0BD0000403802403038024000200240E6
:10377000000802402DE9F84F0446DDF828800D4688
:1037800016469B4601274FF0000994F85000012887
:103790000ED0012084F85000FFF73CF8824694F8E0
:1037A0005100616801280ED0B1F5827F07D102E097
:1037B0000220BDE8F88FA16809B9042803D04FF0B2
:1037C000020900F0C3B845B13EB1BBF1000F04D00F
:1037D00094F85100012803D005E04FF00109B5E04D
:1037E000052084F8510000206065A663A4F83EB06F
:1037F000A4F83CB02563A4F836B0A4F834B0206433
:1038000060642068016811F0400F03D1016841F045
:1038100040010160E068B0F5006F05D06068C8B392
:10382000E08E01283ED06EE0606810B1E08E012885
:1038300031D121682888C860AD1CE08E401EE0862A
:1038400029E06FB1E08E58B12068816811F0020F55
:1038500006D02988C160AD1CE08E401EE08600279E
:10386000E08F58B12068816811F0010F06D0C06860
:103870003080B61CE08F401EE0870127B8F1FF3F83
:1038800009D0FEF7C7FFA0EB0A00404503D34FF075
:1038900003095BE006E0E08E0028D2D1E08F00282B
:1038A000CFD136E02168287808736D1CE08E401E69
:1038B000E08628E06FB1E08E58B12068816811F091
:1038C000020F06D015F8011B0173E08E401EE08642
:1038D0000027E08F58B12068816811F0010F06D0F1
:1038E000C06806F8010BE08F401EE0870127B8F1A1
:1038F000FF3F08D0FEF78EFFA0EB0A00404502D341
:103900004FF0030922E0E08E0028D3D1E08F002899
:10391000D0D14346012202212046CDF800A001F07B
:1039200005FD10B14FF0030910E052464146204614
:1039300001F0ACFB20B14FF001092020606505E0EB
:10394000A06818B92068C16880680090012084F8D8
:103950005100002084F850004846BDE8F88F4FF031
:10396000E021042804D0086920F0040008617047B1
:10397000086940F00400086170477047401EB0F1CC
:10398000807F01D3012070474FF0E0214861044A55
:10399000F020107000208861072008610020704727
:1039A00023ED00E010B5FFF7E8FF10BD704770474A
:1039B00010B490F83820012A2AD0012380F838303A
:1039C000022280F839200268D2F804C02CF0700C72
:1039D000C2F804C00268D2F804C00C684CEA040CB7
:1039E000C2F804C00268D2F808C02CF0800CC2F8FB
:1039F00008C00268D2F808C049684CEA0101916029
:103A000080F83930002180F8381010BC0020704751
:103A100010BC0220704710B50446002C03D094F867
:103A2000390010B107E0012010BD002084F83800F3
:103A3000204600F00DF8022084F83900211D20688E
:103A400001F098FF012084F83900002010BD00002B
:103A500008B50068A0F18041B1F5805112D10A4843
:103A6000016841F010010160006800F01000009052
:103A7000012211463620FEF749FFBDE808403620F6
:103A8000FEF738BF08BD0000403802400168CA6830
:103A900042F00102CA600068016841F00101016062
:103AA00000207047022180F8391001680A6A41F24B
:103AB00011131A4207D10A6A9B101A4203D10A68ED
:103AC00022F001020A60012180F8391000207047BD
:103AD000704770B50446206801694FF0000511F089
:103AE000020F17D0C16811F0020F13D0E91E016157
:103AF000012020762068806910F0030F03D0204653
:103B0000FFF7E6FF05E0204600F09DF8204600F0B4
:103B10009BF825762068016911F0040F18D0C16860
:103B200011F0040F14D06FF004010161022020761F
:103B30002068806910F4407F03D02046FFF7C8FF5B
:103B400005E0204600F07FF8204600F07DF825765D
:103B50002068016911F0080F18D0C16811F0080F32
:103B600014D06FF008010161042020762068C0693C
:103B700010F0030F03D02046FFF7AAFF05E0204610
:103B800000F061F8204600F05FF8257620680169B2
:103B900011F0100F18D0C16811F0100F14D06FF091
:103BA00010010161082020762068C06910F4407F70
:103BB00003D02046FFF78CFF05E0204600F043F8D5
:103BC000204600F041F825762068016911F0010FC8
:103BD00009D0C16811F0010F05D06FF0010101613A
:103BE000204600F033F82068016911F0800F09D0F9
:103BF000C16811F0800F05D06FF08001016120468F
:103C0000FFF7D4FE2068016911F0400F09D0C168A8
:103C100011F0400F05D06FF040010161204600F027
:103C20007BF82068016911F0200F0BD0C16811F0FA
:103C3000200F07D06FF0200101612046BDE87040E1
:103C4000FFF7B5BE70BD704770470000F0B583B098
:103C5000274CE088401CE080A088401CA080E088C1
:103C60000025244F0126A0F55061C63909D1E58011
:103C7000387830B1204806702048007808B12048D4
:103C80000670E088A0F5006106390FD11D481EA11D
:103C9000026801A802F04EFA01A8FCF7A9FA82B264
:103CA0004FF47A7301A9194800F05AFAA088A0F5D8
:103CB0006A41CE3907D1A580387820B11448067002
:103CC000607800B966700020124A00EB800101EBB9
:103CD000C00112EBC10105D00B6A012B02D10B6EA2
:103CE0005B1E0B66401C0428EFDB03B0F0BD000038
:103CF00000000020300000203800002031000020AB
:103D00003A0000204000002040256400340C0020D0
:103D1000390000207C0000207047704710B5044631
:103D200022681068D168526900F00F03002B0AD195
:103D300010F0200F07D011F0200F04D02046BDE86E
:103D4000104001F09ABE002B6BD002F0010301F489
:103D5000907C53EA0C0364D010F0010F06D011F4EC
:103D6000807F03D0E36B43F00103E36310F0040FA3
:103D700006D012F0010F03D0E36B43F00203E363BC
:103D800010F0020F06D012F0010F03D0E36B43F0E6
:103D90000403E36310F0080F06D012F0010F03D004
:103DA000E26B42F00802E263E26B002A2ED010F0D0
:103DB000200F05D011F0200F02D0204601F05DFE4B
:103DC00020684069C0F38010E16B01F008010843EE
:103DD00021D0204601F036FE2068416911F0400FE5
:103DE00015D0416921F040014161606B58B118491B
:103DF0000165606BFEF732FB002807D0606B016D38
:103E0000BDE8104008472046FFF787FF10BD204659
:103E1000FFF783FF10BD2046FFF77FFF0020E06320
:103E200010BD10F0800F07D011F0800F04D0204695
:103E3000BDE8104002F00CB810F0400FF0D011F0C7
:103E4000400FEDD02046BDE8104001F009BE000053
:103E5000355A010870B50446002C04D094F8390096
:103E6000002510B106E0012070BD84F838502046CE
:103E700000F022F8242084F839002068C16821F479
:103E80000051C160204601F041FE2068016921F423
:103E9000904101612068416921F02A014161206857
:103EA000C16841F40051C160E563202084F8390005
:103EB00084F83A00002070BDF0B587B00168002793
:103EC00002240125032007233E4EA1F18042B2F5D2
:103ED00088322BD03C4AA1F1804CBCF5904C40D0AC
:103EE000BCF5006320D1116841F004011160116834
:103EF00001F004010191116841F00801116011689D
:103F000001F0080101919114029103940495059028
:103F10000820069002A92D48FEF76EFB04200290AF
:103F200002A92B48FEF768FB07B0F0BD29490A68D3
:103F300042F010020A60096801F01001019140216D
:103F40000291039404950590069302A93046FEF76A
:103F500053FB8021029102A93046FEF74DFB07B0CA
:103F6000F0BD1D49D1F800C04CF4802CC1F800C050
:103F7000096801F480210191116841F0800111600C
:103F8000116801F0800101914FF480610291039466
:103F900004950590069302A93046FEF72DFB4FF4D9
:103FA0000061029102A93046FEF726FB4FF48070B3
:103FB000029003950494069702A90848FEF71CFB9B
:103FC00007B0F0BD00040240303802400008024053
:103FD000000C02404438024040380240001C0240BD
:103FE00090F83A30202B01D002207047D1B1CAB1ED
:103FF00090F83830012B17D081628285C28500216C
:10400000C163222280F83A2080F8381001684A699A
:1040100042F001024A610068C16841F49071C160D8
:104020000020704701207047022070472DE9F041C1
:104030002A4E01683078A1F18042B2F588320FD063
:1040400012F5484247D1274A254B11885854481C3D
:1040500010803146BDE8F04101222348FFF7C0BF80
:10406000224C234F218809B9202802D07854491CBA
:10407000218000254FF00108232809D186F802800D
:104080001CA002F047F82088384400F8015C258025
:104090003078212809D186F803801CA002F03AF874
:1040A0002088384400F8015C2580307826280BD120
:1040B0002088052808D21BA002F02CF820A002F0CE
:1040C00029F8254880F80080BDE8F0410122034925
:1040D0002248FFF785BFBDE8F08100000000002006
:1040E0000004002034000020B40C00203200002026
:1040F00064040020B0B2D7BFC5E4D6C3D0C5CFA2F8
:10410000A3BABDD3CAD5CDEAB3C90A00B0B2D7BFEE
:10411000C3FCC1EED0C5CFA2A3BABDD3CAD5CDEAE8
:10412000B3C90A000AB0B2D7BFB2E2CAD4D0C5CF71
:10413000A2A3BABDD3CAD5CDEAB3C90A0000000014
:10414000CFB5CDB3D7BCB1B8D6D8C6F4A3ACB8FC04
:10415000D0C2B3CCD0F20A0047000020340C0020BB
:104160002DE9F84304460D4691461E4694F8390061
:10417000202802D00220BDE8F8834DB3B9F1000F2A
:1041800026D094F83800012825D0012084F8380082
:104190000027E763212084F83900FEF73BFB8046C7
:1041A000A4F82490A4F82690E08CA0B3E08C401EE4
:1041B000E084A068B0F5805F10D0434600228021E3
:1041C0002046009601F077FEF0B10320BDE8F883A9
:1041D0000120BDE8F8830220BDE8F88343460022B1
:1041E00080212046009601F066FE10B10320BDE854
:1041F000F88328882168C0F308004860206908B166
:104200006D1C05E0AD1C03E0216815F8010B48604A
:10421000E08C0028CAD14346002240212046009667
:1042200001F049FE10B10320BDE8F883202084F896
:10423000390084F838700020BDE8F883704700F03A
:1042400011FFFEE770B586B000256A48016841F0AD
:1042500040010160016801F040010091016841F0F6
:1042600040010160016801F040010091016841F0E6
:1042700040010160016801F040010091016841F0D6
:1042800040010160016801F040010091016841F0C6
:1042900040010160016801F040010091016841F0B6
:1042A00040010160016801F040010091016841F0A6
:1042B00040010160016801F040010091016841F096
:1042C00040010160016801F040010091016841F086
:1042D00040010160016801F040010091016841F076
:1042E00040010160016801F040010091016841F066
:1042F00040010160016801F040010091016841F056
:1043000040010160006800F0400000900120019031
:10431000029502240394384E01A93046FEF76CF949
:1043200001940295039401A93046FEF765F9042033
:104330000190039401A93046FEF75EF90820019030
:104340000295039401A93046FEF756F9102001901A
:104350000295039401A93046FEF74EF92020019002
:104360000295039401A93046FEF746F940200190DA
:104370000295039401A93046FEF73EF98020019092
:104380000295039401A93046FEF736F9E001019049
:104390001A4D0295039401A93046FEF72DF920022B
:1043A00001900295039401A93046FEF725F96002B9
:1043B00001900295039401A93046FEF71DF9A00370
:1043C00001900295039401A93046FEF715F90122E8
:1043D00000212820FEF79AFA2820FEF78BFA002207
:1043E00001211720FEF792FA1720FEF783FA06B094
:1043F00070BD00003038024000180240000021105B
:1044000070B50D282CD2DFE800F02B070A0D101331
:1044100016191C1F222528001B4C022520E01A4CCF
:1044200002251DE0184C04251AE0174C082517E05A
:10443000154C102514E0144C202511E0124C402599
:104440000EE0114C80250BE00F4CA51508E00E4C3A
:10445000651505E00C4C251502E00B4C4FF40045AA
:1044600029462046FEF7C8F9012808D11420FEF796
:1044700007F829462046FEF7BFF9012801D00120A0
:1044800070BD002070BD00000018024010B4002371
:104490000022B1F800C0012101FA02F41CEA040F65
:1044A00005D0C2F10F0401FA04F423439BB2521C5D
:1044B000102AF1DB038010BC704710B400230022E7
:1044C00091F800C0012101FA02F41CEA040F05D0A2
:1044D000C2F1070401FA04F42343DBB2521C082A98
:1044E000F1DB037010BC7047F0B587B0234801685A
:1044F00041F080010160016801F0800101910168D3
:1045000041F010010160016801F0100101910168A2
:1045100041F010010160006800F010000190184F98
:1045200000224FF400713846FEF76DF9154E002257
:1045300020213046FEF767F9002240213046FEF781
:1045400062F970150290012403940225059502A9D1
:104550003846FEF751F8202102910394059502A9EF
:104560003046FEF749F8402002900394059502A9D1
:104570003046FEF741F807B0F0BD00003038024089
:10458000001C02400010024008B500210D480268DE
:1045900042F002020260006800F0020000900B4846
:1045A000094A02604FF4965242608160C160016125
:1045B0000C2242618161C161FFF74CFCBDE80840FB
:1045C00000F006B83038024000100140340C0020E2
:1045D00010B5022200212520FEF798F9BDE8104011
:1045E0002520FEF787B910B5002201212720FEF70C
:1045F0008DF9BDE810402720FEF77CB910B50022E8
:1046000003213520FEF782F9BDE810403520FEF782
:1046100071B9000010B518481649016000214160C9
:104620007F228260FF22C260016141618161FEF7E9
:104630007FFE01211048FEF71DFEA0F54851F1391B
:1046400003D0BDE8104000F083BC0C4C206810F093
:10465000006F02D00AA001F05DFD206810F0806FAD
:1046600002D00CA001F056FD206840F08070206060
:1046700010BD000000280040880D00207438024062
:10468000B7A2C9FAC9CFB5E7B8B4CEBBA3A1A3A15D
:10469000A3A10A00B7A2C9FACDE2B2BFD2FDBDC53F
:1046A000B8B4CEBBA3A1A3A1A3A10A000C480B4997
:1046B00001604FF48271416000218160C16002227B
:1046C000026101224261520282610822C2610162DA
:1046D000416281620A21C162FEF7BABF0038004020
:1046E000300D002008B500210D48026842F4801208
:1046F0000260006800F4801000900B48094A0260D4
:104700004FF4E13242608160C16001610C2242617C
:104710008161C161FFF79EFBBDE80840FFF76EBFF6
:104720004038024000500040740C002000F09AFC19
:10473000FEE700002DE9F0472DED028B92B00C460C
:10474000904600250D950E950F95109511950095A5
:10475000019502950395049505950695079508958D
:1047600009950A950B950C950021C04AE9461288D7
:10477000002A05DD435C09F80130491C9142F9DB50
:1047800011466846FCF7FEFC60B1B9A001F0C2FC1E
:10479000606D401C6065FCF74FFE12B0BDEC028BF3
:1047A000BDE8F087BBA001F0B5FCC3A104F15C003B
:1047B000FBF725FD0DF1FF36B71C0DF1020A50B1D4
:1047C000BFA104F15C00FBF71AFD002854D0BEA085
:1047D00001F0A0FCE1E7C5A104F17400FBF70FFDB7
:1047E000A8B1E06E042835D0A06E805D8DF836004B
:1047F000A06E19F800008DF837008DF834508DF850
:1048000035500DA8FCF7F8FBB0EE408A50E0E06EA2
:1048100004280DD0A06E19F800008DF83600A06EA7
:10482000805D8DF837008DF834508DF83550E8E70D
:10483000A06E805D8DF83600A06E19F800008DF82E
:104840003700A06EC15D8DF8341010F80A008DF8A5
:104850003500D6E7A06E815D8DF8341019F80000A0
:104860008DF83500A06EC05D8DF83600A06E10F892
:104870000A008DF83700C4E7E06E022849D0A06E28
:10488000815D8DF8341019F800008DF83500A06EA8
:10489000C05D8DF83600A06E10F80A008DF8370064
:1048A0000DA8FCF761FC216F03F0EEF9B0EE408A31
:1048B00018EE100AFBF728FE41EC100B8CA053EC0D
:1048C000102B01F027FCD4F88000D0B1D4F884106C
:1048D000B9B19FED900A081AC8EE000A00D540420F
:1048E00000EE100AB8EEC00A20EE808A18EE100A18
:1048F000FBF70AFE41EC100B87A053EC102B01F0E4
:1049000009FCB8F1050F7DD2DFE808F0112F4D6BDF
:104910008B008DF834508DF83550A06E805D8DF889
:104920003600A06E19F800008DF83700B8E77E4811
:1049300090ED000AB4EEC80AF1EE10FA11D87B48E7
:1049400090ED000AB4EEC80AF1EE10FA09DB94ED1E
:10495000140A30EE080A84ED140AA06D401CA0650C
:1049600080E0606D401C60657CE0714890ED000A5D
:10497000B4EEC80AF1EE10FA11D86E4890ED000AB4
:10498000B4EEC80AF1EE10FA09DB94ED140A30EE29
:10499000080A84ED140AA06D401CA06562E0606DF9
:1049A000401C60655EE0644890ED000AB4EEC80A01
:1049B000F1EE10FA11D8614890ED000AB4EEC80A81
:1049C000F1EE10FA09DB94ED140A30EE080A84EDDA
:1049D000140AA06D401CA06544E0606D401C606539
:1049E00040E0574890ED000AB4EEC80AF1EE10FA24
:1049F00013D8544890ED000AB4EEC80AF1EE10FA4C
:104A00000BDB00E02BE094ED140A30EE080A84ED95
:104A1000140AA06D401CA06524E0606D401C606518
:104A200020E0494890ED000AB4EEC80AF1EE10FA11
:104A300011D8464890ED000AB4EEC80AF1EE10FA1B
:104A400009DB94ED140A30EE080A84ED140AA06D17
:104A5000401CA06506E0606D401C606502E03CA063
:104A600001F058FBFCF7E8FC97E600003600002058
:104A70004D6F6462757370726F63657373A3BAB4BC
:104A8000ABB8D0C6F7BDD3CAD5CAFDBEDDB4EDCE36
:104A9000F30A00004D6F6462757370726F63657323
:104AA00073A3BAB4ABB8D0C6F7BDD3CAD5CAFDBEDE
:104AB000DDD5FDC8B70A0000466C6F6174000000C8
:104AC000496E7465676572000A4D6F646275737034
:104AD000726F636573733A4E6F7420636F6D7061AC
:104AE000746962696C6974790A0000006269670020
:104AF0000A4D6F6462757370726F63657373B2C9C8
:104B0000BCAFCAFDBEDD2076616C75653A252E32DC
:104B1000660A000000409C460A76616C75653A257D
:104B20002E32660A00000000180000201C00002041
:104B30002000002024000020280000202C0000205D
:104B40001000002014000020080000200C000020AD
:104B5000B4ABB8D0C6F7B2CECAFDB4EDCEF3A3A1C4
:104B60000A00000000F07EBA70B586B023480168E4
:104B700041F020010160016801F02001009101680D
:104B800041F020010160016801F0200100910168FD
:104B900041F020010160016801F0200100910168ED
:104BA00041F020010160006800F0200000904FF407
:104BB000805001901125029502240494104E01A901
:104BC0003046FDF719FD200301900295049401A9D8
:104BD0003046FDF711FD600301900295049401A990
:104BE0003046FDF709FDA00301900295049401A948
:104BF0003046FDF701FD06B070BD000030380240C0
:104C0000001402400821014800F02CB95000002097
:104C1000F0B58DB00446214644A001F07BFA00F0C7
:104C2000C3F900220092019202920392049205922B
:104C300006920792089209920A920B920C92012511
:104C400001273E483E4E312C12D0322C26D0332C38
:104C50003CD0342C52D0002521463AA001F05AFA1B
:104C6000002D03D0214643A001F054FA0DB0F0BD51
:104C700001221103FDF7C7FD3B463762304A44A1CC
:104C8000684601F057FA6846FBF7B2FA82B24FF471
:104C90007A7369464148FFF763FAE1E7012211039D
:104CA000FDF7B1FD3B46C6F8887006F168023CA1ED
:104CB000684601F03FFA6846FBF79AFA82B24FF471
:104CC0007A7369463548FFF74BFAC9E701221103A9
:104CD000FDF799FD3B46C6F8F07006F1D00233A10E
:104CE000684601F027FA6846FBF782FA82B24FF471
:104CF0007A7369462948FFF733FAB1E701221103B5
:104D0000FDF781FD3B46C6F8587106F59C722AA155
:104D1000684601F00FFA6846FBF76AFA82B24FF470
:104D20007A7369461D48FFF71BFA99E7B4F2BFAAE8
:104D3000BCCCB5E7C6F73A25630A00000014024070
:104D40007C0000204F70656E5F44656C61793AB4F9
:104D5000F2BFAABCCCB5E7C6F7CAA7B0DCA3ACBC0F
:104D6000CCB5E7C6F7B6CBBFDAB4EDCEF3256321F9
:104D70000A0000004F70656E5F44656C61793AB45B
:104D8000F2BFAA2563B6CBBFDABCCCB5E7C6F70045
:104D90002A25732C312C256400000000340C0020DF
:104DA0002A25732C322C2564000000002A25732C40
:104DB000332C2564000000002A25732C342C256434
:104DC000000000000821014800F04CB84800002015
:104DD00000F048B97047000070B504460026267000
:104DE0000EA001F097F94FF4FA70FDF749FB0EA001
:104DF00001F090F91421104800F0EAFC0F4D10A0CA
:104E0000298801F087F92978217011B910A001F0E3
:104E100081F91349288808802E8070BDCAFDBEDD47
:104E2000B2C9BCAFD6D00A00B4ABB8D0C6F7BDD3B8
:104E3000CAD5CDEAB3C90A0000040020340000201E
:104E4000BDD3CAD5B3A4B6C8A3BA25640A0000006E
:104E5000CAFDBEDDB2C9BCAFCAA7B0DC0A00000003
:104E60003600002070B505460E46144C0122110292
:104E70002046FDF7C8FC4FF6FF733246294610481E
:104E8000FFF76EF9002818D10D480068016811F08D
:104E9000400FFBD000224FF480712046FDF7B3FC99
:104EA0001421084800F094FC07A001F033F93146C2
:104EB0002846BDE8704000F08BBC70BD001C02406D
:104EC000B40C0020000400200A5253343835B7A235
:104ED000CBCDCAFDBEDDB3C9B9A63A0008B50021E5
:104EE0000D48026842F002020260006800F0020011
:104EF00000900B48094A02604FF4165242608160EC
:104F0000C16001610C2242618161C161FEF7A2FFB3
:104F1000BDE80840FFF767BB30380240004800405A
:104F2000B40C0020010901EB8101490000F00F00E1
:104F30000844C0B2704700210A2804D3491C0A382B
:104F4000C0B20A28FAD2090740EA1160704700008F
:104F500000B587B003208DF8040009208DF8050006
:104F600005208DF8060018208DF80700012201A900
:104F70000C48FEF74FFA19208DF8080016208DF81E
:104F8000090000208DF80A00012202A90548FEF759
:104F9000B9FA43F2F12201210248FEF771F907B094
:104FA00000BD0000880D002000B587B0002201A9D7
:104FB0000E48FEF78FF9002206A90C48FEF766F9A5
:104FC0009DF81B009DF81A3000F5FA619DF8192034
:104FD00007A001F09FF89DF806309DF805209DF888
:104FE00004100BA001F096F807B000BD880D00205A
:104FF000B5B1C7B0CAB1BCE4CEAA3A2025303264FC
:10500000C4EA25303264D4C225303264C8D50000E9
:10501000253032643A253032643A253032640A0051
:1050200070B504462068C16811F0400F17D14FF0E9
:10503000FF31C160FDF7EEFB05462068C06810F047
:10504000400F0CD1FDF7E6FB401BB0F57A7F01D98C
:10505000032070BD2068C06810F0400FF2D000201F
:1050600070BD0000012080F31388BFF34F8F054807
:105070000168054A01F4E06111430160BFF34F8FFD
:1050800000BFFDE70CED00E00400FA0538B504466A
:105090000B46009200228021204600F047F928B1FB
:1050A000606D40F020006065032038BD002038BDF1
:1050B0002DE9F04105460C461746134E002201210A
:1050C0003046FDF7A0FB032000F0ECF8C4F30740E6
:1050D00000F0E8F8C4F3072000F0E4F8E0B200F0D4
:1050E000E1F8781E84B207D3FF2000F0DBF82870C7
:1050F0006D1C611E8CB2F7D23046BDE8F041012232
:105100001146FDF780BB0000002002402DE9F0476A
:1051100006460C46E1B2C1F58070C5B2100AD7B29E
:1051200000292FD0E1B2C1F58071C9B204EB010AA8
:10513000002844D0501B80B24FEA102900F0FF082D
:105140002A462146304600F053F857463544B9F117
:105150000100C4B20CD34FF480723946284600F0E7
:1051600047F807F5807705F58075611ECCB2F2D25D
:10517000B8F1000F39D0424639462846BDE8F0471D
:1051800000F036B8A8B1401EC5B24FF48072214677
:10519000304600F02DF804F5807406F58076691E1F
:1051A000CDB2F2D23A4621463046BDE8F04700F093
:1051B0001FB821463046BDE8F04700F019B8AF42AD
:1051C0000DD9781BC7B22A462146304600F010F8A8
:1051D00070193A465146BDE8F04700F009B821463B
:1051E0003046BDE8F04700F003B8BDE8F0870000A6
:1051F0002DE9F04105460C46164600F083F8154FA0
:10520000002201213846FDF7FEFA022000F04AF89C
:10521000C4F3074000F046F8C4F3072000F042F85A
:10522000E0B200F03FF8B6F5807F00D9BE15701EE1
:1052300084B206D3287800F035F86D1C611E8CB25C
:10524000F8D2012211463846FDF7DDFABDE8F041FB
:1052500000F03EB80020024070B5044600F052F85D
:1052600000F036F80E4D002201212846FDF7CBFA5A
:10527000202000F017F8C4F3074000F013F8C4F33F
:10528000072000F00FF8E0B200F00CF80122114600
:105290002846FDF7B8FABDE8704000F019B80000E4
:1052A0000020024000B583B001906FF07F40009075
:1052B000012302AA01A90548FEF75CFA08B1FF2004
:1052C00002909DF8080003B000BD0000300D0020E2
:1052D00010B50B4C002201212046FDF794FA052061
:1052E000FFF7E0FFFF20FFF7DDFF10F0010FF9D11E
:1052F00020460122BDE810401146FDF784BA0000A7
:105300000020024010B5084C002201212046FDF784
:105310007AFA0620FFF7C6FF20460122BDE81040BA
:105320001146FDF770BA0000002002402DE9F0415F
:105330000446069E884617461D462068806838EA5F
:10534000000015D00020B84240D0B5F1FF3F35D065
:1053500025B1FDF75FFA801BA8422FD32068416872
:1053600021F0E00141606068B0F5827F02D00DE07D
:105370000120E8E7A068B0F5004F02D0B0F5806FDB
:1053800004D12068016821F040010160A06AB0F5F5
:10539000005F0AD1206801684DF6FF72114001607C
:1053A0002068016841F400510160012084F8510037
:1053B000002084F850000320BDE8F0812068806858
:1053C00038EA000005D00020B842BED10020BDE878
:1053D000F0810120F8E7FFF745BE00002DE9F04F0E
:1053E0002DED028BADF27C6D4FF4C8610EA8FAF77B
:1053F000F4FE4FF00008002001900290039004900A
:10540000059006900790089009900A900B900C90D8
:105410000D9000900DF138090DF1040AB7EE008AE5
:105420003B49C8EBC80B01EBCB00CDF87806446BC9
:10543000002751F83B0000285EDD04F11E0135A075
:1054400000F068FE04F11E00FAF7D2FE00284BD0EF
:1054500004F11E0101A8FAF7E0FE33A201A90EA88B
:1054600002F0E2FC06460025002E0ADD05EB850071
:1054700009EB001002F04AFA0AF805006D1CB5426B
:10548000F4DBB8F1040F03D19DF80500302815D0E6
:10549000F1B201A8FFF7E6FC314624A000F03AFE85
:1054A0006846FFF799FC9DF80000D0B1DDF878065A
:1054B000214642682148FFF73DF915E09DF80400B8
:1054C00000F09EF948B1A06D401CA06594ED140A4F
:1054D00030EE080A84ED140A08E0606D401C606537
:1054E00004E0606D401C6065D4F888407F1C08486B
:1054F00050F83B00B842A0DC08F10108B8F1050FF4
:105500008EDB0DF27C6DBDEC028BBDE8F08F0000F0
:10551000E80200200A636F6C6C656374696F6E202B
:10552000636D643A25730A002E0000000A53656E0D
:1055300064206E756D3A25640A2000000004002086
:105540002DE9F04FADF2DC5D51A000F0E3FD4FF42A
:10555000FA71FAA8FAF741FE4FF0000900244FF45F
:105560007A716846FAF739FE00250127504E3078E7
:1055700030B150496846FAF750FE0020307003E021
:105580004D496846FAF749FE6846FAF731FE824609
:105590000020FBF7D1FE0120FBF7CEFE0220FBF737
:1055A000CBFE0320FBF7C8FE0420FBF7C5FE052059
:1055B000FBF7C2FE41A16846FAF738FE06464FF0F7
:1055C000010B002E4FD0681CC5B23146FAA8FAF77D
:1055D00024FE9DF8E8833046FAF70AFE2044441C76
:1055E0000DEB040035A1FAF721FE0646544500DB19
:1055F0000026A8F1300006282BD2DFE800F00309CE
:105600000F151B21FAA90020FCF70CFC814625E0B0
:10561000FAA90120FCF706FC81461FE0FAA9022046
:10562000FCF700FC814619E0FAA90320FCF7FAFB1D
:10563000814613E0FAA90420FCF7F4FB81460DE053
:10564000FAA90520FCF7EEFB81461D4880F800B062
:1056500004E0002741461BA000F05CFDB9F1FF3FCC
:1056600010D0002EAFD117B11EA000F053FD002DB9
:1056700004D0002F02D0224880F800B00DF2DC5D8B
:10568000BDE8F08FFBF792FC0DF2DC5DBDE8F08F1A
:10569000536176655F44617461A3BABFAACABCB1A5
:1056A000A3B4E6C5E4D6C3D0C5CFA20A000000006B
:1056B0003B00002032040020640400203B00000076
:1056C00031000020536176655F44617461A3BA259F
:1056D0006420C5E4D6C3D0C5CFA2B4EDCEF321215A
:1056E000210A0000536176655F44617461A3BAC505
:1056F000E4D6C3D0C5CFA2CDEAB3C9212121000091
:105700003000002070B5ADF5806D06463046FAF7E2
:105710006FFD451C0024FA94FB94FC94FD94FE94C8
:10572000FAA9284602F022F931461A48FAF775FD1F
:1057300031466846FAF771FD0DEB050023226946F4
:1057400000F8012C144A1268012A1FD030224A5551
:1057500044706C1C114D2846FFF77EFDFAA8FAF73D
:1057600047FD82B22946FAA8FFF7D0FC6846FAF74F
:105770003FFD82B20A496846FFF7C8FC22466946E7
:1057800008A000F0C7FC0DF5806D70BD31224A55B0
:10579000DEE700004C0800204000002000FF0F085A
:1057A0000AFF0F08536176655F4465766963655F3C
:1057B00044617461A3BAB1A3B4E6C5E4D6C3A3BA85
:1057C000257320200AB4F3D0A1A3BA25640A0000EF
:1057D00070B506460D460024002D06DD315D05A09E
:1057E00000F098FC641CAC42F8DBBDE8704003A0FC
:1057F00000F090BC25303278200000000A00000044
:1058000010B5FEF7FDFD20B104A000F083FC0120DF
:1058100010BD0BA000F07EFC002010BD53696D751B
:105820006C6174696F6E5F4C6576656C3AC3BBD30F
:10583000D0BCECB2E2B5BDD2BACEBB0A00000000CB
:1058400053696D756C6174696F6E5F4C6576656CDC
:105850003ABCECB2E2B5BDD2BACEBB0A0000000041
:1058600010B5FCF7DDFFBDE81040FEF79BB8000067
:1058700030B593B000252348016841F080510160A4
:10588000006800F0805000901F48016841F480419A
:105890000160006800F48040009001200690000440
:1058A000079002240C9480010D9008200E904FF474
:1058B000A8700F9010940720119006A8FDF7BAFA6F
:1058C0000F200190029403954FF4A0500490E00241
:1058D0000590052101A8FDF737F9FDF72DFAFDF731
:1058E00031FA4FF47A71B0FBF1F0FEF747F804207B
:1058F000FEF735F800221146501EFDF707F813B0E9
:1059000030BD000040380240007000400F48016880
:1059100041F4700101600E48016841F0010101602D
:105920000C4A00211160026822F4102222F08072D9
:105930000260031D084A1A60026822F48022026095
:1059400006480160074906480860704788ED00E096
:105950000038024008380240103000240C38024061
:105960000000010808ED00E00148FEF7B2B80000B1
:10597000F40C0020F0B40268264BDFF89CC0274DE1
:10598000274E284C98420AD0B0F1804F07D060458E
:1059900005D0A84203D0B04201D0A04203D122F0EA
:1059A00070024F683A4398421ED0B0F1804F1BD02E
:1059B000604519D0A84217D0B04215D0A04213D0EC
:1059C000A0F1804CBCF5A03C0ED0BCF5806C0BD097
:1059D000BCF5806C08D01CF5983C05D0BCF5806CFB
:1059E00002D0BCF5806C05D122F44072D1F80CC015
:1059F0004CEA020202608A68C2620A6882629842C5
:105A000001D0A04201D10969016301214161F0BCCB
:105A10007047000000000140000400400008004002
:105A2000000C0040000401400148FEF777B9000077
:105A3000740C002010B5806B0021C185C184FEF775
:105A40006CF910BD0168CA6822F49072CA600168DE
:105A50004A6922F001024A61202180F83A10704719
:105A600010B50168CA6822F04002CA60202180F89F
:105A70003910FEF7E3FB002010BD10B590F83A1086
:105A8000222901D0022010BD8168B1F5805F11D0BC
:105A9000016919B30168496801F07F02816A4B1CF2
:105AA00083620A70C18D491E0904090CC1851CD08E
:105AB000002010BD816A02693AB102685268D2B210
:105AC0000A80816A491C8162ECE702685268C2F36D
:105AD00008020A80816A891C8162E3E701684A68DA
