:020000040801F1
:10000000203C00209D010108B55B01084552010814
:100010001157010869120108D97501080000000094
:1000200000000000000000000000000083670108DD
:100030005921010800000000BD5E0108196D01088A
:10004000B7010108B7010108B7010108B7010108AC
:10005000B7010108F15E0108B7010108B701010805
:10006000B7010108B7010108B7010108B70101088C
:10007000B7010108B7010108B7010108B70101087C
:10008000B7010108B7010108B7010108B70101086C
:10009000B7010108B7010108B70101081B260108D3
:1000A000B7010108B7010108B7010108B70101084C
:1000B000B7010108B7010108B7010108B70101083C
:1000C000B7010108B7010108B7010108B70101082C
:1000D000B7010108F1730108B7010108FD730108B8
:1000E00005260108B7010108B7010108B701010899
:1000F000B7010108B7010108B7010108B7010108FC
:10010000B7010108B7010108B7010108B7010108EB
:10011000B7010108B7010108216E0108B701010804
:10012000B7010108B7010108B7010108B7010108CB
:10013000B7010108B7010108B7010108B7010108BB
:10014000B7010108B7010108B7010108B7010108AB
:10015000B7010108B7010108B7010108B70101089B
:10016000B7010108B7010108B7010108B70101088B
:10017000B7010108B7010108B7010108000000003C
:10018000B7010108B7010108DFF80CD000F07CFCD2
:1001900000480047F98E0108203C002006488047AF
:1001A00006480047FEE7FEE7FEE7FEE7FEE7FEE75C
:1001B000FEE7FEE7FEE7FEE7C56D010889010108DD
:1001C000A0F14101192900D820307047D2B201E0D6
:1001D00000F8012B491EFBD270470022F6E710B54C
:1001E00013460A4604461946FFF7F0FF204610BDA5
:1001F000421C10F8011B0029FBD1801A704710B572
:10020000002200E0521C835C8C5CA34201D1002BD5
:10021000F8D1D8B2E1B2401A10BD034611F8012B53
:1002200000F8012B002AF9D11846704770B50F4D20
:1002300000B92868002412E00A4602E09E4203D07A
:10024000521C1378002BF9D1DAB2224305D02BB11E
:1002500024B1002100F8011B04E00446401C06788C
:10026000002EE9D12860204670BD0000EC0000207F
:1002700070B5064607F004FA046805460A22002114
:10028000304600F0F5FA2C6070BD2DE9FE4F804637
:1002900081EA0300C00F0C46009021F0004123F0DA
:1002A0000045B8EB0200A94105D2404621469046E0
:1002B0001C460B46024623F00040104347D0270D52
:1002C000C7F30A00C3F30A510290401A0190402874
:1002D0006BDAC3F3130040F4801B0098924620B100
:1002E0000023D2EB030A63EB0B0B01985946C0F1D4
:1002F0004002504600F03DFA06460D46504659462B
:10030000019A00F055FA10EB08006141002487EAD9
:10031000115284EAE7731A4340D0009A62B3019AFB
:10032000012A4FEA075215DC001B61EB02014FF076
:10033000004202EA0752CDE90042001C41F580115B
:1003400032462B4600F012FB03B0BDE8F08F40466A
:100350002146F9E7001B61EB0201001C41F5801307
:1003600000185B412018A2F5001747EB030140EA93
:10037000D570B6196D4111E06D084FEA360645EAB1
:10038000C0754FEA0752001B61EB0201001C41F5EA
:10039000801149084FEA30000019514132462B467E
:1003A00003B0BDE8F04F00F0D2BA0098012240003F
:1003B0000023D0EB020263EBE073009821464FEA82
:1003C000E074B8EB000061EB0401E9E783F000435F
:1003D0005BE781F0004158E72DE9FE4F81EA030415
:1003E00004F0004421F0004100944FF0000B23F092
:1003F000004350EA01045ED052EA03045BD0C3F329
:100400000A54C1F30A552C44A4F2F3340194A0FB1E
:100410000254C1F3130141F48011C3F3130343F4F5
:10042000801301FB024400FB034E840A970A44EA4E
:10043000815447EA8357A4FB076802958D0A05FBA0
:1004400007854FEA932C04FB0C542705029D4FEAC5
:10045000065847EA1637B5EB08056EEB070C870E12
:10046000920E47EA811742EA8312A7FB0201B6EB1C
:100470000B0164EB00042B0D43EA0C335E1844EBD4
:100480001C50DA465146E7FB0201C5F313044FEA5C
:100490000B3343EA14534FEA0432019C43EA060348
:1004A000A4F10C040294009CCDE900B400F05EFAC3
:1004B00003B0BDE8F08F00200146F9E72DE9F04DCB
:1004C00081EA030404F0004B21F0004514464FF08C
:1004D000000A23F0004150EA050220D054EA01024C
:1004E0001DD0C5F30A570246C5F31303C1F3130029
:1004F000C1F30A5640F4801543F48013A7EB0608B5
:10050000101BD64608F2FD3873EB050002D308F144
:10051000010801E092185B41B8F1000F03DA0020F6
:100520000146BDE8F08D00204FF480110646844658
:100530000EE0171B73EB050705D3121B63EB0503D6
:1005400006434CEA010C49084FEA300092185B411F
:1005500050EA0107EDD152EA030012D082EA04000A
:1005600083EA0501084305D0101BAB4106D20122E6
:10057000002306E000224FF0004302E06FF001028A
:1005800053101AEB06004CEB085110EB0A0041EB3C
:100590000B01BDE8F04D00F0DAB90EB540F2334181
:1005A00002910021CDE900110A460B4600F0DEF968
:1005B00003B000BD70B5C1F30A5201F0004500243C
:1005C000C1F3130140F2FF3341F480119A4201DA82
:1005D000002070BD40F233439A42A2F2334203DC62
:1005E000524200F0D5F800E090402C43F1D0404258
:1005F00070BDC1F30A5210B5C1F3130140F2FF33CD
:1006000041F480119A4201DA002010BD40F23343D8
:100610009A42A2F2334203DC524200F0B9F810BD14
:10062000904010BD00F0004230F000400AD0C10DF3
:1006300001F56071C0F3160042EA0151C20840079B
:1006400011437047002001467047000030B5041E7A
:1006500071F1000404DB4FF00044404264EB0101FF
:10066000141E73F1000405DB1C464FF00043524298
:1006700063EB04038B4208BF824230BD30B5041ED9
:1006800071F1000404DB4FF00044404264EB0101CF
:10069000141E73F1000405DB1C464FF00043524268
:1006A00063EB0403994208BF904230BD01F0004360
:1006B00030B421F0004150EA010206D00A0DA2F543
:1006C0006072C1F31301002A02DC30BC00207047C5
:1006D000440F44EAC104C100E01830BC00EBC25032
:1006E00000F0FEB830B50B46014600202022012460
:1006F00009E021FA02F59D4205D303FA02F5491BF0
:1007000004FA02F52844151EA2F10102F1DC30BD05
:100710002DE9F05F0546002092469B468846064636
:10072000814640241BE0284641464746224600F0C9
:100730002FF853465A46C01A914110D31146184615
:10074000224600F016F82D1A67EB01084F462246A4
:100750000120002100F00DF817EB00094E41201E8A
:10076000A4F10104DFDC484631462A464346BDE891
:10077000F09F202A04DB203A00FA02F100207047A3
:100780009140C2F1200320FA03F3194390407047CF
:10079000202A04DB203A21FA02F00021704721FAD6
:1007A00002F3D040C2F1200291400843194670473D
:1007B000202A06DBCB17203A41FA02F043EAE07325
:1007C00006E041FA02F3D040C2F120029140084312
:1007D000194670470FB4002300B589B00CA90091E9
:1007E0000B996FF00042CB601E4B06931E4B079394
:1007F0000423CDE901321D4A089202466B460020CF
:1008000000F0F6F909B05DF814FB70B586B0064645
:100810004FF0FF300091CDE90101002015460C4654
:1008200004903246694604A8FFF7D4FF02460498B4
:10083000211825B108B1084600E020462860049838
:1008400000280DD0002A02DD0098884208D0081B3D
:100850000094CDE901043246694604A8FFF7BAFFC7
:1008600006B070BD290E0108470E0108B50A01083F
:100870002DE9F04791460F4680460446002614F8BD
:10088000015B2DB100F012F90068405DC007F6D1A0
:100890002B2D02D02D2D18D0641E4A4639462046F5
:1008A00000F0E2FA27B13968A14201D1C7F800800F
:1008B00071054FF002040BD54042002803DD06F01D
:1008C000DFFE0460A007BDE8F08746F48066E4E739
:1008D0000028F8DA06F0D4FE04606FF00040F2E77A
:1008E0000029A8BF7047401C490008BF20F0010044
:1008F000704710B4B0FA80FC00FA0CF050EA010422
:1009000004BF10BC704749B1CCF1200421FA04F4B3
:1009100011FA0CF118BF012121430843A3EB0C018C
:10092000CB1D4FEA00614FEA102042BF002010BCEF
:10093000704700EBC35010440029A4BF10BC70479F
:10094000401C490008BF20F0010010BC704710B5E2
:10095000141E73F1000408DA401C41F100019218E2
:100960005B411A4301D120F0010010BD2DE9F04D8B
:1009700092469B4611B1B1FA81F202E0B0FA80F2E0
:1009800020329046FFF7F5FE04460F4640EA0A0083
:1009900041EA0B0153465A46084313D0114653EA25
:1009A000010019D0C8F140025046FFF7F1FE05469C
:1009B0000E46504659464246FFF7DBFE084305D037
:1009C000012004E020463946BDE8F08D00200543B3
:1009D00046EAE0762C4337430A986305E40AA0EB25
:1009E00008000022FD0A44EA47540A3002D50020DC
:1009F0000146E9E7010510196941DDE908450019DB
:100A00006941BDE8F04DA2E770B521F00043034312
:100A10000CD0C1F30A550024D5EB040564EB0403A4
:100A2000D617AD1AB34102DB0020014670BD201875
:100A300041EB025170BD0EB5C10F80EAE070084471
:100A4000CA07002140F233438DE80E000A460B46E8
:100A5000FFF78CFF03B000BDC1F30A52C1F31301CD
:100A600040F2FF3341F480119A4202DA002001463D
:100A7000704740F233439A42A2F2334202DC5242C0
:100A8000FFF786BEFFF775BE064C074D06E0E0682F
:100A900040F0010394E8070098471034AC42F6D3C5
:100AA000FFF776FB38970108589701080048704710
:100AB0003497010810B50446FFF7F8FF0068005DA1
:100AC00000F0010010BD00002DE9FF4F087883B051
:100AD0009946FF2805D0491C2D2804D00024002069
:100AE00008E000200BE00124F9E700EB800003EBB5
:100AF0004000491C0B78FF2BF7D104B14042002382
:100B00000293147819461D462D2C01D02B2C04D1AC
:100B1000521C2D2C13D000240294AA461478FF2CCA
:100B20000FD00A25A3FB057801FB05814FF0000CCF
:100B300003FB0C11521CE3194AEB0101EEE70124FF
:100B4000EAE7814453EA010002D019F5C87F06DACA
:100B500003980021C0E9001107B0BDE8F08F00251F
:100B6000AE4E2F46DFF8B882184600F02BFACDE9DA
:100B70000001B9F1000002DAC9F1000400E0044606
:100B80000023A74A1AEB030B42EB045A12E0E007DA
:100B900007D02A46334638464146FFF71DFC074634
:100BA00088462A46334610461946FFF715FC054687
:100BB0000E466410002CEAD1DDE90001B9F1000F06
:100BC0005A46534606DAFFF779FC3A464346FFF7A2
:100BD00075FC05E0FFF700FC3A464346FFF7FCFBD7
:100BE000029A0AB181F00041039AC2E90001B3E719
:100BF0002DE9FF4F1F468DB0D7E901464FF0FF3872
:100C00002E2045464FF000090B90B9696D1C0E98D7
:100C10008847396A824688470028F6D1BAF1FF3FF3
:100C20000AD024F4D064002E11DDBAF12B0F08D0C5
:100C3000BAF12D0F0BD102E0404611B08DE744F41C
:100C40008064B9696D1C0E9888478246761E694695
:100C5000600501D52D2000E02B208DF8000001F16A
:100C6000010B0DF1200809E0B9696D1C0E98884749
:100C700082460F9844F40074761E0560002E02DD53
:100C8000BAF1300FF0D00B998A453ED144F0800480
:100C900006E00F99681CA9F1010944F4007408608A
:100CA000B9696D1C761E0E98884782463028F0D0B0
:100CB0002BE00B998A4505D1200603D444F080042B
:100CC000761E18E0504607F0F1FC08B30DF1130151
:100CD000761E44F400748B4508D2AAF130000BF85C
:100CE000010B200607D5A9F1010003E0200602D47C
:100CF00009F101008146A00502D50F99681C086022
:100D0000B9696D1C0E9888478246002ED1DC53E0ED
:100D1000002E51DDBAF1650F02D0BAF1450F4BD16B
:100D2000A00549D5B9696D1C24F44074761E0E984F
:100D300088478246002E0CDD2B2804D0BAF12D0FF7
:100D400007D144F48074B9696D1C0E9888478246B7
:100D5000761EE00501D52D2100E02B2108F8011BAE
:100D6000CDF82C8021E00DF12901761E44F40074A9
:100D700088450CD2AAF1300010F0FF0088F800007E
:100D800002D10B99884509D908F1010806E0E00570
:100D900001D5244801E042F20F708146B9696D1C0B
:100DA0000E98884782460F980560002E04DD504655
:100DB00007F07CFC0028D6D1F9690E988847FF20FF
:100DC0008BF8000088F800000020069007904B4642
:100DD0006A4608A906A8FFF777FEA00502D46FF0BF
:100DE00001002AE714F0240F0AD0E00714D1DDE94E
:100DF00006123868031D3B600068C0E900120BE072
:100E0000DDE90601FFF752FC0146E00704D138682E
:100E1000021D3A600068016028460EE70000144099
:100E20000000F03FF1D8FFFF426842B1016811F8BD
:100E3000013B23B1521EC0E9001218467047012140
:100E4000C160881E704742685AB1C368016843B9DF
:100E500083688B4205D0491E521CC0E90012002055
:100E600070474FF0FF3070472DE9F05F8246007801
:100E7000002715468B460AF10104B946302801D0F7
:100E80009DB113E014F8010B0127782803D05828EE
:100E900001D045B10AE00DB1102D07D10027102572
:100EA00014F8010B02E0082500E00A250026B046F0
:100EB0000EE005FB080005FB06F1012701EB1046DB
:100EC0001FFA80F8B6F5803F00D3B94614F8010B3D
:100ED000294600F069F80028EBDABBF1000F05D0D5
:100EE0000FB1641E00E05446CBF80040B9F1000F8A
:100EF00006D006F0C5FB02210160C81EBDE8F09FC8
:100F000048EA0640FAE72DE9F04D00231A461B1A7D
:100F10008A4103DB00200146BDE8F08DC1F30A528F
:100F2000C1F3130141F480154FF0000BD10702D13A
:100F300000186D41521E0027044640F2FF1138464A
:100F400001EB620A3E468046024600204FF48011C3
:100F5000FFF71EFCC2197141BB1846EB0100B4EB50
:100F6000030C75EB000C04D3E41A65EB000517467F
:100F70000E46241908F101006D4180463428E3DD56
:100F8000F91946EB0600091BA84103D24FF0FF32C6
:100F9000134601E0002213461BEB070046EB0A5103
:100FA000BDE8F04DFFF7D3BC3A2800D2303820F02E
:100FB0002002412A01D3A2F13700884201D34FF029
:100FC000FF3070470EB540F2334202920022CDE965
:100FD00000221346FFF7CAFC03B000BD10B508A0FD
:100FE00006F012FB00F0E4FB04F034FE40F6B830EB
:100FF00002F000F900F0D6FABDE8104004F052BF4C
:10100000416C61726D3AB3F6CFD6D2ECB3A32CB774
:10101000A2B3F6B8E6BEAF0A0000000010B582B079
:101020000A4809490160532141600024846040F26C
:10103000E731C16003F081FB0094019469460348E5
:1010400003F048FB02B010BD001000406C0B002004
:1010500010B516A006F0D8FA002000F0F5F901202E
:1010600000F0F2F9022000F0EFF9032000F0ECF9B3
:10107000042000F0E9F9052000F0E6F9062000F070
:10108000E3F9072000F0E0F90F49002008700F494C
:1010900008700F4908700F490870BDE810404FF400
:1010A0007A7301220CA10D4804F05CB84261636BB5
:1010B0007570735F44617461A3BAC7E5BFD5C5E4B9
:1010C000D6C3D0C5CFA20A004B0000204C000020A0
:1010D000E2000020400000205B000000AC0A00207D
:1010E0002DE9F0412DED088B017844788578C6789C
:1010F000B7EE009AB0EE49AA9FED498B802901D343
:10110000BFEE00AA0BD30846FFF747FA53EC182BA3
:10111000FFF75CF9FFF7CAFA00EE100A03E000EEF1
:10112000101AB8EE400AF0EE000A20EE200A802CD9
:101130000DD310EE100AFFF775FA9FED3B1B53EC31
:10114000112BFFF7A2F8FFF7B1FA00EE100A10EE2C
:10115000100AFFF767FA9FED361B53EC112BFFF7D0
:1011600035F9FFF7A3FA0746802C09D32046FFF78D
:1011700014FA53EC182BFFF729F9FFF73AFAC4B227
:101180002046FFF70AFA9FED2CBB53EC1B2BFFF711
:1011900023F941EC180B2846FFF7FFF953EC182B05
:1011A000FFF773F853EC1B2BFFF716F941EC180B04
:1011B0003046FFF7F2F953EC182BFFF766F8FFF70C
:1011C00075FA00EE100ADFED1E0A20EE200A30EE5E
:1011D000090A10EE100AFFF725FA41EC180B384601
:1011E000FFF720FA41EC110B9FED170B06F074FA94
:1011F000B0EE409AF0EE609A1AEE100AFFF712FA7B
:1012000053EC192BFFF7E8F853EC182BFFF7E4F831
:10121000FFF74CFA00EE100ABDEC088BBDE8F08138
:101220000000000000006040000000000000F03FEF
:101230000000000000C05F4000000000000070409F
:10124000000000340000000000000000000000402A
:1012500001780A064178090483781B02C078194492
:10126000104408447047000002A006F0CDF905F0D4
:10127000C3F8FEE74275734661756C745F48616E32
:10128000646C657220D2ECB3A3A3ACB5BCD6C2D655
:10129000D8C6F40A00000000F0B582B004464FF64C
:1012A000FF77019748F20506002000904D1E1FD3DE
:1012B00014F8010B00906946684604F016F9BDF871
:1012C00004009DF8001080EA012001900021BDF883
:1012D000042012F4004F03D086EA4200019002E09D
:1012E00007EA42000190491C0829F0DB6D1EDFD29D
:1012F00001A901A804F0E2F8BDF8040002B0F0BDB5
:101300002DE9F0439FB005460024002700260596EE
:10131000069607960896099600226946414802F00B
:101320006BFE9DF801309DF800203FA105A806F056
:101330007BF9404901EBC51505F1440005A9FEF70D
:101340006CFF05F1580105A8FEF767FF3AA105A853
:10135000FEF76CFF0DF1280870B104EB840208EB76
:10136000820201461046FEF758FF33A10020FEF727
:101370005DFF641C0028F0D1002405F1440105A89C
:10138000FEF74BFF2CA105A8FEF750FF0DF1500909
:1013900070B104EB840209EB820201461046FEF7AD
:1013A0003CFF25A10020FEF741FF641C0028F0D17E
:1013B00009F11400FEF75CFF044608F11400FEF783
:1013C00057FF04443C2C11DB1C4920463246C1FB2C
:1013D00004204211A2EBE0772046C1FB04604111DA
:1013E000A1EBE070A0EB001004EB800414A8FEF762
:1013F0003FFF06460AA8FEF73BFF30443844104939
:1014000081FB00218A10A2EBE171A1EB810100EBCD
:10141000C10205F14400234603A106F005F91FB0FF
:10142000BDE8F083000C0020253032643A253032CC
:1014300064000000000100203A00000089888888CC
:10144000ABAAAA2A000000002DE9F0412DED028B85
:1014500000259FED278B05281ED0062800DB401EA7
:10146000254A00EBC00102EBC10080ED068B80ED48
:10147000048B42F83150056380ED088B80ED0A8BB8
:1014800005649FED1E0A80ED0D0A85630621C16388
:10149000BDEC028BBDE8F0810024194E671E4FF4AD
:1014A0007A7804F13100C0B200F082F806EBC41083
:1014B000057085770562876245620564C0F86480BF
:1014C00080F85850856680F8445080F84E50C566C4
:1014D00080ED1C8B80ED1E8B641C052CE1DBBDECCC
:1014E000028B08A0BDE8F04106F08EB800000000B5
:1014F0000000000000000000980400200000000030
:1015000000010020436C65616E5F44617461A3BAA1
:10151000BCCCB5E7C6F7D0C5CFA2C7E5B3FDCDEAD1
:10152000B1CF0A0010B505A006F06EF8002005F056
:1015300069F8BDE810400AA006F066B8436C656122
:10154000725F464C4153485F446174613ABFAACA16
:10155000BCC7E5B3FD666C617368CAFDBEDD0A00F9
:10156000436C6561725F464C4153485F44617461EE
:101570003AC7E5B3FD666C617368CAFDBEDDCDEAAE
:10158000B3C90A00002005490988002905DD044B7C
:1015900000221A54401C8842FBDB704746000020A2
:1015A000900600200821014804F0E2BC78000020E9
:1015B0002DE9F04790B080460024039404940594EC
:1015C00006940794089409940A940B940C940D942F
:1015D0000E940F940126A8F130090294002504F01E
:1015E000ADFEDFF8C4A0A8F13107052F1DD2DFE85A
:1015F00007F003080D12170008212C4804F0B8FC6E
:1016000018E008212A4804F0B3FC13E00821294817
:1016100004F0AEFC0EE00821274804F0A9FC09E024
:101620000821264804F0A4FC04E00026414624A03A
:1016300005F0EAFF002E0FD002A804F05BFC9DF835
:10164000080010B19AF8040048B16D1C032DCCDBE2
:10165000414626A005F0D8FF10B0BDE8F0872C4821
:10166000A9F1010100EBC115286A18B9414629A06A
:1016700005F0CAFF43462A462EA103A8009405F0B0
:10168000D3FF03A8FEF7B4FD82B24FF47A7303A927
:101690002B4803F067FD2C6241462AA005F0B4FFF9
:1016A00010B0BDE8F08700009006002098000020F0
:1016B000A8000020B8000020C8000020D8000020AA
:1016C000436C6F73655F44656C61793AB9D8B1D585
:1016D000BCCCB5E7C6F7CAA7B0DCA3ACB6CBBFDAC3
:1016E000B4EDCEF33A25630A00000000436C6F733B
:1016F000655F44656C61793AB9D8B1D52563B6CBDD
:10170000BFDABCCCB5E7C6F7CAA7B0DC0A00000058
:1017100000010020436C6F73655F44656C61793A2A
:10172000BCCCB5E7C6F7D2D1BEADB9D8B1D53A2554
:10173000630A00002A25732C25632C256400000011
:10174000AC0A0020436C6F73655F44656C61793A45
:10175000B9D8B1D52563B6CBBFDABCCCB5E7C6F7EF
:101760000A00000010B5A0F131010A46052A0BD28B
:10177000064A02EBC114E16E012905D1014604A01D
:1017800005F042FF0020E06610BD000000010020CF
:10179000436C6F73655F4572726F3A2563BAC5BC5F
:1017A000CCB5E7C6F7D5FDB3A3B9A4D7F70A0000B7
:1017B0000821014804F0DCBB680000200821014832
:1017C00004F0D6BB8800002070B517A005F01CFF00
:1017D0001CA11D48FEF72AFD04461AA10020FEF7B1
:1017E00025FD05462178A1F13100052802D317A077
:1017F00005F00AFF1EA12846FEF701FD50B11DA10C
:101800002846FEF7FCFC50B12946BDE870401AA0FE
:1018100005F0FABE2078BDE87040FFF7C9BE207819
:10182000BDE8704004F01CBA436F6D6D616E645F7B
:1018300044617461A3BABFAACABCD6B4D0D0C3FCF9
:10184000C1EE0A002C000000C2060020436F6D6D3F
:10185000616E645F44617461A3BAC3FCC1EEB6CB30
:10186000BFDA2563B4EDCEF32121210A0000000088
:101870003000000031000000436F6D6D616E645FE9
:1018800044617461A3BAC3FCC1EEB4EDCEF32CB4D1
:10189000EDCEF3B2CECAFD25732121210A0000004E
:1018A0002DE9F0410024194D194E1A4F05EBC411D2
:1018B0000878302825D0C86E18BB086C072820D2BD
:1018C000DFE800F01F04080C121F1800204600F08B
:1018D00063FA16E0204600F007FA12E0486E80B97D
:1018E000204600F06BFB0CE0486E50B9204600F03B
:1018F000ABFA06E0307808B1387810B9204600F02D
:101900000BF8641C052CD1DBBDE8F0810001002040
:10191000E20000205A0000202DE9F14F2DED0A8B46
:10192000ACB00026B046CDF87C80CDF88080CDF8F4
:101930008480CDF88880CDF88C80CDF89080CDF86B
:101940009480CDF89880CDF89C80CDF8A080CDF81B
:10195000A480CDF8A880CDF8AC80CDF84880CDF833
:101960004C80CDF85080CDF85480CDF85880CDF81B
:101970005C80CDF86080CDF86480CDF86880CDF8CB
:101980006C80CDF87080CDF87480CDF87880CDF87B
:101990001480CDF81880CDF81C80CDF82080CDF8CB
:1019A0002480CDF82880CDF82C80CDF83080CDF87B
:1019B0003480CDF83880CDF83C80CDF84080CDF82B
:1019C00044809FED739BDFF8D0B1754936989BF842
:1019D0000020DFF8C89101EBC014002A40F0B1806C
:1019E00070A0369905F010FE676A4FF0010A002FCB
:1019F00040F3A5809FED78AB9FED79BB9FED7ACB4F
:101A000004EB8600806A00EBC00009EBC005A86803
:101A1000FEF708FE95ED040B53EC102BFEF716FEB7
:101A200079D2206A002876D1A868FEF7FBFD95EDF3
:101A3000041B53EC112BFEF7CCFC41EC100B94ED86
:101A40001C1B53EC102B51EC110BFEF7C5FC41ECA9
:101A5000180B94ED1E0B53EC192B51EC100BFEF7E9
:101A6000F5FD07D262A005F0CFFD2CB0BDEC0A8BCE
:101A7000BDE8F88F94ED1E0B53EC1A2B51EC100BB4
:101A8000FEF7AAFC41EC100B51EC180B53EC102B99
:101A9000FEF714FD41EC100B53EC1B2B51EC100B1B
:101AA000FEF79AFC41EC180BB0EE490AF0EE690A19
:101AB00053EC102B51EC180BFEF7C8FD03D857A0C0
:101AC00005F0A2FDD1E753EC1C2B51EC180BFEF7EF
:101AD00083FCFEF76FFD6066A066604880F800A09A
:101AE00053EC182B5EA0369905F08EFD0022694656
:101AF0006A4802F081FA9DF801309DF8002068A143
:101B00001FA805F091FD04F144001FA9FEF785FB15
:101B10006648C0F80080A868FEF784FD95ED061BB6
:101B200053EC112BFEF7AAFD05D2206A012802D141
:101B3000A07FFFF73DFD761CBE42FFF661AF8BF83C
:101B400000A05B48007800288FD15AA0369905F094
:101B50005BFD676A0025002F87DD04EB8500806A46
:101B600000EBC00009EBC006B068FEF75BFD96ED28
:101B7000061B53EC112BFEF781FD05D2206A0128CC
:101B800002D1A07FFFF714FD6D1CBD42E5DB6CE7C1
:101B90000000000000000000E20000209804002087
:101BA00000010020436F6E74726F6C5F696E646534
:101BB000785F74696D653ABCCCB5E7C6F7BFD8D617
:101BC000C6B6CBBFDA25642CBFAACABCBFD8D6C65E
:101BD0000A00000000000000000000000000594062
:101BE0000000000000004E4000000000004CED40EE
:101BF000436F6E74726F6C5F696E6465785F746951
:101C00006D653AC3BFD0A1CAB1BCD3D2A9C1BFB31D
:101C1000F6CFD6CECACCE20A00000000436F6E7445
:101C2000726F6C5F696E6465785F74696D653AB2F6
:101C3000C9BCAFCAFDBEDDD0A1D3DAD6B8B1EA2C9B
:101C4000B5ABCAC7C9E8B6A8BCD3D2A9C1BFB9FD54
:101C5000D0A1B5BCD6C2CECACCE20A004B0000204F
:101C6000436F6E74726F6C5F696E6465785F7469E0
:101C70006D653AB2C9BCAFCAFDBEDDD0A1D3DAD61C
:101C8000B8B1EAA3ACBFAACABCBCD3D2A9A3ACBCAE
:101C9000D3252E3266B7D6D6D30A0000000C00201A
:101CA000253032643A253032640000005C000020A8
:101CB0005A000020436F6E74726F6C5F696E6465CA
:101CC000785F74696D653ABCCCB5E7C6F7CAB5CA2A
:101CD000B1BFD8D6C6B6CBBFDA25642CBFAACABC62
:101CE000BFD8D6C60A0000002DE9F0410446002501
:101CF00021461BA005F088FC254A02EBC414676A44
:101D0000002F2ADDDFF88C8004EB8500806A00EB71
:101D1000C00008EBC006B068FEF784FC96ED041B1B
:101D200053EC112BFEF792FC05D2206A012802D158
:101D3000A07FFFF73DFCB068FEF774FC96ED061B34
:101D400053EC112BFEF79AFC04D2206A10B9A07F45
:101D500003F086FF6D1CBD42D6DBBDE8F0810000BC
:101D6000436F6E74726F6C5F6D61785F66726F6DDA
:101D70005F6D696E3ABCCCB5E7C6F7BFD8D6C6B6BC
:101D8000CBBFDA25642CBFAACABCBFD8D6C60A000E
:101D900000010020980400202DE9F04104460025B0
:101DA00021461BA005F030FC254A02EBC414676AEB
:101DB000002F2ADDDFF88C8004EB8500806A00EBC1
:101DC000C00008EBC006B068FEF72CFC96ED041BC3
:101DD00053EC112BFEF73AFC04D2206A10B9A07F15
:101DE00003F03EFFB068FEF71DFC96ED061B53ECBA
:101DF000112BFEF743FC05D2206A012802D1A07FF7
:101E0000FFF7D6FB6D1CBD42D6DBBDE8F0810000BC
:101E1000436F6E74726F6C5F6D696E5F66726F6D2B
:101E20005F6D61783ABCCCB5E7C6F7BFD8D6C6B609
:101E3000CBBFDA25642CBFAACABCBFD8D6C60A005D
:101E4000000100209804002070B5A8B005460022CB
:101E50001B921C921D921E921F92209221922292FE
:101E6000239224922592269227920E920F921092FC
:101E7000119212921392149215921692179218922E
:101E800019921A920192029203920492059206927A
:101E90000792089209920A920B920C920D920024DA
:101EA000294624A005F0B0FB2D4A2EA002EBC51553
:101EB00005F14E0205F1440105F0A6FB05F14401D0
:101EC0001BA8FEF7AAF905F14E010EA8FEF7A5F929
:101ED00030A10EA8FEF7AAF901AE70B104EB84029E
:101EE00006EB420201461046FEF797F929A10020B1
:101EF000FEF79CF9641C0028F0D1ACB106F10A0091
:101F0000FEF7B6F9044601A8FEF7B2F9C0EB0010DF
:101F100004EB80004EF6602148436866A8661E49BF
:101F20000120087028B070BD1CA005F06DFB28B022
:101F300070BD0000436F6E74726F6C5F74656D6589
:101F4000723ABCCCB5E7C6F7BFD8D6C6B6CBBFDAB7
:101F500025642CBFAACABCBFD8D6C60A00000000A0
:101F600000010020436F6E74726F6C5F74656D6565
:101F7000723AC3BFCCECCCD8B6A8CAB1BCE4BCD3CF
:101F80002CC3BFCCEC2573BCD32573CAB1BCE40A07
:101F9000000000003A0000004C000020436F6E7407
:101FA000726F6C5F7379735F74656D6572A3BACA83
:101FB000E4C8EBD2ECB3A3210A00000070B5ACB0CA
:101FC000054600221F92209221922292239224926F
:101FD000259226922792289229922A922B92129247
:101FE00013921492159216921792189219921A92AD
:101FF0001B921C921D921E920592069207920892C5
:1020000009920A920B920C920D920E920F921092DC
:102010001192002429462AA005F0F6FA334A34A08A
:1020200002EBC51505F14E0205F1580105F0ECFA79
:1020300005F14E0112A8FEF7F0F83AA112A8FEF73A
:10204000F5F805AE70B104EB840206EB42020146DE
:102050001046FEF7E2F833A10020FEF7E7F8641C13
:102060000028F0D13CB306F10A00FEF701F904465E
:1020700005A8FEF7FDF8C0EB001004EB80004EF65B
:10208000602148436866A86627490120087000223D
:102090006946264801F0B0FF9DF801309DF8002008
:1020A00023A11FA805F0C0FA05F144001FA9FEF7FF
:1020B000B4F82CB070BD21A005F0A6FA2CB070BD0C
:1020C000436F6E74726F6C5F74656D65723ABCCCF1
:1020D000B5E7C6F7BFD8D6C6B6CBBFDA25642CBFE6
:1020E000AACABCBFD8D6C60A000000000001002062
:1020F000436F6E74726F6C5F74656D65723AB4D3C2
:10210000B5B1C7B0CAB1BCE4BFAACABCB6A8CAB10F
:10211000BCD32CC3BF2573BCD32573CAB1BCE40A9E
:10212000000000003A0000004B000020000C0020DE
:10213000253032643A25303264000000436F6E74FB
:10214000726F6C5F74656D6572A3BACAE4C8EBD236
:10215000ECB3A3210A00000070470000000000005B
:102160002DE9F04F2DED048B8FB04FF00009CB46D9
:10217000CDF828B0CDF82CB0CDF830B0CDF834B0D3
:10218000CDF838B0C846CDF800B0CDF804B0CDF8E1
:1021900008B0CDF80CB0CDF810B0CDF814B0CDF833
:1021A00018B0CDF81CB0CDF820B0CDF824B0002682
:1021B00097A005F029FA9FED9E8A9FED9F9BA0496D
:1021C00009EBC90A01EBCA05E86B2C6C002C00F086
:1021D00011819C4A02EBC017206DFEF723FA95EDA2
:1021E000081B53EC112BFEF749FA10D3206DFEF7B4
:1021F00019FA95ED0A1B53EC112BFEF727FA0AD2B8
:1022000094ED140AB5EEC00AF1EE10FA03D0286B73
:10221000401C28630FE094ED140AB5EEC00AF1EEFD
:1022200010FA02D108F1010805E0684600EB8600CB
:1022300080ED000A761CC4F854B0C4F858B084EDA0
:10224000148AD4F888407E48296B50F83A008142BD
:1022500008D149467CA005F0D7F9C5F830B0FEF7A3
:10226000BDFE0CE040450AD149467FA005F0CCF9FF
:102270004FF00008FEF7B2FEB87F03F0D1FD002C4E
:10228000AAD1022E6CDB3146684600F0D1F9B9F1D3
:10229000000F09D0B9F1010F1ED0B9F1020F32D0F1
:1022A000B9F1030F5CD145E06846711E00EB810077
:1022B000DDED000A90ED000A744930EE600A10EE80
:1022C000100A88424CDD72A005F09EF9FEF786FEEA
:1022D000B87F03F0A5FD43E0684600EB8600DDED26
:1022E000000A90ED000A754930EE600A10EE100AFF
:1022F000884235DD72A005F087F9FEF76FFEB87FE2
:1023000003F08EFD2CE0684600EB8600DDED000A50
:1023100090ED000A764830EE600A10EE101A814205
:102320001EDD74A005F070F9FEF758FEB87F03F0CB
:1023300077FD15E0684600EB8600DDED000A90EDC4
:10234000000A30EE600A10EE100AB0F1804F07DD8F
:1023500073A005F059F9FEF741FEB87F03F060FD68
:102360000026386A012845D1A86B022842DB386C68
:1023700004283FDC95ED020AD5ED0D0A30EE600A27
:1023800010EE100AFEF74EF941EC100B05F098F92B
:1023900053EC192B51EC100BFEF758F903D26BA03C
:1023A00005F032F921E0386C01280ED195ED020AD2
:1023B000D5ED0D0A30EE600AB5EEC00AF1EE10FA66
:1023C00003D270A005F020F90FE0022812D195ED9C
:1023D000020AD5ED0D0A30EE600AB5EEC00AF1EE44
:1023E00010FA07DD77A005F00FF9FEF7F7FDB87FCB
:1023F00003F016FD09F10109B9F1070FFFF6DFAE91
:102400000FB0BDEC048BBDE8F08F000000000000B1
:10241000446574656374696F6EA3BABFAACABCBC15
:10242000ECB2E2B4ABB8D0C6F7D2ECB3A30A00006A
:1024300000000000000000009A9999999999B93F0D
:102440009804002000010020446574656374696F7E
:102450006EA3BA2564BAC5B4ABB8D0C6F7B7A2B3F9
:10246000F6B8E6BEAF0A0000446574656374696F30
:102470006EA3BA2564BAC5B4ABB8D0C6F7C8ABB2C0
:10248000BFB3F6CFD6D2ECB3A30A000000004040A1
:102490005048B2C9BCAFCAFDBEDDCFE0B2EEBDCF81
:1024A000B4F3A3ACBFC9C4DCC4B3B8F6B4ABB8D002
:1024B000B7A2C9FAD2ECB3A30A0000000000A04101
:1024C000B5E7B5BCC2CAB2C9BCAFCAFDBEDDCFE07C
:1024D000B2EEBDCFB4F3A3ACBFC9C4DCC4B3B8F68D
:1024E000B4ABB8D0B7A2C9FAD2ECB3A30A000000CB
:1024F0000000A040CEC2B6C8B2C9BCAFCAFDBEDDA6
:10250000CFE0B2EEBDCFB4F3A3ACBFC9C4DCC4B35B
:10251000B8F6B4ABB8D0B7A2C9FAD2ECB3A30A00EC
:10252000D1B9C1A6B2C9BCAFCAFDBEDDCFE0B2EE23
:10253000BDCFB4F3A3ACBFC9C4DCC4B3B8F6B4AB6D
:10254000B8D0B7A2C9FAD2ECB3A30A004465746547
:102550006374696F6EA3BABCCCB5E7C6F7D5FDB39B
:10256000A3B9A4D7F7A3ACB5ABCAC7CAFDBEDDD625
:10257000B8B1EAC8FDB7D6D6D3C3BBD3D0B1E4BB9C
:10258000AF0A0000446574656374696F6EA3BABCDA
:10259000CCB5E7C6F7D5FDB3A3B9A4D7F7D4DABF56
:1025A000D8D6C6B7BDCABDD2BBA3ACB5ABCAC7CA25
:1025B000FDBEDDD6B8B1EAB7B4B6F8BCF5C9D90AE4
:1025C00000000000446574656374696F6EA3BABC53
:1025D000CCB5E7C6F7D5FDB3A3B9A4D7F7D4DABF16
:1025E000D8D6C6B7BDCABDB6FEA3ACB5ABCAC7CABE
:1025F000FDBEDDD6B8B1EAB7B4B6F8D4F6BCD30A9E
:102600000000000010B54FF4806000F069FEBDE8E6
:1026100010404FF4004000F063BE10B54FF48070DE
:1026200000F05EFEBDE810404FF4007000F058BEB0
:1026300030B52DED028B83B0D0ED008AB0EE680A84
:102640000122012914DD00EB820393ED008AB4EE30
:10265000E88AF1EE10FA01DDF0EE488AB4EEC08AA5
:10266000F1EE10FA01D2B0EE480A521C8A42EADBBF
:1026700080ED000A491E00EB8100C0ED008A10EEDB
:10268000100AFDF7CFFF04460D4618EE900AFDF73D
:10269000C9FF41EC100B05A053EC102B01950094E1
:1026A00004F0B2FF03B0BDEC028B30BDD7EEB4F343
:1026B000D6B5CEAAA3BA252E32662020D7EED0A159
:1026C000D6B5CEAAA3BA252E32660A002DE9F04F60
:1026D0002DED048B87B04FF00009DFED4C8AC84622
:1026E000002600200290039004900590069048A0D8
:1026F00004F08AFF00259FED4E9ADFF838B1B0EE66
:10270000688A05EBC50A0BEBCA073C6C002C73D03A
:10271000F0EE488A206DFDF785FF41EC100BA16DAE
:10272000606D0191009053EC102B214642A004F003
:102730006BFFA06D10B1616D1E2916DDC4ED148A0A
:1027400022464DA102A804F06FFF02A8FDF750FD3C
:1027500082B24FF47A7302A9484802F003FD224680
:10276000294647A004F050FF09E000EE100AD4ED1E
:10277000140AB8EEC00A80EE801A84ED141A94EDA3
:10278000140A30EE088A606D404501DD8046A1469E
:102790000644D4F88840002CBCD1414905EB8500A3
:1027A00041F830501E2E08DD01EBC00080ED099A83
:1027B000001D4946FDF731FD0FE05BF83A2000EEC1
:1027C000102AF8EEC00A88EE200AB0EE408A87EDA3
:1027D000028A01EBC00080ED098AB86B08B987ED69
:1027E0000D8A3049401C81FB0021A1EBE171A1EB76
:1027F00081010844B86300266D1C072DFFF67FAFEA
:1028000007B0BDEC048BBDE8F08F000000000000B5
:102810004765745F41766572616765A3BABFAACAEE
:10282000BCBCC6CBE3CAFDBEDDBEF9D6B50A00000E
:1028300000401CC6980400204765745F41766572AD
:102840006167653A20C0E0B1F0A3BA257320207615
:10285000616C7565203D20252E326620B4EDCEF3E7
:10286000B4CECAFDA3BA25642CB2C9BCAFB4CECADB
:10287000FDA3BA25640A000021257300AC0A0020DC
:102880004765745F41766572616765A3BA2564BA6E
:10289000C5B4ABB8D0C6F72573B4EDCEF30A0000CB
:1028A00080030020565555552DE9F04F2DED068B30
:1028B000A1B080460D46782102A8FDF78EFC0024C9
:1028C0009FEDEFABF0A12846FDF7B0FC0DF1080B32
:1028D00048B1EDA10020FDF7A9FC4BF82400611CD4
:1028E000CCB20028F5D10A2C0ED2B8F1050F0BD0CE
:1028F00022464146E5A004F087FE4FF0FF3021B0AC
:10290000BDEC068BBDE8F08F0024E94EB8F1050F51
:102910001AD0B8F1060F01DBA8F1010808EBC809CD
:1029200006EBC905C5F804800298FDF7A1FC46F83E
:1029300039000B28C0F0048102464146DDA004F0B6
:1029400063FE4FF0FF30DAE70298FDF791FC00F0EC
:10295000FF090027B9F1000F40F2F0809FEDE28BF4
:1029600007EB870505F1020A5BF82A000078A0F161
:102970003106681C5BF82010DD4800EBC6142046C9
:10298000FDF74BFC5BF82A000078A077313804286B
:102990000AD3D748414600EBC610827FD5A004F089
:1029A00033FE4FF0FF30AAE7681D5BF8200004F00B
:1029B0006BFE84ED1E0B53EC1A2B51EC100BFDF744
:1029C00045FE08D394ED1E0B53EC182B51EC100B65
:1029D000FDF754FE0DD2C648414600EBC61090EDFF
:1029E0001E0BCEA053EC102B04F00EFE4FF0FF3068
:1029F00085E7E81C5BF82000FDF73AFC02462064FE
:102A0000052879D0501E072806D34146CDA004F0F2
:102A1000FBFD4FF0FF3072E7042A12D0032A23D0C7
:102A2000062A34D02D1D5BF82500FDF7E1FBC2B26C
:102A3000082A62D34146CEA004F0E6FD4FF0FF30F5
:102A40005DE700202D1D5BF8251048715BF825100F
:102A500004F14400FDF7E1FB5BF82500811D04F162
:102A60004E00FDF7DAFB62E000202D1D5BF825101B
:102A700048715BF8251004F15800FDF7CEFB5BF8B8
:102A80002500811D04F14E00FDF7C7FB4FE0281D16
:102A9000C3A15BF82000FDF7C9FB05462846FDF7FA
:102AA000A7FBC2B2082A06D34146B1A004F0ACFD90
:102AB0004FF0FF3023E762620020002A13DDDFF8C9
:102AC000F0C1295C04EB800330399962062901DBEF
:102AD000491E9962996A01EBC1010CEBC101CE63F9
:102AE000401C9042EDDBAEA10020FDF79FFB04F0FF
:102AF000CBFD84ED1C0B1AE01BE062620020002A73
:102B000015DDDFF8ACC15BF8255004EB8003295CD0
:102B100030399962062901DB491E9962996A01EBF5
:102B2000C1010CEBC101CE63401C9042EDDB0020E3
:102B30002062781CC7B24F45FFF412AF0020DEE6DA
:102B40000021039805F0F0FBB0EE408AF0EE608AB9
:102B50000021049805F0E8FBB0EE409AF0EE609A90
:102B600053EC192B51EC180BFDF788FD11D853ECE1
:102B70001A2B51EC180BFDF769FD0AD08DED008B77
:102B800053EC192B414687A004F03EFD4FF0FF3077
:102B9000B5E685ED048B85ED069B0021069805F0D2
:102BA000C3FBB0EE408AF0EE608A0021059805F084
:102BB000BBFBB0EE409AF0EE609A53EC192B51EC4F
:102BC000180BFDF743FD11D853EC1A2B51EC180BE1
:102BD000FDF73CFD0AD08DED009B53EC182B4146D0
:102BE00080A004F011FD4FF0FF3088E685ED088BE2
:102BF00085ED0A9B2C632C649FED8A8A85ED0D8AF6
:102C0000AC63002756F83900002837DDDFF818A23A
:102C10008C2006F09FFB044607EBC706701D5BF88F
:102C200020102046FDF7F9FAB01D5BF8201004F1E2
:102C30001E00FDF7F2FAF01D5BF8201004F15C00B5
:102C4000FDF7EBFA06F108005BF82000FDF710FB3A
:102C5000A066332807D3414674A0A26E04F0D4FCCA
:102C60004FF0FF304BE606F109005BF82000FDF75E
:102C7000FFFAE0661F2802D34146F5E04EE1FAE094
:102C800000000000000000002C0000004765745F99
:102C9000446174613A256420C5E4D6C3D0C5CFA28F
:102CA000B4EDCEF32CB4EDCEF3C2EB25640A0000F4
:102CB000980400204765745F446174613A2564207C
:102CC000C5E4D6C3B4ABB8D0C6F7CAFDC1BFD0C542
:102CD000CFA2B4EDCEF32CB4EDCEF3C2EB25640A53
:102CE0000000000000000000000000000088C34059
:102CF000000100204765745F446174613A256420D7
:102D0000C5E4D6C3B6CBBFDAD0C5CFA2B4EDCEF3FF
:102D10002CB4EDCEF3C2EB25640A00004765745F66
:102D2000446174613A256420C5E4D6C3BCD3D2A9FA
:102D3000D0C5CFA2B4EDCEF32CB4EDCEF3C2EB25CB
:102D4000640A00004765745F446174613A25642039
:102D5000C5E4D6C3BFD8D6C6C4A3CABDD0C5CFA20A
:102D6000B4EDCEF32CB4EDCEF3C2EB25640A000033
:102D70004765745F446174613A256420C5E4D6C335
:102D8000BFD8D6C6B4ABB8D0C6F7D0C5CFA2B4EDC5
:102D9000CEF32CB4EDCEF3C2EB25640A00000000A4
:102DA0007C0000004765745F446174613A256420CB
:102DB000C5E4D6C3B4ABB8D0C6F7D6B8B1EAD0C56F
:102DC000CFA2B4EDCEF32CD7EEB4F3D6B5CEAA2570
:102DD0002E32662CD7EED0A1D6B5CEAA252E3266DD
:102DE0002C0A00004765745F446174613A256420D1
:102DF000C5E4D6C3B4ABB8D0C6F7B8E6BEAFD0C54D
:102E0000CFA2B4EDCEF32CD7EEB4F3D6B5CEAA252F
:102E10002E32662CD7EED0A1D6B5CEAA252E32669C
:102E20002C0A000000000000A18601004765745FC5
:102E3000446174613A256420C5E4D6C3C6F0CABCB7
:102E4000B5D8D6B7D0C5CFA2B4EDCEF32CB5D8D671
:102E5000B7B7B6CEA7CEAA302D35302CB4EDCEF311
:102E6000C2EB25640A0000002EA0E26E04F0CCFB49
:102E70004FF0FF3043E506F10A005BF82000FDF754
:102E8000F7F920670A2807D3414636A0226F04F0DD
:102E9000BBFB4FF0FF3032E506F10B005BF8201072
:102EA00004F17400FDF7B9F906F10C005BF820009D
:102EB000FDF7DEF9C4F88000504508D3414639A03B
:102EC000D4F8802004F0A0FB4FF0FF3017E506F1A6
:102ED0000D005BF82000FDF7CBF9C4F884005045E5
:102EE00008D341463AA0D4F8842004F08DFB4FF07B
:102EF000FF3004E50020606584ED148AA065C4F805
:102F000088003E49286C58B1C4F888002C64781CAD
:102F1000C7B251F83900B8423FF77AAE0020EEE46C
:102F20002C64F4E74765745F446174613A2564205A
:102F3000C5E4D6C3CAFDBEDDCEBBCAFDD0C5CFA297
:102F4000B4EDCEF32CCAFDBEDDCEBBCAFDB7B6CE06
:102F5000A7CEAA302D33302CB4EDCEF3C2EB2564CE
:102F60000A0000004765745F446174613A2564207B
:102F7000C5E4D6C3B1A3B3D6CEBBCAFDD0C5CFA2DC
:102F8000B4EDCEF32CB1A3C1F4CEBBCAFDB7B6CE1F
:102F9000A7CEAA302D392CB4EDCEF3C2EB25640AAE
:102FA000000000004765745F446174613A25642045
:102FB000C5E4D6C3346D61B6D4D3A6D0C5CFA2B410
:102FC000EDCEF32CB4EDCEF3C2EB25640A00000085
:102FD0004765745F446174613A256420C5E4D6C3D3
:102FE00032306D61B6D4D3A6D0C5CFA2B4EDCEF346
:102FF0002CB4EDCEF3C2EB25640A00009804002047
:1030000070B5ADF57E7D06460024FA94FB94FC94E1
:103010004FF47A716846FDF7E0F80A220021FAA819
:1030200003F01CFA0A221146FAA803F017FAFAAACA
:10303000002125A004F0E8FAFAA8FDF719F9B0F587
:103040007A7F05DD294981FB00108110A1EBE0703A
:10305000451CAAB21421684603F000FA2A466946C4
:1030600023A004F0D1FA6D44284915F8010C30284A
:103070000FD0312812D00C6025A004F0C5FA15F845
:10308000020C232810D02FA004F0BEFA0DF57E7D8F
:1030900070BD0C6034A004F0B7FAF0E701200860BE
:1030A0003AA004F0B1FAEAE705F8024C6946304666
:1030B000FDF7B3F869463EA004F0A6FA03F00EFC53
:1030C0000DF57E7D70BD00004765745F44657669CF
:1030D00063655F446174613AB5D8D6B72025732023
:1030E000200A73697A653A2573200A006766666666
:1030F0004765745F4465766963655F446174613AEE
:1031000025730A73697A653A25640A005000002025
:103110004765745F4465766963655F446174613ACD
:10312000B6C1C8A1CFB5CDB3D7B4CCACCAA7B0DCBB
:10313000A3ACCFB5CDB3B4A6D3DACDA3D6B9D7B4AB
:10314000CCAC0A004765745F4465766963655F448B
:10315000617461A3BAB1BEB5D8BBF1C8A1C5E4D64C
:10316000C3CAA7B0DC0A00004765745F446576698E
:1031700063655F446174613ACFB5CDB3B5B1C7B093
:10318000D7B4CCAC73746F700A0000004765745FED
:103190004465766963655F446174613ACFB5CDB3C8
:1031A000B5B1C7B0D7B4CCAC72756E0A00000000E0
:1031B0004765745F4465766963655F44617461A3C4
:1031C000BABBF1C8A1C5E4D6C325730A000000004C
:1031D00090F83510022903D0802141650120704705
:1031E000052180F835100068016821F001010160B7
:1031F0000020704731B500F09FF90546009CB4F1FE
:10320000FF3F00D0641C00F097F9401BA042FAD3A6
:1032100038BD00002DE9F04101242A4B2A4F2B4DE7
:103220002B4EB0F5806F1CD04FF00008B0F5004F6A
:1032300029D0B0F5007F39D0B0F5807F0FD10022C2
:103240005915184600F071F9306828B1C6F80080A9
:103250003C70204801F0B8FA4FF480702860BDE857
:10326000F08101225102184600F05FF93068012810
:1032700004D034603C70174801F09AFA4FF4806033
:103280002860BDE8F08100224FF40071184600F07C
:103290004CF9306828B1C6F800803C700D4801F048
:1032A00093FA4FF400402860BDE8F0810A480470AA
:1032B0000A48017881F0FE0101704FF40070286027
:1032C000BDE8F081001C024054000020143C014085
:1032D000500000206C0B00205600002055000020FC
:1032E00010B504490A68024202D00860FFF792FF55
:1032F00010BD0000143C01402DE9F84F0022DFF81A
:103300000082DFF80092DFF800A24FF0030E0F27D3
:10331000012303FA02F50B682B40AB427DD1D1F8B3
:1033200004C0BCF1020F02D0BCF1120F12D14FEA5F
:10333000D20C00EB8C0CDCF820605407E40E07FA8A
:1033400004FB26EA0B06D1F810B00BFA04F4344360
:10335000CCF8204006684FEA420C0EFA0CF4A64363
:1033600091F804B00BF0030B0BFA0CFB4BEA0606CA
:1033700006604E68012E05D0022E03D0112E01D01A
:10338000122E11D18668A643D1F80CB00BFA0CFBB3
:103390004BEA06068660466826EA05050E79C6F3FE
:1033A0000016964035434560C56825EA04048D68DB
:1033B00005FA0CFC4CEA040CC0F80CC0D1F804C0AF
:1033C0001CF0805F7DD0D8F800C04CF4804CC8F869
:1033D00000C0D8F800C00CF4804CCDF800C022F03A
:1033E000030C0CF1804404F59834D4F808C8950710
:1033F0002D0F07FA05F62CEA0606A0F1804CBCF565
:10340000003C64D0A0F1804CBCF5013C62D0A0F13E
:10341000804CBCF5023C60D000E052E0A0F1804C52
:10342000BCF5033C5CD0A0F1804CBCF5043C5AD008
:10343000A0F1804CBCF5053C58D0A0F1804CBCF507
:10344000063C56D0A0F1804CBCF5073C54D04FF060
:10345000080C0CFA05FC4CEA060CC4F808C8D9F8AC
:1034600000C02CEA030C4C6814F4803F01D04CEAF5
:10347000030CC9F800C0254CD4F800C02CEA030C9A
:103480004D6815F4003F01D04CEA030CC4F800C0AD
:10349000DAF800C02CEA030C4C6814F4801F01D049
:1034A0004CEA030CCAF800C0194CD4F800C02CEA4E
:1034B000030C4D6815F4001F01D04CEA030CC4F84E
:1034C00000C0521C102AFFF423AFBDE8F88F4FF064
:1034D000000CBEE74FF0010CBBE74FF0020CB8E761
:1034E0004FF0030CB5E74FF0040CB2E74FF0050CBA
:1034F000AFE74FF0060CACE74FF0070CA9E7000070
:1035000044380240003C0140083C0140043C01407A
:103510000C3C01400069084201D0012070470020A6
:1035200070474269514041617047002A01D0816172
:1035300070470904816170470148006870470000C6
:10354000E400002002480168491C01607047000047
:10355000E400002010B50B48016841F400710160DF
:10356000016841F480610160016841F4807101608B
:10357000032000F091F8002000F006F800F018F8A1
:10358000002010BD003C024010B5044607484FF42F
:103590007A720068B0FBF2F001F082F80022214656
:1035A000501E00F045F8002010BD0000E80000208B
:1035B00010B5032000F070F8002211466FF00B00E8
:1035C00000F036F8002211466FF00A0000F030F8E3
:1035D000002211466FF0090000F02AF8002211467F
:1035E000501F00F025F800221146101F00F020F8AF
:1035F00000221146901E00F01BF800221146501EBA
:1036000000F016F800221146052000F011F8BDE880
:1036100010400520AFF3008000F01F01012202FAE4
:1036200001F14009800000F1E020C0F8001170476E
:1036300010B4184B1B68C3F30223C3F1070CBCF191
:10364000040F01D94FF0040C1C1D072C01D20023DC
:1036500000E0DB1E012404FA0CFCACF1010C0CEAC6
:103660000101994004FA03F35B1E1A40114300283C
:1036700008DA00F00F0000F1E020090180F8141DC5
:1036800010BC704700F1E020090180F8001410BC64
:10369000704700000CED00E000F00700064A1168DA
:1036A0004FF6FF03194041EA002040F0FD7040F062
:1036B00080601060704700000CED00E00120010206
:1036C00091FAA1F1B1FA81F1890001F1844101F58A
:1036D00060210860704700002DE9F84304464FF070
:1036E000010820784FF0000710F0050F3FD0DFF8F9
:1036F0005C91C9F86870FFF71FFF0546544E3068AB
:1037000010F0006F0BD0FFF717FF401B022802D903
:103710000320BDE8F883306810F0006FF3D147F65E
:10372000C07191FAA1F16068B1FA81F188404FF05F
:10373000E04292FAA2F2A168B2FA82F29140084302
:1037400044490860C9F86880FFF7F6FE054630680E
:1037500010F0006F0BD1FFF7EFFE401B022802D9DB
:103760000320BDE8F883306810F0006FF3D02078B4
:1037700010F0020F5CD03848016841F080510160C0
:10378000006800F080500090344D286840F480704C
:103790002860FFF7D1FE0646286810F4807F0BD121
:1037A000FFF7CAFE801B022802D90320BDE8F88378
:1037B000286810F4807FF3D0294D286800F4407009
:1037C00028B3A18901F44071814220D0286820F4F7
:1037D00040702449C1F800800F602860286810F00C
:1037E000010F14D0FFF7A8FE0746286810F0020F5B
:1037F0000DD141F28836FFF79FFEC01BB04202D9BF
:103800000320BDE8F883286810F0020FF3D0E068C9
:103810004FF4407131EA000213490CD0086820F4DB
:10382000F81008602868A189C1F30B0108432860DB
:103830000020BDE8F8830A6820F4407022F4F812F2
:1038400020F0704010430860ECE7000000004742A1
:103850000038024084380240403802400070004086
:1038600070380240400E4742083802402DE9F05FB0
:1038700004460E46DFF8D091D9F80000F7B200F008
:103880000F00B0420AD289F80070D9F8000000F0A9
:103890000F00B04202D00120BDE8F09F2078DFF891
:1038A000AC8110F0020F07D0D8F80000A16820F01A
:1038B000F0000843C8F80000207810F0010F51D044
:1038C00060686349012808D002280DD003280BD076
:1038D000096811F0020F2ED00AE0096811F4003FC8
:1038E00006D10120BDE8F09F096811F0007F1FD0CC
:1038F000D8F8001021F003010843C8F80000FFF7D2
:103900001BFE0546606841F2883A012816D002285D
:1039100029D003283CD0D8F8000010F00C0F51D06B
:10392000FFF70AFE401B504547D90320BDE8F09F32
:103930000120BDE8F09F0120BDE8F09FD8F800000D
:1039400000F00C0004283DD0FFF7F6FD401B504569
:1039500002D90320BDE8F09FD8F8000000F00C0069
:103960000428F1D12EE0D8F8000000F00C0008285F
:1039700028D0FFF7E1FD401B504502D90320BDE8E8
:10398000F09FD8F8000000F00C000828F1D119E0F1
:10399000D8F800004FF00C0B3BEA000012D0FFF704
:1039A000CBFD401B504502D90320BDE8F09FD8F85D
:1039B00000003BEA0000F2D104E0D8F8000010F06B
:1039C0000C0FADD1D9F8000000F00F00B0420AD9B9
:1039D00089F80070D9F8000000F00F00B04202D062
:1039E0000120BDE8F09F207810F0040F07D0D8F830
:1039F0000000E16820F4E0500843C8F80000207897
:103A000010F0080F08D0D8F80000216920F46040B9
:103A100040EAC100C8F8000000F058F8D8F80010DB
:103A2000F02292FAA2F201F0F001B2FA82F2D14051
:103A3000084A515CC840084908600020FFF7A4FD0F
:103A40000020BDE8F09F0000003C02400838024022
:103A50000038024004960108E800002001490120D6
:103A6000C864704700004742014800687047000082
:103A7000E800002000B5FFF7F7FF074909684FF499
:103A8000E05292FAA2F201F4E051B2FA82F2D1408D
:103A9000024A515CC84000BD083802401496010833
:103AA00000B5FFF7E1FF074909684FF4604292FA59
:103AB000A2F201F46041B2FA82F2D140024A515CB2
:103AC000C84000BD083802401496010810B41F48D1
:103AD000006810F00C011E481BD04FEA600C04294E
:103AE00016D0082915D11B4A116801F03F0113684F
:103AF00013F4800F47F6C0730DD0BCFBF1F01168D2
:103B0000194093FAA3F3B3FA83F3D94048430CE086
:103B1000604610BC7047B0FBF1F01168194093FA91
:103B2000A3F3B3FA83F3D940484311684FF440320A
:103B300092FAA2F201F44031B2FA82F2D140491C69
:103B40004900B0FBF1F010BC70470000083802409B
:103B50000024F400043802402DE9F84F0446DFF851
:103B60001C842078A8F1040710F0010FA7F10405C8
:103B700060D0D8F8000000F00C00042809D0D8F874
:103B8000000000F00C0008280DD1386810F4800FF8
:103B900009D0286810F4003F4CD06068002849D153
:103BA0000120BDE8F88F6068B0F5803F14D0B0F513
:103BB000A02F16D0286820F480302860286820F4D0
:103BC00080202860606810B3FFF7B6FC06462868BE
:103BD00010F4003F0ED02DE0286840F480302860BB
:103BE000F0E7286840F480202860286840F480309E
:103BF0002860E7E7FFF7A0FC801B642802D90320B8
:103C0000BDE8F88F286810F4003FF3D012E0FFF70A
:103C100093FC0646286810F4003F0BD0FFF78CFC9D
:103C2000801B642802D90320BDE8F88F286810F4AF
:103C3000003FF3D12078DFF8489310F0020F4FF0E7
:103C4000000663D0D8F800004FF0F80B10F00C0F0E
:103C500016D0D8F8000000F00C00082803D138680E
:103C600010F4800F0CD0E068C8B30120C9F8000040
:103C7000FFF762FC8246286810F0020F16D022E09F
:103C8000286810F0020F05D0E068012802D001205A
:103C9000BDE8F88F28689BFAABF22169B2FA82F28C
:103CA00020F0F8009140084328602FE0FFF744FC23
:103CB000A0EB0A00022802D90320BDE8F88F28688B
:103CC00010F0020FF2D028689BFAABF22169B2FA29
:103CD00082F220F0F80091400843286016E0FFE7E8
:103CE000C9F80060FFF728FC8246286810F0020F30
:103CF0000CD0FFF721FCA0EB0A00022802D9032018
:103D0000BDE8F88F286810F0020FF2D1207810F08B
:103D1000080F34D09B48DFF870B26169C1B101214E
:103D20000160FFF709FC8246DBF8000010F0020F8B
:103D300025D1FFF701FCA0EB0A00022802D90320DD
:103D4000BDE8F88FDBF8000010F0020FF1D016E0AC
:103D50000660FFF7F1FB8246DBF8000010F0020F6F
:103D60000DD0FFF7E9FBA0EB0A00022802D90320DF
:103D7000BDE8F88FDBF8000010F0020FF1D12078D9
:103D800010F0040F43D08148016841F08051016078
:103D9000006800F080500090DFF8F4B1DBF800001C
:103DA00040F48070CBF80000FFF7C6FB8246DBF8DA
:103DB000000010F4807F0DD1FFF7BEFBA0EB0A00DE
:103DC000022802D90320BDE8F88FDBF8000010F4C8
:103DD000807FF1D0A068DFF8BCB1012818D0052899
:103DE0001DD0DBF8000020F00100CBF80000DBF86C
:103DF000000020F00400CBF80000A06868B3FFF7D3
:103E00009BFB8246DBF8000010F0020F14D03CE070
:103E1000DBF8000040F00100CBF80000EDE7DBF834
:103E2000000040F00400CBF80000DBF8000040F098
:103E30000100CBF80000E0E7FFF77EFBA0EB0A01F2
:103E400041F28830814202D90320BDE8F88FDBF8C7
:103E5000000010F0020FEFD017E0FFF76DFB824675
:103E6000DBF8000010F0020F0FD0FFF765FBA0EBAE
:103E70000A0141F28830814202D90320BDE8F88F5F
:103E8000DBF8000010F0020FEFD1A069F0B3D8F812
:103E9000001001F00C0108296CD0022810D0C9F8DC
:103EA0006060FFF749FB0446286810F0007F5ED091
:103EB000FFF742FB001B022855D90320BDE8F88F0D
:103EC000C9F86060FFF738FB0646286810F0007FED
:103ED0000BD0FFF731FB801B022802D90320BDE87D
:103EE000F88F286810F0007FF3D1216AE0694FF065
:103EF000FF3340EA010247F6C07191FAA1F1606A0E
:103F0000B1FA81F100FA01F1A06A00E02FE003EBC1
:103F100050004FF4403393FAA3F3B3FA83F398407D
:103F2000084310434FF0706292FAA2F2E16AB2FACB
:103F300082F29140084338600120C9F86000FFF721
:103F4000FBFA0446286810F0007F10D1FFF7F4FA5E
:103F5000001B022802D90320BDE8F88F286810F062
:103F6000007FF3D003E0286810F0007FA0D100208C
:103F7000BDE8F88F0120BDE8F88F00000838024046
:103F800000004742800E47427438024040380240E9
:103F900000700040703802400068503000EB810033
:103FA000006870470068503000EB81000260704785
:103FB00000B50B460068406820F0C00121F07F4149
:103FC000080CD870C1F3042C83F801C001F03F0C39
:103FD00083F802C0C1F342311970002A0AD102F0FD
:103FE00015F8D870587802F011F85870987802F0E7
:103FF0000DF89870002000BD00B50B460168896A75
:10400000596001680969C1F30E0199600068006890
:104010000F490140C1F305401870C1F3062C83F825
:1040200001C001F07F0C83F802C001F48001090C8B
:10403000D970002A0AD101F0E9FF1870587801F010
:10404000E5FF5870987801F0E1FF9870002000BDFE
:104050007F7F7F0010B50446002C02D0607F10B136
:1040600006E0012010BD00202077204600F044F833
:10407000022060772168CA20486221685320486284
:10408000204602F097F9FF2128B120684162042000
:104090006077012010BD2068826822F0400222F47F
:1040A000E0028260206882686368D4F814C01A4312
:1040B000236943EA0C031A4382602268E0681061B6
:1040C00020680269238942EA034202612068C268CB
:1040D00022F08002C2602068026C22F48022026416
:1040E0002068026CA3691A430264206841620120BF
:1040F0006077002010BD000010B590B00068A0F1FE
:104100008041B1F5205113D1FFF7D8FA0420049073
:1041100000200A900124069404A8FFF71DFD022048
:104120000090C00103906846FFF7D6FA014804608A
:1041300010B010BD3C0E47422DE9F04704460B4637
:10414000207F012805D001262677022060771AB14A
:104150000AE00220BDE8F087587810F0100F03D075
:1041600000F0EF000A30587042B3587801F04EFF6B
:10417000987801F04BFF9878D9781A7840EA014096
:104180005978090241EA423140EA01052168CA2012
:104190004862216853204862204602F00BF900274C
:1041A0004FF0FF084FF00409C8B12068C0F8248020
:1041B00084F81D9027770120BDE8F087D87801F0BA
:1041C0002EFF0204587801F02AFF42EA0022987874
:1041D00001F025FF1978104340EA4135D6E7216800
:1041E00025F0C00020F07F4048602068C16821F0C1
:1041F0008001C1602068806810F0200F0CD120463B
:1042000000F09AF840B12068C0F8248084F81D902E
:1042100027770120BDE8F0872068C0F82480667702
:1042200027770020BDE8F0872DE9F04704460D46CA
:10423000207F012810D04FF0010984F81C90022043
:10424000607700275AB12068806810F0400F1DD0B9
:10425000287801F0DBFE1AE00220BDE8F087206834
:10426000806810F0400F00D1EF70287801F0D7FE81
:104270000204687801F0D3FE42EA0022A87801F037
:10428000CEFEE978104340EA01460BE0EF70A878D3
:104290002978EA7840EA01406978090241EA024156
:1042A00040EA01062168CA2048622168532048621A
:1042B000204602F07FF84FF0FF084FF0040A40B1AB
:1042C0002068C0F8248084F81DA027770120BDE86D
:1042D000F08718482168304008602068816821F420
:1042E000802181602969E868014320688268114360
:1042F00081602068C16821F08001C1602068806809
:1043000010F0200F0CD1204600F016F840B12068C4
:10431000C0F8248084F81DA027770120BDE8F0872D
:104320002068C0F8248084F81D9027770020BDE81D
:10433000F08700007F7F7F0070B504462068C16869
:1043400021F0A001C160FFF7F7F805462068C068BA
:1043500010F0200F0CD1FFF7EFF8401BB0F57A7F7B
:1043600001D9032070BD2068C06810F0200FF2D082
:10437000002070BD70B50446002C05D00025A56254
:1043800094F8510010B106E0012070BD84F850503F
:10439000204600F031F8022084F8510020680168BE
:1043A00021F040010160A168606822690843E1686A
:1043B0001143084361690843218B01F400710843EC
:1043C000E1690843216A0843A16A0843216808603B
:1043D000A069042101EA1040616A0843216848602D
:1043E0002068C16921F40061C1616565012084F81C
:1043F0005100002070BD0000F0B587B00068A0F14A
:104400008041B1F560513CD100251F48016841F45D
:1044100080410160006800F4804001901B48016801
:1044200041F480710160016801F4807101910168BB
:1044300041F004010160006800F0040001900A20CE
:10444000029002240394059405260696104F02A9B3
:104450003846FEF751FF0420029003940495069617
:1044600002A90C48FEF748FF012211463846FFF723
:104470005CF8012102910391069602A93846FEF7E5
:104480003BFF07B0F0BD000040380240303802402A
:1044900000200240000802402DE9F84F0446DDF8F4
:1044A00028800D4616469B4601274FF0000994F8D8
:1044B000500001280ED0012084F85000FFF73CF88E
:1044C000824694F85100616801280ED0B1F5827FD0
:1044D00007D102E00220BDE8F88FA16809B90428DD
:1044E00003D04FF0020900F0C3B845B13EB1BBF1B3
:1044F000000F04D094F85100012803D005E04FF0DC
:104500000109B5E0052084F8510000206065A6632C
:10451000A4F83EB0A4F83CB02563A4F836B0A4F8E3
:1045200034B0206460642068016811F0400F03D14A
:10453000016841F040010160E068B0F5006F05D00E
:104540006068C8B3E08E01283ED06EE0606810B1AC
:10455000E08E012831D121682888C860AD1CE08E2A
:10456000401EE08629E06FB1E08E58B12068816876
:1045700011F0020F06D02988C160AD1CE08E401EEC
:10458000E0860027E08F58B12068816811F0010FA4
:1045900006D0C0683080B61CE08F401EE08701273F
:1045A000B8F1FF3F09D0FEF7C7FFA0EB0A00404576
:1045B00003D34FF003095BE006E0E08E0028D2D180
:1045C000E08F0028CFD136E02168287808736D1C71
:1045D000E08E401EE08628E06FB1E08E58B1206882
:1045E000816811F0020F06D015F8011B0173E08EEF
:1045F000401EE0860027E08F58B12068816811F0E6
:10460000010F06D0C06806F8010BE08F401EE0875E
:104610000127B8F1FF3F08D0FEF78EFFA0EB0A009C
:10462000404502D34FF0030922E0E08E0028D3D1A9
:10463000E08F0028D0D14346012202212046CDF848
:1046400000A002F049F810B14FF0030910E0524603
:104650004146204601F0F0FE20B14FF00109202034
:10466000606505E0A06818B92068C168806800909E
:10467000012084F85100002084F850004846BDE82D
:10468000F88F4FF0E021042804D0086920F00400DE
:1046900008617047086940F004000861704770477E
:1046A000401EB0F1807F01D3012070474FF0E02120
:1046B0004861044AF02010700020886107200861DA
:1046C0000020704723ED00E010B5FFF7E8FF10BDB4
:1046D0007047704710B490F83820012A2AD001237F
:1046E00080F83830022280F839200268D2F804C0FD
:1046F0002CF0700CC2F804C00268D2F804C00C6838
:104700004CEA040CC2F804C00268D2F808C02CF0CD
:10471000800CC2F808C00268D2F808C049684CEAA8
:104720000101916080F83930002180F8381010BC08
:104730000020704710BC0220704710B50446002CC2
:1047400003D094F8390010B107E0012010BD00201B
:1047500084F83800204600F00DF8022084F8390073
:10476000211D206802F062FB012084F8390000203E
:1047700010BD000008B50068A0F18041B1F580517E
:1047800012D10A48016841F010010160006800F090
:1047900010000090012211463620FEF749FFBDE8C7
:1047A00008403620FEF738BF08BD00004038024000
:1047B0000168CA6842F00102CA600068016841F0FD
:1047C0000101016000207047022180F83910016862
:1047D0000A6A41F211131A4207D10A6A9B101A425F
:1047E00003D10A6822F001020A60012180F8391021
:1047F00000207047704770B50446206801694FF08B
:10480000000511F0020F17D0C16811F0020F13D08C
:10481000E91E0161012020762068806910F0030FF5
:1048200003D02046FFF7E6FF05E0204600F09DF8A4
:10483000204600F09BF825762068016911F0040FEE
:1048400018D0C16811F0040F14D06FF00401016199
:10485000022020762068806910F4407F03D0204633
:10486000FFF7C8FF05E0204600F07FF8204600F083
:104870007DF825762068016911F0080F18D0C1680D
:1048800011F0080F14D06FF00801016104202076A8
:104890002068C06910F0030F03D02046FFF7AAFF7D
:1048A00005E0204600F061F8204600F05FF825762C
:1048B0002068016911F0100F18D0C16811F0100FB5
:1048C00014D06FF010010161082020762068C069C3
:1048D00010F4407F03D02046FFF78CFF05E0204610
:1048E00000F043F8204600F041F825762068016981
:1048F00011F0010F09D0C16811F0010F05D06FF060
:1049000001010161204600F033F82068016911F0CF
:10491000800F09D0C16811F0800F05D06FF08001C1
:1049200001612046FFF7D4FE2068016911F0400FB5
:1049300009D0C16811F0400F05D06FF0400101614E
:10494000204600F0D9F82068016911F0200F0BD043
:10495000C16811F0200F07D06FF0200101612046DF
:10496000BDE87040FFF7B5BE70BD704770470000EE
:104970002DE9F04182B03D4EB089401CB081708974
:10498000401C70813A4F3868401C3860B08940F64E
:10499000E951B0FBF1F201FB1201DFF8D8800124EC
:1049A000A1F55060E83804D198F8000008B1324809
:1049B0000470B0890025A0F51C51483913D1B58188
:1049C0002E482FA10268684602F02EFE6846FBF7CB
:1049D0000FFC82B24FF47A7369462A4800F0C2FB9A
:1049E00029A002F011FE2B48007830B17089A0F5A3
:1049F0000C51B93901D1284804707089A0F56A4179
:104A0000CE3908D1758198F8000020B12348047090
:104A1000307900B934710021214A12EBC11008D05D
:104A2000036C032B05DB036A012B02D1436E5B1E73
:104A30004366491C0529F0DB3968A1F5DA10B0F5A9
:104A40005D500FD1F07908B1F57105E015A002F0C5
:104A5000DBFD1D48047034703D601CA002F0D4FDE5
:104A60002448057002B0BDE8F0810000000000207D
:104A70005C00002040000020480000205000002082
:104A800040256400AC0A0020B7A2CBCDD0C4CCF83E
:104A90000A000000410000204A00002049000020D8
:104AA00000010020B3A4CAB1BCE4CEB4CAD5B5BDE0
:104AB000B0B2D7BFCDA8D0C5CFFBCFA2A3ACD7D4BF
:104AC000B6AFD6D8C6F40A00570000203330B7D6A8
:104AD000D6D3BCC6CAB1BDE1CAF8A3ACD6D8D0C241
:104AE000BFAACABCC4A3CABD36BFD8D6C6B7BDCA42
:104AF000BD0A0000E20000207047704710B5044670
:104B000022681068D168526900F00F03002B0AD1A7
:104B100010F0200F07D011F0200F04D02046BDE880
:104B2000104002F00ABA002B6BD002F0010301F42E
:104B3000907C53EA0C0364D010F0010F06D011F4FE
:104B4000807F03D0E36B43F00103E36310F0040FB5
:104B500006D012F0010F03D0E36B43F00203E363CE
:104B600010F0020F06D012F0010F03D0E36B43F0F8
:104B70000403E36310F0080F06D012F0010F03D016
:104B8000E26B42F00802E263E26B002A2ED010F0E2
:104B9000200F05D011F0200F02D0204602F0CDF9F1
:104BA00020684069C0F38010E16B11F0080F00D15C
:104BB00008B3204602F0A6F92068416911F0400FC1
:104BC00015D0416921F040014161606B58B118492D
:104BD0000165606BFEF7FCFA002807D0606B016D81
:104BE000BDE8104008472046FFF787FF10BD20466C
:104BF000FFF783FF10BD2046FFF77FFF0020E06333
:104C000010BD10F0800F07D011F0800F04D02046A7
:104C1000BDE8104002F07CBB10F0400FF0D011F066
:104C2000400FEDD02046BDE8104002F079B90000F9
:104C3000F56E010870B50446002C04D094F83900D4
:104C4000002510B106E0012070BD84F838502046E0
:104C500000F022F8242084F839002068C16821F48B
:104C60000051C160204602F0B1F92068016921F4C9
:104C7000904101612068416921F02A014161206869
:104C8000C16841F40051C160E563202084F8390017
:104C900084F83A00002070BDF0B587B001680027A5
:104CA00002240125032007233F4EA1F18042B2F5E3
:104CB00088322DD03D4AA1F1804CBCF5904C42D0B9
:104CC000A1F18043B3F5A04320D1116841F0040164
:104CD0001160116801F004010191116841F00801AF
:104CE0001160116801F0080101919114029103947F
:104CF000049505900820069002A92D48FEF7FCFABD
:104D00000420029002A92B48FEF7F6FA07B0F0BD86
:104D100029490A6842F010020A60096801F010018E
:104D2000019140210291039404950590069302A9F4
:104D30003046FEF7E1FA8021029102A93046FEF7E3
:104D4000DBFA07B0F0BD1D49D1F800C04CF4802C4F
:104D5000C1F800C0096801F480210191116841F097
:104D600080011160116801F0800101914FF48061B0
:104D70000291039404950590069302A93046FEF72C
:104D8000BBFA4FF40061029102A93046FEF7B4FA73
:104D90004FF48070029003950494069702A9084886
:104DA000FEF7AAFA07B0F0BD000402403038024016
:104DB00000080240000C02404438024040380240E3
:104DC000001C024090F83A30202B01D0022070479E
:104DD000D1B1CAB190F83830012B17D081628285E9
:104DE000C2850021C163222280F83A2080F8381061
:104DF00001684A6942F001024A610068C16841F4F1
:104E00009071C160002070470120704702207047F8
:104E10002DE9F05F0446DFF8F8B12068002701268D
:104E2000DFF8F0A1A0F18041B1F5883124D0A0F1E4
:104E30008041B1F590411DD17849774B9AF8032014
:104E400008881A54401C088094F83A00202800F082
:104E5000D7809AF80100401CC0B28AF801000A28E5
:104E6000F2D38AF801706EA002F0CEFB8BF80060DE
:104E70008AF80060BDE8F09FDFF8BC816F4D98F8BC
:104E80000000C8B19AF802106DA002F0BDFB01222B
:104E900072497348FFF796FF9AF80800401C8AF899
:104EA00008002F809AF802007B28E3D188F8007070
:104EB0008AF80900BDE8F09F9AF8091069A002F08D
:104EC000A3FB2888DFF8B49118B99AF809102029B3
:104ED00005D09AF8091009F80010401C28809AF8AB
:104EE000090026285AD006DC212818D0232809D00A
:104EF000242867D120E03A282DD0402859D07B289B
:104F000060D139E088F800608AF805602888484454
:104F100000F8017C5AA002F077FB2F8052E088F85D
:104F200000608AF806602888484400F8017C5AA08E
:104F300002F06AFB2F8045E02888052842D288F8D5
:104F40000060484400F8017C5948067059A002F0FE
:104F50005BFB2F8036E02888A0F10A01282931D890
:104F600088F80060484400F8017C5848067058A052
:104F700002F04AFB2F8025E04FF47A7301225BA1F7
:104F8000374800F0EFF88AF807602888484400F8AE
:104F9000017C57A002F038FB2F8013E028880528F9
:104FA00010D288F8006058A002F02EFB8BF8006049
:104FB00008E02888052805D25948067059A002F053
:104FC00023FB2F8094F83A00202812D09AF8010091
:104FD000401CC0B28AF801000A28F3D38AF8017095
:104FE00058A002F011FB8BF800608AF80060BDE861
:104FF000F09FBDE8F05F012257491948FFF7E2BE74
:10500000BDE8F05F012255495548FFF7DBBE0000BF
:1050100057000020000000209006002044000020DF
:10502000343835B4AEBFDAB6C2C8FBA3ACD7D4B6F9
:10503000AFD6D8C6F40A0000E100002042000020EC
:10504000B0B2D7BFBDD3CAD5B5ABB2BBB1A3B4E67E
:10505000CAFDBEDDA3BA25630A00000002000020DD
:10506000AC0A0020B0B2D7BFBDD3CAD5B1A3B4E655
:10507000CAFDBEDDA3BA25630A000000C2060020F7
:10508000B0B2D7BFC5E4D6C3D0C5CFA2A3BABDD3F3
:10509000CAD5CDEAB3C90A00B0B2D7BFC3FCC1EECE
:1050A000D0C5CFA2A3BABDD3CAD5CDEAB3C90A0031
:1050B00058000020B0B2D7BFBDE2B3FDD0C5CFA22B
:1050C000A3BABDD3CAD5CDEAB3C90A00590000209E
:1050D000B0B2D7BFB8FCD0C2CAB1BCE4D0C5CFA271
:1050E000A3BABDD3CAD5CDEAB3C90A007B0000007C
:1050F000B0B2D7BFCDA8D0C5D0C5CFA2A3BABDD3BB
:10510000CAD5CDEAB3C90A00CFB5CDB3D7BCB1B8C3
:10511000D6D8C6F4A3ACB8FCD0C2B3CCD0F20A0047
:10512000E0000020B0B2D7BFC7E5B3FDB5A5C6AC5F
:10513000BBFA464C415348BDD3CAD5CDEAB3C90AE0
:105140000A000000B4AEBFDAB6C2C8FBA3ACD7D425
:10515000B6AFD6D8C6F40A0009000020030000202C
:105160002C0B00202DE9F84304460D4691461E46BF
:1051700094F83900202802D00220BDE8F8834DB30E
:10518000B9F1000F26D094F83800012825D001206D
:1051900084F838000027E763212084F83900FEF7FF
:1051A000CBF98046A4F82490A4F82690E08CA0B314
:1051B000E08C401EE084A068B0F5805F10D04346CC
:1051C000002280212046009602F0D5F8F0B103209D
:1051D000BDE8F8830120BDE8F8830220BDE8F8832C
:1051E0004346002280212046009602F0C4F810B108
:1051F0000320BDE8F88328882168C0F308004860D0
:10520000206908B16D1C05E0AD1C03E0216815F8AC
:10521000010B4860E08C0028CAD14346002240219F
:105220002046009602F0A7F810B10320BDE8F883ED
:10523000202084F8390084F838700020BDE8F88315
:105240007047000002A002F0DFF901F0D5F8FEE798
:10525000486172644661756C745F48616E646C6528
:105260007220D2ECB3A3A3ACB5BCD6C2D6D8C6F4D8
:105270000A00000070B586B000256A48016841F058
:1052800040010160016801F040010091016841F0B6
:1052900040010160016801F040010091016841F0A6
:1052A00040010160016801F040010091016841F096
:1052B00040010160016801F040010091016841F086
:1052C00040010160016801F040010091016841F076
:1052D00040010160016801F040010091016841F066
:1052E00040010160016801F040010091016841F056
:1052F00040010160016801F040010091016841F046
:1053000040010160016801F040010091016841F035
:1053100040010160016801F040010091016841F025
:1053200040010160016801F040010091016841F015
:1053300040010160006800F04000009001200190F1
:10534000029502240394384E01A93046FDF7D4FF9C
:1053500001940295039401A93046FDF7CDFF042086
:105360000190039401A93046FDF7C6FF0820019083
:105370000295039401A93046FDF7BEFF102001906D
:105380000295039401A93046FDF7B6FF2020019055
:105390000295039401A93046FDF7AEFF402001902D
:1053A0000295039401A93046FDF7A6FF80200190E5
:1053B0000295039401A93046FDF79EFFE00101909C
:1053C0001A4D0295039401A93046FDF795FF20027E
:1053D00001900295039401A93046FDF78DFF60020C
:1053E00001900295039401A93046FDF785FFA003C3
:1053F00001900295039401A93046FDF77DFF01223B
:1054000000212820FEF714F92820FEF705F90222D2
:1054100000211720FEF70CF91720FEF7FDF806B063
:1054200070BD00003038024000180240000021101A
:1054300070B50D282CD2DFE800F02B070A0D1013F1
:1054400016191C1F222528001B4C022520E01A4C8F
:1054500002251DE0184C04251AE0174C082517E01A
:10546000154C102514E0144C202511E0124C402559
:105470000EE0114C80250BE00F4CA51508E00E4CFA
:10548000651505E00C4C251502E00B4C4FF400456A
:1054900029462046FEF73EF8012808D11420FDF7E2
:1054A000A9FE29462046FEF735F8012801D0012043
:1054B00070BD002070BD00000018024010B4002331
:1054C0000022B1F800C0012101FA02F41CEA040F25
:1054D00005D0C2F10F0401FA04F423439BB2521C1D
:1054E000102AF1DB038010BC704710B400230022A7
:1054F00091F800C0012101FA02F41CEA040F05D062
:10550000C2F1070401FA04F42343DBB2521C082A57
:10551000F1DB037010BC7047F0B587B02348016819
:1055200041F080010160016801F080010191016892
:1055300041F010010160016801F010010191016862
:1055400041F010010160006800F010000190184F58
:1055500000224FF400713846FDF7E7FF154E002298
:1055600020213046FDF7E1FF002240213046FDF7C3
:10557000DCFF70150290012403940225059502A911
:105580003846FDF7B9FE202102910394059502A942
:105590003046FDF7B1FE402002900394059502A924
:1055A0003046FDF7A9FE07B0F0BD000030380240DC
:1055B000001C02400010024008B500210D4802689E
:1055C00042F002020260006800F0020000900B4806
:1055D000094A02604FF4965242608160C1600161E5
:1055E0000C2242618161C161FFF724FBBDE80840E4
:1055F00000F006B83038024000100140AC0A00202C
:1056000010B5002201212520FEF712F8BDE8104058
:105610002520FEF701B810B5002202212720FEF751
:1056200007F8BDE810402720FDF7F6BF10B50022AF
:1056300003213520FDF7FCFFBDE810403520FDF7C4
:10564000EBBF000010B510480E4901600021416019
:105650007F228260FF22C260016141618161FEF7A9
:10566000F9FC01210848FEF797FCA0F54851F139F3
:1056700006D1064801680168016841F08071016047
:1056800010BD000000280040000C002074380240CB
:105690000C480B4901604FF4827141600021816028
:1056A000C16002220261012242615202826108222B
:1056B000C2610162416281620A21C162FEF75ABE83
:1056C00000380040A80B002008B500210D480268F2
:1056D00042F480120260006800F4801000900B48D1
:1056E000094A02604FF4E13242608160C1600161A9
:1056F0000C2242618161C161FFF79CFABDE808405C
:10570000FFF794BF4038024000500040EC0A0020F0
:1057100002A001F079FF00F06FFEFEE74D656D4DD0
:10572000616E6167655F48616E646C657220D2EC82
:10573000B3A3A3ACB5BCD6C2D6D8C6F40A00000049
:10574000F0B52DED028B93B00C46174600250E9553
:105750000F95109511951295019502950395049555
:10576000059506950795089509950A950B950C954D
:105770000D950021C74A01AE1288002A04DD435C62
:105780007354491C9142FADB114601A8FBF784FDD2
:1057900060B12146C0A001F037FF606D401C60651C
:1057A000FBF7F0FE13B0BDEC028BF0BDC4A001F01E
:1057B0002BFFCCA104F17400FAF721FD0DF10301D8
:1057C0008A1CCB1C18B3E06E042840D0A06E405C4D
:1057D0008DF83A00A06E305C8DF83B008DF83850A3
:1057E0008DF83950C1A104F15C00FAF708FD0028DA
:1057F0003DD0C0A104F15C00FAF701FD00283CD0C7
:10580000BEA001F001FF13B0BDEC028BF0BDE06E55
:1058100004280CD0A06E305C8DF83A00A06E405C7D
:105820008DF83B008DF838508DF83950DAE7A06ECE
:10583000405C8DF83A00A06E305C8DF83B00A06EA5
:10584000815C8DF83810C05C8DF83900CAE7A06E15
:10585000415C8DF83810305C8DF83900A06E805CAA
:105860008DF83A00A06EC05C8DF83B00BAE70EA838
:10587000FBF736FCB0EE408A07E00EA8FBF7E8FC29
:10588000216F03F09DFDB0EE408A18EE100AFAF782
:10589000C9FE41EC100BA2A053EC102B01F0B4FE9A
:1058A000D4F8800010B9D4F88410C9B19FEDA50ACE
:1058B000D4F88410C8EE000A081A00D5404200EE61
:1058C000100AB8EEC00A20EE808A18EE100AFAF725
:1058D000A9FE41EC100B9CA053EC102B01F094FEA0
:1058E000072F79D2DFE807F00422405E7D9BB900E4
:1058F0009C4890ED000AB4EEC80AF1EE10FA11D8F7
:10590000994890ED000AB4EEC80AF1EE10FA09DBEE
:1059100094ED140A30EE080A84ED140AA06D401CC0
:10592000A065B0E0606D401C6065ACE08F4890ED14
:10593000000AB4EEC80AF1EE10FA11D88C4890EDC6
:10594000000AB4EEC80AF1EE10FA09DB94ED140A6D
:1059500030EE080A84ED140AA06D401CA06592E0A8
:10596000606D401C60658EE0824890ED000AB4EEE8
:10597000C80AF1EE10FA11D87F4890ED000AB4EE93
:10598000C80AF1EE10FA09DB94ED140A30EE080AA9
:1059900084ED140AA06D401CA06574E0606D401C8D
:1059A000606570E0754890ED000AB4EEC80AF1EE4B
:1059B00010FA12D8724890ED000AB4EEC80AF1EE5F
:1059C00010FA0ADB94ED140A30EE080A84ED140A8A
:1059D000A06D401CA06556E052E0606D401C606503
:1059E00051E0684890ED000AB4EEC80AF1EE10FAF2
:1059F00011D8654890ED000AB4EEC80AF1EE10FA2D
:105A000009DB94ED140A30EE080A84ED140AA06D47
:105A1000401CA06537E0606D401C606533E05B486A
:105A200090ED000AB4EEC80AF1EE10FA11D8584809
:105A300090ED000AB4EEC80AF1EE10FA09DB94ED1D
:105A4000140A30EE080A84ED140AA06D401CA0650B
:105A500019E0606D401C606515E0B5EEC08AF1EE9E
:105A600010FA09DB94ED140A30EE080A84ED140AEA
:105A7000A06D401CA06506E0606D401C606502E002
:105A800044A001F0C1FDFBF77DFD13B0BDEC028B1E
:105A9000F0BD0000460000204D6F646275737072A7
:105AA0006F63657373A3BAB4ABB8D0C6F7BDD3CA7E
:105AB000D5CAFDBEDDB4EDCEF33A25730A00000071
:105AC0004D6F6462757370726F63657373A3BAB45C
:105AD000ABB8D0C6F7BDD3CAD5CAFDBEDDD5FDC8AB
