:020000040801F1
:10000000C04100209D0101089D6901085D5D010856
:1000100081620108B912010825860108000000006C
:100020000000000000000000000000006F760108E2
:10003000112A010800000000296D01089D7C0108BB
:10004000B7010108B7010108B7010108B7010108AC
:10005000B70101082B6D0108B7010108B7010108BC
:10006000B7010108B7010108B7010108B70101088C
:10007000B7010108B7010108B7010108B70101087C
:10008000B7010108B7010108B7010108B70101086C
:10009000B7010108B7010108B7010108292A0108C1
:1000A000B7010108B7010108B7010108B70101084C
:1000B000B7010108B7010108B7010108B70101083C
:1000C000B7010108B7010108B7010108B70101082C
:1000D000B701010875830108B70101088183010890
:1000E000132A0108B7010108B7010108B701010887
:1000F000B7010108B7010108B7010108B7010108FC
:10010000B7010108B7010108B7010108B7010108EB
:10011000B7010108B7010108A57D0108B701010871
:10012000B7010108B7010108B7010108B7010108CB
:10013000B7010108B7010108B7010108B7010108BB
:10014000B7010108B7010108B7010108B7010108AB
:10015000B7010108B7010108B7010108B70101089B
:10016000B7010108B7010108B7010108B70101088B
:10017000B7010108B7010108B7010108000000003C
:10018000B7010108B7010108DFF80CD000F09AFCB4
:100190000048004745A00108C041002006488047AC
:1001A00006480047FEE7FEE7FEE7FEE7FEE7FEE75C
:1001B000FEE7FEE7FEE7FEE7497D01088901010849
:1001C000A0F14101192900D82030704740EA01030D
:1001D0009B0703D009E008C9121F08C0042AFAD2FD
:1001E00003E011F8013B00F8013B521EF9D27047C1
:1001F000D2B201E000F8012B491EFBD27047002269
:10020000F6E710B513460A4604461946FFF7F0FF15
:10021000204610BD421E12F8013F002BFBD111F801
:10022000013B02F8013B002BF9D17047421C10F84A
:10023000011B0029FBD1801A704710B5002200E095
:10024000521C835C8C5CA34201D1002BF8D1D8B244
:10025000E1B2401A10BD034611F8012B00F8012B42
:10026000002AF9D11846704770B50F4D00B92868BB
:10027000002412E00A4602E09E4203D0521C13788A
:10028000002BF9D1DAB2224305D02BB124B10021E1
:1002900000F8011B04E00446401C0678002EE9D15A
:1002A0002860204670BD00000801002070B5064699
:1002B00008F020FA046805460A220021304600F0C2
:1002C000F5FA2C6070BD2DE9FE4F804681EA0300EF
:1002D000C00F0C46009021F0004123F00045B8EB20
:1002E0000200A94105D24046214690461C460B46D5
:1002F000024623F00040104347D0270DC7F30A0001
:10030000C3F30A510290401A019040286BDAC3F3FC
:10031000130040F4801B0098924620B10023D2EBDA
:10032000030A63EB0B0B01985946C0F1400250469B
:1003300000F03DFA06460D4650465946019A00F037
:1003400055FA10EB08006141002487EA115284EA53
:10035000E7731A4340D0009A62B3019A012A4FEA28
:10036000075215DC001B61EB02014FF0004202EA6C
:100370000752CDE90042001C41F5801132462B4660
:1003800000F012FB03B0BDE8F08F40462146F9E7CC
:10039000001B61EB0201001C41F5801300185B415A
:1003A0002018A2F5001747EB030140EAD570B619F3
:1003B0006D4111E06D084FEA360645EAC0754FEA17
:1003C0000752001B61EB0201001C41F58011490836
:1003D0004FEA30000019514132462B4603B0BDE8C8
:1003E000F04F00F0D2BA0098012240000023D0EB79
:1003F000020263EBE073009821464FEAE074B8EB29
:10040000000061EB0401E9E783F000435BE781F062
:10041000004158E72DE9FE4F81EA030404F000444F
:1004200021F0004100944FF0000B23F0004350EA0C
:1004300001045ED052EA03045BD0C3F30A54C1F353
:100440000A552C44A4F2F3340194A0FB0254C1F3E6
:10045000130141F48011C3F3130343F4801301FB30
:10046000024400FB034E840A970A44EA815447EA97
:100470008357A4FB076802958D0A05FB07854FEAA1
:10048000932C04FB0C542705029D4FEA065847EABB
:100490001637B5EB08056EEB070C870E920E47EA90
:1004A000811742EA8312A7FB0201B6EB0B0164EB52
:1004B00000042B0D43EA0C335E1844EB1C50DA4663
:1004C0005146E7FB0201C5F313044FEA0B3343EA3D
:1004D00014534FEA0432019C43EA0603A4F10C04CE
:1004E0000294009CCDE900B400F05EFA03B0BDE8D0
:1004F000F08F00200146F9E72DE9F04D81EA030471
:1005000004F0004B21F0004514464FF0000A23F0A0
:10051000004150EA050220D054EA01021DD0C5F383
:100520000A570246C5F31303C1F31300C1F30A5679
:1005300040F4801543F48013A7EB0608101BD64641
:1005400008F2FD3873EB050002D308F1010801E061
:1005500092185B41B8F1000F03DA00200146BDE8B4
:10056000F08D00204FF48011064684460EE0171BE4
:1005700073EB050705D3121B63EB050306434CEA37
:10058000010C49084FEA300092185B4150EA01071C
:10059000EDD152EA030012D082EA040083EA050199
:1005A000084305D0101BAB4106D20122002306E010
:1005B00000224FF0004302E06FF0010253101AEBEB
:1005C00006004CEB085110EB0A0041EB0B01BDE8B3
:1005D000F04D00F0DAB90EB540F23341029100213E
:1005E000CDE900110A460B4600F0DEF903B000BD6C
:1005F00070B5C1F30A5201F000450024C1F31301A4
:1006000040F2FF3341F480119A4201DA002070BDBC
:1006100040F233439A42A2F2334203DC524200F0EA
:10062000D5F800E090402C43F1D0404270BDC1F3BA
:100630000A5210B5C1F3130140F2FF3341F48011A7
:100640009A4201DA002010BD40F233439A42A2F2EE
:10065000334203DC524200F0B9F810BD904010BDA7
:1006600000F0004230F000400AD0C10D01F5607189
:10067000C0F3160042EA0151C20840071143704717
:10068000002001467047000030B5041E71F10004DF
:1006900004DB4FF00044404264EB0101141E73F18F
:1006A000000405DB1C464FF00043524263EB040399
:1006B0008B4208BF824230BD30B5041E71F1000488
:1006C00004DB4FF00044404264EB0101141E73F15F
:1006D000000405DB1C464FF00043524263EB040369
:1006E000994208BF904230BD01F0004330B421F080
:1006F000004150EA010206D00A0DA2F56072C1F372
:100700001301002A02DC30BC00207047440F44EA89
:10071000C104C100E01830BC00EBC25000F0FEB8CC
:1007200030B50B46014600202022012409E021FAC1
:1007300002F59D4205D303FA02F5491B04FA02F5BE
:100740002844151EA2F10102F1DC30BD2DE9F05F55
:100750000546002092469B46884606468146402430
:100760001BE0284641464746224600F02FF85346F4
:100770005A46C01A914110D311461846224600F03D
:1007800016F82D1A67EB01084F462246012000217A
:1007900000F00DF817EB00094E41201EA4F10104F2
:1007A000DFDC484631462A464346BDE8F09F202A12
:1007B00004DB203A00FA02F1002070479140C2F1B8
:1007C000200320FA03F3194390407047202A04DBEA
:1007D000203A21FA02F00021704721FA02F3D040BA
:1007E000C2F120029140084319467047202A06DBD7
:1007F000CB17203A41FA02F043EAE07306E041FAEF
:1008000002F3D040C2F120029140084319467047DC
:100810000FB4002300B589B00CA900910B996FF0BB
:100820000042CB601E4B06931E4B07930423CDE979
:1008300001321D4A089202466B46002000F0F6F98C
:1008400009B05DF814FB70B586B006464FF0FF3076
:100850000091CDE90101002015460C460490324676
:10086000694604A8FFF7D4FF02460498211825B171
:1008700008B1084600E020462860049800280DD002
:10088000002A02DD0098884208D0081B0094CDE9B8
:1008900001043246694604A8FFF7BAFF06B070BDEE
:1008A000650E0108830E0108F10A01082DE9F047E1
:1008B00091460F4680460446002614F8015B2DB190
:1008C00000F012F90068405DC007F6D12B2D02D070
:1008D0002D2D18D0641E4A463946204600F0E2FA13
:1008E00027B13968A14201D1C7F8008071054FF0E6
:1008F00002040BD54042002803DD07F0FBFE046034
:10090000A007BDE8F08746F48066E4E70028F8DA3F
:1009100007F0F0FE04606FF00040F2E70029A8BF86
:100920007047401C490008BF20F00100704710B418
:10093000B0FA80FC00FA0CF050EA010404BF10BCCD
:10094000704749B1CCF1200421FA04F411FA0CF1FA
:1009500018BF012121430843A3EB0C01CB1D4FEA33
:1009600000614FEA102042BF002010BC704700EB2E
:10097000C35010440029A4BF10BC7047401C49005C
:1009800008BF20F0010010BC704710B5141E73F1B1
:10099000000408DA401C41F1000192185B411A433F
:1009A00001D120F0010010BD2DE9F04D92469B468B
:1009B00011B1B1FA81F202E0B0FA80F22032904631
:1009C000FFF7F5FE04460F4640EA0A0041EA0B0134
:1009D00053465A46084313D0114653EA010019D032
:1009E000C8F140025046FFF7F1FE05460E4650465C
:1009F00059464246FFF7DBFE084305D0012004E0DC
:100A000020463946BDE8F08D0020054346EAE076F1
:100A10002C4337430A986305E40AA0EB0800002240
:100A2000FD0A44EA47540A3002D500200146E9E7AE
:100A3000010510196941DDE9084500196941BDE862
:100A4000F04DA2E770B521F0004303430CD0C1F391
:100A50000A550024D5EB040564EB0403D617AD1A40
:100A6000B34102DB0020014670BD201841EB02516A
:100A700070BD0EB5C10F80EAE0700844CA070021BE
:100A800040F233438DE80E000A460B46FFF78CFF19
:100A900003B000BDC1F30A52C1F3130140F2FF33AA
:100AA00041F480119A4202DA00200146704740F278
:100AB00033439A42A2F2334202DC5242FFF786BE2F
:100AC000FFF775BE064C074D06E0E06840F00103F5
:100AD00094E8070098471034AC42F6D3FFF758FB70
:100AE000B4B10108D4B10108004870476CAF0108E7
:100AF00010B50446FFF7F8FF0068005D00F0010044
:100B000010BD00002DE9FF4F087883B09946FF28FB
:100B100005D0491C2D2804D00024002008E0002026
:100B20000BE00124F9E700EB800003EB4000491CD7
:100B30000B78FF2BF7D104B14042002302931478C5
:100B400019461D462D2C01D02B2C04D1521C2D2CC6
:100B500013D000240294AA461478FF2C0FD00A2543
:100B6000A3FB057801FB05814FF0000C03FB0C1182
:100B7000521CE3194AEB0101EEE70124EAE7814444
:100B800053EA010002D019F5C87F06DA0398002164
:100B9000C0E9001107B0BDE8F08F0025AE4E2F462A
:100BA000DFF8B882184600F02BFACDE90001B9F160
:100BB000000002DAC9F1000400E004460023A74A5D
:100BC0001AEB030B42EB045A12E0E00707D02A4667
:100BD000334638464146FFF71DFC074688462A46FD
:100BE000334610461946FFF715FC05460E466410BD
:100BF000002CEAD1DDE90001B9F1000F5A46534655
:100C000006DAFFF779FC3A464346FFF775FC05E044
:100C1000FFF700FC3A464346FFF7FCFB029A0AB195
:100C200081F00041039AC2E90001B3E72DE9FF4FCB
:100C30001F468DB0D7E901464FF0FF382E204546BC
:100C40004FF000090B90B9696D1C0E988847396AFE
:100C5000824688470028F6D1BAF1FF3F0AD024F433
:100C6000D064002E11DDBAF12B0F08D0BAF12D0F90
:100C70000BD102E0404611B08DE744F48064B969BD
:100C80006D1C0E9888478246761E6946600501D520
:100C90002D2000E02B208DF8000001F1010B0DF15B
:100CA000200809E0B9696D1C0E98884782460F98A4
:100CB00044F40074761E0560002E02DDBAF1300F98
:100CC000F0D00B998A453ED144F0800406E00F999C
:100CD000681CA9F1010944F400740860B9696D1C2D
:100CE000761E0E98884782463028F0D02BE00B996C
:100CF0008A4505D1200603D444F08004761E18E00E
:100D0000504608F003FD08B30DF11301761E44F4BC
:100D100000748B4508D2AAF130000BF8010B2006B5
:100D200007D5A9F1010003E0200602D409F1010072
:100D30008146A00502D50F99681C0860B9696D1C31
:100D40000E9888478246002ED1DC53E0002E51DDFC
:100D5000BAF1650F02D0BAF1450F4BD1A00549D5C4
:100D6000B9696D1C24F44074761E0E98884782463B
:100D7000002E0CDD2B2804D0BAF12D0F07D144F43E
:100D80008074B9696D1C0E9888478246761EE0050E
:100D900001D52D2100E02B2108F8011BCDF82C8076
:100DA00021E00DF12901761E44F4007488450CD22F
:100DB000AAF1300010F0FF0088F8000002D10B9972
:100DC000884509D908F1010806E0E00501D5244865
:100DD00001E042F20F708146B9696D1C0E98884798
:100DE00082460F980560002E04DD504608F08EFC08
:100DF0000028D6D1F9690E988847FF208BF80000AB
:100E000088F800000020069007904B466A4608A923
:100E100006A8FFF777FEA00502D46FF001002AE7CD
:100E200014F0240F0AD0E00714D1DDE90612386867
:100E3000031D3B600068C0E900120BE0DDE906011C
:100E4000FFF752FC0146E00704D13868021D3A6002
:100E50000068016028460EE7000014400000F03FE3
:100E6000F1D8FFFF426842B1016811F8013B23B19C
:100E7000521EC0E90012184670470121C160881E49
:100E8000704742685AB1C368016843B983688B42AE
:100E900005D0491E521CC0E90012002070474FF0D7
:100EA000FF3070472DE9F05F824600780027154635
:100EB0008B460AF10104B946302801D09DB113E0F8
:100EC00014F8010B0127782803D0582801D045B128
:100ED0000AE00DB1102D07D10027102514F8010BE1
:100EE00002E0082500E00A250026B0460EE005FBDA
:100EF000080005FB06F1012701EB10461FFA80F8F8
:100F0000B6F5803F00D3B94614F8010B294600F02E
:100F100069F80028EBDABBF1000F05D00FB1641EB1
:100F200000E05446CBF80040B9F1000F06D007F0BE
:100F3000E1FB02210160C81EBDE8F09F48EA0640BF
:100F4000FAE72DE9F04D00231A461B1A8A4103DB0C
:100F500000200146BDE8F08DC1F30A52C1F3130130
:100F600041F480154FF0000BD10702D100186D41FC
:100F7000521E0027044640F2FF11384601EB620A78
:100F80003E468046024600204FF48011FFF71EFCCB
:100F9000C2197141BB1846EB0100B4EB030C75EBB1
:100FA000000C04D3E41A65EB000517460E4624191D
:100FB00008F101006D4180463428E3DDF91946EB64
:100FC0000600091BA84103D24FF0FF32134601E08F
:100FD000002213461BEB070046EB0A51BDE8F04D1B
:100FE000FFF7D3BC3A2800D2303820F02002412A43
:100FF00001D3A2F13700884201D34FF0FF30704790
:101000000EB540F2334202920022CDE9002213468F
:10101000FFF7CAFC03B000BD10B50BA007F02EFB14
:101020001048008864280DD20F4C20880A2809D85F
:1010300000F086FC052008F06BFF05F0FFFC4FF484
:10104000C870208010BD0000416C61726D3AB3F62B
:10105000CFD6D2ECB3A32CB7A2B3F6B8E6BEAF0A94
:1010600000000000460000206800002010B582B09B
:101070000A4809490160532141600024846042F21A
:101080000F71C16004F019F9009401946946034896
:1010900004F0E0F802B010BD001000400011002084
:1010A00010B516A007F0EAFA002000F031FA01208E
:1010B00000F02EFA022000F02BFA032000F028FAAC
:1010C000042000F025FA052000F022FA062000F0A6
:1010D0001FFA072000F01CFA0F49002008700F4982
:1010E00008700F4908700F490870BDE810404FF4B0
:1010F0007A7301220CA10D4804F0C0BD4261636BFC
:101100007570735F446174613AC7E5BFD5C5E4D6B5
:10111000C3D0C5CFA20A00004F000020500000201D
:10112000FE000020440000205B0000004010002072
:101130002DE9F0412DED088B017844788578C6784B
:10114000B7EE009AB0EE49AA9FED498B802901D3F2
:10115000BFEE00AA0BD30846FFF73DFA53EC182B5D
:10116000FFF752F9FFF7C0FA00EE100A03E000EEB5
:10117000101AB8EE400AF0EE000A20EE200A802C89
:101180000DD310EE100AFFF76BFA9FED3B1B53ECEB
:10119000112BFFF798F8FFF7A7FA00EE100A10EEF0
:1011A000100AFFF75DFA9FED361B53EC112BFFF78A
:1011B0002BF9FFF799FA0746802C09D32046FFF751
:1011C0000AFA53EC182BFFF71FF9FFF730FAC4B2F5
:1011D0002046FFF700FA9FED2CBB53EC1B2BFFF7CB
:1011E00019F941EC180B2846FFF7F5F953EC182BC9
:1011F000FFF769F853EC1B2BFFF70CF941EC180BC8
:101200003046FFF7E8F953EC182BFFF75CF8FFF7CF
:101210006BFA00EE100ADFED1E0A20EE200A30EE17
:10122000090A10EE100AFFF71BFA41EC180B3846BA
:10123000FFF716FA41EC110B9FED170B07F07CFA44
:10124000B0EE409AF0EE609A1AEE100AFFF708FA34
:1012500053EC192BFFF7DEF853EC182BFFF7DAF8F5
:10126000FFF742FA00EE100ABDEC088BBDE8F081F2
:101270000000000000006040000000000000F03F9F
:101280000000000000C05F4000000000000070404F
:1012900000000034000000000000000000000040DA
:1012A00001780A064178090483781B02C078194442
:1012B000104408447047000006A007F0DFF90EA1B3
:1012C000124807F0EBF9114804F0D0FE06F00AF8D6
:1012D000FEE700004275734661756C745F48616E8D
:1012E000646C657220D2ECB3A3A3ACB5BCD6C2D6F5
:1012F000D8C6F40A000000004275734661756C742C
:101300005F48616E646C65720A0000001C01002079
:10131000F0B582B004464FF6FF77019748F2050614
:10132000002000904D1E1FD314F8010B0090694659
:10133000684604F034FEBDF804009DF8001080EA11
:10134000012001900021BDF8042012F4004F03D0C9
:1013500086EA4200019002E007EA42000190491C3F
:101360000829F0DB6D1EDFD201A901A804F000FE00
:10137000BDF8040002B0F0BD2DE9F047AEB08046E4
:1013800000250027002406940794089409940A94E1
:101390000B940C940D94002201A9484803F0ECFB37
:1013A0009DF805309DF8042045A106A807F076F9C0
:1013B00008EB081000EB4811444800EBC10606F5A5
:1013C0009C7006A9FEF747FF002269463B4803F0E0
:1013D000AFFB06F5A87106A8FEF73DFF3CA106A8E5
:1013E000FEF742FF0DF1380960B109EB45120146E5
:1013F0001046FEF730FF36A10020FEF735FF6D1CCA
:101400000028F2D1002506F59C7106A8FEF723FFFF
:101410002FA106A8FEF728FF0DF1780A60B10AEBAC
:10142000451201461046FEF716FF29A10020FEF7DF
:101430001BFF6D1C0028F2D10AF12000FEF736FFD9
:10144000054609F12000FEF731FF05443C2D11DB74
:10145000204928462246C1FB05204211A2EBE07735
:101460002846C1FB05404111A1EBE070A0EB001044
:1014700005EB80051EA8FEF719FF04460EA8FEF72F
:1014800015FF20443844144981FB00218A10A2EB47
:10149000E171A1EB810100EBC10206F59C702B46C6
:1014A00007A107F0FBF806F59C7208F101010BA0FB
:1014B00007F0E4F82EB0BDE8F0870000941100209A
:1014C000253032643A25303264000000800100206B
:1014D0003A00000089888888ABAAAA2A4368616E0E
:1014E000675F53746172745F74696D653A25642037
:1014F000B6CBBFDABCCCB5E7C6F72CD0DEB8C4C6D5
:10150000F4B6AFCAB1BCE4CEAA2025730A0000002D
:101510002DE9F0472DED028B00259FED3B8B052833
:1015200025D0062800DB401E394901EB801282EDF0
:10153000048B82ED028B157082F8285082ED068BA9
:1015400082ED088B95639FED330A82ED0B0A1563DC
:10155000062182F8341082F8355082F83650014660
:10156000BDEC028B2CA0BDE8F04707F087B8002641
:10157000324F4FF0FF384FF47A7906EB061000EB4C
:10158000461007EBC00425606560A560E560256135
:101590006561A561E56184F820506562C4F82C801E
:1015A000A5626564C4F86091C4F85051C4F8545100
:1015B000C4F85851C4F8645104F1C0007821FEF712
:1015C0001EFEC4F84451C4F84851C4F84C5104F10B
:1015D00048007821FEF713FEA564E5642565C4F88C
:1015E000685184ED5C8B84ED5E8BC4F85C5184F8AB
:1015F0008051761C052EC0DBBDEC028B10A0BDE82F
:10160000F04707F03BB800000000000000000000B9
:10161000400A002000000000436C65616E5F446179
:1016200074613A256420B4ABB8D0C6F7D0C5CFA258
:10163000C7E5B3FDCDEAB1CF0A000000800100206C
:10164000436C65616E5F446174613ABCCCB5E7C6BA
:10165000F7D0C5CFA2C7E5B3FDCDEAB1CF0A0000F0
:1016600010B505A007F00AF8002005F041FFBDE81D
:1016700010400AA007F002B8436C6561725F464CE7
:101680004153485F446174613ABFAACABCC7E5B31D
:10169000FD666C617368CAFDBEDD0A00436C65615E
:1016A000725F464C4153485F446174613AC7E5B389
:1016B000FD666C617368CAFDBEDDCDEAB3C90A0080
:1016C000002006490A880021002A04DD044B195431
:1016D000401C9042FBDB0348018070474A00002019
:1016E000000C00204800002010B50821034805F038
:1016F00091FBBDE81040FFF7E3BF0000940000201D
:101700002DE9F04F93B08246002402940394049490
:10171000059406940794089409940A940B940C94E5
:101720000D940E940F94109411940126AAF131088F
:101730000025DFF8FCB0C146B9F1050F1DD2DFE886
:1017400009F003080D12170008213A4805F062FB62
:101750001FE00821384805F05DFB1AE008213748F2
:1017600005F058FB15E00821354805F053FB10E063
:101770000821344805F04EFB0BE00026514632A00C
:1017800006F07CFF52463AA1404806F087FF04F07D
:101790006DFC002E2AD0052008F0BAFB05F0C6FA31
:1017A000C7B2FFF78DFF27B308EB081000EB481016
:1017B0000BEBC00553462A4635A102A8009406F05B
:1017C0006DFF02A8FEF732FD82B24FF47A7302A9D0
:1017D000324804F053FA6C62514631A006F04EFFD5
:1017E0004FF47A70C5F8600185F8804113B0BDE808
:1017F000F08F6D1C032D9FDB514631A006F03EFF9C
:1018000008EB081000EB48100BEBC00235A102A852
:1018100006F044FF02A8FEF709FD82B24FF47A7386
:1018200002A91E4804F02AFA13B0BDE8F08F0000A8
:1018300080010020B4000020C4000020D40000205B
:10184000E4000020F4000020436C6F73655F446582
:101850006C61793AB9D8B1D5BCCCB5E7C6F7CAA79F
:10186000B0DC2CB6CBBFDAB4EDCEF33A25630A0078
:10187000436C6F73655F44656C61793A6661696C4E
:101880002C706F72742025630A0000001C01002078
:101890002A25732C25632C256400000040100020AD
:1018A000436C6F73655F44656C61793AB9D8B1D5A3
:1018B0002563B6CBBFDABCCCB5E7C6F70A0000009B
:1018C000436C6F73655F44656C61793AB9D8B1D583
:1018D0002563B6CBBFDABCCCB5E7C6F7CAA7B0DC88
:1018E0000A0000002125730010B5A0F13102114655
:1018F000052911D202EB021101EB4212074901EB5B
:10190000C204D4F86811012906D1014604A006F0EA
:10191000B5FE0020C4F8680110BD00008001002061
:10192000436C6F73655F4572726F3A2563BAC5BCCD
:10193000CCB5E7C6F7D5FDB3A3B9A4D7F70A000025
:1019400010B50821034805F065FABDE81040FFF71F
:10195000B7BE00008400002010B505A006F08EFE82
:101960000821064805F056FABDE81040FFF7A8BE6A
:10197000B9D8B1D5D2C6D2BAB1C30A00A4000020EA
:1019800070B527A006F07AFE2CA12D48FEF76CFC5E
:1019900004462AA10020FEF767FC06462078A0F145
:1019A00031053246214627A006F068FE2178A1F1D4
:1019B0003100052809D32BA006F060FE227831A162
:1019C000394806F06BFE04F051FB38A13046FEF7B3
:1019D00034FC88B136A13046FEF72FFCD8B1314631
:1019E00034A006F04BFE32463CA12F4806F056FECE
:1019F000BDE8704004F03ABB2078FFF781FE05EBAC
:101A000005113E4A01EB451102EBC1014FF47A701A
:101A1000C1F8600170BD2078BDE8704005F01AB8CB
:101A2000436F6D6D616E645F446174613ABFAACAB1
:101A3000BCD6B4D0D0C3FCC1EE0A00002C0000001C
:101A4000400C0020436F6D6D616E645F4461746192
:101A50003AB6CBBFDA3A257320C3FCC1EE3A257300
:101A60000A000000436F6D6D616E645F44617461D4
:101A70003AC3FCC1EEB6CBBFDA2563B4EDCEF32199
:101A800021210A00436F6D6D616E645F4461746172
:101A90003A636F6D6D616E6420706F7274202563A0
:101AA000206572726F720A001C0100203000000075
:101AB00031000000436F6D6D616E645F446174615D
:101AC0003AC3FCC1EEB4EDCEF32CB4EDCEF3B2CEFE
:101AD000CAFD25732121210A00000000436F6D6DAE
:101AE000616E645F446174613A636F6D6D616E64D1
:101AF000202573206572726F720A00008001002039
:101B00002DE9F0410024224D224E234FDFF88C8036
:101B100004EB041000EB441005EBC000416C19B35A
:101B2000D0F8682102BB07292DD2DFE801F02C0490
:101B3000080C152C1E00204600F084FB23E02046F4
:101B400000F056FA1FE0D0F86001B0F57A7F1AD1A4
:101B5000204600F03DFE16E0D0F86001B0F57A7F37
:101B600011D1204600F026FC0DE0204608F0B8FF19
:101B700048B9307808B1387828B998F8000010B121
:101B8000204600F00DF8641C052CC1DBBDE8F08197
:101B900080010020FE000020600000205E00002088
:101BA0002DE9F04F2DED0E8B9DB0814600260025CE
:101BB0000C950D950E950F95109511951295139501
:101BC0001495159516951795189519951A951B95B1
:101BD0009FEDA9ABDFF8A8B2AA4809EB09129BF860
:101BE000001002EB491200EBC204002940F01781FB
:101BF0004946A5A006F042FDD4F82880B8F1000FB0
:101C000040F30D819FEDACDB9FEDADEB9FEDAEBBE7
:101C10009FEDAFCB4FF0010A04EB8600C76AAE48D8
:101C200000EB87156868FEF71BFD95ED021B53EC72
:101C3000112BFEF729FD80F0DB80606A002840F060
:101C4000D7806868FEF70CFD95ED021B53EC112B55
:101C5000FEF7DDFB41EC100B94ED5C1B53EC102BFD
:101C600051EC110BFEF7D6FB41EC190B94ED5E0B1A
:101C700053EC1A2B51EC100BFEF706FD1CD297A06B
:101C800006F0FCFC4FF47A70C4F86001C4F86401FB
:101C90009D490020087094ED5E0B09F101028DED65
:101CA000000B9AA1A44806F0F9FC04F0DFF91DB07E
:101CB000BDEC0E8BBDE8F08F94ED5E0B53EC1D2B4D
:101CC00051EC100BFEF7A6FB41EC100B51EC190B7D
:101CD00053EC102BFEF710FC41EC100B53EC1E2BB9
:101CE00051EC100BFEF796FB41EC180BB0EE4A0AD4
:101CF000F0EE6A0A53EC102B51EC180BFEF7C4FC03
:101D00000DD28EA006F0BAFC8DED008B09F1010218
:101D10007EA1894806F0C2FC04F0A8F9C7E753EC9D
:101D20001B2B51EC180BFEF7AFFC04D2B0EE4B8A24
:101D3000F0EE6B8A10E053EC1C2B51EC180BFEF705
:101D4000BBFC04D2B0EE4C8AF0EE6C8A04E053EC9B
:101D5000182B8AA006F092FC51EC180BFEF748FCF9
:101D600041F270714843C4F86001C4F864016648E8
:101D700080F800A06868FEF773FC8DED028B41ECE3
:101D8000100B95ED021B53EC102B8DED001B8348BF
:101D900006F074FC6868FEF763FC8DED048B95ED2E
:101DA000020B7A1C8DED020B019100907C49624878
:101DB00006F074FC04F05AF9002207A9794802F0F1
:101DC000DBFE9DF81D309DF81C2077A10CA806F0C5
:101DD00065FC04F59C700CA9FEF73DFA002206A9EB
:101DE000704802F0A5FE7349002008608BF800A03F
:101DF0006868FEF735FC95ED041B53EC112BFEF7DC
:101E00005BFC08D2606A012805D194F82000FFF736
:101E100077FC8BF800A0761C4645FFF6FDAE6648C1
:101E2000007800287FF443AF494664A006F026FC02
:101E3000A76A0025002F7FF73AAFDFF89C8004EBFC
:101E40008500C06A08EB80167068FEF709FC96ED05
:101E5000041B53EC112BFEF72FFC06D2606A0128FD
:101E600003D194F82000FFF74BFC6D1CBD42E6DB6C
:101E70001DE700000000000000000000000000005E
:101E8000FE00002080010020436F6E74726F6C5F53
:101E9000696E6465785F74696D653ABCCCB5E7C6F8
:101EA000F7BFD8D6C6B6CBBFDA25642CBFAACABC4A
:101EB000BFD8D6C60A00000000000000000059404C
:101EC0000000000000004E40000000000000144030
:101ED0000000000000003440400A0020436F6E7490
:101EE000726F6C5F696E6465785F74696D653AC323
:101EF000BFD0A1CAB1BCD3D2A9C1BFB3F6CFD6CE91
:101F0000CACCE20A000000004F000020436F6E744C
:101F1000726F6C5F696E6465785F74696D653A7045
:101F20006F7274203D2025642C646F736167652097
:101F30003D20252E32660A001C010020436F6E747E
:101F4000726F6C5F696E6465785F74696D653AB2D3
:101F5000C9BCAFCAFDBEDDD0A1D3DAD6B8B1EA2C78
:101F6000B5ABCAC7C9E8B6A8BCD3D2A9C1BFB9FD31
:101F7000D0A1B5BCD6C2CECACCE20A00436F6E7403
:101F8000726F6C5F696E6465785F74696D653ABC89
:101F9000D3252E3266B7D6D6D300000070B1010823
:101FA00004B0010894110020253032643A25303203
:101FB000640000006400002060000020436F6E7425
:101FC000726F6C5F696E6465785F74696D653ABC49
:101FD000CCB5E7C6F7CAB5CAB1BFD8D6C6B6CBBF6F
:101FE000DA25642CBFAACABCBFD8D6C60A00000036
:101FF0002DE9F04794B00446002600210491059194
:1020000006910791089109910A910B910C910D91FC
:102010000E910F911091119112911391611C47A093
:1020200006F02CFB04EB041000EB44114F4800EBCE
:10203000C104D4F82880B8F1000F4EDDDFF83091EC
:102040004FF0010A04EB8600C76A09EB8715686840
:10205000FEF706FB95ED021B53EC112BFEF714FB6C
:1020600016D2606A012813D194F82000FFF748FBCC
:102070006868FEF7F5FA95ED020B721C8DED020B08
:10208000019100903BA1494806F008FB03F0EEFFE8
:102090006868FEF7E5FA95ED041B53EC112BFEF78B
:1020A0000BFB17D2606AA8B96868FEF7D9FA95EDFC
:1020B000040B721C8DED020B019100903CA13B487A
:1020C00006F0ECFA03F0D2FF042F09D094F82000B8
:1020D00004F0C0FC761C4645B4DB14B0BDE8F087C4
:1020E00041A006F0CBFAFEF797FF94F88001002894
:1020F000F0D148A12D4806F0D1FA03F0B7FF4EA168
:1021000004A8FEF787F804F1200104A8FEF782F87E
:102110004AA104A8FEF77EF8214604A8FEF77AF843
:1021200004A8FEF783F882B24FF47A7304A94448F6
:1021300003F0A4FD84F880A1CCE70000436F6E7427
:10214000726F6C5F6D61785F66726F6D5F6D696EE7
:102150003ABCCCB5E7C6F7BFD8D6C6B6CBBFDA25F2
:10216000642CBFAACABCBFD8D6C60A008001002012
:10217000400A0020436F6E74726F6C5F6D61785F10
:1021800066726F6D5F6D696E3A706F7274203D207C
:1021900025642C76616C7565203D20252E32662CD9
:1021A0006D696E203D20252E32660A001C0100203C
:1021B000436F6E74726F6C5F6D61785F66726F6D86
:1021C0005F6D696E3A706F7274203D2025642C76C5
:1021D000616C7565203D20252E32662C6D6178205E
:1021E0003D20252E32660A00436F6E74726F6C5F5D
:1021F0006D696E5F66726F6D5F6D61783ACBAECE62
:10220000BBB5CDD3DAD6B8B1EA2CBFAACABCBCD311
:10221000CBAE0A00436F6E74726F6C5F6D696E5F58
:1022200066726F6D5F6D61783A6C6576656C20776C
:102230006172696E670A00005D0000002C000000FA
:10224000401000202DE9F04184B004460025611CB7
:102250002DA006F013FA04EB041000EB44113648ED
:1022600000EBC106B76A002F4ADDDFF8D08006EB2D
:102270008500C06A08EB80146068FEF7F1F994ED00
:10228000021B53EC112BFEF7FFF915D2706A98B9B7
:102290006068FEF7E5F994ED020B6A1C8DED020B08
:1022A0000191009026A1344806F0F8F903F0DEFE13
:1022B00096F8200004F0CEFB6068FEF7D1F994EDAB
:1022C000041B53EC112BFEF7F7F916D2706A0128A4
:1022D00013D16068FEF7C4F994ED040B6A1C8DED10
:1022E000020B0191009025A1234806F0D7F903F0D5
:1022F000BDFE96F82000FFF703FA6D1CBD42B6DB69
:1023000004B0BDE8F0810000436F6E74726F6C5FC3
:102310006D696E5F66726F6D5F6D61783ABCCCB54A
:10232000E7C6F7BFD8D6C6B6CBBFDA25642CBFAA9E
:10233000CABCBFD8D6C60A0080010020400A0020CF
:10234000436F6E74726F6C5F6D696E5F66726F6DF6
:102350005F6D61783A706F7274203D2025642C7631
:10236000616C7565203D20252E32662C6D696E20CE
:102370003D20252E32660A001C010020436F6E743A
:10238000726F6C5F6D696E5F66726F6D5F6D6178A5
:102390003A706F7274203D2025642C76616C7565EF
:1023A000203D20252E32662C6D6178203D20252E83
:1023B00032660A002DE9F04FB9B00746002528958E
:1023C00029952A952B952C952D952E952F95309501
:1023D00031953295339534953595369537951895D1
:1023E00019951A951B951C951D951E951F95209561
:1023F0002195229523952495259526952795099530
:102400000A950B950C950D950E950F9510951195B8
:102410001295139514951595169517950026AA46AD
:10242000002203A99B4802F0A7FB002202A99948B9
:1024300002F07EFB9DF80C909DF80D8007EB0710D5
:1024400000EB47119448CDF8008000EBC1044B46E7
:10245000791C9248D4F85C2106F010F9904DD4F81C
:102460005C0100EB800004EB400090F84A103A2930
:1024700003D00020C4F85C0142E000F1480128A824
:10248000FDF7E9FE00208DF8A20028A8FDF70EFF59
:1024900083460DF1A300FDF709FF0890D4F85C1105
:1024A0005A4680A0089B06F0E9F8D94528DB10DDE4
:1024B000D4F85C0100F1010085FB00214FEA6102C4
:1024C000A2EBE171A1EB810100EB8100C4F85C019A
:1024D000C5E70898804513DB10DDD4F85C0100F1F6
:1024E000010085FB00214FEA6102A2EBE171A1EB43
:1024F000810100EB8100C4F85C01B0E74FF0010AF4
:10250000BAF1000F43D0D4F85C0100EB800004EB7B
:10251000400000F1480128A8FDF79DFE9DF8A400A9
:10252000392841D0401C8DF8A40004F59C7028A9DE
:10253000FDF791FED4F85C0100EB800004EB400055
:1025400000F1C00104F5A270FDF785FED4F85C012E
:1025500000EB800004EB400000F1C00104F5A27024
:10256000FDF76BFE48B3D4F85C0104F5A27300EBF1
:10257000800004EB4000C03000907A1C59495A4852
:1025800006F08CF803F072FD39B0BDE8F08FD4F896
:102590005C0100EB800004EB400000F1480104F511
:1025A0009C70FDF758FEC5E79DF8A300401C8DF810
:1025B000A30030208DF8A400B7E7791C4BA006F0EB
:1025C0005DF804F5A27204F59C7154A006F056F86B
:1025D00004F5A270009004F59C737A1C5CA142483B
:1025E00006F05CF803F042FD04F59C7128A8FDF7A5
:1025F00032FE04F5A27118A8FDF72DFE64A118A8FB
:10260000FDF732FE09AD70B106EB460205EB820222
:1026100001461046FDF71FFE5DA10020FDF724FED8
:10262000761C0028F0D19EB109A8FDF73FFEC0EB53
:102630000010860005F10C00FDF738FE304441F231
:1026400070714843C4F86001B0F57A7F0CD00FE098
:1026500050A006F013F857A1234806F01FF803F026
:1026600005FD39B0BDE8F08F40F2ED30C4F86001EF
:10267000D4F86001052803DC41F65830C4F8600145
:10268000D4F86001C4F8640150490120087039B0E1
:10269000BDE8F08F9411002080010020B4AF010844
:1026A000ABAAAA2A6E6F77436F6E74726F6C54690F
:1026B0006D653A25642C636F6E74726F6C54696D2E
:1026C00065486F7572733A25642C636F6E74726F10
:1026D0006C54696D654D696E757465733A25640A4D
:1026E0000000000028B101081C010020436F6E7437
:1026F000726F6C5F7379735F74656D65723ABCCC91
:10270000B5E7C6F7BFD8D6C6B6CBBFDA25642CBFAF
:10271000AACABCBFD8D6C60A00000000436F6E74B8
:10272000726F6C5F7379735F74656D65723AC3BF66
:10273000CCECCCD8B6A8CAB1BCE4BCD32CC3BFCCBB
:10274000EC2573BCD32573CAB1BCE40A00000000B9
:10275000436F6E74726F6C5F7379735F74656D65D0
:10276000723A706F7274203D2025642C737461720C
:10277000742074696D65203D2025732C7375737406
:1027800061696E2074696D65203D2025730A000023
:102790003A000000436F6E74726F6C5F7379735F01
:1027A00074656D65723ACAE4C8EBD2ECB3A3210A32
:1027B00000000000436F6E74726F6C5F74656D652E
:1027C000723A6572726F720A0000000050000020B9
:1027D00070B5B6B006460020269027902890299024
:1027E0002A902B902C902D902E902F9030903190FD
:1027F000329033903490359016901790189019902D
:102800001A901B901C901D901E901F90209021905C
:1028100022902390249025900790089009900A9088
:102820000B900C900D900E900F90109011901290B4
:102830001390149015900025711C38A005F01EFF10
:1028400006EB061000EB46113F4800EBC10404F50F
:10285000A27204F5A8713DA005F010FF04F5A27066
:10286000009004F5A873721C45A1554805F016FFA9
:1028700003F0FCFB04F5A27116A8FDF7ECFC51A1D6
:1028800016A8FDF7F1FC07AE70B105EB450206EBAB
:10289000820201461046FDF7DEFC4AA10020FDF74A
:1028A000E3FC6D1C0028F0D16DB307A8FDF7FEFC1A
:1028B000C0EB0010850006F10C00FDF7F7FC284482
:1028C00041F270714843C4F86001C4F864013E49A4
:1028D00001200870002202A93C4802F04DF99DF841
:1028E00009309DF808203AA126A805F0D7FE04F586
:1028F0009C7026A9FDF7AFFC002201A9334802F025
:1029000017F936B070BD35A005F0B8FE3AA12C48D5
:1029100005F0C4FE03F0AAFB36B070BD436F6E74C1
:10292000726F6C5F74656D65723ABCCCB5E7C6F7C3
:10293000BFD8D6C6B6CBBFDA25642CBFAACABCBFE7
:10294000D8D6C60A0000000080010020436F6E74D4
:10295000726F6C5F74656D65723AB4D3B5B1C7B010
:10296000CAB1BCE4BFAACABCB6A8CAB1BCD32CC306
:10297000BF2573BCD32573CAB1BCE40A00000000B4
:10298000436F6E74726F6C5F74656D65723A706FD1
:102990007274203D2025642C696E74657276616CBA
:1029A0002074696D65203D2025732C7375737461E7
:1029B000696E2074696D65203D2025730A00000052
:1029C0001C0100203A0000004F000020941100205C
:1029D000253032643A25303264000000436F6E7453
:1029E000726F6C5F74656D65723ACAE4C8EBD2ECC5
:1029F000B3A3210A00000000436F6E74726F6C5F16
:102A000074656D65723A6572726F720A000000003B
:102A1000704710B54FF4806001F0F6F9BDE8104042
:102A20004FF4004001F0F0B910B54FF4807001F0A0
:102A3000EBF9BDE810404FF4007001F0E5B900007B
:102A40002DE9F04F2DED048B8FB09FEDAD9A4FF037
:102A50000008C146CDF81890CDF81C90CDF8209014
:102A6000CDF82490CDF82890CDF82C90CDF830906A
:102A7000CDF83490CDF80890CDF80C90CDF81090AA
:102A8000CDF81490002700269EA005F0F7FDDFED9D
:102A9000A58ADFF894A2DFF894B20BEB86152878AC
:102AA000002800F02381B0EE498AAC6B002C00F0C6
:102AB0009280206CFDF7D4FD41EC100B94F850008F
:102AC00094F84F100091019053EC102B314698A0D0
:102AD00005F0D4FD94F8500094F84F10884230D897
:102AE000C4ED108A94F85100022816D922469FA1FD
:102AF00006A805F0D3FD06A8FDF798FB82B24FF4B7
:102B00007A7306A99A4803F0B9F82246314699A08B
:102B100005F0B4FD84F8519011E0401CC3B284F874
:102B2000513022463146A0A005F0A8FD94F851305E
:102B30002246A8A1B14805F0B1FD03F097FA7F1C29
:102B400033E000EE100AD4ED100AB8EE401A80EE21
:102B5000810A84ED100A10EE100AFDF781FD95ED53
:102B6000061B53EC112BFDF7A7FD09D3206CFDF7D5
:102B700077FD95ED081B53EC112BFDF785FD14D265
:102B8000052E12D095F83500002852D02246314645
:102B90009BA005F073FD33462246A2A1974805F09D
:102BA0007DFD03F063FAFEF737FA94ED100AB5EEF7
:102BB000C00AF1EE10FA01DD30EE088A94F84F00F9
:102BC000404500DD804684F84F9084F85090246F93
:102BD000002C7FF46EAF95F828202878824201D02F
:102BE000022A03D995F83510002928D0B84246D1D9
:102BF00095F83600022832D9314693A005F03EFD03
:102C00003246A0A17D4805F049FD03F02FFAFEF7FA
:102C100003FA95F8340000EB001101EB4011A848CD
:102C200000EBC10090F8200004F016F885F836900B
:102C300029E095F82800401C85F82800B5E73146C2
:102C4000A0A005F01BFD95F828303246A7A16B48DF
:102C500005F024FD03F00AFAFEF7DEF913E0401C4C
:102C6000C2B285F836203146A9A005F007FD3246EC
:102C7000B3A1624805F012FD03F0F8F903E0314614
:102C8000B9A005F0FBFC002785F8289006EB860428
:102C90004AF83460287800EE100AB8EE400AC8EE10
:102CA000009A19EE900AFDF7DBFC41EC100BB5A180
:102CB00053EC102B02A805F0F1FC02A805F020FD52
:102CC00051EC100BFDF710FD68600AEBC40148627F
:102CD000286B08B9C5ED0B9AAC49401C81FB00215B
:102CE000A1EBE171A1EB810108442863761C072E5A
:102CF000FFF6D3AE0FB0BDEC048BBDE8F08F000043
:102D0000000000004765745F417665726167653A4F
:102D1000BFAACABCBCC6CBE3CAFDBEDDBEF9D6B5F0
:102D20000A0000000AD723BC28090020400A00201E
:102D30004765745F417665726167653A20C0E0B1AE
:102D4000F03A2564202076616C7565203D20252EA3
:102D5000326620B4EDCEF3B4CECAFD3A25642CB26F
:102D6000C9BCAFB4CECAFD3A25640A002125730060
:102D7000401000204765745F417665726167653A6F
:102D80002564BAC5B4ABB8D0C6F72573B4EDCEF39D
:102D90002CB4CECAFDB4F3D3DAC8FDB4CE2CC9CF5F
:102DA000B4ABB8E6BEAF0A004765745F41766572A2
:102DB0006167653A2564BAC5B4ABB8D0C6F7257368
:102DC000B4EDCEF32CC0DBBCC6B4CECAFD25640A7C
:102DD000000000004765745F417665726167653A7F
:102DE000257320646576696365206572726F722C45
:102DF0006E756D6265722025640A00001C0100205A
:102E00004765745F417665726167653A2564BAC546
:102E1000B4ABB8D0C6F72573B7A2B3F6B8E6BEAF69
:102E20000A0000004765745F417665726167653A24
:102E30002573206465766963652025642020416CD4
:102E400061726D0A000000004765745F417665722B
:102E50006167653A2564BAC5B4ABB8D0C6F7C8ABEC
:102E6000B2BFB3F6CFD6D2ECB3A32CB4CECAFDB466
:102E7000F3D3DAC8FDB4CE2CC9CFB4ABB8E6BEAF3D
:102E80000A0000004765745F417665726167653AC4
:102E900025642064657669636520616C6C206162DD
:102EA0006E6F726D616C2C6D6F7265207468616EEF
:102EB0002074687265652074696D65730A0000008E
:102EC000800100204765745F417665726167653AED
:102ED0002564BAC5B4ABB8D0C6F7B7A2B3F6B8E6A6
:102EE000BEAF2CB4CECAFD25640A00004765745FEE
:102EF000417665726167653A256420646576696329
:102F0000652025642020416C61726D0A000000007C
:102F10004765745F417665726167653A2564BAC535
:102F2000B4ABB8D0C6F7C8ABB2BFB3F6CFD6D2EC0D
:102F3000B3A32CD2ECB3A3B4CECAFD25640A00001F
:102F40004765745F417665726167653A2564206400
:102F5000657669636520616C6C2061626E6F726D6D
:102F6000616C200A00000000446574656374696F39
:102F70006E3A2564BAC5B4ABB8D0C6F7D5FDB3A3D5
:102F80000A00000025302E326600000056555555C7
:102F90002DE9F04F2DED0A8BADF5117D07460D465D
:102FA0004FF40C7104A8FDF72AF90024F2A1284679
:102FB000FDF75AF90DF1100A48B1EFA10020FDF715
:102FC00053F94AF82400611CCCB20028F5D10A2C30
:102FD00016D2052F14D022463946E8A005F04EFB44
:102FE00023463A46EEA1FA4805F058FB03F03EF8B6
:102FF0004FF0FF300DF5117DBDEC0A8BBDE8F08F71
:1030000001249FEDF5ABF64D4FF0000B052F1CD0C2
:10301000062F00DB7F1E05EB87156F700498FDF708
:1030200045F9C2B22A700B2AC0F04C813946EDA096
:1030300005F024FB2B783A46F649E54805F02EFBCF
:1030400003F014F84FF0FF30D4E70498FDF72EF9A1
:1030500000F0FF094FF00008B9F1000F40F2308195
:1030600008EB880505F1020A0DF1100B5BF82A0048
:1030700000783138C6B2681C5BF8201006EB0610E9
:1030800000EB4612E44800EBC2042046FDF7E3F8EB
:103090005BF82A00007884F820003138052818D31E
:1030A00006EB061000EB4611DB4800EBC100394689
:1030B00090F82020D9A005F0E1FA94F820303A46A3
:1030C000E0A1C34805F0EAFA02F0D0FF4FF0FF306C
:1030D00090E7681D5BF8200005F012FB84ED5E0BA5
:1030E00053EC1A2B51EC100BFDF7CEFA1CD206EB69
:1030F000061000EB4611C84800EBC100394690EDC0
:103100005E0BDCA053EC102B05F0B8FA94ED5E0BCF
:103110003A468DED000BE2A1AD4805F0BFFA02F092
:10312000A5FF4FF0FF3065E7E81C5BF82000FDF7D6
:10313000BDF802466064052800F0BB80501E0728D9
:103140000ED33946E3A005F099FA3A46ECA1A0481F
:10315000636C05F0A3FA02F089FF4FF0FF3049E7F6
:10316000042A1DD0032A5BD0062A6CD02D1D5BF8E3
:103170002500FDF75BF800F0FF0ABAF1070F7BD9D5
:1031800052463946ECA005F079FA53463A46F6A184
:103190008F4805F083FA02F069FF4FF0FF3029E70E
:1031A0002D1D5BF82500FDF741F85BF82500FDA11A
:1031B000FDF75AF806464FF0000A86F805A004F518
:1031C0009C703146FDF747F804F5A270B11DFDF77C
:1031D00042F804F148003146FDF73DF804F1C00023
:1031E000B11DFDF738F80125002E60D0EDA10020BB
:1031F000FDF73AF8064686F805A005EB850004EBD6
:10320000400B0BF148003146FDF725F80BF1C000EB
:10321000B11DFDF720F8681CC5B2002EE6D146E0CE
:1032200000202D1D5BF8251048715BF8251004F572
:10323000A870FDF710F85BF82500811D04F5A27059
:10324000FDF709F833E00120A062281D5BF820108B
:1032500008783038E062062801DB401EE0626048F2
:10326000E26A00EB821080F83460881C05F048FAAE
:1032700084ED5C0B1BE0FFE7C4F828A00020BAF146
:10328000000F14DD564B5BF825C004EB80021CF8E0
:1032900000103039D162062901DB491ED162D16AA2
:1032A00003EB811181F83460401C5045EDDB0020B8
:1032B000606208F1010000F0FF08C845FFF4D0AEDD
:1032C000002097E60021059806F05EF8B0EE408AEF
:1032D000F0EE608A0021069806F056F8B0EE409AAB
:1032E000F0EE609A53EC192B51EC180BFDF7E4F952
:1032F00015D28DED008B53EC192B3946AAA005F0A1
:10330000BDF98DED028B8DED009B3A46B6493048F4
:1033100005F0C4F902F0AAFE4FF0FF306AE685ED31
:10332000028B85ED049B0021089806F02DF8B0EE85
:10333000408AF0EE608A0021079806F025F8B0EE8A
:10334000409AF0EE609A052F05D151EC180BFDF76D
:10335000CBF9A649086053EC192B51EC180BFDF77B
:1033600093F905D28DED009B53EC182B39463FE1C4
:103370004FE10000000000002C0000004765745F72
:10338000446174613A256420C5E4D6C3D0C5CFA298
:10339000B4EDCEF32CB4EDCEF3C2EB25640A0000FD
:1033A0004765745F446174613A256420636F6E669B
:1033B000696775726520696E666F206572726F72DB
:1033C0002C6572726F7220636F64653A25640A001F
:1033D0001C010020000000000000000000000000B0
:1033E000400A00204765745F446174613A25642097
:1033F000C5E4D6C3B4ABB8D0C6F7CAFDC1BFD0C50B
:10340000CFA2B4EDCEF32CB4EDCEF3C2EB25640A1B
:103410000000000070AF0108800100204765745F64
:10342000446174613A256420C5E4D6C3B6CBBFDAE3
:10343000D0C5CFA2B4EDCEF32CB4EDCEF3C2EB25C4
:10344000640A00004765745F446174613A25642032
:10345000636F6E66696775726520696E666F20704E
:103460006F72742C6572726F7220636F64653A2597
:10347000640A00004765745F446174613A25642002
:10348000C5E4D6C3BCD3D2A9D0C5CFA2B4EDCEF388
:103490002CB4EDCEF3C2EB25302E32660A000000CC
:1034A0004765745F446174613A256420636F6E669A
:1034B000696775726520646F7361676520696E6600
:1034C0006F202C6572726F7220636F64653A252ECF
:1034D00032660A004765745F446174613A2564206E
:1034E000C5E4D6C3BFD8D6C6C4A3CABDD0C5CFA273
:1034F000B4EDCEF32CB4EDCEF3C2EB25640A00009C
:103500004765745F446174613A256420636F6E6639
:10351000696775726520636F6E74726F6C206D6F72
:10352000646520696E666F202C6572726F7220630D
:103530006F64653A25640A004765745F446174618D
:103540003A256420C5E4D6C3BFD8D6C6B4ABB8D03C
:10355000C6F7D0C5CFA2B4EDCEF32CB4EDCEF3C2F6
:10356000EB25640A000000004765745F44617461E4
:103570003A256420636F6E66696775726520636FB4
:103580006E74726F6C2073656E736F7220696E66F5
:103590006F202C6572726F7220636F64653A2564C8
:1035A0000A0000002E0000004765745F44617461EA
:1035B0003A256420C5E4D6C3B4ABB8D0C6F7D6B8B4
:1035C000B1EAD0C5CFA2B4EDCEF32CD7EEB4F3D68A
:1035D000B5CEAA252E32662CD7EED0A1D6B5CEAA6E
:1035E000252E32662C0A000098B0010870000020D9
:1035F000B3A005F043F88DED029B8DED008B3A46AC
:10360000BF49C04805F04AF802F030FD4FF0FF30E6
:10361000F0E4BDA10998FCF710FE98B385F835B029
:1036200085ED068B85ED089B85F828B0C5F838B088
:103630009FEDB6CA85ED0BCAC5F830B085F836B037
:103640004FF000082878002840F232819FEDB09BAF
:103650009FEDB1BB782007F0EDF8044608EBC806F3
:10366000B01D5AF820102046FCF7F5FD06F10709B9
:1036700004F120005AF82910FCF7EDFD30B1062FB7
:1036800016D035E0FFE785F83540C9E704F12002A0
:103690003946A3A004F0F2FF04F120033A46A7A1A3
:1036A000984804F0FBFF02F0E1FC4FF0FF30A1E48A
:1036B000CDF80CB05AF8290001788DF80C1040783C
:1036C0008DF80D0003A806F051FCDFF8A49289F8EC
:1036D000000006214846FDF71BFE03A906F075FC15
:1036E0009DF80C0089F806009DF80D0089F8070088
:1036F00006F108005AF8201004F14400FCF7ABFD75
:1037000006F109005AF82000FCF7D0FD8146B9F116
:10371000330F0FD34A46394696A004F0AFFF4B460D
:103720003A46A3A1774804F0B9FF02F09FFC4FF09E
:10373000FF305FE484F84C9006F10A005AF820004C
:10374000FCF7B4FD1F2811D394F84D203946A6A0EC
:1037500004F094FF94F84D303A46B3A1694804F060
:103760009DFF02F083FC4FF0FF3043E484F84D00EE
:1037700006F10B005AF82000FCF798FD0A2811D337
:1037800094F84E203946B6A004F078FF94F84E30F5
:103790003A46C3A15B4804F081FF02F067FC4FF09A
:1037A000FF3027E484F84E0006F10C005AF8201090
:1037B00004F15200FCF74FFD06F10D005AF820000D
:1037C00004F09EFFB0EE408AF0EE608A53EC1A2BB4
:1037D00051EC180BFCF758FF06D353EC192B51ECA6
:1037E000180BFCF769FF16D294ED180B394653EC11
:1037F000102BB8A004F042FF94ED180B3A468DED63
:10380000000BC0A13F4804F049FF02F02FFC4FF02D
:10381000FF30FFF7EFBB84ED188B06F10E005AF86E
:10382000200004F06DFFB0EE408AF0EE608AB0EE4A
:103830004A0AF0EE6A0A53EC102B51EC180BFCF715
:1038400023FF06D353EC1B2B51EC180BFCF734FF72
:1038500016D294ED1A0B394653EC102BB6A004F097
:103860000DFF94ED1A0B3A468DED000BBEA12548D5
:1038700004F014FF02F0FAFB4FF0FF30FFF7BABB81
:1038800084ED1A8B84F84FB084ED10CA84F850B0E0
:1038900084F851B0C4F870B0A86B60B12067AC6315
:1038A00008F1010000F0FF08287840453FF6D2AE4D
:1038B0000020FFF79FBBAC63F2E7000000000000B0
:1038C0004765745F446174613A256420C5E4D6C3DA
:1038D000B4ABB8D0C6F7B8E6BEAFD0C5CFA2B4ED92
:1038E000CEF32CD7EEB4F3D6B5CEAA252E32662C65
:1038F000D7EED0A1D6B5CEAA252E32662C0A00006E
:1039000048B001081C010020310000000000000048
:1039100000000000006AF84000000000D01263417F
:103920004765745F446174613A256420C3FCC1EE4D
:10393000B4EDCEF3C2EB25730A0000004765745F57
:10394000446174613A256420636F6E6669677572BD
:103950006520636F6D6D616E64206572726F722099
:103960002C6572726F7220636F64653A25730A006A
:10397000740000204765745F446174613A256420D7
:10398000C5E4D6C3C6F0CABCB5D8D6B7D0C5CFA299
:10399000B4EDCEF32CB5D8D6B7B7B6CEA7CEAA30F5
:1039A0002D35302CB4EDCEF3C2EB25640A000000B7
:1039B0004765745F446174613A256420636F6E6685
:1039C0006967757265207374617274206164642024
:1039D0006572726F72202C6572726F7220636F64F1
:1039E000653A25640A0000004765745F44617461AC
:1039F0003A256420C5E4D6C3CAFDBEDDCEBBCAFDF0
:103A0000D0C5CFA2B4EDCEF32CCAFDBEDDCEBBCA6D
:103A1000FDB7B6CEA7CEAA302D33302CB4EDCEF301
:103A2000C2EB25640A0000004765745F446174615D
:103A30003A256420636F6E666967757265206461FC
:103A40007461206C656E677468206572726F722095
:103A50002C6572726F7220636F64653A25640A0088
:103A60004765745F446174613A256420C5E4D6C338
:103A7000B1A3B3D6CEBBCAFDD0C5CFA2B4EDCEF3B1
:103A80002CB1A3C1F4CEBBCAFDB7B6CEA7CEAA3027
:103A90002D392CB4EDCEF3C2EB25640A00000000F2
:103AA0004765745F446174613A256420636F6E6694
:103AB0006967757265206B656570206572726F72DB
:103AC000202C6572726F7220636F64653A25640AF8
:103AD000000000004765745F446174613A2564200A
:103AE000C5E4D6C3346D61B6D4D3A6D0C5CFA2B4D5
:103AF000EDCEF32CB4EDCEF3C2EB25302E32660AB8
:103B0000000000004765745F446174613A256420D9
:103B1000636F6E66696775726520346D61206572CA
:103B2000726F72202C6572726F7220636F64653AD7
:103B3000252E32660A0000004765745F4461746197
:103B40003A256420C5E4D6C332306D61B6D4D3A61D
:103B5000D0C5CFA2B4EDCEF32CB4EDCEF3C2EB259D
:103B6000302E32660A0000004765745F446174615C
:103B70003A256420636F6E6669677572652032301E
:103B80006D61206572726F72202C6572726F722087
:103B9000636F64653A252E32660A000070B5ADF594
:103BA000826D06460024CDF80044CDF80444CDF8DB
:103BB0000844CDF80C444FF480616846FCF71FFBC5
:103BC0000A2200210DF5806003F0BEFB0A22114697
:103BD0000DF5806003F0B8FB0DF58060FCF766FB27
:103BE000B0F57A7F05DD1C4981FB00108110A1EB47
:103BF000E070451CAAB21421684603F0A5FB2A46D2
:103C0000694616A004F03AFD0DEB050010F8021C01
:103C1000232912D018A004F031FD20A1294804F076
:103C20003DFD02F023FA4FF47A73012226A12748C2
:103C300002F024F80DF5826D70BD00F8024C694663
:103C40003046FCF708FB694621A004F017FD03F09D
:103C5000A5FD0DF5826D70BD676666664765745F8C
:103C60004465766963655F446174613A25730A73DC
:103C7000697A653A25640A004765745F4465766928
:103C800063655F446174613AB1BEB5D8BBF1C8A148
:103C9000C5E4D6C3CAA7B0DC0A0000004765745F5C
:103CA0004465766963655F446174613A6C6F636112
:103CB0006C20636F6E666967757265206661696CFA
:103CC0000A0000001C0100205B00000040100020E2
:103CD0004765745F4465766963655F446174613A02
:103CE000BBF1C8A1C5E4D6C325730A0090F835100E
:103CF000022903D08021416501207047052180F809
:103D000035100068016821F0010101600020704752
:103D10002DE9F047044621462EA004F0AFFC012512
:103D20003148DFF8C880324E324FB4F5806F1CD076
:103D30004FF00009B4F5004F29D0B4F5007F39D019
:103D4000B4F5807F0FD10022411500F07BF938686F
:103D500018B1C7F8009088F80050274801F0F4FA2D
:103D60004FF480703060BDE8F0870122510200F00E
:103D700069F93868012802D03D6088F800501E4873
:103D800001F0D6FA4FF480603060BDE8F087002281
:103D90004FF4007100F056F9386818B1C7F8009078
:103DA00088F80050144801F0CFFA4FF4004030601A
:103DB000BDE8F0871149887838B911480570114875
:103DC000027882F0FE0202708D704FF40070306055
:103DD000BDE8F087BCECB2E2B5BDCAE4C8EBB5E71C
:103DE000C6BD202025780A00001C02405800002093
:103DF000143C01405400002000110020000000206D
:103E00005A0000205900002010B504490A680242F7
:103E100002D00860FFF77CFF10BD0000143C014099
:103E20002DE9F84F0022DFF80082DFF80092DFF87A
:103E300000A24FF0030E0F27012303FA02F50B68CF
:103E40002B40AB427DD1D1F804C0BCF1020F02D0AF
:103E5000BCF1120F12D14FEAD20C00EB8C0CDCF843
:103E600020605407E40E07FA04FB26EA0B06D1F89B
:103E700010B00BFA04F43443CCF8204006684FEA43
:103E8000420C0EFA0CF4A64391F804B00BF0030BAD
:103E90000BFA0CFB4BEA060606604E68012E05D0B5
:103EA000022E03D0112E01D0122E11D18668A64306
:103EB000D1F80CB00BFA0CFB4BEA0606866046689C
:103EC00026EA05050E79C6F300169640354345608F
:103ED000C56825EA04048D6805FA0CFC4CEA040C5C
:103EE000C0F80CC0D1F804C01CF0805F7DD0D8F8B9
:103EF00000C04CF4804CC8F800C0D8F800C00CF4E6
:103F0000804CCDF800C022F0030C0CF1804404F585
:103F10009834D4F808C895072D0F07FA05F62CEA4F
:103F20000606A0F1804CBCF5003C64D0A0F1804CAA
:103F3000BCF5013C62D0A0F1804CBCF5023C60D0E5
:103F400000E052E0A0F1804CBCF5033C5CD0A0F155
:103F5000804CBCF5043C5AD0A0F1804CBCF5053C2B
:103F600058D0A0F1804CBCF5063C56D0A0F1804C56
:103F7000BCF5073C54D04FF0080C0CFA05FC4CEA99
:103F8000060CC4F808C8D9F800C02CEA030C4C6829
:103F900014F4803F01D04CEA030CC9F800C0254C52
:103FA000D4F800C02CEA030C4D6815F4003F01D092
:103FB0004CEA030CC4F800C0DAF800C02CEA030C89
:103FC0004C6814F4801F01D04CEA030CCAF800C0FE
:103FD000194CD4F800C02CEA030C4D6815F4001FEE
:103FE00001D04CEA030CC4F800C0521C102AFFF4A4
:103FF00023AFBDE8F88F4FF0000CBEE74FF0010C87
:10400000BBE74FF0020CB8E74FF0030CB5E74FF0F9
:10401000040CB2E74FF0050CAFE74FF0060CACE72D
:104020004FF0070CA9E7000044380240003C014073
:10403000083C0140043C01400C3C014042695140B5
:1040400041617047002A01D0816170470904816194
:104050007047000001480068704700000001002020
:1040600070B50446002C1AD021684CF6CC4008608C
:10407000216845F2555008602168606848602168F1
:10408000A0688860FFF7E6FF05462068C06860B159
:10409000FFF7E0FF401B302803D9032070BD01204B
:1040A00070BD2068C0680028F2D121684AF6AA20B5
:1040B0000860002070BD00684AF6AA210160002057
:1040C0007047000002480168491C01607047000009
:1040D0000001002010B50B48016841F40071016037
:1040E000016841F480610160016841F48071016000
:1040F000032000F091F8002000F006F800F018F816
:10410000002010BD003C024010B5044607484FF4A3
:104110007A720068B0FBF2F001F082F800222146CA
:10412000501E00F045F8002010BD000004010020E2
:1041300010B5032000F070F8002211466FF00B005C
:1041400000F036F8002211466FF00A0000F030F857
:10415000002211466FF0090000F02AF800221146F3
:10416000501F00F025F800221146101F00F020F823
:1041700000221146901E00F01BF800221146501E2E
:1041800000F016F800221146052000F011F8BDE8F5
:1041900010400520AFF3008000F01F01012202FA59
:1041A00001F14009800000F1E020C0F800117047E3
:1041B00010B4184B1B68C3F30223C3F1070CBCF106
:1041C000040F01D94FF0040C1C1D072C01D2002351
:1041D00000E0DB1E012404FA0CFCACF1010C0CEA3B
:1041E0000101994004FA03F35B1E1A4011430028B1
:1041F00008DA00F00F0000F1E020090180F8141D3A
:1042000010BC704700F1E020090180F8001410BCD8
:10421000704700000CED00E000F00700064A11684E
:104220004FF6FF03194041EA002040F0FD7040F0D6
:1042300080601060704700000CED00E0012001027A
:1042400091FAA1F1B1FA81F1890001F1844101F5FE
:1042500060210860704700002DE9F84304464FF0E4
:10426000010820784FF0000710F0050F3FD0DFF86D
:104270005C91C9F86870FFF7EDFE0546544E306852
:1042800010F0006F0BD0FFF7E5FE401B022802D9AB
:104290000320BDE8F883306810F0006FF3D147F6D3
:1042A000C07191FAA1F16068B1FA81F188404FF0D4
:1042B000E04292FAA2F2A168B2FA82F29140084377
:1042C00044490860C9F86880FFF7C4FE05463068B5
:1042D00010F0006F0BD1FFF7BDFE401B022802D982
:1042E0000320BDE8F883306810F0006FF3D0207829
:1042F00010F0020F5CD03848016841F08051016035
:10430000006800F080500090344D286840F48070C0
:104310002860FFF79FFE0646286810F4807F0BD1C7
:10432000FFF798FE801B022802D90320BDE8F8831E
:10433000286810F4807FF3D0294D286800F440707D
:1043400028B3A18901F44071814220D0286820F46B
:1043500040702449C1F800800F602860286810F080
:10436000010F14D0FFF776FE0746286810F0020F01
:104370000DD141F28836FFF76DFEC01BB04202D965
:104380000320BDE8F883286810F0020FF3D0E0683E
:104390004FF4407131EA000213490CD0086820F450
:1043A000F81008602868A189C1F30B010843286050
:1043B0000020BDE8F8830A6820F4407022F4F81267
:1043C00020F0704010430860ECE700000000474216
:1043D00000380240843802404038024000700040FB
:1043E00070380240400E4742083802402DE9F05F25
:1043F00004460E46DFF8D091D9F80000F7B200F07D
:104400000F00B0420AD289F80070D9F8000000F01D
:104410000F00B04202D00120BDE8F09F2078DFF805
:10442000AC8110F0020F07D0D8F80000A16820F08E
:10443000F0000843C8F80000207810F0010F51D0B8
:1044400060686349012808D002280DD003280BD0EA
:10445000096811F0020F2ED00AE0096811F4003F3C
:1044600006D10120BDE8F09F096811F0007F1FD040
:10447000D8F8001021F003010843C8F80000FFF746
:10448000E9FD0546606841F2883A012816D0022805
:1044900029D003283CD0D8F8000010F00C0F51D0E0
:1044A000FFF7D8FD401B504547D90320BDE8F09FDA
:1044B0000120BDE8F09F0120BDE8F09FD8F8000082
:1044C00000F00C0004283DD0FFF7C4FD401B504510
:1044D00002D90320BDE8F09FD8F8000000F00C00DE
:1044E0000428F1D12EE0D8F8000000F00C000828D4
:1044F00028D0FFF7AFFD401B504502D90320BDE88F
:10450000F09FD8F8000000F00C000828F1D119E065
:10451000D8F800004FF00C0B3BEA000012D0FFF778
:1045200099FD401B504502D90320BDE8F09FD8F803
:1045300000003BEA0000F2D104E0D8F8000010F0DF
:104540000C0FADD1D9F8000000F00F00B0420AD92D
:1045500089F80070D9F8000000F00F00B04202D0D6
:104560000120BDE8F09F207810F0040F07D0D8F8A4
:104570000000E16820F4E0500843C8F8000020780B
:1045800010F0080F08D0D8F80000216920F460402E
:1045900040EAC100C8F8000000F058F8D8F8001050
:1045A000F02292FAA2F201F0F001B2FA82F2D140C6
:1045B000084A515CC840084908600020FFF7A4FD84
:1045C0000020BDE8F09F0000003C02400838024097
:1045D0000038024040AC01080401002001490120DC
:1045E000C8647047000047420148006870470000F7
:1045F0000401002000B5FFF7F7FF074909684FF4F1
:10460000E05292FAA2F201F4E051B2FA82F2D14001
:10461000024A515CC84000BD0838024050AC010855
:1046200000B5FFF7E1FF074909684FF4604292FACD
:10463000A2F201F46041B2FA82F2D140024A515C26
:10464000C84000BD0838024050AC010810B41F48F3
:10465000006810F00C011E481BD04FEA600C0429C2
:1046600016D0082915D11B4A116801F03F011368C3
:1046700013F4800F47F6C0730DD0BCFBF1F0116846
:10468000194093FAA3F3B3FA83F3D94048430CE0FB
:10469000604610BC7047B0FBF1F01168194093FA06
:1046A000A3F3B3FA83F3D940484311684FF440327F
:1046B00092FAA2F201F44031B2FA82F2D140491CDE
:1046C0004900B0FBF1F010BC704700000838024010
:1046D0000024F400043802402DE9F84F0446DFF8C6
:1046E0001C842078A8F1040710F0010FA7F104053D
:1046F00060D0D8F8000000F00C00042809D0D8F8E9
:10470000000000F00C0008280DD1386810F4800F6C
:1047100009D0286810F4003F4CD06068002849D1C7
:104720000120BDE8F88F6068B0F5803F14D0B0F587
:10473000A02F16D0286820F480302860286820F444
:1047400080202860606810B3FFF784FC0646286864
:1047500010F4003F0ED02DE0286840F4803028602F
:10476000F0E7286840F480202860286840F4803012
:104770002860E7E7FFF76EFC801B642802D903205E
:10478000BDE8F88F286810F4003FF3D012E0FFF77F
:1047900061FC0646286810F4003F0BD0FFF75AFC76
:1047A000801B642802D90320BDE8F88F286810F424
:1047B000003FF3D12078DFF8489310F0020F4FF05C
:1047C000000663D0D8F800004FF0F80B10F00C0F83
:1047D00016D0D8F8000000F00C00082803D1386883
:1047E00010F4800F0CD0E068C8B30120C9F80000B5
:1047F000FFF730FC8246286810F0020F16D022E046
:10480000286810F0020F05D0E068012802D00120CE
:10481000BDE8F88F28689BFAABF22169B2FA82F200
:1048200020F0F8009140084328602FE0FFF712FCC9
:10483000A0EB0A00022802D90320BDE8F88F2868FF
:1048400010F0020FF2D028689BFAABF22169B2FA9D
:1048500082F220F0F80091400843286016E0FFE75C
:10486000C9F80060FFF7F6FB8246286810F0020FD7
:104870000CD0FFF7EFFBA0EB0A00022802D90320BF
:10488000BDE8F88F286810F0020FF2D1207810F000
:10489000080F34D09B48DFF870B26169C1B10121C3
:1048A0000160FFF7D7FB8246DBF8000010F0020F33
:1048B00025D1FFF7CFFBA0EB0A00022802D9032085
:1048C000BDE8F88FDBF8000010F0020FF1D016E021
:1048D0000660FFF7BFFB8246DBF8000010F0020F16
:1048E0000DD0FFF7B7FBA0EB0A00022802D9032086
:1048F000BDE8F88FDBF8000010F0020FF1D120784E
:1049000010F0040F43D08148016841F080510160EC
:10491000006800F080500090DFF8F4B1DBF8000090
:1049200040F48070CBF80000FFF794FB8246DBF880
:10493000000010F4807F0DD1FFF78CFBA0EB0A0084
:10494000022802D90320BDE8F88FDBF8000010F43C
:10495000807FF1D0A068DFF8BCB1012818D005280D
:104960001DD0DBF8000020F00100CBF80000DBF8E0
:10497000000020F00400CBF80000A06868B3FFF747
:1049800069FB8246DBF8000010F0020F14D03CE017
:10499000DBF8000040F00100CBF80000EDE7DBF8A9
:1049A000000040F00400CBF80000DBF8000040F00D
:1049B0000100CBF80000E0E7FFF74CFBA0EB0A0199
:1049C00041F28830814202D90320BDE8F88FDBF83C
:1049D000000010F0020FEFD017E0FFF73BFB82461C
:1049E000DBF8000010F0020F0FD0FFF733FBA0EB55
:1049F0000A0141F28830814202D90320BDE8F88FD4
:104A0000DBF8000010F0020FEFD1A069F0B3D8F886
:104A1000001001F00C0108296CD0022810D0C9F850
:104A20006060FFF717FB0446286810F0007F5ED037
:104A3000FFF710FB001B022855D90320BDE8F88FB3
:104A4000C9F86060FFF706FB0646286810F0007F93
:104A50000BD0FFF7FFFA801B022802D90320BDE824
:104A6000F88F286810F0007FF3D1216AE0694FF0D9
:104A7000FF3340EA010247F6C07191FAA1F1606A82
:104A8000B1FA81F100FA01F1A06A00E02FE003EB36
:104A900050004FF4403393FAA3F3B3FA83F39840F2
:104AA000084310434FF0706292FAA2F2E16AB2FA40
:104AB00082F29140084338600120C9F86000FFF796
:104AC000C9FA0446286810F0007F10D1FFF7C2FA37
:104AD000001B022802D90320BDE8F88F286810F0D7
:104AE000007FF3D003E0286810F0007FA0D1002001
:104AF000BDE8F88F0120BDE8F88F000008380240BB
:104B000000004742800E474274380240403802405D
:104B100000700040703802400068503000EB8100A7
:104B2000006870470068503000EB810002607047F9
:104B300000B50B460068406820F0C00121F07F41BD
:104B4000080CD870C1F3042C83F801C001F03F0CAD
:104B500083F802C0C1F342311970002A0AD102F071
:104B6000CBF9D870587802F0C7F95870987802F0ED
:104B7000C3F99870002000BD00B50B460168896A32
:104B8000596001680969C1F30E0199600068006805
:104B90000F490140C1F305401870C1F3062C83F89A
:104BA00001C001F07F0C83F802C001F48001090C00
:104BB000D970002A0AD102F09FF91870587802F0D3
:104BC0009BF95870987802F097F99870002000BD12
:104BD0007F7F7F0010B50446002C02D0607F10B1AB
:104BE00006E0012010BD00202077204600F044F8A8
:104BF000022060772168CA204862216853204862F9
:104C0000204602F04DFBFF2128B1206841620420BC
:104C10006077012010BD2068826822F0400222F4F3
:104C2000E0028260206882686368D4F814C01A4386
:104C3000236943EA0C031A4382602268E06810612A
:104C400020680269238942EA034202612068C2683F
:104C500022F08002C2602068026C22F4802202648A
:104C60002068026CA3691A43026420684162012033
:104C70006077002010BD000010B590B00068A0F172
:104C80008041B1F5205113D1FFF7D8FA04200490E8
:104C900000200A900124069404A8FFF71DFD0220BD
:104CA0000090C00103906846FFF7D6FA01480460FF
:104CB00010B010BD3C0E47422DE9F04704460B46AC
:104CC000207F012805D001262677022060771AB1BF
:104CD0000AE00220BDE8F087587810F0100F03D0EA
:104CE00000F0EF000A30587042B3587802F004F92F
:104CF000987802F001F99878D9781A7840EA01405A
:104D00005978090241EA423140EA01052168CA2086
:104D10004862216853204862204602F0C1FA002709
:104D20004FF0FF084FF00409C8B12068C0F8248094
:104D300084F81D9027770120BDE8F087D87802F02D
:104D4000E4F80204587802F0E0F842EA0022987889
:104D500002F0DBF81978104340EA4135D6E72168C4
:104D600025F0C00020F07F4048602068C16821F035
:104D70008001C1602068806810F0200F0CD12046AF
:104D800000F09AF840B12068C0F8248084F81D90A3
:104D900027770120BDE8F0872068C0F82480667777
:104DA00027770020BDE8F0872DE9F04704460D463F
:104DB000207F012810D04FF0010984F81C900220B8
:104DC000607700275AB12068806810F0400F1DD02E
:104DD000287802F091F81AE00220BDE8F0872068F8
:104DE000806810F0400F00D1EF70287802F08DF845
:104DF0000204687802F089F842EA0022A87802F0FA
:104E000084F8E978104340EA01460BE0EF70A87897
:104E10002978EA7840EA01406978090241EA0241CA
:104E200040EA01062168CA2048622168532048628E
:104E3000204602F035FA4FF0FF084FF0040A40B167
:104E40002068C0F8248084F81DA027770120BDE8E1
:104E5000F08718482168304008602068816821F494
:104E6000802181602969E8680143206882681143D4
:104E700081602068C16821F08001C160206880687D
:104E800010F0200F0CD1204600F016F840B1206839
:104E9000C0F8248084F81DA027770120BDE8F087A2
:104EA0002068C0F8248084F81D9027770020BDE892
:104EB000F08700007F7F7F0070B504462068C168DE
:104EC00021F0A001C160FFF7C5F805462068C06861
:104ED00010F0200F0CD1FFF7BDF8401BB0F57A7F22
:104EE00001D9032070BD2068C06810F0200FF2D0F7
:104EF000002070BD70B50446002C05D00025A562C9
:104F000094F8510010B106E0012070BD84F85050B3
:104F1000204600F031F8022084F851002068016832
:104F200021F040010160A168606822690843E168DE
:104F30001143084361690843218B01F40071084360
:104F4000E1690843216A0843A16A084321680860AF
:104F5000A069042101EA1040616A084321684860A1
:104F60002068C16921F40061C1616565012084F890
:104F70005100002070BD0000F0B587B00068A0F1BE
:104F80008041B1F560513CD100251F48016841F4D2
:104F900080410160006800F4804001901B48016876
:104FA00041F480710160016801F480710191016830
:104FB00041F004010160006800F0040001900A2043
:104FC000029002240394059405260696104F02A928
:104FD0003846FEF725FF04200290039404950696B8
:104FE00002A90C48FEF71CFF012211463846FFF7C4
:104FF00029F8012102910391069602A93846FEF78D
:105000000FFF07B0F0BD00004038024030380240CA
:1050100000200240000802402DE9F84F0446DDF868
:1050200028800D4616469B4601274FF0000994F84C
:10503000500001280ED0012084F85000FFF70AF834
:10504000824694F85100616801280ED0B1F5827F44
:1050500007D102E00220BDE8F88FA16809B9042851
:1050600003D04FF0020900F0C3B845B13EB1BBF127
:10507000000F04D094F85100012803D005E04FF050
:105080000109B5E0052084F8510000206065A663A1
:10509000A4F83EB0A4F83CB02563A4F836B0A4F858
:1050A00034B0206460642068016811F0400F03D1BF
:1050B000016841F040010160E068B0F5006F05D083
:1050C0006068C8B3E08E01283ED06EE0606810B121
:1050D000E08E012831D121682888C860AD1CE08E9F
:1050E000401EE08629E06FB1E08E58B120688168EB
:1050F00011F0020F06D02988C160AD1CE08E401E61
:10510000E0860027E08F58B12068816811F0010F18
:1051100006D0C0683080B61CE08F401EE0870127B3
:10512000B8F1FF3F09D0FEF795FFA0EB0A0040451C
:1051300003D34FF003095BE006E0E08E0028D2D1F4
:10514000E08F0028CFD136E02168287808736D1CE5
:10515000E08E401EE08628E06FB1E08E58B12068F6
:10516000816811F0020F06D015F8011B0173E08E63
:10517000401EE0860027E08F58B12068816811F05A
:10518000010F06D0C06806F8010BE08F401EE087D3
:105190000127B8F1FF3F08D0FEF75CFFA0EB0A0043
:1051A000404502D34FF0030922E0E08E0028D3D11E
:1051B000E08F0028D0D14346012202212046CDF8BD
:1051C00000A002F0FFF910B14FF0030910E05246C1
:1051D0004146204602F0A6F820B14FF001092020F8
:1051E000606505E0A06818B92068C1688068009013
:1051F000012084F85100002084F850004846BDE8A2
:10520000F88F4FF0E021042804D0086920F0040052
:1052100008617047086940F00400086170477047F2
:10522000401EB0F1807F01D3012070474FF0E02194
:105230004861044AF020107000208861072008614E
:105240000020704723ED00E010B5FFF7E8FF10BD28
:105250007047704710B490F83820012A2AD00123F3
:1052600080F83830022280F839200268D2F804C071
:105270002CF0700CC2F804C00268D2F804C00C68AC
:105280004CEA040CC2F804C00268D2F808C02CF042
:10529000800CC2F808C00268D2F808C049684CEA1D
:1052A0000101916080F83930002180F8381010BC7D
:1052B0000020704710BC0220704710B50446002C37
:1052C00003D094F8390010B107E0012010BD002090
:1052D00084F83800204600F00DF8022084F83900E8
:1052E000211D206802F064FD012084F839000020AF
:1052F00010BD000008B50068A0F18041B1F58051F3
:1053000012D10A48016841F010010160006800F004
:1053100010000090062201213620FEF749FFBDE86B
:1053200008403620FEF738BF08BD00004038024074
:105330000168CA6842F00102CA600068016841F071
:105340000101016000207047022180F839100168D6
:105350000A6A41F211131A4207D10A6A9B101A42D3
:1053600003D10A6822F001020A60012180F8391095
:1053700000207047704770B50446206801694FF0FF
:10538000000511F0020F17D0C16811F0020F13D001
:10539000E91E0161012020762068806910F0030F6A
:1053A00003D02046FFF7E6FF05E0204600F09DF819
:1053B000204600F09BF825762068016911F0040F63
:1053C00018D0C16811F0040F14D06FF0040101610E
:1053D000022020762068806910F4407F03D02046A8
:1053E000FFF7C8FF05E0204600F07FF8204600F0F8
:1053F0007DF825762068016911F0080F18D0C16882
:1054000011F0080F14D06FF008010161042020761C
:105410002068C06910F0030F03D02046FFF7AAFFF1
:1054200005E0204600F061F8204600F05FF82576A0
:105430002068016911F0100F18D0C16811F0100F29
:1054400014D06FF010010161082020762068C06937
:1054500010F4407F03D02046FFF78CFF05E0204684
:1054600000F043F8204600F041F8257620680169F5
:1054700011F0010F09D0C16811F0010F05D06FF0D4
:1054800001010161204600F033F82068016911F044
:10549000800F09D0C16811F0800F05D06FF0800136
:1054A00001612046FFF7D4FE2068016911F0400F2A
:1054B00009D0C16811F0400F05D06FF040010161C3
:1054C000204600F06FF82068016911F0200F0BD022
:1054D000C16811F0200F07D06FF020010161204654
:1054E000BDE87040FFF7B5BE70BD70477047000063
:1054F00030B42548C189491CC1818189491C8181F9
:1055000022490A68521C0A6021490978002902D1FF
:10551000018A491C01821F4801880A2902D3018897
:10552000491E018000211C481C4A1D4B007812783E
:105530004FF47A7C40EA020401EB011000EB4110C9
:1055400003EBC000426C032A13DB052A11D084B19F
:10555000D0F8682112B1C0F860C10AE0426A012A9D
:105560000CD0D0F86451D0F86021AA4201D0C0F824
:1055700060C1491C0529DFDB30BC7047D0F86021D1
:10558000521EC0F86021F4E70000002064000020F3
:105590005E000020680000204F0000205000002026
:1055A000800100207047704710B5044622681068DB
:1055B000D168526900F00F03002B0AD110F0200FC0
:1055C00007D011F0200F04D02046BDE8104002F0B3
:1055D00076BC002B6BD002F0010301F4907C53EAFF
:1055E0000C0364D010F0010F06D011F4807F03D0BB
:1055F000E36B43F00103E36310F0040F06D012F0F5
:10560000010F03D0E36B43F00203E36310F0020FDA
:1056100006D012F0010F03D0E36B43F00403E36301
:1056200010F0080F06D012F0010F03D0E26B42F029
:105630000802E263E26B002A2ED010F0200F05D0A2
:1056400011F0200F02D0204602F039FC206840699A
:10565000C0F38010E16B11F0080F00D108B32046B1
:1056600002F012FC2068416911F0400F15D0416929
:1056700021F040014161606B58B118490165606BD0
:10568000FEF734FB002807D0606B016DBDE81040C9
:1056900008472046FFF787FF10BD2046FFF783FF2E
:1056A00010BD2046FFF77FFF0020E06310BD10F023
:1056B000800F07D011F0800F04D02046BDE81040C5
:1056C00002F0E8BD10F0400FF0D011F0400FEDD027
:1056D0002046BDE8104002F0E5BB0000797E0108DD
:1056E00070B50446002C04D094F83900002510B1A0
:1056F00006E0012070BD84F83850204600F022F802
:10570000242084F839002068C16821F40051C16068
:10571000204602F01DFC2068016921F490410161DE
:105720002068416921F02A0141612068C16841F483
:105730000051C160E563202084F8390084F83A0004
:10574000002070BDF0B587B0016800270224012554
:10575000032007233F4EA1F18042B2F588322DD0BD
:105760003D4AA1F1804CBCF5904C42D0A1F1804360
:10577000B3F5A04320D1116841F004011160116814
:1057800001F004010191116841F0080111601168F4
:1057900001F0080101919114029103940495059080
:1057A0000820069002A92D48FEF73AFB042002903B
:1057B00002A92B48FEF734FB07B0F0BD29490A685F
:1057C00042F010020A60096801F0100101914021C5
:1057D0000291039404950590069302A93046FEF7C2
:1057E0001FFB8021029102A93046FEF719FB07B08A
:1057F000F0BD1D49D1F800C04CF4802CC1F800C0A8
:10580000096801F480210191116841F08001116063
:10581000116801F0800101914FF4806102910394BD
:1058200004950590069302A93046FEF7F9FA4FF465
:105830000061029102A93046FEF7F2FA4FF480703F
:10584000029003950494069702A90848FEF7E8FA27
:1058500007B0F0BD000402403038024000080240AA
:10586000000C02404438024040380240001C024014
:1058700090F83A30202B01D002207047D1B1CAB144
:1058800090F83830012B17D081628285C2850021C3
:10589000C163222280F83A2080F8381001684A69F2
:1058A00042F001024A610068C16841F49071C16030
:1058B0000020704701207047022070472DE9F04713
:1058C000002102680124DFF82C92DFF82C82A2F17B
:1058D0008043B3F5883327D0A2F18043B3F59043DA
:1058E00020D1874A98F80330DFF810C215880CF8E9
:1058F000053013885B1C138090F83A20202A00F0B2
:10590000F180491CC9B20A29F6D37EA002F0B6FE86
:1059100082A1874802F0C2FE00F0A8FB89F800408F
:1059200088F80040BDE8F087824F39787248824D90
:105930000026407AB9B198F80810491C88F8081078
:105940002E807B2840F0C7803E704FF47A7301228E
:105950007AA17B4800F092F988F8074079A002F01C
:105960008DFE00F0B8B82988B1F57A7F80F0AF805D
:105970002988DFF8E8A109B9202805D029880AF884
:1059800001002988491C2980298888F801102628C7
:1059900060D009DC21281ED0232810D0242826D04E
:1059A000252840F0988068E0282800F086803A2872
:1059B0002CD0402877D07B2840F08D8038E03C7098
:1059C00088F805402888504400F8016C64A002F073
:1059D00055FE2E807FE03C7088F8064028885044B1
:1059E00000F8016C64A002F049FE2E8073E0288864
:1059F000052870D23C702888504400F8016C644837
:105A0000047064A002F03AFE2E8064E028880F281B
:105A100061D3288811285ED83C702888504400F84B
:105A2000016C6248047062A002F028FE2E8052E0F1
:105A30004FF47A73012241A1414800F01FF988F820
:105A400007402888504400F8016C3EA002F016FE82
:105A50002E8040E028880A283DD25C48FFF774FC7D
:105A60003C705BA002F00AFE5FA1314802F016FE16
:105A700000F0FCFA88F80B402DE0288805282AD28F
:105A80003C705EA002F0FAFD88F800405FA1284853
:105A900002F004FE00F0EAFA89F800404B48FFF7F4
:105AA00053FC18E0FFE72888052814D25D480470ED
:105AB0005DA002F0E3FD2E800DE0288805280AD2C3
:105AC0006148047061A002F0D9FD2E8003E064A05B
:105AD00002F0D4FD2E80BDE8F04701226449184849
