:020000040801F1
:10000000403F00209D0101082552010837490108A1
:10001000F54D0108B7110108BD6801080000000096
:10002000000000000000000000000000DF5B01088D
:10003000A91B0108000000004555010819600108CE
:10004000B7010108B7010108B7010108B7010108AC
:10005000B701010849550108B7010108B7010108B6
:10006000B7010108B7010108B7010108B70101088C
:10007000B7010108B7010108B7010108B70101087C
:10008000B7010108B7010108B7010108B70101086C
:10009000B7010108B7010108B70101086320010891
:1000A000B7010108B7010108B7010108B70101084C
:1000B000B7010108B7010108B7010108B70101083C
:1000C000B7010108B7010108B7010108B70101082C
:1000D000B7010108F1660108B7010108FD660108D2
:1000E0004D200108B7010108B7010108B701010857
:1000F000B7010108B7010108B7010108B7010108FC
:10010000B7010108B7010108B7010108B7010108EB
:10011000B7010108B701010821610108B701010811
:10012000B7010108B7010108B7010108B7010108CB
:10013000B7010108B7010108B7010108B7010108BB
:10014000B7010108B7010108B7010108B7010108AB
:10015000B7010108B7010108B7010108B70101089B
:10016000B7010108B7010108B7010108B70101088B
:10017000B7010108B7010108B7010108000000003C
:10018000B7010108B7010108DFF80CD000F05EFCF0
:1001900000480047BD810108403F002006488047D5
:1001A00006480047FEE7FEE7FEE7FEE7FEE7FEE75C
:1001B000FEE7FEE7FEE7FEE7C560010889010108EA
:1001C000A0F14101192900D820307047D2B201E0D6
:1001D00000F8012B491EFBD270470022F6E710B54C
:1001E00013460A4604461946FFF7F0FF204610BDA5
:1001F000421C10F8011B0029FBD1801A704710B572
:10020000002200E0521C835C8C5CA34201D1002BD5
:10021000F8D1D8B2E1B2401A10BD034611F8012B53
:1002200000F8012B002AF9D11846704770B50F4D20
:1002300000B92868002412E00A4602E09E4203D07A
:10024000521C1378002BF9D1DAB2224305D02BB11E
:1002500024B1002100F8011B04E00446401C06788C
:10026000002EE9D12860204670BD0000E00000208B
:1002700070B5064606F062FB046805460A220021B6
:10028000304600F067FA2C6070BD2DE9FE4F8046C5
:1002900081EA0300C00F0C46009021F0004123F0DA
:1002A0000045B8EB0200A94105D2404621469046E0
:1002B0001C460B46024623F00040104347D0270D52
:1002C000C7F30A00C3F30A510290401A0190402874
:1002D0006BDAC3F3130040F4801B0098924620B100
:1002E0000023D2EB030A63EB0B0B01985946C0F1D4
:1002F0004002504600F0AFF906460D4650465946BA
:10030000019A00F0C7F910EB08006141002487EA68
:10031000115284EAE7731A4340D0009A62B3019AFB
:10032000012A4FEA075215DC001B61EB02014FF076
:10033000004202EA0752CDE90042001C41F580115B
:1003400032462B4600F084FA03B0BDE8F08F4046F9
:100350002146F9E7001B61EB0201001C41F5801307
:1003600000185B412018A2F5001747EB030140EA93
:10037000D570B6196D4111E06D084FEA360645EAB1
:10038000C0754FEA0752001B61EB0201001C41F5EA
:10039000801149084FEA30000019514132462B467E
:1003A00003B0BDE8F04F00F044BA009801224000CD
:1003B0000023D0EB020263EBE073009821464FEA82
:1003C000E074B8EB000061EB0401E9E783F000435F
:1003D0005BE781F0004158E72DE9FE4F81EA030415
:1003E00004F0004421F0004100944FF0000B23F092
:1003F000004350EA01045ED052EA03045BD0C3F329
:100400000A54C1F30A552C44A4F2F3340194A0FB1E
:100410000254C1F3130141F48011C3F3130343F4F5
:10042000801301FB024400FB034E840A970A44EA4E
:10043000815447EA8357A4FB076802958D0A05FBA0
:1004400007854FEA932C04FB0C542705029D4FEAC5
:10045000065847EA1637B5EB08056EEB070C870E12
:10046000920E47EA811742EA8312A7FB0201B6EB1C
:100470000B0164EB00042B0D43EA0C335E1844EBD4
:100480001C50DA465146E7FB0201C5F313044FEA5C
:100490000B3343EA14534FEA0432019C43EA060348
:1004A000A4F10C040294009CCDE900B400F0D0F952
:1004B00003B0BDE8F08F00200146F9E70EB540F229
:1004C000334102910021CDE900110A460B4600F0AC
:1004D000BFF903B000BDC1F30A5210B5C1F3130157
:1004E00040F2FF3341F480119A4201DA002010BD3E
:1004F00040F233439A42A2F2334203DC524200F00C
:10050000B9F810BD904010BD00F0004230F000403E
:100510000AD0C10D01F56071C0F3160042EA015125
:10052000C208400711437047002001467047000091
:1005300030B5041E71F1000404DB4FF0004440426A
:1005400064EB0101141E73F1000405DB1C464FF03F
:100550000043524263EB04038B4208BF824230BD2A
:1005600030B5041E71F1000404DB4FF0004440423A
:1005700064EB0101141E73F1000405DB1C464FF00F
:100580000043524263EB0403994208BF904230BDDE
:1005900001F0004330B421F0004150EA010206D0DE
:1005A0000A0DA2F56072C1F31301002A02DC30BC0F
:1005B00000207047440F44EAC104C100E01830BC79
:1005C00000EBC25000F0FEB830B50B4601460020EB
:1005D0002022012409E021FA02F59D4205D303FA05
:1005E00002F5491B04FA02F52844151EA2F1010286
:1005F000F1DC30BD2DE9F05F0546002092469B46B8
:1006000088460646814640241BE028464146474628
:10061000224600F02FF853465A46C01A914110D393
:1006200011461846224600F016F82D1A67EB01080D
:100630004F4622460120002100F00DF817EB00097B
:100640004E41201EA4F10104DFDC484631462A4613
:100650004346BDE8F09F202A04DB203A00FA02F16D
:10066000002070479140C2F1200320FA03F31943A0
:1006700090407047202A04DB203A21FA02F0002142
:10068000704721FA02F3D040C2F1200291400843A2
:1006900019467047202A06DBCB17203A41FA02F0B0
:1006A00043EAE07306E041FA02F3D040C2F12002CF
:1006B00091400843194670470FB4002300B589B034
:1006C0000CA900910B996FF00042CB601E4B069372
:1006D0001E4B07930423CDE901321D4A08920246BE
:1006E0006B46002000F066FA09B05DF814FB70B5A7
:1006F00086B006464FF0FF300091CDE901010020A1
:1007000015460C4604903246694604A8FFF7D4FF0C
:1007100002460498211825B108B1084600E0204699
:100720002860049800280DD0002A02DD0098884235
:1007300008D0081B0094CDE901043246694604A89C
:10074000FFF7BAFF06B070BDED0D01080B0E0108F2
:10075000790A01082DE9F04791460F468046044684
:10076000002614F8015B2DB100F082F90068405DAD
:10077000C007F6D12B2D02D02D2D18D0641E4A466D
:100780003946204600F052FB27B13968A14201D119
:10079000C7F8008071054FF002040BD540420028D5
:1007A00003DD06F0CBF80460A007BDE8F08746F44F
:1007B0008066E4E70028F8DA06F0C0F804606FF01D
:1007C0000040F2E70029A8BF7047401C490008BF5D
:1007D00020F00100704710B4B0FA80FC00FA0CF071
:1007E00050EA010404BF10BC704749B1CCF12004A9
:1007F00021FA04F411FA0CF118BF01212143084336
:10080000A3EB0C01CB1D4FEA00614FEA102042BF61
:10081000002010BC704700EBC35010440029A4BF57
:1008200010BC7047401C490008BF20F0010010BCFC
:10083000704710B5141E73F1000408DA401C41F132
:10084000000192185B411A4301D120F0010010BD54
:100850002DE9F04D92469B4611B1B1FA81F202E0CA
:10086000B0FA80F220329046FFF7F5FE04460F46BC
:1008700040EA0A0041EA0B0153465A46084313D0A6
:10088000114653EA010019D0C8F140025046FFF763
:10089000F1FE05460E46504659464246FFF7DBFE3E
:1008A000084305D0012004E020463946BDE8F08D1C
:1008B0000020054346EAE0762C4337430A98630557
:1008C000E40AA0EB08000022FD0A44EA47540A307B
:1008D00002D500200146E9E7010510196941DDE96B
:1008E000084500196941BDE8F04DA2E72DE9F04D3A
:1008F00081EA030404F0004B21F0004514464FF058
:10090000000A23F0004150EA050220D054EA010217
:100910001DD0C5F30A570246C5F31303C1F31300F4
:10092000C1F30A5640F4801543F48013A7EB060880
:10093000101BD64608F2FD3873EB050002D308F110
:10094000010801E092185B41B8F1000F03DA0020C2
:100950000146BDE8F08D00204FF480110646844624
:100960000EE0171B73EB050705D3121B63EB0503A2
:1009700006434CEA010C49084FEA300092185B41EB
:1009800050EA0107EDD152EA030012D082EA0400D6
:1009900083EA0501084305D0101BAB4106D20122B2
:1009A000002306E000224FF0004302E06FF0010256
:1009B00053101AEB06004CEB085110EB0A0041EB08
:1009C0000B01BDE8F04DFFF734BF70B521F00043D7
:1009D00003430CD0C1F30A550024D5EB040564EBA6
:1009E0000403D617AD1AB34102DB0020014670BDE7
:1009F000201841EB025170BD0EB5C10F80EAE070C6
:100A00000844CA07002140F233438DE80E000A462D
:100A10000B46FFF71DFF03B000BDC1F30A52C1F33F
:100A2000130140F2FF3341F480119A4202DA0020B0
:100A30000146704740F233439A42A2F2334202DC4D
:100A40005242FFF717BEFFF706BE0000064C074DE7
:100A500006E0E06840F0010394E80700984710348E
:100A6000AC42F6D3FFF794FBD0880108F088010868
:100A700000487047CC88010810B50446FFF7F8FF1E
:100A80000068005D00F0010010BD00002DE9FF4F7F
:100A9000087883B09946FF2805D0491C2D2804D03A
:100AA0000024002008E000200BE00124F9E700EB1F
:100AB000800003EB4000491C0B78FF2BF7D104B1F9
:100AC000404200230293147819461D462D2C01D074
:100AD0002B2C04D1521C2D2C13D000240294AA4696
:100AE0001478FF2C0FD00A25A3FB057801FB0581A4
:100AF0004FF0000C03FB0C11521CE3194AEB0101EF
:100B0000EEE70124EAE7814453EA010002D019F537
:100B1000C87F06DA03980021C0E9001107B0BDE8DC
:100B2000F08F0025AE4E2F46DFF8B882184600F051
:100B30002BFACDE90001B9F1000002DAC9F1000495
:100B400000E004460023A74A1AEB030B42EB045AC9
:100B500012E0E00707D02A46334638464146FFF701
:100B60003BFC074688462A46334610461946FFF79F
:100B700033FC05460E466410002CEAD1DDE9000185
:100B8000B9F1000F5A46534606DAFFF7AFFE3A4670
:100B90004346FFF7ABFE05E0FFF71EFC3A4643462F
:100BA000FFF71AFC029A0AB181F00041039AC2E9E8
:100BB0000001B3E72DE9FF4F1F468DB0D7E901468D
:100BC0004FF0FF382E2045464FF000090B90B969D1
:100BD0006D1C0E988847396A824688470028F6D1EE
:100BE000BAF1FF3F0AD024F4D064002E11DDBAF12F
:100BF0002B0F08D0BAF12D0F0BD102E0404611B0F7
:100C00008DE744F48064B9696D1C0E98884782466C
:100C1000761E6946600501D52D2000E02B208DF859
:100C2000000001F1010B0DF1200809E0B9696D1C0C
:100C30000E98884782460F9844F40074761E05602B
:100C4000002E02DDBAF1300FF0D00B998A453ED16B
:100C500044F0800406E00F99681CA9F1010944F4EE
:100C600000740860B9696D1C761E0E98884782462C
:100C70003028F0D02BE00B998A4505D1200603D40B
:100C800044F08004761E18E0504606F049FE08B392
:100C90000DF11301761E44F400748B4508D2AAF1BD
:100CA00030000BF8010B200607D5A9F1010003E085
:100CB000200602D409F101008146A00502D50F9952
:100CC000681C0860B9696D1C0E9888478246002E22
:100CD000D1DC53E0002E51DDBAF1650F02D0BAF13C
:100CE000450F4BD1A00549D5B9696D1C24F440745A
:100CF000761E0E9888478246002E0CDD2B2804D0E5
:100D0000BAF12D0F07D144F48074B9696D1C0E98A7
:100D100088478246761EE00501D52D2100E02B2173
:100D200008F8011BCDF82C8021E00DF12901761E79
:100D300044F4007488450CD2AAF1300010F0FF0092
:100D400088F8000002D10B99884509D908F10108FB
:100D500006E0E00501D5244801E042F20F7081462B
:100D6000B9696D1C0E98884782460F980560002E61
:100D700004DD504606F0D4FD0028D6D1F9690E985E
:100D80008847FF208BF8000088F8000000200690BC
:100D900007904B466A4608A906A8FFF777FEA0050C
:100DA00002D46FF001002AE714F0240F0AD0E00704
:100DB00014D1DDE906123868031D3B600068C0E904
:100DC00000120BE0DDE90601FFF7E2FB0146E00758
:100DD00004D13868021D3A600068016028460EE7B9
:100DE000000014400000F03FF1D8FFFF426842B11C
:100DF000016811F8013B23B1521EC0E900121846E8
:100E000070470121C160881E704742685AB1C368AB
:100E1000016843B983688B4205D0491E521CC0E962
:100E20000012002070474FF0FF3070472DE9F05F4F
:100E300082460078002715468B460AF10104B94620
:100E4000302801D09DB113E014F8010B0127782858
:100E500003D0582801D045B10AE00DB1102D07D1BB
:100E60000027102514F8010B02E0082500E00A25F0
:100E70000026B0460EE005FB080005FB06F1012741
:100E800001EB10461FFA80F8B6F5803F00D3B94653
:100E900014F8010B294600F069F80028EBDABBF1E1
:100EA000000F05D00FB1641E00E05446CBF800409F
:100EB000B9F1000F06D005F041FD02210160C81E06
:100EC000BDE8F09F48EA0640FAE72DE9F04D00231F
:100ED0001A461B1A8A4103DB00200146BDE8F08D4B
:100EE000C1F30A52C1F3130141F480154FF0000B16
:100EF000D10702D100186D41521E0027044640F26E
:100F0000FF11384601EB620A3E4680460246002049
:100F10004FF48011FFF7AEFBC2197141BB1846EBCD
:100F20000100B4EB030C75EB000C04D3E41A65EB81
:100F3000000517460E46241908F101006D41804650
:100F40003428E3DDF91946EB0600091BA84103D25A
:100F50004FF0FF32134601E0002213461BEB07005F
:100F600046EB0A51BDE8F04DFFF763BC3A2800D2CA
:100F7000303820F02002412A01D3A2F13700884204
:100F800001D34FF0FF3070470EB540F2334202926A
:100F90000022CDE900221346FFF75AFC03B000BD42
:100FA00010B508A005F08EFC00F070FB04F08AF983
:100FB00040F6B83001F0A8FD00F048FABDE8104056
:100FC00004F0B4BA416C61726D3AB3F6CFD6D2EC8C
:100FD000B3A32CB7A2B3F6B8E6BEAF0A0000000078
:100FE00010B582B00A4809490160532141600024CC
:100FF000846040F2E731C16003F029F80094019465
:101000006946034802F0F0FF02B010BD0010004036
:101010008C0E002010B504490448FFF7FEF8BDE827
:10102000104004F08BBE0000E2090020FA05002009
:101030002DE9F0412DED088B017844788578C6784C
:10104000B7EE009AB0EE49AA9FED498B802901D3F3
:10105000BFEE00AA0BD30846FFF730FA53EC182B6B
:10106000FFF7B4F9FFF794FA00EE100A03E000EE80
:10107000101AB8EE400AF0EE000A20EE200A802C8A
:101080000DD310EE100AFFF73FFA9FED3B1B53EC18
:10109000112BFFF7FAF8FFF77BFA00EE100A10EEBB
:1010A000100AFFF731FA9FED361B53EC112BFFF7B7
:1010B0008DF9FFF76DFA0746802C09D32046FFF71C
:1010C000FDF953EC182BFFF781F9FFF704FAC4B2CE
:1010D0002046FFF7F3F99FED2CBB53EC1B2BFFF7DA
:1010E0007BF941EC180B2846FFF7E8F953EC182B75
:1010F000FFF7CBF853EC1B2BFFF76EF941EC180B05
:101100003046FFF7DBF953EC182BFFF7BEF8FFF77B
:101110003FFA00EE100ADFED1E0A20EE200A30EE44
:10112000090A10EE100AFFF7EFF941EC180B3846E8
:10113000FFF7EAF941EC110B9FED170B05F00CFCE2
:10114000B0EE409AF0EE609A1AEE100AFFF7DCF962
:1011500053EC192BFFF740F953EC182BFFF73CF930
:10116000FFF716FA00EE100ABDEC088BBDE8F0811F
:101170000000000000006040000000000000F03FA0
:101180000000000000C05F40000000000000704050
:1011900000000034000000000000000000000040DB
:1011A00001780A064178090483781B02C078194443
:1011B00010440844704704F04DFBFEE7F0B582B0E0
:1011C00004464FF6FF77019748F20506002000908D
:1011D0004D1E1FD314F8010B00906946684603F0BA
:1011E000E8FCBDF804009DF8001080EA01200190A1
:1011F0000021BDF8042012F4004F03D086EA42001B
:10120000019002E007EA42000190491C0829F0DB46
:101210006D1EDFD201A901A803F0B4FCBDF80400E3
:1012200002B0F0BD2DE9F0439FB005460024002731
:1012300000260596069607960896099600226946A6
:10124000424802F063FB9DF801309DF8002040A168
:1012500005A805F047FB4148C5EBC50100EB0115AA
:1012600005F1440005A9FEF7D8FF05F1580105A8CE
:10127000FEF7D3FF3AA105A8FEF7D8FF0DF1280825
:1012800070B104EB840208EB820201461046FEF7BF
:10129000C4FF33A10020FEF7C9FF641C0028F0D171
:1012A000002405F1440105A8FEF7B7FF2CA105A80D
:1012B000FEF7BCFF0DF1500970B104EB840209EB9D
:1012C000820201461046FEF7A8FF25A10020FEF786
:1012D000ADFF641C0028F0D109F11400FEF7C8FF2F
:1012E000044608F11400FEF7C3FF04443C2C11DB54
:1012F0001C4920463246C1FB04204211A2EBE07794
:101300002046C1FB04604111A1EBE070A0EB00108E
:1013100004EB800414A8FEF7ABFF06460AA8FEF70C
:10132000A7FF30443844104981FB00218A10A2EB0A
:10133000E171A1EB810100EBC10205F144002346FC
:1013400003A105F0CFFA1FB0BDE8F083200F002005
:10135000253032643A25303264000000F400002069
:101360003A00000089888888ABAAAA2A00000000F9
:101370002DE9F0470025052802D006281BD01BE0E8
:101380000021254A4B1EC1EBC10002EB0010057085
:1013900085770562836245620564456680F858502A
:1013A000856680F8445080F84E50C566491C052972
:1013B000E9DBBDE8F0870520DFF8609000EBC007AF
:1013C00009EBC704206C012659F83710012909DD03
:1013D000D0F8888006F062FE4046761C59F8371037
:1013E000B142F5DC9FED0E0B84ED060B84ED040B92
:1013F00049F83750256384ED080B84ED0A0B25640A
:101400009FED090A84ED0D0AA5630520E063BDE8A0
:10141000F087000000000000F40000201804002005
:10142000000000000000000000000000002005494E
:101430000988002905DD044B00221A54401C88420B
:10144000FBDB704742000020C8050020082101484E
:1014500004F09EB86E0000202DE9F04790B0804661
:101460000024039404940594069407940894099422
:101470000A940B940C940D940E940F940126A8F1E9
:1014800030090294002504F087F9DFF8D4A0A8F110
:101490003107052F1DD2DFE807F003080D121700F2
:1014A0000821304804F074F818E008212E4804F0B0
:1014B0006FF813E008212D4804F06AF80EE00821C7
:1014C0002B4804F065F809E008212A4804F060F888
:1014D00004E00026414628A005F0F4F902A804F033
:1014E00035F8002E0CD09DF8080010B19AF80400D1
:1014F00048B16D1C032DCCDB41462AA005F0E2F972
:1015000010B0BDE8F087A9F10100C0EBC0012E4882
:1015100000EB0115286AE0B143462A462BA103A837
:10152000009405F0DFF903A8FEF762FE82B24FF4E3
:101530007A7303A9284803F08FF92C6203A927A026
:1015400005F0C0F941462DA005F0BCF910B0BDE88A
:10155000F087414631A005F0B5F910B0BDE8F0873D
:10156000C80500208E0000209E000020AE00002054
:10157000BE000020CE000020436C6F73655F4465A1
:101580006C61793AB9D8B1D5BCCCB5E7C6F7CAA772
:10159000B0DCA3ACB6CBBFDAB4EDCEF33A25630A28
:1015A00000000000436C6F73655F44656C61793ABD
:1015B000B9D8B1D52563B6CBBFDABCCCB5E7C6F791
:1015C000CAA7B0DC0A000000F40000202A25732C12
:1015D00025632C2564000000CC0D0020436C6F7344
:1015E000655F44656C61793AB7A2CBCDBCCCB5E7F9
:1015F000C6F7CAFDBEDD3A25730A0000436C6F735F
:10160000655F44656C61793AB9D8B1D52563B6CBCD
:10161000BFDABCCCB5E7C6F70A000000436C6F73B5
:10162000655F44656C61793ABCCCB5E7C6F7D2D149
:10163000BEADB9D8B1D53A25630A000010B5A0F106
:101640003102114605290DD20749C2EBC20201EB56
:101650000214E16E012905D1014604A005F032F91A
:101660000020E06610BD0000F4000020436C6F73A2
:10167000655F4572726F3A2563BAC5BCCCB5E7C6E3
:10168000F7D5FDB3A3B9A4D7F70A00000821014894
:1016900003F07EBF5E0000200821014803F078BF00
:1016A0007E00002010B50CA10C48FEF7BFFD0446DB
:1016B00009A10020FEF7BAFD0178302906D03129B2
:1016C00009D12078BDE8104003F002BE2078BDE8C3
:1016D0001040FFF7C1BE10BD2C000000FA0500202D
:1016E00070B50024154DC4EBC40005EB001108785B
:1016F00030281ED0C86EE0B90A6C012A06D0022A32
:1017000008D0032A0AD0042A13D10DE0204600F0A5
:101710006BF80EE0204600F013F80AE0486E40B97E
:10172000204600F071F904E0486E10B9204600F040
:10173000AFF8641C052CD6DB70BD0000F40000205F
:101740002DE9F04105460024294619A005F0BAF814
:101750002348C5EBC50100EB01156F6A002F25DD9D
:10176000DFF8808005EB8400806A00EBC00008EBA6
:10177000C006B068FEF7C8FE96ED041B53EC112BB3
:10178000FEF7D6FE02D2A87FFFF766FEB068FEF72E
:10179000BBFE96ED061B53EC112BFEF7E1FE02D2C9
:1017A000A87F03F095FD641CBC42DBDBBDE8F08143
:1017B000436F6E74726F6C5F6D61785F66726F6D90
:1017C0005F6D696E3ABCCCB5E7C6F7BFD8D6C6B672
:1017D000CBBFDA25642CBFAACABCBFD8D6C60A00C4
:1017E000F4000020180400202DE9F04105460024F3
:1017F000294619A005F066F82348C5EBC50100EBA2
:1018000001156F6A002F25DDDFF8808005EB84006D
:10181000806A00EBC00008EBC006B068FEF774FEFB
:1018200096ED041B53EC112BFEF782FE02D2A87F2B
:1018300003F04EFDB068FEF767FE96ED061B53EC15
:10184000112BFEF78DFE02D2A87FFFF705FE641C68
:10185000BC42DBDBBDE8F081436F6E74726F6C5F7E
:101860006D696E5F66726F6D5F6D61783ABCCCB505
:10187000E7C6F7BFD8D6C6B6CBBFDA25642CBFAA59
:10188000CABCBFD8D6C60A00F40000201804002045
:1018900070B5A8B0054600221B921C921D921E92A4
:1018A0001F92209221922292239224922592269294
:1018B00027920E920F9210921192129213921492FA
:1018C000159216921792189219921A9201920292F8
:1018D00003920492059206920792089209920A9244
:1018E0000B920C920D920024294625A004F0EAFFE9
:1018F0002E48C5EBC50100EB011505F14E0205F1BF
:1019000044012BA004F0DEFF05F144011BA8FEF703
:1019100084FC05F14E010EA8FEF77FFC30A10EA855
:10192000FEF784FC01AE70B104EB840206EB4202C8
:1019300001461046FEF771FC29A10020FEF776FC57
:10194000641C0028F0D1ACB106F10A00FEF790FC4F
:10195000044601A8FEF78CFCC0EB001004EB8000ED
:101960004EF6602148436866A8661E49012008704B
:1019700028B070BD1CA004F0A5FF28B070BD000009
:10198000436F6E74726F6C5F74656D65723ABCCC38
:10199000B5E7C6F7BFD8D6C6B6CBBFDA25642CBF2D
:1019A000AACABCBFD8D6C60A00000000F4000020B6
:1019B000436F6E74726F6C5F74656D65723AC3BF0E
:1019C000CCECCCD8B6A8CAB1BCE4BCD32CC3BFCC39
:1019D000EC2573BCD32573CAB1BCE40A0000000037
:1019E0003A00000048000020436F6E74726F6C5F15
:1019F0007379735F74656D6572A3BACAE4C8EBD27C
:101A0000ECB3A3210A00000070B5ACB0054600227B
:101A10001F92209221922292239224922592269222
:101A20002792289229922A922B9212921392149220
:101A3000159216921792189219921A921B921C9252
:101A40001D921E92059206920792089209920A929E
:101A50000B920C920D920E920F9210921192002402
:101A600029462BA004F02EFF3448C5EBC50100EB3E
:101A7000011505F14E0205F1580131A004F022FFD5
:101A800005F14E0112A8FEF7C8FB3AA112A8FEF715
:101A9000CDFB05AE70B104EB840206EB42020146B9
:101AA0001046FEF7BAFB33A10020FEF7BFFB641C13
:101AB0000028F0D13CB306F10A00FEF7D9FB04463A
:101AC00005A8FEF7D5FBC0EB001004EB80004EF636
:101AD000602148436866A8662749012008700022F3
:101AE0006946264801F012FF9DF801309DF800205C
:101AF00023A11FA804F0F6FE05F144001FA9FEF77C
:101B00008CFB2CB070BD21A004F0DCFE2CB070BDAD
:101B1000436F6E74726F6C5F74656D65723ABCCCA6
:101B2000B5E7C6F7BFD8D6C6B6CBBFDA25642CBF9B
:101B3000AACABCBFD8D6C60A00000000F400002024
:101B4000436F6E74726F6C5F74656D65723AB4D377
:101B5000B5B1C7B0CAB1BCE4BFAACABCB6A8CAB1C5
:101B6000BCD32CC3BF2573BCD32573CAB1BCE40A54
:101B7000000000003A00000047000020200F002075
:101B8000253032643A25303264000000436F6E74B1
:101B9000726F6C5F74656D6572A3BACAE4C8EBD2EC
:101BA000ECB3A3210A00000003F054BE00000000C3
:101BB0002DE9F04F2DED048B8FB04FF00009CB468F
:101BC000CDF828B0CDF82CB0CDF830B0CDF834B089
:101BD000CDF838B0C846CDF800B0CDF804B0CDF897
:101BE00008B0CDF80CB0CDF810B0CDF814B0CDF8E9
:101BF00018B0CDF81CB0CDF820B0CDF824B0002638
:101C000095A004F05FFE9FED9C8A9FED9D9B9E49F1
:101C100009EBC90A01EBCA05E86B2C6C002C00F03B
:101C200010819A4AC0EBC00002EB0017206DFEF74E
:101C30006BFC95ED081B53EC112BFEF791FC10D3B8
:101C4000206DFEF761FC95ED0A1B53EC112BFEF79E
:101C50006FFC0AD294ED140AB5EEC00AF1EE10FA48
:101C600003D0286B401C28630FE094ED140AB5EEF6
:101C7000C00AF1EE10FA02D108F1010805E0684649
:101C800000EB860080ED000A761CC4F854B0C4F85E
:101C900058B084ED148AD4F888407B48296B50F8FA
:101CA0003A00814208D1494679A004F00BFEC5F8FC
:101CB00030B0FFF775F90CE040450AD149467CA0E9
:101CC00004F000FE4FF00008FFF76AF9B87F03F058
:101CD000E9FB002CAAD1022E6CDB3146684600F0ED
:101CE000CBF9B9F1000F09D0B9F1010F1ED0B9F14C
:101CF000020F32D0B9F1030F5CD145E06846711E86
:101D000000EB8100DDED000A90ED000A714930EE34
:101D1000600A10EE100A88424CDD6FA004F0D2FD7C
:101D2000FFF73EF9B87F03F0BDFB43E0684600EBE8
:101D30008600DDED000A90ED000A724930EE600A7F
:101D400010EE100A884235DD6FA004F0BBFDFFF7EE
:101D500027F9B87F03F0A6FB2CE0684600EB86006D
:101D6000DDED000A90ED000A734830EE600A10EED7
:101D7000101A81421EDD71A004F0A4FDFFF710F9D6
:101D8000B87F03F08FFB15E0684600EB8600DDEDC1
:101D9000000A90ED000A30EE600A10EE100AB0F171
:101DA000804F07DD70A004F08DFDFFF7F9F8B87FD4
:101DB00003F078FB0026386A012842D1A86B02287C
:101DC0003FDB95ED020AD5ED0D0A30EE600A10EE0C
:101DD000100AFEF799FB41EC100B04F0B3FD53EC35
:101DE000192B51EC100BFEF7A3FB03D269A004F0F2
:101DF00069FD21E0386C01280ED195ED020AD5ED80
:101E00000D0A30EE600AB5EEC00AF1EE10FA03D208
:101E10006EA004F057FD0FE0022812D195ED020AE2
:101E2000D5ED0D0A30EE600AB5EEC00AF1EE10FAFB
:101E300007DD76A004F046FDFFF7B2F8B87F03F0A7
:101E400031FB09F10109B9F1060FFFF6E0AE0FB061
:101E5000BDEC048BBDE8F08F446574656374696FF5
:101E60006EA3BABFAACABCBCECB2E2B4ABB8D0C6CF
:101E7000F7D2ECB3A30A000000000000000000004D
:101E80009A9999999999B93F18040020F400002073
:101E9000446574656374696F6EA3BA2564BAC5B48A
:101EA000ABB8D0C6F7B7A2B3F6B8E6BEAF0A00002B
:101EB000446574656374696F6EA3BA2564BAC5B46A
:101EC000ABB8D0C6F7C8ABB2BFB3F6CFD6D2ECB37F
:101ED000A30A0000000040405048B2C9BCAFCAFD90
:101EE000BEDDCFE0B2EEBDCFB4F3A3ACBFC9C4DC5E
:101EF000C4B3B8F6B4ABB8D0B7A2C9FAD2ECB3A3A6
:101F00000A0000000000A041B5E7B5BCC2CAB2C9D2
:101F1000BCAFCAFDBEDDCFE0B2EEBDCFB4F3A3AC23
:101F2000BFC9C4DCC4B3B8F6B4ABB8D0B7A2C9FA61
:101F3000D2ECB3A30A0000000000A040CEC2B6C895
:101F4000B2C9BCAFCAFDBEDDCFE0B2EEBDCFB4F3C7
:101F5000A3ACBFC9C4DCC4B3B8F6B4ABB8D0B7A2A5
:101F6000C9FAD2ECB3A30A00D1B9C1A6B2C9BCAFB9
:101F7000CAFDBEDDCFE0B2EEBDCFB4F3A3ACBFC9A6
:101F8000C4DCC4B3B8F6B4ABB8D0B7A2C9FAD2ECCB
:101F9000B3A30A00446574656374696F6EA3BABC29
:101FA000CCB5E7C6F7D5FDB3A3B9A4D7F7A3ACB5B5
:101FB000ABCAC7CAFDBEDDD6B8B1EAC8FDB7D6D632
:101FC000D3C3BBD3D0B1E4BBAF0A00004465746592
:101FD0006374696F6EA3BABCCCB5E7C6F7D5FDB321
:101FE000A3B9A4D7F7D4DABFD8D6C6B7BDCABDD275
:101FF000BBA3ACB5ABCAC7CAFDBEDDD6B8B1EAB7A4
:10200000B4B6F8BCF5C9D90A00000000446574658F
:102010006374696F6EA3BABCCCB5E7C6F7D5FDB3E0
:10202000A3B9A4D7F7D4DABFD8D6C6B7BDCABDB650
:10203000FEA3ACB5ABCAC7CAFDBEDDD6B8B1EAB720
:10204000B4B6F8D4F6BCD30A0000000010B54FF4C3
:10205000806000F0CFFDBDE810404FF4004000F07C
:10206000C9BD10B54FF4807000F0C4FDBDE810404C
:102070004FF4007000F0BEBD30B52DED028B83B083
:10208000D0ED008AB0EE680A0122012914DD00EBD0
:10209000820393ED008AB4EEE88AF1EE10FA01DDD6
:1020A000F0EE488AB4EEC08AF1EE10FA01D2B0EE3A
:1020B000480A521C8A42EADB80ED000A491E00EB06
:1020C0008100C0ED008A10EE100AFEF71DFA0446EA
:1020D0000D4618EE900AFEF717FA41EC100B05A01A
:1020E00053EC102B0195009404F0ECFB03B0BDEC15
:1020F000028B30BDD7EEB4F3D6B5CEAAA3BA252E47
:1021000032662020D7EED0A1D6B5CEAAA3BA252E0E
:1021100032660A002DE9F04F2DED048B85B04FF0AB
:102120000009DFED438AC846002600200090019098
:102130000290039004903FA004F0C4FB00259FEDA3
:10214000459ADFF814B1B0EE688A05EBC50A0BEBCF
:10215000CA073C6C002C63D0F0EE488AA06D10B129
:10216000616D1E2916DDC4ED148A22463BA1684626
:1021700004F0B8FB6846FEF73BF882B24FF47A737E
:102180006946374802F068FB2246294635A004F02C
:1021900099FB09E000EE100AD4ED140AB8EEC00A6B
:1021A00080EE801A84ED141A94ED140A30EE088A39
:1021B000606D404501DD8046A1460644D4F8884064
:1021C000002CCBD12F4905EB850041F830501E2E55
:1021D00008DD01EBC00080ED099A001D4946FEF7BD
:1021E0001CF80FE05BF83A2000EE102AF8EEC00A67
:1021F00088EE200AB0EE408A87ED028A01EBC0002B
:1022000080ED098AB86B08B987ED0D8A1E49401C1C
:1022100081FB0021A1EBE171A1EB81010844B863CE
:102220006D1C062D8FDB05B0BDEC048BBDE8F08F77
:10223000000000004765745F41766572616765A3C1
:10224000BABFAACABCBCC6CBE3CAFDBEDDBEF9D6C6
:10225000B50A000000401CC61804002021257300A8
:10226000CC0D00204765745F41766572616765A398
:10227000BA2564BAC5B4ABB8D0C6F72573B4EDCEF1
:10228000F30A0000240300205655555500000000B5
:102290002DE9F04F2DED068BB5B007460D46C82150
:1022A00002A8FDF79AFF00249FEDF7ABF8A128469E
:1022B000FDF7BCFF0DF1080A48B1F5A10020FDF7BC
:1022C000B5FF4AF82400611CCCB20028F5D10A2CD5
:1022D0000DD2052F0BD022463946EEA004F0F2FABB
:1022E0004FF0FF3035B0BDEC068BBDE8F08FF24CFF
:1022F0004FF0000B052F02D0062F71D0AFE00298EF
:10230000FDF7B6FF00F0FF080025B8F1000F68D90F
:10231000022000EB85095AF829000078A0F1310667
:10232000012000EB8500C6EBC6025AF82010E348F6
:1023300000EB02142046FDF770FF5AF829000078E0
:10234000A077313804280CD3DC48C6EBC60100EB7B
:1023500001103946827FDAA004F0B4FA4FF0FF3062
:10236000C0E7032000EB85005AF82000FDF780FF4E
:102370000246206405286AD0501E042806D3394638
:10238000D9A004F09FFA4FF0FF30ABE7042A12D037
:10239000032A27D0042000EB85095AF82900FDF70D
:1023A00027FFC2B2082A32D33946DAA004F08AFAEB
:1023B0004FF0FF3096E7042000EB85065AF8260020
:1023C00080F805B05AF8261004F14400FDF725FF07
:1023D0005AF82600811D04F14E00FDF71EFF34E07F
:1023E0003CE039E0042000EB85065AF8260080F82E
:1023F00005B05AF8261004F15800FDF70EFF5AF800
:102400002600811D04F14E00FDF707FF1DE062620A
:102410000020002A19DDDFF8A0C25AF829E00523C0
:102420001EF80010A1F1300904EB8001C1F82890DA
:10243000B9F1060F00D18B62896A01EBC1010CEB87
:10244000C101CE63401C9042EADBC4F820B0681C96
:10245000C5B24545FFF45CAF002043E7052707EB15
:10246000C70804EBC8056F600298FDF701FF44F848
:1024700038000B2807D302463946B2A004F022FAEE
:102480004FF0FF302EE70021039805F08DF8B0EEF5
:10249000408AF0EE608A0021049805F085F8B0EEDD
:1024A000409AF0EE609A53EC192B51EC180BFEF7A2
:1024B00057F811D853EC1A2B51EC180BFEF738F8DB
:1024C0000AD08DED008B53EC192B3946A9A004F0EE
:1024D000F9F94FF0FF3005E785ED048B85ED069B9C
:1024E0000021069805F060F8B0EE408AF0EE608AB0
:1024F0000021059805F058F8B0EE409AF0EE609A89
:1025000053EC192B51EC180BFEF712F811D853ECC1
:102510001A2B51EC180BFEF70BF80AD08DED009B2F
:1025200053EC182B3946A3A004F0CCF94FF0FF3040
:10253000D8E685ED088B85ED0A9B5846C5F830B086
:1025400028649FEDAC8A85ED0D8AA863002654F8B7
:10255000381000297BDDDFF8A0B28C2005F0C4FF25
:10256000044606EBC60909F105005AF8201020467A
:10257000FDF753FE09F106005AF8201004F11E0081
:10258000FDF74BFE09F107005AF8201004F15C003A
:10259000FDF743FE09F108005AF82000FDF768FE38
:1025A000A066332807D3394694A0A26E04F08AF9B6
:1025B0004FF0FF3096E609F109005AF82000FDF7C8
:1025C00057FEE0661F2807D339469BA0E26E04F051
:1025D00079F94FF0FF3085E609F10A005AF820003A
:1025E000FDF746FE20670A2807D33946A2A0226FCE
:1025F00004F068F94FF0FF3074E609F10B005AF867
:10260000201004F17400FDF708FE09F10C005AF8DF
:102610002000FDF72DFEC4F88000584508D3394648
:10262000A5A0D4F8802004F04DF94FF0FF3059E612
:1026300009F10D005AF82000FDF71AFEC4F88400D5
:1026400058450AD33946A7A0D4F8842000E018E002
:1026500004F038F94FF0FF3044E60020606584ED67
:10266000148AA065C4F888001349286C58B1C4F8CE
:1026700088002C64701CC6B251F83800B0423FF795
:102680006CAF00202EE643E10000000000000000D7
:102690002C0000004765745F446174613A25642032
:1026A000C5E4D6C3D0C5CFA2B4EDCEF32CB4EDCEE5
:1026B000F3C2EB25640A000018040020F400002097
:1026C0004765745F446174613A256420C5E4D6C3EC
:1026D000B6CBBFDAD0C5CFA2B4EDCEF32CB4EDCEDD
:1026E000F3C2EB25640A00004765745F44617461BE
:1026F0003A256420C5E4D6C3BFD8D6C6C4A3CABD94
:10270000D0C5CFA2B4EDCEF32CB4EDCEF3C2EB2501
:10271000640A00004765745F446174613A2564206F
:10272000C5E4D6C3BFD8D6C6B4ABB8D0C6F7D0C5FB
:10273000CFA2B4EDCEF32CB4EDCEF3C2EB25640AF8
:10274000000000004765745F446174613A256420AD
:10275000C5E4D6C3B4ABB8D0C6F7CAFDC1BFD0C5B7
:10276000CFA2B4EDCEF32CB4EDCEF3C2EB25640AC8
:10277000000000004765745F446174613A2564207D
:10278000C5E4D6C3B4ABB8D0C6F7D6B8B1EAD0C5A5
:10279000CFA2B4EDCEF32CD7EEB4F3D6B5CEAA25A6
:1027A0002E32662CD7EED0A1D6B5CEAA252E326613
:1027B0002C0A00004765745F446174613A25642007
:1027C000C5E4D6C3B4ABB8D0C6F7B8E6BEAFD0C583
:1027D000CFA2B4EDCEF32CD7EEB4F3D6B5CEAA2566
:1027E0002E32662CD7EED0A1D6B5CEAA252E3266D3
:1027F0002C0A000000000000A18601004765745FFC
:10280000446174613A256420C5E4D6C3C6F0CABCED
:10281000B5D8D6B7D0C5CFA2B4EDCEF32CB5D8D6A7
:10282000B7B7B6CEA7CEAA302D35302CB4EDCEF347
:10283000C2EB25640A0000004765745F446174615F
:102840003A256420C5E4D6C3CAFDBEDDCEBBCAFDB1
:10285000D0C5CFA2B4EDCEF32CCAFDBEDDCEBBCA2F
:10286000FDB7B6CEA7CEAA302D33302CB4EDCEF3C3
:10287000C2EB25640A0000004765745F446174611F
:102880003A256420C5E4D6C3B1A3B3D6CEBBCAFDF6
:10289000D0C5CFA2B4EDCEF32CB1A3C1F4CEBBCA48
:1028A000FDB7B6CEA7CEAA302D392CB4EDCEF3C2EB
:1028B000EB25640A000000004765745F44617461A1
:1028C0003A256420C5E4D6C3346D61B6D4D3A6D00E
:1028D000C5CFA2B4EDCEF32CB4EDCEF3C2EB25649C
:1028E0000A0000004765745F446174613A25642002
:1028F000C5E4D6C332306D61B6D4D3A6D0C5CFA25D
:10290000B4EDCEF32CB4EDCEF3C2EB25640A000097
:102910002C64AFE670B5ADF57E7D06460024FA94D2
:10292000FB94FC944FF47A716846FDF756FC0A223A
:102930000021FAA802F0C0FF0A221146FAA802F00C
:10294000BBFFFAAA002125A003F0BCFFFAA8FDF7FF
:102950008FFCB0F57A7F05DD294981FB00108110DD
:10296000A1EBE070451CAAB21421684602F0A4FF56
:102970002A46694623A003F0A5FF6D44284915F8AF
:10298000010C30280FD0312812D00C6025A003F0A4
:1029900099FF15F8020C232810D02FA003F092FF06
:1029A0000DF57E7D70BD0C6034A003F08BFFF0E769
:1029B000012008603AA003F085FFEAE705F8024C21
:1029C00069463046FDF729FC69463EA003F07AFFD0
:1029D00003F0B4F90DF57E7D70BD00004765745FAE
:1029E0004465766963655F446174613AB5D8D6B76A
:1029F00020257320200A73697A653A2573200A001E
:102A0000676666664765745F4465766963655F44BB
:102A10006174613A25730A73697A653A25640A001C
:102A20004C0000204765745F4465766963655F44C8
:102A30006174613AB6C1C8A1CFB5CDB3D7B4CCAC3F
:102A4000CAA7B0DCA3ACCFB5CDB3B4A6D3DACDA3BF
:102A5000D6B9D7B4CCAC0A004765745F44657669D3
:102A600063655F44617461A3BAB1BEB5D8BBF1C8F8
:102A7000A1C5E4D6C3CAA7B0DC0A00004765745FED
:102A80004465766963655F446174613ACFB5CDB3DF
:102A9000B5B1C7B0D7B4CCAC73746F700A00000086
:102AA0004765745F4465766963655F446174613A44
:102AB000CFB5CDB3B5B1C7B0D7B4CCAC72756E0AD3
:102AC000000000004765745F4465766963655F4494
:102AD000617461A3BABBF1C8A1C5E4D6C325730A6A
:102AE0000000000090F83510022903D080214165D4
:102AF00001207047052180F835100068016821F039
:102B0000010101600020704731B500F09FF90546D2
:102B1000009CB4F1FF3F00D0641C00F097F9401B0B
:102B2000A042FAD338BD00002DE9F04101242A4B20
:102B30002A4F2B4D2B4EB0F5806F1CD04FF0000864
:102B4000B0F5004F29D0B0F5007F39D0B0F5807FC7
:102B50000FD100225915184600F071F9306828B1DC
:102B6000C6F800803C70204801F0B8FA4FF480703D
:102B70002860BDE8F08101225102184600F05FF99B
:102B80003068012804D034603C70174801F09AFA8C
:102B90004FF480602860BDE8F08100224FF400719E
:102BA000184600F04CF9306828B1C6F800803C7037
:102BB0000D4801F093FA4FF400402860BDE8F08121
:102BC0000A4804700A48017881F0FE0101704FF450
:102BD00000702860BDE8F081001C02405000002019
:102BE000143C01404C0000208C0E002052000020BC
:102BF0005100002010B504490A68024202D0086062
:102C0000FFF792FF10BD0000143C01402DE9F84F82
:102C10000022DFF80082DFF80092DFF800A24FF018
:102C2000030E0F27012303FA02F50B682B40AB427A
:102C30007DD1D1F804C0BCF1020F02D0BCF1120F5B
:102C400012D14FEAD20C00EB8C0CDCF82060540758
:102C5000E40E07FA04FB26EA0B06D1F810B00BFAD3
:102C600004F43443CCF8204006684FEA420C0EFAD4
:102C70000CF4A64391F804B00BF0030B0BFA0CFB19
:102C80004BEA060606604E68012E05D0022E03D0E0
:102C9000112E01D0122E11D18668A643D1F80CB0A6
:102CA0000BFA0CFB4BEA06068660466826EA050529
:102CB0000E79C6F30016964035434560C56825EA8F
:102CC00004048D6805FA0CFC4CEA040CC0F80CC036
:102CD000D1F804C01CF0805F7DD0D8F800C04CF45F
:102CE000804CC8F800C0D8F800C00CF4804CCDF877
:102CF00000C022F0030C0CF1804404F59834D4F8A1
:102D000008C895072D0F07FA05F62CEA0606A0F16C
:102D1000804CBCF5003C64D0A0F1804CBCF5013C7B
:102D200062D0A0F1804CBCF5023C60D000E052E0E3
:102D3000A0F1804CBCF5033C5CD0A0F1804CBCF50C
:102D4000043C5AD0A0F1804CBCF5053C58D0A0F111
:102D5000804CBCF5063C56D0A0F1804CBCF5073C3D
:102D600054D04FF0080C0CFA05FC4CEA060CC4F8E1
:102D700008C8D9F800C02CEA030C4C6814F4803F52
:102D800001D04CEA030CC9F800C0254CD4F800C0AF
:102D90002CEA030C4D6815F4003F01D04CEA030CFB
:102DA000C4F800C0DAF800C02CEA030C4C6814F434
:102DB000801F01D04CEA030CCAF800C0194CD4F8AB
:102DC00000C02CEA030C4D6815F4001F01D04CEA3A
:102DD000030CC4F800C0521C102AFFF423AFBDE856
:102DE000F88F4FF0000CBEE74FF0010CBBE74FF03F
:102DF000020CB8E74FF0030CB5E74FF0040CB2E754
:102E00004FF0050CAFE74FF0060CACE74FF0070CA6
:102E1000A9E7000044380240003C0140083C014062
:102E2000043C01400C3C01400069084201D00120F3
:102E30007047002070474269514041617047002A45
:102E400001D08161704709048161704701480068C1
:102E500070470000D800002002480168491C01604A
:102E600070470000D800002010B50B48016841F4FD
:102E700000710160016841F480610160016841F402
:102E800080710160032000F091F8002000F006F846
:102E900000F018F8002010BD003C024010B50446B8
:102EA00007484FF47A720068B0FBF2F001F082F844
:102EB00000222146501E00F045F8002010BD000001
:102EC000DC00002010B5032000F070F8002211464D
:102ED0006FF00B0000F036F8002211466FF00A0088
:102EE00000F030F8002211466FF0090000F02AF8D7
:102EF00000221146501F00F025F800221146101F35
:102F000000F020F800221146901E00F01BF800226D
:102F10001146501E00F016F800221146052000F060
:102F200011F8BDE810400520AFF3008000F01F014C
:102F3000012202FA01F14009800000F1E020C0F80E
:102F40000011704710B4184B1B68C3F30223C3F180
:102F5000070CBCF1040F01D94FF0040C1C1D072C09
:102F600001D2002300E0DB1E012404FA0CFCACF1CA
:102F7000010C0CEA0101994004FA03F35B1E1A40AC
:102F80001143002808DA00F00F0000F1E0200901E9
:102F900080F8141D10BC704700F1E020090180F892
:102FA000001410BC704700000CED00E000F00700BA
:102FB000064A11684FF6FF03194041EA002040F02D
:102FC000FD7040F080601060704700000CED00E084
:102FD0000120010291FAA1F1B1FA81F1890001F118
:102FE000844101F560210860704700002DE9F84335
:102FF00004464FF0010820784FF0000710F0050F4D
:103000003FD0DFF85C91C9F86870FFF71FFF0546F5
:10301000544E306810F0006F0BD0FFF717FF401BC5
:10302000022802D90320BDE8F883306810F0006F51
:10303000F3D147F6C07191FAA1F16068B1FA81F15C
:1030400088404FF0E04292FAA2F2A168B2FA82F20E
:103050009140084344490860C9F86880FFF7F6FECC
:103060000546306810F0006F0BD1FFF7EFFE401BF4
:10307000022802D90320BDE8F883306810F0006F01
:10308000F3D0207810F0020F5CD03848016841F08E
:1030900080510160006800F080500090344D286835
:1030A00040F480702860FFF7D1FE0646286810F4CF
:1030B000807F0BD1FFF7CAFE801B022802D90320B4
:1030C000BDE8F883286810F4807FF3D0294D286884
:1030D00000F4407028B3A18901F44071814220D0EE
:1030E000286820F440702449C1F800800F602860EF
:1030F000286810F0010F14D0FFF7A8FE07462868D3
:1031000010F0020F0DD141F28836FFF79FFEC01B71
:10311000B04202D90320BDE8F883286810F0020FFE
:10312000F3D0E0684FF4407131EA000213490CD04B
:10313000086820F4F81008602868A189C1F30B0121
:10314000084328600020BDE8F8830A6820F4407036
:1031500022F4F81220F0704010430860ECE7000001
:1031600000004742003802408438024040380240A4
:103170000070004070380240400E4742083802405C
:103180002DE9F05F04460E46DFF8D091D9F8000033
:10319000F7B200F00F00B0420AD289F80070D9F8F7
:1031A000000000F00F00B04202D00120BDE8F09F07
:1031B0002078DFF8AC8110F0020F07D0D8F80000BB
:1031C000A16820F0F0000843C8F80000207810F053
:1031D000010F51D060686349012808D002280DD042
:1031E00003280BD0096811F0020F2ED00AE00968FD
:1031F00011F4003F06D10120BDE8F09F096811F0ED
:10320000007F1FD0D8F8001021F003010843C8F850
:103210000000FFF71BFE0546606841F2883A01286E
:1032200016D0022829D003283CD0D8F8000010F08E
:103230000C0F51D0FFF70AFE401B504547D9032021
:10324000BDE8F09F0120BDE8F09F0120BDE8F09FA0
:10325000D8F8000000F00C0004283DD0FFF7F6FD80
:10326000401B504502D90320BDE8F09FD8F800006C
:1032700000F00C000428F1D12EE0D8F8000000F096
:103280000C00082828D0FFF7E1FD401B504502D96B
:103290000320BDE8F09FD8F8000000F00C000828DB
:1032A000F1D119E0D8F800004FF00C0B3BEA000018
:1032B00012D0FFF7CBFD401B504502D90320BDE8DB
:1032C000F09FD8F800003BEA0000F2D104E0D8F803
:1032D000000010F00C0FADD1D9F8000000F00F0085
:1032E000B0420AD989F80070D9F8000000F00F0048
:1032F000B04202D00120BDE8F09F207810F0040F0A
:1033000007D0D8F80000E16820F4E0500843C8F87E
:103310000000207810F0080F08D0D8F800002169CC
:1033200020F4604040EAC100C8F8000000F058F8FE
:10333000D8F80010F02292FAA2F201F0F001B2FAED
:1033400082F2D140084A515CC84008490860002018
:10335000FFF7A4FD0020BDE8F09F0000003C024004
:1033600008380240003802409C870108DC00002039
:1033700001490120C86470470000474201480068C5
:1033800070470000DC00002000B5FFF7F7FF074999
:1033900009684FF4E05292FAA2F201F4E051B2FA55
:1033A00082F2D140024A515CC84000BD0838024058
:1033B000AC87010800B5FFF7E1FF074909684FF442
:1033C000604292FAA2F201F46041B2FA82F2D14074
:1033D000024A515CC84000BD08380240AC87010871
:1033E00010B41F48006810F00C011E481BD04FEAB3
:1033F000600C042916D0082915D11B4A116801F068
:103400003F01136813F4800F47F6C0730DD0BCFB67
:10341000F1F01168194093FAA3F3B3FA83F3D9409A
:1034200048430CE0604610BC7047B0FBF1F01168F7
:10343000194093FAA3F3B3FA83F3D94048431168D0
:103440004FF4403292FAA2F201F44031B2FA82F221
:10345000D140491C4900B0FBF1F010BC704700009E
:10346000083802400024F400043802402DE9F84FE7
:103470000446DFF81C842078A8F1040710F0010F3F
:10348000A7F1040560D0D8F8000000F00C00042873
:1034900009D0D8F8000000F00C0008280DD13868D9
:1034A00010F4800F09D0286810F4003F4CD06068F9
:1034B000002849D10120BDE8F88F6068B0F5803F51
:1034C00014D0B0F5A02F16D0286820F480302860E2
:1034D000286820F480202860606810B3FFF7B6FCED
:1034E0000646286810F4003F0ED02DE0286840F40E
:1034F00080302860F0E7286840F480202860286841
:1035000040F480302860E7E7FFF7A0FC801B6428C8
:1035100002D90320BDE8F88F286810F4003FF3D0EB
:1035200012E0FFF793FC0646286810F4003F0BD02A
:10353000FFF78CFC801B642802D90320BDE8F88FBC
:10354000286810F4003FF3D12078DFF8489310F09A
:10355000020F4FF0000663D0D8F800004FF0F80BD0
:1035600010F00C0F16D0D8F8000000F00C0008285E
:1035700003D1386810F4800F0CD0E068C8B3012084
:10358000C9F80000FFF762FC8246286810F0020FBD
:1035900016D022E0286810F0020F05D0E06801285C
:1035A00002D00120BDE8F88F28689BFAABF22169B0
:1035B000B2FA82F220F0F8009140084328602FE030
:1035C000FFF744FCA0EB0A00022802D90320BDE863
:1035D000F88F286810F0020FF2D028689BFAABF23F
:1035E0002169B2FA82F220F0F80091400843286085
:1035F00016E0FFE7C9F80060FFF728FC824628685C
:1036000010F0020F0CD0FFF721FCA0EB0A000228FB
:1036100002D90320BDE8F88F286810F0020FF2D11C
:10362000207810F0080F34D09B48DFF870B2616941
:10363000C1B101210160FFF709FC8246DBF80000FF
:1036400010F0020F25D1FFF701FCA0EB0A000228C1
:1036500002D90320BDE8F88FDBF8000010F0020F5C
:10366000F1D016E00660FFF7F1FB8246DBF80000C0
:1036700010F0020F0DD0FFF7E9FBA0EB0A000228C3
:1036800002D90320BDE8F88FDBF8000010F0020F2C
:10369000F1D1207810F0040F43D08148016841F047
:1036A00080510160006800F080500090DFF8F4B1B4
:1036B000DBF8000040F48070CBF80000FFF7C6FB99
:1036C0008246DBF8000010F4807F0DD1FFF7BEFBCF
:1036D000A0EB0A00022802D90320BDE8F88FDBF82E
:1036E000000010F4807FF1D0A068DFF8BCB10128A1
:1036F00018D005281DD0DBF8000020F00100CBF821
:103700000000DBF8000020F00400CBF80000A06807
:1037100068B3FFF79BFB8246DBF8000010F0020F56
:1037200014D03CE0DBF8000040F00100CBF80000D2
:10373000EDE7DBF8000040F00400CBF80000DBF818
:10374000000040F00100CBF80000E0E7FFF77EFB4F
:10375000A0EB0A0141F28830814202D90320BDE882
:10376000F88FDBF8000010F0020FEFD017E0FFF742
:103770006DFB8246DBF8000010F0020F0FD0FFF760
:1037800065FBA0EB0A0141F28830814202D9032097
:10379000BDE8F88FDBF8000010F0020FEFD1A06950
:1037A000F0B3D8F8001001F00C0108296CD0022801
:1037B00010D0C9F86060FFF749FB0446286810F094
:1037C000007F5ED0FFF742FB001B022855D9032083
:1037D000BDE8F88FC9F86060FFF738FB0646286837
:1037E00010F0007F0BD0FFF731FB801B022802D9BD
:1037F0000320BDE8F88F286810F0007FF3D1216A1C
:10380000E0694FF0FF3340EA010247F6C07191FAD8
:10381000A1F1606AB1FA81F100FA01F1A06A00E059
:103820002FE003EB50004FF4403393FAA3F3B3FAC5
:1038300083F39840084310434FF0706292FAA2F26B
:10384000E16AB2FA82F29140084338600120C9F877
:103850006000FFF7FBFA0446286810F0007F10D1E3
:10386000FFF7F4FA001B022802D90320BDE8F88F05
:10387000286810F0007FF3D003E0286810F0007F84
:10388000A0D10020BDE8F88F0120BDE8F88F00002E
:103890000838024000004742800E47427438024018
:1038A00040380240007000407038024000685030DC
:1038B00000EB8100006870470068503000EB810029
:1038C0000260704700B50B460068406820F0C001F8
:1038D00021F07F41080CD870C1F3042C83F801C09B
:1038E00001F03F0C83F802C0C1F342311970002A85
:1038F0000AD101F09BFED870587801F097FE5870FD
:10390000987801F093FE9870002000BD00B50B463A
:103910000168896A596001680969C1F30E019960FB
:10392000006800680F490140C1F305401870C1F3F9
:10393000062C83F801C001F07F0C83F802C001F46B
:103940008001090CD970002A0AD101F06FFE1870AD
:10395000587801F06BFE5870987801F067FE987007
:10396000002000BD7F7F7F0010B50446002C02D0F0
:10397000607F10B106E0012010BD002020772046B6
:1039800000F044F8022060772168CA20486221686C
:1039900053204862204601F03BFFFF2128B12068F8
:1039A000416204206077012010BD2068826822F007
:1039B000400222F4E0028260206882686368D4F8E2
:1039C00014C01A43236943EA0C031A438260226835
:1039D000E068106120680269238942EA03420261BB
:1039E0002068C26822F08002C2602068026C22F463
:1039F000802202642068026CA3691A430264206872
:103A0000416201206077002010BD000010B590B029
:103A10000068A0F18041B1F5205113D1FFF7D8FA29
:103A20000420049000200A900124069404A8FFF7C3
:103A30001DFD02200090C00103906846FFF7D6FAF2
:103A40000148046010B010BD3C0E47422DE9F0471C
:103A500004460B46207F012805D001262677022048
:103A600060771AB10AE00220BDE8F087587810F0BC
:103A7000100F03D000F0EF000A30587042B35878AE
:103A800001F0D4FD987801F0D1FD9878D9781A78B2
:103A900040EA01405978090241EA423140EA010511
:103AA0002168CA204862216853204862204601F0FC
:103AB000AFFE00274FF0FF084FF00409C8B120689F
:103AC000C0F8248084F81D9027770120BDE8F08796
:103AD000D87801F0B4FD0204587801F0B0FD42EA54
:103AE0000022987801F0ABFD1978104340EA413587
:103AF000D6E7216825F0C00020F07F4048602068AC
:103B0000C16821F08001C1602068806810F0200F3A
:103B10000CD1204600F09AF840B12068C0F824800B
:103B200084F81D9027770120BDE8F0872068C0F851
:103B30002480667727770020BDE8F0872DE9F047DD
:103B400004460D46207F012810D04FF0010984F86B
:103B50001C900220607700275AB12068806810F01E
:103B6000400F1DD0287801F061FD1AE00220BDE869
:103B7000F0872068806810F0400F00D1EF7028783F
:103B800001F05DFD0204687801F059FD42EA00226F
:103B9000A87801F054FDE978104340EA01460BE0B3
:103BA000EF70A8782978EA7840EA0140697809023C
:103BB00041EA024140EA01062168CA2048622168C0
:103BC00053204862204601F023FE4FF0FF084FF0DB
:103BD000040A40B12068C0F8248084F81DA027772B
:103BE0000120BDE8F087184821683040086020684F
:103BF000816821F4802181602969E8680143206897
:103C00008268114381602068C16821F08001C16031
:103C10002068806810F0200F0CD1204600F016F8C4
:103C200040B12068C0F8248084F81DA027770120C7
:103C3000BDE8F0872068C0F8248084F81D902777BD
:103C40000020BDE8F08700007F7F7F0070B504464C
:103C50002068C16821F0A001C160FFF7F7F80546B0
:103C60002068C06810F0200F0CD1FFF7EFF8401B60
:103C7000B0F57A7F01D9032070BD2068C06810F0CC
:103C8000200FF2D0002070BD70B50446002C05D086
:103C90000025A56294F8510010B106E0012070BD26
:103CA00084F85050204600F031F8022084F851008A
:103CB0002068016821F040010160A1686068226904
:103CC0000843E1681143084361690843218B01F40B
:103CD00000710843E1690843216A0843A16A084367
:103CE00021680860A069042101EA1040616A084364
:103CF000216848602068C16921F40061C16165657F
:103D0000012084F85100002070BD0000F0B587B09C
:103D10000068A0F18041B1F560513CD100251F48F9
:103D2000016841F480410160006800F48040019026
:103D30001B48016841F480710160016801F48071E1
:103D40000191016841F004010160006800F0040085
:103D500001900A20029002240394059405260696F9
:103D6000104F02A93846FEF751FF04200290039439
:103D70000495069602A90C48FEF748FF0122114659
:103D80003846FFF75CF8012102910391069602A9DB
:103D90003846FEF73BFF07B0F0BD00004038024058
:103DA0003038024000200240000802402DE9F84F60
:103DB0000446DDF828800D4616469B4601274FF045
:103DC000000994F8500001280ED0012084F850001A
:103DD000FFF73CF8824694F85100616801280ED044
:103DE000B1F5827F07D102E00220BDE8F88FA1681B
:103DF00009B9042803D04FF0020900F0C3B845B157
:103E00003EB1BBF1000F04D094F85100012803D05B
:103E100005E04FF00109B5E0052084F851000020CD
:103E20006065A663A4F83EB0A4F83CB02563A4F88E
:103E300036B0A4F834B0206460642068016811F0E2
:103E4000400F03D1016841F040010160E068B0F526
:103E5000006F05D06068C8B3E08E01283ED06EE0E8
:103E6000606810B1E08E012831D121682888C860CF
:103E7000AD1CE08E401EE08629E06FB1E08E58B1A7
:103E80002068816811F0020F06D02988C160AD1C3E
:103E9000E08E401EE0860027E08F58B120688168E0
:103EA00011F0010F06D0C0683080B61CE08F401EB4
:103EB000E0870127B8F1FF3F09D0FEF7C7FFA0EB6D
:103EC0000A00404503D34FF003095BE006E0E08EB3
:103ED0000028D2D1E08F0028CFD136E021682878A1
:103EE00008736D1CE08E401EE08628E06FB1E08E06
:103EF00058B12068816811F0020F06D015F8011B37
:103F00000173E08E401EE0860027E08F58B12068E4
:103F1000816811F0010F06D0C06806F8010BE08F30
:103F2000401EE0870127B8F1FF3F08D0FEF78EFF63
:103F3000A0EB0A00404502D34FF0030922E0E08ED7
:103F40000028D3D1E08F0028D0D14346012202219E
:103F50002046CDF800A001F0EDFD10B14FF00309AF
:103F600010E052464146204601F094FC20B14FF04B
:103F700001092020606505E0A06818B92068C168C3
:103F800080680090012084F85100002084F85000DF
:103F90004846BDE8F88F4FF0E021042804D00869B6
:103FA00020F0040008617047086940F004000861CF
:103FB00070477047401EB0F1807F01D301207047E9
:103FC0004FF0E0214861044AF02010700020886121
:103FD000072008610020704723ED00E010B5FFF7CF
:103FE000E8FF10BD7047704710B490F83820012AE0
:103FF0002AD0012380F83830022280F83920026864
:10400000D2F804C02CF0700CC2F804C00268D2F8D8
:1040100004C00C684CEA040CC2F804C00268D2F870
:1040200008C02CF0800CC2F808C00268D2F808C0A2
:1040300049684CEA0101916080F83930002180F82C
:10404000381010BC0020704710BC0220704710B51B
:104050000446002C03D094F8390010B107E0012089
:1040600010BD002084F83800204600F00DF8022032
:1040700084F83900211D206802F058F8012084F8E6
:104080003900002010BD000008B50068A0F1804193
:10409000B1F5805112D10A48016841F01001016068
:1040A000006800F010000090012211463620FEF753
:1040B00049FFBDE808403620FEF738BF08BD0000C4
:1040C000403802400168CA6842F00102CA600068D4
:1040D000016841F00101016000207047022180F871
:1040E000391001680A6A41F211131A4207D10A6AAB
:1040F0009B101A4203D10A6822F001020A600121D2
:1041000080F8391000207047704770B50446206869
:1041100001694FF0000511F0020F17D0C16811F0CE
:10412000020F13D0E91E016101202076206880690A
:1041300010F0030F03D02046FFF7E6FF05E020460E
:1041400000F09DF8204600F09BF825762068016974
:1041500011F0040F18D0C16811F0040F14D06FF0E3
:1041600004010161022020762068806910F4407FFC
:1041700003D02046FFF7C8FF05E0204600F07FF897
:10418000204600F07DF825762068016911F0080FBF
:1041900018D0C16811F0080F14D06FF00801016148
:1041A000042020762068C06910F0030F03D0204659
:1041B000FFF7AAFF05E0204600F061F8204600F076
:1041C0005FF825762068016911F0100F18D0C168DA
:1041D00011F0100F14D06FF010010161082020764B
:1041E0002068C06910F4407F03D02046FFF78CFFA1
:1041F00005E0204600F043F8204600F041F825761F
:104200002068016911F0010F09D0C16811F0010F98
:1042100005D06FF001010161204600F033F82068FD
:10422000016911F0800F09D0C16811F0800F05D02D
:104230006FF0800101612046FFF7D4FE206801691C
:1042400011F0400F09D0C16811F0400F05D06FF098
:1042500040010161204600F08FF82068016911F0EB
:10426000200F0BD0C16811F0200F07D06FF0200194
:1042700001612046BDE87040FFF7B5BE70BD7047D4
:1042800070470000F0B583B0304E3089401C30815B
:10429000F088401CF0807089401C708130892C4F60
:1042A00001240025A0F55061C63904D13581387844
:1042B00008B1284804703089A0F5006106390FD193
:1042C000254826A1026801A802F00CFB01A8FBF713
:1042D0008FFF82B24FF47A7301A9214800F0BCFA33
:1042E0002048007830B1F088A0F50C51B93901D1DF
:1042F0001D480470F088A0F56A41CE3907D1F580D9
:10430000387820B119480470707800B974700020B2
:10431000174AC0EBC00112EB011105D00B6A012B4B
:1043200002D14B6E5B1E4B66401C0528F1DB708989
:10433000A0F5DA11B1F55D5106D1307908B13571CA
:1043400001E00C480470758103B0F0BD000000204E
:104350003C000020440000204C0000204025640068
:10436000CC0D00203D00002046000020450000202C
:10437000F4000020530000207047704710B5044639
:1043800022681068D168526900F00F03002B0AD12F
:1043900010F0200F07D011F0200F04D02046BDE808
:1043A000104001F04ABF002B6BD002F0010301F472
:1043B000907C53EA0C0364D010F0010F06D011F486
:1043C000807F03D0E36B43F00103E36310F0040F3D
:1043D00006D012F0010F03D0E36B43F00203E36356
:1043E00010F0020F06D012F0010F03D0E36B43F080
:1043F0000403E36310F0080F06D012F0010F03D09E
:10440000E26B42F00802E263E26B002A2ED010F069
:10441000200F05D011F0200F02D0204601F00DFF33
:1044200020684069C0F38010E16B11F0080F00D1E3
:1044300008B3204601F0E6FE2068416911F0400F04
:1044400015D0416921F040014161606B58B11849B4
:104450000165606BFEF746FB002807D0606B016DBD
:10446000BDE8104008472046FFF787FF10BD2046F3
:10447000FFF783FF10BD2046FFF77FFF0020E063BA
:1044800010BD10F0800F07D011F0800F04D020462F
:10449000BDE8104002F0BCB810F0400FF0D011F0B1
:1044A000400FEDD02046BDE8104001F0B9BE00003D
:1044B000F561010870B50446002C04D094F8390069
:1044C000002510B106E0012070BD84F83850204668
:1044D00000F022F8242084F839002068C16821F413
:1044E0000051C160204601F0F1FE2068016921F40D
:1044F000904101612068416921F02A0141612068F1
:10450000C16841F40051C160E563202084F839009E
:1045100084F83A00002070BDF0B587B0016800272C
:1045200002240125032007233F4EA1F18042B2F56A
:1045300088322DD03D4AA1F1804CBCF5904C42D040
:10454000A1F18043B3F5A04320D1116841F00401EB
:104550001160116801F004010191116841F0080136
:104560001160116801F00801019191140291039406
:10457000049505900820069002A92D48FEF746FBF9
:104580000420029002A92B48FEF740FB07B0F0BDC3
:1045900029490A6842F010020A60096801F0100116
:1045A000019140210291039404950590069302A97C
:1045B0003046FEF72BFB8021029102A93046FEF720
:1045C00025FB07B0F0BD1D49D1F800C04CF4802C8C
:1045D000C1F800C0096801F480210191116841F01F
:1045E00080011160116801F0800101914FF4806138
:1045F0000291039404950590069302A93046FEF7B4
:1046000005FB4FF40061029102A93046FEF7FEFA65
:104610004FF48070029003950494069702A908480D
:10462000FEF7F4FA07B0F0BD000402403038024053
:1046300000080240000C024044380240403802406A
:10464000001C024090F83A30202B01D00220704725
:10465000D1B1CAB190F83830012B17D08162828570
:10466000C2850021C163222280F83A2080F83810E8
:1046700001684A6942F001024A610068C16841F478
:104680009071C16000207047012070470220704780
:104690002DE9F041414E01683078A1F18042B2F538
:1046A000883211D0A1F18042B2F5904273D13D4AD7
:1046B0003B4B11885854481C10803146BDE8F041EE
:1046C00001223948FFF7BEBF384C394F218809B95C
:1046D000202802D07854491C218000254FF0010881
:1046E0007B2809D186F8048032A002F0EBF82088FC
:1046F000384400F8015C25803078232809D186F8F9
:10470000028032A002F0DEF82088384400F8015C14
:1047100025803078212806D186F803802188394405
:1047200001F8015C258026280CD12088052809D2B3
:104730002CA002F0C7F831A002F0C4F8258035485B
:1047400080F80080307824280DD1208805280AD2EE
:1047500031A002F0B7F82088384400F8015C2580C9
:10476000334880F8008030783A280DD120880A2814
:104770000AD330A002F0A6F82088384400F8015C83
:104780002580334880F80080012204493148FFF732
:1047900059FF0228F8D0BDE8F08100000000002099
:1047A000C8050020400000204C0E00203E000020E4
:1047B000FA050020B0B2D7BFCDA8D0C5D0C5CFA2D2
:1047C000A3BABDD3CAD5CDEAB3C90A00B0B2D7BF28
:1047D000C5E4D6C3D0C5CFA2A3BABDD3CAD5CDEA4E
:1047E000B3C90A00B0B2D7BFB2E2CAD4D0C5CFA213
:1047F000A3BABDD3CAD5CDEAB3C90A00CFB5CDB3EC
:10480000D7BCB1B8D6D8C6F4A3ACB8FCD0C2B3CC30
:10481000D0F20A0053000020B0B2D7BFBDE2B3FD12
:10482000D0C5CFA2A3BABDD3CAD5CDEAB3C90A00B9
:1048300054000020B0B2D7BFB8FCD0C2CAB1BCE4AB
:10484000D0C5CFA2A3BABDD3CAD5CDEAB3C90A0099
:1048500055000020CC0D00202DE9F84304460D46FC
:1048600091461E4694F83900202802D00220BDE867
:10487000F8834DB3B9F1000F26D094F83800012821
:1048800025D0012084F838000027E763212084F830
:104890003900FEF7DBFA8046A4F82490A4F82690AD
:1048A000E08CA0B3E08C401EE084A068B0F5805F8F
:1048B00010D04346002280212046009601F0DBFE06
:1048C000F0B10320BDE8F8830120BDE8F8830220A1
:1048D000BDE8F8834346002280212046009601F07F
:1048E000CAFE10B10320BDE8F88328882168C0F310
:1048F00008004860206908B16D1C05E0AD1C03E0AC
:10490000216815F8010B4860E08C0028CAD14346A5
:10491000002240212046009601F0ADFE10B1032098
:10492000BDE8F883202084F8390084F8387000202E
:10493000BDE8F883704700F08DFFFEE770B586B0E4
:1049400000256A48016841F040010160016801F0FA
:1049500040010091016841F040010160016801F0EF
:1049600040010091016841F040010160016801F0DF
:1049700040010091016841F040010160016801F0CF
:1049800040010091016841F040010160016801F0BF
:1049900040010091016841F040010160016801F0AF
:1049A00040010091016841F040010160016801F09F
:1049B00040010091016841F040010160016801F08F
:1049C00040010091016841F040010160016801F07F
:1049D00040010091016841F040010160016801F06F
:1049E00040010091016841F040010160016801F05F
:1049F00040010091016841F040010160006800F051
:104A00004000009001200190029502240394384E4A
:104A100001A93046FEF7FAF801940295039401A922
:104A20003046FEF7F3F804200190039401A93046C4
:104A3000FEF7ECF8082001900295039401A9304696
:104A4000FEF7E4F8102001900295039401A9304686
:104A5000FEF7DCF8202001900295039401A930466E
:104A6000FEF7D4F8402001900295039401A9304646
:104A7000FEF7CCF8802001900295039401A93046FE
:104A8000FEF7C4F8E00101901A4D0295039401A9C4
:104A90003046FEF7BBF8200201900295039401A96D
:104AA0003046FEF7B3F8600201900295039401A925
:104AB0003046FEF7ABF8A00301900295039401A9DC
:104AC0003046FEF7A3F8012200212820FEF73AFA2B
:104AD0002820FEF72BFA022200211720FEF732FAD7
:104AE0001720FEF723FA06B070BD000030380240F0
:104AF000001802400000211070B50D282CD2DFE80C
:104B000000F02B070A0D101316191C1F2225280070
:104B10001B4C022520E01A4C02251DE0184C0425F0
:104B20001AE0174C082517E0154C102514E0144C1A
:104B3000202511E0124C40250EE0114C80250BE0A1
:104B40000F4CA51508E00E4C651505E00C4C25151D
:104B500002E00B4C4FF4004529462046FEF764F96D
:104B6000012808D11420FDF7CFFF29462046FEF783
:104B70005BF9012801D0012070BD002070BD00004C
:104B80000018024010B400230022B1F800C0012137
:104B900001FA02F41CEA040F05D0C2F10F0401FA75
:104BA00004F423439BB2521C102AF1DB038010BC97
:104BB000704710B40023002291F800C0012101FACF
:104BC00002F41CEA040F05D0C2F1070401FA04F450
:104BD0002343DBB2521C082AF1DB037010BC704780
:104BE000F0B587B02348016841F080010160016899
:104BF00001F080010191016841F01001016001683C
:104C000001F010010191016841F01001016000689C
:104C100000F010000190184F00224FF40071384648
:104C2000FEF70DF9154E002220213046FEF707F958
:104C3000002240213046FEF702F97015029001244F
:104C400003940225059502A93846FDF7DFFF2021D0
:104C500002910394059502A93046FDF7D7FF402045
:104C600002900394059502A93046FDF7CFFF07B0E7
:104C7000F0BD000030380240001C0240001002402D
:104C800008B500210D48026842F002020260006887
:104C900000F0020000900B48094A02604FF496525F
:104CA00042608160C16001610C2242618161C16129
:104CB000FFF700FCBDE8084000F006B830380240BD
:104CC00000100140CC0D002010B50022012125204C
:104CD000FEF738F9BDE810402520FEF727B910B5DA
:104CE000002202212720FEF72DF9BDE810402720E1
:104CF000FEF71CB910B5002203213520FEF722F97A
:104D0000BDE810403520FEF711B9000010B513487A
:104D100011490160002141607F228260FF22C26050
:104D2000016141618161FEF71FFE0DA401210B4865
:104D3000FEF7BCFDA0F54851F13904D02046BDE88E
:104D4000104000F089BC0A4801680168016841F020
:104D50008071016010BD000000280040200F00207D
:104D60003138313231373034313231373030000080
:104D7000743802400C480B4901604FF48271416065
:104D800000218160C160022202610122426152025F
:104D900082610822C2610162416281620A21C162AC
:104DA000FEF772BF00380040C80E002008B5002191
:104DB0000D48026842F480120260006800F480101E
:104DC00000900B48094A02604FF4E1324260816072
:104DD000C16001610C2242618161C161FFF76AFB20
:104DE000BDE80840FFF786BF403802400050004051
:104DF0000C0E002000F02EFDFEE70000F0B52DEDBA
:104E0000028B93B00C46174600250E950F95109512
:104E100011951295019502950395049505950695B2
:104E20000795089509950A950B950C950D95002108
:104E3000BC4A01AE1288002A04DD435C7354491C4D
:104E40009142FADB114601A8FCF7B8F958B1B6A0B7
:104E500001F038FD606D401C6065FCF7E7FA13B0A7
:104E6000BDEC028BF0BDB9A001F02CFDC0A104F196
:104E70007400FBF7C4F90DF103018A1CCB1C18B3B5
:104E8000E06E042840D0A06E405C8DF83A00A06E21
:104E9000305C8DF83B008DF838508DF83950B6A154
:104EA00004F15C00FBF7ABF900283DD0B4A104F19C
:104EB0005C00FBF7A4F900283CD0B3A001F002FD90
:104EC00013B0BDEC028BF0BDE06E04280CD0A06ED8
:104ED000305C8DF83A00A06E405C8DF83B008DF898
:104EE00038508DF83950DAE7A06E405C8DF83A0002
:104EF000A06E305C8DF83B00A06E815C8DF83810A0
:104F0000C05C8DF83900CAE7A06E415C8DF838109E
:104F1000305C8DF83900A06E805C8DF83A00A06E90
:104F2000C05C8DF83B00BAE70EA8FCF781F8B0EE44
:104F3000408A07E00EA8FCF733F9216F03F00CFB61
:104F4000B0EE408A18EE100AFBF7DEFA41EC100BC7
:104F500096A053EC102B01F0B5FCD4F8800010B9EA
:104F6000D4F88410C9B19FED9A0AD4F88410C8EE21
:104F7000000A081A00D5404200EE100AB8EEC00A36
:104F800020EE808A18EE100AFBF7BEFA41EC100BF7
:104F900090A053EC102B01F095FC062F78D2DFE89F
:104FA00007F003213F5D7C9A8D4890ED000AB4EE36
:104FB000C80AF1EE10FA11D88A4890ED000AB4EE52
:104FC000C80AF1EE10FA09DB94ED140A30EE080A73
:104FD00084ED140AA06D401CA0659DE0606D401C2E
:104FE000606599E0804890ED000AB4EEC80AF1EEE1
:104FF00010FA11D87D4890ED000AB4EEC80AF1EE1F
:1050000010FA09DB94ED140A30EE080A84ED140A54
:10501000A06D401CA0657FE0606D401C60657BE07A
:10502000734890ED000AB4EEC80AF1EE10FA11D8F8
:10503000704890ED000AB4EEC80AF1EE10FA09DBF0
:1050400094ED140A30EE080A84ED140AA06D401C99
:10505000A06561E0606D401C60655DE0664890EDB4
:10506000000AB4EEC80AF1EE10FA12D8634890EDC7
:10507000000AB4EEC80AF1EE10FA0ADB94ED140A45
:1050800030EE080A84ED140AA06D401CA06543E0D0
:105090003FE0606D401C60653EE0594890ED000ABD
:1050A000B4EEC80AF1EE10FA11D8564890ED000A95
:1050B000B4EEC80AF1EE10FA09DB94ED140A30EEF2
:1050C000080A84ED140AA06D401CA06524E0606D00
:1050D000401C606520E04C4890ED000AB4EEC80A20
:1050E000F1EE10FA11D8494890ED000AB4EEC80A62
:1050F000F1EE10FA09DB94ED140A30EE080A84EDA3
:10510000140AA06D401CA06506E0606D401C60653F
:1051100002E03FA001F0D6FBFCF788F913B0BDEC2C
:10512000028BF0BD420000204D6F64627573707297
:105130006F63657373A3BAB4ABB8D0C6F7BDD3CAF7
:10514000D5CAFDBEDDB4EDCEF30A00004D6F64623A
:10515000757370726F63657373A3BAB4ABB8D0C65E
:10516000F7BDD3CAD5CAFDBEDDD5FDC8B70A00005C
:10517000736D616C6C000000466C6F617400000020
:10518000496E7465676572004D6F64627573707205
:105190006F636573733A4E6F7420636F6D706174E3
:1051A0006962696C6974790A000000004D6F64627D
:1051B000757370726F63657373B2C9BCAFCAFDBE9D
:1051C000DD2076616C75653A252E32660A00000096
:1051D00000409C4676616C75653A252E32660A0061
:1051E0001C000020200000202400002028000020B7
:1051F0002C000020300000201400002018000020A7
:105200000C00002010000020340000203800002096
:10521000B4ABB8D0C6F7B2CECAFDB4EDCEF3A3A1FD
:105220000A00000000F016BB70B586B02348016884
:1052300041F020010160016801F020010091016846
:1052400041F020010160016801F020010091016836
:1052500041F020010160016801F020010091016826
:1052600041F020010160006800F0200000904FF440
:10527000805001900125029502240494104E01A94A
:105280003046FDF7C3FC200301900295049401A968
:105290003046FDF7BBFC600301900295049401A920
:1052A0003046FDF7B3FCA00301900295049401A9D8
:1052B0003046FDF7ABFC06B070BD00003038024050
:1052C000001402400821014800F062B96600002085
:1052D0002DE9F0438FB0074639463EA001F0F2FABF
:1052E00000F05AFA0022029203920492059206926A
:1052F0000792089209920A920B920C920D920E92CA
:105300000125A7F1300801920024DFF8D890A7F119
:105310003106052E1DD2DFE806F003080D12170036
:105320000821314800F034F918E008212F4800F036
:105330002FF913E008212E4800F02AF90EE0082189
:105340002C4800F025F909E008212B4800F020F94D
:1053500004E00025394629A001F0B4FA002D36D02A
:1053600001A800F0F3F89DF8040018B199F80400C2
:10537000FF2807D0641C032CCBDB39462BA001F09F
:10538000A1FAC6E7A8F10100C0EBC001304800EB6C
:105390000114206A01281AD001253B4622462DA17E
:1053A00002A8009501F09EFA02A8FAF721FF82B246
:1053B0004FF47A7302A92A48FFF74EFA256202A930
:1053C00028A001F07FFA39462EA001F07BFA0FB039
:1053D000BDE8F083B4F2BFAABCCCB5E7C6F73A2566
:1053E000630A0000C8050020860000209600002007
:1053F000A6000020B6000020C60000204F70656E99
:105400005F44656C61793AB4F2BFAABCCCB5E7C61B
:10541000F7CAA7B0DCA3ACBCCCB5E7C6F7B6CBBF28
:10542000DAB4EDCEF32563210A000000436C6F73FC
:10543000655F44656C61793AB9D8B1D52563B6CB5F
:10544000BFDABCCCB5E7C6F7CAA7B0DC0A000000DB
:10545000F40000202A25732C25632C25640000000D
:10546000CC0D00204F70656E5F44656C61793AB772
:10547000A2CBCDBCCCB5E7C6F7CAFDBEDD3A2573DD
:105480000A0000004F70656E5F44656C61793AB444
:10549000F2BFAA2563B6CBBFDABCCCB5E7C6F70A24
:1054A0000000000030B583B00546A5F13103184671
:1054B00005281FD21048C3EBC30100EB0114E06EB6
:1054C000002817D129460DA001F0FCF92846FBF76A
:1054D000C3FF0120E0662A4611A1684601F002FAE6
:1054E0006846FAF785FE82B24FF47A7369460E4831
:1054F000FFF7B2F903B030BDF40000204572726FBF
:10550000723AB3F6CFD6D2ECB3A32C2563BAC5BC9E
:10551000CCB5E7C6F7CDA3D6B9B9A4D7F70A000032
:105520002425630A00000000CC0D0020082101485A
:1055300000F02EB8560000200821014800F028B8DD
:105540007600002000F086B97047000070B5044670
:10555000002525706420FDF7D7FA07A001F0B2F905
:10556000094801782170094A018811800580BDE849
:1055700070400A20FDF7C8BAB4ABB8D0C6F7BDD3A7
:10558000CAD5CDEAB3C90A0040000020420000207D
:1055900070B505460E460A20FDF7B6FA0F4C0122FB
:1055A00011022046FDF74BFC4FF6FF7332462946A9
:1055B0000B48FFF751F958B909480068016811F024
:1055C000400FFBD000224FF480712046FDF737FCDE
:1055D000BDE870400A20FDF797BA0000001C0240A9
:1055E0004C0E002008B500210D48026842F002026E
:1055F0000260006800F0020000900B48094A026057
:105600004FF4165242608160C16001610C22426118
:105610008161C161FEF74EFFBDE80840FFF75FBB47
:1056200030380240004800404C0E0020010901EBD8
:105630008101490000F00F000844C0B2704700210A
:105640000A2804D3491C0A38C0B20A28FAD209072A
:1056500040EA11607047000000B589B00021009158
:1056600001910291694600F09FFC072808D04FF491
:105670007A73012245A14648FFF7EEF809B000BD54
:105680009DF80030A3F11800292808D34FF47A734D
:1056900001223EA13E48FFF7DFF809B000BD9DF8AA
:1056A0000100132808D34FF47A73012237A1384838
:1056B000FFF7D2F809B000BD9DF80210322908D3D7
:1056C0004FF47A73012231A13148FFF7C5F809B0D0
:1056D00000BD9DF80320082A08D34FF47A730122F5
:1056E0002AA12B48FFF7B8F809B000BD9DF804C007
:1056F000BCF1250F08D34FF47A73012223A124486B
:10570000FFF7AAF809B000BD9DF805C0BCF1610F14
:1057100008D34FF47A7301221CA11D48FFF79CF8AF
:1057200009B000BD9DF806C0BCF1610F08D34FF46D
:105730007A73012215A11648FFF78EF809B000BD53
:105740008DF80F308DF80D008DF80E108DF80C20AF
:10575000012203A90F48FEF779F99DF804008DF89E
:1057600010009DF805008DF811009DF806008DF8D9
:105770001200012204A90748FEF7E0F943F2F122E2
:1057800001210448FEF798F809B000BD2B00000085
:10579000CC0D0020200F002000B587B0002201A909
:1057A0000E48FEF7B3F8002206A90C48FEF78AF867
:1057B0009DF81B009DF81A3000F5FA619DF819203C
:1057C00007A001F07FF89DF806309DF805209DF8B0
:1057D00004100BA001F076F807B000BD200F0020E8
:1057E000B5B1C7B0CAB1BCE4CEAA3A202530326404
:1057F000C4EA25303264D4C225303264C8D50000F2
:10580000253032643A253032643A253032640A0059
:1058100070B504462068C16811F0400F17D14FF0F1
:10582000FF31C160FDF712FB05462068C06810F02B
:10583000400F0CD1FDF70AFB401BB0F57A7F01D970
:10584000032070BD2068C06810F0400FF2D0002027
:1058500070BD00004FF47A7301220AA10A48FEF7D6
:10586000FBFF012080F31388BFF34F8F07480168C7
:10587000074A01F4E06111430160BFF34F8F00BF9D
:10588000FDE700007B000000CC0D00200CED00E0E7
:105890000400FA0538B504460B4600920022802128
:1058A000204600F047F928B1606D40F020006065A7
:1058B000032038BD002038BD2DE9F04105460C46D7
:1058C0001746134E002201213046FDF7B8FA032097
:1058D00000F0ECF8C4F3074000F0E8F8C4F3072048
:1058E00000F0E4F8E0B200F0E1F8781E84B207D3EB
:1058F000FF2000F0DBF828706D1C611E8CB2F7D21F
:105900003046BDE8F04101221146FDF798BA00008B
:10591000002002402DE9F04706460C46E1B2C1F5F1
:105920008070C5B2100AD7B200292FD0E1B2C1F5FC
:105930008071C9B204EB010A002844D0501B80B228
:105940004FEA102900F0FF082A462146304600F0B1
:1059500053F857463544B9F10100C4B20CD34FF4A3
:1059600080723946284600F047F807F5807705F53C
:105970008075611ECCB2F2D2B8F1000F39D0424628
:1059800039462846BDE8F04700F036B8A8B1401EB9
:10599000C5B24FF480722146304600F02DF804F570
:1059A000807406F58076691ECDB2F2D23A46214661
:1059B0003046BDE8F04700F01FB821463046BDE84C
:1059C000F04700F019B8AF420DD9781BC7B22A468C
:1059D0002146304600F010F870193A465146BDE8AD
:1059E000F04700F009B821463046BDE8F04700F026
:1059F00003B8BDE8F08700002DE9F04105460C46EC
:105A0000164600F083F8154F002201213846FDF7B5
:105A100016FA022000F04AF8C4F3074000F046F8F6
:105A2000C4F3072000F042F8E0B200F03FF8B6F50A
:105A3000807F00D9BE15701E84B206D3287800F08E
:105A400035F86D1C611E8CB2F8D201221146384621
:105A5000FDF7F5F9BDE8F04100F03EB80020024046
:105A600070B5044600F052F800F036F80E4D0022F2
:105A700001212846FDF7E3F9202000F017F8C4F3D0
:105A8000074000F013F8C4F3072000F00FF8E0B26D
:105A900000F00CF8012211462846FDF7D0F9BDE8C8
:105AA000704000F019B800000020024000B583B03B
:105AB00001906FF07F400090012302AA01A90548E0
:105AC000FEF774F908B1FF2002909DF8080003B0BA
:105AD00000BD0000C80E002010B50B4C00220121B3
